:100000000C941F0F0C94470F0C94470F0C94470F40
:100010000C94470F0C94470F0C94470F0C94470F08
:100020000C94470F0C94470F0C94470F0C94470FF8
:100030000C94470F0C94470F0C94470F0C94470FE8
:100040000C94470F0C94470F0C94470F0C94470FD8
:100050000C94470F0C94470F0C94470F0C94752386
:100060000C94470F0C94470F0C94470F0C94470FB8
:100070000C94470F0C94470F0C94470F0C94470FA8
:100080000C94470F0C94470F0C94470F0C94470F98
:100090000C94470F0C94470F0C94470F0C94470F88
:1000A0000C94470F0C94470F0C94470F2B1D581DB1
:1000B000041D711D4B1DB61DB61DB61DDB1D111D8A
:1000C000881D381D9D1D9D1D6E2B6E2B822B012CB6
:1000D000EB2CBA2DEE2D162E2A2EE22C3A2E3A2E8D
:1000E0003A2E090F970593490010900020200140F7
:1000F000E0305F0020002000020002200000090F15
:100100002F174C260212000424C0BB7D07000400F8
:1001100001400000090F5F5C309904F8DE7E0000AA
:1001200000090F5F5E30F9FABE03090F5F5C30997A
:100130007C75BF03090F2F174C2693C9E4F5FE1EEB
:10014000090F970593C96432994CAEFBFB090FFC6C
:100150007900090F5F5C3CFBDE7B090F5F5A3CFFB7
:10016000CE7700090F2F169FBD7F1F090F2EFE2C83
:10017000D5F08D14A1C881CFD9F1AF200003081F9D
:10018000051F1F151B1F11111F110E1F15111F0514
:10019000011F111D1F041F001F0010101F1F041B33
:1001A0001F10101F061F1F011F1F111F1F05071FF4
:1001B000311F1F051B17151D011F011F101F0F10D9
:1001C0000F1F0C1F1B041B071C071915130C121EF5
:1001D0001F120C1E12120C121F0C1A14041F052ED3
:1001E0002A1E1F021C001D00201D001F041A011FD3
:1001F000001E041E1E021E1E121E3E120C0C123E7B
:100200001E020614120A020F121E101E0E100E1EDF
:10021000081E1A041A2E281E1A12161F111F121F4A
:10022000101D151711151F07041F17151D1F151D6C
:1002300001011F1F151F17151F00170000100004D4
:100240000404040E040229060A0000596F757E7525
:100250007365647E617E6865616C696E677E7370CC
:10026000656C6C2E0A2020207E596F757E68617641
:10027000657E6761696E65647E380A202020207E75
:1002800065787472617E48507E706F696E74732EEB
:10029000007E596F757E757365647E617E706F69CF
:1002A000736F6E7E7370656C6C2E0A20207E4465C1
:1002B000616C7E327E65787472617E64616D6167A7
:1002C000650A202020202020207065727E747572BF
:1002D0006E2E0020596F757E757365647E617E6633
:1002E0006972657E7370656C6C2E0A2020207E4DCD
:1002F0006F6E737465727E6C6F7365737E31300AD6
:1003000020202020202048507E706F696E74732E4C
:100310000020596F757E757365647E616E7E6963BA
:10032000657E7370656C6C2E0A20207E4D6F6E7337
:100330007465727E69737E66726F7A656E0A2020BC
:10034000202020666F727E6F6E657E7475726E2ED1
:1003500000557067726164657E796F75727E57654E
:1003600061706F6E210020204761696E7E616E7E34
:1003700041726D6F757221004761696E7E617E48C2
:1003800065616C696E677E57616E642100476169C3
:100390006E7E617E506F69736F6E7E57616E6421F1
:1003A00000204761696E7E616E7E4963657E57619C
:1003B0006E642100204761696E7E617E46697265C8
:1003C0007E57616E64210048656C6C3A004861722A
:1003D000643A004E6F726D616C3A00456173793A10
:1003E00000207E596F7520616C72656164790A2006
:1003F0006861766520656E6F75676821007E596F4C
:100400007520646F6E7420686176650A206F6E6572
:1004100020746F2073656C6C2100202020596F754B
:10042000206E6565640A20206D6F726520676F6CB1
:10043000642100456E656D79204B696C6C656400C4
:10044000596F757E6B696C6C65647E7468657E42FD
:100450006F73732E0A000909AAFF0101000101014F
:100460000001010100010101AAFF000101010001D9
:100470000101000101010001010100010408003E29
:100480001C08090900FEFEFEFEFEFEFE0000000044
:10049000000000000000FEFFFFFFEFFFFFFFFE0077
:1004A0000101010101010100FEFFFBFFFFFFBFFF92
:1004B000FE000101010101010100FEFFBFFFEFFF8E
:1004C000FBFFFE000101010101010100FEFFBBFF76
:1004D000FFFFBBFFFE000101010101010100FEFF62
:1004E000BBFFEFFFBBFFFE000101010101010100A5
:1004F000FEFFABFFFFFFABFFFE00010101010101A9
:10050000010011AFEFC6A2002C24C0420060D1F15F
:100510001038F281D00002200020000800022001E3
:100520000CBD73E633B00608002A08480202C00278
:100530005977E004C047F63406828242301E0E2FFF
:1005400080C9003E31752A02484568141DF3111018
:100550000EC0398F7A436EC80DBCF93D0FBF3FE91D
:1005600094E3D83F66F9BD8FFE84E51847AEDBEF14
:1005700066DC7F60797972DC7A5A9775CAE7EECBD0
:10058000DFF9F637020FBF7FFFCF79EC691DF63C2C
:1005900065FE6E7F9DA783F76739CD79EA91EF3DC0
:1005A000FD915F9BF91D2B3F37075AB709C8C26100
:1005B000041091028A01B0B203CB3AD0FA4719B2C3
:1005C000100826EE0C8E20016C08E0B0A41007087D
:1005D0007114265B02D810C0806736935FBC0F0091
:1005E00002B7BD25149980080C406452042E0814EB
:1005F00008029341111880080C8A8430994CA04855
:1006000028A0F667EC0D028070DEFBA303168000C5
:10061000084402422829C0027E973B93CD6673D5D9
:10062000EA4000040039EDFDE91E5D0E60B180E591
:10063000B13F95E1409440B301805A18C2005A522C
:1006400052FEE26E8618C0C072B280C900168B7F5F
:100650001E6BFBEFAABBBF0B297FEFB3DD5849949C
:1006600032C12271C86298FC39992CA084925E280C
:100670006111874160186258948D4306B0582CFE72
:100680004E842065226500520620650052062065D2
:1006900050D21013B09082050B0E603081C564C239
:1006A0009C3060426142410A05122850A1C062F1AB
:1006B00039F63C80088880088887E9DE5FED268669
:1006C0001026240491D098BDF73ECC1D9AB93E96D1
:1006D000A3CBE572B9BC6699C4C4C157180EA6066F
:1006E000A646270C39CCAD952131D9FEB51C2C304E
:1006F00010A1C0624E9848000734E00007B0D8FC53
:10070000D3D8FFB44CCC8F00A77FD9261240168EC9
:100710007F127BDF40000EFB17B3F99BEC7D0601D7
:1007200040D8FB6754054A9002933FD0DE2704006F
:100730000190A1D52B9BCD6666FB97A4A1A10506D0
:1007400038A016009CFCFE710326152A4C8A1C1B3F
:10075000BECE620183092C360B22C3CDE607750F8E
:100760005800C0BE6F00400060EFDFE95EBF731F3E
:10077000862A511793A86A06ECFDFBBAFBFBB2BBB5
:100780003B011000010001100010000180027AD826
:1007900003910F2E9E74B07A6B81C5E781B72D321D
:1007A0003C76B07A7420051F0355A7FFDE008087D2
:1007B000810520393A11915B17626F3DA067A71040
:1007C000E015F0E710C8188CED1BE0B72303019982
:1007D000489037C04F04005E8E45C709720B084031
:1007E000C7654C46DE007FAC21B0C6A9E5E023E03A
:1007F000A7775011BAE823E0270200FF765819CEF8
:100800003A3A020E5F01BFDD15501881F80AF889E7
:1008100000C0BFA9AA842261F40DF0D3C181042DC8
:1008200012F011F01301805F3A1660AE9DD4B3430D
:1008300018C0112852E00A1429F09121B0064F1F68
:10084000A60419C0400A86634A082184E646C828DF
:100850001226A19D44000108001542919051246C7C
:10086000A000048000D04EC298219C98CC6E2641F6
:100870003A0E0C98930205200004807612C60CE113
:100880004400C6A4292184109A1B21A34898847689
:100890005216000120C843160B10408020B0D96CBE
:1008A0005E335D9C992E6032F9D52C26933F1BD385
:1008B000CFB0588000020481CD66F31D360B2800AE
:1008C0000516C3C5F7086D08B794104208CD8DD939
:1008D00050A4A8744C9E12324268464AD01042730B
:1008E00063763351C992A2C155242C83D049534217
:1008F00008053A269F60B38005142830FC3E6B85BE
:1009000070C655244C423BB9A50004800A9F4A0991
:100910009BC944427314400000004001A01C5C6E5F
:100920002400048020DFC155A44811C53BAE4953C3
:1009300042082134C794104208CD31258450206BE1
:10094000F2124797B9C1155CF39DEB3E79C77CD78E
:100950009E5F9E99F7E9A2A78F9DF026A727A38700
:10096000661E3ACECCFB74D1D381799F59336BDFAD
:10097000AF78953732073D3FBFEFC972CF07EFEE33
:100980000B7AEF7726FBBE998F5F303E715FD07B8D
:10099000EFF705AE9DF14AB9A0A71C3117CE984BD1
:1009A000E4CC655D38E788B944CE5CD68572599F42
:1009B000162FE2D73CE50B5CD6857259672EEBC249
:1009C0007D5C100A0030000A00300030001FE7375D
:1009D000168F9005205E9D4280D3388D576C54361B
:1009E0008BCD62A3B291B0597C4F00590AC814DE76
:1009F00002021B782D4075C8C316156448FB6900B8
:100A0000748AB801780B086CE0B500D5210F5B54EF
:100A10009021ED77A9403410A2F53120B081D702A2
:100A200054873C6C514186B41FAF4C2687BC0504EB
:100A300036F018290B017CD7B240C6EC3B1FFF37BC
:100A4000166F860A00A05CB2585E5360F5119B20B9
:100A50009BC566B151D948D82C3E40721943F71650
:100A6000F02120B0812F20C1519EB5A82043DA8FFC
:100A70004B455450968F01810D7C01514779D6A288
:100A8000820C693F9879594D9642DE01021B788CA1
:100A90001415017CD7A2820C69BF2D802C05640A35
:100AA0006F01810D3C16405404F05D8B0A32A4FDA9
:100AB00034003A45DC00BC050436F058005111C042
:100AC000772D2AC890F6BB54201A08D1FA1810D8EE
:100AD000C06301444500DFB5A82043DA8F57269351
:100AE00043DE02021B785C9085C4772D0B64CCBE7C
:100AF0000301087E3F3F3F97E160B1584C16938950
:100B000000069000124AA8D3E9BF3213F3BDACB679
:100B1000110401527098B000800238A06BACFC3315
:100B200061B1582C9A2FC63513080001000020002F
:100B300024C0C4D9001400100058309C2B2B23CBA8
:100B4000C99FD4818466F1FBD86C764042D0101ADC
:100B50001028410214400010000400014000100061
:100B600010800218008329445D197FB87D66B3D9CF
:100B70006C369BC962B2582CD67EEC000A8010A657
:100B80006C4A28412008088004519120000220006E
:100B90000200F39EF197DA3F7BD706102820903AA7
:100BA000BC8E9D97400140001000040001400010E1
:100BB00000040001C039D91F630125888A08000498
:100BC00011D1120A2C3EB27FF7868083C567E7E613
:100BD00021500040001000040001400010000400FB
:100BE0000160EF8E0F030002E064B23F9B1F9F1F66
:100BF000978FB0596C169BC566B1B9E6C0643233A5
:100C00005A700210015C2E974C0AB6ED600107BFC6
:100C1000FF7FC69CE63CF9EFE1EFEEE18FFF6FE26C
:100C2000B04EF973FE33CAE94FF5EF2AE3EFF3EF65
:100C3000EB0B1CC218479EE734131EFF23FBE4771F
:100C4000BFF7EF2C977559977C7C5D16107051504B
:100C5000697420202020207E2D327E48502C7E2B4F
:100C600046616C6C004D6F76696E677E57616C6C87
:100C700073202020202D317E585000537072696EF1
:100C8000677E426C616465202020202D317E4850B3
:100C9000005275737465647E41726D6F75722020A9
:100CA000202D317E4152005472697077697265203F
:100CB000202020207E2D317E476F6C64004D696CB2
:100CC000646577202020202020207E2D317E466FF5
:100CD0006F64001B9F7B15000098C007C64BCD8139
:100CE000FBF81630010080AEFB010000000000425E
:100CF00078CE60D8C9396E0E7C81100000000000EB
:100D0000383C590013008003378EDCC02B47E09835
:100D1000A7DC3800003001D6A7B9722C5C80734E76
:100D2000E3C8EF011BDF178738557CCD62B317ECA2
:100D300075D9739E780A822E10CB0B5BC418113FB5
:100D4000C04891CC4B6F0513307C03C4A1206A7955
:100D5000C3027583DFC9C8A98B299429D4F205F190
:100D6000505CFE021F70895C3902D79C809F011B7A
:100D70009F872CC86488B840445822C212F100C230
:100D80000572E47B22D45804F12E8661848ADF64E4
:100D90003980051458A0C2021516A8B04085320348
:100DA0002B6FC0C10215169BC566B131B0596C04DA
:100DB000606360232194450C8B812C42F9253EE031
:100DC0001239721CA7FC1C1B9F0FC0F0007C033E55
:100DD000502F826E110E5C8427E3065E224F61EC79
:100DE000086C306C67C76690A8080E4592305C545A
:100DF000CE84B0D553E46DCEC0C93BB099286E0007
:100E00004E8C4A18C85637F080CD91F07DAE1C311B
:100E1000175E70249C809F031B9FAF91458D0E58D9
:100E2000125C0220B120242008820208A011314661
:100E3000C468901BF2491426CCBD0538F28050A43A
:100E4000049475E9171CE0F0B9885BC42DE21671B3
:100E50002B92148003145452009A82AEC20DDC22ED
:100E60006E117F8A0FB8448E9E10B88C5F031BDF13
:100E70006F43600904661E87C01208CC3C0E8125B2
:100E80001098F9093CA43CEEA5705807C29527DCE0
:100E9000289F61B180052A2C08C802221840020B45
:100EA00082B0608101244001284880C502032C6083
:100EB000B1F8093EE012B972EA715C8227BF0B11EA
:100EC00097CF801B78E4390FB8019FC981087BBE9A
:100ED000CD91A30017FE4211D767CE9C7DCE63E46F
:100EE000C8438EC03527E0CC31772F80FC910011AC
:100EF000D7776FC20D7CCDEB7C5339303879E798CA
:100F0000075C227F2411D777E49263E42DAFF34589
:100F1000CC695C903BC73CE012F9230111D7778E76
:100F2000E00D78CEEB7CB427C88D3BC73CE012F9CE
:100F3000230111D70FB87A045EF33A9F849C841B77
:100F400070E798075C227F2411D70F380247E035FD
:100F5000AFF34DE5623879E798075C227F244F7044
:100F6000656E7E63686573743A0A596F757E666F45
:100F7000756E647E676F6C647E6F6E6C7921004F56
:100F800070656E7E63686573743A0A476F6C647E41
:100F9000616E647E7472656173757265210047616C
:100FA000696E7E327E476F6C647E506965636573DF
:100FB0002100557067726164657E796F75727E5726
:100FC0006561706F6E210020204761696E7E616EE1
:100FD0007E41726D6F757221004761696E7E617E20
:100FE0004865616C696E677E57616E642100476178
:100FF000696E7E617E506F69736F6E7E57616E643D
:101000002100204761696E7E616E7E4963657E576F
:10101000616E642100204761696E7E617E4669725F
:10102000657E57616E642100132A4A600F170E0B0C
:10103000D7876301188E4EC41E8185081C9D40FB16
:101040002B861CC8383A9178ECE65839241C7A343F
:10105000C8EA6DFC94217BDC0CB27A6B383B11C67C
:10106000AF18B2C7CD800B388ED30045DF7FB0EB11
:10107000DA1D8E7D71DEA7F33EBDECB65E5F5CFFD0
:1010800068F6D65B57D204D35B4F33E7398E5ECD1B
:101090008E578F635E3B4FB93A1B336BC770B47783
:1010A000BC7A752E0ED3AB57B933566FBD35C134EC
:1010B000A31D303F34BAE8173267E62D5767633A0D
:1010C000BDE6B4733B8CA3575312AF5E33CF5D477D
:1010D000AF7497ABC7319E7D2ACB8C75E87F2F000C
:1010E00002020202030303030303001008040201C7
:1010F000011F202001014000100004002108084EBB
:101100006F0059657300090900FEFEFEFEFEFEFE3B
:1011100000000000000000000000FEFFFFFFEFFFE6
:10112000FFFFFE000101010101010100FEFFFBFFC5
:10113000FFFFBFFFFE000101010101010100FEFFF1
:10114000BFFFEFFFFBFFFE000101010101010100F4
:10115000FEFFBBFFFFFFBBFFFE000101010101011C
:101160000100FEFFBBFFEFFFBBFFFE00010101011D
:1011700001010100FEFFABFFFFFFABFFFE0001011D
:1011800001010101010045766164657E7472617040
:101190003F008DD73DF13EF3F0AD7BB3673E763037
:1011A000714E0781B2F2398E812E0489D73DF1B19B
:1011B000C3E5DCECB91E5F1D04CAF2CE91303609DE
:1011C000973BF3F031E6F732777A231C799E45217D
:1011D0000C010101010101010102020202040404E7
:1011E00008084F70656E7E63686573743A00D7BFF8
:1011F0001EF9EF1347FFCF169CBD7AF5CFC199AB0F
:10120000675EF3E7F0EAD5337FE6A56B0900108847
:1012100011021638124E8413618E70A1040C658E73
:1012200070229C403995430C00000027F582DC9029
:101230008C498910CA858C2237E4863C002A048CAC
:10124000810000B896AE1F1E40200610488C400C4E
:10125000201015046200811880BDF7DE07D6426EAB
:10126000C80DB971D827208006B8EC2B72436EC820
:101270000DB92137E4865CF7058802014EFBC00DED
:10128000B92137642D0E7BEFBD01620081A82010CB
:101290000308C400C60410880104728E17402E088B
:1012A0005C2817EA8172C176246314E8025C341466
:1012B000192CE486DC38EC131040035CF615B921D8
:1012C00037E486DC901B7243AEFB02448100A77DAD
:1012D000E086DC90C5404ACA1258053A46325AB9EF
:1012E000500E960B2017CA05818B593BDF4F982073
:1012F00008140C000501000A06808201A060002885
:1013000018000A06808201A06000281800828680EA
:1013100008411121888204519000123000140C0001
:10132000050340C100503000140C00050340C1000B
:10133000501000A06000282008934FEE0D0004001C
:1013400000101058206B0A37E126DC849B70136E66
:10135000C24DB80937E126DC849B70136EC24DB8CC
:101360000937612C3281000000000000B0F7EFD88F
:101370001B0000000000386C3973E6CC993367CE4F
:101380009C3973E6CC993367CE9C3973DC07000037
:1013900000000060EFAF122E0CDAC500A40A882806
:1013A00060400B02A2000615404840B0E01882E001
:1013B00004CC8EDDD46DB352671D29088220440908
:1013C000C4A0200882203846CD8E21424C80500493
:1013D00006AB6570215C013B97FFC0EFF3304FB463
:1013E000A86C54362A27E7201B480002C439C809D4
:1013F000958DCA4665A3B251D9A86C544E614C0371
:10140000042001761853D9A86C54362A2DA7799850
:101410007716B206087480C014045800022C00012C
:1014200016807001810E100608081710E8000116DA
:1014300080000B0AB000045800022C28C002106083
:101440000108A3807001016180300A081B408005FB
:1014500020C002106001084E40180584B1900509B3
:101460000900FEFEFEFEFEFEFE0000000000000081
:10147000000000FEFFFFFFEFFFFFFFFE0001010184
:101480000101010100FEFFFBFFFFFFBFFFFE0001A6
:1014900001010101010100FEFFBFFFEFFFFBFFFEA5
:1014A000000101010101010100FEFFBBFFFFFFBBC5
:1014B000FFFE000101010101010100FEFFBBFFEF82
:1014C000FFBBFFFE000101010101010100FEFFABB6
:1014D000FFFFFFABFFFE000101010101010100015F
:1014E000020408102040800F0FBF74C1E4D7EE3B08
:1014F0000F0FBF6CC16432F975FB3D0F0FBF64C1A4
:101500006432994C7ECDFE1E0F0F5F5E30994C26E3
:1015100093C9E4EBFBFB0F0F5F5A30994C2693C93C
:101520006432F9DAFE3D0F8FEF56B82137E486DCDE
:10153000901B72E3E1FE7D0F8F7B851B72436EC8AB
:101540000DB92137E4C661FF5E0D0F9725132A54AC
:10155000264626512645E6BACF0903183061C084D5
:101560000113064C98070D0F93A62C0C1801144478
:101570000014134CD8D96CA63AA00600182AB05013
:10158000056A203054CE0D0F57EB6061C008150678
:101590005031C184ED76F701124A300390380C12B5
:1015A0003697110D8F0F09259409260B2C8B20E1FE
:1015B0002B710DC3258E15B9983572000DCF6FA113
:1015C000B00181DD130CF8A6270607F44204288039
:1015D000E10D0D8F8F0499A0818282509830493E91
:1015E0003A064304415246C2913B0DCF274919AAFE
:1015F00040A30205D414501D34F866D41128A80065
:101600000540000AA04221C38E030DCFA76494F0C9
:101610001AC0AB5200441F05201428A100D8308402
:10162000C1CCAD47003A7E53756E6B656E7E4B65DF
:1016300065707E6F667E4F6721003A7E466C616DF5
:10164000696E677E556E646572776F726C64003A7E
:101650007E556E646561647E43617461636F6D6223
:1016600073003A7E506F69736F6E6F75737E447549
:101670006E67656F6E73003A7E5468657E426C617A
:10168000636B7E5365776572730010020157BFCCA0
:1016900095AB0E01DDD62058B73508D66D0D2EBDA1
:1016A0007AF5EAD5AB57AF5EBD7AF5EAD5AB578F81
:1016B000320F73E5EAD5AB57AF8E51AF5EBD7AF509
:1016C000EAD5AB57AF5EBD664DF613660647640CB0
:1016D000B973481DCDE850987EC0230017100E50F6
:1016E000D83060C18205290B162C58304139F99D3C
:1016F000BDF7F7BCC8AA6308E7BFDBFD5B08C20003
:10170000848210203080020B10994CA0C012045724
:10171000804ACA905C2417C94572918C0D47E0320B
:10172000C22C0C98F3037BEFEF6D00E0B0DF3D1CA3
:1017300005CE06991E5BCE4C00C8D5090ABCBD7FFC
:101740001638017202AE5EBD7A056E840302B200E5
:10175000805004004402000808004014008028055E
:101760006A0000500000000181E1EAFBBDF7F73696
:10177000ACBDDF3D616670453A168F80C1046E2DA9
:1017800030F9D425510CB0800212A0800428B0801A
:10179000020B28B080020B2820010A2CA0C0020AEC
:1017A0002CA0C0020A2CA0C0020A2CA0C0020A2C45
:1017B000A0C0020A2CA0C0020A2CA0C0020A0C1170
:1017C00093BDEF5CBDCFC33C5C9D9BAB7F9EFBBBE1
:1017D00096013D1A4401201C1C042102B3E6A9868F
:1017E0001868C010FD3613280CC43104EACFD87B2A
:1017F000BFE3382EE16004B08230060827E0CF74E2
:101800007FC731772F80BCED61DE98C04568477097
:10181000D4E005387729586073C09281C2AD410683
:101820005842D727F6DEDF1306001006224101409A
:10183000E17B03B7089020621772436EC80DB9218F
:1018400037D8673C7AF5EAD5AB57AF1E8C0AA0AA09
:10185000505529AA22A02A45D5881A6559698C4273
:101860005491AA49353B760CAF5EB3E661E2D1AB49
:1018700057578635D412868BE9D5AB57AFCED46295
:101880006A57EDAA5DB5AB364B2600000101020296
:10189000020303030404040404139F0700C29933E2
:1018A00067DE72E6CC9900F00200F8FD00C00B0084
:1018B000E0F70300AF8070E6CC99779C397326C0BF
:1018C000110102020304040517082417082417FF56
:1018D0001313273B3B4F05E742D435AA1D704475CF
:1018E00061DB02A7E81AEE0D5C2A69B4371200D357
:1018F00044DD9909C7E6AED9D1BB232018090737C3
:10190000474696A72C21815A17F74F91204106325E
:1019100090B74081DF0A1C0870EB06C24340E067C5
:10192000DBC0188CE17B107E77411725AC3E477EEB
:101930007A4209AC43DEB15CFC4E26A3459A91F78E
:10194000DCF87DBDE5B42EE26BE002FC2E459F374E
:101950001620002560E2707AED7C76F5EA06A2900A
:1019600090A10322DA553B44060CCD671DB9682FC0
:101970009ED06B0FE809BDE6825E855B4EDC20578A
:10198000E5EA05F8101740000AC480397472EAE7E6
:101990000086A7591C51340828591686B54162B8EB
:1019A000F0D241B0C79662CA4E19B0E4CC35AF3917
:1019B00073E735677F1C020B0805BBFB7AB3CDB418
:1019C000EE180324B20A37E0FB63218305C0691CCB
:1019D0000347E0C8193812E60827E0E65F0D814D9D
:1019E00038FAC0CBB8406EC0959FE7DDAB57AF5E0D
:1019F000BD7204CE5E3922BF06010505060005034F
:101A0000060004020500030103030507090C010198
:101A10000101010101010202020204040408080795
:101A200007410C1A3C1E0C410707000C3A163A0CF1
:101A3000000707002A18360C2A000707001A24326C
:101A4000241A004D6F6E73746572202020202020B0
:101A5000202020357E444D4700466F756E647E53CE
:101A60006869656C64202020202B317E415200572C
:101A700068657473746F6E65202020202020202BF1
:101A8000327E585000466F756E647E4D65617420DD
:101A90002020202B317E466F6F64004865616C7496
:101AA000687E506F74696F6E2020202B327E485004
:101AB00000466F756E647E4C6F6F742020207E2B05
:101AC000327E476F6C64001B1F3F8BC56202031898
:101AD000C060B3F94BEC73133184014409A627F7B6
:101AE000FA112C168BC9024A58C0A20409252C4AA7
:101AF000589420A1844510085260B1D96CFED21BC5
:101B00009FDF646472451C9B27AD02A584F4977225
:101B1000CF4610162C5860848211162C5820C8CE3F
:101B20009DDF014C0000000046669220D4816405D0
:101B30001916244966060000000013F87D7CCDAF1D
:101B4000F17D1B5FEF79C1CAE218080081BC011664
:101B50000BB875008B1B3F8E23A7B5194802008078
:101B600041008475E5017F81FD0E0004000400E65C
:101B70009F8BC562028BCDEF021B9F9F62667044F4
:101B8000C6903B87D4D18C0E85E92FE8040240A58E
:101B90008202425400105480408C131800006C01E3
:101BA00037606001411622B20865F16C9540130060
:101BB0002A062888A110D9102155B0414D6A00008D
:101BC000500000000D000081041184F1433C2237D5
:101BD000E4D61B72EB0D3CFA391B9F3F9C1B72E64F
:101BE000D75092580E1A045021D30A384B03C445DB
:101BF000E93ACC4119842377AEFCB206D04A2E34A0
:101C00004218288380250B76B1D00FF5D65B6FBDC7
:101C1000F5861C3D0AB7DE7A046EBDF50A1B9F5F90
:101C2000E690700C2C00C9AD838AD0457F94B3F147
:101C30008DA7392F6301E9691D260C38A0EFF8281C
:101C4000CFBA8E2CCE9009F3C4990D5C24B6E598DA
:101C50009FC935B71E3DF3B51CB9033FFF705A4B02
:101C6000175BBB1D6C169BA5AB70E4EAD5AB460AAF
:101C70009A8357AF5EFDD3849CFAAB582E5529D872
:101C8000B6158A142952545D9E98805C00B9007282
:101C900001E402C805900B2017402EC0DF2737E56E
:101CA00012BC18BED5CB52CA706075B34850420002
:101CB0001C27DFF00F8F74D51A1A3F202B2D6921B6
:101CC000B1B4FFFC98B5C15AACEFD0430C209030B2
:101CD00000807000C2897F699CD6D2C5D66EC79B32
:101CE0004007091000E09F23CBA52A05DBB642611F
:101CF000F26202E8BFCA5E965286BBBA596C1645BC
:101D0000D7897F88340F0000F804C4A464A4E4C415
:101D10000404046484640484448404C404C4040483
:101D2000E424C404A404844484048444E404040433
:101D3000C4E4A464A4C404F8000000000F1010134D
:101D40001113111010101010131010111211101186
:101D5000121110101312111013101113121011126E
:101D600013101010101113111310100F000017F79B
:101D70004F912041063290B74081DF0A1C0870EB7A
:101D800006C24340E067DBC0188CE17B107E7741E0
:101D90001725AC3E477E7A4209AC43DEB15CFC4E6F
:101DA00026A3459A91F7DCF87DBDE5B42EE26BE001
:101DB00002FC2E8BCF7B636DB096524B69B43756C5
:101DC000CE9C73EBADB74CD7BF1EF9EF1347FF5F47
:101DD00021E4BF565900060C1263000802100101ED
:101DE0001F202001014000100004002108081317E3
:101DF0000160F11D160B2850000A2C60B1F90A028F
:101E0000800020005060BB8102000280002000089A
:101E1000000280002050AE141000040001400010A9
:101E2000000400010001589C5800140004284F28A9
:101E3000000280002000080000006132603211249E
:101E40001FBECFEFDAE0DEBFCDBF12E0A0E0B1E011
:101E5000EEECFDE602C005900D92AC3DB107D9F75E
:101E600027E0ACEDB2E001C01D92A733B207E1F765
:101E70001FE0CEE1DFE004C02197FE010E94A23501
:101E8000CD31D107C9F70E9487320C94DA360C9411
:101E90000000089580E090E0089508950895FB0102
:101EA0002081FC0126A321E027A30895029608952E
:101EB0000296089508950F93CF93DF93FC016A3043
:101EC00039F48581848396818185890F86834BC00F
:101ED00084816E3719F48E5F848345C0262FEF010D
:101EE00066816F5F2A3374F42033F4F42B32F1F0FF
:101EF0001CF42132F9F02DC02D3289F12E3249F532
:101F00002FE319C02B3544F4213464F42A3381F0D3
:101F10002F33F9F422E40FC09FE9920F9A31C8F4ED
:101F2000275409C0215407C02C5F05C021E403C019
:101F300023E401C02EE33F81062E000C770B082E10
:101F4000000C990B313069F40AEF4DE751E00E9423
:101F5000DE1D88858D5F9C81890F8C8304C020E401
:101F6000EACF0BEFF2CF81E090E0DF91CF910F91BC
:101F700008950C943D360C943D360C943D360C94EB
:101F80003D360C943D360C943D360C943D360C9405
:101F90003D360C943D360C943D360C943D369F9264
:101FA000AF92BF92CF92DF92EF92FF920F931F9367
:101FB000CF93DF93C42FF22EDB01ED91FC910480CF
:101FC000F581E02DCB01099510E0000F111FF801FC
:101FD000E85BFE4FC080D180F801E65CFE4FA08038
:101FE000B18010E09F2C9E0C0C2E000CDD0B812F7D
:101FF000817010FD8AE0123010F46F2D01C0692D40
:1020000070E0012F20E0A601FE01E80FF11DCF01D5
:102010000E944E201F5F143051F710E0EF0C812F0B
:10202000817010FD8AE0123010F46F2D01C06E2D0A
:1020300070E0012F21E0A501DE01A80FB11DCD0147
:102040000E944E201F5F143051F7DF91CF911F91F6
:102050000F91FF90EF90DF90CF90BF90AF909F9047
:102060000895089508950895089508950895089588
:10207000089508950895FC018EE291E09183808394
:102080001582148282E291E09383828388E08387C1
:1020900081E0828717821086168281870895EF92E9
:1020A000FF920F931F93CF93DF931F92CDB7DEB7AD
:1020B0007C018B01DB01ED91FC910480F581E02D29
:1020C000CB010995FC01978190952681922393FF7E
:1020D00016C0F7018485823080F0823081F4D80107
:1020E000ED91FC910084F185E02D8CE08983BE01A7
:1020F0006F5F7F4FC801099502C082E084870F900F
:10210000DF91CF911F910F91FF90EF900895CF92A3
:10211000DF92EF92FF920F93CF93DF93EC016B016D
:10212000DB01ED91FC910480F581E02DCB01099557
:1021300001967C01D601ED91FC910480F581E02DA2
:10214000C601099541E0B601CE010E94BB3000E016
:1021500020E04FE05CE060E070E087E290E00E9409
:102160004E2021E044EF5AE060E070E087E290E02A
:102170000E944E2021E043E36CE370E083E290E0B4
:102180000E94571A01E02EE347E563E2C7010E946F
:10219000A31C2FE347E564E2C7010E94A31C8C85C2
:1021A000882329F0813031F44DEC59E005C04DE32E
:1021B0005AE002C040E050E000E021E061E070E061
:1021C00082E090E00E944E206D85B8E06B9FB001E8
:1021D0001124695F7F4F41EF5AE082E090E00E9456
:1021E0003C1F6D8588E0689FB0011124695F7F4FB7
:1021F00041EF5AE081E290E00E943C1F8E858823E7
:10220000D1F08AE1E82E00E427E14FE1B601CE01EA
:102210000E94B63184E28E838F838CE18887EE85BD
:10222000F0E0EE0FFF1FE059FE4F60817181CE019B
:1022300002960E948D222F8541E0B601CE01DF91EA
:10224000CF910F91FF90EF90DF90CF900C94912F52
:102250004F925F926F927F928F929F92AF92BF92B6
:10226000CF92DF92EF92FF920F931F93CF93DF9362
:1022700000D0CDB7DEB78C016B01DB01ED91FC9195
:102280000480F581E02DCB0109952C01D601ED915B
:10229000FC910480F581E02DC60109957C015C016B
:1022A000B2E1AB0EB11CD601ED91FC910480F58139
:1022B000E02DC60109954C01F2017780709486816A
:1022C000782219F0D8011E961C92F8018485882383
:1022D00021F0813009F4D6C02AC177FE05C085857A
:1022E000882311F08150858774FE06C0F80185852A
:1022F000863010F48F5F858773FE19C1D8011D9653
:102300002C91223009F44BC028F4222351F02130C3
:1023100051F1AFC0263008F465C0263009F486C0FC
:10232000A8C0F7018489811102C081E005C0F701CE
:1023300083898A3029F483E0D8011E968C9399C052
:10234000F801878580618787D70153968C91082E85
:10235000000C990B01968B30910514F08AE090E007
:10236000F701838B18C0F70184898823F1F28589EE
:10237000843109F3D8011F968C911F9782601F96B4
:102380008C93858990E001968531910514F084E164
:1023900090E0F701858B848990E001971BC0F701DD
:1023A0008489833010F28589843129F2D8011F96FF
:1023B0008C911F9782601F968C93858990E004967C
:1023C0008531910514F084E190E0F701858B8489D3
:1023D00090E0039797FF02C080E090E0D701549609
:1023E0008C9347C0F7016488F7E0F61508F09DCF9D
:1023F000C5012A830E94582A2A81823008F09BCF87
:10240000E22FF0E03397EE0DFF1D818D8F5F818FFE
:10241000862D90E0089797FF02C080E090E0D701FA
:1024200054968C93F8018785886022C0D701549612
:102430008C915497863008F478CF52962C912530A1
:1024400008F079CF30E02F5F3F4F2630310514F090
:1024500025E030E0F701228B90E0069797FF02C05D
:1024600080E090E0D70154968C93F80187858460D2
:102470008787D8011F968C911F97982F977109F421
:1024800056C031C077FE06C0F8018585882311F05B
:102490008150858774FE09C0D8011D968C911D97C7
:1024A000843018F48F5F1D968C9373FE40C0F80142
:1024B00085858330E0F4F701E80FF11D818D8823D5
:1024C000D9F08150818FD70154968C9190E0049679
:1024D0008B30910514F08AE090E0F701848BD801ED
:1024E0001F968C911F9788601F968C9320C0D701F0
:1024F00052968C91811104C082E0F801868717C042
:1025000090E0019797FF02C080E090E0F701828B96
:10251000848990E003968B30910514F08AE090E076
:10252000D70154968C93F80187858C608787872D17
:10253000807649F081E0D8011C969C91911180E051
:10254000F8018487158672FE11C0D601ED91FC91C9
:1025500000851185B501C4010D960E944C2E89831A
:10256000BE016F5F7F4FC601F80109950F900F9074
:10257000DF91CF911F910F91FF90EF90DF90CF905F
:10258000BF90AF909F908F907F906F905F904F9093
:1025900008951F93CF93DF93162FEC012296643694
:1025A00060F46BEC79E0CE010E948D221A3028F4A1
:1025B00069EC79E0CE010E948D22612FCE010E944C
:1025C0000F2367EC79E0CE01DF91CF911F910C943E
:1025D0008D221F93CF93DF93162FEC0122966A3042
:1025E00028F465EC79E0CE010E948D22612FCE01A6
:1025F0000E940F2363EC79E0CE01DF91CF911F9110
:102600000C948D22BF92CF92DF92EF92FF920F93A4
:102610001F93CF93DF93EC018B01DB01ED91FC91D4
:102620000480F581E02DCB010995D801ED91FC9155
:102630000480F581E02DC8010995D801ED91FC9148
:102640000480F581E02DC80109956C01D801ED9158
:10265000FC910480F581E02DC80109957C0141E0E1
:102660008C85823009F440E0B801CE010E94193215
:102670008C85813009F491C008F486C0823009F05D
:1026800096C000E021E049EA57E065E170E084E1AE
:1026900090E00E944E2087E18E838F8304E10887BB
:1026A000D6011D96EC91F0E0EE0FFF1FE659FE4FAC
:1026B00060817181CE0102960E948D2218E31E83F3
:1026C0001F830887F6016585862F880F680FCE0166
:1026D0000E94E91281E28E838F839DE1B92EB88634
:1026E000D70156966C91660FCE010E94E912F60151
:1026F000668570E06F5F7F4F862F880F680FCE0171
:102700000E94E912D70155966C91660FCE010E9486
:10271000E912F7016389CE010E94E9121E831F832B
:10272000B886D70152966C91CE010E94E912F7014A
:102730006489660FCE010E94E912D70158966C9108
:10274000660FCE010E94E912C70142960E94582AE4
:10275000682FCE010E94E9121FE51E831F830887A0
:102760006D85CE010E94C9121E831F83B8866E85B7
:10277000CE01DF91CF911F910F91FF90EF90DF90ED
:10278000CF90BF900C94C91200E021E042E459E0E0
:1027900065E170E08DE190E008C000E021E04EE3EB
:1027A00058E06FE070E088E190E00E944E20DF91F9
:1027B000CF911F910F91FF90EF90DF90CF90BF903E
:1027C0000895AF92BF92CF92DF92EF92FF920F9354
:1027D0001F93CF93DF93EC016B01DB01ED91FC9133
:1027E0000480F581E02DCB0109955C01D601ED91C6
:1027F000FC910480F581E02DC60109957C018C01D6
:102800000E5E1F4FD601ED91FC910480F581E02D05
:10281000C6010995FC0180818D3021F08E3021F4B4
:102820001C8602C081E08C871D86D5011D969C9177
:102830001D97292F220F322F390F3D87F7019689D7
:10284000990F292F230F2D871E964C9150E04F5F33
:102850005F4F942F990F940F920F9D878589880F52
:10286000980F9D878389980F9D878289980F9D87F0
:102870008489880F980F9D87808D880FF92EF80E18
:10288000FD86C8010E94582A082F10E00F0D111D67
:102890000D8784E990E00E941535801710F08E872F
:1028A00016C00E8784E990E00E941535081779F06C
:1028B000602F84E990E0DF91CF911F910F91FF90FD
:1028C000EF90DF90CF90BF90AF900C941D35DF91CB
:1028D000CF911F910F91FF90EF90DF90CF90BF901D
:1028E000AF9008956F927F928F929F92AF92BF9216
:1028F000CF92DF92EF92FF920F931F93CF93DF93CC
:10290000EC016B01DB01ED91FC910480F581E02D80
:10291000CB0109953C01D601ED91FC910480F58134
:10292000E02DC60109954C01D601ED91FC91048082
:10293000F581E02DC6010995F3018481958164E15B
:1029400070E00E948E35FF24F3948B3008F4F12C54
:1029500041E0B601CE010E94BB3000E021E041E938
:1029600057E060E070E080E090E00E944E20D601E9
:10297000ED91FC910480F581E02DC6010995FC01E3
:102980008081873059F0883011F0863071F445E845
:1029900055E078E5A72E76E0B72E0BC04CE555E064
:1029A00066EAA62E65E0B62E04C040E050E0A12CF9
:1029B000B12C00E020E060E070E085E590E00E944E
:1029C0004E2021E0A50160E070E08AE390E00E94E3
:1029D0004E2021E048E057E060E070E083E290E0C4
:1029E0000E944E208C85811114C0FF2091F0198621
:1029F0008F858A3010F02AE001C025E0EE24E394B0
:102A000007E042E050E064E170E0C30101960E94FB
:102A1000351B15E11E831F8382E088875E01F2E08B
:102A2000AF0EB11C6F85C5010E940F2381E089871D
:102A30001E831F838AE088876889C5010E940F234F
:102A40008C85843019F08E85843089F500E021E092
:102A500042E055E063E170E080E090E00E944E20AB
:102A600015E11E831F8387E18887D40159966C91F5
:102A7000C5010E940F231E831F8381E28887F40112
:102A8000628DC5010E940F231E831F838BE28887FE
:102A9000D4015B966C91C5010E940F231E831F8396
:102AA00085E38887F401648DC5010E940F238C851E
:102AB0008250823038F08E85833021F089898830C9
:102AC000D1F417C010E0D40156968C911817B0F7C6
:102AD000FE01E10FF11D2AE0129FC001112422899D
:102AE00042E854E064E370E003960E94BF231F5F56
:102AF000EACFFF20B9F08C85833049F4F401868950
:102B0000880F982F990F990F890F8D5F03C084301C
:102B100049F48AE120E04CE754E065E370E090E09E
:102B20000E94BF238C858350823008F5F1101FC0AE
:102B3000698967FD1CC064305CF06830C4F4660FBE
:102B4000F4E06F9F600D11248BED860F64E307C0E6
:102B5000660F862F880F880F680F6A5E83E070E02B
:102B600003E020E046E554E090E00E94DE1D8C8505
:102B7000813011F020E001C022E041E0B601CE0139
:102B80000E94912F8C85883028F4863018F581308A
:102B9000E1F096C0883009F46FC08D3008F090C025
:102BA00080E2E82E04E621E14FE0B601CE010E946A
:102BB000B63184E18E838F8385E18887EC85F0E0F0
:102BC000EE0FFF1FEC5BFE4F68C08D85883009F06B
:102BD00077C052C08730C9F0D601ED91FC910480D6
:102BE000F581E02DC6010995FC018081873029F42B
:102BF0008A8D853021F42DE003C021E001C029E059
:102C000041E0B601CE010E94912FD601ED91FC91D9
:102C10000480F581E02DC6010995FC018081873093
:102C2000D1F43AE1E32E08E527E144E1B601CE0113
:102C30000E94B6318AE18E838F838CE1888760E4BD
:102C400074E0C5010E948D22EA8DF0E0EE0FFF1FB7
:102C5000E45AFE4F22C022E1E22E0CE328E142E2D8
:102C6000B601CE010E94B63188E28E838F838DE15A
:102C7000888763E374E013C0CE01DF91CF911F9189
:102C80000F91FF90EF90DF90CF90BF90AF909F900B
:102C90008F907F906F900C94FB3060817181C501A3
:102CA000DF91CF911F910F91FF90EF90DF90CF9028
:102CB000BF90AF909F908F907F906F900C948D22DB
:102CC000DF91CF911F910F91FF90EF90DF90CF9008
:102CD000BF90AF909F908F907F906F900895DF92FC
:102CE000EF92FF920F931F93CF93DF931F92CDB775
:102CF000DEB78C017B01D12CD701ED91FC910480D2
:102D0000F581E02DC70149830995FC018689498138
:102D1000D81690F4F801ED0DF11D458F41110AC050
:102D2000168AD8015C969C915C97992319F0915072
:102D30005C969C93D394E0CF0F90DF91CF911F913D
:102D40000F91FF90EF90DF900895089508950F93ED
:102D5000CF93DF93EC01DB01ED91FC910480F581D1
:102D6000E02DCB01099589E08B8783E08E838F83EB
:102D700082E088872E854FE554E161E070E080E3D2
:102D800090E00E94BF2300E021E047ED53E160E1C5
:102D900070E08EE090E00E944E202E85CE010296DB
:102DA000253018F06FE77FE002C06EE57FE00E94FB
:102DB0008D2288E08B87DF91CF910F910895CF927C
:102DC000DF92EF920F93CF93DF93EC016B01DB0166
:102DD000ED91FC910480F581E02DCB01099500E097
:102DE00021E04BEE52E168E070E08EE090E00E945E
:102DF0004E208C85813069F40D85002351F00150FF
:102E000025E0E22E2DE042E2B601CE010E94CF0F76
:102E100018C085E0E82E00E02DE042E2B601CE01C8
:102E20000E94CF0FEE85F0E0EE0FFF1FE556FE4F3C
:102E30004081518121E06FE070E083E290E00E94E8
:102E40004E20DF91CF910F91EF90DF90CF900895BA
:102E5000CF92DF92EF92FF920F93CF93DF93EC012B
:102E60007B01DB01ED91FC910480F581E02DCB012C
:102E700009956C01D701ED91FC910480F581E02D5D
:102E8000C7010995F601C480D58041E0B701CE01A4
:102E90000E94BB3000E021E04EEE51E160E070E0C6
:102EA00080E090E00E944E209C85913079F118F0EE
:102EB000923021F12FC08D85813118F500E021E09D
:102EC00047ED53E160E170E08EE090E00E944E201B
:102ED0000AEF2E854FE554E161E070E080E390E079
:102EE0000E94DE1D83E08E838F8382E0888762EEFE
:102EF00071E1CE0102960E948D220CC08F85811156
:102F000005C0B701CE010E94A71604C0B701CE01CB
:102F10000E94DF169E85963049F0953049F0943036
:102F200049F48F85882331F02AE005C029E003C0E9
:102F30002CE001C028E08C85823021F441E08D85B1
:102F4000863408F040E0B701CE010E94912F8C85B5
:102F5000823029F58F85882311F18D858634F8F428
:102F6000C60168E170E00E948E350D97C0F088E0E0
:102F70008E838F831886EE85E150F0E0EE0FFF1F01
:102F8000E555FE4F60817181CE010296DF91CF91B0
:102F90000F91FF90EF90DF90CF900C948D22DF91F6
:102FA000CF910F91FF90EF90DF90CF9008955F92B7
:102FB0006F927F928F929F92AF92BF92CF92DF9249
:102FC000EF92FF920F931F93CF93DF931F92CDB792
:102FD000DEB78C014B01DB01ED91FC910480F581A2
:102FE000E02DCB0109955C01D401ED91FC910480A9
:102FF000F581E02DC40109957C013C01B2E16B0E25
:10300000711CD401ED91FC910480F581E02DC40187
:1030100009956C01F5015780509486815822D8019A
:103020001C968C91813009F474C020F0823009F430
:10303000E0C0FCC0F8018585813188F453FE0FC0E3
:1030400081E1858766E070E080E090E00E9469227F
:10305000DC01CB010196A11DB11DF8018687D801C5
:103060001D96EC91E13118F5F0E0EF52FE4E6491BF
:1030700070E0F501848195810E948E35892B09F0DD
:10308000D5C066E070E080E090E00E946922DC013B
:10309000CB010196A11DB11DF801868785858F5F43
:1030A0008587D50115961C921E921497BFC0F80112
:1030B00086858530A0F053FEB9C087E0858781E022
:1030C000848766E070E080E090E00E946922DC0185
:1030D000CB010196A11DB11DF8018687A7C0D601BD
:1030E00051968C91811102C081E001C082E0F7010C
:1030F000248990E0820F911D8B30910514F08AE0B5
:1031000090E0D70154968C93F801158682E084876D
:103110008DC0D8011D969C91992389F066E070E0DE
:1031200080E090E00E946922DC01CB010196A11DA4
:10313000B11DF801868785858150858777C0D801C4
:103140001F968C93C3010E94582A823028F0F80100
:103150008685853008F467C0D8011E96EC91E5306D
:1031600081F050F4E13058F1F0E03197EE0DFF1DA1
:10317000818D8F5F818F23C0E63081F0E73099F039
:103180001EC0F701828990E001968630910514F007
:1031900085E090E0D70152968C9311C062E0C301A4
:1031A0000E948E2E0CC0F701848990E002968B302D
:1031B000910514F08AE090E0D70154968C93F801C1
:1031C000158682E08487D60151968C91811102C0C8
:1031D00081E001C082E0F701248990E0820F911D17
:1031E0008B30910514F08AE090E0D70154968C93CF
:1031F0001DC0F8018585863410F48F5F858753FEE6
:1032000015C0D401ED91FC9100851185B301C60173
:103210000D960E944C2E8983BE016F5F7F4FC401C3
:10322000F801099503C087E0868796CF0F90DF915C
:10323000CF911F910F91FF90EF90DF90CF90BF90B3
:10324000AF909F908F907F906F905F900895AF9216
:10325000BF92CF92DF92EF92FF920F931F93CF9383
:10326000DF9300D01F92CDB7DEB78C016B01DB017D
:10327000ED91FC910480F581E02DCB0109955C0175
:10328000D601ED91FC910480F581E02DC6010995F0
:103290007C01BC016E5E7F4FD601ED91FC910480F4
:1032A000F581E02DC6016A837B830995DC01AC01C1
:1032B000435F5F4FF5012781209596812923F8010F
:1032C00094856A817B81923031F128F4992319F138
:1032D000913041F0D6C0933009F4ADC0943009F478
:1032E000C1C0CFC0922F987023FF02C086E48587AB
:1032F000F8018585863408F1992309F4C2C09685C2
:10330000F7018689891708F09EC0D8011D961C9286
:103310001D9782E082C0F80185858C3088F466E0D4
:1033200070E080E090E00E946922DC01CB01019610
:10333000A11DB11DF801868785858F5F8587A1C096
:10334000923009F071C0F8019685933001F128F4AC
:10335000913049F0923079F053C0953081F118F1F5
:103360009630A1F14DC0D70153968C91539781505F
:1033700053968C9345C0F701848990E0019797FF9D
:1033800002C080E090E0D70154968C9339C0F701D9
:10339000828990E0019797FF02C080E090E0D7011A
:1033A00052968C932DC0F701858990E0019797FF85
:1033B00002C080E090E0D70155968C9321C0F701C0
:1033C00087898230E8F08150878B1AC0F701258900
:1033D00030E02250310937FF02C020E030E0F70131
:1033E000258B232B69F01E968C911E978A3030F422
:1033F000E82FF0E0E052FF4EE4918E0F1E968C9382
:10340000D70155968C91882359F0F50115821482C5
:10341000D8011D961C921D9783E01C968C9331C099
:1034200084E0F80184872DC0D8011586F501158246
:10343000148281E0F2CF8585863418F48F5F85870A
:1034400020C023FF1EC0D601ED91FC91008511859F
:10345000CA010E944C2E8983BE016F5F7F4FC60157
:10346000F8010EC023FF0DC0D601ED91FC91008440
:10347000F185E02D8EE08983BE016F5F7F4FC6012D
:1034800009950F900F900F90DF91CF911F910F91A1
:10349000FF90EF90DF90CF90BF90AF9008958FB1E5
:1034A0008095807F669B88601C9B84600895FC01EA
:1034B000840F911D18161906E4F5E038F105CCF5D6
:1034C000F7FF02C0E0E0F0E08138910514F080E8F9
:1034D00090E0382F3E1BAB0177FF02C0495F5F4F82
:1034E00083E0559547958A95E1F75695542F4427E3
:1034F00057954795E40FF51FEF51FD4F67707727FC
:1035000081E090E001C0880F6A95EAF7482F2223F6
:1035100049F0213071F4315020F08081842B819367
:10352000FACF08958095315020F09081982391939F
:10353000FACF0895EF92FF920F931F93CF93DF93EB
:103540008C01EB01E881F9810480F581E02DCB014C
:103550000995E881F9810480F581E02DCE01099576
:103560007C01E881F9810480F581E02DCE01099587
:1035700041E0BE01C8010E94193200E021E04BE6A3
:1035800050E161E170E08CE190E00E944E2021E08A
:1035900040E350E168E370E083E190E00E944E2058
:1035A000F701858590E0FC01E45DFF4E4491FC014C
:1035B000E85DFF4E849121E06FE370E090E0DF91E1
:1035C000CF911F910F91FF90EF900C94571A603894
:1035D0007105D0F440345105B8F4EFEDF4E180E129
:1035E000849FD001A0781124A60F4770E40FF11D2D
:1035F0008491AF51BD4F222319F06C91862B03C0EB
:1036000080956C9186238C930895AF92BF92CF9250
:10361000DF92EF92FF920F93CF93DF936C015B01E8
:103620007A01E20EF11CEA0157FF0DC0C0E0D0E0C4
:103630000AC0C417D5077CF4202FAE01B501C6011E
:103640000E94E71A2196A70181E4E816F1048CF3A1
:1036500040E450E0EECFDF91CF910F91FF90EF90DB
:10366000DF90CF90BF90AF9008958F929F92AF92CE
:10367000BF92CF92DF92EF920F931F93CF93DF937E
:103680005C014A01102FEB016B01C20ED11CCC155D
:10369000DD054CF40E2D212FA401BE01C5010E94B1
:1036A000051B2196F4CFDF91CF911F910F91EF90E1
:1036B000DF90CF90BF90AF909F908F9008956F92C2
:1036C0007F928F929F92AF92BF92CF92DF92EF92B2
:1036D000FF920F931F93CF93DF93EC016B01DB01FC
:1036E000ED91FC910480F581E02DCB0109954C0111
:1036F000D601ED91FC910480F581E02DC60109957C
:103700007C01D601ED91FC910480F581E02DC6018C
:103710000995F4016480758041E0B601CE010E94F4
:10372000BB3000E021E04FEB51E168E270E080E067
:1037300090E00E944E2021E04BEA51E168E270E007
:103740008FE490E00E944E2059E0A52EB12C00E0BD
:1037500021E042E951E168E270E0C5010E944E209B
:10376000FEE0AF0EB11C8FE4A816B10481F78C8582
:10377000823009F467C050F0833009F49DC0843072
:1037800009F0BEC0CE010E94FB30BAC013E01E8318
:103790001F8318875E01A2E0AA0EB11C66E871E1E2
:1037A000C5010E948D2282E48E838F8318872E8527
:1037B00046E051E162E070E083E390E00E94BF23C5
:1037C0008C85813009F09CC0C30168E170E00E94E3
:1037D0008E3591E08D3008F490E08D85863410F4BC
:1037E000911119863E85F7012689231798F08634B2
:1037F00070F4992361F0EE24E39407E02FE043E0B6
:1038000050E060E470E0C40101960E94351B62E064
:1038100071E112C0863470F4992361F0EE24E394D0
:1038200007E02BE043E050E060E470E0C401019663
:103830000E94351B6FEF70E1C5010E948D2281E06F
:1038400089875EC06D85C6010E943222ED85ED300C
:1038500010F5F0E0E057FE4F8081882309F450C056
:1038600010E0312F330F8D8590E0FC01E057FE4FC3
:103870002081121708F044C04096880F991F00E07D
:1038800021E040EF50E168E070E0830F911D0E945D
:103890004E201F5FE6CFEE85F0E0EE0FFF1FEE57E4
:1038A000FE4F4081518100E021E06AE070E08EE14E
:1038B00090E00E944E2024C060E0C6010E943222A7
:1038C000EE85F0E0EE0FFF1FEE57FE4F4081518175
:1038D00000E021E06AE070E08EE190E00E944E207E
:1038E00084E08E838F831886EE85F0E0EE0FFF1F55
:1038F000EA58FE4F60817181CE0102960E948D22AE
:10390000EE85E63028F4F0E0E651FF4E249101C048
:1039100020E08C85833021F441E08D85863408F0E9
:1039200040E0B601CE01DF91CF911F910F91FF9042
:10393000EF90DF90CF90BF90AF909F908F907F904F
:103940006F900C94912FAF92BF92CF92DF92EF9233
:10395000FF920F93CF93DF935C01D42FD61BC0E06F
:10396000C22ED12CE62EF12CB7016C0F711D202F29
:10397000A601C5010E94E71ACE5FDC17A8F7DF9108
:10398000CF910F91FF90EF90DF90CF90BF90AF90CD
:103990000895CF92DF92EF92FF920F931F93CF93F0
:1039A000DF936C017A018B01C0E0D0E0CE15DF051A
:1039B00089F0D8016D918D01D601ED91FC910190B6
:1039C000F081E02DC6010995892B11F47E0102C01A
:1039D0002196ECCFC701DF91CF911F910F91FF90FE
:1039E000EF90DF90CF9008950E94D536DC01EC91E6
:1039F0008E2F90E0FC013197EE30F10508F0DBC02E
:103A0000EA5AFF4F0C94A235EBE0F7E08FE0DF01BC
:103A10001D928A95E9F7CF010E943B1083E892E05E
:103A20006CC0EBE0F7E080E1DF011D928A95E9F7D9
:103A3000CF010E943B1083E792E090930C078093A4
:103A40000B0710921707109218071092190786E0BB
:103A500080931A07ADC0EBE0F7E080E1DF011D9233
:103A60008A95E9F7CF010E943B1083E692E02CC0D3
:103A7000EBE0F7E08DE0DF011D928A95E9F7CF01D9
:103A80000E943B1083E592E090930C0780930B0714
:103A9000109217078DC0EBE0F7E08FE0DF011D9279
:103AA0008A95E9F7CF010E943B1083E492E025C09C
:103AB000EBE0F7E080E1DF011D928A95E9F7CF01A5
:103AC0000E943B1083E392E090930C0780930B07D6
:103AD00010921707109218071092190710921A07E0
:103AE00067C0EBE0F7E080E1DF011D928A95E9F71E
:103AF000CF010E943B1083E292E090930C078093E9
:103B00000B0710921707109218071092190750C050
:103B1000EBE0F7E086E0DF011D928A95E9F783E0AC
:103B200092E090930C0780930B0780E880930D0739
:103B300080E480930F07CF010895EBE0F7E08FE07A
:103B4000DF011D928A95E9F7CF010E943B1083EFB8
:103B500091E090930C0780930B07109217078BE767
:103B60008093180788EC8093190722C0EBE0F7E0F8
:103B700082E2DF011D928A95E9F7CF010E943B1096
:103B800083EE91E090930C0780930B0782E0809383
:103B9000170780931807809319078FEF80931C07EE
:103BA00010922507109226071092270710922C07D3
:103BB0008BE097E0089580E090E008952F923F9287
:103BC0004F925F926F927F928F929F92AF92BF922D
:103BD000CF92DF92EF92FF920F931F93CF93DF93D9
:103BE00000D000D000D0CDB7DEB77B014115510524
:103BF00009F429C1FA01D490319674914E5F5F4F58
:103C0000AD2DB0E0222309F1E72FE695E695E69584
:103C1000AE2EB12CE1E0F0E0372F377011F4E0E088
:103C2000F0E0EA0DFB1DAE9F5001AF9FB00CBE9FB0
:103C3000B00C1124033011F4AA0CBB1C2A9DF00116
:103C40002B9DF00D11244E0F5F1F0F3F09F402E072
:103C50005C01AA0EBB1E1A141B040CF0F4C08038C1
:103C600091050CF0F0C09701270F311D12161306B5
:103C70000CF0E9C0F0E4EF16F1040CF0E4C04115DB
:103C8000510509F4E0C02E2D27702D839701F7FE12
:103C900002C0295F3F4F63E0359527956A95E1F7AC
:103CA000F22FF7FE05C06D81662311F0FFEFF20FD2
:103CB00097FF05C022273327281B390B02C020E0BD
:103CC00030E0E0E8AE16B10424F060E8762E781A11
:103CD00001C07D2C721AEF2E0F2E000CFF08FF3F43
:103CE0001CF4CE2CC09401C0C12CE1E0672F67709A
:103CF00009F4E0E07695769576959E2E970EE90C80
:103D0000F11C69E0E616F1041CF0E8E09E2E9F1A13
:103D10001C2D1F0F60E81603800D911D1124820FCA
:103D2000931F61E070E00D8002C0660F771F0A9458
:103D3000E2F7033011F0E1E001C0E2E0EE2EF12CF9
:103D4000CD9C200D311D1124E29E5001E39EB00C4C
:103D5000F29EB00C11246A01CA0CDB1C97012150A1
:103D60003109A20EB31E4A0D5B1DBB24BA94B69E48
:103D70009001B79E300D1124290140945094F90D03
:103D8000FE83A719B109EA9FA02D1124B0E0E79D99
:103D9000A00DB11D11242E81121709F454C09C01ED
:103DA0002F513D4F4A015601612C671409F443C05D
:103DB000F5013490369EF001379EF00D1124FA8300
:103DC000E983E095F095FC83EB83023019F45C8283
:103DD0004B8210C00B3F19F41A8219820BC0F401F8
:103DE0003490369EF001379EF00D1124E095F09549
:103DF000FC83EB8317FD09C0F9013080EB81E321DF
:103E0000F9813E2E3F2AF9013082FD81FF2359F0CE
:103E100017304CF4F901E058FF4F20803C802320FC
:103E20003A80322830828E0C9F1CAE0CBF1C6394EB
:103E30002F5F3F4FBACF1F5FCA0EDB1E4A0F5B1FBB
:103E400080589F4FA8CF26960FB6F894DEBF0FBEBE
:103E5000CDBFDF91CF911F910F91FF90EF90DF9039
:103E6000CF90BF90AF909F908F907F906F905F901A
:103E70004F903F902F9008954F925F927F928F9234
:103E80009F92AF92BF92CF92DF92EF92FF920F93E9
:103E90001F93CF93DF9300D000D0CDB7DEB7DC0106
:103EA0004115510509F4BAC0FA01D4903196349104
:103EB0004D2C512C5C01A40CB51C1A141B040CF0E5
:103EC000ADC0803891050CF0A9C0CB01830F911DC6
:103ED000181619060CF0A2C0603471050CF09EC0D3
:103EE000F62FF770EF2ECB0177FD079623E095951F
:103EF00087952A95E1F7F82F77FF04C0EE2011F09F
:103F0000FFEFF80FB7FF05C0662777276A1B7B0B0B
:103F100002C060E070E000E8A016B10424F080E880
:103F2000F82EFA1A01C0FD2CF61AAF2E0F2E000C37
:103F3000BB08FF3F1CF4CA2CC09401C0C12C91E007
:103F4000832F877009F490E0369536953695930F58
:103F5000A90EB11C19E0A116B10414F098E09F1B42
:103F60008C2D8F0F9D01082F10E80103200D311DAE
:103F70001124260F371F4E5F5F4FCD9C600D711DC2
:103F80001124460F571F61E070E00E2C02C0660F2F
:103F9000771F0A94E2F7EFEFE69FD001E79FB00D9D
:103FA0001124A095B095BC83AB837C809F0F8917AB
:103FB000A9F1F901EF51FD4F6F01A12CB12CAF1404
:103FC00038F5FA01EA0DFB1DE491E69F4001E79FF9
:103FD000900C11249A82898287FD07C0F601108116
:103FE000E12FEA238E2AF6018082EE2051F08730FD
:103FF00044F4F601E058FF4F908097208A8098287B
:104000009082FFEFAF1ABF0A0FEFC01AD00AD7CFC6
:104010008F5F440D551D20583F4FC9CF0F900F9013
:104020000F900F90DF91CF911F910F91FF90EF9024
:10403000DF90CF90BF90AF909F908F907F905F90D8
:104040004F900895EF92FF920F93CF93DF937C01EF
:10405000EB0121E049E067E370E0CE010E94571ACE
:1040600021E049E06FE370E0CE010E94571A01E0C1
:1040700029E047E350E0BE01C7010E94051BBE01D5
:10408000685F7F4F29E047E350E0C7010E94051BAE
:10409000DF91CF910F91FF90EF9008952F923F9273
:1040A0004F925F926F927F928F929F92AF92BF9248
:1040B000CF92DF92EF92FF920F931F93CF93DF93F4
:1040C000CDB7DEB761970FB6F894DEBF0FBECDBF98
:1040D0007C014A01FA0134913196E491832F8F7764
:1040E0008F5F282E312CC701820D931D97FDA1C132
:1040F000F0E8EF16F1040CF09CC18E2F8F738F5FE8
:10410000AB01480F511D57FD94C1603471050CF08F
:1041100090C1331F3327331F3B8331E0E6FF30E08C
:10412000EE1FEE27EE1FEF83AB0177FF04C044279D
:104130005527461B570B5A0117E0A122BB24AB01A0
:1041400077FF02C0495F5F4FDA0153E0B595A7954D
:104150005A95E1F7BA83A98377FF0CC0A114B10483
:1041600049F01197BA83A98348E050E0FA01EA19AF
:10417000FB095F0141E050E06A010A2C02C0CC0C4F
:10418000DD1C0A94E2F7D986C886982F96959695F5
:104190009695877011F4892F02C081E0890F482F0E
:1041A000880F550B5E834D83502F52705A8701FF45
:1041B00006C0AD81BE81119781E0382702C0A0E022
:1041C000B0E0602F61706C8300FF04C0B1016150EA
:1041D000710902C060E070E097E040E150E080E0EB
:1041E000612C712C8101015011091C870B870D81F5
:1041F0001E81A017B1070CF01CC1B7FD1AC18A01BE
:10420000CC24C394D12CF80143E0F695E7954A9568
:10421000E1F7E80DF91DE491F0E0A801477055279A
:1042200002C0F595E7954A95E2F7A8014F5F5F4F09
:10423000E0FF05C01FEFC11AD10A8A01E4CFE1E017
:10424000CE16D104E9F4FA01F695E795F695E795CF
:10425000F695E795E80DF91DE491F0E047705527D4
:104260002F0102C0559447944A95E2F7F1E04F229E
:1042700055244FEF441A540AA8014E5F5F4F41C0C6
:104280008601015011091E870D8744244394512C47
:104290000D8402C0440C551C0A94E2F71FEF411A2A
:1042A000510A00E010E0FA01F695E795F695E795DA
:1042B000F695E795E80DF91DE491CE2ED12CD98A1B
:1042C000C88A6A01E7E0CE22DD24E889F98902C0C4
:1042D000F595E795CA94E2F7E0FF0AC0E1E0F0E067
:1042E000002E02C0EE0FFF1F0A94E2F74E0E5F1E73
:1042F0004F5F5F4F0F5F1F4FCD84DE840C151D0590
:1043000094F2C12CD12CC414D50409F48CC00B81B7
:10431000002369F0E92FF0E0311105C007E010E05B
:104320000E1B1F0BF801E952FE4FE0818E2B9150BE
:1043300008F075C0882309F44AC019811A0F1F8735
:1043400018300CF044C0FB01EE0DFF1DE038F10504
:10435000F0F508851985809FF001819FF00D1124EB
:10436000FE87ED871F8517FD15C0C701012F10E8D7
:104370000103800D911D1124860F971FFC01EF5141
:10438000FD4F80819D85222311F0892B02C09095DD
:1043900089238083A114B104D1F0EF85E730B9F00F
:1043A000EF3FACF0C7010E2F10E80103800D911D07
:1043B0001124860F971FFC01EF59FC4F80819E85C9
:1043C000222311F0892B02C09095892380830F81CD
:1043D000002311F011E031278FEF681A780A9C81D1
:1043E000992319F06150710902C06F5F7F4F621409
:1043F000730464F00A85002311F0119701C011962F
:104400001C81112331F06B857C8505C097E080E02D
:1044100006C060E070E097E080E0612C712CEFEF67
:10442000CE1ADE0A70CFCC24C394DB80CD18CB82A9
:10443000DECE61960FB6F894DEBF0FBECDBFDF9122
:10444000CF911F910F91FF90EF90DF90CF90BF9091
:10445000AF909F908F907F906F905F904F903F9024
:104460002F900895EF92FF920F931F93CF93DF93B6
:104470001F92CDB7DEB7DC01ED91FC910480F58190
:10448000E02D698309956981E62FF0E0EE0FFF1FAB
:10449000E354FE4FE080F18010E0812F817010FD29
:1044A00080E1123010F068E101C068E070E090E057
:1044B000012F21E0A7014C960E944E201F5F14306F
:1044C00061F70F90DF91CF911F910F91FF90EF90C7
:1044D0000895CF93DF9300D000D0CDB7DEB761153C
:1044E00071058105910579F09B01AC0169833A83DF
:1044F0004B835C830E94073529813A814B815C8123
:104500000E942B3503C060E070E0CB010F900F904C
:104510000F900F90DF91CF910895EF92FF920F933C
:104520001F93CF93DF938C017B01C0E0D0E0F701B4
:10453000EC0FFD1F6491662361F0D801ED91FC91B1
:104540000190F081E02DC8010995892B11F0219689
:10455000EECFCE01DF91CF911F910F91FF90EF90A1
:1045600008956115710579F0FB0101900020E9F7CC
:104570003197AF01461B570BDC01ED91FC91028096
:10458000F381E02D099480E090E008954F925F92CE
:104590006F927F92EF92FF920F931F93CF93DF93CF
:1045A000CDB7DEB7A1970FB6F894DEBF0FBECDBF73
:1045B0007C01FA01CB0119A2223008F42AE08E0115
:1045C0000F5D1F4F422E512C612C712CBF01A30196
:1045D00092010E945D35F901CA01015011096A304A
:1045E00014F4605D01C0695CD8016C93232B242B0B
:1045F000252B61F7B801C7010E94B122A1960FB621
:10460000F894DEBF0FBECDBFDF91CF911F910F9108
:10461000FF90EF907F906F905F904F900895462F9E
:1046200050E060E070E02AE00C94C622CF92DF9266
:10463000EF92FF920F931F93CF93DF936B01770F4E
:10464000EE08FF08F7FE1FC0EC01E881F981019038
:10465000F081E02D6DE209958C0144275527BA01C0
:104660004C195D096E097F092AE0CE010E94C6221D
:10467000800F911FDF91CF911F910F91FF90EF90CD
:10468000DF90CF9008952AE0B701A601DF91CF9186
:104690001F910F91FF90EF90DF90CF900C94C62266
:1046A0003FB7F89480912F0790913007A091310780
:1046B000B091320726B5A89B05C02F3F19F001968F
:1046C000A11DB11D3FBFBA2FA92F982F8827820F98
:1046D000911DA11DB11DBC01CD0142E0660F771FE8
:1046E000881F991F4A95D1F708951F920F920FB610
:1046F0000F9211242F933F938F939F93AF93BF9368
:104700008091DD029091DE02A091DF02B091E00283
:1047100030912E0723E0230F2D3720F40196A11DA1
:10472000B11D05C026E8230F0296A11DB11D2093DF
:104730002E078093DD029093DE02A093DF02B093F8
:10474000E00280912F0790913007A0913107B0913E
:1047500032070196A11DB11D80932F07909330075A
:10476000A0933107B0933207BF91AF919F918F9182
:104770003F912F910F900FBE0F901F9018950F93A0
:1047800002E00E94DE1D0F910895F89487E7809360
:10479000000880930108A89588E18093600088E074
:1047A00080936000FFCF8F929F92AF92BF92CF9283
:1047B000DF92EF92FF926C01E12CF12C0E945023CA
:1047C0004B015C01C114D104E104F104F1F00E9439
:1047D0005023DC01CB0188199909AA09BB09883E3D
:1047E0009340A105B10570F321E0C21AD108E10898
:1047F000F10888EE880E83E0981EA11CB11CC1143C
:10480000D104E104F10419F7DDCFFF90EF90DF90C0
:10481000CF90BF90AF909F908F9008950895FC0126
:104820001282138280E4848381E085830895AF92AD
:10483000BF92CF92DF92EF92FF920F931F93CF938D
:10484000DF931F92CDB7DEB77C018B01DB01ED91C9
:10485000FC910480F581E02DCB0109955C01D80124
:10486000ED91FC910480F581E02DC80109956C0162
:10487000F5019781909526819223D7011C968C9102
:10488000813051F120F0823009F454C062C0F5014A
:104890008481958165E070E00E948E35892B09F056
:1048A00058C0D7011E968C911E97482F082E000CD9
:1048B000550B1F962C911F9730E04217530724F495
:1048C0008F5F1E968C9345C08FE7F701868781E046
:1048D000848787E085873DC097FF0AC0D601509640
:1048E0008C91823011F0853019F48150F601808B63
:1048F00094FF0AC0D60150968C91813011F084301B
:1049000019F48F5FF601808B93FF23C0D801ED91DE
:10491000FC91E084F1840480F581E02DC8010995C3
:10492000F601608970E0635E7F4F680F791FC801F0
:10493000F7010EC093FF0DC0D801ED91FC910084EA
:10494000F185E02D8EE08983BE016F5F7F4FC80146
:1049500009950F90DF91CF911F910F91FF90EF90EC
:10496000DF90CF90BF90AF900895AF92BF92CF925B
:10497000DF92EF92FF920F931F93CF93DF931F92DB
:10498000CDB7DEB76C018B01DB01ED91FC910480AA
:10499000F581E02DCB0109955C01D801ED91FC91E9
:1049A0000480F581E02DC80109957C01D801ED91C5
:1049B000FC910480F581E02DC8010995FC01D50129
:1049C00016962C91169717969C9190959223D60146
:1049D00024FF0BC01C968C911C97803120F48F5FB4
:1049E0001C968C9304C00E94C5231C961C9295FFB4
:1049F00005C08585882311F08150858796FF05C005
:104A00008585833010F48F5F858793FF4EC0958531
:104A1000990F990FF701178AE92FF0E0E750F64E4A
:104A2000E491D7015296EC935297E1E0E90FF0E060
:104A3000E750F64EE4915596EC935597E2E0E90F76
:104A4000F0E0E750F64EE4915496EC9354979D5F56
:104A5000E92FF0E0E750F64EE4915396EC9353972C
:104A6000DD24D3945696DC92D801ED91FC9104801C
:104A7000F581E02DC8010995FC0116861786118A7B
:104A8000108A118E128E138E148ED68A178A108E6B
:104A9000D801ED91FC910084F185E02D8AE08983B5
:104AA000BE016F5F7F4FC80109950F90DF91CF91D5
:104AB0001F910F91FF90EF90DF90CF90BF90AF903C
:104AC00008956F927F928F929F92AF92BF92CF92F2
:104AD000DF92EF92FF920F931F93CF93DF931F927A
:104AE000CDB7DEB77C016B01DB01ED91FC91048059
:104AF000F581E02DCB010995D601ED91FC91048063
:104B0000F581E02DC601099500E021E04DE459E171
:104B10006EE070E08EE190E00E944E20F70182810D
:104B200087FD42C0248130E08381281B310937FF93
:104B300002C02F5F3F4F35952795122F812C912C66
:104B400020E8622E712CF7014281811640F5540154
:104B5000AA0CBB1CD70113968C91B501680F711D6F
:104B6000603471052CF420E080E090E00E94571A38
:104B7000F7018381B501680F711D6F5F7F4F8281DF
:104B80006034710544F420E0482FD301A81BB1091B
:104B9000CD010E94571ABFEF8B1A9B0AD4CF47FD55
:104BA00003C08581480F4283D70112968C9187FFFD
:104BB0000DC0D601ED91FC910084F185E02D8CE0D3
:104BC0008983BE016F5F7F4FC60109950F90DF910A
:104BD000CF911F910F91FF90EF90DF90CF90BF90FA
:104BE000AF909F908F907F906F9008952F923F92FB
:104BF0004F925F926F927F928F929F92AF92BF92ED
:104C0000CF92DF92EF92FF920F931F93CF93DF9398
:104C100000D000D000D0CDB7DEB79E838D835B017E
:104C2000DB01ED91FC910480F581E02DCB0109952C
:104C30003C01D501ED91FC910480F581E02DC50189
:104C400009954C01D501ED91FC910480F581E02D91
:104C5000C5010995F401178581E0AD81BE811996E2
:104C60008C93199716961C92169717961C92179765
:104C700018961C9218976D01B2E0CB0ED11C66ED10
:104C800072E0C6010E94B122D4011E96EC91EF3071
:104C900028F4F0E0E657F74E649101C065E070E05B
:104CA0006F5F7F4FC6010E94162368ED72E0C60158
:104CB0000E94B122F401668570E06F5F7F4FC601EC
:104CC0000E941623D4011E96EC91EF3028F4F0E0F8
:104CD000E657F74EE49101C0E5E0F0E0EE0FFF1F6C
:104CE000E156FD4F60817181C6010E948D2200E076
:104CF00021E048E059E160E070E089E690E00E9440
:104D00004E20CC24CA94DC2C00E021E04DEF58E189
:104D100062E170E0C6010E944E2021E043EF58E1BD
:104D200062E370E0C6010E944E20BAE0CB0ED11CB7
:104D3000E3E6CE16D10441F721E046ED58E162E109
:104D400070E081E690E00E944E20AD81BE811C960D
:104D50008C91823011F020E001C020E141E0B501EA
:104D60008D819E810E94912FF301848195816CE059
:104D700070E00E948E359A838983C12CD12CC301A7
:104D800001969C838B837C2CAD81BE811E968C9179
:104D90001E97082E000C990B8C159D050CF4AAC0CB
:104DA000F601E153F74E2490F601E853F74E3490A4
:104DB000F601EF53F74EF4901D968C91873021F059
:104DC0001F1102C081110AC03DE0E32E06E0232D31
:104DD000422DB5018D819E810E94CF0FED81FE8114
:104DE00086858F37C9F4D40150968C91871114C0F1
:104DF000E981FA81379780F0112309F47BC0632D94
:104E000070E000E020E049E958E1822D022C000C1E
:104E1000990B0E944E2003C0112309F46BC0F116B8
:104E2000A0F01F1107C0AD81BE811D968C91882313
:104E300061F097C0F6E0CF16D10409F05BC0ED81B8
:104E4000FE818785863009F092C0432C512C622C5C
:104E5000022C000C7708F3E06F0E711CA2014C5F6E
:104E60005F4FE12C05E12EE0B3018B819C810E9414
:104E7000351B86E0C816D10431F4AD81BE811F9682
:104E80008C91863079F0D501ED91FC910480F5810B
:104E9000E02DC50109958C0D9D1DFC01858D90E0CF
:104EA000019702C087E090E0880F991FFC01E1574D
:104EB000FD4F40815181B2016A5F7F4F00E021E0E8
:104EC000C3010E944E201F1115C0AD81BE811D96E9
:104ED0000C911D97002371F01E968C911E978F37B1
:104EE00049F401508DE0E82E232D422DB501CD016E
:104EF0000E94CF0FBFEFCB1ADB0AE7E0CE16D1043A
:104F000009F041CFAD81BE811D968C911D978823FC
:104F100041F01E969C911E979F3719F481501D9663
:104F20008C93ED81FE818485823021F5CF01269618
:104F30000FB6F894DEBF0FBECDBFDF91CF911F91AA
:104F40000F91FF90EF90DF90CF90BF90AF909F9028
:104F50008F907F906F905F904F903F902F900C9428
:104F6000FB3086E0C816D10409F0AFCF68CF1F111F
:104F7000C9CFABCF26960FB6F894DEBF0FBECDBF1C
:104F8000DF91CF911F910F91FF90EF90DF90CF9025
:104F9000BF90AF909F908F907F906F905F904F9059
:104FA0003F902F9008956F927F928F929F92AF9231
:104FB000BF92CF92DF92EF92FF920F931F93CF9306
:104FC000DF938C01EB01E881F9810480F581E02D0C
:104FD000CB0109955C01E881F9810480F581E02D20
:104FE000CE0109957C01E881F9810480F581E02DED
:104FF000CE0109956C01F7019685963051F028F4A1
:10500000913039F0933039F404C0993011F09D306B
:1050100011F497E001C096E0F8019787F501158239
:105020001482F7018785811151C0F8011486168614
:1050300087E0B82EB586E881F9810480F581E02DFE
:10504000CE010995FC01B3A29AE0992E66E070E0CA
:1050500080E090E00E946922862E66E070E080E0A9
:1050600090E00E946922A62EE881F9810480F581F2
:10507000E02DCE0109953C01B12CE881F981048035
:10508000F581E02DCE010995DC01A80DB11D5D96DD
:105090008C915D97F301EA0DFB1D958D5D969C93B8
:1050A000858F9A949110D2CFF60183898F3F51F466
:1050B0008FE7F801868782E08487F601138AF7017B
:1050C00017860BC081E0F701878707C08FE7F801DB
:1050D000868787E0858781E08487DF91CF911F9164
:1050E0000F91FF90EF90DF90CF90BF90AF909F9087
:1050F0008F907F906F900895AF92BF92CF92DF9282
:10510000EF92FF920F931F93CF93DF936C01EB010C
:10511000E881F9810480F581E02DCB0109957C01BE
:10512000E881F9810480F581E02DCE010995D70150
:1051300014968D919C91159768E170E00E948E35D0
:105140005C0140E0BE01C6010E94BB3000E021E0EE
:105150004DE856E160E070E080E090E00E944E2073
:10516000D6011D96EC91F0E0E657F94E249141E00E
:10517000F6018485813009F040E0BE01C6010E943D
:10518000912FFDE0AF16B10408F445C0D6011D967D
:105190008C91813049F0823051F4DFE3C0E097E533
:1051A000C92E22E3A22E08C0DFE3C4E202C0D2E28D
:1051B000C0E080E3C82EA12CBFEFEB1AFB0A00E091
:1051C0002C2F4C2D6A2DC7010E94A31C2D2F4C2D76
:1051D0006A2DC7010E94A31C1D2F1C1BD12CD0E0DF
:1051E000B12CAE014D0D511D20E0B501C7010E944B
:1051F000E71AD394D3941D15A0F7B12CD12CAE018E
:105200004B0D511D20E0B601C7010E94E71AB3946F
:10521000B3941B15A0F7DF91CF911F910F91FF90D1
:10522000EF90DF90CF90BF90AF9008956F927F92F4
:105230008F929F92AF92BF92DF92EF92FF920F9365
:105240001F93CF93DF931F92CDB7DEB78C017B0105
:10525000DB01ED91FC910480F581E02DCB010995F6
:105260003C01D701ED91FC910480F581E02DC7014F
:1052700009955C014C01B2E18B0E911CD701ED91B7
:10528000FC910480F581E02DC70109959C01F30193
:10529000D780D0948681D822D8011C969C919923DE
:1052A00021F0913009F451C07EC0D5FE06C0F8014E
:1052B0008585823011F486858587D6FE0CC0D8019D
:1052C0001D968C911D97823031F01E968C931E97FF
:1052D00082E01D968C93D4FE0CC0F8018585811167
:1052E00008C081E08587D7FE0AC0D8011D961C92B0
:1052F00006C0D7FE04C0F80185858130B1F3D3FE26
:1053000052C0D8011D968C91813069F038F08230FE
:10531000B9F461E0C4010E948E2E12C0F5018389A8
:105320008F5F838B0DC0D50155962C9130E02E5F99
:105330003F4F2531310514F024E130E0F501258B94
:1053400081E0D8011C968C932EC05901BDE0AB0EB4
:10535000B11CF80197859634A0F49F5F9787963427
:1053600081F4D701ED91FC9100851185B401C5014F
:105370000E944C2E8983BE016F5F7F4FC701F801E9
:105380000995D3FE10C0D701ED91FC9100851185E0
:10539000B401C5010E944C2E8983BE016F5F7F4F0F
:1053A000C701F80109950F90DF91CF911F910F91DF
:1053B000FF90EF90DF90BF90AF909F908F907F9085
:1053C0006F900895EF92FF920F931F93CF93DF9307
:1053D000EC017B01DB01ED91FC910480F581E02D76
:1053E000CB0109958C0140E0B701CE010E946F16F8
:1053F000D701ED91FC910480F581E02DC70109955D
:10540000FC018081873001F1883009F441C0863089
:1054100009F045C0D8011E96FC9066E070E080E07F
:1054200090E00E9469226F0D6E5F6F87D8011E9613
:10543000EC91EF3028F4F0E0E657F74EE49101C02C
:10544000E5E0EE0FEE5F22C0D8011E96EC91EF3042
:1054500028F4F0E0E657F74EE49101C0E5E08E2F26
:10546000880F880FE80FE65FEF87D8011E96EC9152
:10547000EF3058F4F0E0E657F74EE491E53028F4C9
:10548000F0E0E75FF54EE49101C0E0E0E88B07C093
:10549000F8018685880F8E5F8F8785E0888B82E094
:1054A0008D87DF91CF911F910F91FF90EF9008951D
:1054B000FC0190858781890F9185890F9285890FDD
:1054C0000895AF92BF92CF92DF92EF92FF920F9327
:1054D0001F93CF93DF93EC015B01DB01ED91FC9116
:1054E0000480F581E02DCB0109958C017C01B2E1AE
:1054F000EB0EF11CD501ED91FC910480F581E02DBE
:10550000C50109956C01D501ED91FC910480F581EF
:10551000E02DC5010995FC018081873099F0883024
:1055200009F485C0863009F086C0D6011E96EC913C
:10553000EF3028F4F0E0E657F74E649101C065E0E3
:105540006F5F76C0F60166856F3030F470E0FB0166
:10555000E657F74E649101C065E06E5FC7010E9497
:105560008E2ED6011E96EC91EF3030F4F0E0E65727
:10557000F74EE491E23010F083E001C082E0F801E0
:10558000248990E0820F911D8B30910514F08AE000
:1055900090E0D80154968C93549758968C915897D4
:1055A0008F5F58968C9366E070E080E090E00E94F8
:1055B0006922DC01CB010196A11DB11DD82E8A8F75
:1055C000C7010E94582A823020F0B4E0BD1508F0CF
:1055D0003FC09A8D953089F058F4913060F1E92FF1
:1055E000F0E03197E00FF11F818D8F5F818F23C035
:1055F0009630E9F0973071F01EC0F801828990E092
:1056000001968630910514F085E090E0D80152961D
:105610008C9311C0F801848990E002968B3091053B
:1056200014F08AE090E0D80154968C9304C062E0B4
:10563000C7010E948E2E86E08C87DF91CF911F914B
:105640000F91FF90EF90DF90CF90BF90AF900895B3
:1056500087E08A8FBECF6F927F928F929F92AF9298
:10566000BF92DF92EF92FF920F931F93CF93DF933E
:1056700000D0CDB7DEB78C017B01DB01ED91FC9151
:105680000480F581E02DCB0109953C01D701ED9116
:10569000FC910480F581E02DC70109955C014C0166
:1056A000B2E18B0E911CD701ED91FC910480F58144
:1056B000E02DC7010995DC010D96F301D780D09448
:1056C0002681D222F801448550E04D30510508F082
:1056D000D3C2FA01EC59FF4F0C94A235D3FE04C09B
:1056E00085E4D8015B968C93F801838D863408F0AD
:1056F000C3C28F5F838F863409F0BEC2138E858547
:10570000848759C082E0F8018687D3FC06C0D8019F
:105710005B96EC91E13108F154C081E1F801838F8F
:10572000D12CD50156968C91D81688F748018D0C4E
:10573000911CD4015D968C9181110DC066E070E0E2
:1057400080E090E00E946922DC01CB010196A11D5E
:10575000B11DF401828BD394E4CFF0E0E25FF54E0B
:10576000649170E0F301848195810E948E35892BCC
:1057700009F082C2F12CD50156968C91F816B8F436
:1057800048018F0C911CD4015D968C9181110DC044
:1057900066E070E080E090E00E946922DC01CB01CD
:1057A0000196A11DB11DF401828BF394E4CFF801A1
:1057B000838D8F5F838FD30115961C921E92149751
:1057C0005BC2F8018289863059F08389863051F0B6
:1057D0008489863049F08589863041F088E007C0A9
:1057E00084E005C085E003C086E001C087E0D80101
:1057F00051968C9341E0B701C8010E946F1683E077
:10580000DEC0D5FE2AC0D80151968C9151978830C0
:105810002CF055969C91963019F417C0873029F4D6
:10582000F8019489963019F412C0863031F4D80109
:1058300053969C91963019F40CC0853059F4F801B8
:105840009289963039F484E005C087E003C086E091
:1058500001C085E0D80151968C93D6FE2CC0F8018A
:105860009189943024F48289863019F41BC09430D5
:1058700031F4D80153968C91863019F415C09530C7
:1058800029F4F8018489863019F410C0963039F46F
:10589000D80155968C91863059F497E00AC097301C
:1058A00041F406C094E005C095E003C096E001C055
:1058B00098E0F801918BD3FEDFC1D8015196EC91AD
:1058C000E4300CF4D9C1E83034F0E83009F0D4C148
:1058D000B12CD12C1EC0D8015B961C925B970E2E6A
:1058E000000CFF0B3497E00FF11F158E86898F5F38
:1058F000868B82E06BC0F801EB0DF11D828981304F
:1059000039F0D80E8689982F990F890F880FD80EF5
:10591000B394D701ED91FC910480F581E02DC7018E
:105920000995FC018689B81630F3D80191968C91BF
:10593000811185E0D80EF801878590E08D199109D5
:105940008F31910514F08EE190E097FF02C080E066
:1059500090E0D8011F968C9340E0B701C8010E94E7
:105960006F16F8018785811105C0B701C8010E9433
:10597000612A82C1138E83E0868788E0818BDD20D7
:1059800099F01486C4010E94582A811109C0F801B7
:10599000848D811102C085E005C082E0D8011BC161
:1059A00084E0F801858768C1C4010E94582A8111EA
:1059B00010C0D8015C968C91811106C085E0F80179
:1059C00084875AC1D3FE58C182E0D8011C968C93BB
:1059D00053C184E0F4CF84E0D8011E968C93D7FCA9
:1059E00002C0D5FE2BC0F8012189D701ED91FC91B1
:1059F0000480F581E02DC7012A830995FC012A81E5
:105A0000243024F0848D811112C002C01216A4F437
:105A1000818D81110EC022307CF0828D81110BC0EE
:105A2000223051F0838D882339F022E005C023E035
:105A300003C020E001C021E0F801218B8D2D80758D
:105A400091F1D80151962C91D701ED91FC910480F0
:105A5000F581E02DC7012A830995FC012A812330B5
:105A60007CF4848D811116C027FF04C0818D8823AA
:105A700019F012C0121624F0828D882319F00EC07E
:105A8000213029F4838D882359F022E00AC0283080
:105A90003CF007C023E005C020E003C021E001C0C6
:105AA00028E0F801218BD3FEE7C0D80151968C91F4
:105AB000813081F11CF4882339F07BCF8230B1F141
:105AC000833009F440C075CFF501818D8150818FFD
:105AD000D8011F968C9190E00A978F31910514F0B0
