:100000000C940B100C9433100C9433100C9433108C
:100010000C9433100C9433100C9433100C94331054
:100020000C9433100C9433100C9433100C94331044
:100030000C9433100C9433100C9433100C94331034
:100040000C9433100C9433100C9433100C94331024
:100050000C9433100C9433100C9433100C94792FAF
:100060000C9433100C9433100C9433100C94331004
:100070000C9433100C9433100C9433100C943310F4
:100080000C94102F0C9433100C9433100C943310E8
:100090000C9433100C9433100C9433100C943310D4
:1000A0000C9433100C9433100C9433108F0FB5D084
:1000B000B6CDA24D800A1D6C37F27547CB81C902BF
:1000C00096B7BE058F4FDAB66D4716B0C0E5765AC3
:1000D000935F924D5D2E60F4D6778F8F8276EF79A5
:1000E000020778B11C84277C3E708AD925B7BE05EB
:1000F0008F0F75B56DB3188975B9D96CDEF009CE5F
:10010000BDB51DC0F2D6B70707410C1A3C1E0C4105
:100110000707000C3A163A0C000707002A18360C9D
:100120002A000707001A2432241A004D6F6E7374D8
:10013000657220202020202020207E357E444D47DF
:1001400000466F756E647E536869656C642020207C
:10015000202B317E4152005768657473746F6E6551
:100160002020202020207E2B327E585000466F75A4
:100170006E647E4D656174202020202B317E466F99
:100180006F64004865616C74687E506F74696F6E4F
:100190002020202B327E485000466F756E647E4CC6
:1001A0006F6F74202020202B327E476F6C64001B01
:1001B0001F3F8BC562020318C060B3F94BEC731389
:1001C0003184014409A627F7FA112C168BC9024A7B
:1001D00058C0A20409252C4A589420A1844510082F
:1001E0005260B1D96CFED21B9FDF646472451C9BC8
:1001F00027AD02A584F49772CF4610162C58608460
:100200008211162C5820C8CE9DDF014C0000000042
:1002100046669220D48164051916244966060000BA
:10022000000013F87D7CCDAFF17D1B5FEF79C1CA73
:10023000E218080081BC01160BB875008B1B3F8EBD
:1002400023A7B5194802008041008475E5017F812C
:10025000FD0E0004000400E69F8BC562028BCDEF0B
:10026000021B9F9F62667044C6903B87D4D18C0E60
:1002700085E92FE8040240A5820242540010548010
:10028000408C131800006C0137606001411622B2E7
:100290000865F16C954013002A062888A110D91032
:1002A0002155B0414D6A0000500000000D00008152
:1002B000041184F1433C2237E4D61B72EB0D3CFA67
:1002C000391B9F3F9C1B72E6D75092580E1A045060
:1002D00021D30A384B03C445E93ACC41198423772A
:1002E000AEFCB206D04A2E344218288380250B7605
:1002F000B1D00FF5D65B6FBDF5861C3D0AB7DE7A2F
:10030000046EBDF50A1B9F5FE6907054168072EC78
:10031000A02274D11FE56C7CE369CE001D0B481749
:100320005D614C1827E4211FE559D7918DC090C21B
:10033000000D4C89C003E0B2584039E66772CDAD7C
:1003400047BF9E2377596F757E757365647E617EA6
:100350006865616C696E677E7370656C6C2E0A20CF
:1003600020207E596F757E686176657E6761696E53
:1003700065647E380A202020207E65787472617E54
:1003800048507E706F696E74732E007E596F757E53
:10039000757365647E617E706F69736F6E7E737056
:1003A000656C6C2E0A20207E4465616C7E327E6511
:1003B000787472617E64616D6167650A2020202017
:1003C0002020207065727E7475726E2E0020596F29
:1003D000757E757365647E617E666972657E737015
:1003E000656C6C2E0A2020207E4D6F6E73746572D2
:1003F0007E6C6F7365737E31300A202020202020B0
:1004000048507E706F696E74732E0020596F757E30
:10041000757365647E616E7E6963657E7370656CFD
:100420006C2E0A20207E4D6F6E737465727E697328
:100430007E66726F7A656E0A2020202020666F72B9
:100440007E6F6E657E7475726E2E004761696E20D8
:100450003220476F6C6420506965636573210055D5
:100460007067726164657E796F75727E57656170C1
:100470006F6E210020204761696E7E616E7E417241
:100480006D6F757221004761696E7E617E4865619E
:100490006C696E677E57616E6421004761696E7E8C
:1004A000617E506F69736F6E7E57616E64210020AC
:1004B0004761696E7E616E7E4963657E57616E64D9
:1004C0002100204761696E7E617E466972657E57B4
:1004D000616E6421004F67730A52656D61696E73C6
:1004E0000053657270656E740A44656D6F6E0055D9
:1004F0006E646561640A4C6F726400536B656C6571
:10050000746F6E0A4C6F726400556E646561640AA4
:100510004769616E74004F67730A53616E63747547
:100520006D0A47756172640053657270656E740A76
:100530004B6E6967687400556E646561640A4B6E42
:100540006967687400536B656C65746F6E00556EF7
:10055000646561640A536F6C6469657200207E593A
:100560006F7520616C72656164790A2068617665D7
:1005700020656E6F75676821007E596F7520646F06
:100580006E7420686176650A206F6E6520746F2036
:1005900073656C6C2100202020596F75206E656595
:1005A000640A20206D6F726520676F6C6421000DF6
:1005B0000F9725132A54264626512645E6BACF0919
:1005C00003183061C0840113064C98070D0F93A6E1
:1005D0002C0C1801144440044031C1849DED540793
:1005E000D40000430506B050056A203054260D8F14
:1005F0004B9D34128C05E102428D0453A6BA46D9B4
:10060000428000610D902240164980809B0E0D8F24
:100610000F09259409260B2C8B20E12B710DC32586
:100620008E15B9983572000DCF6FA1B00181DD1321
:100630000CF8A6270607F442042880E10D0D8F8FE1
:100640000499A0818282509830493E3A0643044181
:100650005246C2913B0DCF274919AA40A30205D4A7
:1006600014501D34F866D41128A8000540000AA0D3
:100670004221C38E030DCFA76494F01AC0AB520081
:10068000441F05201428A100D83084C1CCAD4700F8
:100690003A7E53756E6B656E7E4B6565707E6F66D8
:1006A0007E4F6721003A7E466C616D696E677E55AC
:1006B0006E646572776F726C64003A7E556E646525
:1006C00061647E43617461636F6D6273003A7E5052
:1006D0006F69736F6E6F75737E44756E67656F6E4D
:1006E00073003A7E5468657E426C61636B7E53652D
:1006F000776572730050697420202020207E2D328F
:100700007E48502C7E2B46616C6C004D6F76696E76
:10071000677E57616C6C73202020202D317E5850ED
:1007200000537072696E677E426C616465202020A0
:10073000202D317E4850005275737465647E41727D
:100740006D6F75722020202D317E415200547269E8
:10075000707769726520202020207E2D317E476FC2
:100760006C64004D696C6465772020202020202077
:100770007E2D317E466F6F64001B9F7B15000098B5
:10078000C007C64BCD81FBF81630010080AEFB01DF
:1007900000000000004278CE60D8C9396E0E7C811E
:1007A000100000000000383C590013008003378E11
:1007B000DCC02B47E098A7DC3800003001D6A7B991
:1007C000722C5C80734EE3C8EF011BDF178738552E
:1007D0007CCD62B317EC75D9739E780A822E10CB4C
:1007E0000B5BC418113FC04891CC4B6F0513307C94
:1007F00003C4A1206A79C3027583DFC9C8A98B2904
:100800009429D4F205F1505CFE021F70895C390214
:10081000D79C809F011B9F872CC86488B840445890
:1008200022C212F100C20572E47B22D45804F12ED8
:100830008661848ADF643980051458A0C2021516C7
:10084000A8B0408532032B6FC0C10215169BC56648
:10085000B131B0596C04606360232194450C8B81E5
:100860002C42F9253EE01239721CA7FC1C1B9F0F7D
:10087000C0F0007C033E502F826E110E5C8427E393
:10088000065E224F61EC086C306C67C76690A80862
:100890000E4592305C54CE84B0D553E46DCEC0C9C1
:1008A0003BB099286E004E8C4A18C85637F080CD60
:1008B00091F07DAE1C31175E70249C809F031B9FBE
:1008C000AF91458D0E58125C0220B1202420088281
:1008D0000208A0113146C468901BF2491426CCBD11
:1008E0000538F28050A4049475E9171CE0F0B9882B
:1008F0005BC42DE216712B92148003145452009A9B
:1009000082AEC20DDC226E117F8A0FB8448E9E101B
:10091000B88C5F031BDF6F43600904661E87C0123B
:1009200008CC3C0E81251098F9093CA43CEEA5703A
:100930005807C29527DC289F61B180052A2C08C87A
:1009400002221840020B82B0608101244001284835
:1009500080C502032C60B1F8093EE012B972EA7159
:100960005C8227BF0B1197CF801B78E4390FB80149
:100970009FC981087BBECD91A30017FE4211D767A6
:10098000CE9C7DCE63E4C8438EC03527E0CC317762
:100990002F80FC910011D7776FC20D7CCDEB7C537B
:1009A00039303879E798075C227F2411D777E492B1
:1009B00063E42DAFF345CC695C903BC73CE012F992
:1009C000230111D7778EE00D78CEEB7CB427C88D4C
:1009D0003BC73CE012F9230111D70FB87A045EF34C
:1009E0003A9F849C841B70E798075C227F2411D770
:1009F0000F380247E035AFF34DE5623879E79807E5
:100A00005C227F244F70656E7E63686573743A0A5A
:100A1000596F757E666F756E647E676F6C647E6FEE
:100A20006E6C7921004F70656E7E63686573743AF1
:100A30000A476F6C647E616E647E74726561737563
:100A4000726521004761696E7E327E476F6C647EFD
:100A50005069656365732100557067726164657ED6
:100A6000796F75727E576561706F6E210020204727
:100A700061696E7E616E7E41726D6F757221004795
:100A800061696E7E617E4865616C696E677E5761E3
:100A90006E6421004761696E7E617E506F69736F7D
:100AA0006E7E57616E642100204761696E7E616EC3
:100AB0007E4963657E57616E642100204761696EDF
:100AC0007E617E466972657E57616E6421000F0FFC
:100AD000BF74C1E4D7EE3B0F0FBF6CC16432F97530
:100AE000FB3D0F0FBF64C16432994C7ECDFE1E0FDB
:100AF0000F5F5E30994C2693C9E4EBFBFB0F0F5F51
:100B00005A30994C2693C96432F9DAFE3D0F8FEFC3
:100B100056B82137E486DC901B72E3E1FE7D0F8F2F
:100B20007B851B72436EC80DB92137E4C661FF5E39
:100B3000130F9705934900109000202001404002B8
:100B4000808004000109000232D9EB3E5F002000E2
:100B500020000200022000200002000220002000ED
:100B600002000FE601090F2F174C26021200042481
:100B7000C0BB7D0700040001400000090F5F5C302E
:100B80009904F8DE7E000000090F5F5E30F9FABEBE
:100B900003090F5F5C30997C75BF03090F2F174C59
:100BA0002693C9E4F5FE1E090F970593C96432998F
:100BB0004CAEFBFB090FFC7900090F5F5C3CFBDED0
:100BC0007B090F5F5A3CFFCE7700090F2F169FBDA0
:100BD0007F1F090F2EFE2CD5F08D14A1C881CFD90F
:100BE000F1AF200003081F051F1F151B1F11111F48
:100BF000110E1F15111F05011F111D1F041F001FBE
:100C00000010101F1F041B1F10101F061F1F011FA5
:100C10001F111F1F05071F311F1F051B17151D0162
:100C20001F011F101F0F100F1F0C1F1B041B071C81
:100C3000071915130C121E1F120C1E12120C121F74
:100C40000C1A14041F052E2A1E1F021C001D002052
:100C50001D001F041A011F001E041E1E021E1E126C
:100C60001E3E120C0C123E1E020614120A020F1235
:100C70001E101E0E100E1E081E1A041A2E281E1AF2
:100C800012161F111F121F101D151711151F070413
:100C90001F17151D1F151D01011F1F151F17151FDC
:100CA000001700001000040404040E040229060AC0
:100CB0000000BFFF9ED6D2C502ED76B0596C96AE4D
:100CC000C291AB57AF1A29680E5EBD7AF59F01CB72
:100CD000A52A05DBB6429122458AAACB1313900BB5
:100CE0002017402E805C00B9007201E402C805F8AC
:100CF000F38FCB52CAD05AB5B2B028C1E238F98FBF
:100D0000D174D51A1AED260EFFE93A6B83B554AFAC
:100D1000C6A087184020610000E1008413FFD03C8A
:100D2000ADA58BADDD0E5D99810E122000C03F4751
:100D3000964B550AB66D85A2EA830910FE518ECBFB
:100D400052CA7057378BCDA2E83AF10F1100060C4A
:100D50001263010101010101010102020202040406
:100D60000408080008021001041F1F2700E0CC99A6
:100D70003367CE9C3973E6CC993367CEDC017801BA
:100D800000FC7D01801700C0DF17007801C09D3393
:100D900067CE9C3973E6CC993367CE9C3903002724
:100DA0004E6F0059657300090900FEFEFEFEFEFE4F
:100DB000FE00000000000000000000FEFFFFFFEF4B
:100DC000FFFFFFFE000101010101010100FEFFFB29
:100DD000FFFFFFBFFFFE000101010101010100FE55
:100DE000FFBFFFEFFFFBFFFE000101010101010159
:100DF00000FEFFBBFFFFFFBBFFFE00010101010181
:100E0000010100FEFFBBFFEFFFBBFFFE0001010180
:100E10000101010100FEFFABFFFFFFABFFFE000180
:100E200001010101010100456E6F7567687E736BFA
:100E3000696C6C3F00011F2020010140001000047C
:100E40000021080803088040200308204080938F79
:100E5000003180A006108801046200811840201132
:100E6000108801046200811840200658940BE54266
:100E7000298372A15C2817CA857AA05C2803030520
:100E800007090C0101010101010101020202020432
:100E900004040808456E656D79204B696C6C6564C7
:100EA00000596F757E6B696C6C65647E7468657ED5
:100EB000426F73732E0A000909AAFF0101000101A4
:100EC000010001010100010101AAFF00010101006F
:100ED00001010100010101000101010001040800FC
:100EE0003E1C08090900FEFEFEFEFEFEFE0000009C
:100EF00000000000000000FEFFFFFFEFFFFFFFFE0D
:100F0000000101010101010100FEFFFBFFFFFFBF26
:100F1000FFFE000101010101010100FEFFBFFFEF23
:100F2000FFFBFFFE000101010101010100FEFFBB0B
:100F3000FFFFFFBBFFFE000101010101010100FEF7
:100F4000FFBBFFEFFFBBFFFE00010101010101013B
:100F500000FEFFABFFFFFFABFFFE0001010101013F
:100F600001010011AFEFC6A2002C24C0420060D1E5
:100F7000F11038F281D00002200020000800022089
:100F8000010CBD73E633B00608002A08480202C00F
:100F9000025977E004C047F63406828242301E0EC2
:100FA0002F80C9003E31752A02484568141DF3118F
:100FB000100EC0398F7A436EC80DBCF93D9B5F9D02
:100FC0002690400A162C3880010C60319930270C8D
:100FD0009850800115280CC042810496E975EFAF46
:100FE000761343081312428092EADE7B9FE6DEEB23
:100FF00095494C1C7C85E1606A606A604BC3616EF8
:10100000521C1893EDD71D2C3010A1C06232274C12
:101010001C300407A4E060FB3D8DDF9D9775EA2D31
:10102000573FE3AFDD1E6EFC9EEF789AF394E71115
:10103000173F2E71B07018A1C8FA1C8BC56401252A
:101040000D9BB288210E408E0EA084503693108ADC
:101050004C8AC0A0080C8AC0A0080C000B2F9F1857
:101060002ECE4C57C6C8CB5F71FC31FBA73CF901B3
:10107000CF33DAB6CD70F139078F8F48E629E7CF45
:10108000E5141127BFC181D66D02B2701801442446
:101090009F63B1388204B02180C35D880384A303B9
:1010A000282194CD24842213108101884C8AC00504
:1010B00081023F960514002112E0F7B3590B2F9FD0
:1010C0001AB2100826EE7C691F00046E7B3FDE1BFF
:1010D0000400E1BCF71BAD0E04400090D3DE4F05C9
:1010E000805A18C2005A52F21D163019C062F159C6
:1010F0001B2F3FA75A7F5F8E2E977726C3C562B1FD
:10110000582C7FE9BE142C58D09DE966B3D99C5960
:10111000FCC07D000060C200C617F7CFDD074000AD
:1011200000E664C2A7F64FDE970AA82A3098F88135
:10113000861F9C784F20050340D3400089E71CC7D9
:1011400061CF539E8D394FF9DC97BEF27EE43B0FA1
:10115000BB2EEBB22E01910F2E9E74B07A6B81C51F
:10116000E781B72D323C76B07A7420051F035363B4
:101170006F72653A2020207E486967687E53636FEE
:1011800072653A00536B696C6C7E4C6576656C0ACF
:10119000417265617E526561636865640A426F737E
:1011A0007365737E536C61796564004F08000000BD
:1011B0003C7EC391F377321080C0F82F2FFEF8E009
:1011C000800081FFFF1FFC781CFFFF0081FFFF9163
:1011D00091B98340000000003C7EE181877E3C00A5
:1011E00001071FFFF8380F03010081FFFF9191B93C
:1011F000834081FFFF117FFFEE80000059A7FFE0D1
:101200008103016E1015A0206F80FF000165015061
:101210004E880850BD53E0EFC211F8BA57FE3E1C8D
:10122000915B3EC7D5BF0347E09A342004B9B9F8B3
:10123000103F130910C24810091B280B80728888C0
:101240000082DE29F0674812ACB0C2C8A6002C0AA2
:101250006C12012D7807CACF0796653150083AD82D
:10126000405900948D2436DC80F23B388E53EE1CBE
:10127000816B2E203CE50773EB715C8227AFC09138
:101280002BE6C2137E3D70815C7302EE1C813B979E
:10129000C8955F039987D94DDB8D39A8277E012733
:1012A000F510D96DD31D1907389D0E700093CDE44C
:1012B0006731590CA0E070381C4F1FA60419C040BC
:1012C0000A86634A082184E646C8281226A19D445E
:1012D000000108001542919051246CA00004800088
:1012E000D04EC298219C98CC6E26413A0E0C989311
:1012F0000205200004807612C60CE14400C6A42931
:101300002184109A1B21A34898847652160001204C
:10131000C843160B10408020B0D96C5E335D9C9999
:101320002E6032F9D52C26933F1BD3CFB0588000C6
:10133000020481CD66F31D360B28000516C3C5F7E0
:10134000086D08B794104208CD8DD950A4A8744CEC
:101350009E12324268464AD010427363763351C9B6
:1013600092A2C155242C83D049534208053A269FA6
:1013700060B38005142830FC3E6B8570C655244C44
:10138000423BB9A50004800A9F4A099BC9444273A5
:1013900014400000004001A01C5C6E24000480206A
:1013A000DFC155A44811C53BAE495342082134C79B
:1013B00094104208CD31258450206BF2120A00307F
:1013C00000300030001FE737168F9005205E9D42E9
:1013D00080D3388D576C54368BCD62A3B291B059FF
:1013E0007C4F00590AC814DE02021B782D4075C8D4
:1013F000C316156448FB6900748AB801780B086C41
:10140000E0B500D5210F5B549021ED77A940341051
:10141000A2F53120B081D70254873C6C514186B48B
:101420001FAF4C2687BC050436F018290B017CD76A
:10143000B240C6EC3B1FFF37166F860A00A05CB2B5
:10144000585E5360F5119B209BC566B151D948D8B1
:101450002C3E40721943F716F02120B0812F20C195
:10146000519EB5A82043DA8F4B455450968F018189
:101470000D7C01514779D6A2820C693F9879594D6C
:101480009642DE01021B788C1415017CD7A2820CD7
:1014900069BF2D802C05640A6F01810D3C164054F4
:1014A00004F05D8B0A32A4FD34003A45DC00BC0533
:1014B0000436F058005111C0772D2AC890F6BB545D
:1014C000201A08D1FA1810D8C06301444500DFB5CE
:1014D000A82043DA8F57269343DE02021B785C90E4
:1014E00085C4772D0B64CCBE0301087E3F3F3F9738
:1014F000E160B1584C16938900069000124AA8D3B7
:10150000E9BF3213F3BDACB6110401527098B000BC
:10151000800238A06BACFC3361B1582C9A2FC635D1
:10152000130800010000200024C0C4D900140010DA
:101530000058309C2B2B23CBC99FD4818466F1FBB0
:10154000D86C764042D0101A102841021440001086
:10155000000400014000100010800218008329449C
:101560005D197FB87D66B3D96C369BC962B2582CC1
:10157000D67EEC000A8010A66C4A2841200808801C
:1015800004519120000220000200F39EF197DA3FFF
:101590007BD706102820903ABC8E9D9740014000D2
:1015A000100004000140001000040001C039D91FE0
:1015B000630125888A08000411D1120A2C3EB27FEB
:1015C000F7868083C567E7E62150004000100004DD
:1015D00000014000100004000160EF8E0F030002C4
:1015E000E064B23F9B1F9F1F978FB0596C169BC53D
:1015F00066B1B9E6C06432335A700210015C2E97AE
:101600004C0AB6ED600107BFFF7FC69CE63CF9EFD0
:10161000E1EFEEE18FFF6FE2B04EF973FE33CAE9FE
:101620004FF5EF2AE3EFF3EFEB0B1CC218479EE7F1
:1016300034131EFF23FBE477BFF7EF2C9775599700
:101640007C7C5D1610705110020157BFCC95AB0E1B
:1016500001DDD62058B73508D66D0D2EBD7AF5EAD6
:10166000D5AB57AF5EBD7AF5EAD5AB578F320F7366
:10167000E5EAD5AB57AF8E51AF5EBD7AF5EAD5AB93
:1016800057AF5EBD664DF613660647640CB97348E6
:101690001DCDE850987EC0230017100E50D8306042
:1016A000C18205290B162C58304139F99DBDF7F739
:1016B000BCC8AA6308E7BFDBFD5B08C200848210D8
:1016C000203080020B10994CA0C0120457804ACAE7
:1016D000905C2417C94572918C0D47E032C22C0CE6
:1016E00098F3037BEFEF6D00E0B0DF3D1C05CE0605
:1016F000991E5BCE4C00C8D5090ABCBD7F163801C7
:101700007202AE5EBD7A056E840302B200805004A0
:10171000004402000808004014008028056A000008
:10172000500000000181E1EAFBBDF7F736ACBDDFF8
:101730003D616670453A168F80C1046E2D30F9D434
:1017400025510CB0800212A0800428B080020B2822
:10175000B080020B2820010A2CA0C0020A2CA0C0D5
:10176000020A2CA0C0020A2CA0C0020A2CA0C002AF
:101770000A2CA0C0020A2CA0C0020A0C1193BDEFD3
:101780005CBDCFC33C5C9D9BAB7F9EFBBB96013D8C
:101790001A4401201C1C042102B3E6A9861868C063
:1017A00010FD3613280CC43104EACFD87BBFE338D0
:1017B0002EE16004B08230060827E0CF747FC73185
:1017C000772F80BCED61DE98C045684770D4E00596
:1017D000387729586073C09281C2AD41065842D70C
:1017E00027F6DEDF130600100622410140E17B03ED
:1017F000B7089020621772436EC80DB92137D867B9
:101800003C7AF5EAD5AB57AF1E8C0AA0AA505529F1
:10181000AA22A02A45D5881A6559698C425491AAF2
:1018200049353B760CAF5EB3E661E2D1AB575786E4
:1018300035D412868BE9D5AB57AFCED4626A57ED5B
:10184000AA5DB5AB364B26139F0700C2993367DEFE
:1018500072E6CC9900F00200F8FD00C00B00E0F742
:101860000300AF8070E6CC99779C397326C01101D4
:1018700002020304040517082417082417FF131392
:10188000273B3B4F09C7E6AED9D1BB232018090738
:1018900037474696A72C21815A17F74F91204106CA
:1018A0003290B74081DF0A1C0870EB06C24340E06B
:1018B000771B61964E9F83F0BB0BBA2861F539F216
:1018C000D3134A601DF28EE5E27732192DD28CBC1B
:1018D000E7C6EFEB2DA775115F0317E07701000056
:1018E000010102020203030304040404040208D4F5
:1018F000D205087F7F3E1C084120FE0105F1F1F171
:1019000011D1B1D111F15151515151515151515147
:10191000515151510000FF00007F7F09090F06005F
:101920007F7F19396F46007F7F4949414100266F0B
:1019300049497B3200266F49497B32FF0000FFFF97
:10194000FFFEFFFEFF0279CD95A5CD7901111111A2
:1019500001F9F901010000FF00007F7F09090F066E
:10196000007F7F40404040007C7E0B0B7E7C000768
:101970000F78780F0700000000000000FF00001F34
:101980003F3F33333333333E36363E363E363E36D4
:10199000363E36363E360000FF00003E7F41417F36
:1019A0003E007F7F0E1C7F7F0000000000000000D3
:1019B000000000000000000000000000003F405058
:1019C000404040784641415959414141415959416E
:1019D0004141414141414100007F000001017F7FC1
:1019E0000101007C7E0B0B7E7C007F7F09090F06C6
:1019F000007F7F49494141000000000000000105CF
:101A00000506000503060004020500030103098F13
:101A1000972C20845C7F30098F97AC64E47A012096
:101A200088FC2E098F0E473EFFDCAB57AF00132A10
:101A30004A600F170E0B9987D94DDB8D39A8277E89
:101A40000127F510D96DD31D1907389D0E7000932D
:101A5000CDE46731590CA0E070381CD787630118BA
:101A60008E4EC41E8185081C9D40FB2B861CC838E9
:101A70003A9178ECE65839241C7A34C8EA6DFC9423
:101A8000217BDC0CB27A6B383B11C6AF18B2C7CDE4
:101A9000800B388ED30045DF7FB0EBDA1D8E7D7171
:101AA000DEA7F33EBDECB65E5F5CFF68F6D65B5723
:101AB000D204D35B4F33E7398E5ECD8E578F635E92
:101AC0003B4FB93A1B336BC770B477BC7A752E0E97
:101AD000D3AB57B933566FBD35C134A31D303F3436
:101AE000BAE8173267E62D5767633ABDE6B4733B31
:101AF0008CA3575312AF5E33CF5D47AF7497ABC71C
:101B0000319E7D2ACB8C7568F80E67169BC5E6CC96
:101B10006739B3D82C368B339B574C208191C13B0E
:101B20001667368BCDE2CC6739B3596C1667BE4168
:101B3000080202020203030303030301010101017E
:101B4000010101020202020404040808341000002A
:101B5000F804C4A464A4E4C4040404648464048491
:101B6000448404C404C40404E424C404A4048444D5
:101B700084048444E4040404C4E4A464A4C404F811
:101B8000000000000F10101311131110101010108E
:101B90001310101112111011121110101312111034
:101BA0001310111312101112131010101011131121
:101BB0001310100F000000100804020102011F2082
:101BC0002001014000100004002108084E6F005958
:101BD000657300090900FEFEFEFEFEFEFE00000029
:101BE00000000000000000FEFFFFFFEFFFFFFFFE10
:101BF000000101010101010100FEFFFBFFFFFFBF2A
:101C0000FFFE000101010101010100FEFFBFFFEF26
:101C1000FFFBFFFE000101010101010100FEFFBB0E
:101C2000FFFFFFBBFFFE000101010101010100FEFA
:101C3000FFBBFFEFFFBBFFFE00010101010101013E
:101C400000FEFFABFFFFFFABFFFE00010101010142
:101C500001010045766164657E747261703F008D9C
:101C6000D73DF13EF3F0AD7BB3673E7630714E0762
:101C700081B2F2398E812E0489D73DF1B1C3E5DC02
:101C8000ECB91E5F1D04CAF2CE91303609973BF3C2
:101C9000F031E6F732777A231C799E45210C010159
:101CA0000101010101010202020204040408084FBB
:101CB00070656E7E63686573743A00D7BF1EF9EF76
:101CC0001347FFCF169CBD7AF5CFC199AB675EF382
:101CD000E7F0EAD5337FE6A56B09001088110216FC
:101CE00038124E8413618E70A1040C658E70229C94
:101CF000403995430C00000027F582DC908C49891F
:101D000010CA858C2237E4863C002A048C810000AE
:101D1000B896AE1F1E40200610488C400C201015AF
:101D2000046200811880BDF7DE07D6426EC80DB987
:101D300071D827208006B8EC2B72436EC80DB921EC
:101D400037E4865CF7058802014EFBC00DB92137E8
:101D5000642D0E7BEFBD01620081A820100308C432
:101D600000C60410880104728E17402E085C2817E4
:101D7000EA8172C176246314E8025C3414192CE4FD
:101D800086DC38EC131040035CF615B92137E48685
:101D9000DC901B7243AEFB02448100A77DE086DC31
:101DA00090C5404ACA1258053A46325AB9500E9662
:101DB0000B2017CA05818B593BDF4F982008140C64
:101DC000000501000A06808201A060002818000AB0
:101DD00006808201A06000281800828680084111D8
:101DE00021888204519000123000140C0005034039
:101DF000C100503000140C00050340C10050100019
:101E0000A06000282008934FEE0D00040000101081
:101E100058206B0A37E126DC849B70136EC24DB8E4
:101E20000937E126DC849B70136EC24DB809376117
:101E30002C3281000000000000B0F7EFD81B00003A
:101E4000000000386C3973E6CC993367CE9C397347
:101E5000E6CC993367CE9C3973DC070000000000A4
:101E600060EFAF122E0CDAC500A40A882860400B80
:101E700002A2000615404840B0E01882E004CC8E73
:101E8000DDD46DB352671D290882204409C4A02007
:101E90000882203846CD8E21424C80500406AB6526
:101EA00070215C013B97FFC0EFF3304FB4A86C5436
:101EB000362A27E7201B480002C439C809958DCA75
:101EC0004665A3B251D9A86C544E614C030420015D
:101ED000761853D9A86C54362A2DA779987716B25C
:101EE00006087480C014045800022C00011680708B
:101EF00001810E100608081710E800011680000B7B
:101F00000AB000045800022C28C00210600108A387
:101F1000807001016180300A081B40800520C002EA
:101F2000106001084E40180584B19005090900FEB3
:101F3000FEFEFEFEFEFE00000000000000000000AD
:101F4000FEFFFFFFEFFFFFFFFE00010101010101A6
:101F50000100FEFFFBFFFFFFBFFFFE0001010101CB
:101F600001010100FEFFBFFFEFFFFBFFFE000101CB
:101F7000010101010100FEFFBBFFFFFFBBFFFE00EF
:101F80000101010101010100FEFFBBFFEFFFBBFFEB
:101F9000FE000101010101010100FEFFABFFFFFF97
:101FA000ABFFFE00010101010101010017F74F9194
:101FB0002041063290B74081DF0A1C0870EB06C250
:101FC0004340E0771B61964E9F83F0BB0BBA2861BC
:101FD000F539F2D3134A601DF28EE5E27732192DFE
:101FE000D28CBCE7C6EFEB2DA775115F0317E07726
:101FF000018BCF7B636DB096524B69B43756CE9C44
:1020000073EBADB74CD7BF1EF9EF1347FF5F21E469
:10201000BF565900F42F11241FBECFEFDAE0DEBF08
:10202000CDBF12E0A0E0B1E0EEEFFBE602C005900C
:102030000D92A83EB107D9F727E0A8EEB2E001C0A3
:102040001D92A23EB207E1F710E1CBE0D0E104C05F
:102050002197FE010E94CD34CA30D107C9F70E94F2
:10206000D1300C94FD350C9400009C01480F592F81
:10207000511D4115510561F1803891054CF54138EC
:10208000510514F040E850E0421BCB0187709927BE
:1020900091E001C0990F8A95EAF777FF02C0695F66
:1020A0007F4FFB0183E0F595E7958A95E1F7F6957B
:1020B000FE2FEE27F795E795E20FF31FE252FC4F54
:1020C000415030F08191DF011197892B8C93F8CF2B
:1020D00008952F923F924F925F926F927F928F92CC
:1020E0009F92AF92BF92CF92DF92EF92FF920F93A7
:1020F0001F93CF93DF9300D000D0CDB7DEB7602E13
:102100004115510509F422C1FA01F4903196F49178
:102110004E5F5F4F0F2D10E0222311F1A1E0B0E0E0
:10212000EF2FE77011F4B0E0A0E0CF2EC694C69474
:10213000C694CA0EDB2ED11CC09ED001C19EB00D2C
:10214000D09EB00D1124E3E0DE2E6D1002C0AA0F68
:10215000BB1F2A9F60012B9FD00C11244C0D5D1DCD
:10216000080F191F101611060CF0F0C080389105E9
:102170000CF0ECC0DB01AF0FB11D1A161B060CF002
:10218000E5C0603471050CF0E1C04115510509F45A
:10219000DDC0262F2770722EDB0177FD179623E016
:1021A000B595A7952A95E1F72A2F77FF04C07720E8
:1021B00011F02FEF2A0F66277727681B790B97FD01
:1021C00002C070E060E0003811050CF4A5C010E812
:1021D000181B161BA22F022E000CBB0B2F3F0CF05E
:1021E0009DC03A2F30953983E1E03F2F377009F4D5
:1021F000E0E0F695F695F695EF0FAE0FB11D199745
:1022000014F0E8E0E21B0981020F30E80303D0017B
:1022100011248A0F9B1F860F971F272C072C000C59
:102220003308A3E0F2E06A12F1E0AF2EB12CB981DD
:10223000FB9E600D711D11246A9DD0016B9DB00D38
:102240007A9DB00D11246A01CA0EDB1EB5016150E2
:102250007109A60FB71F4A0F5B1FAFEFB0E0072C45
:1022600002C0AA0FBB1F0A94E2F7BD0160957095EA
:102270007A836983422E4E0E3F2D311B3F9F602D86
:102280001124F19F90011124260F311D041509F42A
:102290005DC0DC01A252BC4FBC83AB83F12CE12CAE
:1022A000512C151509F44AC0F601EE0DFF1D64917D
:1022B00070E0022C02C0660F771F0A94E2F7B2E0CA
:1022C000E981FA816B1641F0EBEF6E1229C0FB0138
:1022D000E095F09570E060E007FD06C0AB81BC8141
:1022E0009C909E22962A9C92772061F0073054F4AD
:1022F0008B809C80B0E88B0E911CD4016C916F2375
:10230000672B6C935394EA0CFB1C6B817C816F5F91
:102310007F4F7C836B83C5CF1F2D5BCF198264CF2A
:10232000FA01EE0DFF1DE491F0E0022C02C0EE0F69
:10233000FF1F0A94E2F7E095F095CECF0F5FC20E33
:10234000D31E420F531F80589F4FA0CF0F900F9066
:102350000F900F90DF91CF911F910F91FF90EF9011
:10236000DF90CF90BF90AF909F908F907F906F90B5
:102370005F904F903F902F9008952F923F924F92F1
:102380005F926F927F928F929F92AF92BF92CF9205
:10239000DF92EF92FF920F931F93CF93DF93CDB70E
:1023A000DEB761970FB6F894DEBF0FBECDBF2C012C
:1023B0001A012B87FA013491319624912F83832FB0
:1023C0008F778F5F482F50E05A834983CA01840D6D
:1023D000951D97FDAFC150E8451651040CF0AAC1F8
:1023E000822F8F738F5FAB01480F511D57FDA2C124
:1023F000603471050CF09EC1331F3327331F398BB6
:1024000026FBAA27A0F9B0E03B0177FF04C06624B1
:102410007724661A770A97E069227724AB0177FF61
:1024200002C0495F5F4F9A01F3E035952795FA9511
:10243000E1F73E832D8377FF0DC06114710451F0E5
:10244000215031093E832D8348E050E0BA016619DE
:1024500077093B01682F669566956695877009F048
:102460006F5F702F72707C8701FD44C021E01A16E7
:102470001B060CF020E0188A1F86902F9170988719
:1024800049815A814150510900FD02C050E040E0AD
:1024900097E0A0E1B0E080E0912C812CE62FF0E005
:1024A000FE87ED876F857889ED85FE856E177F073E
:1024B00008F040C1EE24E394F12CFD0173E0F695A1
:1024C000E7957A95E1F7E20DF31DE4916E2F70E048
:1024D000FD01E770FF2702C075956795EA95E2F761
:1024E0008D010F5F1F4F60FF11C0FFEFEF1AFF0A52
:1024F000D801E3CF862F8150990B988B8F8721E0ED
:102500001A161B060CF0B9CF20E0B7CF31E0E31666
:10251000F10409F0A9C0F80163E0F695E7956A9522
:10252000E1F7E20DF31DE491F0E00770112702C01E
:10253000F595E7950A95E2F7E170FF27BF016F5F18
:102540007F4F7C836B83129610E000E06B817C816F
:102550006017710709F4E9C07989772351F0692F71
:1025600070E0222309F4C5C065527D4FFB016081F4
:10257000862B915008F075C0882309F44AC0ED807D
:10258000FF85EF0E37E03E150CF443C0B201640F37
:10259000751F60387105E8F590E0062C02C0880FC1
:1025A000991F0A94E2F7E7FC15C06E2D70E86703E7
:1025B000F0011124BF01640D751D640F751F625277
:1025C0007C4FFB01D0803B85332309F499C0D82A86
:1025D000FB01D08261147104E1F0F7E0EF16C9F05D
:1025E0003FEFE316B4F0EE2DEE0CFF0B3196F695AF
:1025F000FE2FEE27F795E795E40DF51DE40FF51F87
:10260000E252FC4F60817B85772309F47DC0692B02
:1026100060838F8187FF02C091E02927EFEF8E1A38
:102620009E0A3885332309F473C0415051096981EA
:102630007A81861697069CF07C85772309F46BC017
:102640008F8598890197988B8F875885552309F432
:1026500069C049815A8141505109912C812C97E0E0
:1026600080E00F5F1F4F72CFB701615071097A8709
:102670006987E1E0F0E0098402C0EE0FFF1F0A94D1
:10268000E2F7BF016F5F7F4F7C836B83D12CC12C3E
:102690005601A00EB11EF50133E0F695E7953A9587
:1026A000E1F7E20DF31DE4916E2F70E0E7E0AE225A
:1026B000BB2402C075956795AA94E2F760FF0EC02F
:1026C00061E070E00C2C02C0660F771F0A94E2F7FD
:1026D000EB81FC81E60FF71FFC83EB83FFEFCF1A42
:1026E000DF0A69857A85C616D70694F2AE0DBF1D3E
:1026F0002BCFE7E0F0E0E61BF70BE552FD4F37CFBD
:10270000F82EF094DF2064CF892F8095682380CF46
:102710004F5F5F4F8CCF4F8558894F5F5F4F588B0E
:102720004F8793CF50E040E098CF61E07989671BF5
:10273000698BB8CE61960FB6F894DEBF0FBECDBFE1
:10274000DF91CF911F910F91FF90EF90DF90CF908D
:10275000BF90AF909F908F907F906F905F904F90C1
:102760003F902F9008958F929F92AF92BF92CF92F9
:10277000DF92EF92FF920F931F93CF93DF93C42FBB
:10278000922E102F822F90E0880F991FFC01E353A7
:10279000FD4FA080B18081549D4FFC01C080D1804D
:1027A000D0E0802E840EE62E660FFF088AE0D0FF70
:1027B00080E0682DD23008F46C2F70E00D2F20E0FF
:1027C000A5018E0D9F2D911D0E94BD11DF5FD4309C
:1027D00069F7F6E09F1611F1D0E01C0F8AE0D0FFF8
:1027E00080E0612FD23008F46C2F70E00D2F21E0D3
:1027F000A6018E0D9F2D911D0E94BD11DF5FD4306B
:1028000069F7DF91CF911F910F91FF90EF90DF90CB
:10281000CF90BF90AF909F908F9008950C2E000C9A
:10282000DD0B00E021E0A601BE01C7010E94BD1141
:10283000BE01610F711D02E021E0A601C7010E94E7
:10284000BD11DFCF0F93CF93DF93662351F000E0EC
:1028500021E045E050E270E060E090E080E00E941E
:10286000BD11D0E0C0E000E021E041EF5FE1BE013A
:1028700089E590E00E94BD112A96C634D10599F7EA
:1028800021E04CEA5FE170E060E089E690E00E94C0
:10289000BD11DF91CF910F910895FC0190E0DB0114
:1028A00058968C91981778F4DF01A90FB11D919675
:1028B0001C92919758961C92268D222311F021503C
:1028C000268F9F5FECCF0895BF92CF92DF92EF9259
:1028D000FF920F931F93CF93DF93142FE22FF0E01B
:1028E000EE0FFF1FEB55FD4FC080D180D0E0C0E060
:1028F00090E1B92EB40EE62E660FFF088D2F807181
:10290000912FC23008F09B2D692F70E00C2F21E031
:10291000A6018E0D9F2D911D0E94BD11CF5FD05F2E
:10292000C43061F7DF91CF911F910F91FF90EF902D
:10293000DF90CF90BF900895EF92FF920F931F9377
:10294000CF93DF938C017B01D0E0C0E0F701EC0F67
:10295000FD1F6491662361F0D801ED91FC91019017
:10296000F081E02DC8010995892B11F02196EECF59
:10297000CE01DF91CF911F910F91FF90EF900895BD
:10298000AF92BF92CF92DF92EF92FF920F931F937D
:10299000CF93DF936C017B018B01040F151FEB01BB
:1029A0005E01AE18BF08C017D10759F06991D60172
:1029B000ED91FC910190F081E02DC6010995892BE4
:1029C00079F7C501DF91CF911F910F91FF90EF90A3
:1029D000DF90CF90BF90AF9008950F9302E00E94D8
:1029E00069100F910895F89487E780930008809309
:1029F0000108A89588E18093600088E080936000DA
:102A0000FFCFBC0190E080E0AB01FC010E941C15EF
:102A100041505109E109F10928F068517C4F8F4F6D
:102A20009F4FF6CFAB01FC010E941C156417750780
:102A30008E079F07C8F30895A5EDB3E02FB7F8946C
:102A40007D918D919C9166B52FBFA89B05C06F3F6E
:102A500018F47F5F8F4F9F4F22E0660F771F881F0C
:102A6000991F2A95D1F708958FB18095807F669B35
:102A700088601C9B846008951092DD033E983F9807
:102A800008953E9A3F9A81E08093DD03089580384F
:102A90009105B8F460347105A0F420E191E061FD86
:102AA00094E060FD990F62FD9295687F269FD001AA
:102AB0001124A80FA252BC4F8C9140FF03C0892B58
:102AC0008C93089590958923FBCFDF92EF92FF922C
:102AD0000F931F93CF93DF937C01EB01D22E8B01D9
:102AE000040F111DC8010134110514F080E490E0B9
:102AF000C817D9073CF44D2DBE01C7010E944715E8
:102B00002196F0CFDF91CF911F910F91FF90EF9021
:102B1000DF900895CF93DF93EB0149E067E370E026
:102B2000CE010E94351049E06FE370E0CE010E94B3
:102B3000351021E049E067E370E0CE010E946515A1
:102B400021E049E067E370E0CE010896DF91CF9184
:102B50000C946515AF92BF92CF92DF92EF920F93D4
:102B6000CF93DF935A01EB016B01C20ED11CCC1540
:102B7000DD0544F42E2D402FB501CE010E946515D0
:102B80002196F5CFDF91CF910F91EF90DF90CF900D
:102B9000BF90AF900895AF92BF92CF92DF92EF9225
:102BA000FF920F931F93CF93DF93F22E102FC42F1A
:102BB000D0E0C62ED12CE12CAE01B60103960E94C6
:102BC000AA150AEF0F0D560183E0A80EB11CBE0135
:102BD0006E5F7F4F402FC5010E943510BE01610F0F
:102BE000711D63507109402FC5010E9435101650A8
:102BF000239621E0412FBE01C60102960E94651571
:102C0000C6018F0D911D21E0412FBE010397DF9179
:102C1000CF911F910F91FF90EF90DF90CF90BF90D9
:102C2000AF900C9465150895EF92FF920F93CF9398
:102C3000DF93EC017C0182E0E80EF11C89E08B87D8
:102C400083E08E838F8382E0888728894CE25FE16E
:102C500061E070E080E390E00E94ED1400E021E08C
:102C600044EA5EE160E170E08EE090E00E94BD1118
:102C7000888965E27AE0853010F464E07AE0C70183
:102C80000E949C1488E08B87DF91CF910F91FF9079
:102C9000EF900895EF92FF920F93CF93DF93EC01A3
:102CA0007B0100E021E048EB5DE168E070E08EE050
:102CB00090E00E94BD118E85813081F42F85222302
:102CC00069F0215005E04DE062E2C7010E94B313B4
:102CD000DF91CF910F91FF90EF90089505E020E0F4
:102CE0004DE062E2C7010E94B313E889E150FF0B97
:102CF000EE0FFF1FEB57FD4F4081518100E021E0B7
:102D00006FE070E083E290E00E94BD11E1CFFC0132
:102D100016861786108A118A0895FC011686178672
:102D2000108A0895CF93DF93EC01DB0118968C9104
:102D3000189719969C9119979095982384FF89C0AC
:102D40008E85803108F083C08F5F8E8795FF09C024
:102D50001F968C911F97882321F081501F968C938A
:102D60001F9796FF09C01F968C911F97833020F400
:102D70008F5F1F968C931F9793FF52C01F968C9165
:102D80001F97880F880F59961C925997E82FF0E0EB
:102D9000E250F64EE4915496EC935497E1E0E80F3C
:102DA000F0E0E250F64EE4915796EC935797E2E04C
:102DB000E80FF0E0E250F64EE4915696EC93569709
:102DC0008D5FE82FF0E0E250F64EE4915596EC93DB
:102DD000559781E058968C93589750961C9250972F
:102DE00051961C92519753961C92539752961C924F
:102DF00052975B961C925B975C961C925C975D96D3
:102E00001C925D975E961C925E975A961C925A97FA
:102E10008AE098968C93989717961C921E92169714
:102E200092FF0DC08CE38F8781E09889911180E03B
:102E3000888B8091DD03882371F00E943C158F857B
:102E4000882311F081508F87DF91CF9108950E94E0
:102E5000F3141E867BCF0E944115F1CFFC0116862C
:102E60002091DD03208B1092900089E080939100E7
:102E70008FEC97E0909399008093980082E0809384
:102E8000710082E48093C00081E08093C1008FEFE5
:102E90008093D1000895AF92BF92CF92DF92EF92CC
:102EA000FF920F931F93CF93DF93EB0120E048EF46
:102EB00058E161E170E080E290E00E94ED148E81C3
:102EC0009F8160E370E00E94B934883108F045C00A
:102ED000C1E18C3008F0CEE1E1EFF8E19491E2EF4E
:102EE000F8E18491492F50E0453251050CF095E20C
:102EF000E1E0282F277009F4E0E086958695869515
:102F00008E0F863008F085E08D5F63EFE62E68E176
:102F1000F62E23E00BED11E0821719F1D801A25231
:102F2000BC4F70E060E0691708F03EC0F701E60FA3
:102F3000F71FE491F0E05F01AA0CBB1C27FF2DC036
:102F40006D0130E8C30ED11CF60130813E7F3B2974
:102F500030836F5F7F4F1196E6CFCFE1843208F068
:102F6000C0E26C2F70E041E084E390E00E944715DE
:102F7000C0FD20C020E04DEE58E16CE170E08DE234
:102F800090E0DF91CF911F910F91FF90EF90DF9034
:102F9000CF90BF90AF900C94ED143C9131703A29D2
:102FA0003C932730B4F6CCCF2F5FE40EF51E0058CB
:102FB0001F4FB2CFDF91CF911F910F91FF90EF90F4
:102FC000DF90CF90BF90AF900895DC01FB01918519
:102FD00090958085982321F081E012968C9312972A
:102FE00012969C911297992339F09F5F12969C93A9
:102FF000943111F48CE080A708950895863029F06B
:1030000030F4813011F0833031F481E0089589305B
:10301000E1F38D30D1F380E008958F3030F4E82F64
:10302000F0E0E252F74E8491089585E00895CF9341
:10303000DF93EC01FB0181858095908589239E8536
:10304000913011F128F09230D9F1DF91CF910895AC
:103050008681978165E070E00E94B934892BA9F7D9
:103060008889282F082E000C330B99899217130694
:1030700021F01CF08F5F888BE8CF8FE7888B81E091
:103080008E8787E08F87E1CF87FF07C092899230D4
:1030900011F0953011F49150928B84FF07C0928902
:1030A000913011F0943011F49F5F928B83FFCDCF5C
:1030B000A289AE0FBF2FB11D90968C9180A7C5CF6E
:1030C00083FFC3CF8EE0FACFFC0116861786108AE5
:1030D000118A0895FC0116861786108A0895AF920A
:1030E000BF92CF92DF92EF92FF920F93CF93DF9335
:1030F0005A016901FC0180A18150C1E0D0E0823019
:1031000010F0D0E0C0E0C114D104A1F000E020E054
:10311000A6017E01F8E1EF0EF11CB7018EE390E00D
:103120000E94BD1101E020E0A601B70185E490E016
:103130000E94BD1100E021E0A501BE0184E390E002
:103140000E94BD1101E021E0A501BE0185E490E0EF
:103150000E94BD11DF91CF910F91FF90EF90DF9012
:10316000CF90BF90AF900895FC0197818085980F14
:103170008185980F8285890F0895FC012381261B84
:10318000330B37FD20E02383220F23878EE2821B3F
:103190008093000108958F929F92AF92BF92CF9239
:1031A000DF92EF920F931F93CF93DF934B01D42FB6
:1031B000122FC02FC22ED12CA42EB12CE12C00E254
:1031C00020E2A601B501C40103960E94AA1520E0E1
:1031D000412F6D2FC4010E9464148C2F8150990BD4
:1031E000FC01EE0FFF1FE35FFD4F40815181B601EF
:1031F0006E5F7F4F00E021E0C50102960E94BD1185
:10320000DF91CF911F910F91EF90DF90CF90BF9002
:10321000AF909F908F900895FC0181E0868787870B
:10322000108A128A138A148A118A158A08950F93B4
:103230001F93CF93DF93EC019A819F5F9A83933022
:1032400089F18B01943078F4913031F1923039F179
:10325000963019F589818D3089F48DE0DF91CF9119
:103260001F910F9108959430E9F0953089F786E029
:103270008B8389810E94FE1781110FC0F801818123
:10328000815081831A82818187FD07C089818F5F88
:1032900089831B821C8201C01B828AE0DFCF81E010
:1032A0008B83FBCF9B83F9CFDC0114968C91149711
:1032B000E82FF0E0E35BF24FE49115969C911597AF
:1032C000690FE61718F015966C9308956F5F6E1BE3
:1032D00015966C9315978F5F14968C930895FC0147
:1032E0002381260F3327331F2531310514F024E1C4
:1032F00030E02383220F23878EE2821B809300011C
:103300000895AF92BF92CF92DF92EF92FF921F93F8
:10331000CF93DF93EC017B016B0184E1C80ED11CDC
:10332000FB0111851095808518238E85882369F00F
:10333000813009F441C0DF91CF911F91FF90EF9050
:10334000DF90CF90BF90AF90089515FF05C08F8597
:10335000823011F488898F8716FF06C08F858230EE
:1033600019F0888B82E08F8714FF16C08F8581113A
:1033700013C081E08F8717FD1F8613FFDCCF8F8579
:103380008130A9F078F0823021F461E0C6010E941A
:10339000541981E08E87CFCF17FFEFCF8F85813013
:1033A00061F7EACFF70185898F5F858BF2CF62E005
:1033B000C6010E946F19EDCF5B01FFE0AF0EB11C9B
:1033C0008989863450F48F5F898B863431F4B60155
:1033D000C5010E941719F70180A713FFACCFB601F2
:1033E000C5010E941719F70180A7A5CFBF92CF9200
:1033F000DF92EF92FF920F931F93CF93DF93EC0135
:103400008B016B0184E1C80ED11CFB01F184F094A7
:103410008085F82209F0188A8E858823F9F081309A
:1034200009F4B9C08F2D807631F081E09E8591112D
:1034300080E08E871F86F2FE07C0B601C8010F9696
:103440000E941719F80180A7DF91CF911F910F916A
:10345000FF90EF90DF90CF90BF900895F7FE05C0EA
:103460008F85882311F081508F87F4FE05C08F85EA
:10347000863010F48F5F8F87F3FED4CFEF84F2E0B5
:10348000EF1609F458C0FE1570F0EE2009F181E046
:10349000E81609F440C08989982F977109F4C2CFC2
:1034A0008860898BBFCF95E09E1508F057C0E6E095
:1034B000EE12F1CFF8018689863070F0948995304C
:1034C00088F49F5F948B8650868B8989846061C065
:1034D000F8018689811103C081E0888BDCCF858962
:1034E0008A3011F483E0F9CF89898061898B8589DD
:1034F000082E000C990B01968B30910514F08AE090
:1035000090E0F801858B86898150990B97FD80E0CA
:10351000F801868BC0CFF80186898823E9F2878974
:10352000843101F389898260898B61E0C6010E9440
:103530006F19F801E8CFF8018689833068F287892E
:10354000843181F289898260898B64E0C6010E949E
:103550006F19F80186898350990BD8CFF801B68886
:10356000F7E0FB1508F0B8CFC6010E94B41882300E
:1035700008F0B8CF8E2D8350990BFC01E00FF11F9E
:10358000838D8F5F838F88EF8B0DF801868B898900
:103590008860898B80CFF7FE05C08F85882311F066
:1035A00081508F87F4FE05C08F85843010F48F5FC3
:1035B0008F87F3FE37CFEF85E330C0F4E00FF12FB4
:1035C000F11D838D882379F08150838FF8018689DE
:1035D00090E004968B30910514F08AE090E0F801B9
:1035E000868B89895DCF82E0888B1CCFF801848926
:1035F0008823C9F38150848B868990E003968B30B1
:10360000910514F08AE090E0F801868B89898C603E
:1036100048CFEF92FF920F931F93CF93DF93EC016C
:103620007B01142F00E021E042EB5CE070E060E001
:1036300090E080E00E94BD1101E021E042EB5CE0FF
:1036400070E060E080E490E00E94BD11EC85F0E065
:10365000EE0FFF1FEB52FE4F4081518100E021E051
:1036600064E170E085E090E00E94BD11ED85F0E03E
:10367000EE0FFF1FEB52FE4F4081518101E021E030
:1036800064E170E08BE690E00E94BD11F701868155
:10369000978163E070E00E94B934892B61F48C85D6
:1036A00090E00196837099278C878D8590E0019634
:1036B000837099278D871123D1F04EE561E370E087
:1036C00081E190E00E9435104EE563E370E081E116
:1036D00090E00E943510C1E1D0E041E065E370E088
:1036E000CE010E9447152296CF36D105B1F7DF9162
:1036F000CF911F910F91FF90EF900895EF92FF925D
:103700000F93CF93DF93EC017B0141E00E94091BF3
:1037100000E021E046E95AE160E170E08DE190E0EF
:103720000E94BD1121E04BE55AE168E370E083E1BE
:1037300090E00E94BD11F7018681978166E470E0F8
:103740000E94B93421E048E45AE1873020F000E0DB
:1037500021E046E35AE164E070E083E390E00E94F8
:10376000BD11F701878590E0FC01EE5CF54E4491B8
:10377000825D954EFC0184916FE370E090E00E94C1
:1037800035108F858823E9F000E020E043E25AE11C
:1037900068E370E087E790E00E94BD118F858F702D
:1037A000883078F4888947E15AE1813011F04EE0A1
:1037B0005AE100E021E068E370E087E790E00E94D2
:1037C000BD11DF91CF910F91FF90EF9008950F936E
:1037D000CF93DF93EC016A3061F48D818C838E810D
:1037E0009985890F8E8381E090E0DF91CF910F91D1
:1037F00008958C816E3719F48E5F8C83F4CF262F59
:103800006E816F5F2A3390F4203398F52B3299F153
:1038100038F42132A1F198859D5F8C81890FEDCF1D
:103820002D3259F12E32B9F72FE30FC02B3540F46A
:103830002134E8F42A33C9F02F3369F722E405C0B4
:103840009FE9920F27549A3130F7062E000C770B20
:10385000082E000C990B3F810AEF313009F00BEF75
:1038600044EE5BE00E946910D6CF23E4EECF2154F2
:10387000ECCF2C5FEACF21E4E8CF20E4E6CF2EE3C3
:10388000E4CF089590E080E00895089508950895A4
:10389000089508950895089508950895CF93DF93A6
:1038A000D82F8CE890E00E942E34C82F8DE890E04D
:1038B0000E942E34D11104C0CD3411F4823501F1AF
:1038C0006DE48CE890E00E94363462E58DE890E08B
:1038D0000E94363460E08EE890E00E94363460E06A
:1038E0008FE890E00E94363460E080E990E00E942A
:1038F000363460E081E990E0DF91CF910C9436346A
:10390000DF91CF910895CF93DF93EC01DB011896FF
:103910009C91189719968C9119978095892383FF0C
:1039200005C08E85882391F0813099F0898997FFB1
:1039300027C094FF25C08F5F898B853120F08D33A0
:1039400060F08D33A1F0DF91CF91089581E08E87F3
:10395000EDCF8CE098968C93E9CF20E430E0A9017C
:10396000481B5109CA01880F80938A00ECCF198A3D
:1039700010928A0081E00E944E1C188A1F86E3CFB5
:10398000882309F310928A00198ADDCFDF92EF9223
:10399000FF920F931F93CF93DF93EC017B018B0179
:1039A0000C5E1F4F80E00E944E1C1E861F86188AE8
:1039B000F70182818D3011F081E08E87F701D78485
:1039C0008D2D880F8D0D8F87908D990F980F808981
:1039D0008F5F282F220F820F890F8F879789990F6A
:1039E000980F9F878589980F9F878489980F9F8755
:1039F0008689880F980F9F87F28CFF0CF90EFF863F
:103A0000C8010E94B4181F2D180F1F87ED2CF12C30
:103A1000FEE8EF0EF11CC7010E942E34811748F01A
:103A2000888BDF91CF911F910F91FF90EF90DF90E6
:103A30000895188B612FC701DF91CF911F910F91CE
:103A4000FF90EF90DF900C9436340E94F835CF92BF
:103A5000DF92EF92FF926B017C01C114D104E1046B
:103A6000F10441F00E94D633A70196010E9456341A
:103A70006B017C01C701B601FF90EF90DF90CF9002
:103A80000895CF92DF92FF920F931F93CF93DF930E
:103A9000EC018B016B0184E1C80ED11CFB01F184A8
:103AA000F0948085F8228E85813009F45BC058F04F
:103AB000823009F4B9C0DF91CF911F910F91FF902F
:103AC000DF90CF900895EF85E13108F5F0E0E25600
:103AD000F34E649170E0F801868197810E94B934B9
:103AE000892B49F766E070E080E090E00E94271D96
:103AF0006F5F7F4F8F4F9F4F688B81E1F3FC42C018
:103B00008F858F5F8F87F80117821682D4CF8889BF
:103B1000853090F0F3FECFCF87E08F8781E08E87EE
:103B200066E070E080E090E00E94271D6F5F7F4FAD
:103B30008F4F9F4F688BBFCFFB01838992E081112C
:103B400001C091E0F8018689890F9927991F8B3070
:103B5000910514F08AE090E0F801868B1F8682E0E0
:103B60008E87A9CF9F85992379F066E070E080E089
:103B700090E00E94271D6F5F7F4F8F4F9F4F688B94
:103B80008F8581508F8797CF898BC6010E94B4188B
:103B9000823028F08889853010F487E0888BE889A6
:103BA000E53089F1C0F4E13030F51F8682E08E8780
:103BB000F801838992E0811101C091E0F8018689C2
:103BC000890F9927991F8B30910514F08AE090E0B6
:103BD000F801868B70CFE63011F1E73031F7F8014C
:103BE000868990E002968B30910514F08AE090E08F
:103BF000F801868BDACFE150FF0BE00FF11F838DC8
:103C00008F5F838FD2CFF801848990E00196863050
:103C1000910514F085E090E0F801848BC6CF62E056
:103C2000C6010E945419C1CF8F85863410F48F5F6E
:103C30008F87F3FE40CFB601C8010F960E94171977
:103C4000F80180A738CF0F931F93CF93DF93EC0138
:103C50008B01AB014C5E5F4FFB013F96DB01199678
:103C60009C911997909518968C91189798232E856A
:103C7000223009F46EC050F4222399F0213009F467
:103C800049C0DF91CF911F910F910895233009F41E
:103C9000D0C02430B1F793FFF4CF8EE098968C9388
:103CA000F0CF93FF0DC066E070E080E090E00E94EE
:103CB000271D6F5F7F4F8F4F9F4F688B81E18F87ED
:103CC000EF85E13100F5F0E0E55CF44E649170E0E1
:103CD000F801868197810E94B934892B91F666E0BC
:103CE00070E080E090E00E94271D6F5F7F4F8F4F54
:103CF0009F4F688B8F858F5F8F87D80117961C9297
:103D00001E921697BECF1F86F8011782168281E099
:103D10008E87B7CF892F887093FF02C096E49F8764
:103D20009F85963418F49F5F9F87ABCF882309F453
:103D3000A8CF9889D80158968C91891738F0BA0184
:103D4000CF010E941719F80180A79BCF1F8682E040
:103D5000DFCF8F858C3078F466E070E080E090E013
:103D60000E94271D6F5F7F4F8F4F9F4F688B8F85FE
:103D70008F5F8F8786CF9889933009F441C090F484
:103D8000913069F1923091F1D80157968C91579703
:103D9000882309F44CC017961C921E9216971F8612
:103DA00083E0B6CF953009F43AC0A0F1963061F7C0
:103DB00062E0CA010E94BD18D80157968C915797AE
:103DC0008823A9F150968C918A3030F4E82FF0E0E6
:103DD000EF5CF44EE4918E0FF801808BD5CF5596B1
:103DE0008C915597815055968C93CECFFB01868947
:103DF0008150990B97FD80E0D80156968C93C4CFE3
:103E0000FB0184898150990B97FD80E0D80154967D
:103E10008C93BACF61E0CA010E94BD18B5CFFB01F7
:103E2000818D823008F4B0CF8150818FADCF84E096
:103E30006FCF2F85263418F42F5F2F8722CF93FF63
:103E400020CF7DCFEF92FF920F931F93CF93DF93FD
:103E5000EC018B011E861F86188A86E0898BFB0188
:103E600080890E94FE1781113EC086E0898BF8018F
:103E700017821682818981113BC01E868DEF888B47
:103E800087E08F8786A38AE0E82E66E070E080E016
:103E900090E00E94271DF62E66E070E080E090E042
:103EA0000E94271DD801AF0DB11D90968C9190975F
:103EB000F801E60FF11D90A190969C9380A3EA94DF
:103EC000E110E3CFF80185898F3F79F48FE7888B84
:103ED00082E08E87158A118ADF91CF911F910F9111
:103EE000FF90EF90089587E0C1CF81E0818BF4CF00
:103EF0008FE7888B87E08F8781E08E87EDCFDF9219
:103F0000EF92FF920F931F93CF93DF938C01EB01FE
:103F10007B0184E1E80EF11C8A81873079F08830DA
:103F200009F473C0863009F045C088890E940D18D5
:103F300061E0680FC7010E9454193CC088890E9443
:103F40000D1862E0680FC7010E94541988890E9409
:103F50000D1893E0823008F492E08E89890F99273A
:103F6000991F8B30910514F08AE090E08E8B8A8D3A
:103F70008F5F8A8F66E070E080E090E00E94271DEE
:103F8000DC01CB010196A11DB11DD82EF801848F53
:103F9000C7010E94B418823030F0F4E0FD1518F02B
:103FA00087E0F801848FF801848D853021F168F471
:103FB0008130C8F486E0F8018687DF91CF911F91A8
:103FC0000F91FF90EF90DF9008958630F1F08730E9
:103FD00089F78E8990E002968B30910514F08AE083
:103FE00090E08E8BE7CF8150990BC80FD91F8B8D36
:103FF0008F5F8B8FDFCF8C8990E0019686309105A3
:1040000014F085E090E08C8BD5CF62E093CFCF9217
:10401000DF92EF92FF920F931F93CF93DF93EC0108
:104020007B0184E1E80EF11C9B01215F3F4FFB0106
:104030009185909580859823EE85ED30F0F48B0185
:10404000F0E0EB5DFF4D0C94CD34322032204F2058
:10405000C42076210C222B2243224F2253225622A7
:104060005622562293FF02C085E48D8F8D8D8634B3
:1040700020F48F5F863451F08D8FDF91CF911F91A7
:104080000F91FF90EF90DF90CF9008951D8E8F8558
:104090008E87F8011782168210928A00EECF82E096
:1040A000888B93FF1CC081E18D8FF12CF801808DEE
:1040B000F816A8F46E01CF0CD11CF60181A1811174
:1040C0000CC066E070E080E090E00E94271D6F5F0A
:1040D0007F4F8F4F9F4FF601648BF394E7CFED8DA9
:1040E000E13168F5F0E0ED57F14F649170E0F801CF
:1040F000868197810E94B934892B09F0BECFF12CBB
:10410000F801808DF816A8F46E01CF0CD11CF601D1
:1041100081A181110CC066E070E080E090E00E9417
:10412000271D6F5F7F4F8F4F9F4FF601648BF39476
:10413000E7CF8D8D8F5F8D8F178216829ECF8C89F2
:104140008630B9F08D898630B1F08E898630A9F03D
:104150008F898630A1F088E08B8B80E091E0F801B8
:10416000208D821770F4FE01E80FF11D91A38F5F7F
:10417000F6CF84E0F1CF85E0EFCF86E0EDCF87E0AA
:10418000EBCF83E08E8779CF95FF1DC08B89883078
:104190002CF02F89263021F487E014C0873029F4D1
:1041A0002E89263021F486E00DC0863029F42D8931
:1041B000263021F485E006C0853021F42C89263094
:1041C00009F484E08B8B96FF1DC08B8984302CF41E
:1041D0008C89863021F484E014C0843029F48D89E0
:1041E000863021F485E00DC0853029F48E89863033
:1041F00021F486E006C0863021F58F89863019F5D6
:1042000087E08B8B93FF39CFEB89E4300CF435CF0B
:10421000E830DCF0E83009F030CFF801408DFE01E5
:10422000749620E080E04217E9F09191913039F0E6
:10423000890F3381932F990F930F990F890F2F5F58
:10424000F2CF8730F1F688E0DCCF1D8E0E2E000C09
:10425000FF0B3497EC0FFD1F11A2808D8F5F808FB5
:1042600082E090CF9DA1911195E0D82ED90E898939
:104270008D19990B8F31910514F08EE190E097FD27
:1042800080E0898BB801CE010E944D14898981118B
:104290000CC0B801CE01DF91CF911F910F91FF901B
:1042A000EF90DF90CF900C947F1F1D8E83E0888B62
:1042B00088E08B8BDD2071F01E86C7010E94B41848
:1042C000811106C08E8D8111C4C085E08F87D5CE47
:1042D00084E0FCCFC7010E94B418811105C08E8D07
:1042E0008111BECF85E04ECF84E04CCF84E0888B37
:1042F00097FD02C095FF1AC08B89843034F0F80115
:10430000268D222321F083E010C0181674F4F801E2
:10431000238D21111CC0823044F0248D211119C03D
:10432000823019F0258D211182E08B8B892F8075C9
:1043300011F18B898330BCF4F801268D211142C024
:1043400087FF09C0838D882341F080E013C080E09F
:10435000ECCF81E0EACF181634F0F801848D882381
:1043600021F081E007C0813049F5F801858D88236F
:1043700039F182E08B8B93FF80CE8B898130D9F12C
:104380001CF58111ACCFF801838D8150838F898911
:104390008A50990B8F31910514F08EE190E097FDD2
:1043A00080E0898BB801CE010E944D148989882351
:1043B00009F46FCF84E0888B8AE0E4CE8830D4F6AD
:1043C00088E0D8CF83E0D6CF8230E9F0833009F09F
:1043D00086CF8CE08E87F801868D8150868F68E0CD
:1043E000C701DF91CF911F910F91FF90EF90DF9068
:1043F000CF900C946F198E8F89E08E87F801848D91
:104400008150848F3ACE81E08DA38BE08E87F801B6
:10441000858D8150858F31CE6A89F8018489681B2A
:10442000770B6333710514F062E370E077FD60E0B1
:10443000C7010E94BD18F8018789811104C081E07D
:104440008E8788E043CFB801CE010E944D1481E0F1
:104450008E8782E03BCF93FF09C081E0FB01838B15
:10446000B701C9010E941719F80180A78D8D863404
:1044700008F003CE8F5F8D8F863409F0FECD8E85D8
:10448000888B87E07FCE93FFF8CD81E0FB01838BA3
:10449000B701C9010E941719F80180A7FDCD93FF4C
:1044A000ECCD8EE0F9CF93FDDBCEE7CD93FD1ACFB7
:1044B000E4CDFF920F931F93CF93DF93EC018B0119
:1044C00082E08E878F87888B8FEF8B8BFE017496AF
:1044D000CE014896119213821486E817F907D1F796
:1044E0001C8E1D8E1E8E1DA2B801CE010E944D1481
:1044F000F80182818730B9F08830A1F1863049F522
:10450000F08866E070E080E090E00E94271DF60EE3
:10451000F394F394F98AF80180890E940D188F5F53
:10452000880F8A8B16C080890E940D18982F990FCA
:10453000990F890F865F898BF80180890E940D1879
:10454000E0E0853028F4E82FF0E0E258F14FE49104
:10455000EA8B82E08E878F87DF91CF911F910F9139
:10456000FF90089580898F5F880F898B85E0D9CF70
:10457000CF92DF92EF92FF921F93CF93DF93EC01E4
:10458000FB0111851095808518238E85823009F4F2
:1045900080C07B01833070F4882309F494C081309B
:1045A00009F43FC0DF91CF911F91FF90EF90DF9012
:1045B000CF900895833009F4A9C0843099F76B0136
:1045C000F4E1CF0ED11C8889811110C0ED89EC0F68
:1045D000FD2FF11D8289833009F4CDC008F0A9C0F8
:1045E000813009F4B7C0823009F4C0C0912F9870AF
:1045F00013FF02C086E4888B8889863408F452C091
:10460000992381F28D89C80FD11D8A89863008F0DF
:10461000C5C0B601C7010F960E941719F70180A700
:10462000C1CF13FF0DC066E070E080E090E00E9413
:10463000271D6F5F7F4F8F4F9F4F698B86E4888B5D
:10464000E889E131F8F4F0E0EE5AF24F649170E05D
:10465000F701868197810E94B934892B09F0A2CF96
:1046600066E070E080E090E00E94271D6F5F7F4F62
:104670008F4F9F4F698B88898F5F888BF7011782D7
:10468000168290CF188AF7011782168282E08E87F1
:1046900089CF912F987013FF02C086E4888B888998
:1046A000863418F48F5F888B7DCF992309F47ACFF5
:1046B000188A1E869989808D891718F083E08F8764
:1046C00071CF84E0FCCF88898C30D0F466E070E054
:1046D00080E090E00E94271D6F5F7F4F8F4F9F4FBC
:1046E0006B8B2FEF260F39F02A8B6F5F673028F422
:1046F0006C8B8889D7CF26E0F7CF81E08C8BF9CF00
:1047000081E08D8B8F858E87188A4CCF15FF05C071
:104710008D89882311F081508D8B16FF05C08D89FE
:10472000823010F48F5F8D8B13FF3CCF188A84E0AA
:10473000AECF843071F1853009F058CFFB01848908
:1047400090E001968630910514F085E090E0F70145
:10475000848B4CCFFB01868990E002968B309105CB
:1047600014F08AE090E0F701868B40CF62E0C6014A
:104770000E946F193BCFFB018589082E000C990B15
:1047800001968B30910514F08AE090E0F701858B5B
:104790002DCF62E0C6010E94541928CF88E03ECF99
:1047A0008F929F92AF92BF92EF92FF920F931F93BF
:1047B000CF93DF93CDB7DEB7A1970FB6F894DEBFE6
:1047C0000FBECDBF7C01FA01CB0119A2223008F443
:1047D0002AE08E010F5D1F4F822E912CB12CA12C4F
:1047E000BF01A50194010E948834F901CA016A3011
:1047F00074F5605DD8016E938D01232B242B252B3E
:1048000079F790E080E0109789F0FD010190002099
:10481000E9F73197AF014A1B5B0BD701ED91FC9192
:104820000280F381E02DB801C7010995A1960FB66A
:10483000F894DEBF0FBECDBFDF91CF911F910F91D6
:10484000FF90EF90BF90AF909F908F900895695C1C
:10485000D1CF462F50E070E060E02AE00C94D023E6
:104860001F93CF93DF93162FEC012296643660F4EA
:1048700063EC73E1CE010E949C141A3028F461ECC1
:1048800073E1CE010E949C14612FCE01DF91CF9184
:104890001F910C9429241F93CF93DF93162FEC01C3
:1048A00022966A3028F46FEB73E1CE010E949C14CB
:1048B000612FCE010E9429246DEB73E1CE01DF91BF
:1048C000CF911F910C949C14CF92DF92EF92FF92A4
:1048D0000F931F93CF93DF93EC017B0141E08E8513
:1048E000813009F440E0B701CE010E94091B8E859A
:1048F000882359F0813051F1DF91CF911F910F91B1
:10490000FF90EF90DF90CF90089500E021E049EB19
:1049100052E16FE070E088E190E00E94BD11F70184
:104920008681978166E470E00E94B93421E046EA0E
:1049300052E1873020F000E021E044E952E164E0F8
:1049400070E083E390E00E94BD11D6CF00E021E04B
:104950004CEF51E161E170E083E190E00E94BD1114
:1049600020E04BEA51E164E070E088E190E00E94D1
:10497000ED146E01F2E0CF0ED11C87E08B8789E148
:104980008E838F8310E1188764E871E1C6010E946D
:104990009C148FE58E838F831887F7016785660FD8
:1049A000CE010E944B24F70160896F5F862F880F2C
:1049B000680FCE010E944B24F701628D660FCE0175
:1049C0000E944B2485E28E838F8317E21887F701BC
:1049D000608D660FCE010E944B24F7016789660F38
:1049E000CE010E944B2486E48E838F831887F701C3
:1049F0006689660FCE010E944B24F7016589CE01BE
:104A00000E944B2486E68E838F831887F701648982
:104A1000CE010E944B24C70144960E94B418682F0F
:104A2000CE010E944B2483E18E838F8319E3188784
:104A30006EE671E1C6010E949C148AE28E838F8328
:104A400018876F85CE010E94302482E68E838F8383
:104A500018876889CE010E9430244AE567E370E038
:104A600083E190E0DF91CF911F910F91FF90EF9044
:104A7000DF90CF900C9435102F923F924F925F921F
:104A80006F927F928F929F92AF92BF92CF92DF925E
:104A9000EF92FF920F931F93CF93DF9300D000D03C
:104AA00000D0CDB7DEB76C017E836D83342EFB0161
:104AB000868197818F709927893008F4312CB12C29
:104AC000A12C5524539498E7492E4601F2E08F0E0D
:104AD000911C222423946D807E8083E0680E711CDB
:104AE00022FB992790F9998323FBEE27E0F9EA83CB
:104AF000F22FF071FB83822F81708C8321FBFF24C6
:104B0000F0F88FEF850D833009F4B2C008F077C05C
:104B1000813009F493C0823009F4A5C0ED81FE8193
:104B2000108DF60146824782A086612FC4010E9443
:104B30002924F6012186F6E05F1290C0CD80DE8048
:104B40008DEDA82E81E0B82E460184E0880E911CE0
:104B500010E00BE0F601838D882371F0F5014081B0
:104B60005181109FC001112420E068E370E0855955
:104B70009F4F0E94ED141F5FF601838D823070F00D
:104B8000F50140815181109FC001112420E068E3AC
:104B900070E085599F4F0E94ED141F5FFFEFCF1A01
:104BA000DF0A82E0A80EB11C8C149D0499F6ED81F9
:104BB000FE813396FE83ED836AE670E0CF010E94AA
:104BC0008A1565E770E08D819E8126960FB6F89470
:104BD000DEBF0FBECDBFDF91CF911F910F91FF9030
:104BE000EF90DF90CF90BF90AF909F908F907F908D
:104BF0006F905F904F903F902F900C948A15843067
:104C0000E1F1853009F08ACFED81FE811589FB81C4
:104C1000FF2309F486CF332009F483CFF6011186F0
:104C200025E01A3008F02AE0EE24E39407E0A5011D
:104C300067E770E0C3010E94AA1573CFED81FE8182
:104C4000118D8C818111E7CFF60146824782A086C3
:104C5000612FC4010E942924F6012186539499E012
:104C6000A90EB11C4ECFED81FE8117898F2DEACFA1
:104C7000ED81FE8114898981E5CFED81FE81168960
:104C80008A81E0CFCF92DF92EF92FF920F93CF9382
:104C9000DF93EC017B01FB01C680D78061E0C70197
:104CA0000E94221400E021E04BEB5CE170E060E048
:104CB00090E080E00E94BD118E85813009F474C0BF
:104CC00008F447C0823009F46CC0888929E0863036
:104CD00051F02CE0853039F0843021F489892AE0C4
:104CE000811101C028E08E85823021F441E08F855A
:104CF000863408F040E0B701CE010E943C258E8545
:104D0000823009F056C08989882309F452C08F8502
:104D1000863408F04EC0C6018F709927893008F498
:104D200048C088E08E838F831886E889E150F0E0E0
:104D3000EE0FFF1FED56FD4F60817181CE0102968F
:104D4000DF91CF910F91FF90EF90DF90CF900C9477
:104D50009C148F85813100F500E021E044EA5EE19A
:104D600060E170E08EE090E00E94BD110AEF2889BA
:104D70004CE25FE161E070E080E390E00E94691046
:104D800083E08E838F8382E088876FEA7CE1CE01A7
:104D900002960E949C1499CFB701CE010E9414166E
:104DA00094CF89898823C1F3B701CE010E944A16A6
:104DB0008CCFDF91CF910F91FF90EF90DF90CF904C
:104DC0000895AF92BF92CF92DF92EF92FF920F932E
:104DD0001F93CF93DF93EC016B01FB01168161E020
:104DE000C6010E94221400E021E04CE85CE168E288
:104DF00070E090E080E00E94BD1121E048E75CE1B6
:104E000068E270E08FE490E00E94BD1169E0E62E58
:104E1000F12C00E021E04FE55CE168E270E0C701C1
:104E20000E94BD11FEE0EF0EF11C8FE4E816F104C4
:104E300081F78E85823009F476C008F1833009F459
:104E4000AAC0843009F4D0C0E889F0E0EA54F44EF6
:104E500024918E85833021F441E08F85863408F0DB
:104E600040E0B601CE01DF91CF911F910F91FF90ED
:104E7000EF90DF90CF90BF90AF900C943C255E01F7
:104E8000E2E0AE0EB11C03E00E830F83088763E5FA
:104E90007CE1C5010E949C1482E48E838F83088785
:104EA000288943ED5BE162E070E083E390E00E94DB
:104EB000ED148E85813041F61F709F85963418F46D
:104EC000193008F019863889F601208D2317C0F0B3
:104ED000963470F4193060F0EE24E39407E02FE08C
:104EE00043E050E060E470E0C60103960E94AA151A
:104EF0006FEC7BE1C5010E949C1481E08987A4CFFF
:104F0000963470F4193060F0EE24E39407E02BE05F
:104F100043E050E060E470E0C60103960E94AA15E9
:104F20006CEC7BE1E7CF2F8548E06CE1C6010E9485
:104F300064148F858D30E8F410E0E12FEE0F2F859B
:104F400030E0D901A050BE4F8C91181708F07CCFEB
:104F5000205F3F4FC901880F991F00E021E04DEB12
:104F60005BE168E070E08E0F911D0E94BD111F5F34
:104F7000E4CFE889E150FF0BEE0FFF1FE758FD4F2C
:104F80004081518100E021E06AE070E08EE190E034
:104F90000E94BD1159CF20E048E06CE1C6010E949B
:104FA0006414E889E150FF0BEE0FFF1FE758FD4F37
:104FB0004081518100E021E06AE070E08EE190E004
:104FC0000E94BD1184E08E838F831886E889E150AA
:104FD000FF0BEE0FFF1FE359FD4F60817181CE0182
:104FE00002960E949C1430CF8E838F831886E889A6
:104FF000E150FF0BEE0FFF1FE359FD4F6081718100
:10500000CE0102960E949C1420E048E06CE1C601AB
:105010000E946414E889E150FF0BEE0FFF1FE75870
:10502000FD4F4081518100E021E06AE070E08EE1B7
:1050300090E00E94BD1120E04CE45BE163E270E08F
:1050400086E290E00E94ED14FFCE9F92AF92BF9255
:10505000CF92DF92EF92FF920F931F93CF93DF9344
:10506000EC017B01FB0116811F7060E0C7010E940B
:10507000221400E021E04AE456E170E060E090E0B4
:1050800080E00E94BD11EF85F0E0E95BF94E2491CC
:1050900041E08E85813009F040E0B701CE010E94E9
:1050A0003C25193008F44CC08F85813029F08230BE
:1050B00049F012E2F12C03C01FE384E2F82E00E372
:1050C000C0E004C01FE3F12C07E5C2E3902E9C1A58
:1050D000E12CCF2CD12CD0E040E0B601CE018E0DDA
:1050E000911D0E944715E394E3949E14A8F7E12CC8
:1050F000A12EB12C40E0B501CE018E0D911D0E9474
:105100004715E394E3949E14A8F71F19F12CB601F8
:105110006F0D711D40E0CE010E944715F394F3948A
:105120001F15A8F7F12CC02FD0E0B6016F0D711D2F
:1051300040E0CE010E944715F394F3941F15A8F7A1
:10514000DF91CF911F910F91FF90EF90DF90CF9063
:10515000BF90AF909F900895EF92FF920F931F938F
:10516000CF93DF93EC017B0161E0C7010E94221421
:1051700000E020E047E056E170E060E087E290E088
:105180000E94BD1121E04CEE54E170E060E087E246
:1051900090E00E94BD11F7018681978162E370E083
:1051A0000E94B934843038F447E06BE070E08AE361
:1051B00090E00E94351043E36CE370E083E290E0FE
:1051C0000E94351003E210E041E06EE370E0C80198
:1051D0000E9447150E5F1F4F09351105A9F704E21C
:1051E00010E041E06FE370E0C8010E9447150E5FD8
:1051F0001F4F08351105A9F78E8545E354E1882333
:1052000031F045EC53E1813011F050E040E000E036
:1052100021E061E070E082E090E00E94BD116F85C6
:10522000F8E06F9FB0011124695F7F4F20E049EEE5
:1052300054E182E090E00E94ED146F8588E0689F61
:10524000B0011124695F7F4F20E049EE54E181E213
:1052500090E00E94ED1488898823C9F00AE120E4D7
:1052600047E16FE1C7010E94CB1584E28E838F83F3
:105270008CE18887E889E150FF0BEE0FFF1FE35BAD
:10528000FD4F60817181CE0102960E949C14298994
:1052900041E0B701CE01DF91CF911F910F91FF90B7
:1052A000EF900C943C259F92AF92BF92CF92DF92E9
:1052B000EF92FF920F931F93CF93DF93EC016B015B
:1052C000FB0116811F7088A19EEF980FEE24E394D6
:1052D000923008F0E12C9F8D9F5F943008F0E9C078
:1052E0009F8F61E0C6010E94221400E021E046E5A4
:1052F00051E170E060E090E080E00E94BD1101E0CB
:1053000020E04CE351E16BE170E087E590E00E9422
:10531000BD1100E021E040EF50E163E170E08AE27E
:1053200090E00E94BD1101E021E040EF50E163E117
:1053300070E085E490E00E94BD11F12C5701FFEF71
:10534000AF1ABF0A21E04DEB50E1B50181E290E0D8
:105350000E94BD11F6018281873009F0B2C028E7B2
:1053600030E142E850E1B601CE010E946F1800E042
:1053700020E04CE550E1B5018EE590E00E94BD11C2
:1053800021E04DEB50E1B5018EE590E00E94BD11AA
:105390008E85811113C0193088F029891986C601BC
:1053A00003962A3008F0B2C025E0EE24E39407E02B
:1053B00042E050E064E170E00E94AA157E0182E0C4
:1053C000E80EF11C05E10E830F8382E0888769896E
:1053D000C7010E94292481E089870E830F838AE018
:1053E00088876A89C7010E9429248E85843019F034
:1053F00088898430E9F400E021E043E65FE063E17E
:1054000070E090E080E00E94BD115601EBE1AE0E2D
:10541000B11C07E145E1942E9E829F820887F50129
:1054200061915F01C7010E942924065F0F33A1F734
:105430008E858250823020F08889833009F06AC0DE
:10544000F60180890E940D18F6019281973009F0CB
:105450005FC095E0890F90E0FC01ED5BFD4F20817E
:10546000220F220F2A5E33E03E833F832887880F76
:10547000991FFC01E15DFD4F60817181C7010E94B0
:105480009C1400E03AE0B32EF601808D081708F076
:1054900041C0FE01E00FF11D0B9DC00111242489C4
:1054A00043EE5EE064E370E003960E94ED140F5F4C
:1054B000EBCF1F8E8F5F853010F488A312CF18A218
:1054C00010CF30E020E04FE250E1B601CE010E9463
:1054D0006F18F2E1EF0EF11C00E020E049E150E12D
:1054E000B70189E490E00E94BD1101E020E049E1AC
:1054F00050E1B70186E590E00E94BD1100E021E097
:105500004DEB5FE0B70189E490E040CF2AE04DCF5A
:1055100090E0A0CF8B89883011F4193098F08E85F7
:10552000833009F0D1C0F601808D9AE0899F802DEB
:1055300011248D5F20E04DED5EE065E370E090E0CA
:105540000E94ED148E858350823048F4193038F46F
:105550008B8987FD04C0843034F188309CF18E85BE
:1055600020E0813039F480E2193008F480E0809343
:105570008A0022E041E0B601CE010E943C258E85E2
:10558000883038F5863008F053C08130D1F1DF9192
:10559000CF911F910F91FF90EF90DF90CF90BF9030
:1055A000AF909F9008956AE0869F602D11246A5EF7
:1055B00083E070E003E020E047EB5EE090E00E94D3
:1055C0006910CDCF9AE0899F802D1124855264E324
:1055D000F0CF8830C9F08D30D0F600E224E641E10A
:1055E0006FE0C6010E94CB1584E18E838F8385E135
:1055F0008887EE85E950FF0BEE0FFF1FE75EFD4F3A
:1056000044C08F85883019F620E04CE45BE169E105
:1056100070E086E290E0DF91CF911F910F91FF90B3
:10562000EF90DF90CF90BF90AF909F900C94ED14CF
:10563000873079F0F601828121E0873029F48C8D62
:1056400029E0853009F42DE041E0B601CE010E9449
:105650003C25F60182818730D9F40AE128E547E14B
:1056600064E1C6010E94CB158AE18E838F838CE1B1
:10567000888761EA7EE0C7010E949C14EC8DE150AE
:10568000FF0BEE0FFF1FEF5DFD4F608171810EC0BC
:1056900002E12CE348E162E2C6010E94CB1588E2F8
:1056A0008E838F838DE1888764E97EE0C701DF9177
:1056B000CF911F910F91FF90EF90DF90CF90BF900F
:1056C000AF909F900C949C14843009F03BCF8AE1FA
:1056D00031CF9F92AF92BF92CF92DF92EF92FF9223
:1056E0000F931F93CF93DF9300D01F92CDB7DEB7F8
:1056F0009B838A836B01DB0116968C918F70898363
:1057000064EFE62EFF24FA9400E021E04EE45EE030
:1057100060E370E0C7010E94BD11B4E1EB0EF11C23
:10572000E8E5EE16F10481F761E0C6010E9422145B
:105730000BEF20E049E45EE068E370E090E080E099
:105740000E94691020E044E45EE068E370E085E5D3
:1057500090E00E946910AA81BB811E961C911330B3
:1057600008F060C0113008F490C0AA80BB80B2E09D
:10577000AB0EB11C13E0EA81FB81168317831087FF
:1057800067E27EE0C5010E949C1487E4AA81BB8188
:1057900016968C93169717968C93179718961C93BA
:1057A000189751962C9147EA5DE062E070E088E33B
:1057B00090E00E94ED14EA81FB8186858230C1F57C
:1057C00080898634D8F4F981F930C0F0AA81BB8190
:1057D00051962C91519719961C92C6010396F60189
:1057E000308D321708F4F1C02FE0EE24E39407E087
:1057F00043E050E065E470E00E94AA15AA81BB81F5
:1058000051969C91F601808D891708F4E0C063EAF7
:105810007DE0C5010E949C1481E0AA81BB8119969C
:105820008C9306C0133009F4DCC0143009F439C17C
:10583000AA81BB815596EC915597AE0FB11DFD0124
:10584000E28920E0E63020F4F0E0ED59F24F2491B7
:10585000EA81FB818685843021F441E080898634A9
:1058600008F040E0B6018A819B810F900F900F9065
:10587000DF91CF911F910F91FF90EF90DF90CF902C
:10588000BF90AF909F900C943C255601B3E0AB0EB7
:10589000B11CEA81FB818785833019F5E12C00E298
:1058A00020E24FE050E062E070E0C5010E94AA15DE
:1058B00020E24FE050E066E370E0C5010E94AA15C7
:1058C000AA81BB8150962C914FE062E0C6010E94F4
:1058D0006414EA81FB8120894FE066E3C6010E94DF
:1058E0006414E12C00E22EE148E050E06DE170E04C
:1058F000C5010E94AA15AA81BB8150962C9148E04F
:105900006CE1C6010E946414EA81FB8180898D30BC
:1059100008F046C010E0E12EEE0CAA81BB81509643
:105920008C91509790E0FC01E050FE4F20811217BF
:1059300008F07ECFF12C1F962C912330E9F40396CA
:10594000880F991F00E021E045E35EE06FE070E022
:105950008E0D9F1D0E94BD11EA81FB81808990E020
:105960004D96880F991F21E045E35EE06FE070E0FF
:105970008E0D9F1D0E94BD11AA81BB8150968C91F6
:1059800090E04096880F991F00E021E045E35EE03B
:1059900068E070E08E0D9F1D0E94BD111F5FBBCFA0
:1059A000AA81BB815396EC91E150FF0BEE0FFF1FD4
:1059B000E35FFD4F4081518100E021E06AE070E04B
:1059C0008EE190E00E94BD1133CF2BE00ECF60EA54
:1059D0007DE0C5010E949C1481E0EA81FB81818702
:1059E00027CFF12CE12C93E0B92EAA81BB815596EB
:1059F0008C915597F701E950FE4F8B9DE00DF11DFD
:105A000011249080892D90E0FC01EC50FE4F108114
:105A1000FC01EF50FE4FA0808A0F9B1FFC01028902
:105A2000212F4A2DB601CD010E94CB18F981F93002
:105A300080F0AA81BB8155968C9189110AC0612F93
:105A400070E000E020E049E65DE08A2D90E00E94F1
:105A5000BD11BFEFEB1AFB0AE3E0EE16F10429F6E5
:105A600084E0AA81BB8116968C93169717968C9327
:105A7000179718961C9218975596EC915597AE0F5C
:105A8000B11DFD01E289E150FF0BEE0FFF1FEB514D
:105A9000FE4F608171818A819B8102960E949C14D5
:105AA000C7CEAA81BB815596EC915597AE0FB11D1B
:105AB000FD01028928E04CE1B6018A819B810E94A8
:105AC000CB18EA81FB81168317831086DF01D4CFC0
:105AD000AB01770F660B770B2AE00C94D0232F9243
