:100000000C94E30F0C940B100C940B100C940B102D
:100010000C940B100C940B100C940B100C940B10F4
:100020000C940B100C940B100C940B100C940B10E4
:100030000C940B100C940B100C940B100C940B10D4
:100040000C940B100C940B100C940B100C940B10C4
:100050000C940B100C940B100C940B100C94562A4F
:100060000C940B100C940B100C940B100C940B10A4
:100070000C940B100C940B100C940B100C940B1094
:100080000C94EA290C940B100C940B100C940B108C
:100090000C940B100C940B100C940B100C940B1074
:1000A0000C940B100C940B100C940B10C232DF321A
:1000B000FC32193334334F334F334F33D5336C3332
:1000C00089339E33B933B9333F1E3F1E531ECA1EB8
:1000D000931F32204D2063206D20752078207820DA
:1000E0007820D5F08D14A1C881CFD9F1AF20005070
:1000F000697420202020207E2D327E48502C7E2BBB
:1001000046616C6C004D6F76696E677E57616C6CF2
:1001100073202020202D317E585000537072696E5C
:10012000677E426C616465202020202D317E48501E
:10013000005275737465647E41726D6F7572202014
:10014000202D317E415200547269707769726520AA
:10015000202020207E2D317E476F6C64004D696C1D
:10016000646577202020202020207E2D317E466F60
:100170006F64001B9F7B15000098C007C64BCD81A4
:10018000FBF81630010080AEFB01000000000042C9
:1001900078CE60D8C9396E0E7C8110000000000056
:1001A000383C590013008003378EDCC02B47E098A1
:1001B000A7DC3800003001D6A7B9722C5C80734EE2
:1001C000E3C8EF011BDF178738557CCD62B317EC0E
:1001D00075D9739E780A822E10CB0B5BC418113F21
:1001E000C04891CC4B6F0513307C03C4A1206A79C1
:1001F000C3027583DFC9C8A98B299429D4F205F1FC
:10020000505CFE021F70895C3902D79C809F011BE5
:100210009F872CC86488B840445822C212F100C29B
:100220000572E47B22D45804F12E8661848ADF644F
:100230003980051458A0C2021516A8B040853203B3
:100240002B6FC0C10215169BC566B131B0596C0445
:10025000606360232194450C8B812C42F9253EE09C
:100260001239721CA7FC1C1B9F0FC0F0007C033EC0
:10027000502F826E110E5C8427E3065E224F61ECE4
:10028000086C306C67C76690A8080E4592305C54C5
:10029000CE84B0D553E46DCEC0C93BB099286E0072
:1002A0004E8C4A18C85637F080CD91F07DAE1C3187
:1002B000175E70249C809F031B9FAF91458D0E5845
:1002C000125C0220B120242008820208A0113146CD
:1002D000C468901BF2491426CCBD0538F28050A4A6
:1002E000049475E9171CE0F0B9885BC42DE216711F
:1002F0002B92148003145452009A82AEC20DDC2259
:100300006E117F8A0FB8448E9E10B88C5F031BDF7E
:100310006F43600904661E87C01208CC3C0E81251D
:100320001098F9093CA43CEEA5705807C29527DC4B
:10033000289F61B180052A2C08C802221840020BB0
:1003400082B0608101244001284880C502032C60EE
:10035000B1F8093EE012B972EA715C8227BF0B1155
:1003600097CF801B78E4390FB8019FC981087BBE05
:10037000CD91A30017FE4211D767CE9C7DCE63E4DA
:10038000C8438EC03527E0CC31772F80FC91001117
:10039000D7776FC20D7CCDEB7C5339303879E79835
:1003A000075C227F2411D777E49263E42DAFF345F5
:1003B000CC695C903BC73CE012F9230111D7778EE2
:1003C000E00D78CEEB7CB427C88D3BC73CE012F93A
:1003D000230111D70FB87A045EF33A9F849C841BE3
:1003E00070E798075C227F2411D70F380247E03569
:1003F000AFF34DE5623879E798075C227F244F70B0
:10040000656E7E63686573743A0A596F757E666FB0
:10041000756E647E676F6C647E6F6E6C7921004FC1
:1004200070656E7E63686573743A0A476F6C647EAC
:10043000616E647E747265617375726521004761D7
:10044000696E7E327E476F6C647E5069656365734A
:100450002100557067726164657E796F75727E5791
:100460006561706F6E210020204761696E7E616E4C
:100470007E41726D6F757221004761696E7E617E8B
:100480004865616C696E677E57616E6421004761E3
:10049000696E7E617E506F69736F6E7E57616E64A8
:1004A0002100204761696E7E616E7E4963657E57DB
:1004B000616E642100204761696E7E617E466972CB
:1004C000657E57616E64210001050506000503067F
:1004D0000004020500030103098F972C20845C7F30
:1004E00030098F97AC64E47A012088FC2E098F0EC6
:1004F000473EFFDCAB57AF00132A4A600F170E0BC5
:100500009987D94DDB8D39A8277E0127F510D96D44
:10051000D31D1907389D0E700093CDE46731590C37
:10052000A0E070381CD7876301188E4EC41E8185E9
:10053000081C9D40FB2B861CC8383A9178ECE65885
:1005400039241C7A34C8EA6DFC94217BDC0CB27A25
:100550006B383B11C6AF18B2C7CD800B388ED300B5
:1005600045DF7FB0EBDA1D8E7D71DEA7F33EBDEC7B
:10057000B65E5F5CFF68F6D65B57D204D35B4F3341
:10058000E7398E5ECD8E578F635E3B4FB93A1B3392
:100590006BC770B477BC7A752E0ED3AB57B9335690
:1005A0006FBD35C134A31D303F34BAE8173267E65A
:1005B0002D5767633ABDE6B4733B8CA3575312AF14
:1005C0005E33CF5D47AF7497ABC7319E7D2ACB8C2E
:1005D0007568F80E67169BC5E6CC6739B3D82C361C
:1005E0008B339B574C208191C13B1667368BCDE2F4
:1005F000CC6739B3596C1667BE4108020202020388
:1006000003030303030101010101010101020202CD
:1006100002040404080834100000F804C4A464A40C
:10062000E4C40404046484640484448404C404C4EA
:100630000404E424C404A404844484048444E4043A
:100640000404C4E4A464A4C404F8000000000F106F
:10065000101311131110101010101310101112118B
:100660001011121110101312111013101113121077
:10067000111213101010101113111310100F00008D
:1006800000100804020102011F2020010140001097
:100690000004002108084E6F005965730009090025
:1006A000FEFEFEFEFEFEFE00000000000000000058
:1006B00000FEFFFFFFEFFFFFFFFE00010101010150
:1006C000010100FEFFFBFFFFFFBFFFFE0001010174
:1006D0000101010100FEFFBFFFEFFFFBFFFE000174
:1006E00001010101010100FEFFBBFFFFFFBBFFFE97
:1006F000000101010101010100FEFFBBFFEFFFBB93
:10070000FFFE000101010101010100FEFFABFFFF3F
:10071000FFABFFFE0001010101010101004576610F
:1007200064657E747261703F008DD73DF13EF3F0D9
:10073000AD7BB3673E7630714E0781B2F2398E8160
:100740002E0489D73DF1B1C3E5DCECB91E5F1D0471
:10075000CAF2CE91303609973BF3F031E6F73277A3
:100760007A231C799E45210C01010101010101013F
:100770000202020204040408084F70656E7E63687A
:100780006573743A00D7BF1EF9EF1347FFCF169C6D
:10079000BD7AF5CFC199AB675EF3E7F0EAD5337F59
:1007A000E6A56B0900108811021638124E841361F9
:1007B0008E70A1040C658E70229C403995430C000C
:1007C000000027F582DC908C498910CA858C22377D
:1007D000E4863C002A048C810000B896AE1F1E40BF
:1007E000200610488C400C201015046200811880EF
:1007F000BDF7DE07D6426EC80DB971D82720800636
:10080000B8EC2B72436EC80DB92137E4865CF7054E
:100810008802014EFBC00DB92137642D0E7BEFBD60
:1008200001620081A820100308C400C604108801DA
:1008300004728E17402E085C2817EA8172C1762454
:100840006314E8025C3414192CE486DC38EC1310D1
:1008500040035CF615B92137E486DC901B7243AE89
:10086000FB02448100A77DE086DC90C5404ACA12A5
:1008700058053A46325AB9500E960B2017CA0581D0
:100880008B593BDF4F982008140C000501000A0625
:10089000808201A060002818000A06808201A06002
:1008A0000028180082868008411121888204519016
:1008B00000123000140C00050340C1005030001439
:1008C0000C00050340C100501000A0600028200863
:1008D000934FEE0D00040000101058206B0A37E112
:1008E00026DC849B70136EC24DB80937E126DC8488
:1008F0009B70136EC24DB80937612C328100000025
:10090000000000B0F7EFD81B0000000000386C3981
:1009100073E6CC993367CE9C3973E6CC993367CEB6
:100920009C3973DC07000000000060EFAF122E0C52
:10093000DAC500A40A882860400B02A20006154010
:100940004840B0E01882E004CC8EDDD46DB352672D
:100950001D290882204409C4A0200882203846CDE1
:100960008E21424C80500406AB6570215C013B97A0
:10097000FFC0EFF3304FB4A86C54362A27E7201B92
:10098000480002C439C809958DCA4665A3B251D939
:10099000A86C544E614C03042001761853D9A86CFE
:1009A00054362A2DA779987716B206087480C01499
:1009B000045800022C000116807001810E100608F8
:1009C000081710E800011680000B0AB00004580058
:1009D000022C28C00210600108A380700101618010
:1009E000300A081B40800520C002106001084E40FC
:1009F000180584B19005090900FEFEFEFEFEFEFE0C
:100A000000000000000000000000FEFFFFFFEFFFFD
:100A1000FFFFFE000101010101010100FEFFFBFFDC
:100A2000FFFFBFFFFE000101010101010100FEFF08
:100A3000BFFFEFFFFBFFFE0001010101010101000B
:100A4000FEFFBBFFFFFFBBFFFE0001010101010133
:100A50000100FEFFBBFFEFFFBBFFFE000101010134
:100A600001010100FEFFABFFFFFFABFFFE00010134
:100A7000010101010100207E596F7520616C7265D2
:100A80006164790A206861766520656E6F756768B4
:100A900021007E596F7520646F6E742068617665E1
:100AA0000A206F6E6520746F2073656C6C210020C6
:100AB0002020596F75206E6565640A20206D6F7265
:100AC0006520676F6C6421000D0F9725132A54264B
:100AD0004626512645E6BACF0903183061C0840185
:100AE00013064C98070D0F93A62C0C1801144440C4
:100AF000044031C1849DED5407D40000430506B085
:100B000050056A203054260D8F4B9D34128C05E120
:100B100002428D0453A6BA46D9428000610D90224C
:100B200040164980809B0E0D8F0F09259409260BD6
:100B30002C8B20E12B710DC3258E15B998357200D1
:100B40000DCF6FA1B00181DD130CF8A6270607F4C5
:100B500042042880E10D0D8F8F0499A0818282507C
:100B60009830493E3A064304415246C2913B0DCF6C
:100B7000274919AA40A30205D414501D34F866D49D
:100B80001128A8000540000AA04221C38E030DCF02
:100B9000A76494F01AC0AB5200441F05201428A18A
:100BA00000D83084C1CCAD47003A7E53756E6B657A
:100BB0006E7E4B6565707E6F667E4F6721003A7E64
:100BC000466C616D696E677E556E646572776F7293
:100BD0006C64003A7E556E646561647E4361746145
:100BE000636F6D6273003A7E506F69736F6E6F75DD
:100BF000737E44756E67656F6E73003A7E546865E8
:100C00007E426C61636B7E536577657273000A0088
:100C10003000300030001FE737168F9005205E9DB2
:100C20004280D3388D576C54368BCD62A3B291B0CD
:100C3000597C4F00590AC814DE02021B782D4075FA
:100C4000C8C316156448FB6900748AB801780B089C
:100C50006CE0B500D5210F5B549021ED77A94034AD
:100C600010A2F53120B081D70254873C6C514186E7
:100C7000B41FAF4C2687BC050436F018290B017C45
:100C8000D7B240C6EC3B1FFF37166F860A00A05C48
:100C9000B2585E5360F5119B209BC566B151D9488F
:100CA000D82C3E40721943F716F02120B0812F2036
:100CB000C1519EB5A82043DA8F4B455450968F0101
:100CC000810D7C01514779D6A2820C693F987959F0
:100CD0004D9642DE01021B788C1415017CD7A2824E
:100CE0000C69BF2D802C05640A6F01810D3C1640F4
:100CF0005404F05D8B0A32A4FD34003A45DC00BC9C
:100D0000050436F058005111C0772D2AC890F6BB63
:100D100054201A08D1FA1810D8C06301444500DFE6
:100D2000B5A82043DA8F57269343DE02021B785C76
:100D30009085C4772D0B64CCBE0301087E3F3F3FF6
:100D400097E160B1584C16938900069000124AA8AA
:100D5000D3E9BF3213F3BDACB6110401527098B0A1
:100D600000800238A06BACFC3361B1582C9A2FC6BE
:100D700035130800010000200024C0C4D90014006D
:100D8000100058309C2B2B23CBC99FD4818466F153
:100D9000FBD86C764042D0101A1028410214400053
:100DA0001000040001400010001080021800832988
:100DB000445D197FB87D66B3D96C369BC962B25861
:100DC0002CD67EEC000A8010A66C4A284120080828
:100DD0008004519120000220000200F39EF197DA76
:100DE0003F7BD706102820903ABC8E9D974001404B
:100DF00000100004000140001000040001C039D9B7
:100E00001F630125888A08000411D1120A2C3EB202
:100E10007FF7868083C567E7E62150004000100019
:100E20000400014000100004000160EF8E0F030079
:100E300002E064B23F9B1F9F1F978FB0596C169BB7
:100E4000C566B1B9E6C06432335A700210015C2E37
:100E5000974C0AB6ED600107BFFF7FC69CE63CF9E0
:100E6000EFE1EFEEE18FFF6FE2B04EF973FE33CAB0
:100E7000E94FF5EF2AE3EFF3EFEB0B1CC218479EA7
:100E8000E734131EFF23FBE477BFF7EF2C97755968
:100E9000977C7C5D1610705110020157BFCC95AB4A
:100EA0000E01DDD62058B73508D66D0D2EBD7AF56A
:100EB000EAD5AB57AF5EBD7AF5EAD5AB578F320FA7
:100EC00073E5EAD5AB57AF8E51AF5EBD7AF5EAD583
:100ED000AB57AF5EBD664DF613660647640CB9733B
:100EE000481DCDE850987EC0230017100E50D83012
:100EF00060C18205290B162C58304139F99DBDF788
:100F0000F7BCC8AA6308E7BFDBFD5B08C2008482A8
:100F100010203080020B10994CA0C0120457804A58
:100F2000CA905C2417C94572918C0D47E032C22CDF
:100F30000C98F3037BEFEF6D00E0B0DF3D1C05CEB6
:100F400006991E5BCE4C00C8D5090ABCBD7F163879
:100F5000017202AE5EBD7A056E840302B20080505B
:100F600004004402000808004014008028056A00BC
:100F700000500000000181E1EAFBBDF7F736ACBD8F
:100F8000DF3D616670453A168F80C1046E2D30F9E1
:100F9000D425510CB0800212A0800428B080020B2E
:100FA00028B080020B2820010A2CA0C0020A2CA025
:100FB000C0020A2CA0C0020A2CA0C0020A2CA0C0A9
:100FC000020A2CA0C0020A2CA0C0020A0C1193BD78
:100FD000EF5CBDCFC33C5C9D9BAB7F9EFBBB960192
:100FE0003D1A4401201C1C042102B3E6A98618689E
:100FF000C010FD3613280CC43104EACFD87BBFE300
:10100000382EE16004B08230060827E0CF747FC735
:1010100031772F80BCED61DE98C045684770D4E021
:1010200005387729586073C09281C2AD4106584295
:10103000D727F6DEDF130600100622410140E17BD0
:1010400003B7089020621772436EC80DB92137D8D4
:10105000673C7AF5EAD5AB57AF1E8C0AA0AA50556B
:1010600029AA22A02A45D5881A6559698C4254912B
:10107000AA49353B760CAF5EB3E661E2D1AB575778
:101080008635D412868BE9D5AB57AFCED4626A577A
:10109000EDAA5DB5AB364B2600000101020202034A
:1010A00003030404040404139F0700C2993367DE9A
:1010B00072E6CC9900F00200F8FD00C00B00E0F7EA
:1010C0000300AF8070E6CC99779C397326C011017C
:1010D00002020304040517082417082417FF13133A
:1010E000273B3B4F09C7E6AED9D1BB2320180907E0
:1010F00037474696A72C21815A17F74F9120410672
:101100003290B74081DF0A1C0870EB06C24340E012
:10111000771B61964E9F83F0BB0BBA2861F539F2BD
:10112000D3134A601DF28EE5E27732192DD28CBCC2
:10113000E7C6EFEB2DA775115F0317E077010D0FE1
:101140000CA4C0400A0CA4C0400A0CA4C0400A0C65
:1011500078C1993367CE9C79048D8F119225244BE9
:101160004896902C215942B204762EEBB22EEBB267
:101170002EEBB28E4D9F7FB0CCCB1AE4670E72E09F
:10118000377008E3C8218CFF29D62D3D711C7028CB
:10119000C0AD5B942317081EB940F05BDDD213C7C6
:1011A000BD591C73E92567C90E3EF7808183C7C20C
:1011B0006D7D6AEC710ADE24B76EE989E3C08D00AB
:1011C0004D6F6E7374657220202020202020207EB9
:1011D000357E444D4700466F756E647E5368696581
:1011E0006C64202020202B317E41520057686574AA
:1011F00073746F6E652020202020207E2B327E5855
:101200005000466F756E647E4D656174202020200D
:101210002B317E466F6F64004865616C74687E5048
:101220006F74696F6E2020202B327E485000466F0D
:10123000756E647E4C6F6F74202020202B327E47A9
:101240006F6C64001B1F3F8BC562020318C060B344
:10125000F94BEC73133184014409A627F7FA112CDA
:10126000168BC9024A58C0A20409252C4A5894205A
:10127000A1844510085260B1D96CFED21B9FDF6477
:101280006472451C9B27AD02A584F49772CF46106B
:10129000162C5860848211162C5820C8CE9DDF0170
:1012A0004C0000000046669220D481640519162483
:1012B0004966060000000013F87D7CCDAFF17D1B70
:1012C0005FEF79C1CAE218080081BC01160BB8753E
:1012D000008B1B3F8E23A7B5194802008041008474
:1012E00075E5017F81FD0E0004000400E69F8BC5BB
:1012F00062028BCDEF021B9F9F62667044C6903BDB
:1013000087D4D18C0E85E92FE8040240A5820242E1
:101310005400105480408C131800006C013760603A
:1013200001411622B20865F16C954013002A062887
:1013300088A110D9102155B0414D6A00005000001D
:10134000000D000081041184F1433C2237E4D61BD8
:1013500072EB0D3CFA391B9F3F9C1B72E6D75092F3
:10136000580E1A045021D30A384B03C445E93ACC2D
:101370004119842377AEFCB206D04A2E3442182895
:101380008380250B76B1D00FF5D65B6FBDF5861C3B
:101390003D0AB7DE7A046EBDF50A1B9F5FE69070CA
:1013A00054168072ECA02274D11FE56C7CE369CEE8
:1013B000001D0B48175D614C1827E4211FE559D724
:1013C000918DC090C2000D4C89C003E0B2584039E5
:1013D000E66772CDAD47BF9E237700080210010477
:1013E0001F1F2700E0CC993367CE9C3973E6CC9958
:1013F0003367CEDC01780100FC7D01801700C0DF7F
:1014000017007801C09D3367CE9C3973E6CC9933C1
:1014100067CE9C390300274E6F0059657300090998
:1014200000FEFEFEFEFEFEFE0000000000000000CA
:101430000000FEFFFFFFEFFFFFFFFE0001010101C3
:1014400001010100FEFFFBFFFFFFBFFFFE000101E6
:10145000010101010100FEFFBFFFEFFFFBFFFE00E6
:101460000101010101010100FEFFBBFFFFFFBBFF06
:10147000FE000101010101010100FEFFBBFFEFFFC2
:10148000BBFFFE000101010101010100FEFFABFFF6
:10149000FFFFABFFFE000101010101010100456EEC
:1014A0006F7567687E736B696C6C3F00011F20204D
:1014B00001014000100004002108080308804020BA
:1014C0000308204080938F003180A006108801041B
:1014D00062008118402011108801046200811840C8
:1014E000200658940BE542298372A15C2817CA850F
:1014F0007AA05C2803030507090C01010101010121
:101500000101020202020404040808596F757E7585
:101510007365647E617E6865616C696E677E7370F9
:10152000656C6C2E0A2020207E596F757E6861766E
:10153000657E6761696E65647E380A202020207EA2
:1015400065787472617E48507E706F696E74732E18
:10155000007E596F757E757365647E617E706F69FC
:10156000736F6E7E7370656C6C2E0A20207E4465EE
:10157000616C7E327E65787472617E64616D6167D4
:10158000650A202020202020207065727E747572EC
:101590006E2E0020596F757E757365647E617E6660
:1015A0006972657E7370656C6C2E0A2020207E4DFA
:1015B0006F6E737465727E6C6F7365737E31300A03
:1015C00020202020202048507E706F696E74732E7A
:1015D0000020596F757E757365647E616E7E6963E8
:1015E000657E7370656C6C2E0A20207E4D6F6E7365
:1015F0007465727E69737E66726F7A656E0A2020EA
:10160000202020666F727E6F6E657E7475726E2EFE
:10161000004761696E203220476F6C642050696515
:101620006365732100557067726164657E796F75BB
:10163000727E576561706F6E210020204761696E70
:101640007E616E7E41726D6F757221004761696EB9
:101650007E617E4865616C696E677E57616E64214C
:10166000004761696E7E617E506F69736F6E7E5751
:10167000616E642100204761696E7E616E7E496300
:10168000657E57616E642100204761696E7E617ED0
:10169000466972657E57616E6421004F67730A5216
:1016A000656D61696E730053657270656E740A448E
:1016B000656D6F6E00556E646561640A4C6F72648F
:1016C00000536B656C65746F6E0A4C6F72640055E5
:1016D0006E646561640A4769616E74004F67730ADE
:1016E00053616E6374756D0A47756172640053656A
:1016F0007270656E740A4B6E6967687400556E642B
:101700006561640A4B6E6967687400536B656C654C
:10171000746F6E00556E646561640A536F6C646922
:10172000657200456E656D79204B696C6C6564006F
:10173000596F757E6B696C6C65647E7468657E42FA
:101740006F73732E0A000909AAFF0101000101014C
:101750000001010100010101AAFF000101010001D6
:101760000101000101010001010100010408003E26
:101770001C08090900FEFEFEFEFEFEFE0000000041
:10178000000000000000FEFFFFFFEFFFFFFFFE0074
:101790000101010101010100FEFFFBFFFFFFBFFF8F
:1017A000FE000101010101010100FEFFBFFFEFFF8B
:1017B000FBFFFE000101010101010100FEFFBBFF73
:1017C000FFFFBBFFFE000101010101010100FEFF5F
:1017D000BBFFEFFFBBFFFE000101010101010100A2
:1017E000FEFFABFFFFFFABFFFE00010101010101A6
:1017F000010011AFEFC6A2002C24C0420060D1F15D
:101800001038F281D00002200020000800022001E0
:101810000CBD73E633B00608002A08480202C00275
:101820005977E004C047F63406828242301E0E2FFC
:1018300080C9003E31752A02484568141DF3111015
:101840000EC0398F7A436EC80DBCF93D9B5F9D2653
:1018500090400A162C3880010C60319930270C9882
:1018600050800115280CC042810496E975EFAF76CF
:101870001343081312428092EADE7B9FE6DEEB956B
:10188000494C1C7C85E1606A606A604BC3616E52A2
:101890001C1893EDD71D2C3010A1C06232274C1CB0
:1018A000300407A4E060FB3D8DDF9D9775EA2D575E
:1018B0003FE3AFDD1E6EFC9EEF789AF394E71117BD
:1018C0003F2E71B07018A1C8FA1C8BC56401250D9C
:1018D0009BB288210E408E0EA084503693108A4C05
:1018E0008AC0A0080C8AC0A0080C000B2F9F182EDD
:1018F000CE4C57C6C8CB5F71FC31FBA73CF901CF7A
:1019000033DAB6CD70F139078F8F48E629E7CFE596
:10191000141127BFC181D66D02B270180144249FF3
:1019200063B1388204B02180C35D880384A3032897
:101930002194CD24842213108101884C8AC0058112
:10194000023F960514002112E0F7B3590B2F9F1A9E
:10195000B2100826EE7C691F00046E7B3FDE1B047C
:1019600000E1BCF71BAD0E04400090D3DE4F0580B4
:101970005A18C2005A52F21D163019C062F1591B92
:101980002F3FA75A7F5F8E2E977726C3C562B15827
:101990002C7FE9BE142C58D09DE966B3D99C59FC24
:1019A000C07D000060C200C617F7CFDD0740000011
:1019B000E664C2A7F64FDE970AA82A3098F8818617
:1019C0001F9C784F20050340D3400089E71CC76166
:1019D000CF539E8D394FF9DC97BEF27EE43B0FBBAF
:1019E0002EEBB22E01910F2E9E74B07A6B81C5E75B
:1019F00081B72D323C76B07A7420051F0353636F94
:101A000072653A2020207E486967687E53636F7252
:101A1000653A00536B696C6C7E4C6576656C0A4167
:101A20007265617E526561636865640A426F7373B3
:101A300065737E536C61796564004F080000003C5B
:101A40007EC391F377321080C0F82F2FFEF8E0802C
:101A50000081FFFF1FFC781CFFFF0081FFFF9191B9
:101A6000B98340000000003C7EE181877E3C00019C
:101A7000071FFFF8380F03010081FFFF9191B98321
:101A80004081FFFF117FFFEE80000059A7FFE0813A
:101A900003016E1015A0206F80FF00016501504EFC
:101AA000880850BD53E0EFC211F8BA57FE3E1C91B2
:101AB0005B3EC7D5BF0347E09A342004B9B9F8109C
:101AC0003F130910C24810091B280B807288880038
:101AD00082DE29F0674812ACB0C2C8A6002C0A6C9E
:101AE00012012D7807CACF0796653150083AD840C1
:101AF0005900948D2436DC80F23B388E53EE1C81E5
:101B00006B2E203CE50773EB715C8227AFC0912BF5
:101B1000E6C2137E3D70815C7302EE1C813B97C868
:101B2000955F039987D94DDB8D39A8277E0127F56D
:101B300010D96DD31D1907389D0E700093CDE46741
:101B400031590CA0E070381C4F1FA60419C0400A80
:101B500086634A082184E646C8281226A19D4400CF
:101B60000108001542919051246CA000048000D01F
:101B70004EC298219C98CC6E26413A0E0C98930246
:101B800005200004807612C60CE14400C6A4292179
:101B900084109A1B21A3489884765216000120C80D
:101BA00043160B10408020B0D96C5E335D9C992E9B
:101BB0006032F9D52C26933F1BD3CFB0588000025A
:101BC0000481CD66F31D360B28000516C3C5F70842
:101BD0006D08B794104208CD8DD950A4A8744C9EBE
:101BE00012324268464AD010427363763351C9922A
:101BF000A2C155242C83D049534208053A269F6040
:101C0000B38005142830FC3E6B8570C655244C42C9
:101C10003BB9A50004800A9F4A099BC9444273143A
:101C2000400000004001A01C5C6E2400048020DF06
:101C3000C155A44811C53BAE495342082134C7944D
:101C4000104208CD31258450206BF212130F9705F6
:101C50009349001090002020014040028080040041
:101C60000109000232D9EB3E5F0020002000020093
:101C700002200020000200022000200002000FE6E7
:101C800001090F2F174C260212000424C0BB7D0748
:101C900000040001400000090F5F5C309904F8DE89
:101CA0007E000000090F5F5E30F9FABE03090F5F86
:101CB0005C30997C75BF03090F2F174C2693C9E43C
:101CC000F5FE1E090F970593C96432994CAEFBFBD4
:101CD000090FFC7900090F5F5C3CFBDE7B090F5F9D
:101CE0005A3CFFCE7700090F2F169FBD7F1F090FAB
:101CF0002EFE2C0F0FBF74C1E4D7EE3B0F0FBF6C4D
:101D0000C16432F975FB3D0F0FBF64C16432994C59
:101D10007ECDFE1E0F0F5F5E30994C2693C9E4EB1B
:101D2000FBFB0F0F5F5A30994C2693C96432F9DAE6
:101D3000FE3D0F8FEF56B82137E486DC901B72E32F
:101D4000E1FE7D0F8F7B851B72436EC80DB9213775
:101D5000E4C661FF5E8F0FB5D0B6CDA24D800A1DDF
:101D60006C37F27547CB81C90296B7BE058F4FDA43
:101D7000B66D4716B0C0E5765A935F924D5D2E6002
:101D8000F4D6778F8F8276EF79020778B11C84279B
:101D90007C3E708AD925B7BE058F0F75B56DB31817
:101DA0008975B9D96CDEF009CEBDB51DC0F2D6B7C4
:101DB0000707410C1A3C1E0C410707000C3A163A63
:101DC0000C000707002A18360C2A000707001A24FF
:101DD00032241A0003081F051F1F151B1F11111F96
:101DE000110E1F15111F05011F111D1F041F001FBC
:101DF0000010101F1F041B1F10101F061F1F011FA4
:101E00001F111F1F05071F311F1F051B17151D0160
:101E10001F011F101F0F100F1F0C1F1B041B071C7F
:101E2000071915130C121E1F120C1E12120C121F72
:101E30000C1A14041F052E2A1E1F021C001D002050
:101E40001D001F041A011F001E041E1E021E1E126A
:101E50001E3E120C0C123E1E020614120A020F1233
:101E60001E101E0E100E1E081E1A041A2E281E1AF0
:101E700012161F111F121F101D151711151F070411
:101E80001F17151D1F151D01011F1F151F17151FDA
:101E9000001700001000040404040E040229060ABE
:101EA0000000BFFF9ED6D2C502ED76B0596C96AE4B
:101EB000C291AB57AF1A29680E5EBD7AF59F01CB70
:101EC000A52A05DBB6429122458AAACB1313900BB3
:101ED0002017402E805C00B9007201E402C805F8AA
:101EE000F38FCB52CAD05AB5B2B028C1E238F98FBD
:101EF000D174D51A1AED260EFFE93A6B83B554AFAB
:101F0000C6A087184020610000E1008413FFD03C88
:101F1000ADA58BADDD0E5D99810E122000C03F474F
:101F2000964B550AB66D85A2EA830910FE518ECBF9
:101F300052CA7057378BCDA2E83AF10F1117F74FFD
:101F4000912041063290B74081DF0A1C0870EB06F1
:101F5000C24340E0771B61964E9F83F0BB0BBA28CB
:101F600061F539F2D3134A601DF28EE5E27732193A
:101F70002DD28CBCE7C6EFEB2DA775115F0317E0E0
:101F800077018BCF7B636DB096524B69B43756CED9
:101F90009C73EBADB74CD7BF1EF9EF1347FF5F2122
:101FA000E4BF565900060C12630101010101010151
:101FB00001020202020404040808010204081020BD
:101FC00040804A30E43311241FBECFEFDAE0DEBF99
:101FD000CDBF12E0A0E0B1E0E0E5FCE602C0059074
:101FE0000D92A63FB107D9F727E0A6EFB2E001C0F6
:101FF0001D92A03FB207E1F71FE0C2EEDFE004C090
:102000002197FE010E94E334C13ED107C9F70E9427
:1020100029310C941B360C940000089508950895FE
:1020200008950895089508950895089508950895C8
:1020300008950895FC018BE191E0918380831582DE
:1020400014828FE091E09383828388E0838781E02C
:102050008287178210861682818714868587089565
:1020600008950C947E350C947E350C947E350C943A
:102070007E350C947E350C947E350C947E350C9414
:102080007E350C947E350C947E350C947E350C9404
:102090007E35FC0116861786108A118A0895FC0188
:1020A00016861786108A0895FC0116862091EB0388
:1020B000208B08950F93CF93DF93EC0189E08B87FA
:1020C00083E08E838F8382E08887288946EF59E0FA
:1020D00061E070E080E390E00E94402F00E021E0AA
:1020E0004EE659E060E170E08EE090E00E947C2CCA
:1020F0002889CE010296253018F06FE174E002C005
:102100006EEF73E00E94842E88E08B87DF91CF9181
:102110000F910895CF92DF92EF920F93CF93DF93B9
:10212000EC016B0100E021E042E858E068E070E07B
:102130008EE090E00E947C2C8E85813069F40F85C2
:10214000002351F0015025E0E22E2DE042E2B601DD
:10215000CE010E94772918C085E0E82E00E02DE02E
:1021600042E2B601CE010E947729E889F0E0EE0F45
:10217000FF1FE850FE4F4081518121E06FE070E089
:1021800083E290E00E947C2CDF91CF910F91EF9041
:10219000DF90CF900895CF92DF92EF92FF920F934E
:1021A000CF93DF93EC017B01FB01C680D78041E038
:1021B0000E94462800E021E045E857E060E070E03A
:1021C00080E090E00E947C2C8E85813079F118F0BF
:1021D000823021F12FC08F85813118F500E021E098
:1021E0004EE659E060E170E08EE090E00E947C2CC9
:1021F0000AEF288946EF59E061E070E080E390E063
:102200000E941E2B83E08E838F8382E0888769E79C
:1022100077E0CE0102960E94842E0CC0898981113C
:1022200005C0B701CE010E945A1004C0B701CE010B
:102230000E948A108889863049F0853049F08430C0
:1022400049F48989882331F02AE005C029E003C0D8
:102250002CE001C028E08E85823021F441E08F859A
:10226000863408F040E0B701CE010E944E278E85EB
:10227000823029F58989882311F18F858634F8F415
:10228000FFE0CF22DD2489E0C816D104C0F088E049
:102290008E838F831886E889E150F0E0EE0FFF1FF0
:1022A000E85FFD4F60817181CE010296DF91CF9191
:1022B0000F91FF90EF90DF90CF900C94842EDF91E0
:1022C000CF910F91FF90EF90DF90CF900895CF9234
:1022D000DF92FF920F931F93CF93DF93EC018B015B
:1022E0006B0184E1C80ED11CFB01F184F094808560
:1022F000F8229E85913009F459C020F0923009F4FB
:10230000B8C0C9C0EF85E13120F5F0E0E859F84FD9
:10231000649170E0F801868197810E94CF34892B07
:1023200009F0B9C066E070E080E090E00E94602EA5
:10233000DC01CB010196A11DB11D888BF3FE02C00B
:1023400081E145C08F858F5F8F87F80117821682E4
:10235000A2C08889853098F0F3FE9DC087E08F8702
:1023600081E08E8766E070E080E090E00E94602E61
:10237000DC01CB010196A11DB11D888B8CC0FB0136
:102380008389811102C081E001C082E0F8012689C1
:1023900090E0820F911D8B30910514F08AE090E05F
:1023A000F801868B1F8682E08E8775C08F85882313
:1023B00081F066E070E080E090E00E94602EDC0139
:1023C000CB010196A11DB11D888B8F8581508F8710
:1023D00062C0998BC6010E94001E823020F088895D
:1023E000853008F455C0E889E53081F050F4E130DB
:1023F00048F1F0E03197E00FF11F838D8F5F838FFD
:1024000021C0E63079F0E73091F01CC0F8018489F2
:1024100090E001968630910514F085E090E0F80197
:10242000848B10C062E0C6010E940A260BC0F8012E
:10243000868990E002968B30910514F08AE090E056
:10244000F801868B1F8682E08E87F80183898111CF
:1024500002C081E001C082E0F801268990E0820F8D
:10246000911D8B30910514F08AE090E0F801868B85
:1024700012C09F85963410F49F5F9F87F3FE0BC0B8
:10248000B601C8010F960E94C825F80180A703C0B5
:1024900087E0888BA8CFDF91CF911F910F91FF909C
:1024A000DF90CF9008958F929F92AF92BF92CF927C
:1024B000DF92EF92FF920F931F93CF93DF93EC0184
:1024C0006B01FB01A680B78041E00E94462800E036
:1024D00021E046E557E068E270E080E090E00E948D
:1024E0007C2C21E042E457E068E270E08FE490E069
:1024F0000E947C2C69E0E62EF12C00E021E049E20C
:1025000057E068E270E0C7010E947C2CFEE0EF0E0D
:10251000F11C8FE4E816F10481F78E85823009F40E
:1025200090C0A8F1833009F4C2C0843009F0E5C03E
:102530008E838F831886E889F0E0EE0FFF1FED523F
:10254000FE4F60817181CE0102960E94842E00E0D0
:1025500028E04CE1B601CE010E944129E889F0E073
:10256000EE0FFF1FE152FE4F4081518121E06AE0F2
:1025700070E08EE190E00E947C2C20E046E156E085
:1025800063E270E086E290E00E94402FB6C013E064
:102590001E831F8318874E01E2E08E0E911C6DE1B1
:1025A00077E0C4010E94842E82E48E838F83188793
:1025B00028894DE956E062E070E083E390E00E94F4
:1025C000402F8E85813009F098C0C5018F70992702
:1025D00091E0893008F490E08F85863410F49111F1
:1025E00019863889F601208D231798F0863470F407
:1025F000992361F0EE24E39407E02FE043E050E0FC
:1026000060E470E0C60103960E94FA2F69E976E063
:1026100012C0863470F4992361F0EE24E39407E04D
:102620002BE043E050E060E470E0C60103960E94B6
:10263000FA2F66E976E0C4010E94842E81E0898742
:102640005CC00F8528E04CE1B601CE010E94412913
:102650008F858D30D8F410E0312F330F8F8590E0C7
:10266000FC01E351FE4F2081121708F046C040964E
:10267000880F991F00E021E047E856E068E070E02D
:10268000830F911D0E947C2C1F5FE6CFE889F0E04C
:10269000EE0FFF1FE152FE4F4081518100E021E02B
:1026A0006AE070E08EE190E00E947C2C26C000E0A1
:1026B00028E04CE1B601CE010E944129E889F0E012
:1026C000EE0FFF1FE152FE4F4081518121E06AE091
:1026D00070E08EE190E00E947C2C84E08E838F83FA
:1026E0001886E889F0E0EE0FFF1FED52FE4F608183
:1026F0007181CE0102960E94842EE889F0E0E058B4
:10270000F94F24918E85833021F441E08F85863402
:1027100008F040E0B601CE01DF91CF911F910F91FB
:10272000FF90EF90DF90CF90BF90AF909F908F90F1
:102730000C944E270F931F93CF93DF93EC018B01E3
:10274000AB014C5E5F4FFB013F96DB0119969C91FC
:102750001997909518962C9192232E85223009F482
:1027600063C030F4222359F0213009F443C0E4C09F
:10277000233009F4CCC0243009F4D8C0DDC093FF65
:102780000EC066E070E080E090E00E94602EDC0108
:10279000CB010196A11DB11D888B81E18F87EF854B
:1027A000E13110F5F0E0EB5FF94F649170E0F80172
:1027B000868197810E94CF34892B09F0BDC066E0E5
:1027C00070E080E090E00E94602EDC01CB01019679
:1027D000A11DB11D888B8F858F5F8F87D8011796BC
:1027E0001C921E921697A8C01F86F80117821682A7
:1027F00081E018C0892F887093FF02C096E49F87FC
:102800009F85963418F49F5F9F8796C0882309F4AC
:1028100093C09889D80158968C91891708F07FC089
:102820001F8682E08E8788C08F858C3080F466E0BA
:1028300070E080E090E00E94602EDC01CB01019608
:10284000A11DB11D888B8F858F5F8F8775C098897B
:10285000933001F128F4913049F0923079F048C07A
:10286000953049F118F1963069F142C0DB01559677
:102870008C915597815055968C933AC0FB0186896F
:1028800090E0019797FF02C080E090E0D801569653
:102890008C932EC0FB01848990E0019797FF02C0C2
:1028A00080E090E0D80154968C9322C061E0CA0188
:1028B0000E94091E1DC0FB01818D8230C8F081502D
:1028C000818F16C062E0CA010E94091ED801579686
:1028D0008C915797882361F050968C918A3030F410
:1028E000E82FF0E0E550FA4FE4918E0FF801808B6D
:1028F000D80157968C915797882339F017961C92D8
:102900001E9216971F8683E08DCF84E08BCF2F8594
:10291000263418F42F5F2F870FC093FF0DC0BA0124
:10292000CF010E94C825F80180A706C093FF04C00C
:102930008EE0DB0198968C93DF91CF911F910F91E0
:102940000895EF92FF920F93CF93DF93EC017B01F9
:1029500041E00E94CF2800E021E040E655E060E140
:1029600070E08DE190E00E947C2C21E045E255E092
:1029700068E370E083E190E00E947C2CF70186819F
:10298000978166E470E00E94CF34079720F421E03D
:1029900042E155E004C000E021E040E055E064E0A1
:1029A00070E083E390E00E947C2CF701278530E003
:1029B000F901E450FB4F4491F901E850FB4F849139
:1029C0006FE370E090E00E94E92A8F858823F1F0A0
:1029D00000E020E04DEE54E068E370E087E790E02F
:1029E0000E947C2C8F858F70883080F4888981309C
:1029F00019F048ED54E002C041EE54E000E021E05F
:102A000068E370E087E790E00E947C2CDF91CF9133
:102A10000F91FF90EF900895CF93DF93EC01DB01CE
:102A200018969C91189719968C91199780958923DF
:102A300094FF08C09E85903118F49F5F9E8703C065
:102A40000E94462F1E8685FF09C01F969C911F97E6
:102A5000992321F091501F969C931F9786FF09C0E0
:102A60001F969C911F97933020F49F5F1F969C9315
:102A70001F9783FF52C01F969C911F97990F990F24
:102A800059961C925997E92FF0E0E853FB4FE491D7
:102A90005496EC935497E1E0E90FF0E0E853FB4FD4
:102AA000E4915796EC935797E2E0E90FF0E0E85392
:102AB000FB4FE4915696EC9356979D5FE92FF0E01B
:102AC000E853FB4FE4915596EC93559791E0589657
:102AD0009C93589750961C92509751961C925197E0
:102AE00053961C92539752961C9252975B961C9247
:102AF0005B975C961C925C975D961C925D975E96C8
:102B00001C925E975A961C925A979AE098969C93BC
:102B1000989717961C921E92169782FF10C08CE30E
:102B20008F8781E09889911180E0888B8091EB03F9
:102B3000882319F00E94772F02C00E947C2F8F8576
:102B4000882311F081508F87DF91CF910895FC0188
:102B500092819F5F92839C3319F48CE0FB0180A7E4
:102B600008950895CF93DF93EC01FB018185809553
:102B7000908589239E85913001F118F09230C1F142
:102B80003BC08681978165E070E00E94CF34892B3D
:102B900099F58889482F082E000C550B298930E0BB
:102BA000421753071CF48F5F888B26C08FE7888BF2
:102BB00081E08E8787E08F871FC087FF07C09289DB
:102BC000923011F0953011F49150928B84FF07C030
:102BD0009289913011F0943011F49F5F928B83FFB2
:102BE0000BC08289DF01A80FB11D90968C9103C0A4
:102BF00083FF02C08EE080A7DF91CF910895FC0192
:102C000016861786108A118A0895FC011686178683
:102C1000108A08950F93CF93DF93EC0100E021E039
:102C200044E751E161E170E089E190E00E947C2C91
:102C300021E049E551E16AE170E08BE290E00E9419
:102C40007C2C21E049E551E16AE170E089E490E003
:102C50000E947C2C8A818E3120F421E049E551E1EB
:102C600004C000E021E04EE351E16AE170E08AE354
:102C700090E00E947C2CDF91CF910F9108952F92CC
:102C80003F924F925F926F927F928F929F92AF92FC
:102C9000BF92CF92DF92EF92FF920F931F93CF9349
:102CA000DF9300D000D0CDB7DEB79C838B835B0170
:102CB000DB0151961C9181E0EB81FC8181871682BA
:102CC000178210866F01F2E0CF0ED11C60EF72E028
:102CD000C6010E94A82ED5015096EC91EF3028F441
:102CE000F0E0E856FF4E649101C065E070E06F5F70
:102CF0007F4FC6010E94062F62EF72E0C6010E945C
:102D0000A82EF501608970E06F5F7F4FC6010E94B9
:102D1000062FD5015096EC91EF3028F4F0E0E856FC
:102D2000FF4EE49101C0E5E0F0E0EE0FFF1FE05D33
:102D3000FD4F60817181C6010E94842E00E021E078
:102D400049EF50E160E070E089E690E00E947C2C61
:102D50005EEFC52EDD24DA9400E021E04EEE50E176
:102D600062E170E0C6010E947C2C21E044EE50E15B
:102D700062E370E0C6010E947C2CBAE0CB0ED11C4D
:102D8000E2E6CE16D10441F7AB81BC811E968C9150
:102D9000823011F020E001C020E141E0B5018B81DB
:102DA0009C810E944E27F501868197816CE070E03E
:102DB0000E94CF342C01C12CD12CC50103969A83DB
:102DC00089839C2CAB81BC8150968C915097082EA6
:102DD000000C990B8C159D050CF49EC0F601E35276
:102DE000FF4E2490F601EA52FF4E3490F601E15373
:102DF000FF4EF4901F968C91873021F01F1102C076
:102E000081110AC03DE0E32E06E0232D422DB501DD
:102E10008B819C810E947729EB81FC8180898F378F
:102E2000C9F4D50152968C91891114C0B7E04B16A4
:102E3000510480F0112309F46FC0632D70E000E0AD
:102E400020E047EA50E1822D022C000C990B0E94F1
:102E50007C2C03C0112309F45FC0F116A0F01F11F0
:102E600006C0EB81FC818785882369F090C0F6E07D
:102E7000CF16D10409F050C0AB81BC8151968C9122
:102E8000863009F08AC0632C712C822C022C000C35
:102E90009908B3E08B0E911CA3014C5F5F4FE12CAE
:102EA00005E12EE0B40189819A810E94FA2FE6E0C3
:102EB000CE16D10431F4AB81BC8151968C91863011
:102EC00039F0F501EC0DFD1D80A190E0019702C0E5
:102ED00087E090E0880F991FFC01E05EFD4F408184
:102EE0005181B3016A5F7F4F00E021E0C4010E947D
:102EF0007C2C1F1111C0EB81FC810785002361F040
:102F000080898F3749F401508DE0E82E232D422D22
:102F1000B501CF010E947729FFEFCF1ADF0A87E0C2
:102F2000C816D10409F04DCFAB81BC811F968C919E
:102F30001F97882341F050969C9150979F3719F422
:102F400081501F968C93EB81FC818685823041F500
:102F500020E046E156E069E170E086E290E00F9003
:102F60000F900F900F90DF91CF911F910F91FF90D5
:102F7000EF90DF90CF90BF90AF909F908F907F9019
:102F80006F905F904F903F902F900C94402F86E071
:102F9000C816D10409F0AFCF6FCF1F11C5CFABCF8B
:102FA0000F900F900F900F90DF91CF911F910F9185
:102FB000FF90EF90DF90CF90BF90AF909F908F9059
:102FC0007F906F905F904F903F902F900895EF9279
:102FD000FF920F931F93CF93DF93FC01DB011686C3
:102FE0001786108A86E0818B50968C915097863098
:102FF00051F028F4813039F0833039F404C089303D
:1030000011F08D3011F487E001C086E0818B1796B6
:103010001C921E92169751968C915197811136C031
:103020008D01EF018DEF808B87E0878796968C93DB
:103030008AE0F82E66E070E080E090E00E94602E6A
:10304000E62E66E070E080E090E00E94602ED801FD
:10305000AE0DB11D90968C919097F801E60FF11D81
:1030600090A190969C9380A3FA94F110E3CFF8017D
:1030700085898F3F39F48FE7888B82E08E87158AA8
:10308000118A0AC081E0F801818B06C08FE7808B2E
:1030900087E0878781E08687DF91CF911F910F912D
:1030A000FF90EF900895AF92BF92CF92DF92EF9290
:1030B000FF920F931F93CF93DF936C01EB01EE8090
:1030C000FF808FE0E822FF2440E0C6010E944628EE
:1030D00000E021E04BE95EE060E070E080E090E03D
:1030E0000E947C2CD6011F96EC91F0E0E856F14F3F
:1030F000249141E0F6018685813009F040E0BE016F
:10310000C6010E944E27F9E0EF16F10408F445C00D
:10311000D6011F968C91813049F0823059F41FE31B
:10312000D12C97E5C92E22E3A22E09C01FE334E279
:10313000D32E02C012E2D12C80E3C82EA12C2396FC
:1031400000E02D2D4C2D6A2DCE010E942430212F20
:103150004C2D6A2DCE010E942430F12EFD18E12C59
:103160000D2D10E0B12CA8014E0D511D20E0B50130
:10317000CE010E94822FE394E394FE14A0F7B12CB9
:10318000D12CA8014B0D511D20E0B601CE010E94AB
:10319000822FB394B394FB14A0F7DF91CF911F91CA
:1031A0000F91FF90EF90DF90CF90BF90AF90089578
:1031B000AF92BF92CF92DF92EF92FF921F93CF9385
:1031C000DF93EC017B016B0184E1C80ED11CFB0194
:1031D00011851095908519238E85882319F08130EB
:1031E000C9F151C015FF05C08F85823011F488895F
:1031F0008F8716FF06C08F85823019F0888B82E09A
:103200008F8714FF09C08F85811106C081E08F87E9
:1032100017FF07C01F8605C017FF03C08F858130C9
:10322000C9F313FF30C08F85813069F038F08230E8
:1032300071F461E0C6010E940A2609C0F701858980
:103240008F5F858B04C062E0C6010E94252681E065
:103250008E8719C05B01FFE0AF0EB11C99899634CF
:1032600050F49F5F998B963431F4B601C5010E94EA
:10327000C825F70180A713FF06C0B601C5010E944B
:10328000C825F70180A7DF91CF911F91FF90EF90A4
:10329000DF90CF90BF90AF900895CF92DF92EF92E2
:1032A000FF920F93CF93DF93EC016B017B0183E0DF
:1032B000E80EF11C41E0CE010E94462800E020E02B
:1032C00048E55EE060E070E087E290E00E947C2CE0
:1032D00021E04DE35DE060E070E087E290E00E9475
:1032E0007C2CF6018681978162E370E00E94CF34E6
:1032F000049738F447E06BE070E08AE390E00E94C6
:10330000E92A43E36CE370E083E290E00E94E92A5B
:1033100001E02EE347E563E2C7010E9424302FE37A
:1033200047E564E2C7010E9424308E85882329F096
:10333000813031F446E15CE005C046E85CE002C063
:1033400040E050E000E021E061E070E082E090E0E9
:103350000E947C2C6F85F8E06F9FB0011124695F9B
:103360007F4F20E04AE35DE082E090E00E94402F42
:103370006F8588E0689FB0011124695F7F4F20E06E
:103380004AE35DE081E290E00E94402F8889882333
:10339000D1F08AE1E82E00E427E14FE1B601CE0149
:1033A0000E94712884E28E838F838CE18887E8896C
:1033B000F0E0EE0FFF1FE85EFD4F60817181CE01EE
:1033C00002960E94842E298941E0B601CE01DF9148
:1033D000CF910F91FF90EF90DF90CF900C944E27FC
:1033E000AF92BF92CF92DF92EF92FF920F931F9313
:1033F000CF93DF931F92CDB7DEB75C018B017B01CA
:1034000084E1E80EF11CFB01D184D0948085D822A0
:1034100011F0F501108AF5018685882321F08130AD
:1034200009F4BCC005C1D7FE06C0F5018785882315
:1034300011F081508787D4FE06C0F501878586305C
:1034400010F48F5F8787D3FEF3C0F5012785223004
:1034500009F441C028F4222351F0213041F197C0F2
:10346000263008F452C0263009F472C090C0F8012A
:103470008689811102C081E005C0F80185898A3002
:1034800021F483E0F501808B82C0F50181898061A0
:10349000818BF8018589082E000C990B01968B30E1
:1034A000910514F08AE090E0F801858B10C0F801D6
:1034B0008689882301F38789843119F3F50181898D
:1034C0008260818B61E0C7010E942526F801868910
:1034D00090E0019713C0F8018689833060F28789F4
:1034E000843179F2F50181898260818B64E0C701C2
:1034F0000E942526F801868990E0039797FF02C075
:1035000080E090E0F801868B42C0F801C688F7E0C1
:10351000FC1508F0B0CFC70129830E94001E298145
:10352000823008F0AECFE22FF0E03397E00FF11FCA
:10353000838D8F5F838F8C2D90E0089797FF02C05B
:1035400080E090E0F801868BF501818988601EC0DB
:10355000F8018689863008F48ECF2489253008F05A
:1035600090CF30E02F5F3F4F2630310514F025E03B
:1035700030E0F801248B90E0069797FF02C080E0CE
:1035800090E0F801868BF50181898460818BF501DB
:103590008189982F977109F44BC02BC0D7FE06C0C4
:1035A000F5018785882311F081508787D4FE06C0F6
:1035B000F5018785843010F48F5F8787D3FE38C08C
:1035C000F5018785F8018330B0F4E80FF11D838D94
:1035D0008823A1F08150838FF801868990E00496BA
:1035E0008B30910514F08AE090E0F801868BF501AC
:1035F000818988601CC08489811104C082E0F50142
:10360000808B16C090E0019797FF02C080E090E0A9
:10361000F801848B868990E003968B30910514F035
:103620008AE090E0F801868BF50181898C60818BBE
:103630008D2D807641F081E0F5019685911180E035
:10364000F50186871786D2FE07C0B701C8010F961D
:103650000E94C825F80180A70F90DF91CF911F919C
:103660000F91FF90EF90DF90CF90BF90AF900895B3
:103670000F931F93CF93DF931F92CDB7DEB78CE8E4
:1036800090E069830E944434182F8DE890E00E94F6
:1036900044346981611104C01D3411F48235A9F0EC
:1036A0006DE48CE890E00E944C3462E58DE890E097
:1036B0000E944C340EE810E060E0C8010E944C34D7
:1036C0000F5F1F4F02391105B9F70F90DF91CF91AE
:1036D0001F910F9108950F931F93CF93C62F8C01C5
:1036E0000E5F1F4F643660F464E17CE0C8010E9405
:1036F000842ECA3028F462E17CE0C8010E94842E46
:103700004C2F50E060E070E02AE0C801CF911F919B
:103710000F910C94BD2E1F93CF93DF93162FEC01C6
:1037200022966A3028F460E17CE0CE010E94842E6B
:10373000412F50E060E070E02AE0CE010E94BD2EF3
:103740006EE07CE0CE01DF91CF911F910C94842E2E
:10375000FF920F931F93CF93DF93EC018B0182E0D5
:103760008E878F87888B8FEF8B8BFE01B196CE0172
:103770008596DF011D971C9214961C921192E817F2
:10378000F907B9F71C8E1D8E1E8E1DA240E0B801F0
:10379000CE010E949124D80112968C911297873005
:1037A000F9F0883009F440C0863009F044C05096E2
:1037B000FC9066E070E080E090E00E94602E6F0D6B
:1037C0006E5F698BD8015096EC91EF3028F4F0E0F1
:1037D000E856FF4EE49101C0E5E0EE0FEE5F22C037
:1037E000D8015096EC91EF3028F4F0E0E856FF4E07
:1037F000E49101C0E5E08E2F880F880FE80FE65FA7
:10380000E98BD8015096EC91EF3058F4F0E0E8568F
:10381000FF4EE491E53028F4F0E0EB50FB4EE491EC
:1038200001C0E0E0EA8B07C0F8018089880F8E5F55
:10383000898B85E08A8B82E08E878F87DF91CF919D
:103840001F910F91FF9008956F927F928F929F9298
:10385000AF92BF92CF92DF92EF920F931F93CF93CD
:10386000DF933C014B01D42F122FC02FC22ED12C3D
:10387000A42EB12CE12C00E220E2A601B501C40186
:1038800003960E94FA2F00E0212F4D2FB401C301AF
:103890000E944129EC2FF0E0EE0FFF1FE05AFD4F90
:1038A00040815181B6016E5F7F4F21E0C5010296D4
:1038B0000E947C2CDF91CF911F910F91EF90DF90B0
:1038C000CF90BF90AF909F908F907F906F90089512
:1038D0008F929F92BF92CF92DF92EF92FF920F93BF
:1038E0001F93CF93DF93EC016B01FB0186819781DE
:1038F0008F709927BB24B394893008F4B12C34EF2E
:10390000E32EFF24FA9400E021E045EC54E160E36B
:1039100070E0C7010E947C2CF4E1EF0EF11C28E559
:10392000E216F10481F741E0B601CE010E9446287B
:103930000BEF20E040EC54E168E370E080E090E0C1
:103940000E941E2B20E04BEB54E168E370E085E51C
:1039500090E00E941E2B1E85133018F41130A8F041
:103960009BC0133009F4DFC0143009F025C18D89E4
:10397000FE01E80FF11D028928E04CE1B601CE01FD
:103980000E94241C1E831F8306C18F85F601339677
:103990004F01833001F5E12C00E220E24FE050E0DE
:1039A00062E070E0CF010E94FA2F20E24FE050E089
:1039B00066E370E0C4010E94FA2F08892FE042E01C
:1039C000B601CE010E94412908892FE046E3B601E5
:1039D000CE010E944129E12C00E22EE148E050E0B6
:1039E0006DE170E0C4010E94FA2F088928E04CE1E3
:1039F000B601CE010E94412988898D30E0F510E0A2
:103A0000E12EEE0C888990E0FC01EB5AFD4F2081FD
:103A1000121708F0D1C02F85F12C2330D9F403966A
:103A2000880F991F00E021E04CEA54E16FE070E05C
:103A30008E0D9F1D0E947C2C2889C701820F911D2D
:103A4000820F911D21E04CEA54E16FE070E0CA96CC
:103A50000E947C2C2889C701820F911D820F911D25
:103A600000E021E04CEA54E168E070E080960E94BA
:103A70007C2C1F5FC5CFEB89F0E0EE0FFF1FE05AF3
:103A8000FD4F4081518100E021E06AE070E08EE16D
:103A900090E00E947C2C90C013E01E831F83188747
:103AA0004E01F2E08F0E911C6EE974E1C4010E9498
:103AB000842E87E48E838F83188729894EE154E111
:103AC00062E070E088E390E00E94402F8E858230B3
:103AD00009F072C088898634B0F4BB20A1F0198641
:103AE0009989F601808D891710F42BE001C02FE031
:103AF000EE24E39407E043E050E065E470E0C601A3
:103B000003960E94FA2F9989F601808D891718F083
:103B10006AE174E102C067E174E1C4010E94842E8D
:103B200081E0898749C0E12CF12C8D89F701E45BA4
:103B3000FD4F23E0829FE00DF11D11248080E82DD0
:103B4000F0E0DF01A75BBD4F1C91DF01AA5BBD4F19
:103B50009C90EC0FFD1F0289212F492DB601CE014B
:103B60000E94241CBB2069F08D8988110AC0612F36
:103B700070E000E020E040EE53E1892D90E00E94EB
:103B80007C2C3FEFE31AF30A83E0E816F10469F6B0
:103B900084E08E838F8318868D89FE01E80FF11DE6
:103BA000E289F0E0EE0FFF1FE85CFD4F608171815C
:103BB000CE0102960E94842E8D89FE01E80FF11D30
:103BC000E289E63028F4F0E0E652FC4E249101C090
:103BD00020E08E85843021F441E08889863408F025
:103BE00040E0B601CE01DF91CF911F910F91FF9080
:103BF000EF90DF90CF90BF909F908F900C944E27C6
:103C0000FC0190858781890F9185890F9285890FA5
:103C10000895FC01238130E0261B310937FF02C0E3
:103C200020E030E02383220F23878EE2821B8093E3
:103C300000010895CF92DF92EF92FF920F931F93AE
:103C4000CF93DF93EC01DB017B0184E1E80EF11CF3
:103C50009B01215F3F4F19969C911997909518965B
:103C60008C919823EE854E2F50E04D30510508F091
:103C700041C28B01FA01EC59FF4F0C94E33493FFDE
:103C800002C085E48D8F8D8D863408F033C28F5F3E
:103C90008D8F863409F02EC21D8E8F858E87F80198
:103CA000178216821FC282E0888B93FD04C0ED8DBF
:103CB000E131F0F04BC081E18D8FF12CF801808D66
:103CC000F816A8F76E01CF0CD11CF60181A1811165
:103CD0000DC066E070E080E090E00E94602EDC01A4
:103CE000CB010196A11DB11DF601848BF394E6CFA3
:103CF000F0E0E650FB4E649170E0F8018681978118
:103D00000E94CF34892B09F0F5C1F12CF801808D88
:103D1000F816B0F46E01CF0CD11CF60181A181110F
:103D20000DC066E070E080E090E00E94602EDC0153
:103D3000CB010196A11DB11DF601848BF394E6CF52
:103D40008D8D8F5F8D8F17821682D4C18C898630BE
:103D500059F08D89863051F08E89863049F08F89EF
:103D6000863041F088E007C084E005C085E003C0EC
:103D700086E001C087E08B8B80E021E0F801908D28
:103D8000891730F4FE01E80FF11D21A38F5FF6CFF4
:103D900083E068C095FF20C08B89883024F02F898C
:103DA000263019F413C0873021F42E89263019F4F7
:103DB0000FC0863021F42D89263019F40BC08530D0
:103DC00051F42C89263039F484E005C087E003C023
:103DD00086E001C085E08B8B96FF25C02B892430BF
:103DE00024F48C89863019F416C0243021F48D898E
:103DF000863019F412C0253021F48E89863019F4EA
:103E00000EC0263029F48F89863059F427E00AC085
:103E1000273041F406C024E005C025E003C026E0B9
:103E200001C028E02B8B93FF65C1EB89E4300CF4D3
:103E300061C1E8305CF0E83009F05CC1F801408D08
:103E40009E012C5E3F4FF90180E018C01D8E0E2EA2
:103E5000000CFF0B3497EC0FFD1F11A2808D8F5FBC
:103E6000808F82E08E8746C19191913039F0890F21
:103E70009381592F550F950F990F890F9E2F921BE4
:103E8000941790F39DA1911195E0D92ED80E8989B0
:103E900090E08D1991098F31910514F08EE190E039
:103EA00097FF02C080E090E0898B40E0B801CE012E
:103EB0000E949124898981110CC0B801CE01DF9143
:103EC000CF911F910F91FF90EF90DF90CF900C94C6
:103ED000AA241D8E83E0888B88E08B8BDD20B9F0CF
:103EE0001E86C7010E94001E81110FC08E8D811198
:103EF00009C085E008C040E0B801CE010E949124CD
:103F000081E08E8782E08F87F5C084E0FCCFC70117
:103F10000E94001E811105C08E8D8111A2CF85E007
:103F2000A1CF84E09FCF84E0888B97FD02C095FFEE
:103F300020C08B8984302CF0F801268D211113C00C
:103F400002C01816ACF4F801238D21110EC0823086
:103F50007CF0248D21110BC0823051F0258D22235D
:103F600039F082E005C083E003C080E001C081E059
:103F70008B8B892F807539F12B8923308CF4F801D4
:103F8000868D811118C027FF04C0838D882319F006
:103F900014C012162CF0F801848D882319F00FC07C
:103FA000213031F4F801858D882359F022E00AC0D0
:103FB00028303CF007C023E005C020E003C021E02A
:103FC00001C028E02B8B93FF95C08B898130C9F10C
:103FD0001CF48823C1F0A0CF8230D9F1833009F0DE
:103FE0009BCF8CE08E87F801868D8150868F68E0AC
:103FF000C701DF91CF911F910F91FF90EF90DF905C
:10400000CF900C942526F801838D8150838F898968
:1040100090E00A978F31910514F08EE190E097FFC0
:1040200002C080E090E0898B40E0B801CE010E94A0
:1040300091248989882309F440CF84E0888B8AE021
:1040400011CF8E8F89E08E87F801848D8150848F07
:1040500051C081E08DA38BE08E87F801858D815062
:10406000858F48C02A8930E0FB018489B901681B2B
:1040700071096333710514F062E370E077FF02C0E9
:1040800060E070E0C7010E94091EF8018789811174
:1040900032CF81E08E8788E036CF93FF09C081E080
:1040A000FB01838BB701C9010E94C825F80180A7D5
:1040B0008D8D8634F8F48F5F8D8F8634D9F48E859C
:1040C000888B87E0CFCE93FF15C081E0FB01838B07
:1040D000B701C9010E94C82503C093FF0BC08EE041
:1040E000F80180A710928A0005C093FDBACE02C0E5
:1040F00093FD15CFDF91CF911F910F91FF90EF901E
:10410000DF90CF900895AF92BF92CF92DF92EF925F
:10411000FF920F93CF93DF935A016901FC0180A1B5
:104120008150C1E0823008F0C0E0D0E0C114D10479
:10413000A1F000E020E0A6017E01F8E1EF0EF11C05
:10414000B7018EE390E00E947C2C01E020E0A60104
:10415000B70185E490E00E947C2C00E021E0A501FD
:10416000BE0184E390E00E947C2C01E021E0A501E7
:10417000BE0185E490E00E947C2CDF91CF910F91ED
:10418000FF90EF90DF90CF90BF90AF900895CF92C7
:10419000DF92EF92FF920F931F93CF93DF93EC0187
:1041A0007B0141E08E85813009F440E0B701CE010A
:1041B0000E94CF288E85882309F49BC0813009F0A6
:1041C000B9C000E021E04BE85AE161E170E083E131
:1041D00090E00E947C2C20E04AE35AE164E070E029
:1041E00088E190E00E94402F87E08B8789E18E83F1
:1041F0008F8310E118876E01F2E0CF0ED11C63E1CE
:104200007AE1C6010E94842E8FE58E838F83188702
:10421000F7016785660FCE010E948B1BF70160894D
:1042200070E06F5F7F4F862F880F680FCE010E946E
:104230008B1BF701628D660FCE010E948B1B85E2FE
:104240008E838F8317E21887F701608D660FCE018A
:104250000E948B1BF7016789660FCE010E948B1BA2
:1042600086E48E838F831887F7016689660FCE01F7
:104270000E948B1BF7016589CE010E948B1B86E68D
:104280008E838F831887F7016489CE010E948B1B70
:10429000C70144960E94001E682FCE010E948B1B0E
:1042A00083E18E838F8319E318876DEF79E1C6016F
:1042B0000E94842E8AE28E838F8318876F85CE01B9
:1042C0000E946B1B82E68E838F8318876889CE01DC
:1042D0000E946B1B4AE567E370E083E190E0DF91A9
:1042E000CF911F910F91FF90EF90DF90CF900C94A2
:1042F000E92A00E021E048E45BE16FE070E088E15A
:1043000090E00E947C2CF7018681978166E470E042
:104310000E94CF34079720F421E045E35BE104C01D
:1043200000E021E043E25BE164E070E083E390E0E1
:104330000E947C2CDF91CF911F910F91FF90EF9005
:10434000DF90CF900895CF93DF93FC01DB011896A7
:104350009C91189719968C9119978095892383FFC2
:104360000BC08685882331F0813031F48CE098963B
:104370008C9302C081E08687818997FF1FC094FFDC
:104380001DC08F5F818B8531F0F08D3368F08D33E8
:10439000D1F4EF01118A10928A0061E0CF010E94EE
:1043A000381B188A1F860FC020E430E0A901481B83
:1043B0005109CA01880F80938A0005C0882319F02B
:1043C00010928A00118ADF91CF910895DF92EF92C7
:1043D000FF920F931F93CF93DF93EC018B017B012F
:1043E00084E1E80EF11C60E0CE010E94381B1E86BD
:1043F0001F86188AF80182818D3011F081E08E8746
:10440000F8019785292F220F322F390F3F87908D82
:10441000990F292F230F2F87408950E04F5F5F4F5F
:10442000942F990F940F920F9F87D788DD0C9D0DC5
:104430009F87D588D90EDF868489D80EDF86868946
:10444000880FD80EDF86828D880FD80EDF86C701D1
:104450000E94001EE82EF12CED0CF11CEF86F801F5
:10446000878590E082579F4F0E9444348E1548F014
:10447000888BDF91CF911F910F91FF90EF90DF908C
:104480000895E88AF801878590E06E2D82579F4F46
:10449000DF91CF911F910F91FF90EF90DF900C94DF
:1044A0004C349F92AF92BF92CF92DF92EF92FF92E5
:1044B0000F931F93CF93DF93EC016B01DB011696F3
:1044C0008D919C9117978F70992711E0893008F48E
:1044D00010E088A19EEF980FAA24A394923008F0D0
:1044E000A12C9F8D9F5F943010F49F8F07C01F8E6B
:1044F0008F5F853010F488A301C018A241E0B60197
:10450000CE010E94462800E021E045EE59E160E03E
:1045100070E080E090E00E947C2C01E020E04BEC19
:1045200059E16BE170E087E590E00E947C2C00E0AF
:1045300021E04FE759E163E170E08AE290E00E94F8
:104540007C2C01E021E04FE759E163E170E085E474
:1045500090E00E947C2CB12C7501BFEFEB1AFB0A96
:1045600021E04CE459E1B70181E290E00E947C2C0B
:10457000F60182818730C1F427E039E141E159E158
:10458000B601CE010E94832000E020E04BEE58E10E
:10459000B7018EE590E00E947C2C21E04CE459E1CB
:1045A000B7018EE590E024C020E030E04EEB58E10A
:1045B000B601CE010E948320F2E1AF0EB11C00E0F3
:1045C00020E048EA58E1B50189E490E00E947C2CA3
:1045D00001E020E048EA58E1B50186E590E00E945C
:1045E0007C2C00E021E04CE458E1B50189E490E046
:1045F0000E947C2C8E85811114C0112391F01986A4
:1046000089898A3010F02AE001C025E0EE24E39485
:1046100007E042E050E064E170E0C60103960E94CA
:10462000FA2F05E10E830F8382E088875E0122E086
:10463000A20EB11C498950E060E070E02AE0C5019B
:104640000E94BD2E81E089870E830F838AE08887D0
:104650004A8950E060E070E02AE0C5010E94BD2E6A
:104660008E85843041F08889843029F08E8582508F
:10467000823020F52BC000E021E042EF57E163E1FA
:1046800070E080E090E00E947C2C76018BE1E80EE7
:10469000F11C65E1962E9E829F8287E1800F8887BC
:1046A000D7014D917D0150E060E070E02AE0C50146
:1046B0000E94BD2E065F083271F7D8CF88898330FB
:1046C00029F08B89883009F042C03FC0D60150964E
:1046D000EC91EF3028F4F0E0E856FF4EE49101C091
:1046E000E5E0D60112968C91873011F080E001C090
:1046F00085E0E80FF0E0DF01A856BD4F8C91880FF0
:10470000880F8A5E93E09E839F838887EE0FFF1F4A
:10471000EC57FD4F60817181C5010E94842E00E03D
:10472000F601808D081768F6FE01E00FF11DBAE072
:104730000B9FC0011124248942E757E164E370E034
:1047400003960E94402F0F5FEBCF1123C1F08E859F
:10475000833051F4D60158968C91880F982F990F79
:10476000990F890F8D5F03C0843049F48AE120E0FE
:104770004CE657E165E370E090E00E94402F8E85A3
:104780008350823008F511111FC08B8987FD1CC032
:10479000843054F08830C4F4880FB4E08B9F800DCF
:1047A0001124855264E308C0880F682F660F660FD6
:1047B000860F66E1680F83E070E003E020E046E4E6
:1047C00057E190E00E941E2B8E85813011F020E091
:1047D00006C0111198C080E080938A0022E041E079
:1047E000B601CE010E944E278E85883028F486308F
:1047F00018F58130E1F089C0883009F460C08D304F
:1048000008F083C080E2E82E04E621E14FE0B60123
:10481000CE010E94712884E18E838F8385E1888791
:10482000EE85F0E0EE0FFF1FE45AFD4F5CC08F8570
:10483000883009F06AC043C0873089F0F601828170
:10484000873029F48C8D853021F42DE003C021E0E0
:1048500001C029E041E0B601CE010E944E27D601F9
:1048600012968C918730D1F43AE1E32E08E527E1E6
:1048700044E1B601CE010E9471288AE18E838F83C4
:104880008CE1888760E377E1C5010E94842EEC8D7E
:10489000F0E0EE0FFF1FEC58FD4F25C022E1E22EA5
:1048A0000CE328E142E2B601CE010E94712888E2C1
:1048B0008E838F838DE1888763E277E116C020E0E5
:1048C00046E156E069E170E086E290E0DF91CF9149
:1048D0001F910F91FF90EF90DF90CF90BF90AF901E
:1048E0009F900C94402F60817181C501DF91CF9121
:1048F0001F910F91FF90EF90DF90CF90BF90AF90FE
:104900009F900C94842E80E267CFDF91CF911F910E
:104910000F91FF90EF90DF90CF90BF90AF909F905E
:104920000895FC0190E0DB0158968C91981788F46B
:10493000DF01A90FB11D91964C939197411107C0CA
:1049400058961C92268D222311F02150268F9F5FAE
:10495000EACF0895DF92EF92FF920F931F93CF93C8
:10496000DF938C01EB017B0184E1E80EF11C8A816D
:10497000873089F0883009F473C0863009F074C03C
:10498000E889EF3028F4F0E0E856FF4E649101C06A
:1049900065E06F5F66C0E889EF3028F4F0E0E85624
:1049A000FF4E649101C065E06E5FC7010E940A2658
:1049B000E889EF3030F4F0E0E856FF4EE491E23061
:1049C00010F083E001C082E02E8990E0820F911DFB
:1049D0008B30910514F08AE090E08E8B8A8D8F5F8A
:1049E0008A8F66E070E080E090E00E94602EDC013B
:1049F000CB010196A11DB11DD82EF801848FC701EE
:104A00000E94001E823018F0F4E0FD15C0F5F80198
:104A1000248D253089F058F4213030F130E02150D8
:104A20003109C20FD31F8B8D8F5F8B8F1DC0263036
:104A3000B9F0273059F018C08C8990E00196863083
:104A4000910514F085E090E08C8B0EC08E8990E08B
:104A500002968B30910514F08AE090E08E8B04C0B2
:104A600062E0C7010E940A2686E0F8018687DF918E
:104A7000CF911F910F91FF90EF90DF90089587E005
:104A8000F801848FC4CFFC0181E086878787108A74
:104A9000128A138A148A118A158A0895089580E06B
:104AA00090E00895A3EEB3E02FB7F8947D918D9137
:104AB0009C9166B52FBFA89B05C06F3F18F47F5F20
:104AC0008F4F9F4F22E0660F771F881F991F2A95EF
:104AD000D1F708950F93CF93DF93FC016A3039F437
:104AE0008581848396818185890F86834BC08481EB
:104AF0006E3719F48E5F848345C0262FEF016681DF
:104B00006F5F2A3374F42033F4F42B32F1F01CF489
:104B10002132F9F02DC02D3289F12E3249F52FE3E3
:104B200019C02B3544F4213464F42A3381F02F3337
:104B3000F9F422E40FC09FE9920F9A31C8F4275488
:104B400009C0215407C02C5F05C021E403C023E441
:104B500001C02EE33F81062E000C770B082E000CBF
:104B6000990B313069F40AEF44ED5DE10E941E2B90
:104B700088858D5F9C81890F8C8304C020E4EACFF7
:104B80000BEFF2CF81E090E0DF91CF910F9108958C
:104B9000FC01DB0182818F5F8283833081F030F4FE
:104BA000813059F0823069F481E009C0843039F0F5
:104BB000853039F486E083830DC0138229C0838356
:104BC00027C0863029F481818D3089F48DE00895E5
:104BD0008530F1F481818630D9F028F48130C1F03C
:104BE000833029F415C0893099F08D3089F0119601
:104BF0008C911197815011968C9311971282119676
:104C00008C9187FD05C081818F5F8183138214821F
:104C10008AE00895DC0114968C911497E82FF0E057
:104C2000EC55F04EE49115969C911597690FE61797
:104C300018F015966C9308956F5F6E1B15966C9324
:104C400015978F5F14968C930895FC01838170E013
:104C5000680F711D6531710514F064E170E06383C4
:104C6000660F63878EE2861B809300010895CF92C2
:104C7000DF92EF92FF921F93CF93DF93EC01FB0142
:104C800011851095808518238E85823009F449C0DE
:104C90007B01833030F4882309F45BC0813041F01C
:104CA000F5C0833009F479C0843009F48AC0EEC0BD
:104CB00013FF0EC066E070E080E090E00E94602E7E
:104CC000DC01CB010196A11DB11D898B86E4888B87
:104CD000E889E13100F5F0E0E755F04E649170E0CD
:104CE000F701868197810E94CF34892B09F0CEC0CD
:104CF00066E070E080E090E00E94602EDC01CB0175
:104D00000196A11DB11D898B88898F5F888BF70162
:104D100017821682BBC0188AF7011782168282E0BA
:104D20004EC0912F987013FF02C086E4888B88894B
:104D3000863408F497C0992309F4A8C0188A1E86FF
:104D40009989808D891710F083E001C084E08F87F6
:104D50009DC088898C30D8F466E070E080E090E0F7
:104D60000E94602EDC01CB010196A11DB11D8B8B31
:104D70002FEF280F09F426E02A8B61E0680F6730D7
:104D800010F46C8B02C081E08C8B88896BC081E051
:104D90008D8B8F858E87188A79C015FF05C08D8908
:104DA000882311F081508D8B16FF05C08D898230CC
:104DB00010F48F5F8D8B13FF69C0188A84E08E8793
:104DC00065C06B01F4E1CF0ED11C8889811141C00F
:104DD0008D89FE01E80FF11D82898330D9F048F4F6
:104DE000813061F08230A9F562E0C6010E9425267B
:104DF00030C08430E9F0853001F12BC0FB01868999
:104E000090E002968B30910514F08AE090E0F70173
:104E1000868B1FC0FB018589082E000C990B01961B
:104E20008B30910514F08AE090E0F701858B11C07A
:104E300062E0C6010E940A260CC0FB01248930E012
:104E40002F5F3F4F2630310514F025E030E0F701A9
:104E5000248B912F987013FF02C086E4888B888979
:104E6000863418F48F5F888B11C0992379F08D896F
:104E7000C80FD11D8A89863030F4B601C7010F965C
:104E80000E94C82501C088E0F70180A7DF91CF917B
:104E90001F91FF90EF90DF90CF9008952F923F9257
:104EA0004F925F926F927F928F929F92AF92BF923A
:104EB000CF92DF92EF92FF920F931F93CF93DF93E6
:104EC00000D000D0CDB7DEB76C017C836B83FB01D3
:104ED000868197818F709927099710F4512C01C012
:104EE000542EA12CB12C30E06B807C80F3E06F0E4F
:104EF000711C22FB222420F823FB442440F824FBCD
:104F0000332430F8822F8170898321FBFF24F0F84D
:104F10004601E2E08E0E911C3330C1F028F43130AE
:104F200059F0323071F004C03430A9F03530C1F09E
:104F3000EB81FC81108D2EC0EB81FC81118D89816C
:104F400013C0EB81FC8117898F2D0EC0EB81FC8192
:104F50001489822D09C0EB81FC811689842D04C03F
:104F6000EB81FC811589832D8823A1F0552091F0D8
:104F7000F60111861A3010F02AE001C025E0EE2477
:104F8000E39407E0A50167E770E0C3013A830E945C
:104F9000FA2F3A8188E7F60186838783A086412F1E
:104FA00050E060E070E02AE0C4013A830E94BD2E28
:104FB00081E0F60181873A813F5FF9E0AF0EB11CD5
:104FC00026E3A216B10409F0A7CFAB80BC808BE129
:104FD000A80EB11C80EEC82E82E0D82E10E045014C
:104FE000F5018081882379F0F60140815181FBE051
:104FF0001F9FC001112420E068E370E085599F4F96
:105000000E94402F1F5F2FEFA21AB20AF401808185
:10501000823078F0F60140815181FBE01F9FC00192
:10502000112420E068E370E085599F4F0E94402FD3
:105030001F5F22E0C20ED11C88EEC81682E0D8069F
:1050400071F6CB80DC80E3E0CE0ED11C6AE670E026
:10505000C6010E94D02F65E770E0C6010F900F9047
:105060000F900F90DF91CF911F910F91FF90EF90D4
:10507000DF90CF90BF90AF909F908F907F906F9078
:105080005F904F903F902F900C94D02F0F93CF9321
:10509000DF93442351F000E021E046E95FE160E066
:1050A00070E080E090E00E947C2CC0E0D0E000E066
:1050B00021E042E85FE1BE0189E590E00E947C2C9E
:1050C0002A96C634D10599F721E04DE35FE160E00F
:1050D00070E089E690E00E947C2CDF91CF910F91E7
:1050E00008958F929F92AF92BF92CF92DF92EF92EC
:1050F000FF920F931F93CF93DF93F02E1E2DC22E9E
:10510000D12CC42FD0E05B0183E0A80EB11CE12CB0
:10511000012F2F2DA601BE01C5010E94FA2F0AEF13
:105120000F0DB6016E5F7F4F4E0183E0880E911C1C
:105130006034710524F4402FC4010E94E92AB601AD
:10514000610F711D635071096034710520F4402FA7
:10515000C4010E94E92A165083E0C80ED11CBE018A
:105160006E5F7F4F01E0212FA601C5010E94A02F95
:10517000CF0DD11DBE0163507109212FA601C501BC
:105180000E94A02FDF91CF911F910F91FF90EF9080
:10519000DF90CF90BF90AF909F908F900895EF9247
:1051A000FF920F931F93CF93DF93EC017B01142F9A
:1051B00000E021E042EA5EE160E070E080E090E043
:1051C0000E947C2C01E021E042EA5EE160E070E0B8
:1051D00080E490E00E947C2CEC85F0E0EE0FFF1F55
:1051E000E852FD4F4081518100E021E064E170E030
:1051F00085E090E00E947C2CED85F0E0EE0FFF1F33
:10520000E852FD4F4081518101E021E064E170E00E
:105210008BE690E00E947C2CF7018681978163E009
:1052200070E00E94CF34892B69F48C8590E0019660
:10523000837099278C872D8530E02F5F3F4F237037
:1052400033272D871123B1F04EE561E370E081E152
:1052500090E00E94E92A4EE563E370E081E190E08E
:105260000E94E92A01E025E34EE661E1C7010396C9
:105270000E942430DF91CF911F910F91FF90EF900A
:105280000895CF92DF92EF92FF920F931F93CF93E7
:10529000DF93D22FE02FF0E0EE0FFF1FE254FD4F1F
:1052A000C080D180C0E010E1120FE42E440FFF084F
:1052B0008C2F8170C0FD80E1C23010F46D2F01C0D1
:1052C000612F70E00C2F21E0A601F701E80FF11D1E
:1052D000CF010E947C2CCF5FC43051F7DF91CF917A
:1052E0001F910F91FF90EF90DF90CF9008958F92D4
:1052F0009F92AF92BF92CF92DF92EF92FF920F9365
:105300001F93CF93DF93C22F102F802F90E0880F31
:10531000991FFC01E055FD4F80809180FC01EE5506
:10532000FD4FA080B180D0E0FC2EFE0CC42E440FB7
:10533000DD088D2F8170D0FD8AE0D23010F46C2F03
:1053400001C06F2D70E00D2F20E0A401F601E80FE1
:10535000F11DCF010E947C2CDF5FD43051F7163055
:10536000C9F0D0E0EC0E8D2F8170D0FD8AE0D230F4
:1053700010F46C2F01C06E2D70E00D2F21E0A501FF
:10538000F601E80FF11DCF010E947C2CDF5FD430C5
:1053900051F713C00C2E000CDD0B00E021E0A5013D
:1053A000BE01C6010E947C2CBE016E0D711D02E083
:1053B00021E0A501C6010E947C2CDF91CF911F91B5
:1053C0000F91FF90EF90DF90CF90BF90AF909F90A4
:1053D0008F9008951F920F920FB60F921124CF92C3
:1053E000DF92EF92FF920F931F932F933F934F9370
:1053F0005F936F937F938F939F93AF93BF938091AE
:10540000E7039091E803A091E903B091EA030196C4
:10541000A11DB11D8093E7039093E803A093E903D6
:10542000B093EA03492F5A2F6B2F772767FD7A95A0
:105430002091000124236C017D0139E0F594E7946B
:10544000D794C7943A95D1F74C295D296E297F29C5
:10545000489F402D112442238C019D015DE035952C
:105460002795179507955A95D1F7082366E0B595C6
:10547000A795979587956A95D1F7802B8427809378
:10548000CF00BF91AF919F918F917F916F915F916D
:105490004F913F912F911F910F91FF90EF90DF90CF
:1054A000CF900F900FBE0F901F9018950F930FB7CE
:1054B0000F931F9211248F939F93EF93FF93EAED25
:1054C000F3E08091E20391E08D5F8D3710F08D570E
:1054D00093958093E2038081890F80839181911D50
:1054E00091830281011D02838381811D83830927AA
:1054F0000F70092702950093E10335D081110093C5
:10550000DF03803989F40091E003901B963070F03E
:1055100087E7809300088093010888E198E08093F2
:10552000600090936000FFCF9093E0038091DE03D2
:10553000815018F08093DE0359F3E3EEF3E08081AD
:10554000918101968083918382819381811D911D38
:1055500082839383FF91EF919F918F911F900F9181
:105560000FBF0F9118958FB18095807F669B8860E3
:105570001C9B84600895CF92DF92EF92FF920F936D
:105580001F93CF93DF936C017A018B01C0E0D0E0D1
:10559000CE15DF0589F0D8016D918D01D601ED9111
:1055A000FC910190F081E02DC6010995892B11F441
:1055B0007E0102C02196ECCFC701DF91CF911F91F0
:1055C0000F91FF90EF90DF90CF90089508950E9483
:1055D00016369C01240F311D1216130674F58038FF
:1055E00091055CF5FC0197FF02C0E0E0F0E0213896
:1055F000310514F020E830E02E1BAB014770552731
:1056000081E001C0880F4A95EAF777FF02C0695F21
:105610007F4F93E0759567959A95E1F77695762F8C
:10562000662777956795E60FF71FE451FC4F2150E9
:1056300020F09081982B9193FACF08952F923F926A
:105640004F925F926F927F928F929F92AF92BF9292
:10565000CF92DF92EF92FF920F931F93CF93DF933E
:1056600000D000D000D0CDB7DEB77B014115510589
:1056700009F429C1FA01D490319674914E5F5F4FBD
:10568000AD2DB0E0222309F1E72FE695E695E695EA
:10569000AE2EB12CE1E0F0E0372F377011F4E0E0EE
:1056A000F0E0EA0DFB1DAE9F5001AF9FB00CBE9F16
:1056B000B00C1124033011F4AA0CBB1C2A9DF0017C
:1056C0002B9DF00D11244E0F5F1F0F3F09F402E0D8
:1056D0005C01AA0EBB1E1A141B040CF0F4C0803827
:1056E00091050CF0F0C09701270F311D121613061B
:1056F0000CF0E9C0F0E4EF16F1040CF0E4C0411541
:10570000510509F4E0C02E2D27702D839701F7FE77
:1057100002C0295F3F4F63E0359527956A95E1F711
:10572000F22FF7FE05C06D81662311F0FFEFF20F37
:1057300097FF05C022273327281B390B02C020E022
:1057400030E0E0E8AE16B10424F060E8762E781A76
:1057500001C07D2C721AEF2E0F2E000CFF08FF3FA8
:105760001CF4CE2CC09401C0C12CE1E0672F6770FF
:1057700009F4E0E07695769576959E2E970EE90CE5
:10578000F11C69E0E616F1041CF0E8E09E2E9F1A79
:105790001C2D1F0F60E81603800D911D1124820F30
:1057A000931F61E070E00D8002C0660F771F0A94BE
:1057B000E2F7033011F0E1E001C0E2E0EE2EF12C5F
:1057C000CD9C200D311D1124E29E5001E39EB00CB2
:1057D000F29EB00C11246A01CA0CDB1C9701215007
:1057E0003109A20EB31E4A0D5B1DBB24BA94B69EAE
:1057F0009001B79E300D1124290140945094F90D69
:10580000FE83A719B109EA9FA02D1124B0E0E79DFE
:10581000A00DB11D11242E81121709F454C09C0152
:1058200024513C4F4A015601612C671409F443C0CE
:10583000F5013490369EF001379EF00D1124FA8365
:10584000E983E095F095FC83EB83023019F45C82E8
:105850004B8210C00B3F19F41A8219820BC0F4015D
:105860003490369EF001379EF00D1124E095F095AE
:10587000FC83EB8317FD09C0F9013080EB81E32144
:10588000F9813E2E3F2AF9013082FD81FF2359F034
:1058900017304CF4F901E058FF4F20803C80232062
:1058A0003A80322830828E0C9F1CAE0CBF1C639451
:1058B0002F5F3F4FBACF1F5FCA0EDB1E4A0F5B1F21
:1058C00080589F4FA8CF26960FB6F894DEBF0FBE24
:1058D000CDBFDF91CF911F910F91FF90EF90DF909F
:1058E000CF90BF90AF909F908F907F906F905F9080
:1058F0004F903F902F9008952F923F924F925F923A
:105900006F927F928F929F92AF92BF92CF92DF92CF
:10591000EF92FF920F931F93CF93DF93CDB7DEB734
:1059200061970FB6F894DEBF0FBECDBF7C014A0170
:10593000FA0134913196E491832F8F778F5F282E6F
:10594000312CC701820D931D97FDA1C1F0E8EF1620
:10595000F1040CF09CC18E2F8F738F5FAB01480F49
:10596000511D57FD94C1603471050CF090C1331F77
:105970003327331F3B8331E0E6FF30E0EE1FEE2795
:10598000EE1FEF83AB0177FF04C044275527461B6A
:10599000570B5A0117E0A122BB24AB0177FF02C0CD
:1059A000495F5F4FDA0153E0B595A7955A95E1F746
:1059B000BA83A98377FF0CC0A114B10449F01197F1
:1059C000BA83A98348E050E0FA01EA19FB095F01B4
:1059D00041E050E06A010A2C02C0CC0CDD1C0A94A4
:1059E000E2F7D986C886982F9695969596958770F2
:1059F00011F4892F02C081E0890F482F880F550BC1
:105A00005E834D83502F52705A8701FF06C0AD81CF
:105A1000BE81119781E0382702C0A0E0B0E0602F7E
:105A200061706C8300FF04C0B1016150710902C054
:105A300060E070E097E040E150E080E0612C712C84
:105A40008101015011091C870B870D811E81A01750
:105A5000B1070CF01CC1B7FD1AC18A01CC24C39454
:105A6000D12CF80143E0F695E7954A95E1F7E80D6A
:105A7000F91DE491F0E0A8014770552702C0F595A3
:105A8000E7954A95E2F7A8014F5F5F4FE0FF05C039
:105A90001FEFC11AD10A8A01E4CFE1E0CE16D1048A
:105AA000E9F4FA01F695E795F695E795F695E79509
:105AB000E80DF91DE491F0E0477055272F0102C071
:105AC000559447944A95E2F7F1E04F2255244FEF61
:105AD000441A540AA8014E5F5F4F41C0860101502D
