:100000000C941F0F0C94470F0C94470F0C94470F40
:100010000C94470F0C94470F0C94470F0C94470F08
:100020000C94470F0C94470F0C94470F0C94470FF8
:100030000C94470F0C94470F0C94470F0C94470FE8
:100040000C94470F0C94470F0C94470F0C94470FD8
:100050000C94470F0C94470F0C94470F0C94BB243F
:100060000C94470F0C94470F0C94470F0C94470FB8
:100070000C94470F0C94470F0C94470F0C94470FA8
:100080000C9421190C94470F0C94470F0C94470FB4
:100090000C94470F0C94470F0C94470F0C94470F88
:1000A0000C94470F0C94470F0C94470F55125512A0
:1000B0006712DE12A713451468147E1488148E1478
:1000C000911491149114DB2FF82F153030304B30F0
:1000D000663066306630EA308330A030B730CE30DC
:1000E000CE30596F757E757365647E617E6865611B
:1000F0006C696E677E7370656C6C2E0A2020207EA2
:10010000596F757E686176657E6761696E65647E2C
:10011000380A202020207E65787472617E48507EE7
:10012000706F696E74732E007E596F757E7573657E
:10013000647E617E706F69736F6E7E7370656C6CC8
:100140002E0A20207E4465616C7E327E6578747252
:10015000617E64616D6167650A2020202020202077
:100160007065727E7475726E2E0020596F757E7583
:100170007365647E617E666972657E7370656C6CA2
:100180002E0A2020207E4D6F6E737465727E6C6F18
:100190007365737E31300A20202020202048507E55
:1001A000706F696E74732E0020596F757E7573655C
:1001B000647E616E7E6963657E7370656C6C2E0A09
:1001C00020207E4D6F6E737465727E69737E6672D9
:1001D0006F7A656E0A2020202020666F727E6F6E17
:1001E000657E7475726E2E00557067726164657EEF
:1001F000796F75727E576561706F6E2100202047A0
:1002000061696E7E616E7E41726D6F75722100470D
:1002100061696E7E617E4865616C696E677E57615B
:100220006E6421004761696E7E617E506F69736FF5
:100230006E7E57616E642100204761696E7E616E3B
:100240007E4963657E57616E642100204761696E57
:100250007E617E466972657E57616E64210003058A
:1002600007090C010101010101010102020202045E
:1002700004040808456E656D79204B696C6C6564F3
:1002800000596F757E6B696C6C65647E7468657E01
:10029000426F73732E0A000909AAFF0101000101D0
:1002A000010001010100010101AAFF00010101009B
:1002B0000101010001010100010101000104080028
:1002C0003E1C08090900FEFEFEFEFEFEFE000000C8
:1002D00000000000000000FEFFFFFFEFFFFFFFFE39
:1002E000000101010101010100FEFFFBFFFFFFBF53
:1002F000FFFE000101010101010100FEFFBFFFEF50
:10030000FFFBFFFE000101010101010100FEFFBB37
:10031000FFFFFFBBFFFE000101010101010100FE23
:10032000FFBBFFEFFFBBFFFE000101010101010167
:1003300000FEFFABFFFFFFABFFFE0001010101016B
:1003400001010011AFEFC6A2002C24C0420060D111
:10035000F11038F281D000022000200008000220B5
:10036000010CBD73E633B00608002A08480202C03B
:10037000025977E004C047F63406828242301E0EEE
:100380002F80C9003E31752A02484568141DF311BB
:10039000100EC0398F7A436EC80DBCF93D0FBF3FB8
:1003A000E994E3D83F66F9BD8FFE84E51847AEDBDC
:1003B000EF66DC7F60797972DC7A5A9775CAE7EE6E
:1003C000CBDFF9F637020FBF7FFFCF79EC691DF65F
:1003D0003C65FE6E7F9DA783F76739CD79EA91EF83
:1003E0003DFD915F9BF91D2B3F37075AB709C8C2E6
:1003F00061041091028A01B0B203CB3AD0FA4719D6
:10040000B2100826EE0C8E20016C08E0B0A4100794
:10041000087114265B02D810C0806736935FBC0F4A
:100420000002B7BD25149980080C406452042E08C0
:100430001408029341111880080C8A8430994CA04A
:100440004828A0F667EC0D028070DEFBA30316803F
:1004500000084402422829C0027E973B93CD667370
:10046000D5EA4000040039EDFDE91E5D0E60B18063
:10047000E5B13F95E1409440B301805A18C2005A5B
:100480005252FEE26E8618C0C072B280C900168B4E
:100490007F1E6BFBEFAABBBF0B297FEFB3DD584973
:1004A0009432C12271C86298FC39992CA084925E62
:1004B000286111874160186258948D4306B0582C0A
:1004C000FE4E8420652265005206206500520620FB
:1004D0006550D21013B09082050B0E603081C56458
:1004E000C29C3060426142410A05122850A1C0629C
:1004F000F139F63C80088880088887E9DE5FED26C0
:10050000861026240491D098BDF73ECC1D9AB93EA2
:1005100096A3CBE572B9BC6699C4C4C157180EA6A0
:1005200006A646270C39CCAD952131D9FEB51C2C39
:100530003010A1C0624E9848000734E00007B0D8E0
:10054000FCD3D8FFB44CCC8F00A77FD9261240161D
:100550008E7F127BDF40000EFB17B3F99BEC7D060C
:100560000140D8FB6754054A9002933FD0DE270430
:10057000000190A1D52B9BCD6666FB97A4A1A10598
:100580000638A016009CFCFE710326152A4C8A1C16
:100590001BBECE620183092C360B22C3CDE6077544
:1005A0000F5800C0BE6F00400060EFDFE95EBF7310
:1005B0001F862A511793A86A06ECFDFBBAFBFBB213
:1005C000BB3B011000010001100010000180027A05
:1005D000D803910F2E9E74B07A6B81C5E781B72D39
:1005E000323C76B07A7420051F03090F97059349B2
:1005F0000010900020200140E0305F00200020002B
:10060000020002200000090F2F174C2602120004DE
:1006100024C0BB7D0700040001400000090F5F5C9F
:10062000309904F8DE7E000000090F5F5E30F9FAB1
:10063000BE03090F5F5C30997C75BF03090F2F174C
:100640004C2693C9E4F5FE1E090F970593C9643241
:10065000994CAEFBFB090FFC7900090F5F5C3CFB7A
:10066000DE7B090F5F5A3CFFCE7700090F2F169FE4
:10067000BD7F1F090F2EFE2C0707410C1A3C1E0CD4
:10068000410707000C3A163A0C000707002A1836F3
:100690000C2A000707001A2432241A004D6F6E73CB
:1006A000746572202020202020202020357E444D9B
:1006B0004700466F756E647E536869656C642020E0
:1006C00020202B317E4152005768657473746F6E21
:1006D00065202020202020202B327E585000466F9D
:1006E000756E647E4D656174202020202B317E461E
:1006F0006F6F64004865616C74687E506F74696FD9
:100700006E2020202B327E485000466F756E647E2E
:100710004C6F6F742020207E2B327E476F6C6400FC
:100720001B1F3F8BC562020318C060B3F94BEC730B
:10073000133184014409A627F7FA112C168BC9023C
:100740004A58C0A20409252C4A589420A184451077
:10075000085260B1D96CFED21B9FDF646472451CE5
:100760009B27AD02A584F49772CF4610162C5860D3
:10077000848211162C5820C8CE9DDF014C00000049
:100780000046669220D48164051916244966060045
:1007900000000013F87D7CCDAFF17D1B5FEF79C1C8
:1007A000CAE218080081BC01160BB875008B1B3F0C
:1007B0008E23A7B5194802008041008475E5017FAA
:1007C00081FD0E0004000400E69F8BC562028BCD04
:1007D000EF021B9F9F62667044C6903B87D4D18C0A
:1007E0000E85E92FE8040240A5820242540010540D
:1007F00080408C131800006C0137606001411622A4
:10080000B20865F16C954013002A062888A110D91A
:10081000102155B0414D6A0000500000000D00004D
:1008200081041184F1433C2237E4D61B72EB0D3C6A
:10083000FA391B9F3F9C1B72E6D75092580E1A0440
:100840005021D30A384B03C445E93ACC41198423DB
:1008500077AEFCB206D04A2E344218288380250B8E
:1008600076B1D00FF5D65B6FBDF5861C3D0AB7DEBD
:100870007A046EBDF50A1B9F5FE690700C2C00C9D0
:10088000AD838AD0457F94B3F18DA7392F6301E9F9
:10089000691D260C38A0EFF828CFBA8E2CCE90090F
:1008A000F3C4990D5C24B6E5989FC935B71E3DF396
:1008B000B51CB90303081F051F1F151B1F11111FAE
:1008C000110E1F15111F05011F111D1F041F001FF1
:1008D0000010101F1F041B1F10101F061F1F011FD9
:1008E0001F111F1F05071F311F1F051B17151D0196
:1008F0001F011F101F0F100F1F0C1F1B041B071CB5
:10090000071915130C121E1F120C1E12120C121FA7
:100910000C1A14041F052E2A1E1F021C001D002085
:100920001D001F041A011F001E041E1E021E1E129F
:100930001E3E120C0C123E1E020614120A020F1268
:100940001E101E0E100E1E081E1A041A2E281E1A25
:1009500012161F111F121F101D151711151F070446
:100960001F17151D1F151D01011F1F151F17151F0F
:10097000001700001000040404040E040229060AF3
:1009800000003FFF705A4B175BBB1D6C169BA5AB5D
:1009900070E4EAD5AB460A9A8357AF5EFDD3849CD8
:1009A000FAAB582E5529D8B6158A142952545D9E93
:1009B00098805C00B9007201E402C805900B201712
:1009C000402EC0DF2737E512BC18BED5CB52CA7007
:1009D0006075B3485042001C27DFF00F8F74D51AA2
:1009E0001A3F202B2D6921B1B4FFFC98B5C15AAC38
:1009F000EFD0430C20903000807000C2897F699C4A
:100A0000D6D2C5D66EC79B4007091000E09F23CB06
:100A1000A52A05DBB64261F26202E8BFCA5E9652C1
:100A200086BBBA596C1645D7897F8834100000F808
:100A300004C4A464A4E4C404040464846404844476
:100A40008404C404C40404E424C404A404844484C6
:100A5000048444E4040404C4E4A464A4C404F800C6
:100A60000000000F101013111311101010101013AC
:100A70001010111211101112111010131211101365
:100A80001011131210111213101010101113111352
:100A900010100F000017F74F912041063290B74019
:100AA00081DF0A1C0870EB06C24340E067DBC01818
:100AB0008CE17B107E77411725AC3E477E7A420958
:100AC000AC43DEB15CFC4E26A3459A91F7DCF87D81
:100AD000BDE5B42EE26BE002FC2E8BCF7B636DB0E4
:100AE00096524B69B43756CE9C73EBADB74CD7BF1B
:100AF0001EF9EF1347FF5F21E4BF565900060C12A1
:100B0000630008021001011F2020010140001000B5
:100B1000040021080813170160F11D160B2850006E
:100B20000A2C60B1F90A02800020005060BB8102EB
:100B300000028000200008000280002050AE141047
:100B400000040001400010000400010001589C58FE
:100B500000140004284F2800028000200008000034
:100B6000D5F08D14A1C881CFD9F1AF20000D0F971A
:100B700025132A54264626512645E6BACF090318DE
:100B80003061C0840113064C98070D0F93A62C0CFE
:100B9000180114440014134CD8D96CA63AA00600CE
:100BA000182AB050056A203054CE0D0F57EB606103
:100BB000C00815065031C184ED76F701124A3003A2
:100BC00090380C123697110D8F0F09259409260BBA
:100BD0002C8B20E12B710DC3258E15B99835720031
:100BE0000DCF6FA1B00181DD130CF8A6270607F425
:100BF00042042880E10D0D8F8F0499A081828250DC
:100C00009830493E3A064304415246C2913B0DCFCB
:100C1000274919AA40A30205D414501D34F866D4FC
:100C20001128A8000540000AA04221C38E030DCF61
:100C3000A76494F01AC0AB5200441F05201428A1E9
:100C400000D83084C1CCAD47003A7E53756E6B65D9
:100C50006E7E4B6565707E6F667E4F6721003A7EC3
:100C6000466C616D696E677E556E646572776F72F2
:100C70006C64003A7E556E646561647E43617461A4
:100C8000636F6D6273003A7E506F69736F6E6F753C
:100C9000737E44756E67656F6E73003A7E54686547
:100CA0007E426C61636B7E53657765727300506939
:100CB0007420202020207E2D327E48502C7E2B4612
:100CC000616C6C004D6F76696E677E57616C6C73FA
:100CD000202020202D317E585000537072696E679D
:100CE0007E426C616465202020202D317E485000BA
:100CF0005275737465647E41726D6F757220202029
:100D00002D317E41520054726970776972652020DE
:100D10002020207E2D317E476F6C64004D696C640D
:100D20006577202020202020207E2D317E466F6F89
:100D300064001B9F7B15000098C007C64BCD81FB4C
:100D4000F81630010080AEFB010000000000427880
:100D5000CE60D8C9396E0E7C8110000000000038CA
:100D60003C590013008003378EDCC02B47E098A766
:100D7000DC3800003001D6A7B9722C5C80734EE3DA
:100D8000C8EF011BDF178738557CCD62B317EC75B0
:100D9000D9739E780A822E10CB0B5BC418113FC00A
:100DA0004891CC4B6F0513307C03C4A1206A79C3F2
:100DB000027583DFC9C8A98B299429D4F205F150A3
:100DC0005CFE021F70895C3902D79C809F011B9FCB
:100DD000872CC86488B840445822C212F100C2056A
:100DE00072E47B22D45804F12E8661848ADF643950
:100DF00080051458A0C2021516A8B0408532032BF6
:100E00006FC0C10215169BC566B131B0596C046044
:100E10006360232194450C8B812C42F9253EE0121E
:100E200039721CA7FC1C1B9F0FC0F0007C033E50B6
:100E30002F826E110E5C8427E3065E224F61EC0860
:100E40006C306C67C76690A8080E4592305C54CE33
:100E500084B0D553E46DCEC0C93BB099286E004E26
:100E60008C4A18C85637F080CD91F07DAE1C3117F2
:100E70005E70249C809F031B9FAF91458D0E58127E
:100E80005C0220B120242008820208A0113146C44F
:100E900068901BF2491426CCBD0538F28050A4049A
:100EA0009475E9171CE0F0B9885BC42DE216712B2C
:100EB00092148003145452009A82AEC20DDC226E4A
:100EC000117F8A0FB8448E9E10B88C5F031BDF6FB2
:100ED00043600904661E87C01208CC3C0E812510B1
:100EE00098F9093CA43CEEA5705807C29527DC2868
:100EF0009F61B180052A2C08C802221840020B828B
:100F0000B0608101244001284880C502032C60B1F3
:100F1000F8093EE012B972EA715C8227BF0B00004B
:100F200001010202020303030404040404139F07E3
:100F300000C2993367DE72E6CC9900F00200F8FD3A
:100F400000C00B00E0F70300AF8070E6CC99779CFF
:100F5000397326C01101020203040405170824177F
:100F6000082417FF1313273B3B4F05E742D435AA4C
:100F70001D70447561DB02A7E81AEE0D5C2A69B4A6
:100F8000371200D344DD9909C7E6AED9D1BB23207F
:100F900018090737474696A72C21815A17F74F9112
:100FA0002041063290B74081DF0A1C0870EB06C270
:100FB0004340E067DBC0188CE17B107E774117254A
:100FC000AC3E477E7A4209AC43DEB15CFC4E26A3C0
:100FD000459A91F7DCF87DBDE5B42EE26BE002FCAA
:100FE0002E459F371620002560E2707AED7C76F55D
:100FF000EA06A29090A10322DA553B44060CCD6785
:101000001DB9682F9ED06B0FE809BDE6825E855B37
:101010004EDC2057E5EA05F8101740000AC4803975
:101020007472EAE70086A7591C51340828591686BD
:10103000B54162B8F0D241B0C79662CA4E19B0E469
:10104000CC35AF3973E735677F1C020B0805BBFB56
:101050007AB3CDB4EE180324B20A37E0FB632183E0
:1010600005C0691C0347E0C8193812E60827E0E606
:101070005F0D814D38FAC0CBB8406EC0959FE7DD5B
:10108000AB57AF5EBD7204CE5E3922BF06010505C7
:1010900006000503060004020500030103132A4AA3
:1010A000600F170E0BD7876301188E4EC41E818503
:1010B000081C9D40FB2B861CC8383A9178ECE658FA
:1010C00039241C7A34C8EA6DFC94217BDC0CB27A9A
:1010D0006B383B11C6AF18B2C7CD800B388ED3002A
:1010E00045DF7FB0EBDA1D8E7D71DEA7F33EBDECF0
:1010F000B65E5F5CFF68F6D65B57D204D35B4F33B6
:10110000E7398E5ECD8E578F635E3B4FB93A1B3306
:101110006BC770B477BC7A752E0ED3AB57B9335604
:101120006FBD35C134A31D303F34BAE8173267E6CE
:101130002D5767633ABDE6B4733B8CA3575312AF88
:101140005E33CF5D47AF7497ABC7319E7D2ACB8CA2
:1011500075E87F2F0002020202030303030303006A
:101160001008040201011F202001014000100004AA
:10117000002108084E6F0059657300090900FEFE42
:10118000FEFEFEFEFE00000000000000000000FE6B
:10119000FFFFFFEFFFFFFFFE000101010101010161
:1011A00000FEFFFBFFFFFFBFFFFE00010101010189
:1011B000010100FEFFBFFFEFFFFBFFFE0001010189
:1011C0000101010100FEFFBBFFFFFFBBFFFE0001AD
:1011D00001010101010100FEFFBBFFEFFFBBFFFEAC
:1011E000000101010101010100FEFFABFFFFFFABA8
:1011F000FFFE000101010101010100457661646506
:101200007E747261703F008DD73DF13EF3F0AD7B8F
:10121000B3673E7630714E0781B2F2398E812E046B
:1012200089D73DF1B1C3E5DCECB91E5F1D04CAF2FC
:10123000CE91303609973BF3F031E6F732777A23D7
:101240001C799E45210C0F0FBF74C1E4D7EE3B0FF4
:101250000FBF6CC16432F975FB3D0F0FBF64C164F1
:1012600032994C7ECDFE1E0F0F5F5E30994C269357
:10127000C9E4EBFBFB0F0F5F5A30994C2693C9640E
:1012800032F9DAFE3D0F8FEF56B82137E486DC9055
:101290001B72E3E1FE7D0F8F7B851B72436EC80DD1
:1012A000B92137E4C661FF5E48656C6C3A0048615D
:1012B00072643A004E6F726D616C3A0045617379E9
:1012C0003A00207E596F7520616C72656164790AFD
:1012D000206861766520656E6F75676821007E59AC
:1012E0006F7520646F6E7420686176650A206F6E7A
:1012F0006520746F2073656C6C2100202020596F6D
:1013000075206E6565640A20206D6F726520676FB9
:101310006C64210055A7FFDE008087810520393AE3
:1013200011915B17626F3DA067A710E015F0E71001
:10133000C8188CED1BE0B723030199489037C04FC4
:1013400004005E8E45C709720B0840C7654C46DE37
:10135000007FAC21B0C6A9E5E023E0A7775011BA21
:10136000E823E0270200FF765819CE3A3A020E5FD2
:1013700001BFDD15501881F80AF88900C0BFA9AA7D
:10138000842261F40DF0D3C181042D12F011F01309
:1013900001805F3A1660AE9DD4B34318C011285245
:1013A000E00A1429F09121B0064F1FA60419C0408D
:1013B0000A86634A082184E646C8281226A19D446D
:1013C000000108001542919051246CA00004800097
:1013D000D04EC298219C98CC6E26413A0E0C989320
:1013E0000205200004807612C60CE14400C6A42940
:1013F0002184109A1B21A34898847652160001205C
:10140000C843160B10408020B0D96C5E335D9C99A8
:101410002E6032F9D52C26933F1BD3CFB0588000D5
:10142000020481CD66F31D360B28000516C3C5F7EF
:10143000086D08B794104208CD8DD950A4A8744CFB
:101440009E12324268464AD010427363763351C9C5
:1014500092A2C155242C83D049534208053A269FB5
:1014600060B38005142830FC3E6B8570C655244C53
:10147000423BB9A50004800A9F4A099BC9444273B4
:1014800014400000004001A01C5C6E240004802079
:10149000DFC155A44811C53BAE495342082134C7AA
:1014A00094104208CD31258450206BF2124797B931
:1014B000C1155CF39DEB3E79C77CD79E5F9E99F783
:1014C000E9A2A78F9DF026A727A387661E3ACECC58
:1014D000FB74D1D381799F59336BDFAF7895373265
:1014E000073D3FBFEFC972CF07EFEE0B7AEF7726CC
:1014F000FBBE998F5F303E715FD07BEFF705AE9DED
:10150000F14AB9A0A71C3117CE984BE4CC655D38E1
:10151000E788B944CE5CD68572599F162FE2D73C36
:10152000E50B5CD6857259672EEBC27D5C100A0014
:1015300030000A00300030001FE737168F9005207A
:101540005E9D4280D3388D576C54368BCD62A3B2EA
:1015500091B0597C4F00590AC814DE02021B782D45
:101560004075C8C316156448FB6900748AB80178D1
:101570000B086CE0B500D5210F5B549021ED77A9E5
:10158000403410A2F53120B081D70254873C6C5111
:101590004186B41FAF4C2687BC050436F018290BD2
:1015A000017CD7B240C6EC3B1FFF37166F860A009E
:1015B000A05CB2585E5360F5119B209BC566B1518B
:1015C000D948D82C3E40721943F716F02120B0813B
:1015D0002F20C1519EB5A82043DA8F4B4554509619
:1015E0008F01810D7C01514779D6A2820C693F9809
:1015F00079594D9642DE01021B788C1415017CD777
:10160000A2820C69BF2D802C05640A6F01810D3CFC
:1016100016405404F05D8B0A32A4FD34003A45DCD8
:1016200000BC050436F058005111C0772D2AC8902F
:10163000F6BB54201A08D1FA1810D8C063014445EB
:1016400000DFB5A82043DA8F57269343DE02021B42
:10165000785C9085C4772D0B64CCBE0301087E3F77
:101660003F3F97E160B1584C1693890006900012F5
:101670004AA8D3E9BF3213F3BDACB61104015270CE
:1016800098B000800238A06BACFC3361B1582C9A42
:101690002FC635130800010000200024C0C4D90063
:1016A0001400100058309C2B2B23CBC99FD481846D
:1016B00066F1FBD86C764042D0101A102841021413
:1016C00040001000040001400010001080021800CB
:1016D0008329445D197FB87D66B3D96C369BC96296
:1016E000B2582CD67EEC000A8010A66C4A28412005
:1016F00008088004519120000220000200F39EF1AE
:1017000097DA3F7BD706102820903ABC8E9D9740F1
:10171000014000100004000140001000040001C05E
:1017200039D91F630125888A08000411D1120A2CB7
:101730003EB27FF7868083C567E7E6215000400010
:1017400010000400014000100004000160EF8E0F43
:10175000030002E064B23F9B1F9F1F978FB0596C3C
:10176000169BC566B1B9E6C06432335A70021001E7
:101770005C2E974C0AB6ED600107BFFF7FC69CE662
:101780003CF9EFE1EFEEE18FFF6FE2B04EF973FE4F
:1017900033CAE94FF5EF2AE3EFF3EFEB0B1CC21866
:1017A000479EE734131EFF23FBE477BFF7EF2C9728
:1017B0007559977C7C5D1610705110020157BFCC93
:1017C00095AB0E01DDD62058B73508D66D0D2EBD70
:1017D0007AF5EAD5AB57AF5EBD7AF5EAD5AB578F50
:1017E000320F73E5EAD5AB57AF8E51AF5EBD7AF5D8
:1017F000EAD5AB57AF5EBD664DF613660647640C7F
:10180000B973481DCDE850987EC0230017100E50C4
:10181000D83060C18205290B162C58304139F99D0A
:10182000BDF7F7BCC8AA6308E7BFDBFD5B08C200D1
:10183000848210203080020B10994CA0C0120457F3
:10184000804ACA905C2417C94572918C0D47E032DA
:10185000C22C0C98F3037BEFEF6D00E0B0DF3D1C72
:1018600005CE06991E5BCE4C00C8D5090ABCBD7FCB
:101870001638017202AE5EBD7A056E840302B200B4
:10188000805004004402000808004014008028052D
:101890006A0000500000000181E1EAFBBDF7F73665
:1018A000ACBDDF3D616670453A168F80C1046E2D78
:1018B00030F9D425510CB0800212A0800428B080E9
:1018C000020B28B080020B2820010A2CA0C0020ABB
:1018D0002CA0C0020A2CA0C0020A2CA0C0020A2C14
:1018E000A0C0020A2CA0C0020A2CA0C0020A0C113F
:1018F00093BDEF5CBDCFC33C5C9D9BAB7F9EFBBBB0
:1019000096013D1A4401201C1C042102B3E6A9865D
:101910001868C010FD3613280CC43104EACFD87BF8
:10192000BFE3382EE16004B08230060827E0CF74B0
:101930007FC731772F80BCED61DE98C04568477066
:10194000D4E005387729586073C09281C2AD410652
:101950005842D727F6DEDF13060010062241014069
:10196000E17B03B7089020621772436EC80DB9215E
:1019700037D8673C7AF5EAD5AB57AF1E8C0AA0AAD8
:10198000505529AA22A02A45D5881A6559698C4242
:101990005491AA49353B760CAF5EB3E661E2D1AB18
:1019A00057578635D412868BE9D5AB57AFCED46264
:1019B0006A57EDAA5DB5AB364B261197CF801B78E1
:1019C000E4390FB8019FC981087BBECD91A30017F0
:1019D000FE4211D767CE9C7DCE63E4C8438EC035EE
:1019E00027E0CC31772F80FC910011D7776FC20DA3
:1019F0007CCDEB7C5339303879E798075C227F2423
:101A000011D777E49263E42DAFF345CC695C903B4A
:101A1000C73CE012F9230111D7778EE00D78CEEBA9
:101A20007CB427C88D3BC73CE012F9230111D70FC6
:101A3000B87A045EF33A9F849C841B70E798075C35
:101A4000227F2411D70F380247E035AFF34DE5620E
:101A50003879E798075C227F244F70656E7E636853
:101A60006573743A0A596F757E666F756E647E672A
:101A70006F6C647E6F6E6C7921004F70656E7E6353
:101A8000686573743A0A476F6C647E616E647E7435
:101A90007265617375726521004761696E7E327E81
:101AA000476F6C647E50696563657321005570678C
:101AB000726164657E796F75727E576561706F6E55
:101AC000210020204761696E7E616E7E41726D6FDC
:101AD000757221004761696E7E617E4865616C693F
:101AE0006E677E57616E6421004761696E7E617E1C
:101AF000506F69736F6E7E57616E6421002047617D
:101B0000696E7E616E7E4963657E57616E642100F9
:101B1000204761696E7E617E466972657E57616E9F
:101B2000642100010101010101010102020202041C
:101B3000040408084F70656E7E63686573743A002C
:101B4000D7BF1EF9EF1347FFCF169CBD7AF5CFC163
:101B500099AB675EF3E7F0EAD5337FE6A56B090042
:101B6000108811021638124E8413618E70A1040C75
:101B7000658E70229C403995430C00000027F58249
:101B8000DC908C498910CA858C2237E4863C002A77
:101B9000048C810000B896AE1F1E40200610488CB1
:101BA000400C201015046200811880BDF7DE07D6B6
:101BB000426EC80DB971D827208006B8EC2B72434D
:101BC0006EC80DB92137E4865CF7058802014EFB2B
:101BD000C00DB92137642D0E7BEFBD01620081A8D5
:101BE00020100308C400C60410880104728E174038
:101BF0002E085C2817EA8172C176246314E8025C1F
:101C00003414192CE486DC38EC131040035CF61510
:101C1000B92137E486DC901B7243AEFB024481009D
:101C2000A77DE086DC90C5404ACA1258053A463284
:101C30005AB9500E960B2017CA05818B593BDF4FBE
:101C4000982008140C000501000A06808201A0609B
:101C5000002818000A06808201A06000281800826F
:101C600086800841112188820451900012300014AE
:101C70000C00050340C100503000140C0005034067
:101C8000C100501000A06000282008934FEE0D0006
:101C9000040000101058206B0A37E126DC849B708A
:101CA000136EC24DB80937E126DC849B70136EC2F7
:101CB0004DB80937612C3281000000000000B0F7F8
:101CC000EFD81B0000000000386C3973E6CC993364
:101CD00067CE9C3973E6CC993367CE9C3973DC07A9
:101CE000000000000060EFAF122E0CDAC500A40A5D
:101CF000882860400B02A2000615404840B0E0185A
:101D000082E004CC8EDDD46DB352671D2908822099
:101D10004409C4A0200882203846CD8E21424C8040
:101D2000500406AB6570215C013B97FFC0EFF330B8
:101D30004FB4A86C54362A27E7201B480002C43948
:101D4000C809958DCA4665A3B251D9A86C544E6195
:101D50004C03042001761853D9A86C54362A2DA7B9
:101D600079987716B206087480C014045800022CC3
:101D7000000116807001810E100608081710E80097
:101D8000011680000B0AB000045800022C28C00283
:101D900010600108A3807001016180300A081B40B7
:101DA000800520C002106001084E40180584B190E3
:101DB00005090900FEFEFEFEFEFEFE00000000001A
:101DC0000000000000FEFFFFFFEFFFFFFFFE00012D
:101DD00001010101010100FEFFFBFFFFFFBFFFFE4C
:101DE000000101010101010100FEFFBFFFEFFFFB48
:101DF000FFFE000101010101010100FEFFBBFFFF29
:101E0000FFBBFFFE000101010101010100FEFFBB5C
:101E1000FFEFFFBBFFFE000101010101010100FE18
:101E2000FFABFFFFFFABFFFE00010101010101015C
:101E3000000102040810204080001D2D192D1124DE
:101E40001FBECFEFDAE0DEBFCDBF12E0A0E0B1E011
:101E5000EEE4F6E602C005900D92AE3DB107D9F76B
:101E600027E0AEEDB2E001C01D92AA3BB207E1F758
:101E70001FE0CEE1DFE004C02197FE010E94E231C5
:101E8000CD31D107C9F70E94F12D0C941A330C946F
:101E90000000FC0190E0DB0158968C91981788F4C3
:101EA000DF01A90FB11D5D964C935D97411107C0ED
:101EB00056961C92248D222311F02150248F9F5F6F
:101EC000EACF0895AF92BF92CF92DF92EF92FF9246
:101ED0000F931F93CF93DF93EC016B01FB0186817E
:101EE000978164E170E00E94CE31FF24F3948B303F
:101EF00008F4F12C41E0B601CE010E94541700E035
:101F000021E042ED55E060E070E080E090E00E946A
:101F1000611FF6018281873059F0883011F08630D8
:101F200071F446EC53E079E9A72E74E0B72E0BC0AC
:101F30004DE953E067EEA62E63E0B62E04C040E004
:101F400050E0A12CB12C00E020E060E070E085E5DD
:101F500090E00E94611F21E0A50160E070E08AE34B
:101F600090E00E94611F21E049E455E060E070E0EC
:101F700083E290E00E94611F8C85811114C0FF20D4
:101F800091F019868F858A3010F02AE001C025E093
:101F9000EE24E39407E042E050E064E170E0C60123
:101FA00003960E94C92C15E11E831F8382E0888757
:101FB0005E01F2E0AF0EB11C6F85C5010E94552491
:101FC00081E089871E831F838AE088876889C5012D
:101FD0000E9455248C85843019F08E85843079F5E3
:101FE00000E021E043E453E063E170E080E090E052
:101FF0000E94611F15E11E831F8387E18887F60118
:10200000638DC5010E9455241E831F8381E288874A
:10201000F601648DC5010E9455241E831F838BE247
:102020008887F601658DC5010E9455241E831F8394
:1020300085E38887F601668DC5010E9455248C854D
:102040008250823038F08E85833021F08989883043
:10205000C9F416C010E0F601808D1817B8F7FE011C
:10206000E10FF11D2AE0129FC0011124228943ECE7
:1020700052E064E370E003960E9405251F5FEBCFFA
:10208000FF20B9F08C85833049F4F601808D880FEC
:10209000982F990F990F890F8D5F03C0843049F4F1
:1020A0008AE120E04DEB52E065E370E090E00E94B1
:1020B00005258C858350823008F5F1101FC0698991
:1020C00067FD1CC064305CF06830C4F4660FF4E057
:1020D0006F9F600D11248BED860F64E307C0660FC0
:1020E000862F880F880F680F6A5E83E070E003E038
:1020F00020E047E952E090E00E942B228C8581305D
:1021000011F020E001C022E041E0B601CE010E94C2
:1021100045168C85883028F4863018F58130E1F03A
:102120007FC0883009F45FC08D3008F079C080E24C
:10213000E82E04E621E14FE0B601CE010E943218FC
:1021400084E18E838F8385E18887EC85F0E0EE0F54
:10215000FF1FE850FF4F55C08D85883009F060C0E3
:1021600042C0873089F0F6018281873029F48A8D58
:10217000853021F42DE003C021E001C029E041E0D9
:10218000B601CE010E944516F60182818730D1F456
:102190003AE1E32E08E527E144E1B601CE010E94D1
:1021A00032188AE18E838F838CE1888761E872E040
:1021B000C5010E94D323EA8DF0E0EE0FFF1FE05F20
:1021C000FE4F1FC022E1E22E0CE328E142E2B601FD
:1021D000CE010E94321888E28E838F838DE188873A
:1021E00064E772E010C069E1CE01DF91CF911F91E9
:1021F0000F91FF90EF90DF90CF90BF90AF900C9435
:102200007F1760817181C501DF91CF911F910F917F
:10221000FF90EF90DF90CF90BF90AF900C94D323BE
:10222000DF91CF911F910F91FF90EF90DF90CF90B2
:10223000BF90AF900895DF92EF92FF920F931F939C
:10224000CF93DF938C01EB017B0184E1E80EF11C5D
:102250008A81873089F0883009F473C0863009F0AC
:1022600074C0E889EF3028F4F0E0E25EF04F64914A
:1022700001C065E06F5F66C0E889EF3028F4F0E0E8
:10228000E25EF04F649101C065E06E5FC7010E949D
:102290009815E889EF3030F4F0E0E25EF04FE49119
:1022A000E23010F083E001C082E02E8990E0820FDE
:1022B000911D8B30910514F08AE090E08E8B8A8D11
:1022C0008F5F8A8F66E070E080E090E00E94AF232D
:1022D000DC01CB010196A11DB11DD82EF801828F22
:1022E000C7010E944D15823018F0F4E0FD15C0F5CD
:1022F000F801228D253089F058F4213030F130E09A
:1023000021503109C20FD31F8B8D8F5F8B8F1DC062
:102310002630B9F0273059F018C08C8990E001962A
:102320008630910514F085E090E08C8B0EC08E898C
:1023300090E002968B30910514F08AE090E08E8B4D
:1023400004C062E0C7010E94981586E0F801848706
:10235000DF91CF911F910F91FF90EF90DF90089543
:1023600087E0F801828FC4CFFF920F931F93CF9322
:10237000DF93EC018B0182E08C878D878E878FEF56
:10238000898BFE017D96CE018196DF011B971C9201
:1023900014961C921192E817F907B9F71A8E1B8E42
:1023A0001C8E19A240E0B801CE010E94490FD8014D
:1023B00012968C9112978730F9F0883009F440C05A
:1023C000863009F044C05096FC9066E070E080E0F2
:1023D00090E00E94AF236F0D6E5F6F87D80150961B
:1023E000EC91EF3028F4F0E0E25EF04FE49101C0B0
:1023F000E5E0EE0FEE5F22C0D8015096EC91EF3091
:1024000028F4F0E0E25EF04FE49101C0E5E08E2FA9
:10241000880F880FE80FE65FEF87D8015096EC91A0
:10242000EF3058F4F0E0E25EF04FE491E53028F44C
:10243000F0E0E25AFD4FE49101C0E0E0E88B07C014
:10244000F8018089880F8E5F8F8785E0888B82E016
:102450008C878D87DF91CF911F910F91FF90089509
:10246000CF92DF92EF92FF920F931F93CF93DF9360
:10247000EC01DB017B0144E1E40EF11C9B01215FD7
:102480003F4F19969C911997909518968C91982387
:10249000EC854E2F50E04D30510508F044C28B01C1
:1024A000FA01EA5AFF4F0C94E23193FF02C085E42F
:1024B0008B8F8B8D863408F036C28F5F8B8F86347E
:1024C00009F031C21B8E8D858C87F80150C082E0E7
:1024D0008E8793FD04C0EB8DE131F0F04BC081E1BC
:1024E0008B8FF12CF801808DF816A8F76E01CF0CB8
:1024F000D11CF601858D81110DC066E070E080E091
:1025000090E00E94AF23DC01CB010196A11DB11D1B
:10251000F601828BF394E6CFF0E0ED59FD4F649124
:1025200070E0F801868197810E94CE31892B09F0F5
:10253000FAC1F12CF801808DF816B0F46E01CF0CC1
:10254000D11CF601858D81110DC066E070E080E040
:1025500090E00E94AF23DC01CB010196A11DB11DCB
:10256000F601828BF394E6CF8B8D8F5F8B8F178272
:102570001682D9C18A89863059F08B89863051F00C
:102580008C89863049F08D89863041F088E007C01B
:1025900084E005C085E003C086E001C087E0898B48
:1025A00080E021E0F801908D891730F4FE01E80FFA
:1025B000F11D258F8F5FF6CF83E068C095FF20C0A7
:1025C0008989883024F02D89263019F413C087308A
:1025D00021F42C89263019F40FC0863021F42B8980
:1025E000263019F40BC0853051F42A89263039F48D
:1025F00084E005C087E003C086E001C085E0898BE8
:1026000096FF25C02989243024F48A89863019F45C
:1026100016C0243021F48B89863019F412C025307D
:1026200021F48C89863019F40EC0263029F48D8966
:10263000863059F427E00AC0273041F406C024E070
:1026400005C025E003C026E001C028E0298B93FFE8
:102650006AC1E989E4300CF466C1E8305CF0E83026
:1026600009F061C1F801408D9E012E5E3F4FF901D6
:1026700080E018C01B8E0E2E000CFF0B3497EC0F61
:10268000FD1F158E86898F5F868B82E08C874BC1FC
:102690009191913039F0890F9381592F550F950FF2
:1026A000990F890F9E2F921B941790F399A1911166
:1026B00095E0D92ED80E2F8530E02D1931092F3114
:1026C000310514F02EE130E037FF02C020E030E0A9
:1026D0002F8740E0B801CE010E94490F8F858111FC
:1026E0000CC0B801CE01DF91CF911F910F91FF90E7
:1026F000EF90DF90CF900C941B111B8E83E08E87A0
:1027000088E0898BDD20B9F01C86C7010E944D1539
:1027100081110FC08C8D811109C085E008C040E097
:10272000B801CE010E94490F81E08C8782E08D873D
:10273000FAC084E0FCCFC7010E944D15811105C08D
:102740008C8D8111A2CF85E0A1CF84E09FCF84E062
:102750008E8797FD02C095FF20C0898984302CF0B8
:10276000F801268D211113C002C01816ACF4F8012F
:10277000238D21110EC082307CF0248D21110BC0DD
:10278000823051F0258D222339F082E005C083E0AC
:1027900003C080E001C081E0898B892F807539F109
:1027A000898983308CF4F801268D211118C087FFA8
:1027B00004C0838D882319F014C018162CF0F8017A
:1027C000848D882319F00FC0813031F4F801858D94
:1027D000882359F082E00AC088303CF007C083E0CB
:1027E00005C080E003C081E001C088E0898B93FFD1
:1027F0009AC08989813039F11CF4882331F0A0CF47
:10280000823049F1833081F19BCFF801838D815073
:10281000838F8F8590E00A978F31910514F08EE1B8
:1028200090E097FF02C080E090E08F8740E0B80121
:10283000CE010E94490F8F85882309F452CF84E08E
:102840008E878AE023CF8C8F89E08C87F801848D76
:102850008150848F68C081E089A38BE08C87F80168
:10286000858D8150858F5FC08CE08C87F801868DC7
:102870008150868F878990E008968531910514F004
:1028800084E190E0F801878B4EC0FB018789282FF7
:1028900030E0888990E04489841B91098333910555
:1028A00014F082E390E097FF02C080E090E0A9017D
:1028B000481B590BCA0157FF02C080E090E0F801A5
:1028C000878B892B09F02BCF81E08C8788E02FCF75
:1028D00093FF09C081E0FB01838BB701C9010E940E
:1028E0005615F80187A38B8D8634E8F48F5F8B8FA4
:1028F0008634C9F48C858E8787E0C8CE93FF13C0D9
:1029000081E0FB01838BB701C9010E94561503C00A
:1029100093FF09C08EE0F80187A305C093FDB5CEF3
:1029200002C093FD10CFDF91CF911F910F91FF90C7
:10293000EF90DF90CF900895EF92FF920F931F9347
:10294000CF93DF931F92CDB7DEB77C01FC010081EE
:102950001181C80169830E9455316981681719F096
:10296000C8010E945D31C7010F90DF91CF911F9187
:102970000F91FF90EF900895FC011486158616863E
:102980000895089580E090E00895089508950895C9
:10299000089508950895089508950895089508954F
:1029A00008950F93CF93DF93FC016A3039F485814A
:1029B000848396818185890F86834BC084816E379D
:1029C00019F48E5F848345C0262FEF0166816F5F07
:1029D0002A3374F42033F4F42B32F1F01CF4213256
:1029E000F9F02DC02D3289F12E3249F52FE319C0AF
:1029F0002B3544F4213464F42A3381F02F33F9F475
:102A000022E40FC09FE9920F9A31C8F4275409C0FD
:102A1000215407C02C5F05C021E403C023E401C09A
:102A20002EE33F81062E000C770B082E000C990B2D
:102A3000313069F40AEF44EB58E00E942B2288857C
:102A40008D5F9C81890F8C8304C020E4EACF0BEF5B
:102A5000F2CF81E090E0DF91CF910F9108950C9437
:102A60007D320C947D320C947D320C947D320C942A
:102A70007D320C947D320C947D320C947D320C941A
:102A80007D320C947D32CF93DF93EC010E948C1940
:102A9000CE01DF91CF910C947D32FC01908587812E
:102AA000890F9185890F9285890F0895FC01DB01BB
:102AB00082818F5F8283833081F030F4813059F0DE
:102AC000823069F481E009C0843039F0853039F40E
:102AD00086E083830DC0138229C0838327C086309C
:102AE00029F481818D3089F48DE008958530F1F4E9
:102AF00081818630D9F028F48130C1F0833029F407
:102B000015C0893099F08D3089F011968C9111970C
:102B1000815011968C931197128211968C9187FD9A
:102B200005C081818F5F8183138214828AE00895BA
:102B3000DC0114968C911497E82FF0E0E450F54FE7
:102B4000E49115969C911597690FE61718F0159664
:102B50006C9308956F5F6E1B15966C9315978F5F3E
:102B600014968C9308950F931F93CF93DF938C014A
:102B7000EB01AB014C5E5F4F9985909528859223C0
:102B8000F8012485213009F45CC020F0223009F4DA
:102B900073C076C0F80185858C3088F466E070E0FB
:102BA00080E090E00E94AF23DC01CB010196A11DE3
:102BB000B11DF801868785858F5F858761C0F80123
:102BC00096859330F9F028F4913041F0923081F0FD
:102BD00033C0943019F1953031F12EC08E8990E0D8
:102BE00002968B30910514F08AE090E08E8B24C021
:102BF0008F8990E002968531910514F084E190E090
:102C00008F8B1AC08D89082E000C990B01968B3082
:102C1000910514F08AE090E08D8B0EC062E0CA014D
:102C20000E94981509C08C8990E001968630910524
:102C300014F085E090E08C8B81E0F80184871586A4
:102C40001FC093FF04C086E4F801858798E0F8016F
:102C50002585263418F42F5F258712C093FF10C0F6
:102C6000F8018685863030F4BA01CE010F960E94B5
:102C7000561505C088E003C093FF02C08EE08FA305
:102C8000DF91CF911F910F9108952F923F924F9214
:102C90005F926F927F928F929F92AF92BF92CF92EC
:102CA000DF92EF92FF920F931F93CF93DF9300D0A9
:102CB00000D000D0CDB7DEB79E838D836B01FB01C2
:102CC0008681978168E170E00E94CE310D9710F403
:102CD000512C01C0542EA12CB12CFF24F39488E771
:102CE000482E8D809E80F2E08F0E911C3324339409
:102CF000360183E0680E711C22FB222420F823FB9E
:102D0000EE27E0F9E983F22FF071FA83822F8170C8
:102D10008B8321FB112710F98FEF8F0D8330A9F0E2
:102D200028F4813051F0823061F004C0843089F0A1
:102D3000853099F0F601308D2AC0F601318D8B81F6
:102D4000A4C0F6013789812FA0C0F6013489822DF5
:102D50009CC0F6013689898198C0F6013589FA81CF
:102D6000FF2349F1552099F0ED81FE8111863A301B
:102D700010F02AE001C025E0EE24E39407E0A5016D
:102D800067E770E0C3013C830E94C92C3C81ED8160
:102D9000FE8146824782A086632FC4010E9455248B
:102DA000ED81FE813186F6E0FF16A9F0F394E9E0AB
:102DB000AE0EB11CB1CF88E7ED81FE81868387839B
:102DC0008DE28087632FCF0102960E94552481E017
:102DD000ED81FE8181875601EBE1AE0EB11C00E171
:102DE00012E0F12C4501F5018081882371F0F80192
:102DF00040815181FBE0FF9EC001112468E370E037
:102E000085599F4F0E944521F3942FEFA21AB20AD1
:102E1000F4018081823070F0F80140815181FBE043
:102E2000FF9EC001112468E370E085599F4F0E9406
:102E30004521F3940E5F1F4F22E00831120791F6EF
:102E400083E0C80ED11C6AE670E0C6010E949F258F
:102E500065E770E0C60126960FB6F894DEBF0FBE98
:102E6000CDBFDF91CF911F910F91FF90EF90DF9039
:102E7000CF90BF90AF909F908F907F906F905F901A
:102E80004F903F902F900C949F2581116BCFED8137
:102E9000FE8146824782A086632FC4010E9455248A
:102EA000ED81FE81318682CF0F93CF93DF93442350
:102EB00051F000E021E04EEE5AE060E070E080E08A
:102EC00090E00E94611FC0E0D0E000E021E04AED08
:102ED0005AE0BE0189E590E00E94611F2A96C6343F
:102EE000D10599F721E045E95AE060E070E089E614
:102EF00090E00E94611FDF91CF910F91089570E0E3
:102F00004BE25AE086E290E00C944521CF92DF92AA
:102F1000EF92FF920F931F93CF93DF93EC017B010E
:102F200044EFC42EDD24DA9400E021E045E15BE0CB
:102F300068E270E0C6010E94611F84E1C80ED11CE6
:102F400088E5C816D10481F741E0B701CE010E949F
:102F500054178C85813009F444C040F0823009F068
:102F600064C069E1CE010E947F175FC06D85C70113
:102F70000E948923ED85ED3018F5F0E0E05DFD4F0E
:102F80008081882309F451C010E0A12FAA0F2D855C
:102F900030E0F901E05DFD4F8081181708F045C071
:102FA000C9014096880F991F00E021E046E05BE0F0
:102FB00068E070E08A0F911D0E94611F1F5FE5CFDE
:102FC000EE85F0E0EE0FFF1FEE5DFD4F4081518179
:102FD00000E021E06AE070E08EE190E00E94611F75
:102FE00024C060E0C7010E948923EE85F0E0EE0F67
:102FF000FF1FEE5DFD4F4081518100E021E06AE05E
:1030000070E08EE190E00E94611F84E08E838F83E8
:103010001886EE85F0E0EE0FFF1FEA5EFD4F60813F
:103020007181CE0102960E94D323EE85E53028F40B
:10303000F0E0EF5FF44F249101C020E08C858130F7
:1030400021F441E08D85863408F040E0B701CE01DF
:10305000DF91CF911F910F91FF90EF90DF90CF9074
:103060000C9445169F92AF92BF92CF92DF92EF924F
:10307000FF920F931F93CF93DF93902E1E2DC22E9E
:10308000D12CC42FD0E05B0183E0A80EB11CE12C51
:10309000012F292DA601BE01C5010E94C92C0AEFEE
:1030A000090DB6016E5F7F4F7E0183E0E80EF11CD3
:1030B000603471052CF421E0402FC7010E945C258B
:1030C000B601610F711D635071096034710528F4F8
:1030D00021E0402FC7010E945C25165083E0C80EF6
:1030E000D11CBE016E5F7F4F01E0212FA601C501FB
:1030F0000E94992CC90DD11DBE0163507109212F69
:10310000A601C5010E94992CDF91CF911F910F91CB
:10311000FF90EF90DF90CF90BF90AF909F90089579
:103120000F931F93CF93DF93EB01142F00E021E067
:1031300042E859E060E070E080E090E00E94611FAA
:1031400001E021E042E859E060E070E080E490E0D6
:103150000E94611F1123B9F021E04EE561E370E0A8
:1031600081E190E00E945C2521E04EE563E370E0A0
:1031700081E190E00E945C2525E34EE661E1CE010D
:1031800003960E94F32CDF91CF911F910F91089528
:103190009F92AF92BF92CF92DF92EF92FF920F93E6
:1031A0001F93CF93DF93F22E10E0000F111FF80151
:1031B000EE5FFD4FC080D180F801EC50FE4FA08043
:1031C000B18010E0922E9E0CC42F440FDD0B812F96
:1031D000817010FD8AE0123010F46F2D01C0692D4E
:1031E00070E0012F20E0A601FE01E80FF11DCF01E4
:1031F0000E94611F1F5F143051F710E0EF0C812F08
:10320000817010FD8AE0123010F46F2D01C06E2D18
:1032100070E0012F21E0A501FE01E80FF11DCF01B3
:103220000E94611F1F5F143051F7DF91CF911F91F2
:103230000F91FF90EF90DF90CF90BF90AF909F9055
:1032400008951F920F920FB60F921124CF92DF9222
:10325000EF92FF920F931F932F933F934F935F93A0
:103260006F937F938F939F93AF93BF938091A803A6
:103270009091A903A091AA03B091AB030196A11D5F
:10328000B11D8093A8039093A903A093AA03B093C0
:10329000AB03492F5A2F6B2F772767FD7A95242F81
:1032A0002E726C017D0139E0F594E794D794C794B0
:1032B0003A95D1F74C295D296E297F29489F402DE9
:1032C000112442238C019D015DE0359527951795CA
:1032D00007955A95D1F7082366E0B595A795979578
:1032E00087956A95D1F7802B84278093CF00BF9173
:1032F000AF919F918F917F916F915F914F913F918E
:103300002F911F910F91FF90EF90DF90CF900F9032
:103310000FBE0F901F90189508950C947D32FC01FC
:1033200082E291E0918380831582148281E492E0AD
:103330009383828388E0838781E082871782108667
:103340001682818708950895FC01148615861686D5
:103350000895FC01148608950895FC0112821382D9
:1033600080E4848381E085830895CF93DF93EC012B
:10337000FB0181858095908589239C85913001F1A1
:1033800018F09230C1F13BC08681978165E070E012
:103390000E94CE31892B99F58E85482F082E000C7E
:1033A000550B2F8530E0421753071CF48F5F8E8733
:1033B00026C08FE78E8781E08C8787E08D871FC0CE
:1033C00087FF07C09289923011F0953011F4915027
:1033D000928B84FF07C09289913011F0943011F4E0
:1033E0009F5F928B83FF0BC08289DF01A80FB11D05
:1033F0005F968C9103C083FF02C08EE087A3DF91AC
:10340000CF9108958F929F92AF92BF92CF92DF9209
:10341000EF92FF920F931F93CF93DF93EC016B0119
:10342000FB01A680B78041E00E94541700E021E034
:1034300044E352E168E270E080E090E00E94611FA6
:1034400021E040E252E168E270E08FE490E00E9407
:10345000611F69E0E62EF12C00E021E047E052E137
:1034600068E270E0C7010E94611FFEE0EF0EF11CF0
:103470008FE4E816F10481F79C85923009F48BC043
:1034800070F1933009F4C1C0943009F0E2C09E831A
:103490009F831886EE85F0E0EE0FFF1FEF59FD4F7A
:1034A00060817181CE0102960E94D32360E0C60143
:1034B0000E948923EE85F0E0EE0FFF1FE359FD4FD8
:1034C0004081518100E021E06AE070E08EE190E00F
:1034D0000E94611F63E2CE010E947F17BAC013E011
:1034E0001E831F8318874E01E2E08E0E911C6BEF46
:1034F00071E1C4010E94D32382E48E838F831887F5
:103500002E854BE751E162E070E083E390E00E949A
:1035100005258C85813009F09CC0C50168E170E00B
:103520000E94CE3191E08D3008F490E08D85863494
:1035300010F4911119863E85F601208D231798F01D
:10354000863470F4992361F0EE24E39407E02FE0D1
:1035500043E050E060E470E0C60103960E94C92C8D
:1035600067E771E112C0863470F4992361F0EE24AC
:10357000E39407E02BE043E050E060E470E0C60134
:1035800003960E94C92C64E771E1C4010E94D32311
:1035900081E089875EC06D85C6010E948923ED8523
:1035A000ED3010F5F0E0E558FD4F8081882309F4F7
:1035B00050C010E0312F330F8D8590E0FC01E558AD
:1035C000FD4F2081121708F044C04096880F991FC4
:1035D00000E021E045E651E168E070E0830F911DD5
:1035E0000E94611F1F5FE6CFEE85F0E0EE0FFF1F28
:1035F000E359FD4F4081518100E021E06AE070E035
:103600008EE190E00E94611F24C060E0C6010E942C
:103610008923EE85F0E0EE0FFF1FE359FD4F408157
:10362000518100E021E06AE070E08EE190E00E94CC
:10363000611F84E08E838F831886EE85F0E0EE0FA5
:10364000FF1FEF59FD4F60817181CE0102960E94EC
:10365000D323EE85E63028F4F0E0E15AFE4E2491C3
:1036600001C020E08C85833021F441E08D858634D3
:1036700008F040E0B601CE01DF91CF911F910F918C
:10368000FF90EF90DF90CF90BF90AF909F908F9082
:103690000C9445160F931F93CF93DF938C01EB018E
:1036A0006C5E7F4FAE01415F5F4F29852095988505
:1036B0002923F8019485923031F128F4992319F1E6
:1036C000913041F0A4C0933009F490C0943009F4D3
:1036D0009AC09DC0822F887023FF03C096E4F80132
:1036E0009587F8019585963408F484C0882309F4F9
:1036F0008EC0F8019685888D891708F080C0F80182
:10370000158682E069C0F80185858C3088F466E012
:1037100070E080E090E00E94AF23DC01CB010196D5
:10372000A11DB11DF801868785858F5F85876FC0D4
:10373000F801923009F055C086858330C9F028F42D
:10374000813049F0823059F03FC0853019F1C8F01E
:10375000863031F139C08D8981508D8B35C08E898D
:1037600090E0019797FF02C080E090E08E8B2CC024
:103770008C8990E0019797FF02C080E090E08C8BED
:1037800023C08F8990E0019797FF02C080E090E00E
:103790008F8B1AC0898D8230B8F08150898F14C008
:1037A0008F8990E0029797FF02C080E090E08F8BB6
:1037B000892B51F088898A3030F4E82FF0E0EB5AF9
:1037C000FE4EE4918E0F888B8F89882339F01F82FB
:1037D0001E82F801158683E0848719C084E0F80111
:1037E000FBCF15861F821E8281E0F6CFF8019585FA
:1037F000963418F49F5F95870AC023FF08C0CA015A
:103800000E94561503C023FF02C08EE08FA3DF91F4
:10381000CF911F910F910895EF92FF920F931F93F5
:10382000CF93DF93FC01DB0114861586168686E0B4
:10383000878750968C915097863051F028F48130CC
:1038400039F0833039F404C0893011F08D3011F42F
:1038500087E001C086E0878717961C921E92169714
:1038600051968C915197811135C08D01EF011686CB
:1038700087E0858795968C938AE0F82E66E070E065
:1038800080E090E00E94AF23E62E66E070E080E0EA
:1038900090E00E94AF23D801AE0DB11D5F968C91D0
:1038A0005F97F801E60FF11D978D5F969C93878FC8
:1038B000FA94F110E3CFF80185898F3F39F48FE74F
:1038C0008E8782E08C87158A118A0AC081E0F80110
:1038D000818B06C08FE7868787E0858781E08487B4
:1038E000DF91CF911F910F91FF90EF9008950F936B
:1038F000CF93DF93EB0141E00E94901800E021E0BC
:1039000040EE50E161E170E08CE190E00E94611FC7
:1039100021E045EA50E168E370E083E190E00E9435
:10392000611F8F8590E0FC01EF55FF4E4491FC0133
:10393000E356FF4E849121E06FE370E090E0DF9169
:10394000CF910F910C945C258F929F92AF92BF9272
:10395000DF92EF92FF920F931F93CF93DF93EC01CF
:103960007B0100E021E041EE5FE06EE070E08EE17F
:1039700090E00E94611F8A8187FD3EC02C8130E06B
:103980008B81281B310937FF02C02F5F3F4F3595D0
:103990002795D22EA12CB12C20E8822E912C4A8181
:1039A000AD1428F58501000F111F8B81B801680F38
:1039B000711D603471052CF420E080E090E00E94DD
:1039C0005C258B81B801680F711D6F5F7F4F8A8105
:1039D0006034710544F420E0482FF401E81BF1093C
:1039E000CF010E945C25FFEFAF1ABF0AD8CF47FD79
:1039F00003C08D81480F4A838A8187FF03C08CE012
:103A0000F70187A3DF91CF911F910F91FF90EF9066
:103A1000DF90BF90AF909F908F900895FC01DB01E5
:103A200018968C91189719969C91199790959823B0
:103A300084FF08C02485203118F42F5F248703C039
:103A40000E940B25148695FF09C01F968C911F9725
:103A5000882321F081501F968C931F9796FF09C0F1
:103A60001F968C911F97833020F48F5F1F968C9345
:103A70001F9793FF4DC01F968C911F97880F880F3B
:103A800059961C925997E82FF0E0E357FF4EE491C6
:103A90005496EC935497E1E0E80FF0E0E357FF4EC3
:103AA000E4915796EC935797E2E0E80FF0E0E35784
:103AB000FF4EE4915696EC9356978D5FE82FF0E019
:103AC000E357FF4EE4915596EC93559781E0589655
:103AD0008C93589750961C92509751961C925197E0
:103AE00053961C92539752961C9252975B961C9237
:103AF0005B975C961C925C975D961C925D975E96B8
:103B00001C925E975A961C925A978AE097968C93CD
:103B100008952F923F924F925F926F927F928F9271
:103B20009F92AF92BF92CF92DF92EF92FF920F934C
:103B30001F93CF93DF9300D000D0CDB7DEB79C8327
:103B40008B835B01DB0151961C9181E0EB81FC8151
:103B500081871682178210866F01F2E0CF0ED11C8A
:103B600068ED72E0C6010E94F723D5015096EC91F2
:103B7000EF3028F4F0E0E25EF04F649101C065E0C0
:103B800070E06F5F7F4FC6010E945C246AED72E0B7
:103B9000C6010E94F723F501608970E06F5F7F4FD7
:103BA000C6010E945C24D5015096EC91EF3028F4B8
:103BB000F0E0E25EF04FE49101C0E5E0F0E0EE0FEE
:103BC000FF1FE75AFD4F60817181C6010E94D32318
:103BD00000E021E04CE95FE060E070E089E690E021
:103BE0000E94611FCC24CA94DC2C00E021E041E952
:103BF0005FE062E170E0C6010E94611F21E047E8DA
:103C00005FE062E370E0C6010E94611FBAE0CB0E84
:103C1000D11CE3E6CE16D10441F721E04AE65FE08D
:103C200062E170E081E690E00E94611FAB81BC819F
:103C30001C968C91823011F020E001C020E141E01F
:103C4000B5018B819C810E944516F5018681978183
:103C50006CE070E00E94CE312C01C12CD12CC5014A
:103C600003969A8389839C2CAB81BC811E968C9190
:103C70001E97082E000C990B8C159D050CF49EC008
:103C8000F601ED59F04F2490F601E45AF04F3490CC
:103C9000F601EB5AF04FF4901D968C91873021F08D
:103CA0001F1102C081110AC03DE0E32E06E0232D62
:103CB000422DB5018B819C810E94C818EB81FC814B
:103CC00086858F37C9F4D50152968C91891114C01D
:103CD000B7E04B16510480F0112309F46FC0632D37
:103CE00070E000E020E04DE25FE0822D022C000C4D
:103CF000990B0E94611F03C0112309F45FC0F116E4
:103D0000A0F01F1106C0EB81FC818585882369F036
:103D10008BC0F6E0CF16D10409F050C0AB81BC8156
:103D20001F968C91863009F085C0632C712C822CF3
:103D3000022C000C9908B3E08B0E911CA3014C5F80
:103D40005F4FE12C05E12EE0B40189819A810E9448
:103D5000C92CE6E0CE16D10431F4AB81BC811F96AC
:103D60008C91863039F0F501EC0DFD1D878D90E0CA
:103D7000019702C087E090E0880F991FFC01E75B84
:103D8000FD4F40815181B3016A5F7F4F00E021E028
:103D9000C4010E94611F1F1111C0EB81FC810585C8
:103DA000002361F086858F3749F401508DE0E82EBD
:103DB000232D422DB501CF010E94C818FFEFCF1A65
:103DC000DF0A87E0C816D10409F04DCFAB81BC8172
:103DD0001D968C911D97882341F01E969C911E97ED
:103DE0009F3719F481501D968C93EB81FC8184855B
:103DF000823019F569E1CF010F900F900F900F906D
:103E0000DF91CF911F910F91FF90EF90DF90CF90B6
:103E1000BF90AF909F908F907F906F905F904F90EA
:103E20003F902F900C947F1786E0C816D10409F0BC
:103E3000B4CF74CF1F11CACFB0CF0F900F900F9097
:103E40000F90DF91CF911F910F91FF90EF90DF9036
:103E5000CF90BF90AF909F908F907F906F905F902A
:103E60004F903F902F900895CF92DF92EF92FF9264
:103E70000F931F93CF93DF936C017A018B01C0E006
:103E8000D0E0CE15DF0589F0D8016D918D01D60106
:103E9000ED91FC910190F081E02DC6010995892BEF
:103EA00011F47E0102C02196ECCFC701DF91CF91C2
:103EB0001F910F91FF90EF90DF90CF9008950E9497
:103EC00015332F923F924F925F926F927F928F9213
:103ED0009F92AF92BF92CF92DF92EF92FF920F9399
:103EE0001F93CF93DF93CDB7DEB761970FB6F894EA
:103EF000DEBF0FBECDBF7C014A01FA01349131967D
:103F0000E491832F8F778F5F282E312CC701820D8C
:103F1000931D97FDA1C1F0E8EF16F1040CF09CC1D0
:103F20008E2F8F738F5FAB01480F511D57FD94C1CA
:103F3000603471050CF090C1331F3327331F3B836E
:103F400031E0E6FF30E0EE1FEE27EE1FEF83AB011E
:103F500077FF04C044275527461B570B5A0117E02B
:103F6000A122BB24AB0177FF02C0495F5F4FDA019A
:103F700053E0B595A7955A95E1F7BA83A98377FFE2
:103F80000CC0A114B10449F01197BA83A98348E089
:103F900050E0FA01EA19FB095F0141E050E06A01D3
:103FA0000A2C02C0CC0CDD1C0A94E2F7D986C88624
:103FB000982F969596959695877011F4892F02C043
:103FC00081E0890F482F880F550B5E834D83502F5A
:103FD00052705A8701FF06C0AD81BE81119781E002
:103FE000382702C0A0E0B0E0602F61706C8300FF52
:103FF00004C0B1016150710902C060E070E097E057
:1040000040E150E080E0612C712C810101501109E8
:104010001C870B870D811E81A017B1070CF01CC1F6
:10402000B7FD1AC18A01CC24C394D12CF80143E016
:10403000F695E7954A95E1F7E80DF91DE491F0E072
:10404000A8014770552702C0F595E7954A95E2F714
:10405000A8014F5F5F4FE0FF05C01FEFC11AD10AF3
:104060008A01E4CFE1E0CE16D104E9F4FA01F69535
:10407000E795F695E795F695E795E80DF91DE49136
:10408000F0E0477055272F0102C0559447944A9598
:10409000E2F7F1E04F2255244FEF441A540AA801E9
:1040A0004E5F5F4F41C08601015011091E870D8789
:1040B00044244394512C0D8402C0440C551C0A9492
:1040C000E2F71FEF411A510A00E010E0FA01F695FD
:1040D000E795F695E795F695E795E80DF91DE491D6
:1040E000CE2ED12CD98AC88A6A01E7E0CE22DD24FF
:1040F000E889F98902C0F595E795CA94E2F7E0FFEF
:104100000AC0E1E0F0E0002E02C0EE0FFF1F0A94AB
:10411000E2F74E0E5F1E4F5F5F4F0F5F1F4FCD8464
:10412000DE840C151D0594F2C12CD12CC414D504C9
:1041300009F48CC00B81002369F0E92FF0E0311104
:1041400005C007E010E00E1B1F0BF801EE55FD4FF8
:10415000E0818E2B915008F075C0882309F44AC085
:1041600019811A0F1F8718300CF044C0FB01EE0DA7
:10417000FF1DE038F105F0F508851985809FF001F5
:10418000819FF00D1124FE87ED871F8517FD15C057
:10419000C701012F10E80103800D911D1124860F26
:1041A000971FFC01EF54FC4F80819D85222311F065
:1041B000892B02C0909589238083A114B104D1F08A
:1041C000EF85E730B9F0EF3FACF0C7010E2F10E8F4
:1041D0000103800D911D1124860F971FFC01EF5CD8
:1041E000FB4F80819E85222311F0892B02C0909580
:1041F000892380830F81002311F011E031278FEF95
:10420000681A780A9C81992319F06150710902C0DB
:104210006F5F7F4F6214730464F00A85002311F00E
:10422000119701C011961C81112331F06B857C859B
:1042300005C097E080E006C060E070E097E080E0B5
:10424000612C712CEFEFCE1ADE0A70CFCC24C39410
:10425000DB80CD18CB82DECE61960FB6F894DEBF40
:104260000FBECDBFDF91CF911F910F91FF90EF90C7
:10427000DF90CF90BF90AF909F908F907F906F9086
:104280005F904F903F902F9008954F925F927F9252
:104290008F929F92AF92BF92CF92DF92EF92FF9256
:1042A0000F931F93CF93DF9300D000D0CDB7DEB72D
:1042B000DC014115510509F4BAC0FA01D4903196D8
:1042C00034914D2C512C5C01A40CB51C1A141B0408
:1042D0000CF0ADC0803891050CF0A9C0CB01830F64
:1042E000911D181619060CF0A2C0603471050CF06F
:1042F0009EC0F62FF770EF2ECB0177FD079623E0D7
:10430000959587952A95E1F7F82F77FF04C0EE2061
:1043100011F0FFEFF80FB7FF05C0662777276A1B7C
:104320007B0B02C060E070E000E8A016B10424F04E
:1043300080E8F82EFA1A01C0FD2CF61AAF2E0F2EC7
:10434000000CBB08FF3F1CF4CA2CC09401C0C12C58
:1043500091E0832F877009F490E036953695369575
:10436000930FA90EB11C19E0A116B10414F098E046
:104370009F1B8C2D8F0F9D01082F10E80103200D2E
:10438000311D1124260F371F4E5F5F4FCD9C600DEE
:10439000711D1124460F571F61E070E00E2C02C002
:1043A000660F771F0A94E2F7EFEFE69FD001E79FD1
:1043B000B00D1124A095B095BC83AB837C809F0F7A
:1043C0008917A9F1F901EF54FC4F6F01A12CB12C11
:1043D000AF1438F5FA01EA0DFB1DE491E69F4001A8
:1043E000E79F900C11249A82898287FD07C0F6010D
:1043F0001081E12FEA238E2AF6018082EE2051F00F
:10440000873044F4F601E058FF4F908097208A806F
:1044100098289082FFEFAF1ABF0A0FEFC01AD00A98
:10442000D7CF8F5F440D551D20583F4FC9CF0F90F8
:104430000F900F900F90DF91CF911F910F91FF90F0
:10444000EF90DF90CF90BF90AF909F908F907F9034
:104450005F904F9008952F923F924F925F926F928C
:104460007F928F929F92AF92BF92CF92DF92EF9204
:10447000FF920F931F93CF93DF9300D000D000D013
:10448000CDB7DEB77B014115510509F429C1FA0109
:10449000D490319674914E5F5F4FAD2DB0E02223E2
:1044A00009F1E72FE695E695E695AE2EB12CE1E011
:1044B000F0E0372F377011F4E0E0F0E0EA0DFB1D7B
:1044C000AE9F5001AF9FB00CBE9FB00C11240330C3
:1044D00011F4AA0CBB1C2A9DF0012B9DF00D112498
:1044E0004E0F5F1F0F3F09F402E05C01AA0EBB1ED6
:1044F0001A141B040CF0F4C0803891050CF0F0C0C5
:104500009701270F311D121613060CF0E9C0F0E4D5
:10451000EF16F1040CF0E4C04115510509F4E0C0B8
:104520002E2D27702D839701F7FE02C0295F3F4F84
:1045300063E0359527956A95E1F7F22FF7FE05C000
:104540006D81662311F0FFEFF20F97FF05C0222760
:104550003327281B390B02C020E030E0E0E8AE161C
:10456000B10424F060E8762E781A01C07D2C721A0E
:10457000EF2E0F2E000CFF08FF3F1CF4CE2CC09432
:1045800001C0C12CE1E0672F677009F4E0E0769587
:10459000769576959E2E970EE90CF11C69E0E6164D
:1045A000F1041CF0E8E09E2E9F1A1C2D1F0F60E8FE
:1045B0001603800D911D1124820F931F61E070E09E
:1045C0000D8002C0660F771F0A94E2F7033011F0E6
:1045D000E1E001C0E2E0EE2EF12CCD9C200D311D7A
:1045E0001124E29E5001E39EB00CF29EB00C112407
:1045F0006A01CA0CDB1C970121503109A20EB31EBF
:104600004A0D5B1DBB24BA94B69E9001B79E300D37
:104610001124290140945094F90DFE83A719B10982
:10462000EA9FA02D1124B0E0E79DA00DB11D11243B
:104630002E81121709F454C09C012F543C4F4A019B
:104640005601612C671409F443C0F5013490369E7D
:10465000F001379EF00D1124FA83E983E095F0957F
:10466000FC83EB83023019F45C824B8210C00B3F59
:1046700019F41A8219820BC0F4013490369EF001AD
:10468000379EF00D1124E095F095FC83EB8317FD28
:1046900009C0F9013080EB81E321F9813E2E3F2AE8
:1046A000F9013082FD81FF2359F017304CF4F901F4
:1046B000E058FF4F20803C8023203A80322830820F
:1046C0008E0C9F1CAE0CBF1C63942F5F3F4FBACF64
:1046D0001F5FCA0EDB1E4A0F5B1F80589F4FA8CF7B
:1046E00026960FB6F894DEBF0FBECDBFDF91CF91F7
:1046F0001F910F91FF90EF90DF90CF90BF90AF9000
:104700009F908F907F906F905F904F903F902F90F1
:104710000895EF92FF920F93CF93E62FF0E0EE0F04
:10472000FF1FE857FD4FE080F180C0E08C2F8170C3
:10473000C0FD80E1C23010F068E101C068E070E0C7
:1047400090E00C2F21E0A7014C960E94611FCF5FE3
:10475000C43061F7CF910F91FF90EF900895CF9300
:10476000DF9300D000D0CDB7DEB7611571058105AC
:10477000910579F09B01AC0169833A834B835C839B
:104780000E94473129813A814B815C810E946B31C3
:1047900003C060E070E0CB010F900F900F900F907E
:1047A000DF91CF910895EF92FF920F931F93CF93D4
:1047B000DF938C017B01C0E0D0E0F701EC0FFD1F1F
:1047C0006491662361F0D801ED91FC910190F08134
:1047D000E02DC8010995892B11F02196EECFCE016D
:1047E000DF91CF911F910F91FF90EF900895611588
:1047F000710579F0FB0101900020E9F73197AF01D5
:10480000461B570BDC01ED91FC910280F381E02DFA
:10481000099480E090E008954F925F926F927F92AA
:10482000EF92FF920F931F93CF93DF93CDB7DEB735
:10483000A1970FB6F894DEBF0FBECDBF7C01FA0181
:10484000CB0119A2223008F42AE08E010F5D1F4F20
:10485000422E512C612C712CBF01A30192010E94A8
:104860009D31F901CA01015011096A3014F4605DEB
:1048700001C0695CD8016C93232B242B252B61F795
:10488000B801C7010E94F723A1960FB6F894DEBFC6
:104890000FBECDBFDF91CF911F910F91FF90EF9091
:1048A0007F906F905F904F900895462F50E060E0AA
:1048B00070E02AE00C940C24CF92DF92EF92FF92EA
:1048C0000F931F93CF93DF936B01770FEE08FF08D1
:1048D000F7FE1FC0EC01E881F9810190F081E02D25
:1048E0006DE209958C0144275527BA014C195D09E1
:1048F0006E097F092AE0CE010E940C24800F911FCF
:10490000DF91CF911F910F91FF90EF90DF90CF90AB
:1049100008952AE0B701A601DF91CF911F910F9171
:10492000FF90EF90DF90CF900C940C243FB7F89459
:104930008091B2079091B307A091B407B091B507E9
:1049400026B5A89B05C02F3F19F00196A11DB11DEA
:104950003FBFBA2FA92F982F8827820F911DA11D25
:10496000B11DBC01CD0142E0660F771F881F991F62
:104970004A95D1F708951F920F920FB60F92112406
:104980002F933F938F939F93AF93BF938091AD03EA
:104990009091AE03A091AF03B091B0033091B107F5
:1049A00023E0230F2D3720F40196A11DB11D05C072
:1049B00026E8230F0296A11DB11D2093B107809315
:1049C000AD039093AE03A093AF03B093B003809177
:1049D000B2079091B307A091B407B091B5070196C3
:1049E000A11DB11D8093B2079093B307A093B407A4
:1049F000B093B507BF91AF919F918F913F912F9148
:104A00000F900FBE0F901F9018950F9302E00E9419
:104A10002B220F910895F89487E7809300088093E4
:104A20000108A89588E18093600088E08093600089
:104A3000FFCF8F929F92AF92BF92CF92DF92EF9271
:104A4000FF926C01E12CF12C0E9496244B015C0139
:104A5000C114D104E104F104F1F00E949624DC01B8
:104A6000CB0188199909AA09BB09883E9340A10581
:104A7000B10570F321E0C21AD108E108F10888EE0F
:104A8000880E83E0981EA11CB11CC114D104E1045E
:104A9000F10419F7DDCFFF90EF90DF90CF90BF903A
:104AA000AF909F908F9008958FB18095807F669B87
:104AB00088601C9B84600895FC01840F911D18166A
:104AC0001906E4F5E038F105CCF5F7FF02C0E0E0A7
:104AD000F0E08138910514F080E890E0382F3E1B1B
:104AE000AB0177FF02C0495F5F4F83E05595479563
:104AF0008A95E1F75695542F442757954795E40F2B
:104B0000F51FEF54FC4F6770772781E090E001C0FC
:104B1000880F6A95EAF7482F222349F0213071F473
:104B2000315020F08081842B8193FACF08958095B5
:104B3000315020F0908198239193FACF0895EF920D
:104B4000FF920F93CF93DF937C01EB0121E049E0CB
:104B500067E370E0CE010E945C2521E049E06FE34D
:104B600070E0CE010E945C2501E029E047E350E0BF
:104B7000BE01C7010E94992CBE01685F7F4F29E0EA
:104B800047E350E0C7010E94992CDF91CF910F912C
:104B9000FF90EF900895FC011486158616861786FF
:104BA0000895FC011486158616860895DC01FB0124
:104BB000918590952085922393FF0EC01C968C9131
:104BC0001C97823018F0823029F0089582E01C96FC
:104BD0008C9308958CE087A30895AF92BF92CF92F3
:104BE000DF92EF92FF920F931F93CF93DF936C01AD
:104BF000EB018E819F8168E170E00E94CE317C01E3
:104C000040E0BE01C6010E94541700E021E04DEBD8
:104C100057E160E070E080E090E00E94611FD60103
:104C20001D96EC91F0E0E654F84E249141E0F60137
:104C30008485813009F040E0BE01C6010E9445161E
:104C4000FDE0EF16F10408F445C0D6011D968C91E5
:104C5000813049F0823059F41FE3D12C97E5C92EF9
:104C600022E3A22E09C01FE334E2D32E02C012E2D7
:104C7000D12C80E3C82EA12C239600E02D2D4C2DA5
:104C80006A2DCE010E94F32C212F4C2D6A2DCE01CE
:104C90000E94F32CF12EFD18E12C0D2D10E0B12C0B
:104CA000A8014E0D511D20E0B501CE010E947B2CC4
:104CB000E394E394FE14A0F7B12CD12CA8014B0D82
:104CC000511D20E0B601CE010E947B2CB394B39419
:104CD000FB14A0F7DF91CF911F910F91FF90EF9000
:104CE000DF90CF90BF90AF900895AF92BF92CF92D8
:104CF000DF92FF920F931F93CF93DF93EC018B0111
:104D00006B0184E1C80ED11CFB01F184F094908505
:104D1000F9228C85882321F0813009F440C058C0E5
:104D2000F5FE05C08D85823011F48E858D87F6FEE7
:104D300006C08D85823019F08E8782E08D87F4FE63
:104D400009C08D85811106C081E08D87F7FE07C0FF
:104D50001D8605C0F7FE03C08D858130C9F3F3FEC3
:104D600037C08D85813069F038F08230A9F461E078
:104D7000C6010E94981510C0F80185898F5F858B48
:104D80000BC0F801878990E002968531910514F0F7
:104D900084E190E0F801878B81E08C8719C05B018A
:104DA000FFE0AF0EB11C9F85963450F49F5F9F8744
:104DB000963431F4B601C5010E945615F80187A357
:104DC000F3FE06C0B601C5010E945615F80187A37F
:104DD000DF91CF911F910F91FF90DF90CF90BF9007
:104DE000AF900895CF92DF92EF92FF920F93CF93FF
:104DF000DF93EC016B017B0183E0E80EF11C41E0E5
:104E0000CE010E94541700E020E04AE757E160E03D
:104E100070E087E290E00E94611F21E04FE556E1DB
:104E200060E070E087E290E00E94611F21E043E3D0
:104E30006CE370E083E290E00E945C2501E02EE3E9
:104E400047E563E2C7010E94F32C2FE347E564E2E4
:104E5000C7010E94F32C8C85882329F0813031F41E
:104E600048E355E105C048EA55E102C040E050E0A2
:104E700000E021E061E070E082E090E00E94611FCC
:104E80006D8588E0689FB0011124695F7F4F4CE514
:104E900056E182E090E00E9445216D8588E0689FA0
:104EA000B0011124695F7F4F4CE556E181E290E04B
:104EB0000E9445218E858823D1F08AE1E82E00E406
:104EC00027E14FE1B601CE010E94321884E28E83C1
:104ED0008F838CE18887EE85F0E0EE0FFF1FE055B1
:104EE000FD4F60817181CE0102960E94D3232F85F0
:104EF00041E0B601CE01DF91CF910F91FF90EF908D
:104F0000DF90CF900C944516AF92BF92CF92DF9274
:104F1000EF92FF920F931F93CF93DF931F92CDB722
:104F2000DEB78C015B016B0184E1C80ED11CFB0173
:104F3000F184F0948085F82211F0F8011686F801CA
:104F40008485882321F0813009F4C8C012C1F7FE9E
:104F500006C0F8018585882311F081508587F4FE0D
:104F600006C0F8018585863010F48F5F8587F3FED3
:104F700000C1F8012585223009F447C028F4222316
:104F800051F0213041F1A3C0263008F45EC0263034
:104F900009F47EC09CC0F5018689811102C081E0C0
:104FA00005C0F50185898A3021F483E0F801868700
:104FB0008EC0F801878580618787F5018589082E75
:104FC000000C990B01968B30910514F08AE090E06B
:104FD000F501858B16C0F5018689882301F3878941
:104FE000843119F3F801878582608787F501878905
:104FF00090E001968531910514F084E190E0F5018F
:10500000878B868990E0019719C0F50186898330E6
:1050100030F28789843149F2F80187858260878779
:10502000F501878990E004968531910514F084E1BB
:1050300090E0F501878B868990E0039797FF02C087
:1050400080E090E0F501868B42C0F501E688F7E04C
:10505000FE1508F0A4CFC60129830E944D152981B1
:10506000823008F0A2CFE22FF0E03397EA0DFB1D6B
:10507000838D8F5F838F8E2D90E0089797FF02C0FE
:1050800080E090E0F501868BF801878588601EC07E
:10509000F5018689863008F482CF2489253008F00E
:1050A00084CF30E02F5F3F4F2630310514F025E0EC
:1050B00030E0F501248B90E0069797FF02C080E076
:1050C00090E0F501868BF801878584608787F80179
:1050D0008785982F977109F44CC02BC0F7FE06C046
:1050E000F8018585882311F081508587F4FE06C07C
:1050F000F8018585843010F48F5F8587F3FE39C011
:10510000F8018585F5018330B0F4E80FF11D838D3A
:105110008823A1F08150838FF501868990E0049661
:105120008B30910514F08AE090E0F501868BF80150
:10513000878588601DC02489211104C082E0F801A0
:10514000868717C030E02150310937FF02C020E0C8
:1051500030E0F501248B868990E003968B30910531
:1051600014F08AE090E0F501868BF80187858C6069
:1051700087878F2D807641F081E0F8019485911129
:1051800080E0F80184871586F2FE07C0B601C501EC
:105190000F960E945615F50187A30F90DF91CF91CE
:1051A0001F910F91FF90EF90DF90CF90BF90AF9045
:1051B00008951F93CF93DF93162FEC012296643648
:1051C00060F466E375E1CE010E94D3231A3028F41F
:1051D00064E375E1CE010E94D323612FCE010E94CA
:1051E000552462E375E1CE01DF91CF911F910C94BC
:1051F000D3231F93CF93DF93162FEC0122966A30AF
:1052000028F460E375E1CE010E94D323612FCE0123
:105210000E9455246EE275E1CE01DF91CF911F917E
:105220000C94D323DF92EF92FF920F931F93CF93AF
:10523000DF93EC017B0141E08C85823009F440E092
:10524000B701CE010E9490188C85813009F48FC07F
:1052500008F484C0823009F094C000E021E044E109
:1052600053E165E170E084E190E00E94611F87E115
:105270008E838F8304E10887D7011F96EC91F0E0BD
:10528000EE0FFF1FE655FD4F60817181CE01029642
:105290000E94D32318E31E831F830887F7016785C5
:1052A000862F880F680FCE010E94F92881E28E8335
:1052B0008F839DE1D92ED886D70158966C91660FC1
:1052C000CE010E94F928F701608970E06F5F7F4F7F
:1052D000862F880F680FCE010E94F928D7015796B4
:1052E0006C91660FCE010E94F928F7016589CE0105
:1052F0000E94F9281E831F83D886D70154966C918B
:10530000CE010E94F928F7016689660FCE010E943E
:10531000F928D7015A966C91660FCE010E94F928A0
:10532000C70144960E944D15682FCE010E94F928AE
:105330001FE51E831F8308876D85CE010E94D92833
:105340001E831F83D8866E85CE01DF91CF911F917A
:105350000F91FF90EF90DF900C94D92800E021E0AE
:105360004DEA54E165E170E08DE190E008C000E0B5
:1053700021E049EA53E16FE070E088E190E00E94AB
:10538000611FDF91CF911F910F91FF90EF90DF9000
:105390000895BF92CF92DF92EF92FF920F931F93E7
:1053A000CF93DF9300D0CDB7DEB78C017B016B01CB
:1053B00084E1C80ED11C82E990E00E945531B82EDC
:1053C00083E990E00E9455319DE4B91202C0823514
:1053D000D9F082E990E09A8389836DE4CE01019649
:1053E0000E949C1483E990E09A83898362E5CE0150
:1053F00001960E949C1484E990E09A83898360E07E
:10540000CE0101960E949C14F8011486158616861A
:10541000F70182818D3019F481E0F8018487F7016A
:105420009785292F220F322F390FF8013587F70181
:10543000908D990F292F230FF8012587F701808977
:1054400090E00196982F990F980F920FF801958789
:10545000F701B788BB0C9B0DF8019587F701B5885C
:10546000B90EF801B586F7018489B80EF801B58642
:10547000F7018689880FB80EF801B586F701828D8D
:10548000880FB80EF801B586C6010E944D15E82EAA
:10549000F12CEB0CF11CF801E58684E990E00E9408
:1054A0005531F8018E1510F086870AC0E68684E92A
:1054B00090E09A8389836E2DCE0101960E949C1400
:1054C0000F900F90DF91CF911F910F91FF90EF9070
:1054D000DF90CF90BF9008950895FC011486158643
:1054E0001686178608950F93CF93DF93EC0189E01A
:1054F0008B8783E08E838F8382E088872E8541EBC4
:105500005DE161E070E080E390E00E94052500E04D
:1055100021E049E25DE160E170E08EE090E00E9410
:10552000611F2E85CE010296253018F06AE77AE1D8
:1055300002C069E57AE10E94D32388E08B87DF917E
:10554000CF910F910895CF92DF92EF920F93CF9367
:10555000DF93EC016B0100E021E04DE35CE168E0EA
:1055600070E08EE090E00E94611F8C85813069F4CC
:105570000D85002351F0015025E0E22E2DE042E29E
:10558000B601CE010E94C81818C085E0E82E00E0E0
:105590002DE042E2B601CE010E94C818EE85F0E08F
:1055A000EE0FFF1FEA54FD4F4081518121E06FE073
:1055B00070E083E290E00E94611FDF91CF910F9134
:1055C000EF90DF90CF900895CF92DF92EF92FF920D
:1055D0000F93CF93DF93EC017B01FB01C680D78053
:1055E00041E00E94541700E021E040E45BE160E00C
:1055F00070E080E090E00E94611F9C85913079F11D
:1056000018F0923021F12FC08D85813118F500E01E
:1056100021E049E25DE160E170E08EE090E00E940F
:10562000611F0AEF2E8541EB5DE161E070E080E3F0
:1056300090E00E942B2283E08E838F8382E0888714
:1056400064E37BE1CE0102960E94D3230CC08F85D8
:10565000811105C0B701CE010E94732A04C0B701B1
:10566000CE010E94A32A9E85963049F0953049F0DC
:10567000943049F48F85882331F02AE005C029E071
:1056800003C02CE001C028E08C85823021F441E089
:105690008D85863408F040E0B701CE010E944516A2
:1056A0008C85823029F58F85882311F18D8586348C
:1056B000F8F4C60168E170E00E94CE310D97C0F0A9
:1056C00088E08E838F831886EE85E150F0E0EE0F40
:1056D000FF1FEA53FD4F60817181CE010296DF9179
:1056E000CF910F91FF90EF90DF90CF900C94D32348
:1056F000DF91CF910F91FF90EF90DF90CF900895C1
:10570000CF92DF92FF920F931F93CF93DF93EC0121
:105710008B016B0184E1C80ED11CFB01F184F09474
:105720009085F9229C85913009F468C020F0923070
:1057300009F4C7C0D8C08D85813180F4F3FE0EC056
:1057400081E18D8766E070E080E090E00E94AF2309
:10575000DC01CB010196A11DB11D8E87ED85E131E4
:1057600000F5F0E0ED5DF44E649170E0F8018681A3
:1057700097810E94CE31892B09F0B5C066E070E0B8
:1057800080E090E00E94AF23DC01CB010196A11DD7
:10579000B11D8E878D858F5F8D87F80117821682E8
:1057A000A2C08E85853098F0F3FE9DC087E08D877E
:1057B00081E08C8766E070E080E090E00E94AF239B
:1057C000DC01CB010196A11DB11D8E878CC0F801B3
:1057D0008389811102C081E001C082E0F80126893D
:1057E00090E0820F911D8B30910514F08AE090E0DB
:1057F000F801868B1D8682E08C8775C08D85882395
:1058000081F066E070E080E090E00E94AF23DC0170
:10581000CB010196A11DB11D8E878D8581508D878D
:1058200062C09F87C6010E944D15823020F08E8590
:10583000853008F455C0EE85E53081F050F4E13054
:1058400048F1F0E03197E00FF11F838D8F5F838F78
:1058500021C0E63079F0E73091F01CC0F80184896E
:1058600090E001968630910514F085E090E0F80113
:10587000848B10C062E0C6010E9498150BC0F8012D
:10588000868990E002968B30910514F08AE090E0D2
:10589000F801868B1D8682E08C87F801838981114F
:1058A00002C081E001C082E0F801268990E0820F09
:1058B000911D8B30910514F08AE090E0F801868B01
:1058C00012C09D85963410F49F5F9D87F3FE0BC038
:1058D000B601C8010F960E945615F80187A303C0B0
:1058E00087E08E87A8CFDF91CF911F910F91FF9016
:1058F000DF90CF90089560387105D0F440345105A1
:10590000B8F4E1E3FEE180E1849FD001A0781124A6
:10591000A60F4770E40FF11D8491AF54BC4F2223B2
:1059200019F06C91862B03C080956C9186238C9323
:105930000895AF92BF92CF92DF92EF92FF920F93B2
:10594000CF93DF936C015B017A01E20EF11CEA0157
:1059500057FF0DC0C0E0D0E00AC0C417D5077CF4E3
:10596000202FAE01B501C6010E947B2C2196A70114
:1059700081E4E816F1048CF340E450E0EECFDF91CF
:10598000CF910F91FF90EF90DF90CF90BF90AF90AD
:1059900008958F929F92AF92BF92CF92DF92EF9233
:1059A0000F931F93CF93DF935C014A01102FEB01FC
:1059B0006B01C20ED11CCC15DD054CF40E2D212F30
:1059C000A401BE01C5010E94992C2196F4CFDF915C
:1059D000CF911F910F91EF90DF90CF90BF90AF903C
:1059E0009F908F900895AF92BF92CF92DF92EF92E7
:1059F000FF920F93CF93DF935C01D42FD61BC0E0AF
:105A0000C22ED12CE62EF12CB7016C0F711D202F68
:105A1000A601C5010E947B2CCE5FDC17A8F7DF91A1
:105A2000CF910F91FF90EF90DF90CF90BF90AF900C
:105A300008958EED92E00C948C190F931F93CF93E1
:105A4000DF93CEEDD2E01886198680E18A871F8227
:105A50001E821C8682E391E09C838B8381E08F878A
:105A6000888B198A1A8A1B8A888F8F8F12E018A355
:105A700083E089A384E08AA385E08BA306E00CA3DE
:105A800087E08DA380EF91E09983888386E093E09F
:105A90000E948F1980E491E099A788A71CAA1DAAEB
:105AA0001EAA85E193E00E948F1980E591E098AFEE
:105AB0008FAB1092210310922203109223031092B5
:105AC000240385E293E00E948F1980E691E0909391
:105AD0002603809325031092310310923203109213
