:100000000C94E5120C940D130C940D130C940D1319
:100010000C940D130C940D130C940D130C940D13E0
:100020000C940D130C940D130C940D130C940D13D0
:100030000C940D130C940D130C940D130C940D13C0
:100040000C940D130C940D130C940D130C940D13B0
:100050000C940D130C940D130C940D130C94281B7D
:100060000C940D130C940D130C940D130C940D1390
:100070000C940D130C940D130C940D130C940D1380
:100080000C940D130C940D130C940D130C940D1370
:100090000C940D130C940D130C940D130C940D1360
:1000A0000C940D130C940D130C940D139115BA159B
:1000B0005215D315A3150E160E160E162F162F1643
:1000C0005F15F2159E1507160724072415246E24C4
:1000D0005725D025FB2509261C264E252C262C2607
:1000E000D5F08D14A1C881CFD9F1AF200003081F2E
:1000F000051F1F151B1F11111F110E1F15111F05A5
:10010000011F111D1F041F001F0010101F1F041BC3
:100110001F10101F061F1F011F1F111F1F05071F84
:10012000311F1F051B17151D011F011F101F0F1069
:100130000F1F0C1F1B041B071C071915130C121E85
:100140001F120C1E12120C121F0C1A14041F052E63
:100150002A1E1F021C001D00201D001F041A011F63
:10016000001E041E1E021E1E121E3E120C0C123E0B
:100170001E020614120A020F121E101E0E100E1E70
:10018000081E1A041A2E281E1A12161F111F121FDB
:10019000101D151711151F07041F17151D1F151DFD
:1001A00001011F1F151F17151F0017000010000465
:1001B0000404040E040229060A0000340F0000F8AB
:1001C00004C4A464A4E4C4040404648464048444EF
:1001D0008404C404C40404E424C404A4048444843F
:1001E000048444E4040404C4E4A464A4C404F8003F
:1001F0000000000F10101311131110101010101325
:1002000010101112111011121110101312111013DD
:1002100010111312101112131010101011131113CA
:1002200010100F00000707000C3A163A0C000707E1
:10023000001A2432241A000707002A18360C2A0054
:1002400050697420202020207E2D337E48502C7E43
:100250002B46616C6C004D6F76696E677E57616CE2
:100260006C73202020202D317E585000537072690D
:100270006E677E426C616465202020202D317E48AF
:1002800050005275737465647E41726D6F75722093
:1002900020202D317E415200547269707769726559
:1002A00020202020207E2D317E476F6C64004D6918
:1002B0006C646577202020202020207E2D317E4612
:1002C0006F6F64001B9F7B15000098C007C64BCD65
:1002D00081FBF81630010080AEFB01000000000039
:1002E0004278CE60D8C9396E0E7C811000000000C3
:1002F00000383C590013008003378EDC803347E020
:1003000098A7DC3800003001D6A7B97244E0C43D9C
:10031000A771E4F7001BDF178738557CCD62B31750
:10032000EC75D9739E780A822E10CB0B5BC4181122
:100330003FC04891CC4B6F0513307C03C4A1206AA9
:1003400079C30275839F01474E5D4CA14CA1962F46
:100350008887E2F217F8804BE4CA11B8E604FC0C77
:100360001BDFB718080BDC224241C405226E112E98
:10037000209CF25D10636911DE48078011BFCA74CA
:100380000105161061810A0B5458A0C202278198FA
:1003900047C262080B1C2C368B4D810D864D900D8B
:1003A000806C8894B0286111CA42202C7E03578E3D
:1003B000980B0F721A477E071B9F0FC0F0007C033B
:1003C0003E502F826E110E5C8427E3065E224F6141
:1003D000EC086C306C67C76690A8080E4592305CDC
:1003E00054CE84B0D553E46DCEC0C93B7060A1B883
:1003F0000138312A61205BDDC0033647C2F7B9728C
:10040000C45C78C19170027E0E1B9FAF91458D0E2A
:1004100058125C0220B120242008820208A0113169
:1004200046C468901BF2491426CCBD0538F28050B2
:10043000A4049475E9171CE0F0B9885BC42DE2169A
:10044000712B2258000E50504901680ABA0A3770C1
:100450008BB845FC293EE012397A42E0327E0D1B12
:10046000DF6F43600904661E87C01208CC3C0E8112
:10047000251098F9093CA43CEEA5705807C29527B1
:10048000DC289F61B180052A2C08C80222000212D4
:10049000581084050B0C20010A4041022C161860EC
:1004A000018BC54FF00197C895538FE3123CF95D5E
:1004B0001F1FBF74C16432D9EBEFB9DFEFBFE77E16
:1004C000BFFF9E6B33994C58BF141F9FBF6B851B9A
:1004D00072436EC88DACBFD7FEFEFE7BEDEFEFBF63
:1004E000D85AC80DB9213764AD5F061F9FBF638519
:1004F0001B72436EC80DB92137B2FE1EFBF7EDBF6C
:10050000C7FE7DFB2FB21672436EC80DB92137644A
:10051000AD5F021F9FDF5DE186DC901B72436EC8FA
:100520000DB92137B27EEFFEFDFBF7EEDFBF7FF1A5
:100530005AC80DB92137E486DC901B7243D6FA32D3
:100540001F9FDF59E186DC901B72436EC80DB921F5
:1005500037E486DCC8FA3DFBEFB37FCFFEFBEC5FF0
:10056000B41672436EC80DB92137E486DC901B7255
:1005700043D6FA121F9FEF56B82137E486DC901B52
:1005800072436EC80DB92137E486DCC8FADEFEFB83
:10059000EDEFEDBFDFFEE25AC80DB92137E486DC8E
:1005A000901B72436EC80DB9213764AD9711D767A0
:1005B000CE9C7DCE63F0331C816B4EC099631E7060
:1005C00089FC910011D7AF7B436EDE790C7ED51389
:1005D00083037AE598075C227F241197CF80638E8E
:1005E0003CE7EE0DF98AA779188F73E408C2257FDE
:1005F0001F11D7778EE00D78CE63F0A33D416EDCFE
:1006000039E60197C81F091197AF38E7C87B1E70FC
:10061000F33BC049BC096F73E488B9F01702119726
:100620000F390247E0310FB8F955E5623879CE91BC
:1006300023E6C25F084F70656E7E63686573743A27
:100640000A596F757E666F756E647E676F6C647E27
:100650006F6E6C7921004F70656E7E636865737490
:100660003A0A476F6C647E616E647E747265617372
:100670007572652100557067726164657E796F756A
:10068000727E576561706F6E210020204761696E30
:100690007E616E7E41726D6F757221004865616C7E
:1006A0007E506F74696F6E7E2B7E354850210047F7
:1006B00061696E7E617E506F69736F6E7E57616E89
:1006C000642100204761696E7E617E4963657E57C3
:1006D000616E642100204761696E7E617E466972A9
:1006E000657E57616E6421007FFF705A4B175BBBBC
:1006F0001D6C169BA5ABF02F651CFDEB781CFF4A0B
:1007000080BD1D6C169BA56B2965B877E5C872A9DD
:100710004AC1B6AD50A44891A2EAF2C401B921374A
:10072000E486DC901B72436EC88DBF8B63D4269425
:1007300024C6380877AEDCB91A86DB2486E4328614
:100740007F076EC80DB92137E486DC901B72436EBB
:10075000C803A06D05102952A4A8BA54A560DB7681
:1007600071E965296538B0BA59242821008E936F44
:10077000F8B7B0BA2F65ACB56F6F6E6F6E7BADBA60
:10078000BAEEABEBAFCE4342B821086A0C67A014B7
:100790005D4B175BBB2F2CD2556B68FC80ACB4A4AF
:1007A00085C4D2FE48C7F4EAD5C4C478F09A919CB7
:1007B000328FBC1B6BBCE338733AE50B83CE988356
:1007C0003AA84EE687CEDF995CF1EAD59D186DEC2C
:1007D00018BF4A565AD24262691F79880DD652DD37
:1007E0007DC0AC0DD6627D871E62008184010084CD
:1007F00003104EFC2CBC7A750F768A57AFAEC99C9D
:10080000EBD45BB3D25B4F735D73388C5B57D264B0
:10081000F5D6D3BB3D6E5DA9CDEA6D1C1EB1A657C2
:10082000AF26316687F183D0430C20903000807072
:1008300000C2322CCDAC3534DA5B36A7B574B1B515
:10084000DBF126D041020400F8C57C87338BCD62F2
:1008500073E6A39CB9502E940B67CA4B024C08391F
:10086000F0860B67CA8572E1CC4739B3596C1667BD
:10087000BEC32F0C74900001001E0D364BD752CA18
:1008800070EFCA91E55295826D5BA130793101F428
:10089000059BC566B1596C169BC566B1596C169B14
:1008A000C566B1596C169BC566B1596C169BC56679
:1008B000B1596C169BC566B1596C169BC566B1598A
:1008C0006C169BC566B1596C169BC566B1596C1602
:1008D0009BC566B1596C169BC566B1596C169BC514
:1008E00066B17934019E42912245D5A52A05DBB631
:1008F0008B4B2F4B29C35DDD2C368BA2EBC407C677
:1009000002301C9D883D020B11383A81F6570C3994
:1009100090717422F1D8CDB1724838F46890D5DB6B
:10092000F82943F6B81964F5D67076228C5F3164E5
:100930008F9B0117701CA7F1511803378BCDA2E8CC
:100940005ABAD8DA7D011F9F7B851B72436EC80D92
:10095000B92137E486DC901B72436EC80DB921378C
:10096000B2EEFBEFBBEFFBEFBB5FAC85DC901B7225
:10097000436EC80DB92137E486DC901B72436EC804
:100980000D59EB02011F202001014000100004005E
:100990002108084E6F00596573000909FE01010125
:1009A00001010101FE000101010101010100FE013F
:1009B000010111010101FE0001010101010101001C
:1009C000FE01050101014101FE00010101010101DA
:1009D0000100FE01410111010501FE0001010101BB
:1009E00001010100FE01450101014501FE00010177
:1009F000010101010100FE01450111014501FE0057
:100A00000101010101010100FE0155010101550132
:100A1000FE00010101010101010045766164657E6E
:100A2000747261703F008DD73DF13EF3F0AD7BB342
:100A3000673E7630714E0781B2F2398E812E04897D
:100A4000D73DF1B1C3E5DCECB91E5F1D04CAF2CE9F
:100A500091303609973BF3F031E6F732777A231C71
:100A6000799E45210C17B74F80C1048E0D30790453
:100A70002CE0373B61CEA18FB9F183BD0983057EA0
:100A8000C41FAF1C189C7C0B08FCEA862208AEF43D
:100A900029B081DFE7715CD60978CE955FE939B777
:100AA0001E798DFC3A8BFF7B636DB096524B69B417
:100AB00037D8874A6A0DB5945AAA3B73EFE85A4A69
:100AC000596C165B3B60ECB34B558A142952B06DE0
:100AD00081EC83AEA58BCD6233DC1B606FAC0DD691
:100AE000526A298DF606FB5049ADA196524B7567A7
:100AF000EE1D5D4B298BCD626B070CD7BF1EF9EF46
:100B00001347FF5F21E4BF565901010101010101B3
:100B1000010202020204040408084F70656E7E633D
:100B2000686573743A00D7BF1EF9EF1347FFCF16FD
:100B30009CBD7AF5CFC199AB675EF3E7F0EAD53398
:100B40007FE6A56B0900108811021638124E841337
:100B5000618E70A1040C658E70229C403995430C07
:100B600000000027F582DC908C498910CA858C2210
:100B700037E4863C002A048C810000B896AE1F1E24
:100B800040200610488C400C20101504620081188B
:100B900080BDF7DE07D6426EC80DB971D827208018
:100BA00006B8EC2B72436EC80DB92137E4865CF7AA
:100BB000058802014EFBC00DB92137642D0E7BEF75
:100BC000BD01620081A820100308C400C60410887B
:100BD0000104728E17402E085C2817EA8172C176D4
:100BE000246314E8025C3414192CE486DC38EC131A
:100BF0001040035CF615B92137E486DC901B724384
:100C0000AEFB02448100A77DE086DC90C5404ACA65
:100C10001258053A46325AB9500E960B2017CA059B
:100C2000818B5917B74F80C1048E0D3079042CE0A9
:100C3000373B61CEA18FB9F183BD0983057EC41F07
:100C4000AF1C189C7C0B08FCEA862208AEF429B085
:100C500081DFE7715CD60978CE955FE939B71E79F7
:100C60008DFC3A8BFF7B636DB096524B69B437D8DD
:100C7000874A6A0DB5945AAA3B73EFE85A4A596CF1
:100C8000165B3B60ECB34B558A142952B06D81EC76
:100C900083AEA58BCD6233DC1B606FAC0DD6526A80
:100CA000298DF606FB5049ADA196524B7567EE1D96
:100CB0005D4B298BCD626B070CD7BF1EF9EF134735
:100CC000FF5F21E4BF56593B9F6FA83000512800B9
:100CD0008050002214800805204201885000221410
:100CE00080080504000A80001400010108A288227F
:100CF0008A2212504400000404A00008400100842D
:100D00000210A100442800110A40840210A1000032
:100D10004201885000406080E59BFB000000800895
:100D20000080008C8537F006DEC0F3FE7BEC237874
:100D3000036FE00D64AD0400000000000038ECDF3C
:100D4000B10F0000000000C0DE833367CE5CF6DF29
:100D5000633FE2CC99CBDE0000000000C0617F90D1
:100D600013E5C0ECA008800631800A858A80002A3D
:100D700029982C413058411004011163446808A29D
:100D8000558434209A825041100441104D0090083F
:100D900082200842869D310D3120490800524627A5
:100DA00007CA89033B97FFC0EFF3304FB4A86C54D8
:100DB000362A27E7201B480002C439C809958DCA86
:100DC0004665A3B251D9A86C544E614C030420016E
:100DD000761853D9A86C54362A2DA779987716B26D
:100DE00006087480C014045800022C00011680709C
:100DF00001810E100608081710E800011680000B8C
:100E00000AB000045800022C28C00210600108A398
:100E1000807001016180300A081B40800520C002FB
:100E2000106001084E40180584B190050909FE01C3
:100E3000010101010101FE000101010101010100A7
:100E4000FE01010111010101FE0001010101010189
:100E50000100FE01050101014101FE000101010146
:100E600001010100FE01410111010501FE00010126
:100E7000010101010100FE01450101014501FE00E2
:100E80000101010101010100FE01450111014501BE
:100E9000FE000101010101010100FE0155010101F6
:100EA0005501FE0001010101010101007FFFBF9F0B
:100EB000AB57AF1A29680E5EBD7AF54F1372EADFA1
:100EC000A6A7903F8557AF5EBD7AD5484173F0EA3B
:100ED000957F03805C00B9007201E402C805900BA5
:100EE0002017402EC0DF2737E512BC187E09F122FB
:100EF000B9A0B7FC3D800B0217042E085C10B82087
:100F00007041E082C005810B02FF1CF86C4208C3EF
:100F100081140CC784508284911BC131904509F61D
:100F20000000160001180294121C03590C20001432
:100F300000011895CD9A124ECC6E64231927C696DF
:100F40000310000A80008CCA664D0927820316C967
:100F500020482821B9113A44068B302A070600059B
:100F600020C877784878C73F24E000408001842378
:100F7000EFB97AE6EAE4EACFE6CADF8B2B9F030EED
:100F80000004184038F2CF16384160020070201C6F
:100F900079CF819096009784508284913B767061DE
:100FA000208EF29CC02A211904092524370E5D9455
:100FB000858CB128C151246C425A660641C2005C3E
:100FC000E51BC0090213008003E1C83F5E9C124E7E
:100FD0008C2D32588451B96700200043F854060123
:100FE00006321C84901C0500800220382807172236
:100FF000022000453EC1D8222A2222881706CE456B
:101000003208124A488E1904092524C70C8204119B
:10101000C85CFC0B033620B001810D086C406003F6
:10102000021B10D880C006043620B001810D086C68
:10103000406003021B10D880C006043620B0018136
:101040000D086C406003023180402820B001810D02
:10105000086C406003021B10D880C006043620B024
:1010600001810D086C406003021B10D880C006048B
:101070003620B001810D086C406003021B10D8803F
:10108000C0060436F0EF823367CE9C3973E6CC9904
:101090003367CE9C3973E6CC993367CE9C3973E6BF
:1010A000CC993367CE9C3973E6CC993367CE9C39A3
:1010B00073E6CC993367CE9C3973E6EF027FFF70FD
:1010C0005A4B175BBB1D6C169BA5ABF05F45606F61
:1010D000079BC566E95A4A19EE5D39B25CAA52B05F
:1010E0006D2B142952A4A8BAFC2F23D0B602881461
:1010F0002952545DAA52B06DBBB8F4B294321C5858
:10110000DD2C12941000C7C9FF10724310D418CE02
:101110004029BA962EB6765F58A4ABD6D0F80159BE
:1011200069490B89A5FD0F9DACB4A485C4D23EF2DC
:10113000101BACA5BAFB80591BACC5FA0E3DC40010
:10114000020903000807209CF8CF197A88010412CD
:101150000600100E405886A599B586467BCBE6B4AE
:10116000962EB6763BDE043A48800000FFF50B74FD
:10117000900001001E0D364BD752CA70EFCA91E5A0
:101180005295826D5BA130793101F43F8813E029DB
:10119000142952545DAA52B06DBBB8F4B29432DC3B
:1011A000D5CD62B328BA4EFC5711C6C0CD62B32864
:1011B000BA962EB6765F0001020408102040804DDA
:1011C0006F6E73746572202020202020202020352F
:1011D0007E444D4700466F756E647E536869656C4A
:1011E00064202020202B317E4152005768657473A3
:1011F000746F6E65202020202020202B317E5850D7
:1012000000466F756E647E4D656174202020202B32
:10121000317E466F6F64004865616C74687E506F04
:1012200074696F6E2020202B317E4800466F756EEA
:10123000647E4C6F6F742020207E2B317E476F6C54
:1012400064001B1F3F8BC562020318C060B3F94BDB
:10125000EC73133184014409A627F7FA112C168B7D
:10126000C9024A58C0A20409252C4A589420A184D6
:101270004510085260B1D96CFED21B9FDF646472C6
:10128000451C9B27AD02A584F49772CF4610162CFF
:101290005860848211162C5820C8CE9DDF014C0066
:1012A00000000046669220D4816405191624496620
:1012B000060000000013F87D7CCDAFF17D1BDFEF51
:1012C00079C1CCE048E89087C06002C70698BCE0CE
:1012D0005771E4B4C205250500250048D689237F4F
:1012E000863979000000000160FFA138122E001C31
:1012F000F95D1B9F9F62667044C6903B87D4D18C7A
:101300000E85E92FE8040240A582024254001054E1
:1013100080408C131800006C013760600141162278
:10132000B20865F16C954013002A062888A110D9EF
:10133000102155B0414D6A0000500000000D000022
:1013400081041184F1433C2237E4D61B72EB0D3C3F
:10135000FA391B9F3F9C1B72E6D75092580E4A9653
:10136000CAC90A384B03C445E93ACC4119842377EA
:10137000AEFCB206D04A2E344218288380250B7664
:10138000B1D00FF5D65B6FBDF5861C3D0AB7DE7A8E
:10139000046EBDF50A1B9F5FE6907024AC75EFA04C
:1013A0002274D11FE56C7CE369CECB58407A5A8712
:1013B00009030EE83B3ECAB3AE238B3364C23C71D3
:1013C000660317896D39E66772CDAD47CF7C2D472F
:1013D000EE1F1FBF74C16432D9EBEFB9DFEFBFE777
:1013E0007EBFFF9E6B33994C58BF141F9FBF6B8508
:1013F0001B72436EC88DACBFD7FEFEFE7BEDEFEFD8
:10140000BFD85AC80DB9213764AD5F061F9FBF63AF
:10141000851B72436EC80DB92137B2FE1EFBF7ED76
:10142000BFC7FE7DFB2FB21672436EC80DB92137C0
:1014300064AD5F021F9FDF5DE186DC901B72436E2F
:10144000C80DB92137B27EEFFEFDFBF7EEDFBF7F9F
:10145000F15AC80DB92137E486DC901B7243D6FAE5
:10146000321F9FDF59E186DC901B72436EC80DB9B5
:101470002137E486DCC8FA3DFBEFB37FCFFEFBECFF
:101480005FB41672436EC80DB92137E486DC901B39
:101490007243D6FA121F9FEF56B82137E486DC90CC
:1014A0001B72436EC80DB92137E486DCC8FADEFE34
:1014B000FBEDEFEDBFDFFEE25AC80DB92137E48640
:1014C000DC901B72436EC80DB9213764AD971F9F26
:1014D0007B851B72436EC80DB92137E486DC901BF7
:1014E00072436EC80DB92137B2EEFBEFBBEFFBEFD5
:1014F000BB5FAC85DC901B72436EC80DB92137E42D
:1015000086DC901B72436EC80D59EB02011F202030
:10151000010140001000040021080817B74F80C1E6
:10152000048E0D3079042CE0373B61CEA18FB9F1E8
:1015300083BD0983057EC41FAF1C189C7C0B08FC6F
:10154000EA862208AEF429B081DFE7715CD609781B
:10155000CE955FE939B71E798DFC3A8BFF7B636DC1
:10156000B096524B69B437D8874A6A0DB5945AAAD7
:101570003B73EFE85A4A596C165B3B60ECB34B5532
:101580008A142952B06D81EC83AEA58BCD6233DC19
:101590001B606FAC0DD6526A298DF606FB5049AD23
:1015A000A196524B7567EE1D5D4B298BCD626B0783
:1015B0000CD7BF1EF9EF1347FF5F21E4BF56591345
:1015C000170160F11D160B2850000A2C60B1F90AB2
:1015D00002800020005060BB8102000280002000D9
:1015E00008000280002050AE1410000400014000EA
:1015F00010000400010001589C5800140004284FFA
:101600002800028000200008000001010101010102
:101610000101020202020404040808207E596F75C9
:1016200020616C72656164790A2068617665206565
:101630006E6F75676821007E596F7520646F6E74D8
:1016400020686176650A206F6E6520746F2073656F
:101650006C6C2100202020596F75206E6565640A2E
:1016600020206D6F726520676F6C6421001FA78357
:10167000C1E615020053B8197001C7711A6F586C92
:10168000169BC566B1596C169BC157C081042D12BB
:10169000F031B080028FDDB0176F3AA8085DF4DB3F
:1016A000000C2B2E03C05B6001051EBB612FDE7496
:1016B0005011BAE8C75D01851188AF81051478EC37
:1016C00086BD78D34145E8A24F392237E486DC90C5
:1016D0001B72436EC80DB92137E486DC901B724340
:1016E0006EC8111FBF83C1E6D50258C22D8BE931E8
:1016F0000B485FB1D82C368BCD62B3D82C368377AC
:10170000CCC4C3413200A76F800514F808E22AAFA9
:101710003AA8085DF4E3160BAA0AF135B080021F5F
:10172000415CE5550715A18B7E35191D695374E49D
:101730000DB080026F91410519C28B0E2A4217FD30
:10174000363890A045023E061650E02D3810041998
:10175000C28B0E2A4217FD3600C38ACB00F0165802
:101760004081B7E0401064082F3AA8085DF40BBC34
:101770007405144620BE061650E02D38100419C218
:101780008B0E2A42177DC22BAF5EBD7AF5EAD5AB30
:1017900057AF5EBD7AF5EAD53301087E3F3F3F97EC
:1017A000E160B1584C16938900069000124AA8D304
:1017B000E9BF3213F3BDACB6110401527098B0000A
:1017C000800238A06BACFC3361B1582C9A2FC6351F
:1017D000130800010000200024C0C4D90014001028
:1017E0000058309C2B2B23CBC99FD4818466F1FBFE
:1017F000D86C764042D0101A1028410214400010D4
:1018000000040001400010001080021800832944E9
:101810005D197FB87D66B3D96C369BC962B2582C0E
:10182000D67EEC000A8010A66C4A28412008088069
:1018300004519120000220000200F39EF197DA3F4C
:101840007BD706102820903ABC8E9D97400140001F
:10185000100004000140001000040001C039D91F2D
:10186000630125888A08000411D1120A2C3EB27F38
:10187000F7868083C567E7E621500040001000042A
:1018800000014000100004000160EF8E0F03000211
:10189000E064B23F9B1F9F1F978FB0596C169BC58A
:1018A00066B1B9E6C06432335A700210015C2E97FB
:1018B0004C0AB6ED600107BFFF7FC69CE63CF9EF1E
:1018C000E1EFEEE18FFF6FE2B04EF973FE33CAE94C
:1018D0004FF5EF2AE3EFF3EFEB0B1CC218479EE73F
:1018E00034131EFF23FBE477BFF7EF2C977559974E
:1018F0007C7C5D1610705117B74F80C1048E0D307F
:1019000079042CE0373B61CEA18FB9F183BD098307
:10191000057EC41FAF1C189C7C0B08FCEA862208BD
:10192000AEF429B081DFE7715CD60978CE955FE926
:1019300039B71E798DFC3A8BFF7B636DB096524BA5
:1019400069B437D8874A6A0DB5945AAA3B73EFE851
:101950005A4A596C165B3B60ECB34B558A142952BA
:10196000B06D81EC83AEA58BCD6233DC1B606FACB8
:101970000DD6526A298DF606FB5049ADA196524B01
:101980007567EE1D5D4B298BCD626B070CD7BF1EB3
:10199000F9EF1347FF5F21E4BF565957BFCC95AB12
:1019A0000E01DDD62058B73508D66D0D2EBD7AF55F
:1019B000EAD5AB57AF5EBD7AF5EAD5AB578F320F9C
:1019C00073E5EAD5AB57AF8E51AF5EBD7AF5EAD578
:1019D000AB57AF5EBD664DF613660647640CB97330
:1019E000481DCDE850987EC0230017100E50D83007
:1019F00060C18205290B162C58304139F99DBDF77D
:101A0000F7BCC8AA6308E7BFDBFD5B08C20084829D
:101A100010203080020B10994CA0C0120457804A4D
:101A2000CA905C2417C94572918C0D47E032C22CD4
:101A30000C98F3037BEFEF6D00E0B0DF3D1C05CEAB
:101A400006991E5BCE4C00C8D5090ABCBD7F16386E
:101A5000017202AE5EBD7A056E840302B200805050
:101A600004004402000808004014008028056A00B1
:101A700000500000000181E1EAFBBDF7F736ACBD84
:101A8000DF3D616670453A168F80C1046E2D30F9D6
:101A9000D425510CB0800212A0800428B080020B23
:101AA00028B080020B2820010A2CA0C0020A2CA01A
:101AB000C0020A2CA0C0020A2CA0C0020A2CA0C09E
:101AC000020A2CA0C0020A2CA0C0020A0C1193BD6D
:101AD000EF5CBDCFC33C5C9D9BAB7F9EFBBB960187
:101AE0003D1A4401201C1C042102B3E6A986186893
:101AF000C010FD3613280CC43104EACFD87BBFE3F5
:101B0000382EE16004B08230060827E0CF747FC72A
:101B100031772F80BCED61DE98C045684770D4E016
:101B200005387729586073C09281C2AD410658428A
:101B3000D727F6DEDF130600100622410140E17BC5
:101B400003B7089020621772436EC80DB92137D8C9
:101B5000673C7AF5EAD5AB57AF1E8C0AA0AA505560
:101B600029AA22A02A45D5881A6559698C42549120
:101B7000AA49353B760CAF5EB3E661E2D1AB57576D
:101B80008635D412868BE9D5AB57AFCED4626A576F
:101B9000EDAA5DB5AB364B2617B74F80C1048E0D4D
:101BA0003079042CE0373B61CEA18FB9F183BD09B8
:101BB00083057EC41FAF1C189C7C0B08FCEA8622A0
:101BC00008AEF429B081DFE7715CD60978CE955F65
:101BD000E939B71E798DFC3A8BFF7B636DB0965265
:101BE0004B69B437D8874A6A0DB5945AAA3B73EF4C
:101BF000E85A4A596C165B3B60ECB34B558A142982
:101C000052B06D81EC83AEA58BCD6233DC1B606F6F
:101C1000AC0DD6526A298DF606FB5049ADA19652FD
:101C20004B7567EE1D5D4B298BCD626B070C596FB1
:101C3000752075736564206120706F69736F6E2005
:101C400077616E642E0A20204465616C2032206525
:101C5000787472612064616D6167650A20202020BC
:101C6000202020706572207475726E2E00596F7579
:101C70002075736564206120666972652077616EE6
:101C8000642E0A2020204D6F6E73746572206C6F75
:101C90007365732031300A202020202020485020F6
:101CA000706F696E74732E00596F7520757365645B
:101CB00020616E206963652077616E642E0A2020A2
:101CC0004D6F6E737465722069732066726F7A65EA
:101CD0006E0A2020666F722074776F207475726EA2
:101CE000732E00320F0000F80404E4A404C44484FA
:101CF0000484448404C44484448404C404C40404A4
:101D000004E4846404A404E404E4048444840484B3
:101D100044E40404F8000000000F10101312101324
:101D20001013101113121013101310131010151399
:101D3000101010131013101310131013101113128E
:101D40001011121310100F00000909AAFF01010061
:101D50000101010001010100010101AAFF000101CF
:101D60000100010101000101010001010100010464
:101D700008003E1C080909FE01010101010101FEE4
:101D8000000101010101010100FE01010111010138
:101D900001FE000101010101010100FE0105010137
:101DA000014101FE000101010101010100FE0141AB
:101DB0000111010501FE000101010101010100FE07
:101DC00001450101014501FE00010101010101017F
:101DD00000FE01450111014501FE00010101010163
:101DE000010100FE01550101015501FE0001010143
:101DF0000101010100ABBF3F37A7C39A43FF2CA7E6
:101E00001CC71E7F8FC0B8E5CAEF5DFEF9D35F9097
:101E1000F1DDF5F75DF394B3FBAB19F77F40E5E532
:101E20009FDCACDEC6659DF2B9BFFCAFFCFBB7BF63
:101E30000B29FFEFB34FF91CC7B1FF98B9CCF96379
:101E4000BB0FE3C8DFE7EFC6AFF1382E731FC6F153
:101E50009F93FF5AC67CF5E7CE69CE533EFB27FF22
:101E600071FF0A66BE0F2B3F37075AB709C8C26118
:101E7000041091028A01B0B203CB3AD0FA4719B2EA
:101E8000100826EE0C8E20016C08E0B0A4100708A4
:101E90007114265B02D810C0806736935FBC0F00B8
:101EA00002B7BD25149980080C406452042E081412
:101EB00008029341111880080C8A8430994CA0487C
:101EC00028A0F667EC0D028070DEFBA303168000ED
:101ED000084402422829C0027E973B93CD6673D501
:101EE000EA4000040039EDFDE91E5D0E60B180E5B9
:101EF000B13F95E1409440B301805A18C2005A5254
:101F000052FEE26E8618C0C072B280C900168B7F86
:101F10001E6BFBEFAABBBF0B297FEFB3DD584994C3
:101F200032C12271C86298FC39992CA084925E2833
:101F30006111874160186258948D4306B0582CFE99
:101F40004E842065226500520620650052062065F9
:101F500050D21013B09082050B0E603081C564C260
:101F60009C3060426142410A05122850A1C062F1D2
:101F700039F63C80088880088887E9DE5FED268690
:101F80001026240491D098BDF73ECC1D9AB93E96F8
:101F9000A3CBE572B9BC6699C4C4C157180EA60696
:101FA000A646270C39CCAD952131D9FEB51C2C3075
:101FB00010A1C0624E9848000734E00007B0D8FC7A
:101FC000D3D8FFB44CCC8F00A77FD9261240168EF1
:101FD0007F127BDF40000EFB17B3F99BEC7D0601FF
:101FE00040D8FB6754054A9002933FD0DE27040097
:101FF0000190A1D52B9BCD6666FB97A4A1A10506F8
:1020000038A016009CFCFE710326152A4C8A1C1B66
:10201000BECE620183092C360B22C3CDE607750FB5
:102020005800C0BE6F00400060EFDFE95EBF731F65
:10203000862A511793A86A06ECFDFBBAFBFBB2BBDC
:102040003B011000010001100010000180027AD84D
:102050000391BF1ED93D606FDD40F838F0BA0B899F
:10206000C74EDAA31351780BBC1D8B02B090000B46
:10207000018045C743E0C807420308800080002074
:102080000008800430F4CE99CFC01A2000A8202088
:102090000908000B64DD8113001FD9D318080A0A50
:1020A000C17838BC002603F803E5CF0017B74F808E
:1020B000C1048E0D3079042CE0373B61CEA18FB97D
:1020C000F183BD0983057EC41FAF1C189C7C0B08DF
:1020D000FCEA862208AEF429B081DFE7715CD609FC
:1020E00078CE955FE939B71E798DFC3A8BFF7B631B
:1020F0006DB096524B69B437D8874A6A0DB5945A79
:10210000AA3B73EFE85A4A596C165B3B60ECB34B41
:10211000558A142952B06D81EC83AEA58BCD623304
:10212000DC1B606FAC0DD6526A298DF606FB504958
:10213000ADA196524B7567EE1D5D4B298BCD626B41
:10214000070CD7BF1EF9EF1347FF5F21E4BF5659B5
:10215000131F2F174C26021200042400040001094B
:10216000000232D9EB7BFB0E000800028000000069
:102170002000080002C083FDBD7D0700040001406F
:102180000000001000040001E0C1FE5E36932293BF
:10219000229349914991C9A4790C13DFDF5BE18651
:1021A00004842037B27EDF7E000002C083FDFBF690
:1021B000030010001EEC1F99B0596C169BE4A3138A
:1021C0001F5F5E30994CF6FABDFBFDFEBDFBFDFEC8
:1021D000BDD94C2693E6E3131F5F5C30994C2693E0
:1021E000BD7EDFFEDEFE7DFB7BFBF76533994C2673
:1021F00093E6A3139FEF56B82137E486DC901B7259
:1022000023EB7BFBF7EDEFEDDFB73F9AB0596C1690
:102210009BC566B1596C92C7139F7B851B72436E39
:10222000C80DB92137E486DCC8BAEFDFBFEFFBF792
:10223000EF47099BC566B1596C169BC566B1596CD1
:10224000922313DFDF5BF95AD6EFFBFEEFFBFE8F25
:102250009CF3B22E737E14139FDF59F97AD6EFF9EF
:102260003DBFE7F7FCA8392FEBB22E737E0C13DFCE
:10227000F7955F9BF5FEF7BFFFFD1F99F3B22EEBBD
:10228000B22EEBB22E733E0293DF2B7F8DFC2B1A06
:10229000735ED6655DD6655DD6655DD665CE013A61
:1022A0007E53756E6B656E7E4B6565707E6F667E68
:1022B0004F6721003A7E466C616D696E677E556E90
:1022C000646572776F726C64003A7E556E64656106
:1022D000647E43617461636F6D6273003A7E506F18
:1022E00069736F6E6F75737E44756E67656F6E731D
:1022F000003A7E5468657E426C61636B7E536577FD
:10230000657273000E1000387C44000000A060006D
:1023100064544C0000B84414445478C14180C0C097
:10232000C08000D88498949C94949C949884D800FD
:10233000003E302E2C2B2A2A2B2C2E303E00000063
:102340006090687434B4F4E810E00000000000000D
:102350001F205B5B211C02010000000000D0D05058
:1023600050F000E8D000000000000003040804035F
:10237000082B2B0800000000004444106838681047
:10238000444400000000707E3040707C7040307E1D
:10239000700000C03008E4727AFA7A72E40830C043
:1023A000000F00201122072506231120001F00C066
:1023B000F03018B8789888D8F0E0000000030307E0
:1023C00007071E061F020D00000000FCFC04F4F4C9
:1023D00004E404C4048404FC007F7F405F5F405F2A
:1023E000405F405F407F139F0700C2993367DE72F2
:1023F000E6CC9900F00200F8FD00C00B00E0F70306
:1024000000AF8070E6CC99779C397326C011131FFA
:1024100097059349001090002020014040042400BB
:1024200008480010900030D9EBBE1F00800020004B
:102430000800028000000020000800028000200048
:1024400070DFF7FD000004000140001000040000F0
:1024500000014000100004000180FBBE67339914A6
:1024600099149914293229322932994C9A23139FAD
:10247000FC75F837342FEBB22EEBB22EEBB22EEB0D
:10248000B22EB3010202030404051708241708241E
:1024900017FF1313273B3B4F05E742D435AA1D70A6
:1024A000447561DB02A7E81AEE0D5C2A69B43712A5
:1024B00000D344DD9909C7E6AED9D1BB2320180962
:1024C0000737474696A72C21815A17B74F80C1047A
:1024D0008E0D3079042CE0373B61CEA18FB9F183AA
:1024E000BD0983057EC41FAF1C189C7C0B08FCEA49
:1024F000862208AEF429B081DFE7715CD60978CE78
:10250000955FE939B71E798DFC3A459F3716200053
:102510002560E2707AED7C76F5EA06A29090A10340
:1025200022DA553B44060CCD671DB9682F9ED06B4F
:102530000FE809BDE6825E855B4EDC2057E5EA05C3
:10254000F8101740000AC480397472EAE70086A7C1
:10255000591C51340828591686B54162B8F0D24149
:10256000B0C79662CA4E19B0E4CC35AF3973E735BF
:10257000677F1C020B0805BBFB7AB3CDB4EE1803D2
:1025800024B20A37E0FB63218305C0691C0347E0DE
:10259000C8193812E60827E0E65F0D814D38FAC009
:1025A000CBB8406EC0959FE7DDAB57AF5EBD720400
:1025B000CE5E3922BF0601050506000503060004AC
:1025C0000205000301033632353211241FBECFEF5E
:1025D000DAE0DEBFCDBF12E0A0E0B1E0E8E7FDE663
:1025E00002C005900D92AA3FB107D9F727E0AAEFE4
:1025F000B2E001C01D92A135B207E1F712E1C4EECD
:10260000D2E104C02197FE010E947735C33ED10775
:10261000C9F70E945A320C94AF360C94000008950A
:1026200080E090E0089508950895FB012081FC0169
:1026300024A321E025A30895029608950296089503
:1026400008952BE0629FC001112468E370E0855972
:102650009F4F0C9490170F93CF93DF93FC016A3038
:1026600039F48581848396818185890F86834BC067
:1026700084816E3719F48E5F848345C0262FEF0165
:1026800066816F5F2A3374F42033F4F42B32F1F057
:102690001CF42132F9F02DC02D3289F12E3249F58A
:1026A0002FE319C02B3544F4213464F42A3381F02C
:1026B0002F33F9F422E40FC09FE9920F9A31C8F446
:1026C000275409C0215407C02C5F05C021E403C072
:1026D00023E401C02EE33F81062E000C770B082E69
:1026E000000C990B313069F40AEF4DEE50E00E9476
:1026F000321688858D5F9C81890F8C8304C020E40D
:10270000EACF0BEFF2CF81E090E0DF91CF910F9114
:1027100008950C9412360C9412360C9412360C94C4
:1027200012360C9412360C9412360C9412360C9409
:1027300012360C9412360C9412360C941236FC019C
:102740009581690F6583663038F08481843020F488
:10275000665065838F5F848308952F923F924F92D6
:102760005F926F927F928F929F92AF92BF92CF9221
:10277000DF92EF92FF920F931F93CF93DF93CDB72A
:10278000DEB72A970FB6F894DEBF0FBECDBF9A878B
:1027900089873B01D42EB22E0B83EC82DB01ED91B5
:1027A000FC910480F581E02DCB0109952C01D3012A
:1027B000ED91FC910480F581E02DC30109954C0158
:1027C000D301ED91FC910480F581E02DC3010995C1
:1027D000F2018481958168E170E00E9463359E83F7
:1027E0008D83612C712CFF24F39488E7382E898522
:1027F0009A8502969A83898322242394D201119682
:10280000B887AF838FEF8F0D823099F018F4813045
:1028100059F004C0833089F08430A1F0F4011789A5
:10282000DD2051F18B2D13C0D40155961C918B8165
:10283000C3C0F40112898C81BFC0D40154961C918D
:102840008C2DBAC0F4011389DD2081F18A2D8823F3
:1028500099F08D819E810D9778F0A985BA8519969A
:102860001C92EE24E39407E025E0A30167E770E003
:102870008F8198850E94441CE985FA8536823782CB
:102880006086412F50E060E070E02AE089819A8103
:102890000E94801AA985BA8519962C92B5E0FB167C
:1028A000D1F0F394BBE06B0E711CACCF88E7E985E7
:1028B000FA85868387838CE28087412F50E060E031
:1028C00070E02AE0CF0102960E94801A81E0A9857B
:1028D000BA8519968C93F401818D882349F047E3DA
:1028E00052E060E089859A850E94211311E001C0C1
:1028F00010E0D40159968C91823040F047E352E0C9
:10290000612F89859A850E9421131F5FF401808DB4
:10291000882341F04EE252E0612F89859A850E941A
:1029200021131F5FD40158968C91823040F04EE203
:1029300052E0612F89859A850E9421131F5FF4015F
:10294000828D882341F045E252E0612F89859A8586
:102950000E9421131F5FD4015A968C91823038F067
:1029600045E252E0612F89859A850E942113BFEFCD
:102970004B1A5B0A6AE670E0C2010E940C1C65E714
:1029800070E0C2012A960FB6F894DEBF0FBECDBF2D
:10299000DF91CF911F910F91FF90EF90DF90CF903B
:1029A000BF90AF909F908F907F906F905F904F906F
:1029B0003F902F900C940C1CD11049CFE985FA85DB
:1029C000368237826086412F50E060E070E02AE076
:1029D00089819A810E94801AA985BA8519962C92BC
:1029E00060CF4BEB51E069E170E086E290E00C943F
:1029F00090170895089508950895089508950895E5
:102A0000089508950895FC0182E291E09183808306
:102A1000158214828AE991E09383828388E0838718
:102A200081E0828717821086168281870895CF926F
:102A3000DF92EF92FF920F931F93CF93DF936C017E
:102A40007A018B01C0E0D0E0CE15DF0589F0D80116
:102A50006D918D01D601ED91FC910190F081E02DF9
:102A6000C6010995892B11F47E0102C02196ECCF95
:102A7000C701DF91CF911F910F91FF90EF90DF90F1
:102A8000CF9008950E94AA36DC01EC918E2F90E041
:102A9000FC013197EE30F10508F0E1C0EA5AFF4F32
:102AA0000C947735E7E2F7E08FE0DF011D928A951D
:102AB000E9F7CF010E94031582EC91E050C0E7E2F4
:102AC000F7E08AE1DF011D928A95E9F7CF010E94C4
:102AD000031582EB91E090932807809327071092CB
:102AE0003607109235078AE991E090933407809376
:102AF000330788E080933C0781E080933B07109286
:102B00003807109239071092370780933A071092CE
:102B10003D0710923E0710923F0786E080934007E2
:102B20009BC0E7E2F7E080E1DF011D928A95E9F7BB
:102B3000CF010E9403158AE891E028C0109229076E
:102B400082EE91E066C0E7E2F7E08FE0DF011D92E0
:102B50008A95E9F7CF010E9403158AE791E09093E7
:102B6000280780932707109233071092340710929A
:102B7000350772C0E7E2F7E080E1DF011D928A9538
:102B8000E9F7CF010E9403158AE691E090932807A8
:102B9000809327071092330710923407109235075D
:102BA0001092360759C0E7E2F7E083E1DF011D929A
:102BB0008A95E9F7CF010E9403158AE591E0909389
:102BC000280780932707109233071092340710923A
:102BD0003507109236071092370710923807109277
:102BE00039073AC0E7E2F7E086E0DF011D928A95F7
:102BF000E9F78AE491E0909328078093270780E81B
:102C00008093290780E480932B07CF01089582EDFC
:102C100091E090932807809327071EC0E7E2F7E032
:102C200080E2DF011D928A95E9F7CF010E9403152A
:102C30008AE391E0909328078093270782E08093AE
:102C40003307809334078FEF809337071092400744
:102C5000109241071092460787E297E0089580E0BE
:102C600090E008952F923F924F925F926F927F92E1
:102C70008F929F92AF92BF92CF92DF92EF92FF928C
:102C80000F931F93CF93DF9300D000D000D0CDB728
:102C9000DEB77B014115510509F429C1FA01D49031
:102CA000319674914E5F5F4FAD2DB0E0222309F154
:102CB000E72FE695E695E695AE2EB12CE1E0F0E043
:102CC000372F377011F4E0E0F0E0EA0DFB1DAE9F06
:102CD0005001AF9FB00CBE9FB00C1124033011F413
:102CE000AA0CBB1C2A9DF0012B9DF00D11244E0F48
:102CF0005F1F0F3F09F402E05C01AA0EBB1E1A140D
:102D00001B040CF0F4C0803891050CF0F0C0970162
:102D1000270F311D121613060CF0E9C0F0E4EF1670
:102D2000F1040CF0E4C04115510509F4E0C02E2D6A
:102D300027702D839701F7FE02C0295F3F4F63E0A4
:102D4000359527956A95E1F7F22FF7FE05C06D815D
:102D5000662311F0FFEFF20F97FF05C022273327FC
:102D6000281B390B02C020E030E0E0E8AE16B104C9
:102D700024F060E8762E781A01C07D2C721AEF2EAE
:102D80000F2E000CFF08FF3F1CF4CE2CC09401C096
:102D9000C12CE1E0672F677009F4E0E07695769545
:102DA00076959E2E970EE90CF11C69E0E616F1046B
:102DB0001CF0E8E09E2E9F1A1C2D1F0F60E81603E2
:102DC000800D911D1124820F931F61E070E00D8032
:102DD00002C0660F771F0A94E2F7033011F0E1E0BA
:102DE00001C0E2E0EE2EF12CCD9C200D311D11240E
:102DF000E29E5001E39EB00CF29EB00C11246A01D9
:102E0000CA0CDB1C970121503109A20EB31E4A0DDA
:102E10005B1DBB24BA94B69E9001B79E300D112461
:102E2000290140945094F90DFE83A719B109EA9F36
:102E3000A02D1124B0E0E79DA00DB11D11242E811D
:102E4000121709F454C09C0121503D4F4A0156010C
:102E5000612C671409F443C0F5013490369EF001EB
:102E6000379EF00D1124FA83E983E095F095FC83F9
:102E7000EB83023019F45C824B8210C00B3F19F4D3
:102E80001A8219820BC0F4013490369EF001379EED
:102E9000F00D1124E095F095FC83EB8317FD09C03C
:102EA000F9013080EB81E321F9813E2E3F2AF901BF
:102EB0003082FD81FF2359F017304CF4F901E058BE
:102EC000FF4F20803C8023203A80322830828E0CB5
:102ED0009F1CAE0CBF1C63942F5F3F4FBACF1F5F88
:102EE000CA0EDB1E4A0F5B1F80589F4FA8CF269645
:102EF0000FB6F894DEBF0FBECDBFDF91CF911F910B
:102F00000F91FF90EF90DF90CF90BF90AF909F9088
:102F10008F907F906F905F904F903F902F9008958B
:102F20004F925F927F928F929F92AF92BF92CF9279
:102F3000DF92EF92FF920F931F93CF93DF9300D016
:102F400000D0CDB7DEB7DC014115510509F4BAC098
:102F5000FA01D490319634914D2C512C5C01A40C83
:102F6000B51C1A141B040CF0ADC0803891050CF090
:102F7000A9C0CB01830F911D181619060CF0A2C031
:102F8000603471050CF09EC0F62FF770EF2ECB0168
:102F900077FD079623E0959587952A95E1F7F82F19
:102FA00077FF04C0EE2011F0FFEFF80FB7FF05C068
:102FB000662777276A1B7B0B02C060E070E000E8A1
:102FC000A016B10424F080E8F82EFA1A01C0FD2CF6
:102FD000F61AAF2E0F2E000CBB08FF3F1CF4CA2CB4
:102FE000C09401C0C12C91E0832F877009F490E058
:102FF000369536953695930FA90EB11C19E0A1169A
:10300000B10414F098E09F1B8C2D8F0F9D01082FA9
:1030100010E80103200D311D1124260F371F4E5FCC
:103020005F4FCD9C600D711D1124460F571F61E04D
:1030300070E00E2C02C0660F771F0A94E2F7EFEFE4
:10304000E69FD001E79FB00D1124A095B095BC83F9
:10305000AB837C809F0F8917A9F1F901E150FD4FE7
:103060006F01A12CB12CAF1438F5FA01EA0DFB1D4C
:10307000E491E69F4001E79F900C11249A82898297
:1030800087FD07C0F6011081E12FEA238E2AF601A1
:103090008082EE2051F0873044F4F601E058FF4F73
:1030A000908097208A8098289082FFEFAF1ABF0AFD
:1030B0000FEFC01AD00AD7CF8F5F440D551D20588F
:1030C0003F4FC9CF0F900F900F900F90DF91CF918E
:1030D0001F910F91FF90EF90DF90CF90BF90AF9036
:1030E0009F908F907F905F904F9008952F923F9286
:1030F0004F925F926F927F928F929F92AF92BF9208
:10310000CF92DF92EF92FF920F931F93CF93DF93B3
:10311000CDB7DEB72C970FB6F894DEBF0FBECDBF8C
:103120006C01FA0134913196E491832F8F778F5F90
:10313000A82EB12CBB82AA82C5018C0D9D1D97FDC6
:1031400069C100E8C016D1040CF064C18E2F8F73E2
:103150008F5FDB01A80FB11DB7FD5CC16034710545
:103160000CF058C1331F3327331F398331E0E6FF9A
:1031700030E0EE1FEE27EE1FEC833B0177FF04C02B
:1031800066247724661A770A17E061227724FB0108
:1031900077FD37964F01E3E095948794EA95E1F740
:1031A00077FF0CC06114710449F061E0861A910840
:1031B00068E070E0DB01A619B7093D0161E070E04D
:1031C0005B01062C02C0AA0CBB1C0A94E2F7BE826B
:1031D000AD82682F669566956695877009F06F5F7A
:1031E000E12CF12C97E0A0E1B0E080E0412C512CE3
:1031F000212C312C062F660F110B18870F830F819E
:103200001885201631060CF005C15D0101E010E0C3
:10321000F50173E0F695E7957A95E1F7E40FF51F70
:10322000E491F0E0B5016770772702C0F595E79566
:103230006A95E2F7D5011196E0FF04C00F5F1F4FBA
:103240005D01E6CF01301105C1F4FD0163E0F695A3
:10325000E7956A95E1F7E40FF51F649170E0A770B8
:10326000BB2702C075956795AA95E2F7617077272D
:103270006F5F7F4FD50112963CC00150110961E08C
:1032800070E0002E02C0660F771F0A94E2F76F5FAE
:103290007F4FA12CB12CFD01F695E795F695E795AA
:1032A000F695E795E40FF51FF491EF2FF0E0FA871C
:1032B000E987FD01E770FF27FC87EB87E985FA8541
:1032C0000B8402C0F595E7950A94E2F7E0FF0AC087
:1032D000E1E0F0E00A2C02C0EE0FFF1F0A94E2F7D3
:1032E0006E0F7F1F1196FFEFAF1ABF0AA016B1062F
:1032F00094F21C861B86EB85FC85E617F70709F41C
:1033000083C0A980AA2069F0E92FF0E0311105C03F
:1033100007E010E00E1B1F0BF801E25DFE4FE0819D
:103320008E2B915008F069C0882309F449C0122DF2
:10333000180D18300CF044C0F701EC0DFD1DE038FD
:10334000F105F0F5AD80BE808A9DF0018B9DF00DFA
:103350001124FA87E98717FD16C0C60100E810039B
:10336000800D911D11248E0D9F1D81509D4FFC01DC
:103370000081222319F0F9850F2B03C0B984B09482
:103380000B21FC01008361147104D1F01730C1F0EE
:103390001F3FB4F0C60100E81003800D911D1124F9
:1033A0008E0D9F1D81589C4FFC011081222319F026
:1033B000FA851F2B03C0EA85E0951E23FC011083CC
:1033C000AC80AA2019F0BB24B3943B250FEF401A20
:1033D000500A8A819B814816590634F49FEFE91AF6
:1033E000F90A97E080E009C0EFEF2E1A3E0AE12CBF
:1033F000F12C97E080E0412C512C0B851C850F5F50
:103400001F4F1C870B8777CFAA24A394B980AB18D2
:10341000A982F5CE2C960FB6F894DEBF0FBECDBFB5
:10342000DF91CF911F910F91FF90EF90DF90CF90A0
:10343000BF90AF909F908F907F906F905F904F90D4
:103440003F902F900895CF93DF9300D000D0CDB759
:10345000DEB7611571058105910579F09B01AC011D
:1034600069833A834B835C830E94DC3429813A81EF
:103470004B815C810E94003503C060E070E0CB01AD
:103480000F900F900F900F90DF91CF910895EF92D2
:10349000FF920F931F93CF93DF938C017B01C0E0CA
:1034A000D0E0F701EC0FFD1F6491662361F0D801B5
:1034B000ED91FC910190F081E02DC8010995892BD7
:1034C00011F02196EECFCE01DF91CF911F910F9198
:1034D000FF90EF9008956115710579F0FB0101905F
:1034E0000020E9F73197AF01461B570BDC01ED9146
:1034F000FC910280F381E02D099480E090E0089532
:103500004F925F926F927F92EF92FF920F931F9371
:10351000CF93DF93CDB7DEB7A1970FB6F894DEBF98
:103520000FBECDBF7C01FA01CB0119A2223008F4F5
:103530002AE08E010F5D1F4F422E512C612C712C01
:10354000BF01A30192010E943235F901CA01015065
:1035500011096A3014F4605D01C0695CD8016C9394
:10356000232B242B252B61F7B801C7010E946B1A6E
:10357000A1960FB6F894DEBF0FBECDBFDF91CF91FD
:103580001F910F91FF90EF907F906F905F904F9001
:103590000895CF92DF92EF92FF920F931F93CF93F4
:1035A000DF936B01770FEE08FF08F7FE1FC0EC01F9
:1035B000E881F9810190F081E02D6DE209958C019F
:1035C00044275527BA014C195D096E097F092AE085
:1035D000CE010E94801A800F911FDF91CF911F9121
:1035E0000F91FF90EF90DF90CF9008952AE0B70100
:1035F000A601DF91CF911F910F91FF90EF90DF9087
:10360000CF900C94801A3FB7F8948091490790911D
:103610004A07A0914B07B0914C0726B5A89B05C05F
:103620002F3F19F00196A11DB11D3FBFBA2FA92F41
:10363000982F8827820F911DA11DB11DBC01CD01BE
:1036400042E0660F771F881F991F4A95D1F70895AA
:103650001F920F920FB60F9211242F933F938F93C7
:103660009F93AF93BF938091FB029091FC02A09136
:10367000FD02B091FE023091480723E0230F2D3761
:1036800020F40196A11DB11D05C026E8230F029666
:10369000A11DB11D209348078093FB029093FC026B
:1036A000A093FD02B093FE028091490790914A07D2
:1036B000A0914B07B0914C070196A11DB11D8093BD
:1036C000490790934A07A0934B07B0934C07BF91CB
:1036D000AF919F918F913F912F910F900FBE0F90BF
:1036E0001F9018950F9302E00E9432160F910895D3
:1036F000F89487E78093000880930108A89588E1F3
:103700008093600088E080936000FFCF8F929F924B
:10371000AF92BF92CF92DF92EF92FF926C01E12CB9
:10372000F12C0E94031B4B015C01C114D104E10484
:10373000F104F1F00E94031BDC01CB018819990907
:10374000AA09BB09883E9340A105B10570F321E0A9
:10375000C21AD108E108F10888EE880E83E0981EAD
:10376000A11CB11CC114D104E104F10419F7DDCF8F
:10377000FF90EF90DF90CF90BF90AF909F908F9091
:1037800008958FB18095807F669B88601C9B8460C4
:103790000895FC01840F911D18161906E4F5E03810
:1037A000F105CCF5F7FF02C0E0E0F0E081389105CB
:1037B00014F080E890E0382F3E1BAB0177FF02C089
:1037C000495F5F4F83E0559547958A95E1F7569598
:1037D000542F442757954795E40FF51FE150FD4FAF
:1037E0006770772781E090E001C0880F6A95EAF75B
:1037F000482F222349F0213071F4315020F080818C
:10380000842B8193FACF08958095315020F09081D8
:1038100098239193FACF0895EF92FF920F931F93FD
:10382000CF93DF937C01EB0121E049E067E370E097
:10383000CE010E94C91B21E049E06FE370E0CE0198
:103840000E94C91B07E310E021E0A801BE01C701E7
:103850000E94EA210F5F1F4F00341105A9F7289637
:1038600007E310E021E0A801BE01C7010E94EA21A0
:103870000F5F1F4F00341105A9F7DF91CF911F9102
:103880000F91FF90EF9008956F927F928F929F9289
:10389000AF92BF92CF92DF92EF920F931F93CF938D
:1038A000DF934C016A01EB013B01620E711C5A016E
:1038B000A00EB11CC615D705DCF48601D7FE0EC0DC
:1038C00000E010E00BC00817190784F42E2DA801A2
:1038D000BE01C4010E94EA210F5F1F4FC50121E410
:1038E000A216B10484F380E490E0EDCF2196E2CFFC
:1038F000DF91CF911F910F91EF90DF90CF90BF900C
:10390000AF909F908F907F906F90089508950F9340
:103910001F93CF93DF931F92CDB7DEB78B01DB01EF
:10392000ED91FC910480F581E02DCB010995FC011E
:10393000278120959681822F892383FF0DC0D8018E
:10394000ED91FC910084F185E02D8DE08983BE012D
:103950006F5F7F4FC80109950F90DF91CF911F9145
:103960000F91089508950895DB01ED91FC91048075
:10397000F581E02DCB01099521E04DEB50E160E0B0
:1039800070E080E090E00E94761821E04CEA5EE072
:1039900060E070E080E090E00C947618CF93DF93C5
:1039A000EC01DB01ED91FC910480F581E02DCB0170
:1039B000099521E047EC5CE068E070E08EE090E083
:1039C0000E947618EE85F0E0EE0FFF1FED5BFD4FD5
:1039D0004081518121E06FE070E083E290E0DF916F
:1039E000CF910C947618CF93DF93EC01DB01ED912E
:1039F000FC910480F581E02DCB01099589E08B874E
:103A000083E08E838F8382E088872E854CE25EE0A0
:103A100061E070E080E390E00E94721B21E044EAE4
:103A20005DE060E170E08EE090E00E9476182E8507
:103A3000CE010296253018F066E576E002C065E317
:103A400076E00E94471A88E08B87DF91CF91089536
:103A50006F927F928F929F92AF92CF92EF920F933D
:103A6000CF93DF93EC014B01DB01ED91FC910480DE
:103A7000F581E02DCB0109953C01D401ED91FC913C
:103A80000480F581E02DC4010995F30164807580FF
:103A900021E049EB5CE060E070E080E090E00E94B3
:103AA000761821E043E65CE060E070E089E590E0B4
:103AB0000E94761821E043E25CE060E070E089E675
:103AC00090E00E94761821E046E25BE060E070E062
:103AD00080E090E00E9476189C85913071F118F09A
:103AE000923019F12EC08D85813110F521E044EA24
:103AF0005DE060E170E08EE090E00E9476180AEFF1
:103B00002E854CE25EE061E070E080E390E00E9490
:103B1000321683E08E838F8382E088876AE17BE0C0
:103B2000CE0102960E94471A0CC08F85811105C0F4
:103B3000B401CE010E94F31C04C0B401CE010E9466
:103B4000CE1C9E85EE24E394953009F0E12C01E033
:103B5000943009F000E021E0963009F020E08C85F7
:103B6000823039F44F85442329F041E08D85863435
:103B700008F040E0A12CCC24C394B401CE010E94F3
:103B8000AD138C85823041F58F85882329F18D8591
:103B9000863410F5C30168E170E00E9463350D972B
:103BA000D8F08AE08E838F831886EE85E150F0E0AE
:103BB000EE0FFF1FEF5AFD4F60817181CE0102961B
:103BC000DF91CF910F91EF90CF90AF909F908F901A
:103BD0007F906F900C94471ADF91CF910F91EF90E7
:103BE000CF90AF909F908F907F906F900895AF92FD
:103BF000BF92CF92DF92EF92FF920F931F93CF93DA
:103C0000DF9300D01F92CDB7DEB78C016B01DB01D3
:103C1000ED91FC910480F581E02DCB0109955C01CB
:103C2000D601ED91FC910480F581E02DC601099546
:103C30007C01BC016E5E7F4FD601ED91FC9104804A
:103C4000F581E02DC6016A837B830995FC01AC01F7
:103C5000435F5F4FD50117962C91179720951696C5
:103C60009C912923D8011C969C916A817B8192307A
:103C7000E9F028F49923D1F0913041F0C3C093309A
:103C800009F49AC0943009F4AEC0BCC0F80185852F
:103C90008634F8F023FFB6C09685F701828989172C
:103CA00008F096C0F801158682E07AC0D8011D960A
:103CB0008C918D3088F466E070E080E090E00E94A6
:103CC000231ADC01CB010196A11DB11DF8018687E5
:103CD00085858F5F858796C0D801923009F062C0D4
:103CE0001E962C91233009F128F4213069F02230FE
:103CF00091F046C0253039F1D70155969C91253079
:103D0000D8F0263039F13CC0F70183898823C1F10E
:103D10008150838B35C0D70154968C91549788235A
:103D200079F1815054968C932BC0F70182898823B6
:103D300039F18150828B24C0923010F19150D7011B
:103D400055969C931DC0F70187898230C8F0815039
:103D5000878B16C0943090F09350D70155969C9362
:103D600096859A3020F4963030F49D5F05C09F30E0
:103D700038F49B5F01C09C5F968702C0F701158AEB
:103D8000D70155968C91882349F0F501158214824C
:103D9000D8011D961C921D9783E00BC084E0F801AA
:103DA000848730C01D961C921D97F50115821482E0
:103DB00081E01C968C9326C0D8011D968C911D978E
:103DC000863420F48F5F1D968C931CC023FF1AC08D
:103DD000CA010E948B23D601ED91FC910084F185EC
:103DE000E02D8BE009C023FF0DC0D601ED91FC91C1
:103DF0000084F185E02D8AE08983BE016F5F7F4FEB
:103E0000C60109950F900F900F90DF91CF911F91F0
:103E10000F91FF90EF90DF90CF90BF90AF900895FB
:103E20006F927F928F929F92AF92BF92CF92DF92CA
:103E3000EF92FF920F931F93CF93DF931F92CDB713
:103E4000DEB77C015B01DB01ED91FC910480F58123
:103E5000E02DCB0109956C01D501ED91FC91048019
:103E6000F581E02DC50109958C013C01B2E16B0E95
:103E7000711CD501ED91FC910480F581E02DC50107
:103E800009954C01F6018781809596818923D70198
:103E90001C962C91223020F0223009F4B9C0D2C0F7
:103EA000D7011D96EC91E131D0F5F0E0E75FF44FDA
:103EB000649170E0F601848195810E946335892BBD
:103EC00009F0C0C0D80159969C91599758968C9189
:103ED0005897890F5A969C91890F823061F463E05C
:103EE00070E080E090E00E94231ADC01CB01049690
:103EF000A11DB11D0BC066E070E080E090E00E9463
:103F0000231ADC01CB010196A11DB11DF7018687A3
:103F100085858F5F8587F6011582148293C0D7014E
:103F20001E969C911E97213009F053C01F962C932A
:103F30009330E1F060F49130A1F09230A9F5D8010E
:103F400059968C9159978F5F59968C932DC09530C7
:103F5000F9F088F0963041F561E0C3010E949F13AB
:103F600023C0F801808D8F5F808F1EC0F801828D85
:103F70008F5F828F19C0D80155968C9190E005967D
:103F80008531910514F084E190E0F801858B0CC037
:103F9000D80152968C9190E001968630910514F0EC
:103FA00085E090E0F801828BD7011D961C921D9749
:103FB00082E01C968C93F8018489D40151969C91DF
:103FC000911102C091E001C092E0890FF801848B49
:103FD00039C0953040F083FF35C0D7011D961C9243
:103FE0001D9781E012C0F8018489D40151969C91FB
:103FF000911102C091E001C092E0890FF801848B19
:10400000D7011D961C921D9782E01C968C931AC0B6
:10401000F7019585963410F49F5F958783FF12C052
:10402000B301C4010D960E948B23D501ED91FC9143
:104030000084F185E02D8BE08983BE016F5F7F4FA7
:10404000C50109950F90DF91CF911F910F91FF90BE
:10405000EF90DF90CF90BF90AF909F908F907F9028
:104060006F9008957F928F929F92AF92BF92CF925E
:10407000DF92EF92FF920F931F93CF93DF93EC01A8
:104080004B01DB01ED91FC910480F581E02DCB012A
:1040900009955C01D401ED91FC910480F581E02D3E
:1040A000C40109958C01D401ED91FC910480F58146
:1040B000E02DC4010995F501E480F58021E04BEF86
:1040C0005AE060E070E080E090E00E94761821E025
:1040D00045EA5AE060E070E089E590E00E947618D9
:1040E00021E045E65AE060E070E089E690E00E9459
:1040F000761821E043E55AE068E270E080E090E065
:104100000E94761821E04FE35AE068E270E08FE405
:1041100090E00E94761869E0C62ED12C21E046E29C
:104120005AE068E270E0C6010E947618FEE0CF0E09
:10413000D11C8FE4C816D10489F78C85823009F42C
:104140006AC050F0833009F4ADC0843009F0D2C0A9
:10415000CE010E94F114CEC053E0752E7E827F8284
:1041600078866E01A2E0CA0ED11C6AE17AE0C6012F
:104170000E94471A82E48E838F8378862E854AE9CF
:1041800059E062E070E083E390E00E94721B8C854E
:10419000813009F0AFC0C70168E170E00E9463356B
:1041A0009C0191E02D30310508F490E08D85863436
:1041B00010F4911119863E85F8012289231798F091
:1041C000863470F4992361F0EE24E39407E02FE045
:1041D00043E050E060E470E0C50101960E94441C99
:1041E00066E979E012C0863470F4992361F0EE2418
:1041F000E39407E02BE043E050E060E470E0C501A9
:1042000001960E94441C63E979E0C6010E94471AA6
:1042100081E089876FC0ED85F0E0EE0FFF1FE55D5F
:10422000FD4F4081518121E068E070E08CE190E039
:104230000E947618ED85ED3028F5F0E0E25EFD4F46
:104240008081882309F456C010E0912F990F2D85A5
:1042500030E0F901E25EFD4F8081181708F04AC096
:10426000205F3F4FF901EE0FFF1F21E044E859E0C6
:1042700068E070E0DF01A90FB11DCD010E94761842
:104280001F5FE3CFEE85F0E0EE0FFF1FE05FFD4F15
:104290004081518121E06AE070E08EE190E00E946F
:1042A000761828C021E046E459E068E070E08CE12F
:1042B00090E00E947618EE85F0E0EE0FFF1FE05FC1
:1042C000FD4F4081518121E06AE070E08EE190E095
:1042D0000E94761884E08E838F831886EE85F0E046
:1042E000EE0FFF1FEC5FFD4F60817181CE010296E2
:1042F0000E94471A8E85AA24A394813009F0A12C2C
:10430000CC24C394823009F0C12CEE24E394833092
:1043100009F0E12C01E0843009F000E021E0853073
:1043200009F020E08C85833021F441E08D858634CE
:1043300008F040E0B401CE010E94AD13DF91CF91AF
:104340001F910F91FF90EF90DF90CF90BF90AF90B3
:104350009F908F907F9008950F931F93CF93DF933B
:10436000EB01E881F9810480F581E02DCB0109950D
:10437000E881F9810480F581E02DCE0109958C0159
:10438000E881F9810480F581E02DCE01099521E0D5
:1043900048EE56E060E070E080E090E00E94761821
:1043A000F8012585243050F430E0F901EE5FFD4F2F
:1043B0008081F901E250FE4F408102C040E080E080
:1043C00021E06FE370E090E0DF91CF911F910F91BA
:1043D0000C94C91B60387105D0F440345105B8F411
:1043E000E7EBF1E180E1849FD001A0781124A60FD2
:1043F0004770E40FF11D8491A150BD4F222319F0A5
:104400006C91862B03C080956C9186238C930895C4
:10441000893061F028F4823049F0853029F406C0F3
:104420008E3021F0833111F080E0089581E008950D
:10443000EF92FF920F931F93CF93DF93EC018B01C9
:10444000DB01ED91FC910480F581E02DCB01099514
:104450007C01D801ED91FC910480F581E02DC8012B
:10446000099540E0B801CE010E94B32DD801ED912D
:10447000FC910480F581E02DC8010995FC01808143
:10448000873001F1883009F442C0863009F04CC011
:10449000D7011E961C9166E070E080E090E00E94DB
:1044A000231A610F6E5F6E87D7011E96EC91EF3075
:1044B00028F4F0E0E555FD4F808101C084E0880FCD
:1044C0008E5F31C0D7011E96EC91EF3028F4F0E0FA
:1044D000E555FD4F908101C094E0892F880F880F2A
:1044E000980F965F9E87D7011E96EC91EF3038F4B7
:1044F000F0E0E555FD4FE081E53038F401C0E4E03F
:10450000F0E0E056FD4F80810EC080E00CC0F70166
:10451000168566E070E080E090E00E94231A610F4B
:104520006E5F6E8785E08F8782E08D87DF91CF9108
:104530001F910F91FF90EF9008958F929F92AF92ED
:10454000CF92EF920F931F93CF93DF93EC014B0128
:10455000DB01ED91FC910480F581E02DCB01099503
:10456000D401ED91FC910480F581E02DC401099501
:1045700004EF1FEF21E04FEB55E168E270E0C80166
:104580000E9476180C5E1F4F0835110599F721E03F
:1045900041EB55E160E070E080E090E00E94761829
:1045A00021E04BE555E160E070E089E590E00E9494
:1045B000761821E04BE155E160E070E089E690E09B
:1045C0000E9476188C85813009F44FC038F0823013
:1045D00009F073C0CE010E94F1146FC0ED85F0E0C8
:1045E000EE0FFF1FEA57FD4F4081518121E068E047
:1045F00070E08CE190E00E947618ED85ED3028F5B2
:10460000F0E0E758FD4F8081882309F456C010E0A0
:10461000912F990F2D8530E0F901E758FD4F8081EA
:10462000181708F04AC0205F3F4FF901EE0FFF1F37
:1046300021E04CE055E168E070E0DF01A90FB11D19
:10464000CD010E9476181F5FE3CFEE85F0E0EE0FFC
:10465000FF1FE559FD4F4081518121E06AE070E084
:104660008EE190E00E94761828C021E04EEC54E1E3
:1046700068E070E08CE190E00E947618EE85F0E052
:10468000EE0FFF1FE559FD4F4081518121E06AE0A7
:1046900070E08EE190E00E94761884E08E838F8334
:1046A0001886EE85F0E0EE0FFF1FE15AFD4F6081A6
:1046B0007181CE0102960E94471A8E85AA24A39486
:1046C000833009F0A12CCC24C394813009F0C12C93
:1046D000EE24E394853009F0E12C01E0823009F00A
:1046E00000E021E0843009F020E08C85813021F465
:1046F00041E08D85863408F040E0B401CE010E948F
:10470000AD13DF91CF911F910F91EF90CF90AF90AC
:104710009F908F9008950F931F93CF93DF93EC0199
:104720008A818F5F8A83833091F08B01843030F4EB
:10473000813059F0823069F481E009C0843039F069
:10474000853039F486E08B830EC01B821DC08B83BD
:104750001BC0863031F489810E940822811108C073
:1047600013C0853089F489810E94082281110CC010
:10477000F801818181508183882331F01A828981F7
:104780008F5F89831B821C82DF91CF911F910F91D4
:1047900008958F929F92AF92BF92CF92DF92EF9245
:1047A000FF920F931F93CF93DF9300D0CDB7DEB767
:1047B0008C017B01DB01ED91FC910480F581E02D02
:1047C000CB0109954C01D701ED91FC910480F58155
:1047D000E02DC70109956C01D701ED91FC91048092
:1047E000F581E02DC7010995F401B780B0942681C9
:1047F000B222D8011C96EC914E2F50E04C3051055E
:1048000008F02CC2FA01EC59FF4F0C947735F801EF
:10481000818D863408F022C28F5F818F863409F043
:104820001DC2118E8585848733C0D8015996EC91BD
:10483000E131A0F5F0E0E65FF94E649170E0F4013B
:10484000848195810E946335892B09F007C2F12C80
:10485000D60156968C91F816B8F45801AF0CB11CDD
:10486000D5015B968C9181110DC066E070E080E00F
:1048700090E00E94231ADC01CB010196A11DB11D1D
:10488000F501818BF394E4CFF801818D8F5F818FE7
:10489000D40115961C921E921497E0C1F8018189EB
:1048A000863059F08289863051F08389863049F00C
:1048B0008489863041F087E007C083E005C084E04A
:1048C00003C085E001C086E0D80150968C9341E09A
:1048D000B701C8010E94B32D83E0DDC0B5FE2AC038
:1048E000D80150968C91509787302CF054969C911B
:1048F000963019F417C0863029F4F8019389963060
:1049000019F412C0853031F4D80152969C9196303A
:1049100019F40CC0843059F4F8019189963039F4B7
:1049200083E005C086E003C085E001C084E0D801D3
:1049300050968C93B6FE2BC0F8018089833024F406
:104940008189863019F41AC0833031F4D801529627
:104950008C91863019F414C0843029F4F8018389CD
:10496000863019F40FC0853031F4D80154968C91FB
:10497000863051F40AC0863041F406C083E005C099
:1049800084E003C085E001C087E0F801808BB3FEBE
:1049900065C1D8015096EC91E3300CF45FC1E7306B
:1049A00034F0E73009F05AC1C12CD12C1EC0D80117
:1049B00059961C9259970E2E000CFF0B3397E00F5F
:1049C000F11F138E85898F5F858B82E06BC0F801A4
:1049D000EC0DF11D8189813039F0D80E8589982F31
:1049E000990F890F880FD80EC394D701ED91FC91D0
:1049F0000480F581E02DC7010995FC018689C81660
:104A000030F3D8015F968C91811182E0D80EF801C5
:104A1000868590E08D1991098F31910514F08EE112
:104A200090E097FF02C080E090E0D8011E968C9342
:104A300040E0B701C8010E94B32DF80186858111BD
:104A400005C0B701C8010E941A2E08C1118E4FEF90
:104A5000B701C8010E94E92D83300CF08FEFF801F7
:104A6000808BDD2081F08F3F49F41486828D811187
:104A700002C085E006C082E0D801B0C0F80114860B
:104A800084E08587EBC08F3F81F4D8015A968C91E2
:104A9000811106C085E0F8018487E0C0B3FEDEC066
:104AA00082E0D8011C968C93D9C084E0F4CFB7FE85
:104AB00026C0D80150962C91D701ED91FC9104802D
:104AC000F581E02DC7012A830995FC012A81233055
:104AD00024F0828D81110EC002C0223021F4818D1C
:104AE000882319F009C0213041F4808D882329F0F2
:104AF00020E003C022E001C021E0F801208BB4FED9
:104B000009C0D80150964C91B701C8010E94E92D07
:104B1000F801808BB3FEA2C0D80150968C915097BB
:104B2000813021F1823079F18111AFCFF601808D92
:104B30008150808F1E968C9190E00A978F3191055D
:104B400014F08EE190E097FF02C080E090E0D80181
:104B50001E968C9340E0B701C8010E94B32DF80166
:104B60008685882309F46DCF8AE096CF82E0D8014C
:104B70005A968C935A9789E01C968C93F601818DF6
:104B80008150818F6BC081E0D8015F968C935F97D5
:104B90008BE01C968C93F601828D8150828F5EC0D3
:104BA000F601858990E0D8011F962C91821B91090E
:104BB0002289820F911D8531910514F084E190E0E6
:104BC00097FF02C080E090E0F601858B892B49F4C5
:104BD00081E0D8011C968C931C9788E01D968C93DD
:104BE0003DC040E0B701C8010E94B32D81E0F8014B
:104BF000848782E046CFD80159968C9159978634A4
:104C000068F58F5F59968C935997863439F587E00C
:104C100049CFB3FE23C021E0FC01218BB6016E5EBB
:104C20007F4F0D960E948B23D701ED91FC9100845C
:104C3000F185E02D8BE009C0B3FE10C0D701ED91E6
:104C4000FC910084F185E02D8AE08983BE016F5FCD
:104C50007F4FC701099502C0B3FC1CCF0F900F9086
:104C6000DF91CF911F910F91FF90EF90DF90CF9048
:104C7000BF90AF909F908F9008958F929F92AF9228
:104C8000BF92CF92DF92EF92FF920F931F93CF9339
:104C9000DF931F92CDB7DEB77C018B01DB01ED9175
:104CA000FC910480F581E02DCB0109954C01D801E0
:104CB000ED91FC910480F581E02DC80109956C010E
:104CC0005C01B2E1AB0EB11CD801ED91FC91048006
:104CD000F581E02DC8010995AC01F401978190950B
:104CE00026819223D7011C962C91213009F453C0C0
:104CF00020F0223009F474C082C0F70185858C3021
:104D000088F466E070E080E090E00E94231ADC0105
:104D1000CB010196A11DB11DF701868785858F5FA7
:104D200085876DC096859330E1F028F4913041F08D
:104D3000923069F02BC09430D9F09530F1F026C054
:104D4000F6018489843110F58F5F848B1FC0D601F2
:104D500055968C9155978431C8F48F5F55968C93F6
:104D600015C0F60183898A3088F48F5F838B0EC06B
:104D700061E0C5010E949F1309C0D60152968C9133
:104D80005297853018F48F5F52968C9381E0F7012B
:104D90008487158634C0D7011D962C911D97263423
:104DA00020F42F5F1D962C932AC093FF28C0F70193
:104DB0008685863068F4B501CA010D960E948B2362
:104DC000D801ED91FC910084F185E02D8BE011C0BC
:104DD000D801ED91FC910084F185E02D88E009C0B7
:104DE00093FF0DC0D801ED91FC910084F185E02D79
:104DF0008AE08983BE016F5F7F4FC80109950F90DC
:104E0000DF91CF911F910F91FF90EF90DF90CF90A6
:104E1000BF90AF909F908F9008956F927F928F92E6
:104E20009F92AF92BF92CF92DF92EF92FF920F9339
:104E30001F93CF93DF938C01EB01E881F98104800C
:104E4000F581E02DCB0109955C01E881F9810480B1
:104E5000F581E02DCE0109957C01E881F98104807E
:104E6000F581E02DCE0109956C01F7019685993009
:104E700051F028F4923039F0953039F404C09E3066
:104E800011F0933111F497E001C096E0F801918F91
:104E9000F50115821482F7018785811150C0F80150
:104EA000168A108E87E0B82EB78A81E0F7018787CF
:104EB000E881F9810480F581E02DCE010995FC019E
:104EC000B1A29AE0992E66E070E080E090E00E9446
:104ED000231A862E66E070E080E090E00E94231A9C
:104EE000A62EE881F9810480F581E02DCE01099597
:104EF0003C01B12CE881F9810480F581E02DCE01DF
:104F00000995DC01A80DB11D5B968C915B97F301AF
:104F1000EA0DFB1D938D5B969C93838F9A94911061
:104F2000D2CFF60183898F3F89F48FE7F801808F14
:104F300082E0868BF601138AF701178607C08FE798
:104F4000F801808F87E0878B81E0868BDF91CF919E
:104F50001F910F91FF90EF90DF90CF90BF90AF9097
:104F60009F908F907F906F9008954F925F926F9275
:104F70007F928F929F92AF92CF92DF92EF92FF92A9
:104F80000F931F93CF93DF933C01EB01E881F981ED
:104F90000480F581E02DCB0109954C01E881F98170
:104FA0000480F581E02DCE010995F401848195817D
:104FB00068E170E00E9463352C0121E048ED5BE17F
:104FC00060E070E089E590E00E94761821E048E911
:104FD0005BE160E070E089E690E00E94761821E0F5
:104FE0004BE959E160E070E080E090E00E947618C3
:104FF000F3019585AA24A3949111A12C01E091308D
:1050000009F000E021E0923009F020E041E0F301F6
:105010008485813009F040E0C12CE12CBE01C30140
:105020000E94AD13FDE04F16510408F45AC0F3017D
:105030008585813039F0823041F4DFE3C0E007E557
:1050400012E307C0DFE3C4E202C0D2E2C0E000E343
:1050500010E0F12E6C2E712C2401FFEF4F1A5F0A25
:105060000F1550F06F2D70E020E0A301C2010E94E7
:10507000EA21F394F394F4CFF12E6D2E712C2401D8
:105080008FEF481A580A0F1550F06F2D70E020E08E
:10509000A301C2010E94EA21F394F394F4CFDC2E21
:1050A000E12EF12C3401EFEF6E1A7E0ADD1550F07F
:1050B0004D2D50E020E0B701C3010E94EA21D394B6
:1050C000D394F4CF10E0FFEF8F1A9F0ADC1748F05B
:1050D0004C2F50E020E0B801C4010E94EA21CE5FCD
:1050E000F5CFDF91CF911F910F91FF90EF90DF905F
:1050F000CF90AF909F908F907F906F905F904F90E8
:105100000895AF92BF92CF92DF92EF92FF920F93EA
:105110001F93CF93DF931F92CDB7DEB77C016B0156
:10512000DB01ED91FC910480F581E02DCB01099527
:105130005C01D601ED91FC910480F581E02DC60162
:1051400009958C01D601ED91FC910480F581E02D4B
:10515000C6010995F501278120953681232319F091
:10516000D7011E961C92F7013485332321F031308C
:1051700009F4ADC0D5C027FF05C03585332311F034
:105180003150358724FF06C0F7013585353010F4DE
:105190003F5F358723FFC4C0D7011D96EC91E230F5
:1051A000F1F128F4EE2339F0E13021F17DC0E63051
:1051B00008F458C079C0F8013489311102C031E0D7
:1051C00005C0F80133893A3029F433E0D7011E963F
:1051D0003C936AC031E0F701328BD80153963C9181
:1051E00053973F5F53963C93539754963C915497F3
:1051F000315035C0D80154963C9154973323F9F27D
:1052000055963C91343109F3D7015096EC93F8014F
:1052100035893F5F358B34893150348B45C0D80197
:1052200054963C915497333050F255963C91559793
:10523000343159F231E0F701308B55964C9150E002
:105240004C5F5F4F4531510514F044E150E0D80107
:1052500055964C93559754963C9154973350549689
:105260003C9322C0D80154963C915497383008F4AE
:10527000A6CF59965C91599758964C915897450FDF
:105280005A965C915A97450F423008F09ECFF0E055
:105290003397E00FF11F408D4F5F408F3850549689
:1052A0003C9331E0F701318BD70150963C915097F8
:1052B000311109C01F963C911F97311104C05296BD
:1052C0003C91332369F131E0F701318B29C027FF8D
:1052D00005C03585332311F03150358724FF06C0D2
:1052E000F7013585333010F43F5F358723FF18C051
:1052F000D7011D963C911D97F801E30FF11D308DEC
:10530000332351F03150308FF80134893C5F348BB6
:1053100031E051963C9304C032E0D7011E963C9395
:10532000322F307659F031E0F7014485411130E0F9
:10533000D7011C963C931C971D961C9222FF13C00C
:10534000B8016E5E7F4F0D960E948B23D601ED91C2
:10535000FC910084F185E02D8BE08983BE016F5FB5
:105360007F4FC60109950F90DF91CF911F910F914B
:10537000FF90EF90DF90CF90BF90AF9008956F9225
:105380007F928F929F92AF92BF92DF92EF92FF92A5
:105390000F931F93CF93DF931F92CDB7DEB78C018E
:1053A0007B01DB01ED91FC910480F581E02DCB01C7
:1053B00009953C01D701ED91FC910480F581E02D28
:1053C000C70109955C014C01B2E18B0E911CD7011C
:1053D000ED91FC910480F581E02DC70109959C01B8
:1053E000F301D780D0948681D822D8011C969C9155
:1053F000992321F0913009F44AC07CC0D5FE06C043
:10540000F8018585823011F486858587D6FE0CC02B
:10541000D8011D968C911D97823031F01E968C9389
:105420001E9782E01D968C93D4FE0CC0F8018585F2
:10543000811108C081E08587D7FE0AC0D8011D967A
:105440001C9206C0D7FE04C0F80185858130B1F3F7
:10545000D3FE50C0D8011D968C91813069F038F090
:10546000823089F461E0C4010E949F130CC0F501F1
:1054700083898F5F838B07C0D50155968C91559793
:105480008E5F55968C9381E0F801848733C0590173
:10549000FDE0AF0EB11CD8011F969C911F9796346A
:1054A000B0F49F5F1F969C93963489F4B401C501B4
:1054B0000E948B23D701ED91FC910084F185E02DB2
:1054C0008BE08983BE016F5F7F4FC7010995D3FED3
:1054D00011C0B401C5010E948B23D701ED91FC914D
:1054E0000084F185E02D8BE08983BE016F5F7F4FE3
:1054F000C70109950F90DF91CF911F910F91FF90F8
:10550000EF90DF90BF90AF909F908F907F906F90C3
:1055100008958F929F92AF92CF92DF92EF920F9366
:105520001F93CF93DF93EC014B01DB01ED91FC91D5
:105530000480F581E02DCB0109956C01D401ED913A
:10554000FC910480F581E02DC401099521E04DE82E
:1055500059E160E070E080E090E00E94761821E080
:1055600047E359E160E070E089E590E00E94761839
:1055700021E047EF58E160E070E089E690E00E94AA
:10558000761820E047EB58E160E070E087E290E0B9
:105590000E94761821E04CE957E160E070E087E274
:1055A00090E00E947618BFEFCB1ADB0A21E045E5B8
:1055B0006CE370E082E090E00E94C91B03E010E021
:1055C00021E04EE350E0B801C6010E94EA210E5FDF
:1055D0001F4F09351105A1F704E010E021E04FE36A
:1055E00050E0B801C6010E94EA210E5F1F4F083546
:1055F0001105A1F78C85882329F0813031F44DE61F
:1056000056E105C043EE56E102C040E050E021E023
:1056100061E070E082E090E00E9476186D8570E0B5
:105620006F5F7F4F93E0660F771F9A95E1F749E927
:1056300057E182E090E00E9490176D8570E06F5F07
:105640007F4F23E0660F771F2A95E1F749E957E17D
:1056500081E290E00E9490178E85882309F447C06C
:10566000E12C0AE120E447E150E06FE170E0C6017F
:105670000E94441C21E04AE369E170E082E290E08C
:105680000E94C91B21E04AE36EE270E082E290E0F2
:105690000E94C91B0AE110E021E0A80161E270E06C
:1056A000C6010E94EA210F5F1F4F0E321105A1F7BC
:1056B0000AE110E021E0A8016CE570E0C6010E945B
:1056C000EA210F5F1F4F0E321105A1F784E28E838E
:1056D0008F838CE18887EE85F0E0EE0FFF1FED559C
:1056E000FD4F60817181CE0102960E94471AAA88FF
:1056F000C988E12C08892F8541E0B401CE010E94C0
:10570000AD13DF91CF911F910F91EF90DF90CF906C
:10571000AF909F908F9008954F925F926F927F927B
:105720008F929F92AF92BF92CF92DF92EF92FF92B1
:105730000F931F93CF93DF93EC014B01DB01ED91AE
:10574000FC910480F581E02DCB0109952C01D40159
:10575000ED91FC910480F581E02DC40109956C0167
:10576000D401ED91FC910480F581E02DC4010995EF
:10577000F2018481958164E170E00E946335BB246D
:10578000B3940B9708F4B12C21E042E451E260E0BD
:1057900070E080E090E00E94761821E04CEE50E24C
:1057A00060E070E089E590E00E94761821E04CEA24
:1057B00050E260E070E089E690E00E94761821E017
:1057C00041E550E260E070E080E090E00E947618F1
:1057D000D401ED91FC910480F581E02DC40109957F
:1057E000FC018081873049F0883011F0863051F417
:1057F00041E35EE108E11FE109C045EF5DE106E636
:105800001EE104C040E050E000E010E020E060E075
:1058100070E08AE390E00E94761821E0A80160E041
:1058200070E08AE390E00E94761821E048EC5FE1A6
:1058300060E070E083E290E00E9476188C85811130
:1058400014C0BB2091F019868E858A3010F02AE0B2
:1058500001C025E0EE24E39407E042E050E064E17B
:1058600070E0C20101960E94441C15E11E831F8353
:1058700082E088873E01F2E06F0E711C4E8550E099
:1058800060E070E02AE0C3010E94801A81E089870D
:105890001E831F838AE088874F8550E060E070E0B8
:1058A0002AE0C3010E94801A1E831F8384E1888737
:1058B000D60158964C9150E060E070E02AE0C301B8
:1058C0000E94801A1E831F838EE18887F601418D16
:1058D00050E060E070E02AE0C3010E94801A1E835D
:1058E0001F8388E28887D6015A964C9150E060E089
:1058F00070E02AE0C3010E94801A8A8D811104C0E1
:105900008F8D882351F117C0880F880F9DE1F92EE4
:10591000F80E2DE1E22E82010F5F1F4FFE1480F37F
:105920004E2D50E022E060E070E0C8010E94EA21C4
:10593000E394E394F3CF07E210E07201BFEFEB1AB8
:10594000FB0A22E0A80160E070E0C7010E94EA21A2
:105950000E5F1F4F01331105A1F710E0D6015696D7
:105960008C91181788F4FE01E10FF11D2AE0129FB7
:10597000C0011124218945E75DE164E370E00396ED
:105980000E94721B1F5FEACF9C859350923088F46F
:105990009889973011F4BB2061F0BAE08B9FC00169
:1059A000112420E04FE65DE165E370E003960E947C
:1059B000721B8C858350823050F5B11028C06889E5
:1059C00067FD25C06330ACF067300CF5062E000C87
:1059D000770B635071092AE0269FC001279F900D25
:1059E000112403E020E049E45DE164E370E0039604
:1059F0000CC0EAE06E02B00111246D5E7F4F03E03F
:105A000020E049E45DE183E090E00E94321601E08D
:105A10008C85813009F000E0A12CC12CE12C20E024
:105A200041E0B401CE010E94AD138C85883009F4A9
:105A300076C038F4863009F442C0873009F457C084
:105A400081C08C3008F07EC0E12C0AE22EE54AE0ED
:105A500050E061E170E0C20101960E94441C21E027
:105A60004CE56BE070E082E190E00E94C91B21E010
:105A70004CE568E270E082E190E00E94C91B84E19D
:105A80008E838F838EE08887EC85F0E0EE0FFF1F1A
:105A9000E855FD4F60817181C301DF91CF911F9166
:105AA0000F91FF90EF90DF90CF90BF90AF909F90BD
:105AB0008F907F906F905F904F900C94471AD40115
:105AC000ED91FC910480F581E02DC4010995CC2471
:105AD000C394FC018081873009F0C12CA12CE12CFA
