:100000000C94850F0C94AD0F0C94AD0F0C94AD0FA8
:100010000C94AD0F0C94AD0F0C94AD0F0C94AD0F70
:100020000C94AD0F0C94AD0F0C94AD0F0C94AD0F60
:100030000C94AD0F0C94AD0F0C94AD0F0C94AD0F50
:100040000C94AD0F0C94AD0F0C94AD0F0C94AD0F40
:100050000C94AD0F0C94AD0F0C94AD0F0C94BC210F
:100060000C94AD0F0C94AD0F0C94AD0F0C94AD0F20
:100070000C94AD0F0C94AD0F0C94AD0F0C94AD0F10
:100080000C944B110C94AD0F0C94AD0F0C94AD0F60
:100090000C94AD0F0C94AD0F0C94AD0F0C94AD0FF0
:1000A0000C94AD0F0C94AD0F0C94AD0F4631633131
:1000B00080319B31B631D131D131D1315532EE3130
:1000C0000B32223239323932E119E119F3196A1A45
:1000D000331BDA1B011C171C211C271C2A1C2A1C81
:1000E0002A1C090F97059349001090002020014019
:1000F000E0305F0020002000020002200000090F15
:100100002F174C260212000424C0BB7D07000400F8
:1001100001400000090F5F5C309904F8DE7E0000AA
:1001200000090F5F5E30F9FABE03090F5F5C30997A
:100130007C75BF03090F2F174C2693C9E4F5FE1EEB
:10014000090F970593C96432994CAEFBFB090FFC6C
:100150007900090F5F5C3CFBDE7B090F5F5A3CFFB7
:10016000CE7700090F2F169FBD7F1F090F2EFE2C83
:100170008F4FDAB66D4716B0C0E5765A935F924D51
:100180005D2E60F4D6778F8F8276EF79020778B193
:100190001C84277C3E708AD925B7BE058F0F75B5A4
:1001A0006DB3188975B9D96CDEF009CEBDB51DC027
:1001B000F2D6B7D5F08D14A1C881CFD9F1AF200008
:1001C00003081F051F1F151B1F11111F110E1F15DF
:1001D000111F05011F111D1F041F001F0010101FFC
:1001E0001F041B1F10101F061F1F011F1F111F1FA1
:1001F00005071F311F1F051B17151D011F011F10AC
:100200001F0F100F1F0C1F1B041B071C07191513B2
:100210000C121E1F120C1E12120C121F0C1A1404A8
:100220001F052E2A1E1F021C001D00201D001F047A
:100230001A011F001E041E1E021E1E121E3E120C5C
:100240000C123E1E020614120A020F121E101E0E7F
:10025000100E1E081E1A041A2E281E1A12161F111E
:100260001F121F101D151711151F07041F17151D2D
:100270001F151D01011F1F151F17151F0017000057
:100280001000040404040E040229060A0000BFFF43
:100290009ED6D2C502ED76B0596C96AEC291AB57E0
:1002A000AF1A29680E5EBD7AF54F1372EAAF62B9D4
:1002B00054A560DB562852A4485175796202720138
:1002C000E402C805900B2017402E805C00B9007F27
:1002D0009FDC944BF062F8D4B82CA50CAD552B0BD9
:1002E0008B122C8E93FF184D57ADA1D16EE2F09F6B
:1002F000AEB336584BF56A0C7A880104120600102A
:100300000E4038F10FCDD35ABAD8DAEDD09519E8AE
:1003100020010200FC7364B954A560DB5628AA3E94
:100320009800E11FE5B82CA50C7775B3D82C8AAEE0
:1003300013FF100150697420202020207E2D327E72
:1003400048502C7E2B46616C6C004D6F76696E6751
:100350007E57616C6C73202020202D317E58500018
:10036000537072696E677E426C6164652020202044
:100370002D317E4850005275737465647E41726DF4
:100380006F75722020202D317E41520054726970A9
:100390007769726520202020207E2D317E476F6C8A
:1003A00064004D696C646577202020202020207E29
:1003B0002D317E466F6F64001B9F7B15000098C037
:1003C00007C64BCD81FBF81630010080AEFB010063
:1003D000000000004278CE60D8C9396E0E7C8110D2
:1003E0000000000000383C590013008003378EDC09
:1003F000C02B47E098A7DC3800003001D6A7B972BF
:100400002C5C80734EE3C8EF011BDF178738557CE7
:10041000CD62B317EC75D9739E780A822E10CB0B80
:100420005BC418113FC04891CC4B6F0513307C035F
:10043000C4A1206A79C3027583DFC9C8A98B299436
:1004400029D4F205F1505CFE021F70895C3902D795
:100450009C809F011B9F872CC86488B84044582209
:10046000C212F100C20572E47B22D45804F12E8638
:1004700061848ADF643980051458A0C2021516A869
:10048000B0408532032B6FC0C10215169BC566B103
:1004900031B0596C04606360232194450C8B812C2E
:1004A00042F9253EE01239721CA7FC1C1B9F0FC0AD
:1004B000F0007C033E502F826E110E5C8427E30611
:1004C0005E224F61EC086C306C67C76690A8080E1E
:1004D0004592305C54CE84B0D553E46DCEC0C93B58
:1004E000B099286E004E8C4A18C85637F080CD91CE
:1004F000F07DAE1C31175E70249C809F031B9FAF64
:1005000091458D0E58125C0220B1202420088202F1
:1005100008A0113146C468901BF2491426CCBD05D1
:1005200038F28050A4049475E9171CE0F0B9885B98
:10053000C42DE216712B92148003145452009A8237
:10054000AEC20DDC226E117F8A0FB8448E9E10B8A9
:100550008C5F031BDF6F43600904661E87C01208AF
:10056000CC3C0E81251098F9093CA43CEEA57058AE
:1005700007C29527DC289F61B180052A2C08C80294
:10058000221840020B82B06081012440012848807B
:10059000C502032C60B1F8093EE012B972EA715C41
:1005A0008227BF0B1197CF801B78E4390FB8019FCA
:1005B000C981087BBECD91A30017FE4211D767CE3B
:1005C0009C7DCE63E4C8438EC03527E0CC31772FC5
:1005D00080FC910011D7776FC20D7CCDEB7C533935
:1005E000303879E798075C227F2411D777E492634B
:1005F000E42DAFF345CC695C903BC73CE012F92396
:100600000111D7778EE00D78CEEB7CB427C88D3BF7
:10061000C73CE012F9230111D70FB87A045EF33A10
:100620009F849C841B70E798075C227F2411D70F5E
:10063000380247E035AFF34DE5623879E798075C5B
:10064000227F244F70656E7E63686573743A0A5921
:100650006F757E666F756E647E676F6C647E6F6E9D
:100660006C7921004F70656E7E63686573743A0A19
:10067000476F6C647E616E647E74726561737572BF
:100680006521004761696E7E327E476F6C647E50E3
:1006900069656365732100557067726164657E7971
:1006A0006F75727E576561706F6E21002020476103
:1006B000696E7E616E7E41726D6F75722100476159
:1006C000696E7E617E4865616C696E677E57616E9A
:1006D0006421004761696E7E617E506F69736F6E41
:1006E0007E57616E642100204761696E7E616E7E77
:1006F0004963657E57616E642100204761696E7EA3
:10070000617E466972657E57616E64210001050550
:1007100006000503060004020500030103132A4A2C
:10072000600F170E0B1A07060C18342820404000E3
:100730000000000000000000004040202834180C99
:1007400006D7876301188E4EC41E8185081C9D4004
:10075000FB2B861CC8383A9178ECE65839241C7A71
:1007600034C8EA6DFC94217BDC0CB27A6B383B1107
:10077000C6AF18B2C7CD800B388ED30045DF7FB02F
:10078000EBDA1D8E7D71DEA7F33EBDECB65E5F5CDD
:10079000FF68F6D65B57D204D35B4F33E7398E5EE2
:1007A000CD8E578F635E3B4FB93A1B336BC770B426
:1007B00077BC7A752E0ED3AB57B933566FBD35C1A2
:1007C00034A31D303F34BAE8173267E62D5767630C
:1007D0003ABDE6B4733B8CA3575312AF5E33CF5D83
:1007E00047AF7497ABC7319E7D2ACB8C75E87F2FBE
:1007F00000020202020303030303030010080402C1
:1008000001011F2020010140001000040021080800
:100810004E6F0059657300090900FEFEFEFEFEFEE4
:10082000FE00000000000000000000FEFFFFFFEFE0
:10083000FFFFFFFE000101010101010100FEFFFBBE
:10084000FFFFFFBFFFFE000101010101010100FEEA
:10085000FFBFFFEFFFFBFFFE0001010101010101EE
:1008600000FEFFBBFFFFFFBBFFFE00010101010116
:10087000010100FEFFBBFFEFFFBBFFFE0001010116
:100880000101010100FEFFABFFFFFFABFFFE000116
:100890000101010101010045766164657E747261A8
:1008A000703F008DD73DF13EF3F0AD7BB3673E76F0
:1008B00030714E0781B2F2398E812E0489D73DF115
:1008C000B1C3E5DCECB91E5F1D04CAF2CE9130362F
:1008D00009973BF3F031E6F732777A231C799E458E
:1008E000210C0101010101010101020202020404C3
:1008F0000408084F70656E7E63686573743A00D7AC
:10090000BF1EF9EF1347FFCF169CBD7AF5CFC199F3
:10091000AB675EF3E7F0EAD5337FE6A56B0900101D
:100920008811021638124E8413618E70A1040C6572
:100930008E70229C403995430C00000027F582DC24
:10094000908C498910CA858C2237E4863C002A04A1
:100950008C810000B896AE1F1E40200610488C40C7
:100960000C201015046200811880BDF7DE07D64206
:100970006EC80DB971D827208006B8EC2B72436E73
:10098000C80DB92137E4865CF7058802014EFBC02B
:100990000DB92137642D0E7BEFBD01620081A820C7
:1009A000100308C400C60410880104728E17402E7C
:1009B000085C2817EA8172C176246314E8025C346B
:1009C00014192CE486DC38EC131040035CF615B9DE
:1009D0002137E486DC901B7243AEFB02448100A702
:1009E0007DE086DC90C5404ACA1258053A46325A24
:1009F000B9500E960B2017CA05818B593BDF4F98D3
:100A00002008140C000501000A06808201A0600085
:100A10002818000A06808201A0600028180082863B
:100A20008008411121888204519000123000140C7A
:100A300000050340C100503000140C00050340C104
:100A400000501000A06000282008934FEE0D000415
:100A50000000101058206B0A37E126DC849B7013CD
:100A60006EC24DB80937E126DC849B70136EC24D0F
:100A7000B80937612C3281000000000000B0F7EFA8
:100A8000D81B0000000000386C3973E6CC9933673E
:100A9000CE9C3973E6CC993367CE9C3973DC070062
:100AA0000000000060EFAF122E0CDAC500A40A8827
:100AB0002860400B02A2000615404840B0E01882B2
:100AC000E004CC8EDDD46DB352671D29088220442A
:100AD00009C4A0200882203846CD8E21424C805087
:100AE0000406AB6570215C013B97FFC0EFF3304F0C
:100AF000B4A86C54362A27E7201B480002C439C822
:100B000009958DCA4665A3B251D9A86C544E614C63
:100B100003042001761853D9A86C54362A2DA779DE
:100B2000987716B206087480C014045800022C008E
:100B30000116807001810E100608081710E80001E8
:100B40001680000B0AB000045800022C28C00210C6
:100B5000600108A3807001016180300A081B408099
:100B60000520C002106001084E40180584B19005B0
:100B7000090900FEFEFEFEFEFEFE00000000000071
:100B800000000000FEFFFFFFEFFFFFFFFE0001017E
:100B9000010101010100FEFFFBFFFFFFBFFFFE009F
:100BA0000101010101010100FEFFBFFFEFFFFBFF9B
:100BB000FE000101010101010100FEFFBBFFFFFF7B
:100BC000BBFFFE000101010101010100FEFFBBFFAF
:100BD000EFFFBBFFFE000101010101010100FEFF6B
:100BE000ABFFFFFFABFFFE000101010101010100AE
:100BF0000102040810204080596F757E757365648A
:100C00007E617E6865616C696E677E7370656C6C11
:100C10002E0A2020207E596F757E686176657E677A
:100C200061696E65647E380A202020207E657874B4
:100C300072617E48507E706F696E74732E007E59AB
:100C40006F757E757365647E617E706F69736F6E9C
:100C50007E7370656C6C2E0A20207E4465616C7E0C
:100C6000327E65787472617E64616D6167650A20A9
:100C70002020202020207065727E7475726E2E00F8
:100C800020596F757E757365647E617E66697265D5
:100C90007E7370656C6C2E0A2020207E4D6F6E7303
:100CA0007465727E6C6F7365737E31300A2020200C
:100CB00020202048507E706F696E74732E0020597A
:100CC0006F757E757365647E616E7E6963657E7324
:100CD00070656C6C2E0A20207E4D6F6E7374657289
:100CE0007E69737E66726F7A656E0A2020202020EE
:100CF000666F727E6F6E657E7475726E2E004761D0
:100D0000696E203220476F6C64205069656365739B
:100D10002100557067726164657E796F75727E57C8
:100D20006561706F6E210020204761696E7E616E83
:100D30007E41726D6F757221004761696E7E617EC2
:100D40004865616C696E677E57616E64210047611A
:100D5000696E7E617E506F69736F6E7E57616E64DF
:100D60002100204761696E7E616E7E4963657E5712
:100D7000616E642100204761696E7E617E46697202
:100D8000657E57616E6421004F67730A52656D611D
:100D9000696E730053657270656E740A44656D6F99
:100DA0006E00556E646561640A4C6F726400536B2B
:100DB000656C65746F6E0A4C6F726400556E646585
:100DC00061640A4769616E74004F67730A53616E0C
:100DD0006374756D0A47756172640053657270655E
:100DE0006E740A4B6E6967687400556E6465616461
:100DF0000A4B6E6967687400536B656C65746F6E3F
:100E000000556E646561640A536F6C6469657200B5
:100E100001010101010101010202020204040408AE
:100E200008456E656D79204B696C6C656400596F7F
:100E3000757E6B696C6C65647E7468657E426F73E9
:100E4000732E0A000909AAFF010100010101000136
:100E5000010100010101AAFF0001010100010101DE
:100E6000000101010001010100010408003E1C080D
:100E7000090900FEFEFEFEFEFEFE0000000000006E
:100E800000000000FEFFFFFFEFFFFFFFFE0001017B
:100E9000010101010100FEFFFBFFFFFFBFFFFE009C
:100EA0000101010101010100FEFFBFFFEFFFFBFF98
:100EB000FE000101010101010100FEFFBBFFFFFF78
:100EC000BBFFFE000101010101010100FEFFBBFFAC
:100ED000EFFFBBFFFE000101010101010100FEFF68
:100EE000ABFFFFFFABFFFE000101010101010100AB
:100EF00011AFEFC6A2002C24C0420060D1F110381F
:100F0000F281D000022000200008000220010CBD68
:100F100073E633B00608002A08480202C002597777
:100F2000E004C047F63406828242301E0E2F80C98C
:100F3000003E31752A02484568141DF311100EC099
:100F4000398F7A436EC80DBCF93D0FBF3FE994E37A
:100F5000D83F66F9BD8FFE84E51847AEDBEF66DC4F
:100F60007F60797972DC7A5A9775CAE7EECBDFF940
:100F7000F637020FBF7FFFCF79EC691DF63C65FEA7
:100F80006E7F9DA783F76739CD79EA91EF3DFD919B
:100F90005F9BF91D2B3F37075AB709C8C261041080
:100FA00091028A01B0B203CB3AD0FA4719B21008C5
:100FB00026EE0C8E20016C08E0B0A4100708711416
:100FC000265B02D810C0806736935FBC0F0002B763
:100FD000BD25149980080C406452042E08140802A0
:100FE0009341111880080C8A8430994CA04828A09D
:100FF000F667EC0D028070DEFBA303168000084448
:1010000002422829C0027E973B93CD6673D5EA4001
:1010100000040039EDFDE91E5D0E60B180E5B13FD1
:1010200095E1409440B301805A18C2005A5252FED2
:10103000E26E8618C0C072B280C900168B7F1E6B2C
:10104000FBEFAABBBF0B297FEFB3DD58499432C138
:101050002271C86298FC39992CA084925E28611193
:10106000874160186258948D4306B0582CFE4E8418
:10107000206522650052062065005206206550D288
:101080001013B09082050B0E603081C564C29C3095
:1010900060426142410A05122850A1C062F139F64E
:1010A0003C80088880088887E9DE5FED2686102668
:1010B000240491D098BDF73ECC1D9AB93E96A3CB9F
:1010C000E572B9BC6699C4C4C157180EA606A646F7
:1010D000270C39CCAD952131D9FEB51C2C3010A18F
:1010E000C0624E9848000734E00007B0D8FCD3D85F
:1010F000FFB44CCC8F00A77FD9261240168E7F12EA
:101100007BDF40000EFB17B3F99BEC7D060140D856
:10111000FB6754054A9002933FD0DE2704000190FC
:10112000A1D52B9BCD6666FB97A4A1A1050638A08F
:1011300016009CFCFE710326152A4C8A1C1BBECE91
:10114000620183092C360B22C3CDE607750F5800C8
:10115000C0BE6F00400060EFDFE95EBF731F862AEC
:10116000511793A86A06ECFDFBBAFBFBB2BB3B012F
:101170001000010001100010000180027AD80391D4
:101180000F2E9E74B07A6B81C5E781B72D323C7605
:10119000B07A7420051F030F0FBF74C1E4D7EE3B74
:1011A0000F0FBF6CC16432F975FB3D0F0FBF64C1F7
:1011B0006432994C7ECDFE1E0F0F5F5E30994C2637
:1011C00093C9E4EBFBFB0F0F5F5A30994C2693C990
:1011D0006432F9DAFE3D0F8FEF56B82137E486DC32
:1011E000901B72E3E1FE7D0F8F7B851B72436EC8FF
:1011F0000DB92137E4C661FF5E207E596F7520610D
:101200006C72656164790A206861766520656E6F2D
:1012100075676821007E596F7520646F6E74206851
:101220006176650A206F6E6520746F2073656C6C43
:101230002100202020596F75206E6565640A2020EA
:101240006D6F726520676F6C6421000D0F97251319
:101250002A54264626512645E6BACF09031830619E
:10126000C0840113064C98070D0F93A62C0C18018F
:10127000144440044031C1849DED5407D400004320
:101280000506B050056A203054260D8F4B9D341250
:101290008C05E102428D0453A6BA46D94280006112
:1012A0000D902240164980809B0E0D8F0F092594CA
:1012B00009260B2C8B20E12B710DC3258E15B998B7
:1012C0003572000DCF6FA1B00181DD130CF8A62798
:1012D0000607F442042880E10D0D8F8F0499A08148
:1012E0008282509830493E3A064304415246C291A8
:1012F0003B0DCF274919AA40A30205D414501D3431
:10130000F866D41128A8000540000AA04221C38E27
:10131000030DCFA76494F01AC0AB5200441F052000
:101320001428A100D83084C1CCAD47003A7E537553
:101330006E6B656E7E4B6565707E6F667E4F672156
:10134000003A7E466C616D696E677E556E646572AB
:10135000776F726C64003A7E556E646561647E439B
:10136000617461636F6D6273003A7E506F69736F71
:101370006E6F75737E44756E67656F6E73003A7E2F
:101380005468657E426C61636B7E536577657273EA
:10139000001FE737168F9005205E9D4280D3388D61
:1013A000576C54368BCD62A3B291B0597C4F005923
:1013B0000AC814DE02021B782D4075C8C3161564D6
:1013C00048FB6900748AB801780B086CE0B500D559
:1013D000210F5B549021ED77A9403410A2F5312004
:1013E000B081D70254873C6C514186B41FAF4C2664
:1013F00087BC050436F018290B017CD7B240C6EC37
:101400003B1FFF37166F860A00A05CB2585E536020
:10141000F5119B209BC566B151D948D82C3E40722E
:101420001943F716F02120B0812F20C1519EB5A895
:101430002043DA8F4B455450968F01810D7C01512A
:101440004779D6A2820C693F9879594D9642DE01C0
:10145000021B788C1415017CD7A2820C69BF2D80E9
:101460002C05640A6F01810D3C16405404F05D8B1D
:101470000A32A4FD34003A45DC00BC050436F058BD
:10148000005111C0772D2AC890F6BB54201A08D1FC
:10149000FA1810D8C06301444500DFB5A82043DA2C
:1014A0008F57269343DE02021B785C9085C4772D0C
:1014B0000B64CCBE0301087E3F3F3F97E160B1580B
:1014C0004C16938900069000124AA8D3E9BF321344
:1014D000F3BDACB6110401527098B000800238A080
:1014E0006BACFC3361B1582C9A2FC6351308000140
:1014F0000000200024C0C4D9001400100058309C03
:101500002B2B23CBC99FD4818466F1FBD86C76400A
:1015100042D0101A102841021440001000040001AB
:101520004000100010800218008329445D197FB824
:101530007D66B3D96C369BC962B2582CD67EEC005E
:101540000A8010A66C4A2841200808800451912086
:10155000000220000200F39EF197DA3F7BD70610CD
:101560002820903ABC8E9D97400140001000040056
:101570000140001000040001C039D91F6301258813
:101580008A08000411D1120A2C3EB27FF7868083AC
:10159000C567E7E62150004000100004000140004C
:1015A000100004000160EF8E0F030002E064B23F00
:1015B0009B1F9F1F978FB0596C169BC566B1B9E6EC
:1015C000C06432335A700210015C2E974C0AB6ED9B
:1015D000600107BFFF7FC69CE63CF9EFE1EFEEE15B
:1015E0008FFF6FE2B04EF973FE33CAE94FF5EF2A71
:1015F000E3EFF3EFEB0B1CC218479EE734131EFF1B
:1016000023FBE477BFF7EF2C977559977C7C5D1629
:1016100010705110020157BFCC95AB0E01DDD620E2
:1016200058B73508D66D0D2EBD7AF5EAD5AB57AF54
:101630005EBD7AF5EAD5AB578F320F73E5EAD5ABCD
:1016400057AF8E51AF5EBD7AF5EAD5AB57AF5EBDF1
:10165000664DF613660647640CB973481DCDE85015
:10166000987EC0230017100E50D83060C182052923
:101670000B162C58304139F99DBDF7F7BCC8AA6349
:1016800008E7BFDBFD5B08C20084821020308002C7
:101690000B10994CA0C0120457804ACA905C2417C2
:1016A000C94572918C0D47E032C22C0C98F3037B34
:1016B000EFEF6D00E0B0DF3D1C05CE06991E5BCE5E
:1016C0004C00C8D5090ABCBD7F1638017202AE5E57
:1016D000BD7A056E840302B200805004004402000B
:1016E0000808004014008028056A0000500000002F
:1016F0000181E1EAFBBDF7F736ACBDDF3D61667005
:10170000453A168F80C1046E2D30F9D425510CB0A6
:10171000800212A0800428B080020B28B080020B47
:101720002820010A2CA0C0020A2CA0C0020A2CA06A
:10173000C0020A2CA0C0020A2CA0C0020A2CA0C021
:10174000020A2CA0C0020A0C1193BDEF5CBDCFC3EE
:101750003C5C9D9BAB7F9EFBBB96013D1A440120E8
:101760001C1C042102B3E6A9861868C010FD3613BC
:10177000280CC43104EACFD87BBFE3382EE16004E3
:10178000B08230060827E0CF747FC731772F80BC46
:10179000ED61DE98C045684770D4E0053877295878
:1017A0006073C09281C2AD41065842D727F6DEDF92
:1017B000130600100622410140E17B03B708902088
:1017C000621772436EC80DB92137D8673C7AF5EAC3
:1017D000D5AB57AF1E8C0AA0AA505529AA22A02A21
:1017E00045D5881A6559698C425491AA49353B768A
:1017F0000CAF5EB3E661E2D1AB57578635D41286A3
:101800008BE9D5AB57AFCED4626A57EDAA5DB5ABC5
:10181000364B260000010102020203030304040404
:101820000404139F0700C2993367DE72E6CC990067
:10183000F00200F8FD00C00B00E0F70300AF80707D
:10184000E6CC99779C397326C01101020203040487
:101850000517082417082417FF1313273B3B4F09CC
:10186000C7E6AED9D1BB232018090737474696A74C
:101870002C21815A17F74F912041063290B74081B1
:10188000DF0A1C0870EB06C24340E067DBC0188C1F
:10189000E17B107E77411725AC3E477E7A4209AC4A
:1018A00043DEB15CFC4E26A3459A91F7DCF87DBD82
:1018B000E5B42EE26BE002FC2E459F371620002592
:1018C00060E2707AED7C76F5EA06A29090A10322A0
:1018D000DA553B44060CCD671DB9682F9ED06B0FBF
:1018E000E809BDE6825E855B4EDC2057E5EA05F837
:1018F000101740000AC480397472EAE70086A759BD
:101900001C51340828591686B54162B8F0D241B04E
:10191000C79662CA4E19B0E4CC35AF3973E7356764
:101920007F1C020B0805BBFB7AB3CDB4EE18032471
:10193000B20A37E0FB63218305C0691C0347E0C896
:10194000193812E60827E0E65F0D814D38FAC0CB62
:10195000B8406EC0959FE7DDAB57AF5EBD7204CE59
:101960005E3922BF060707410C1A3C1E0C410707CF
:10197000000C3A163A0C000707002A18360C2A0009
:101980000707001A2432241A004D6F6E73746572B3
:10199000202020202020202020357E444D47004656
:1019A0006F756E647E536869656C64202020202BFF
:1019B000317E4152005768657473746F6E652020E4
:1019C00020202020202B327E585000466F756E64F8
:1019D0007E4D656174202020202B317E466F6F6420
:1019E000004865616C74687E506F74696F6E20206A
:1019F000202B327E485000466F756E647E4C6F6FB0
:101A0000742020207E2B327E476F6C64001B1F3FAA
:101A10008BC562020318C060B3F94BEC73133184B9
:101A2000014409A627F7FA112C168BC9024A58C09F
:101A3000A20409252C4A589420A18445100852601C
:101A4000B1D96CFED21B9FDF646472451C9B27AD2D
:101A500002A584F49772CF4610162C586084821128
:101A6000162C5820C8CE9DDF014C000000004666B1
:101A70009220D481640519162449660600000000EE
:101A800013F87D7CCDAFF17D1B5FEF79C1CAE21801
:101A9000080081BC01160BB875008B1B3F8E23A775
:101AA000B5194802008041008475E5017F81FD0E73
:101AB0000004000400E69F8BC562028BCDEF021B81
:101AC0009F9F62667044C6903B87D4D18C0E85E997
:101AD0002FE8040240A58202425400105480408C3A
:101AE000131800006C0137606001411622B20865CE
:101AF000F16C954013002A062888A110D9102155B1
:101B0000B0414D6A0000500000000D00008104113A
:101B100084F1433C2237E4D61B72EB0D3CFA391BAF
:101B20009F3F9C1B72E6D75092580E1A045021D347
:101B30000A384B03C445E93ACC4119842377AEFCFB
:101B4000B206D04A2E344218288380250B76B1D0B5
:101B50000FF5D65B6FBDF5861C3D0AB7DE7A046EC5
:101B6000BDF50A1B9F5FE6907054168072ECA022B0
:101B700074D11FE56C7CE369CE001D0B48175D61D5
:101B80004C1827E4211FE559D7918DC090C2000D54
:101B90004C89C003E0B2584039E66772CDAD47BF0B
:101BA0009E237734100000F804C4A464A4E4C404A1
:101BB00004046484640484448404C404C40404E405
:101BC00024C404A404844484048444E4040404C4B5
:101BD000E4A464A4C404F8000000000F1010131162
:101BE00013111010101010131010111211101112E7
:101BF00011101013121110131011131210111213CF
:101C0000101010101113111310100F000017F74FC0
:101C1000912041063290B74081DF0A1C0870EB0624
:101C2000C24340E067DBC0188CE17B107E77411730
:101C300025AC3E477E7A4209AC43DEB15CFC4E26C1
:101C4000A3459A91F7DCF87DBDE5B42EE26BE00286
:101C5000FC2E8BCF7B636DB096524B69B43756CE5A
:101C60009C73EBADB74CD7BF1EF9EF1347FF5F2155
:101C7000E4BF565900060C12630008021001011F50
:101C80002020010140001000040021080813170162
:101C900060F11D160B2850000A2C60B1F90A028071
:101CA0000020005060BB810200028000200008007C
:101CB0000280002050AE141000040001400010000B
:101CC0000400010001589C5800140004284F28000B
:101CD0000280002000080000030507090C48656C1D
:101CE0006C3A00486172643A004E6F726D616C3AF2
:101CF00000456173793A004F080000003C7EC391B3
:101D0000F377321080C0F82F2FFEF8E0800081FFBB
:101D1000FF1FFC781CFFFF0081FFFF9191B98340FA
:101D2000000000003C7EE181877E3C0001071FFF30
:101D3000F8380F03010081FFFF9191B9834081FFC3
:101D4000FF117FFFEE80000055A7FFDE0080878136
:101D50000520393A11915B17626F3DA067A710E02B
:101D600015F0E710C8188CED1BE0B7230301994864
:101D70009037C04F04005E8E45C709720B0840C7FC
:101D8000654C46DE007FAC21B0C6A9E5E023E0A7A4
:101D9000775011BAE823E0270200FF765819CE3AAF
:101DA0003A020E5F01BFDD15501881F80AF889006C
:101DB000C0BFA9AA842261F40DF0D3C181042D1201
:101DC000F011F01301805F3A1660AE9DD4B3431852
:101DD000C0112852E00A1429F09121B0061A070612
:101DE0000C183428204040000000000000000000D3
:101DF000004040202834180C064F1FA60419C0408C
:101E00000A86634A082184E646C8281226A19D4412
:101E1000000108001542919051246CA0000480003C
:101E2000D04EC298219C98CC6E26413A0E0C9893C5
:101E30000205200004807612C60CE14400C6A429E5
:101E40002184109A1B21A348988476521600012001
:101E5000C843160B10408020B0D96C5E335D9C994E
:101E60002E6032F9D52C26933F1BD3CFB05880007B
:101E7000020481CD66F31D360B28000516C3C5F795
:101E8000086D08B794104208CD8DD950A4A8744CA1
:101E90009E12324268464AD010427363763351C96B
:101EA00092A2C155242C83D049534208053A269F5B
:101EB00060B38005142830FC3E6B8570C655244CF9
:101EC000423BB9A50004800A9F4A099BC94442735A
:101ED00014400000004001A01C5C6E24000480201F
:101EE000DFC155A44811C53BAE495342082134C750
:101EF00094104208CD31258450206BF2120A003034
:101F0000000A003000300000882E11241FBECFEFE1
:101F1000DAE0DEBFCDBF12E0A0E0B1E0EEE0F9E62E
:101F200002C005900D92AC3EB107D9F727E0ACEEA8
:101F3000B2E001C01D92AC3EB207E1F71FE0C5E878
:101F4000DFE004C02197FE010E944D33C438D10761
:101F5000C9F70E945C2F0C9485340C9400000895FE
:101F600080E090E0089508950895089508950895F3
:101F70000895089508950895089508950895089579
:101F8000FC018BE191E091838083158214828FE0C4
:101F900091E09383828388E0838781E08287178240
:101FA000108616828187148692E0958786879787A8
:101FB000089508950F93CF93DF93FC016A3039F4AD
:101FC0008581848396818185890F86834BC0848136
:101FD0006E3719F48E5F848345C0262FEF0166812A
:101FE0006F5F2A3374F42033F4F42B32F1F01CF4D5
:101FF0002132F9F02DC02D3289F12E3249F52FE32F
:1020000019C02B3544F4213464F42A3381F02F3382
:10201000F9F422E40FC09FE9920F9A31C8F42754D3
:1020200009C0215407C02C5F05C021E403C023E48C
:1020300001C02EE33F81062E000C770B082E000C0A
:10204000990B313069F40AEF40EC51E00E94621CB8
:1020500088858D5F9C81890F8C8304C020E4EACF42
:102060000BEFF2CF81E090E0DF91CF910F910895D7
:102070000C94E8330C94E8330C94E8330C94E83374
:102080000C94E8330C94E8330C94E8330C94E83364
:102090000C94E8330C94E8330C94E8330C94E83354
:1020A000EF92FF920F931F93CF93DF93EC017B018D
:1020B000142F00E021E04EE852E060E070E080E0A4
:1020C00090E00E94C01D01E021E04EE852E060E097
:1020D00070E080E490E00E94C01D8C85833011F098
:1020E00090E002C081E090E0880F991FFC01EF5062
:1020F000FE4F4081518100E021E064E170E085E025
:1021000090E00E94C01D2E85233011F030E002C007
:1021100021E030E0220F331FF901EF50FE4F4081E4
:10212000518101E021E064E170E08BE690E00E94E3
:10213000C01D6D8570E0F701868197810E9439335B
:10214000892B99F48C858F5F8C8763E070E080E049
:1021500090E00E94B020DC01CB010396A11DB11DCF
:102160008D878C85837009F41C866F8570E0F7017C
:10217000868197810E943933892B99F48E858F5FF0
:102180008E8763E070E080E090E00E94B020DC0188
:10219000CB010396A11DB11D8F878E85837009F435
:1021A0001E861123C1F021E04EE561E370E081E17C
:1021B00090E00E945D2221E04EE563E370E081E162
:1021C00090E00E945D2201E025E34EE661E1C70157
:1021D00003960E941917DF91CF911F910F91FF90E5
:1021E000EF9008959F92AF92BF92CF92DF92EF92BD
:1021F000FF920F931F93CF93DF93F22E10E0000F07
:10220000111FF801ED51FE4FC080D180F801EB5253
:10221000FE4FA080B18010E0922E9E0CC42F440F80
:10222000DD0B812F817010FD8AE0123010F46F2DCC
:1022300001C0692D70E0012F20E0A601FE01E80F2A
:10224000F11DCF010E94C01D1F5F143051F710E037
:10225000EF0C812F817010FD8AE0123010F46F2D89
:1022600001C06E2D70E0012F21E0A501FE01E80FF5
:10227000F11DCF010E94C01D1F5F143051F7DF9187
:10228000CF911F910F91FF90EF90DF90CF90BF9073
:10229000AF909F9008951F920F920FB60F92112446
:1022A000CF92DF92EF92FF920F931F932F933F9362
:1022B0004F935F936F937F938F939F93AF93BF934E
:1022C0008091DB039091DC03A091DD03B091DE03EC
:1022D0000196A11DB11D8093DB039093DC03A093B5
:1022E000DD03B093DE03492F5A2F6B2F772767FD4D
:1022F0007A952091000124236C017D0139E0F59449
:10230000E794D794C7943A95D1F74C295D296E2963
:102310007F29489F402D112442238C019D015DE0BF
:1023200035952795179507955A95D1F7082366E0B7
:10233000B595A795979587956A95D1F7802B8427B2
:102340008093CF00BF91AF919F918F917F916F91BB
:102350005F914F913F912F911F910F91FF90EF90BF
:10236000DF90CF900F900FBE0F901F90189508959B
:10237000FC01108A118A128A138A0895FC01108ABE
:10238000118A128A0895FC01108A08950F93CF9341
:10239000DF93EC0189E08B8783E08E838F8382E07B
:1023A00088872A8940E75BE061E070E080E390E0A5
:1023B0000E94062200E021E048EE5AE060E170E071
:1023C0008EE090E00E94C01D2A89CE010296253041
:1023D00018F064E676E002C063E476E00E94D42060
:1023E00088E08B87DF91CF910F910895CF92DF9294
:1023F000EF920F93CF93DF93EC016B0100E021E0AC
:102400004CEF59E068E070E08EE090E00E94C01D63
:102410008889813069F40989002351F0015025E051
:10242000E22E2DE042E2B601CE010E94F21018C069
:1024300085E0E82E00E02DE042E2B601CE010E94E8
:10244000F210EA89F0E0EE0FFF1FE65EFD4F4081DB
:10245000518121E06FE070E083E290E00E94C01DB6
:10246000DF91CF910F91EF90DF90CF900895CF92B1
:10247000DF92EF92FF920F93CF93DF93EC017B01FA
:10248000FB01C680D78041E00E94E22900E021E004
:102490004FEF58E060E070E080E090E00E94C01DE7
:1024A0009889913079F118F0923021F12FC0898903
:1024B000813118F500E021E048EE5AE060E170E07B
:1024C0008EE090E00E94C01D0AEF2A8940E75BE0A1
:1024D00061E070E080E390E00E94621C83E08E8304
:1024E0008F8382E0888763EF78E0CE0102960E94B6
:1024F000D4200CC08B89811105C0B701CE010E9488
:10250000C61104C0B701CE010E94F6119A89963017
:1025100049F0953049F0943049F48B89882331F0A3
:102520002AE005C029E003C02CE001C028E088892A
:10253000823021F441E08989863408F040E0B70117
:10254000CE010E94D3288889823029F58B8988237F
:1025500011F189898634F8F4C60168E170E00E94BF
:1025600039330D97C0F088E08E838F831886EA890F
:10257000E150F0E0EE0FFF1FE65DFD4F60817181DD
:10258000CE010296DF91CF910F91FF90EF90DF90F7
:10259000CF900C94D420DF91CF910F91FF90EF90CA
:1025A000DF90CF900895CF92DF92FF920F931F9309
:1025B000CF93DF93EC018B016B0184E1C80ED11C3A
:1025C000FB01F184F0949085F9229889913009F407
:1025D00068C020F0923009F4C7C0D8C08989813121
:1025E00080F4F3FE0EC081E1898B66E070E080E04C
:1025F00090E00E94B020DC01CB010196A11DB11D2D
:102600008A8BE989E13100F5F0E0EE51F74F6491F2
:1026100070E0F801868197810E943933892B09F097
:10262000B5C066E070E080E090E00E94B020DC0180
:10263000CB010196A11DB11D8A8B89898F5F898B82
:10264000F80117821682A2C08A89853098F0F3FEBD
:102650009DC087E0898B81E0888B66E070E080E038
:1026600090E00E94B020DC01CB010196A11DB11DBC
:102670008A8B8CC0F8018389811102C081E001C07E
:1026800082E0F801268990E0820F911D8B30910540
:1026900014F08AE090E0F801868B198A82E0888B3A
:1026A00075C08989882381F066E070E080E090E061
:1026B0000E94B020DC01CB010196A11DB11D8A8BC7
:1026C00089898150898B62C09B8BC6010E94D22769
:1026D000823020F08A89853008F455C0EA89E530D7
:1026E00081F050F4E13048F1F0E03197E00FF11F54
:1026F000838D8F5F838F21C0E63079F0E73091F0D2
:102700001CC0F801848990E001968630910514F090
:1027100085E090E0F801848B10C062E0C6010E9461
:102720001D280BC0F801868990E002968B30910538
:1027300014F08AE090E0F801868B198A82E0888B99
:10274000F8018389811102C081E001C082E0F801B3
:10275000268990E0820F911D8B30910514F08AE05C
:1027600090E0F801868B12C09989963410F49F5F2F
:10277000998BF3FE0BC0B601C8010F960E94DB27B0
:10278000F80187A303C087E08A8BA8CFDF91CF91A0
:102790001F910F91FF90DF90CF9008950F931F939B
:1027A000CF93DF938C01EB016C5E7F4FAE01415FF5
:1027B0005F4F2985209598852923F80190899230CB
:1027C00031F128F4992319F1913041F0B4C09330DC
:1027D00009F4A0C0943009F4AAC0ADC0822F88705B
:1027E00023FF03C096E4F801918BF8019189963498
:1027F00008F494C0882309F49EC0F8019289888D5A
:10280000891708F090C0F801118A82E079C0F801B8
:1028100081898C3088F466E070E080E090E00E946E
:10282000B020DC01CB010196A11DB11DF801828B06
:1028300081898F5F818B7FC0F801923009F065C07C
:1028400082898330C9F028F4813049F0823059F010
:102850004FC0853061F1C8F0863079F149C08D896B
:1028600081508D8B45C08E8990E0019797FF02C003
:1028700080E090E08E8B3CC08C8990E0019797FFC0
:1028800002C080E090E08C8B33C08F8990E001978C
:1028900097FF02C080E090E08F8B27E130E0A90134
:1028A000481B590BCA01880F8093000121C0898DF4
:1028B0008230F0F08150898F1BC08F8990E00297A1
:1028C00097FF02C080E090E08F8B27E130E0281B6B
:1028D000390B220F20930001892B51F088898A300F
:1028E00030F4E82FF0E0EF50F84FE4918E0F888B32
:1028F0008F89882339F01F821E82F801118A83E0B4
:10290000808B19C084E0F801FBCF118A1F821E82E0
:1029100081E0F6CFF8019189963418F49F5F918B8E
:102920000AC023FF08C0CA010E94DB2703C023FF9F
:1029300002C08EE08FA3DF91CF911F910F91089578
:102940000F93CF93DF93EB0141E00E94501000E022
:1029500021E04CE757E061E170E08EE190E00E94F9
:10296000C01D21E041E457E068E370E083E190E0BE
:102970000E94C01D8E819F8166E470E00E94393301
:10298000079748F420E045E257E064E070E083E315
:1029900090E00E9406228F8590E0FC01EF5DF84FE9
:1029A0004491FC01E35EF84F849121E06FE370E015
:1029B00090E0DF91CF910F910C945D22FC01DB013F
:1029C00018968C91189719969C9119979095982321
:1029D00084FF08C02089203118F42F5F208B03C0AA
:1029E0000E940C22108A95FF09C01F968C911F9798
:1029F000882321F081501F968C931F9796FF09C062
:102A00001F968C911F97833020F48F5F1F968C93B5
:102A10001F9793FF4DC01F968C911F97880F880FAB
:102A200059961C925997E82FF0E0E35FF84FE49134
:102A30005496EC935497E1E0E80FF0E0E35FF84F31
:102A4000E4915796EC935797E2E0E80FF0E0E35FEC
:102A5000F84FE4915696EC9356978D5FE82FF0E08F
:102A6000E35FF84FE4915596EC93559781E05896C3
:102A70008C93589750961C92509751961C92519750
:102A800053961C92539752961C9252975B961C92A7
:102A90005B975C961C925C975D961C925D975E9628
:102AA0001C925E975A961C925A978AE097968C933E
:102AB000089560387105D0F440345105B8F4E0EF62
:102AC000FBE080E1849FD001A0781124A60F47701D
:102AD000E40FF11D8491AD51BC4F222319F06C918C
:102AE000862B03C080956C9186238C930895AF92BA
:102AF000BF92CF92DF92EF92FF920F93CF93DF932B
:102B00006C015B017A01E20EF11CEA0157FF0DC076
:102B1000C0E0D0E00AC0C417D5077CF4202FAE0176
:102B2000B501C6010E9459152196A70181E4E81656
:102B3000F1048CF340E450E0EECFDF91CF910F91A0
:102B4000FF90EF90DF90CF90BF90AF9008958F925D
:102B50009F92AF92BF92CF92DF92EF920F931F930B
:102B6000CF93DF935C014A01102FEB016B01C20E82
:102B7000D11CCC15DD054CF40E2D212FA401BE0176
:102B8000C5010E9477152196F4CFDF91CF911F9157
:102B90000F91EF90DF90CF90BF90AF909F908F906C
:102BA00008958F929F92AF92BF92CF92DF92EF9251
:102BB000FF920F931F93CF93DF93EC016B01FB0107
:102BC000A680B78041E00E94E22900E021E040EDCC
:102BD00058E068E270E080E090E00E94C01D21E0D3
:102BE0004CEB58E068E270E08FE490E00E94C01D7A
:102BF00069E0E62EF12C00E021E043EA58E068E2CB
:102C000070E0C7010E94C01DFEE0EF0EF11C8FE4D2
:102C1000E816F10481F79889923009F48BC070F1BD
:102C2000933009F4C1C0943009F0E2C09E839F83C1
:102C30001886EA89F0E0EE0FFF1FEB50FE4F60812F
:102C40007181CE0102960E94D42060E0C6010E94EC
:102C50008A20EA89F0E0EE0FFF1FEF5FFD4F408111
:102C6000518100E021E06AE070E08EE190E00E9496
:102C7000C01D63E2CE010E940D2ABAC013E01E837C
:102C80001F8318874E01E2E08E0E911C67E978E001
:102C9000C4010E94D42082E48E838F8318872A89FE
:102CA00047E158E062E070E083E390E00E94062292
:102CB0008889813009F09CC0C50168E170E00E94FC
:102CC000393391E08D3008F490E08989863410F42E
:102CD000911119863A89F601208D231798F08634D0
:102CE00070F4992361F0EE24E39407E02FE043E0D1
:102CF00050E060E470E0C60103960E94A71563E10E
:102D000078E012C0863470F4992361F0EE24E394E5
:102D100007E02BE043E050E060E470E0C60103967A
:102D20000E94A71560E178E0C4010E94D42081E0F0
:102D300089875EC06989C6010E948A20E989ED30D1
:102D400010F5F0E0E15FFD4F8081882309F450C069
:102D500010E0312F330F898990E0FC01E15FFD4FD6
:102D60002081121708F044C04096880F991F00E098
:102D700021E041E058E068E070E0830F911D0E947F
:102D8000C01D1F5FE6CFEA89F0E0EE0FFF1FEF5F87
:102D9000FD4F4081518100E021E06AE070E08EE16A
:102DA00090E00E94C01D24C060E0C6010E948A20FD
:102DB000EA89F0E0EE0FFF1FEF5FFD4F4081518188
:102DC00000E021E06AE070E08EE190E00E94C01D2A
:102DD00084E08E838F831886EA89F0E0EE0FFF1F70
:102DE000EB50FE4F60817181CE0102960E94D4208B
:102DF000EA89E63028F4F0E0E550F84F249101C06C
:102E000020E08889833021F441E08989863408F004
:102E100040E0B601CE01DF91CF911F910F91FF905D
:102E2000EF90DF90CF90BF90AF909F908F900C94D9
:102E3000D328AF92BF92CF92DF92EF92FF920F937F
:102E4000CF93DF935C01D42FD61BC0E0C22ED12CD0
:102E5000E62EF12CB7016C0F711D202FA601C501C4
:102E60000E945915CE5FDC17A8F7DF91CF910F9123
:102E7000FF90EF90DF90CF90BF90AF900895AF920A
:102E8000BF92CF92DF92EF920F931F93CF93DF9376
:102E9000EC016B01DB0116968D919C91179764E113
:102EA00070E00E94393311E08B3008F410E041E00B
:102EB000B601CE010E94E22900E021E04FE751E196
:102EC00060E070E080E090E00E94C01DF601828129
:102ED000873059F0883011F0863071F443E75FE0B5
:102EE00076E4A72E70E1B72E0BC04AE45FE064E9F8
:102EF000A62E6FE0B62E04C040E050E0A12CB12C0D
:102F000000E020E060E070E085E590E00E94C01DF8
:102F100021E0A50160E070E08AE390E00E94C01D1E
:102F200021E046EF50E160E070E083E290E00E9433
:102F3000C01D8889811114C0112391F019868B89D5
:102F40008A3010F02AE001C025E0EE24E39407E087
:102F500042E050E064E170E0C60103960E94A715CC
:102F600005E10E830F8382E088875E01F2E0AF0EF9
:102F7000B11C6B89C5010E94562181E089870E83AF
:102F80000F838AE088876C89C5010E945621888951
:102F9000843019F08A89843089F500E021E040EF1F
:102FA0005EE063E170E080E090E00E94C01D05E11A
:102FB0000E830F8387E18887D6015B966C91C501EC
:102FC0000E9456210E830F8381E28887F601648D6B
:102FD000C5010E9456210E830F838BE28887D6019C
:102FE0005D966C91C5010E9456210E830F8385E387
:102FF0008887F601668DC5010E9456218889825016
:10300000823040F08A89833029F08D89883009F038
:1030100042C03FC0D6015096EC91EF3028F4F0E06A
:10302000ED5EF74EE49101C0E5E0D60112968C9179
:10303000873011F080E001C085E0E80FF0E0DF01AB
:10304000AA59BD4F8C91880F880F8A5E93E09E83AA
:103050009F838887EE0FFF1FEE5AFD4F60817181BD
:10306000C5010E94D42000E0F601808D081768F6A3
:10307000FE01E00FF11DBAE00B9FC001112426896B
:1030800040E75EE064E370E003960E9406220F5F73
:10309000EBCF1123C1F08889833051F4D6015896C3
:1030A0008C91880F982F990F990F890F8D5F03C00E
:1030B000843049F48AE120E04AE65EE065E370E0AE
:1030C00090E00E94062288898350823008F5111111
:1030D0001FC08D8987FD1CC0843054F08830C4F433
:1030E000880FB4E08B9F800D1124855264E308C0E3
:1030F000880F682F660F660F860F66E1680F83E002
:1031000070E003E020E044E45EE090E00E94621C96
:103110008889813011F020E001C022E041E0B60151
:10312000CE010E94D3288889883028F4863018F58B
:103130008130E1F07EC0883009F460C08D3008F045
:1031400078C080E2E82E04E621E14FE0B601CE012E
:103150000E94C02A84E18E838F8385E18887E88975
:10316000F0E0EE0FFF1FE65DFD4F55C08989883006
:1031700009F05FC043C0873089F0F6018281873053
:1031800029F48E8D853021F42DE003C021E001C0AB
:1031900029E041E0B601CE010E94D328D601129663
:1031A0008C918730D1F43AE1E32E08E527E144E140
:1031B000B601CE010E94C02A8AE18E838F838CE102
:1031C00088876EE27EE0C5010E94D420EE8DF0E09B
:1031D000EE0FFF1FEE5BFD4F1EC022E1E22E0CE35F
:1031E00028E142E2B601CE010E94C02A88E28E8325
:1031F0008F838DE1888761E27EE00FC069E1CE01B7
:10320000DF91CF911F910F91EF90DF90CF90BF9002
:10321000AF900C940D2A60817181C501DF91CF912F
:103220001F910F91EF90DF90CF90BF90AF900C94D3
:10323000D420DF91CF911F910F91EF90DF90CF902D
:10324000BF90AF900895DF92EF92FF920F931F937C
:10325000CF93DF938C01EB017B0184E1E80EF11C3D
:103260008A81873089F0883009F473C0863009F08C
:1032700074C0E889EF3028F4F0E0ED5EF74E649119
:1032800001C065E06F5F66C0E889EF3028F4F0E0C8
:10329000ED5EF74E649101C065E06E5FC7010E946C
:1032A0001D28E889EF3030F4F0E0ED5EF74EE49150
:1032B000E23010F083E001C082E02E8990E0820FBE
:1032C000911D8B30910514F08AE090E08E8B8A8DF1
:1032D0008F5F8A8F66E070E080E090E00E94B0200F
:1032E000DC01CB010196A11DB11DD82EF801868FFE
:1032F000C7010E94D227823018F0F4E0FD15C0F516
:10330000F801268D253089F058F4213030F130E075
:1033100021503109C20FD31F8B8D8F5F8B8F1DC042
:103320002630B9F0273059F018C08C8990E001960A
:103330008630910514F085E090E08C8B0EC08E896C
:1033400090E002968B30910514F08AE090E08E8B2D
:1033500004C062E0C7010E941D2886E0F801808B4E
:10336000DF91CF911F910F91FF90EF90DF90089523
:1033700087E0F801868FC4CFCF92DF92EF92FF9261
:103380000F931F93CF93DF93EC01DB017B0144E1AB
:10339000E40EF11C9B01215F3F4F19969C911997F8
:1033A000909518968C919823E8894E2F50E04D30D7
:1033B000510508F051C28B01FA01EC59FF4F0C94F2
:1033C0004D3393FF02C085E48F8F8F8D863408F0D4
:1033D00043C28F5F8F8F863409F03EC21F8E89896A
:1033E000888BF80150C082E08A8B93FD04C0EF8D7A
:1033F000E131F0F04BC081E18F8FF12CF801808D2D
:10340000F816A8F76E01CF0CD11CF60181A181112D
:103410000DC066E070E080E090E00E94B020DC012A
:10342000CB010196A11DB11DF601868BF394E6CF69
:10343000F0E0E05FF14F649170E0F80186819781E0
:103440000E943933892B09F007C2F12CF801808DD5
:10345000F816B0F46E01CF0CD11CF60181A18111D8
:103460000DC066E070E080E090E00E94B020DC01DA
:10347000CB010196A11DB11DF601868BF394E6CF19
:103480008F8D8F5F8F8F17821682E6C18E8986306F
:1034900059F08F89863051F0888D863049F0898DBA
:1034A000863041F088E007C084E005C085E003C0B5
:1034B00086E001C087E08D8B80E021E0F801908DEF
:1034C000891730F4FE01E80FF11D21A38F5FF6CFBD
:1034D00083E068C095FF20C08D89883024F0298D55
:1034E000263019F413C0873021F4288D263019F4C2
:1034F0000FC0863021F42F89263019F40BC0853097
:1035000051F42E89263039F484E005C087E003C0E9
:1035100086E001C085E08D8B96FF25C02D89243083
:1035200024F48E89863019F416C0243021F48F8952
:10353000863019F412C0253021F4888D863019F4B4
:103540000EC0263029F4898D863059F427E00AC050
:10355000273041F406C024E005C025E003C026E082
:1035600001C028E02D8B93FF77C1ED89E4300CF486
:1035700073C1E8305CF0E83009F06EC1F801408DAD
:103580009E012A5E3F4FF90180E018C01F8E0E2E6B
:10359000000CFF0B3497EC0FFD1F11A2828D8F5F83
:1035A000828F82E0888B58C19191913039F0890FD8
:1035B0009381592F550F950F990F890F9E2F921BAD
:1035C000941790F39DA1911195E0D92ED80E2B89D7
:1035D00030E02D1931092F31310514F02EE130E0A2
:1035E00037FF02C020E030E02B8B40E0B801CE0175
:1035F0000E946F2E8B8981110CC0B801CE01DF9122
:10360000CF911F910F91FF90EF90DF90CF900C948E
:1036100023191F8E83E08A8B88E08D8BDD20B9F023
:10362000188AC7010E94D22781110FC088A1811179
:1036300009C085E008C040E0B801CE010E946F2EAD
:1036400081E0888B82E0898B07C184E0FCCFC701D1
:103650000E94D227811105C088A18111A2CF85E0E7
:10366000A1CF84E09FCF84E08A8B97FD02C095FFB5
:1036700020C08D8984302CF0F801268D211113C0D3
:1036800002C01816ACF4F801238D21110EC082304F
:103690007CF0248D21110BC0823051F0258D222326
:1036A00039F082E005C083E003C080E001C081E022
:1036B0008D8B892F807539F18D8983308CF4F801D9
:1036C000268D211118C087FF04C0838D882319F02F
:1036D00014C018162CF0F801848D882319F00FC03F
:1036E000813031F4F801858D882359F082E00AC0D9
:1036F00088303CF007C083E005C080E003C081E073
:1037000001C088E08D8B93FFA7C08D89813039F18E
:103710001CF4882331F0A0CF823049F1833081F14D
:103720009BCFF801838D8150838F8B8990E00A971E
:103730008F31910514F08EE190E097FF02C080E098
:1037400090E08B8B40E0B801CE010E946F2E8B89F8
:10375000882309F452CF84E08A8B8AE023CF88A3A0
:1037600089E0888BF801848D8150848F75C081E059
:103770008DA38BE0888BF801858D8150858F6CC07F
:103780008CE0888BF801868D8150868F878990E048
:1037900008968531910514F084E190E0F801878B5B
:1037A00027E130E0A901481B590BCA01880F80931B
:1037B000000152C0FB01878990E02C8930E04489E8
:1037C000241B31092333310514F022E330E037FFA5
:1037D00002C020E030E0821B930B97FF02C080E024
:1037E00090E0F801878B27E130E0281B390B220F8E
:1037F00020930001892B09F01ECF81E0888B88E09F
:1038000022CF93FF09C081E0FB01838BB701C9017F
:103810000E94DB27F80187A38F8D8634E8F48F5F41
:103820008F8F8634C9F488898A8B87E0BBCE93FF5B
:1038300013C081E0FB01838BB701C9010E94DB2724
:1038400003C093FF09C08EE0F80187A305C093FD74
:10385000A8CE02C093FD03CFDF91CF911F910F91AE
:10386000FF90EF90DF90CF900895CF92DF92EF928C
:10387000FF920F931F93CF93DF936C017A018B011B
:10388000C0E0D0E0CE15DF0589F0D8016D918D0143
:10389000D601ED91FC910190F081E02DC6010995D2
:1038A000892B11F47E0102C02196ECCFC701DF9174
:1038B000CF911F910F91FF90EF90DF90CF900895DF
:1038C0000E9480342F923F924F925F926F927F922C
:1038D0008F929F92AF92BF92CF92DF92EF92FF9220
:1038E0000F931F93CF93DF9300D000D000D0CDB7BC
:1038F000DEB77B014115510509F429C1FA01D490C5
:10390000319674914E5F5F4FAD2DB0E0222309F1E7
:10391000E72FE695E695E695AE2EB12CE1E0F0E0D6
:10392000372F377011F4E0E0F0E0EA0DFB1DAE9F99
:103930005001AF9FB00CBE9FB00C1124033011F4A6
:10394000AA0CBB1C2A9DF0012B9DF00D11244E0FDB
:103950005F1F0F3F09F402E05C01AA0EBB1E1A14A0
:103960001B040CF0F4C0803891050CF0F0C09701F6
:10397000270F311D121613060CF0E9C0F0E4EF1604
:10398000F1040CF0E4C04115510509F4E0C02E2DFE
:1039900027702D839701F7FE02C0295F3F4F63E038
:1039A000359527956A95E1F7F22FF7FE05C06D81F1
:1039B000662311F0FFEFF20F97FF05C02227332790
:1039C000281B390B02C020E030E0E0E8AE16B1045D
:1039D00024F060E8762E781A01C07D2C721AEF2E42
:1039E0000F2E000CFF08FF3F1CF4CE2CC09401C02A
:1039F000C12CE1E0672F677009F4E0E076957695D9
:103A000076959E2E970EE90CF11C69E0E616F104FE
:103A10001CF0E8E09E2E9F1A1C2D1F0F60E8160375
:103A2000800D911D1124820F931F61E070E00D80C5
:103A300002C0660F771F0A94E2F7033011F0E1E04D
:103A400001C0E2E0EE2EF12CCD9C200D311D1124A1
:103A5000E29E5001E39EB00CF29EB00C11246A016C
:103A6000CA0CDB1C970121503109A20EB31E4A0D6E
:103A70005B1DBB24BA94B69E9001B79E300D1124F5
:103A8000290140945094F90DFE83A719B109EA9FCA
:103A9000A02D1124B0E0E79DA00DB11D11242E81B1
:103AA000121709F454C09C012D513C4F4A01560194
:103AB000612C671409F443C0F5013490369EF0017F
:103AC000379EF00D1124FA83E983E095F095FC838D
:103AD000EB83023019F45C824B8210C00B3F19F467
:103AE0001A8219820BC0F4013490369EF001379E81
:103AF000F00D1124E095F095FC83EB8317FD09C0D0
:103B0000F9013080EB81E321F9813E2E3F2AF90152
:103B10003082FD81FF2359F017304CF4F901E05851
:103B2000FF4F20803C8023203A80322830828E0C48
:103B30009F1CAE0CBF1C63942F5F3F4FBACF1F5F1B
:103B4000CA0EDB1E4A0F5B1F80589F4FA8CF2696D8
:103B50000FB6F894DEBF0FBECDBFDF91CF911F919E
:103B60000F91FF90EF90DF90CF90BF90AF909F901C
:103B70008F907F906F905F904F903F902F9008951F
:103B80002F923F924F925F926F927F928F929F926D
:103B9000AF92BF92CF92DF92EF92FF920F931F935B
:103BA000CF93DF93CDB7DEB761970FB6F894DEBF42
:103BB0000FBECDBF7C014A01FA0134913196E491E8
:103BC000832F8F778F5F282E312CC701820D931D95
:103BD00097FDA1C1F0E8EF16F1040CF09CC18E2F07
:103BE0008F738F5FAB01480F511D57FD94C1603437
:103BF00071050CF090C1331F3327331F3B8331E035
:103C0000E6FF30E0EE1FEE27EE1FEF83AB0177FFFC
:103C100004C044275527461B570B5A0117E0A12221
:103C2000BB24AB0177FF02C0495F5F4FDA0153E06D
:103C3000B595A7955A95E1F7BA83A98377FF0CC08C
:103C4000A114B10449F01197BA83A98348E050E068
:103C5000FA01EA19FB095F0141E050E06A010A2C10
:103C600002C0CC0CDD1C0A94E2F7D986C886982FD6
:103C7000969596959695877011F4892F02C081E0EC
:103C8000890F482F880F550B5E834D83502F52703C
:103C90005A8701FF06C0AD81BE81119781E03827A8
:103CA00002C0A0E0B0E0602F61706C8300FF04C030
:103CB000B1016150710902C060E070E097E040E13D
:103CC00050E080E0612C712C8101015011091C87AA
:103CD0000B870D811E81A017B1070CF01CC1B7FD29
:103CE0001AC18A01CC24C394D12CF80143E0F69583
:103CF000E7954A95E1F7E80DF91DE491F0E0A80198
:103D00004770552702C0F595E7954A95E2F7A80157
:103D10004F5F5F4FE0FF05C01FEFC11AD10A8A0154
:103D2000E4CFE1E0CE16D104E9F4FA01F695E79587
:103D3000F695E795F695E795E80DF91DE491F0E025
:103D4000477055272F0102C0559447944A95E2F7D2
:103D5000F1E04F2255244FEF441A540AA8014E5F58
:103D60005F4F41C08601015011091E870D87442411
:103D70004394512C0D8402C0440C551C0A94E2F764
:103D80001FEF411A510A00E010E0FA01F695E7959D
:103D9000F695E795F695E795E80DF91DE491CE2E99
:103DA000D12CD98AC88A6A01E7E0CE22DD24E889CD
:103DB000F98902C0F595E795CA94E2F7E0FF0AC0D9
:103DC000E1E0F0E0002E02C0EE0FFF1F0A94E2F7E0
:103DD0004E0E5F1E4F5F5F4F0F5F1F4FCD84DE841F
:103DE0000C151D0594F2C12CD12CC414D50409F472
:103DF0008CC00B81002369F0E92FF0E0311105C080
:103E000007E010E00E1B1F0BF801E657FD4FE081A5
:103E10008E2B915008F075C0882309F44AC019818F
:103E20001A0F1F8718300CF044C0FB01EE0DFF1D68
:103E3000E038F105F0F508851985809FF001819F34
:103E4000F00D1124FE87ED871F8517FD15C0C701F2
:103E5000012F10E80103800D911D1124860F971F7B
:103E6000FC01ED51FC4F80819D85222311F0892BAF
:103E700002C0909589238083A114B104D1F0EF850D
:103E8000E730B9F0EF3FACF0C7010E2F10E80103A7
:103E9000800D911D1124860F971FFC01ED59FB4FDA
:103EA00080819E85222311F0892B02C09095892361
:103EB00080830F81002311F011E031278FEF681A02
:103EC000780A9C81992319F06150710902C06F5FD3
:103ED0007F4F6214730464F00A85002311F0119778
:103EE00001C011961C81112331F06B857C8505C0C2
:103EF00097E080E006C060E070E097E080E0612C31
:103F0000712CEFEFCE1ADE0A70CFCC24C394DB8085
:103F1000CD18CB82DECE61960FB6F894DEBF0FBE11
:103F2000CDBFDF91CF911F910F91FF90EF90DF9068
:103F3000CF90BF90AF909F908F907F906F905F9049
:103F40004F903F902F9008954F925F927F928F9263
:103F50009F92AF92BF92CF92DF92EF92FF920F9318
:103F60001F93CF93DF9300D000D0CDB7DEB7DC0135
:103F70004115510509F4BAC0FA01D4903196349133
:103F80004D2C512C5C01A40CB51C1A141B040CF014
:103F9000ADC0803891050CF0A9C0CB01830F911DF5
:103FA000181619060CF0A2C0603471050CF09EC002
:103FB000F62FF770EF2ECB0177FD079623E095954E
:103FC00087952A95E1F7F82F77FF04C0EE2011F0CE
:103FD000FFEFF80FB7FF05C0662777276A1B7B0B3B
:103FE00002C060E070E000E8A016B10424F080E8B0
:103FF000F82EFA1A01C0FD2CF61AAF2E0F2E000C67
:10400000BB08FF3F1CF4CA2CC09401C0C12C91E036
:10401000832F877009F490E0369536953695930F87
:10402000A90EB11C19E0A116B10414F098E09F1B71
:104030008C2D8F0F9D01082F10E80103200D311DDD
:104040001124260F371F4E5F5F4FCD9C600D711DF1
:104050001124460F571F61E070E00E2C02C0660F5E
:10406000771F0A94E2F7EFEFE69FD001E79FB00DCC
:104070001124A095B095BC83AB837C809F0F8917DA
:10408000A9F1F901ED51FC4F6F01A12CB12CAF1436
:1040900038F5FA01EA0DFB1DE491E69F4001E79F28
:1040A000900C11249A82898287FD07C0F601108145
:1040B000E12FEA238E2AF6018082EE2051F087302C
:1040C00044F4F601E058FF4F908097208A809828AA
:1040D0009082FFEFAF1ABF0A0FEFC01AD00AD7CFF6
:1040E0008F5F440D551D20583F4FC9CF0F900F9043
:1040F0000F900F90DF91CF911F910F91FF90EF9054
:10410000DF90CF90BF90AF909F908F907F905F9007
:104110004F900895EF92FF920F93CF93E62FF0E028
:10412000EE0FFF1FE059FD4FE080F180C0E08C2FC3
:104130008170C0FD80E1C23010F068E101C068E02C
:1041400070E090E00C2F21E0A7014C960E94C01D6A
:10415000CF5FC43061F7CF910F91FF90EF9008953A
:10416000CF93DF9300D000D0CDB7DEB761157105D6
:104170008105910579F09B01AC0169833A834B83FA
:104180005C830E94B23229813A814B815C810E941A
:10419000D63203C060E070E0CB010F900F900F901B
:1041A0000F90DF91CF910895EF92FF920F931F939D
:1041B000CF93DF938C017B01C0E0D0E0F701EC0FDF
:1041C000FD1F6491662361F0D801ED91FC9101908F
:1041D000F081E02DC8010995892B11F02196EECFD1
:1041E000CE01DF91CF911F910F91FF90EF90089535
:1041F0006115710579F0FB0101900020E9F7319715
:10420000AF01461B570BDC01ED91FC910280F3815D
:10421000E02D099480E090E008954F925F926F92B4
:104220007F92EF92FF920F931F93CF93DF93CDB7BF
:10423000DEB7A1970FB6F894DEBF0FBECDBF7C01ED
:10424000FA01CB0119A2223008F42AE08E010F5D99
:104250001F4F422E512C612C712CBF01A3019201E2
:104260000E940833F901CA01015011096A3014F49F
:10427000605D01C0695CD8016C93232B242B252B36
:1042800061F7B801C7010E94F820A1960FB6F89413
:10429000DEBF0FBECDBFDF91CF911F910F91FF9079
:1042A000EF907F906F905F904F900895462F50E071
:1042B00060E070E02AE00C940D21CF92DF92EF9243
:1042C000FF920F931F93CF93DF936B01770FEE084D
:1042D000FF08F7FE1FC0EC01E881F9810190F08131
:1042E000E02D6DE209958C0144275527BA014C1940
:1042F0005D096E097F092AE0CE010E940D21800F21
:10430000911FDF91CF911F910F91FF90EF90DF9060
:10431000CF9008952AE0B701A601DF91CF911F91B8
:104320000F91FF90EF90DF90CF900C940D213FB74D
:10433000F8948091E4079091E507A091E607B09189
:10434000E70726B5A89B05C02F3F19F00196A11DD0
:10435000B11D3FBFBA2FA92F982F8827820F911D1B
:10436000A11DB11DBC01CD0142E0660F771F881F62
:10437000991F4A95D1F708951F920F920FB60F9289
:1043800011242F933F938F939F93AF93BF9380916B
:10439000DF039091E003A091E103B091E20330913B
:1043A000E30723E0230F2D3720F40196A11DB11D53
:1043B00005C026E8230F0296A11DB11D2093E30737
:1043C0008093DF039093E003A093E103B093E203B3
:1043D0008091E4079091E507A091E607B091E70787
:1043E0000196A11DB11D8093E4079093E507A0936A
:1043F000E607B093E707BF91AF919F918F913F91EF
:104400002F910F900FBE0F901F9018950F9302E001
:104410000E94621C0F910895F89487E7809300082A
:1044200080930108A89588E18093600088E08093DC
:104430006000FFCF8F929F92AF92BF92CF92DF9298
:10444000EF92FF926C01E12CF12C0E9497214B011D
:104450005C01C114D104E104F104F1F00E94972140
:10446000DC01CB0188199909AA09BB09883E934050
:10447000A105B10570F321E0C21AD108E108F108E5
:1044800088EE880E83E0981EA11CB11CC114D104D3
:10449000E104F10419F7DDCFFF90EF90DF90CF90AA
:1044A000BF90AF909F908F9008958FB18095807F3F
:1044B000669B88601C9B84600895FC01840F911D9D
:1044C00018161906E4F5E038F105CCF5F7FF02C03F
:1044D000E0E0F0E08138910514F080E890E0382FBA
:1044E0003E1BAB0177FF02C0495F5F4F83E05595EC
:1044F00047958A95E1F75695542F44275795479548
:10450000E40FF51FED51FC4F6770772781E090E0D5
:1045100001C0880F6A95EAF7482F222349F021301D
:1045200071F4315020F08081842B8193FACF08956B
:104530008095315020F0908198239193FACF08957F
:10454000EF92FF920F93CF93DF937C01EB0121E079
:1045500049E067E370E0CE010E945D2221E049E07E
:104560006FE370E0CE010E945D2201E029E047E3A5
:1045700050E0BE01C7010E947715BE01685F7F4F02
:1045800029E047E350E0C7010E947715DF91CF9102
:104590000F91FF90EF9008950895FC01128213820D
:1045A00080E4848381E085830895CF93DF93EC01D9
:1045B000FB0181858095908589239889913001F14F
:1045C00018F09230C1F13BC08681978165E070E0C0
:1045D0000E943933892B99F58A89482F082E000CBF
:1045E000550B2B8930E0421753071CF48F5F8A8BE1
:1045F00026C08FE78A8B81E0888B87E0898B1FC07C
:1046000087FF07C09289923011F0953011F49150D4
:10461000928B84FF07C09289913011F0943011F48D
:104620009F5F928B83FF0BC08289DF01A80FB11DB2
:104630005F968C9103C083FF02C08EE087A3DF9159
:10464000CF910895FC01108A118A128A138A089565
:104650008F929F92AF92BF92DF92EF92FF920F9351
:104660001F93CF93DF93EC017B0100E021E049EB46
:1046700058E16EE070E08EE190E00E94C01D8A81FA
:1046800087FD3EC02C8130E08B81281B310937FF2C
:1046900002C02F5F3F4F35952795D22EA12CB12C0C
:1046A00020E8822E912C4A81AD1428F58501000F57
:1046B000111F8B81B801680F711D603471052CF4D6
:1046C00020E080E090E00E945D228B81B801680FBD
:1046D000711D6F5F7F4F8A816034710544F420E063
:1046E000482FF401E81BF109CF010E945D22FFEF82
:1046F000AF1ABF0AD8CF47FD03C08D81480F4A8348
:104700008A8187FF03C08CE0F70187A3DF91CF91F7
:104710001F910F91FF90EF90DF90BF90AF909F900F
:104720008F9008952F923F924F925F926F927F9257
:104730008F929F92AF92BF92CF92DF92EF92FF92B1
:104740000F931F93CF93DF9300D000D0CDB7DEB788
:104750009C838B835B01DB0151961C9181E0EB8193
:10476000FC8181871682178210866F01F2E0CF0EDE
:10477000D11C67EE72E0C6010E94F820D501509668
:10478000EC91EF3028F4F0E0ED5EF74E649101C05B
:1047900065E070E06F5F7F4FC6010E945D2169EEAA
:1047A00072E0C6010E94F820F501608970E06F5F39
:1047B0007F4FC6010E945D21D5015096EC91EF30EC
:1047C00028F4F0E0ED5EF74EE49101C0E5E0F0E0A2
:1047D000EE0FFF1FE855FD4F60817181C6010E94F9
:1047E000D42000E021E044E758E160E070E089E691
:1047F00090E00E94C01D5EEFC52EDD24DA9400E03B
:1048000021E049E658E162E170E0C6010E94C01D66
:1048100021E04FE558E162E370E0C6010E94C01D4F
:10482000BAE0CB0ED11CE2E6CE16D10441F7AB8143
:10483000BC8150968C91823011F020E001C020E1C3
:1048400041E0B5018B819C810E94D328F5018681CE
:1048500097816CE070E00E9439332C01C12CD12C7F
:10486000C50103969A8389839C2CAB81BC815296A7
:104870008C915297082E000C990B8C159D050CF409
:104880009EC0F601E85AF74E2490F601EF5AF74E13
:104890003490F601E65BF74EF49051968C91873098
:1048A00021F01F1102C081110AC03DE0E32E06E095
:1048B000232D422DB5018B819C810E94F210EB814A
:1048C000FC8182898F37C9F4D50152968C91891168
:1048D00014C0B7E04B16510480F0112309F46FC0E7
:1048E000632D70E000E020E042E258E1822D022CCE
:1048F000000C990B0E94C01D03C0112309F45FC076
:10490000F116A0F01F1106C0EB81FC81818988237C
:1049100069F08BC0F6E0CF16D10409F050C0AB812E
:10492000BC8153968C91863009F085C0632C712C24
:10493000822C022C000C9908B3E08B0E911CA30171
:104940004C5F5F4FE12C05E12EE0B40189819A8133
:104950000E94A715E6E0CE16D10431F4AB81BC81EC
:1049600053968C91863039F0F501EC0DFD1D878D45
:1049700090E0019702C087E090E0880F991FFC014A
:10498000E856FD4F40815181B3016A5F7F4F00E0DF
:1049900021E0C4010E94C01D1F1111C0EB81FC81E8
:1049A0000189002361F082898F3749F401508DE03D
:1049B000E82E232D422DB501CF010E94F210FFEF0A
:1049C000CF1ADF0A87E0C816D10409F04DCFAB81BA
:1049D000BC8151968C915197882341F052969C91BD
:1049E00052979F3719F4815051968C93EB81FC813B
:1049F0008089823019F569E1CF010F900F900F90F7
:104A00000F90DF91CF911F910F91FF90EF90DF906A
:104A1000CF90BF90AF909F908F907F906F905F905E
:104A20004F903F902F900C940D2A86E0C816D10429
:104A300009F0B4CF74CF1F11CACFB0CF0F900F9031
:104A40000F900F90DF91CF911F910F91FF90EF90FA
:104A5000DF90CF90BF90AF909F908F907F906F909E
:104A60005F904F903F902F900895EF92FF920F9399
:104A70001F93CF93DF93FC01DB01108A118A128A06
:104A800086E0838B50968C915097863051F028F4B5
:104A9000813039F0833039F404C0893011F08D3021
:104AA00011F487E001C086E0838B17961C921E925A
:104AB000169751968C915197811135C08D01EF0158
:104AC000128A87E0818B95968C938AE0F82E66E0B7
:104AD00070E080E090E00E94B020E62E66E070E09A
:104AE00080E090E00E94B020D801AE0DB11D5F962D
:104AF0008C915F97F801E60FF11D978D5F969C935F
:104B0000878FFA94F110E3CFF80185898F3F39F44C
:104B10008FE78A8B82E0888B158A118A0AC081E030
:104B2000F801818B06C08FE7828B87E0818B81E063
:104B3000808BDF91CF911F910F91FF90EF9008959F
:104B4000AF92BF92CF92DF92EF92FF920F931F939B
:104B5000CF93DF936C01EB018E819F8168E170E060
:104B60000E9439337C0140E0BE01C6010E94E22967
:104B700000E021E046E156E160E070E080E090E096
:104B80000E94C01DD6015196EC91F0E0ED5EF94E09
:104B9000249141E0F6018089813009F040E0BE01B6
:104BA000C6010E94D328FDE0EF16F10408F445C0C9
:104BB000D60151968C91813049F0823059F41FE32F
:104BC000D12C97E5C92E22E3A22E09C01FE334E2BF
:104BD000D32E02C012E2D12C80E3C82EA12C239642
:104BE00000E02D2D4C2D6A2DCE010E941917212F8A
:104BF0004C2D6A2DCE010E941917F12EFD18E12CC3
:104C00000D2D10E0B12CA8014E0D511D20E0B50175
:104C1000CE010E945915E394E394FE14A0F7B12C41
:104C2000D12CA8014B0D511D20E0B601CE010E94F0
:104C30005915B394B394FB14A0F7DF91CF911F9152
:104C40000F91FF90EF90DF90CF90BF90AF900895BD
:104C5000AF92BF92CF92DF92FF920F931F93CF93A9
:104C6000DF93EC018B016B0144E1C40ED11CFB010D
:104C7000F184F0949085F9228889882321F081308D
:104C800009F449C061C0F5FE05C08989823011F47C
:104C90008A89898BF6FE06C08989823019F08A8B51
:104CA00082E0898BF4FE09C08989811106C081E008
:104CB000898BF7FE07C0198A05C0F7FE03C08989F2
:104CC0008130C9F3F3FE40C08989813069F038F042
:104CD0008230F1F461E0C6010E941D2819C0F8017C
:104CE00085898F5F858B14C0F801878990E00296D3
:104CF0008531910514F084E190E0F801878B27E17C
:104D000030E0A901481B590BCA01880F80930001AC
:104D100081E0888B19C05B015FE0A50EB11C9B8907
:104D2000963450F49F5F9B8B963431F4B601C501E5
:104D30000E94DB27F80187A3F3FE06C0B601C50178
:104D40000E94DB27F80187A3DF91CF911F910F917C
:104D5000FF90DF90CF90BF90AF900895CF92DF92F9
:104D6000EF92FF920F93CF93DF93EC016B017B01E6
:104D700083E0E80EF11C41E0CE010E94E22900E050
:104D800020E043ED55E160E070E087E290E00E94B2
:104D9000C01D21E048EB54E160E070E087E290E064
:104DA0000E94C01DF6018681978162E370E00E9437
:104DB0003933049740F421E047E06BE070E08AE388
:104DC00090E00E945D2221E043E36CE370E083E227
:104DD00090E00E945D2201E02EE347E563E2C70117
:104DE0000E9419172FE347E564E2C7010E941917D3
:104DF0008889882329F0813031F441E953E105C0E5
:104E000041E054E102C040E050E000E021E061E018
:104E100070E082E090E00E94C01D6989F8E06F9F19
:104E2000B0011124695F7F4F45EB54E182E090E0CF
:104E30000E94A41F698988E0689FB0011124695FFE
:104E40007F4F45EB54E181E290E00E94A41F8A89E4
:104E50008823D1F08AE1E82E00E427E14FE1B60192
:104E6000CE010E94C02A84E28E838F838CE18887E2
:104E7000EA89F0E0EE0FFF1FE057FD4F608171817E
:104E8000CE0102960E94D4202B8941E0B601CE01CA
:104E9000DF91CF910F91FF90EF90DF90CF900C9426
:104EA000D328FC01108A118A128A0895FF920F9369
:104EB0001F93CF93DF93EC018B0182E0888B898B6A
:104EC0008A8B8FEF8D8BFE01B196CE018596DF0127
:104ED0001B971C9214961C921192E817F907B9F7C8
:104EE0001E8E1F8E18A21DA240E0B801CE010E94A6
:104EF0006F2ED80112968C9112978730F9F0883076
:104F000009F440C0863009F044C05096FC9066E039
:104F100070E080E090E00E94B0206F0D6E5F6B8BC0
:104F2000D8015096EC91EF3028F4F0E0ED5EF74EAA
:104F3000E49101C0E5E0EE0FEE5F22C0D80150968B
:104F4000EC91EF3028F4F0E0ED5EF74EE49101C013
:104F5000E5E08E2F880F880FE80FE65FEB8BD80116
:104F60005096EC91EF3058F4F0E0ED5EF74EE4919E
:104F7000E53028F4F0E0E852F34EE49101C0E0E0BF
:104F8000EC8B07C0F8018089880F8E5F8B8B85E0E2
:104F90008C8B82E0888B898BDF91CF911F910F9151
:104FA000FF900895FC0190858781890F9185890F75
:104FB0009285890F0895FC01DB0182818F5F8283D6
:104FC000833081F030F4813059F0823069F481E02F
:104FD00009C0843039F0853039F486E083830DC010
:104FE000138229C0838327C0863029F481818D30C4
:104FF00089F48DE008958530F1F481818630D9F00F
:1050000028F48130C1F0833029F415C0893099F03B
:105010008D3089F011968C911197815011968C9357
:105020001197128211968C9187FD05C081818F5F47
:105030008183138214828AE00895DC0114968C9196
:105040001497E82FF0E0EC58F34EE49115969C91FC
:105050001597690FE61718F015966C9308956F5F12
:105060006E1B15966C9315978F5F14968C9308950D
:105070000F931F93CF93DF938C01EB01AB014C5E39
:105080005F4F9985909528859223F80120892130DA
:1050900009F465C020F0223009F47CC07FC0F8011B
:1050A00081898C3088F466E070E080E090E00E94B6
:1050B000B020DC01CB010196A11DB11DF801828B4E
:1050C00081898F5F818B6AC0F8019289933041F1A9
:1050D00028F4913041F0923081F03CC0943061F17D
:1050E000953079F137C08E8990E002968B3091052A
:1050F00014F08AE090E08E8B2DC08F8990E00296AC
:105100008531910514F084E190E08F8B27E130E048
:10511000A901481B590BCA01880F809300011AC0CE
:105120008D89082E000C990B01968B30910514F097
:105130008AE090E08D8B0EC062E0CA010E941D28BB
:1051400009C08C8990E001968630910514F085E0C5
:1051500090E08C8B81E0F801808B118A1FC093FF57
:1051600004C086E4F801818B98E0F8012189263497
:1051700018F42F5F218B12C093FF10C0F8018289B1
:10518000863030F4BA01CE010F960E94DB2705C0AD
:1051900088E003C093FF02C08EE08FA3DF91CF9120
:1051A0001F910F9108952F923F924F925F926F92AD
:1051B0007F928F929F92AF92BF92CF92DF92EF92A7
:1051C000FF920F931F93CF93DF9300D000D000D0B6
:1051D000CDB7DEB79E838D836B01FB0186819781FE
:1051E00068E170E00E9439330D9710F4512C01C032
:1051F000542EA12CB12CFF24F39488E7482E8D80E7
:105200009E80F2E08F0E911C33243394360183E0AC
:10521000680E711C22FB222420F823FBEE27E0F904
:10522000E983F22FF071FA83822F81708B8321FB47
:10523000112710F98FEF8F0D8330A9F028F48130FA
:1052400051F0823061F004C0843089F0853099F0EB
:10525000F601308D2AC0F601318D8B81A4C0F60194
:105260003789812FA0C0F6013489822D9CC0F601B8
:105270003689898198C0F6013589FA81FF2349F181
:10528000552099F0ED81FE8111863A3010F02AE028
:1052900001C025E0EE24E39407E0A50167E770E094
:1052A000C3013C830E94A7153C81ED81FE814682AB
:1052B0004782A086632FC4010E945621ED81FE81A2
:1052C0003186F6E0FF16A9F0F394E9E0AE0EB11CCA
:1052D000B1CF88E7ED81FE81868387838DE2808769
:1052E000632FCF0102960E94562181E0ED81FE815D
:1052F00081875601EBE1AE0EB11C02EB12E0F12CFE
:105300004501F5018081882371F0F80140815181C8
:10531000FBE0FF9EC001112468E370E085599F4FB8
:105320000E94A41FF3942FEFA21AB20AF401808105
:10533000823070F0F80140815181FBE0FF9EC00196
:10534000112468E370E085599F4F0E94A41FF394D5
:105350000E5F1F4F22E00A3B120791F683E0C80E52
:10536000D11C6AE670E0C6010E94A02265E770E0E9
:10537000C60126960FB6F894DEBF0FBECDBFDF91F3
:10538000CF911F910F91FF90EF90DF90CF90BF9042
:10539000AF909F908F907F906F905F904F903F90D5
:1053A0002F900C94A02281116BCFED81FE8146825B
:1053B0004782A086632FC4010E945621ED81FE81A1
:1053C000318682CF0F93CF93DF93442351F000E0D7
:1053D00021E046E65CE160E070E080E090E00E9461
:1053E000C01DC0E0D0E000E021E042E55CE1BE018C
:1053F00089E590E00E94C01D2A96C634D10599F730
:1054000021E04DE05CE160E070E089E690E00E9420
:10541000C01DDF91CF910F91089570E043EA5BE1E9
:1054200086E290E00C94A41FCF92DF92EF92FF925D
:105430000F931F93CF93DF93EC017B0144EFC42EB6
:10544000DD24DA9400E021E04DE85CE168E270E000
:10545000C6010E94C01D84E1C80ED11C88E5C81693
:10546000D10481F741E0B701CE010E94E229888989
:10547000813009F444C040F0823009F064C069E131
:10548000CE010E940D2A5FC06989C7010E948A204F
:10549000E989ED3018F5F0E0EE52FD4F8081882368
:1054A00009F451C010E0A12FAA0F298930E0F901B9
:1054B000EE52FD4F8081181708F045C0C901409693
:1054C000880F991F00E021E04EE75CE168E070E0A2
:1054D0008A0F911D0E94C01D1F5FE5CFEA89F0E091
:1054E000EE0FFF1FEC53FD4F4081518100E021E0A2
:1054F0006AE070E08EE190E00E94C01D24C060E090
:10550000C7010E948A20EA89F0E0EE0FFF1FEC53EA
:10551000FD4F4081518100E021E06AE070E08EE1C2
:1055200090E00E94C01D84E08E838F831886EA89F4
:10553000F0E0EE0FFF1FE854FD4F60817181CE0156
:1055400002960E94D420EA89E53028F4F0E0E7587A
:10555000F34E249101C020E08889813021F441E09C
:105560008989863408F040E0B701CE01DF91CF9100
:105570001F910F91FF90EF90DF90CF900C94D32864
:105580009F92AF92BF92CF92DF92EF92FF920F93D2
:105590001F93CF93DF93902E1E2DC22ED12CC42F9C
:1055A000D0E05B0183E0A80EB11CE12C012F292D76
:1055B000A601BE01C5010E94A7150AEF090DB6019B
:1055C0006E5F7F4F7E0183E0E80EF11C6034710551
:1055D0002CF421E0402FC7010E945D22B601610F2B
:1055E000711D635071096034710528F421E0402F6A
:1055F000C7010E945D22165083E0C80ED11CBE0177
:105600006E5F7F4F01E0212FA601C5010E94771533
:10561000C90DD11DBE0163507109212FA601C5011D
:105620000E947715DF91CF911F910F91FF90EF901E
:10563000DF90CF90BF90AF909F900895FC01108AAB
:10564000118A128A0895DC01FB01918590952085CD
:10565000922393FF0EC050968C915097882319F097
:10566000813029F0089581E050968C9308958CE064
:1056700087A30895AF92BF92CF92DF92EF92FF92ED
:105680000F931F93CF93DF931F92CDB7DEB78C019B
:105690005B016B0144E1C40ED11CFB01F184F09469
:1056A0008085F82211F0F801128AF8018089882398
:1056B00021F0813009F4DCC026C1F7FE06C0F801F4
:1056C0008189882311F08150818BF4FE06C0F80196
:1056D0008189863010F48F5F818BF3FE14C1F8014D
:1056E0002189223009F450C028F4222351F02130BE
:1056F00041F1B7C0263008F472C0263009F492C0D8
:10570000B0C0F5018689811102C081E005C0F501B4
:1057100085898A3021F483E0F801828BA2C0F801E8
:1057200083898061838BF5018589082E000C990B94
:1057300001968B30910514F08AE090E0F501858B9D
:105740001FC0F5018689882301F38789843119F305
:10575000F80183898260838BF501878990E0019647
:105760008531910514F084E190E0F501878B27E104
:1057700030E0A901481B590BCA01880F8093000132
:10578000868990E0019724C0F5018689833008F46A
:10579000BCCF8789843109F4BECFF8018389826048
:1057A000838BF501878990E004968531910514F08B
:1057B00084E190E0F501878B27E130E0A901481BE7
:1057C000590BCA01880F80930001868990E00397E6
:1057D00097FF02C080E090E0F501868B42C0F501A2
:1057E000E688F7E0FE1508F090CFC60129830E94F5
:1057F000D2272981823008F08ECFE22FF0E0339754
:10580000EA0DFB1D838D8F5F838F8E2D90E00897AF
:1058100097FF02C080E090E0F501868BF801838954
:1058200088601EC0F5018689863008F46ECF248911
:10583000253008F070CF30E02F5F3F4F2630310524
:1058400014F025E030E0F501248B90E0069797FFF7
:1058500002C080E090E0F501868BF80183898460C6
:10586000838BF8018389982F977109F44CC02BC062
:10587000F7FE06C0F8018189882311F08150818BE1
:10588000F4FE06C0F8018189843010F48F5F818BAB
:10589000F3FE39C0F8018189F5018330B0F4E80FD7
:1058A000F11D838D8823A1F08150838FF5018689B6
:1058B00090E004968B30910514F08AE090E0F501B9
:1058C000868BF801838988601DC02489211104C05A
:1058D00082E0F801828B17C030E02150310937FF98
:1058E00002C020E030E0F501248B868990E0039629
:1058F0008B30910514F08AE090E0F501868BF80179
:1059000083898C60838B8F2D807641F081E0F80154
:105910009089911180E0F801808B118AF2FE07C016
:10592000B601C5010F960E94DB27F50187A30F90F2
:10593000DF91CF911F910F91FF90EF90DF90CF906B
:10594000BF90AF9008951F93CF93DF93162FEC0174
:105950002296643660F465E07FE1CE010E94D42097
:105960001A3028F463E07FE1CE010E94D420612F39
:10597000CE010E94562161E07FE1CE01DF91CF91FF
:105980001F910C94D4201F93CF93DF93162FEC011B
:1059900022966A3028F46FEF7EE1CE010E94D42077
:1059A000612FCE010E9456216DEF7EE1CE01DF9185
:1059B000CF911F910C94D420DF92EF92FF920F931E
:1059C0001F93CF93DF93EC017B0141E08889813005
:1059D00009F440E0B701CE010E9450108889882365
:1059E00009F48DC0813009F0AFC000E021E048E447
:1059F0005DE165E170E084E190E00E94C01D20E07F
:105A000047EF5CE164E070E088E190E00E940622EC
:105A100087E18E838F8304E10887D7011F96EC917D
:105A2000F0E0EE0FFF1FE152FD4F60817181CE016A
:105A300002960E94D42018E31E831F830887F70173
:105A40006785862F880F680FCE010E94C32C81E2E4
:105A50008E838F839DE1D92ED886D70158966C917D
:105A6000660FCE010E94C32CF701608970E06F5F62
:105A70007F4F862F880F680FCE010E94C32CD7015D
:105A800057966C91660FCE010E94C32CF701658971
:105A9000CE010E94C32C1E831F83D886D701549643
:105AA0006C91CE010E94C32CF7016689660FCE016E
:105AB0000E94C32CD7015A966C91660FCE010E94AA
:105AC000C32CC70144960E94D227682FCE010E94A2
:105AD000C32C1FE51E831F8308876989CE010E949E
