:100000000C94DA0F0C9402100C9402100C94021051
:100010000C9402100C9402100C9402100C94021018
:100020000C9402100C9402100C9402100C94021008
:100030000C9402100C9402100C9402100C940210F8
:100040000C9402100C9402100C9402100C940210E8
:100050000C9402100C9402100C9402100C945F2E5D
:100060000C9402100C9402100C9402100C940210C8
:100070000C9402100C9402100C9402100C940210B8
:100080000C94FB100C9402100C9402100C940210AF
:100090000C9402100C9402100C9402100C94021098
:1000A0000C9402100C9402100C9402100B332833A1
:1000B000453362337D339833983398331C34B533EA
:1000C000D233E93300340034522752276427DB2728
:1000D000A4284B2972298829922998299B299B2990
:1000E0009B29090F9705934900109000202001409B
:1000F000E0305F0020002000020002200000090F15
:100100002F174C260212000424C0BB7D07000400F8
:1001100001400000090F5F5C309904F8DE7E0000AA
:1001200000090F5F5E30F9FABE03090F5F5C30997A
:100130007C75BF03090F2F174C2693C9E4F5FE1EEB
:10014000090F970593C96432994CAEFBFB090FFC6C
:100150007900090F5F5C3CFBDE7B090F5F5A3CFFB7
:10016000CE7700090F2F169FBD7F1F090F2EFE2C83
:10017000D5F08D14A1C881CFD9F1AF200003081F9D
:10018000051F1F151B1F11111F110E1F15111F0514
:10019000011F111D1F041F001F0010101F1F041B33
:1001A0001F10101F061F1F011F1F111F1F05071FF4
:1001B000311F1F051B17151D011F011F101F0F10D9
:1001C0000F1F0C1F1B041B071C071915130C121EF5
:1001D0001F120C1E12120C121F0C1A14041F052ED3
:1001E0002A1E1F021C001D00201D001F041A011FD3
:1001F000001E041E1E021E1E121E3E120C0C123E7B
:100200001E020614120A020F121E101E0E100E1EDF
:10021000081E1A041A2E281E1A12161F111F121F4A
:10022000101D151711151F07041F17151D1F151D6C
:1002300001011F1F151F17151F00170000100004D4
:100240000404040E040229060A0000207E596F757A
:1002500020616C72656164790A2068617665206549
:100260006E6F75676821007E596F7520646F6E74BC
:1002700020686176650A206F6E6520746F20736553
:100280006C6C2100202020596F75206E6565640A12
:1002900020206D6F726520676F6C6421000D0F97D1
:1002A00025132A54264626512645E6BACF090318B7
:1002B0003061C0840113064C98070D0F93A62C0CD7
:1002C0001801144440044031C1849DED5407D4000A
:1002D00000430506B050056A203054260D8F4B9D13
:1002E00034128C05E102428D0453A6BA46D94280ED
:1002F00000610D902240164980809B0E0D8F0F09E2
:10030000259409260B2C8B20E12B710DC3258E150E
:10031000B9983572000DCF6FA1B00181DD130CF8D3
:10032000A6270607F442042880E10D0D8F8F04995B
:10033000A0818282509830493E3A06430441524699
:10034000C2913B0DCF274919AA40A30205D41450EE
:100350001D34F866D41128A8000540000AA04221E7
:10036000C38E030DCFA76494F01AC0AB5200441F94
:1003700005201428A100D83084C1CCAD47003A7EB6
:1003800053756E6B656E7E4B6565707E6F667E4FD6
:100390006721003A7E466C616D696E677E556E64BA
:1003A0006572776F726C64003A7E556E6465616445
:1003B0007E43617461636F6D6273003A7E506F6952
:1003C000736F6E6F75737E44756E67656F6E7300C5
:1003D0003A7E5468657E426C61636B7E53657765D7
:1003E0007273000A003000300030001FE737168FAC
:1003F0009005205E9D4280D3388D576C54368BCD4E
:1004000062A3B291B0597C4F00590AC814DE0202AF
:100410001B782D4075C8C316156448FB6900748AA3
:10042000B801780B086CE0B500D5210F5B54902122
:10043000ED77A9403410A2F53120B081D70254875E
:100440003C6C514186B41FAF4C2687BC050436F086
:1004500018290B017CD7B240C6EC3B1FFF37166F43
:10046000860A00A05CB2585E5360F5119B209BC5C4
:1004700066B151D948D82C3E40721943F716F02185
:1004800020B0812F20C1519EB5A82043DA8F4B4563
:100490005450968F01810D7C01514779D6A2820C70
:1004A000693F9879594D9642DE01021B788C1415EC
:1004B000017CD7A2820C69BF2D802C05640A6F01D4
:1004C000810D3C16405404F05D8B0A32A4FD3400CB
:1004D0003A45DC00BC050436F058005111C0772DB8
:1004E0002AC890F6BB54201A08D1FA1810D8C06355
:1004F00001444500DFB5A82043DA8F57269343DE39
:1005000002021B785C9085C4772D0B64CCBE03017E
:10051000087E3F3F3F97E160B1584C169389000633
:100520009000124AA8D3E9BF3213F3BDACB6110450
:1005300001527098B000800238A06BACFC3361B1FE
:10054000582C9A2FC635130800010000200024C043
:10055000C4D9001400100058309C2B2B23CBC99F0A
:10056000D4818466F1FBD86C764042D0101A1028F2
:1005700041021440001000040001400010001080EF
:100580000218008329445D197FB87D66B3D96C36A3
:100590009BC962B2582CD67EEC000A8010A66C4A29
:1005A0002841200808800451912000022000020008
:1005B000F39EF197DA3F7BD706102820903ABC8E45
:1005C0009D9740014000100004000140001000040D
:1005D0000001C039D91F630125888A08000411D1A0
:1005E000120A2C3EB27FF7868083C567E7E621506A
:1005F00000400010000400014000100004000160F1
:10060000EF8E0F030002E064B23F9B1F9F1F978F86
:10061000B0596C169BC566B1B9E6C06432335A70E6
:100620000210015C2E974C0AB6ED600107BFFF7FF8
:10063000C69CE63CF9EFE1EFEEE18FFF6FE2B04ED2
:10064000F973FE33CAE94FF5EF2AE3EFF3EFEB0B53
:100650001CC218479EE734131EFF23FBE477BFF745
:10066000EF2C977559977C7C5D1610705110020124
:1006700057BFCC95AB0E01DDD62058B73508D66DE7
:100680000D2EBD7AF5EAD5AB57AF5EBD7AF5EAD54A
:10069000AB578F320F73E5EAD5AB57AF8E51AF5ED4
:1006A000BD7AF5EAD5AB57AF5EBD664DF61366066B
:1006B00047640CB973481DCDE850987EC0230017DD
:1006C000100E50D83060C18205290B162C583041CD
:1006D00039F99DBDF7F7BCC8AA6308E7BFDBFD5B2E
:1006E00008C200848210203080020B10994CA0C0F8
:1006F000120457804ACA905C2417C94572918C0D28
:1007000047E032C22C0C98F3037BEFEF6D00E0B0B2
:10071000DF3D1C05CE06991E5BCE4C00C8D5090AEC
:10072000BCBD7F1638017202AE5EBD7A056E8403D1
:1007300002B2008050040044020008080040140087
:100740008028056A0000500000000181E1EAFBBD3D
:10075000F7F736ACBDDF3D616670453A168F80C154
:10076000046E2D30F9D425510CB0800212A0800403
:1007700028B080020B28B080020B2820010A2CA090
:10078000C0020A2CA0C0020A2CA0C0020A2CA0C0E1
:10079000020A2CA0C0020A2CA0C0020A2CA0C0028F
:1007A0000A0C1193BDEF5CBDCFC33C5C9D9BAB7F3E
:1007B0009EFBBB96013D1A4401201C1C042102B380
:1007C000E6A9861868C010FD3613280CC43104EA67
:1007D000CFD87BBFE3382EE16004B0823006082713
:1007E000E0CF747FC731772F80BCED61DE98C045C4
:1007F000684770D4E005387729586073C09281C289
:10080000AD41065842D727F6DEDF13060010062258
:10081000410140E17B03B7089020621772436EC824
:100820000DB92137D8673C7AF5EAD5AB57AF1E8CA6
:100830000AA0AA505529AA22A02A45D5881A655986
:10084000698C425491AA49353B760CAF5EB3E661A0
:10085000E2D1AB57578635D412868BE9D5AB57AF6B
:10086000CED4626A57EDAA5DB5AB364B26000001C7
:10087000010202020303030404040404139F07009B
:10088000C2993367DE72E6CC9900F00200F8FD00F1
:10089000C00B00E0F70300AF8070E6CC99779C397D
:1008A0007326C01101020203040405170824170867
:1008B0002417FF1313273B3B4F09C7E6AED9D1BB23
:1008C000232018090737474696A72C21815A17F786
:1008D0004F912041063290B74081DF0A1C0870EB2F
:1008E00006C24340E0771B61964E9F83F0BB0BBA74
:1008F0002861F539F2D3134A601DF28EE5E27732B2
:10090000192DD28CBCE7C6EFEB2DA775115F03172D
:10091000E07701459F371620002560E2707AED7C74
:1009200076F5EA06A29090A10322DA553B44060C24
:10093000CD671DB9682F9ED06B0FE809BDE6825EBA
:10094000855B4EDC2057E5EA05F8101740000AC425
:1009500080397472EAE70086A7591C513408285977
:100960001686B54162B8F0D241B0C79662CA4E1938
:10097000B0E4CC35AF3973E735677F1C020B08054F
:10098000BBFB7AB3CDB4EE180324B20A37E0FB63A5
:10099000218305C0691C0347E0C8193812E60827FF
:1009A000E0E65F0D814D38FAC0CBB8406EC0959F30
:1009B000E7DDAB57AF5EBD7204CE5E3922BF065095
:1009C000697420202020207E2D327E48502C7E2BE2
:1009D00046616C6C004D6F76696E677E57616C6C1A
:1009E00073202020202D317E585000537072696E84
:1009F000677E426C616465202020202D317E485046
:100A0000005275737465647E41726D6F757220203B
:100A1000202D317E415200547269707769726520D1
:100A2000202020207E2D317E476F6C64004D696C44
:100A3000646577202020202020207E2D317E466F87
:100A40006F64001B9F7B15000098C007C64BCD81CB
:100A5000FBF81630010080AEFB01000000000042F0
:100A600078CE60D8C9396E0E7C811000000000007D
:100A7000383C590013008003378EDCC02B47E098C8
:100A8000A7DC3800003001D6A7B9722C5C80734E09
:100A9000E3C8EF011BDF178738557CCD62B317EC35
:100AA00075D9739E780A822E10CB0B5BC418113F48
:100AB000C04891CC4B6F0513307C03C4A1206A79E8
:100AC000C3027583DFC9C8A98B299429D4F205F123
:100AD000505CFE021F70895C3902D79C809F011B0D
:100AE0009F872CC86488B840445822C212F100C2C3
:100AF0000572E47B22D45804F12E8661848ADF6477
:100B00003980051458A0C2021516A8B040853203DA
:100B10002B6FC0C10215169BC566B131B0596C046C
:100B2000606360232194450C8B812C42F9253EE0C3
:100B30001239721CA7FC1C1B9F0FC0F0007C033EE7
:100B4000502F826E110E5C8427E3065E224F61EC0B
:100B5000086C306C67C76690A8080E4592305C54EC
:100B6000CE84B0D553E46DCEC0C93BB099286E0099
:100B70004E8C4A18C85637F080CD91F07DAE1C31AE
:100B8000175E70249C809F031B9FAF91458D0E586C
:100B9000125C0220B120242008820208A0113146F4
:100BA000C468901BF2491426CCBD0538F28050A4CD
:100BB000049475E9171CE0F0B9885BC42DE2167146
:100BC0002B92148003145452009A82AEC20DDC2280
:100BD0006E117F8A0FB8448E9E10B88C5F031BDFA6
:100BE0006F43600904661E87C01208CC3C0E812545
:100BF0001098F9093CA43CEEA5705807C29527DC73
:100C0000289F61B180052A2C08C802221840020BD7
:100C100082B0608101244001284880C502032C6015
:100C2000B1F8093EE012B972EA715C8227BF0B117C
:100C300097CF801B78E4390FB8019FC981087BBE2C
:100C4000CD91A30017FE4211D767CE9C7DCE63E401
:100C5000C8438EC03527E0CC31772F80FC9100113E
:100C6000D7776FC20D7CCDEB7C5339303879E7985C
:100C7000075C227F2411D777E49263E42DAFF3451C
:100C8000CC695C903BC73CE012F9230111D7778E09
:100C9000E00D78CEEB7CB427C88D3BC73CE012F961
:100CA000230111D70FB87A045EF33A9F849C841B0A
:100CB00070E798075C227F2411D70F380247E03590
:100CC000AFF34DE5623879E798075C227F24010590
:100CD0000506000503060004020500030103132AAC
:100CE0004A600F170E0B9987D94DDB8D39A8277EE7
:100CF0000127F510D96DD31D1907389D0E7000938B
:100D0000CDE46731590CA0E070381CD78763011817
:100D10008E4EC41E8185081C9D40FB2B861CC83846
:100D20003A9178ECE65839241C7A34C8EA6DFC9480
:100D3000217BDC0CB27A6B383B11C6AF18B2C7CD41
:100D4000800B388ED30045DF7FB0EBDA1D8E7D71CE
:100D5000DEA7F33EBDECB65E5F5CFF68F6D65B5780
:100D6000D204D35B4F33E7398E5ECD8E578F635EEF
:100D70003B4FB93A1B336BC770B477BC7A752E0EF4
:100D8000D3AB57B933566FBD35C134A31D303F3493
:100D9000BAE8173267E62D5767633ABDE6B4733B8E
:100DA0008CA3575312AF5E33CF5D47AF7497ABC779
:100DB000319E7D2ACB8C7568F80E67169BC5E6CCF4
:100DC0006739B3D82C368B339B574C209919BC63A9
:100DD0007166B3D82CCE7C96339BC56671E61B84B6
:100DE00000020202020303030303030101010101E4
:100DF0000101010202020204040408083410000088
:100E0000F804C4A464A4E4C40404046484640484EE
:100E1000448404C404C40404E424C404A404844432
:100E200084048444E4040404C4E4A464A4C404F86E
:100E3000000000000F1010131113111010101010EB
:100E40001310101112111011121110101312111091
:100E5000131011131210111213101010101113117E
:100E60001310100F0000001008040201011F2020C1
:100E700001014000100004002108084E6F00596570
:100E80007300090900FEFEFEFEFEFEFE00000000EB
:100E9000000000000000FEFFFFFFEFFFFFFFFE006D
:100EA0000101010101010100FEFFFBFFFFFFBFFF88
:100EB000FE000101010101010100FEFFBFFFEFFF84
:100EC000FBFFFE000101010101010100FEFFBBFF6C
:100ED000FFFFBBFFFE000101010101010100FEFF58
:100EE000BBFFEFFFBBFFFE0001010101010101009B
:100EF000FEFFABFFFFFFABFFFE000101010101019F
:100F0000010045766164657E747261703F008DD723
:100F10003DF13EF3F0AD7BB3673E7630714E078115
:100F2000B2F2398E812E0489D73DF1B1C3E5DCECF4
:100F3000B91E5F1D04CAF2CE91303609973BF3F01B
:100F400031E6F732777A231C799E45210C010101A5
:100F500001010101010202020204040408084F70A9
:100F6000656E7E63686573743A00D7BF1EF9EF1330
:100F700047FFCF169CBD7AF5CFC199AB675EF3E70B
:100F8000F0EAD5337FE6A56B090010881102163808
:100F9000124E8413618E70A1040C658E70229C40E9
:100FA0003995430C00000027F582DC908C498910AC
:100FB000CA858C2237E4863C002A048C810000B864
:100FC00096AE1F1E40200610488C400C20101504C1
:100FD0006200811880BDF7DE07D6426EC80DB97178
:100FE000D827208006B8EC2B72436EC80DB9213784
:100FF000E4865CF7058802014EFBC00DB921376419
:101000002D0E7BEFBD01620081A820100308C400F3
:10101000C60410880104728E17402E085C2817EA57
:101020008172C176246314E8025C3414192CE486BE
:10103000DC38EC131040035CF615B92137E486DC8C
:10104000901B7243AEFB02448100A77DE086DC90DA
:10105000C5404ACA1258053A46325AB9500E960B44
:101060002017CA05818B593BDF4F982008140C00CC
:101070000501000A06808201A060002818000A0607
:10108000808201A06000281800828680084111211A
:10109000888204519000123000140C00050340C1F6
:1010A00000503000140C00050340C100501000A097
:1010B0006000282008934FEE0D0004000010105827
:1010C000206B0A37E126DC849B70136EC24DB80991
:1010D00037E126DC849B70136EC24DB80937612C52
:1010E0003281000000000000B0F7EFD81B000000C4
:1010F0000000386C3973E6CC993367CE9C3973E6BF
:10110000CC993367CE9C3973DC0700000000006087
:10111000EFAF122E0CDAC500A40A882860400B023B
:10112000A2000615404840B0E01882E004CC8EDDF5
:10113000D46DB352671D290882204409C4A0200839
:1011400082203846CD8E21424C80500406AB65701B
:10115000215C010F0FBF74C1E4D7EE3B0F0FBF6CD2
:10116000C16432F975FB3D0F0FBF64C16432994C05
:101170007ECDFE1E0F0F5F5E30994C2693C9E4EBC7
:10118000FBFB0F0F5F5A30994C2693C96432F9DA92
:10119000FE3D0F8FEF56B82137E486DC901B72E3DB
:1011A000E1FE7D0F8F7B851B72436EC80DB9213721
:1011B000E4C661FF5E8F0FB5D0B6CDA24D800A1D8B
:1011C0006C37F27547CB81C90296B7BE058F4FDAEF
:1011D000B66D4716B0C0E5765A935F924D5D2E60AE
:1011E000F4D6778F8F8276EF79020778B11C842747
:1011F0007C3E708AD925B7BE058F0F75B56DB318C3
:101200008975B9D96CDEF009CEBDB51DC0F2D6B76F
:101210000707410C1A3C1E0C410707000C3A163A0E
:101220000C000707002A18360C2A000707001A24AA
:1012300032241A004D6F6E737465722020202020B6
:101240002020207E357E444D4700466F756E647EBB
:10125000536869656C64202020202B317E41520048
:101260005768657473746F6E652020202020207E7F
:101270002B327E585000466F756E647E4D656174EA
:10128000202020202B317E466F6F64004865616C02
:1012900074687E506F74696F6E2020202B327E48F8
:1012A0005000466F756E647E4C6F6F742020202056
:1012B0002B327E476F6C6400BFFF9ED6D2C502ED15
:1012C00076B0596C96AEC291AB57AF1A29680E5ED4
:1012D000BD7AF59F01CBA52A05DBB6429122458A4E
:1012E000AACB1313900B2017402E805C00B900721C
:1012F00001E402C805F8F38FCB52CAD05AB5B2B098
:1013000028C1E238F98FD174D51A1AED260EFFE9FB
:101310003A6B83B554AFC6A087184020610000E146
:10132000008413FFD03CADA58BADDD0E5D99810E21
:10133000122000C03F47964B550AB66D85A2EA833E
:101340000910FE518ECB52CA7057378BCDA2E83AA6
:10135000F10F1117F74F912041063290B74081DF0E
:101360000A1C0870EB06C24340E0771B61964E9F53
:1013700083F0BB0BBA2861F539F2D3134A601DF232
:101380008EE5E27732192DD28CBCE7C6EFEB2DA7A4
:1013900075115F0317E077018BCF7B636DB09652B9
:1013A0004B69B43756CE9C73EBADB74CD7BF1EF923
:1013B000EF1347FF5F21E4BF565900060C1263018B
:1013C00001010101010101020202020404040808F2
:1013D0000008021001041F1F2700E0CC993367CEDC
:1013E0009C3973E6CC993367CEDC01780100FC7D33
:1013F00001801700C0DF17007801C09D3367CE9CC5
:101400003973E6CC993367CE9C390300274E6F00C1
:1014100059657300090900FEFEFEFEFEFEFE000097
:101420000000000000000000FEFFFFFFEFFFFFFFD5
:10143000FE000101010101010100FEFFFBFFFFFFB2
:10144000BFFFFE000101010101010100FEFFBFFF1E
:10145000EFFFFBFFFE000101010101010100FEFFA2
:10146000BBFFFFFFBBFFFE00010101010101010005
:10147000FEFFBBFFEFFFBBFFFE0001010101010109
:101480000100FEFFABFFFFFFABFFFE00010101010A
:1014900001010100456E6F7567687E736B696C6C46
:1014A0003F00011F2020010140001000040021081E
:1014B0000803088040200308204080938F0031807B
:1014C000A0061088010462008118402011108801D4
:1014D000046200811840200658940BE5422983726B
:1014E000A15C2817CA857AA05C2803596F757E75A0
:1014F0007365647E617E6865616C696E677E73701A
:10150000656C6C2E0A2020207E596F757E6861768E
:10151000657E6761696E65647E380A202020207EC2
:1015200065787472617E48507E706F696E74732E38
:10153000007E596F757E757365647E617E706F691C
:10154000736F6E7E7370656C6C2E0A20207E44650E
:10155000616C7E327E65787472617E64616D6167F4
:10156000650A202020202020207065727E7475720C
:101570006E2E0020596F757E757365647E617E6680
:101580006972657E7370656C6C2E0A2020207E4D1A
:101590006F6E737465727E6C6F7365737E31300A23
:1015A00020202020202048507E706F696E74732E9A
:1015B0000020596F757E757365647E616E7E696308
:1015C000657E7370656C6C2E0A20207E4D6F6E7385
:1015D0007465727E69737E66726F7A656E0A20200A
:1015E000202020666F727E6F6E657E7475726E2E1F
:1015F000004761696E203220476F6C642050696536
:101600006365732100557067726164657E796F75DB
:10161000727E576561706F6E210020204761696E90
:101620007E616E7E41726D6F757221004761696ED9
:101630007E617E4865616C696E677E57616E64216C
:10164000004761696E7E617E506F69736F6E7E5771
:10165000616E642100204761696E7E616E7E496320
:10166000657E57616E642100204761696E7E617EF0
:10167000466972657E57616E6421004F67730A5236
:10168000656D61696E730053657270656E740A44AE
:10169000656D6F6E00556E646561640A4C6F7264AF
:1016A00000536B656C65746F6E0A4C6F7264005505
:1016B0006E646561640A4769616E74004F67730AFE
:1016C00053616E6374756D0A47756172640053658A
:1016D0007270656E740A4B6E6967687400556E644B
:1016E0006561640A4B6E6967687400536B656C656D
:1016F000746F6E00556E646561640A536F6C646943
:10170000657200456E656D79204B696C6C6564008F
:10171000596F757E6B696C6C65647E7468657E421A
:101720006F73732E0A000909AAFF0101000101016C
:101730000001010100010101AAFF000101010001F6
:101740000101000101010001010100010408003E46
:101750001C08090900FEFEFEFEFEFEFE0000000061
:10176000000000000000FEFFFFFFEFFFFFFFFE0094
:101770000101010101010100FEFFFBFFFFFFBFFFAF
:10178000FE000101010101010100FEFFBFFFEFFFAB
:10179000FBFFFE000101010101010100FEFFBBFF93
:1017A000FFFFBBFFFE000101010101010100FEFF7F
:1017B000BBFFEFFFBBFFFE000101010101010100C2
:1017C000FEFFABFFFFFFABFFFE00010101010101C6
:1017D000010011AFEFC6A2002C24C0420060D1F17D
:1017E0001038F281D0000220002000080002200101
:1017F0000CBD73E633B00608002A08480202C00296
:101800005977E004C047F63406828242301E0E2F1C
:1018100080C9003E31752A02484568141DF3111035
:101820000EC0398F7A436EC80DBCF93D9B5F9D2673
:1018300090400A162C3880010C60319930270C98A2
:1018400050800115280CC042810496E975EFAF76EF
:101850001343081312428092EADE7B9FE6DEEB958B
:10186000494C1C7C85E1606A606A604BC3616E52C2
:101870001C1893EDD71D2C3010A1C06232274C1CD0
:10188000300407A4E060FB3D8DDF9D9775EA2D577E
:101890003FE3AFDD1E6EFC9EEF789AF394E71117DD
:1018A0003F2E71B07018A1C8FA1C8BC56401250DBC
:1018B0009BB288210E408E0EA084503693108A4C25
:1018C0008AC0A0080C8AC0A0080C000B2F9F182EFD
:1018D000CE4C57C6C8CB5F71FC31FBA73CF901CF9A
:1018E00033DAB6CD70F139078F8F48E629E7CFE5B7
:1018F000141127BFC181D66D02B270180144249F14
:1019000063B1388204B02180C35D880384A30328B7
:101910002194CD24842213108101884C8AC0058132
:10192000023F960514002112E0F7B3590B2F9F1ABE
:10193000B2100826EE7C691F00046E7B3FDE1B049C
:1019400000E1BCF71BAD0E04400090D3DE4F0580D4
:101950005A18C2005A52F21D163019C062F1591BB2
:101960002F3FA75A7F5F8E2E977726C3C562B15847
:101970002C7FE9BE142C58D09DE966B3D99C59FC44
:10198000C07D000060C200C617F7CFDD0740000031
:10199000E664C2A7F64FDE970AA82A3098F8818637
:1019A0001F9C784F20050340D3400089E71CC76186
:1019B000CF539E8D394FF9DC97BEF27EE43B0FBBCF
:1019C0002EEBB22E01910F2E9E74B07A6B81C5E77B
:1019D00081B72D323C76B07A7420051F0353636FB4
:1019E00072653A2020207E486967687E53636F7273
:1019F000653A00536B696C6C7E4C6576656C0A4188
:101A00007265617E526561636865640A426F7373D3
:101A100065737E536C61796564004F080000003C7B
:101A20007EC391F377321080C0F82F2FFEF8E0804C
:101A30000081FFFF1FFC781CFFFF0081FFFF9191D9
:101A4000B98340000000003C7EE181877E3C0001BC
:101A5000071FFFF8380F03010081FFFF9191B98341
:101A60004081FFFF117FFFEE80000059A7FFE0815A
:101A700003016E1015A0206F80FF00016501504E1C
:101A8000880850BD53E0EFC211F8BA57FE3E1C91D2
:101A90005B3EC7D5BF0347E09A342004B9B9F810BC
:101AA0003F130910C24810091B280B807288880058
:101AB00082DE29F0674812ACB0C2C8A6002C0A6CBE
:101AC00012012D7807CACF0796653150083AD840E1
:101AD0005900948D2436DC80F23B388E53EE1C8105
:101AE0006B2E203CE50773EB715C8227AFC0912B16
:101AF000E6C2137E3D70815C7302EE1C813B97C889
:101B0000955F039987D94DDB8D39A8277E0127F58D
:101B100010D96DD31D1907389D0E700093CDE46761
:101B200031590CA0E070381C4F1FA60419C0400AA0
:101B300086634A082184E646C8281226A19D4400EF
:101B40000108001542919051246CA000048000D03F
:101B50004EC298219C98CC6E26413A0E0C98930266
:101B600005200004807612C60CE14400C6A4292199
:101B700084109A1B21A3489884765216000120C82D
:101B800043160B10408020B0D96C5E335D9C992EBB
:101B90006032F9D52C26933F1BD3CFB0588000027A
:101BA0000481CD66F31D360B28000516C3C5F70862
:101BB0006D08B794104208CD8DD950A4A8744C9EDE
:101BC00012324268464AD010427363763351C9924A
:101BD000A2C155242C83D049534208053A269F6060
:101BE000B38005142830FC3E6B8570C655244C42EA
:101BF0003BB9A50004800A9F4A099BC9444273145B
:101C0000400000004001A01C5C6E2400048020DF26
:101C1000C155A44811C53BAE495342082134C7946D
:101C2000104208CD31258450206BF2121B1F3F8BD0
:101C3000C562020318C060B3F94BEC731331840121
:101C40004409A627F7FA112C168BC9024A58C0A2DC
:101C50000409252C4A589420A1844510085260B1EB
:101C6000D96CFED21B9FDF646472451C9B27AD02BA
:101C7000A584F49772CF4610162C586084821116F2
:101C80002C5820C8CE9DDF014C0000000046669213
:101C900020D481640519162449660600000000134B
:101CA000F87D7CCDAFF17D1B5FEF79C1CAE21808EA
:101CB0000081BC01160BB875008B1B3F8E23A7B5A6
:101CC000194802008041008475E5017F81FD0E0006
:101CD00004000400E69F8BC562028BCDEF021B9FC0
:101CE0009F62667044C6903B87D4D18C0E85E92FE5
:101CF000E8040240A58202425400105480408C1334
:101D00001800006C0137606001411622B20865F1CD
:101D10006C954013002A062888A110D9102155B0CF
:101D2000414D6A0000500000000D00008104118444
:101D3000F1433C2237E4D61B72EB0D3CFA391B9F72
:101D40003F9C1B72E6D75092580E1A045021D30ABA
:101D5000384B03C445E93ACC4119842377AEFCB231
:101D600006D04A2E344218288380250B76B1D00F36
:101D7000F5D65B6FBDF5861C3D0AB7DE7A046EBDF5
:101D8000F50A1B9F5FE6907054168072ECA02274D7
:101D9000D11FE56C7CE369CE001D0B48175D614CDB
:101DA0001827E4211FE559D7918DC090C2000D4C32
:101DB00089C003E0B2584039E66772CDAD47BF9E97
:101DC0002377030507090C0101010101010101024B
:101DD00002020204040408084F70656E7E636865A1
:101DE00073743A0A596F757E666F756E647E676F9D
:101DF0006C647E6F6E6C7921004F70656E7E6368D7
:101E00006573743A0A476F6C647E616E647E7472A7
:101E100065617375726521004761696E7E327E4728
:101E20006F6C647E506965636573210055706772DD
:101E30006164657E796F75727E576561706F6E2122
:101E40000020204761696E7E616E7E41726D6F7504
:101E50007221004761696E7E617E4865616C696EC2
:101E6000677E57616E6421004761696E7E617E50B6
:101E70006F69736F6E7E57616E64210020476169E0
:101E80006E7E616E7E4963657E57616E64210020BF
:101E90004761696E7E617E466972657E57616E64D8
:101EA00021003B97FFC0EFF3304FB4A86C54362AA3
:101EB00027E7201B480002C439C809958DCA46652A
:101EC000A3B251D9A86C544E614C0304200176187A
:101ED00053D9A86C54362A2DA779987716B20608DC
:101EE0007480C014045800022C0001168070018117
:101EF0000E100608081710E800011680000B0AB043
:101F000000045800022C28C00210600108A3807051
:101F100001016180300A081B40800520C00210606A
:101F200001084E40180584B19005090900FEFEFE27
:101F3000FEFEFEFE00000000000000000000FEFFAC
:101F4000FFFFEFFFFFFFFE000101010101010100A2
:101F5000FEFFFBFFFFFFBFFFFE00010101010101CA
:101F60000100FEFFBFFFEFFFFBFFFE0001010101CB
:101F700001010100FEFFBBFFFFFFBBFFFE000101EF
:101F8000010101010100FEFFBBFFEFFFBBFFFE00EF
:101F90000101010101010100FEFFABFFFFFFABFFEB
:101FA000FE000101010101010100010204081020ED
:101FB00040803D3011241FBECFEFDAE0DEBFCDBF41
:101FC00012E0A0E0B1E0E0ECFCE602C005900D926A
:101FD000A63FB107D9F727E0A6EFB2E001C01D92F6
:101FE000AC3EB207E1F71FE0CAEDDFE004C0219785
:101FF000FE010E942635C93DD107C9F70E941F3155
:102000000C945E360C940000089580E090E00895F2
:1020100008950895089508950895089508950895D8
:1020200008950895089508950895FC018BE191E0C5
:1020300091838083158214828FE091E09383828361
:1020400088E0838781E082871782108616828187E5
:1020500014868587089508950F93CF93DF93FC012D
:102060006A3039F48581848396818185890F8683DE
:102070004BC084816E3719F48E5F848345C0262F50
:10208000EF0166816F5F2A3374F42033F4F42B324E
:10209000F1F01CF42132F9F02DC02D3289F12E32ED
:1020A00049F52FE319C02B3544F4213464F42A3365
:1020B00081F02F33F9F422E40FC09FE9920F9A3197
:1020C000C8F4275409C0215407C02C5F05C021E47F
:1020D00003C023E401C02EE33F81062E000C770BE2
:1020E000082E000C990B313069F40AEF4DE751E0EE
:1020F0000E94182A88858D5F9C81890F8C8304C07B
:1021000020E4EACF0BEFF2CF81E090E0DF91CF91B6
:102110000F9108950C94C1350C94C1350C94C135C0
:102120000C94C1350C94C1350C94C1350C94C13557
:102130000C94C1350C94C1350C94C1350C94C13547
:102140000C94C1359F92AF92BF92CF92DF92EF92E3
:10215000FF920F931F93CF93DF93F22E10E0000FA7
:10216000111FF801ED51FE4FC080D180F801EB52F4
:10217000FE4FA080B18010E0922E9E0CC42F440F21
:10218000DD0B812F817010FD8AE0123010F46F2D6D
:1021900001C0692D70E0012F20E0A601FE01E80FCB
:1021A000F11DCF010E94762B1F5F143051F710E014
:1021B000EF0C812F817010FD8AE0123010F46F2D2A
:1021C00001C06E2D70E0012F21E0A501FE01E80F96
:1021D000F11DCF010E94762B1F5F143051F7DF9164
:1021E000CF911F910F91FF90EF90DF90CF90BF9014
:1021F000AF909F9008951F920F920FB60F921124E7
:10220000CF92DF92EF92FF920F931F932F933F9302
:102210004F935F936F937F938F939F93AF93BF93EE
:102220008091DB039091DC03A091DD03B091DE038C
:102230000196A11DB11D8093DB039093DC03A09355
:10224000DD03B093DE03492F5A2F6B2F772767FDED
:102250007A952091000124236C017D0139E0F594E9
:10226000E794D794C7943A95D1F74C295D296E2904
:102270007F29489F402D112442238C019D015DE060
:1022800035952795179507955A95D1F7082366E058
:10229000B595A795979587956A95D1F7802B842753
:1022A0008093CF00BF91AF919F918F917F916F915C
:1022B0005F914F913F912F911F910F91FF90EF9060
:1022C000DF90CF900F900FBE0F901F90189508953C
:1022D000FC011282138280E4848381E08583089567
:1022E000CF93DF93EC01FB01818580959085892355
:1022F0009E85913001F118F09230C1F13BC086818A
:10230000978165E070E00E941235892B99F58889E4
:10231000482F082E000C550B298930E0421753072F
:102320001CF48F5F888B26C08FE7888B81E08E87B7
:1023300087E08F871FC087FF07C09289923011F016
:10234000953011F49150928B84FF07C0928991309F
:1023500011F0943011F49F5F928B83FF0BC0828940
:10236000DF01A80FB11D5F968C9103C083FF02C0EF
:102370008EE087A3DF91CF910895FC011686178622
:10238000108A118A0895FC0116861786108A08950E
:102390008F929F92AF92BF92DF92EF92FF920F9334
:1023A0001F93CF93DF93EC017B0100E021E043E139
:1023B00059E06EE070E08EE190E00E94762B8A8119
:1023C00087FD3EC02C8130E08B81281B310937FF0F
:1023D00002C02F5F3F4F35952795D22EA12CB12CEF
:1023E00020E8822E912C4A81AD1428F58501000F3A
:1023F000111F8B81B801680F711D603471052CF4B9
:1024000020E080E090E00E94002F8B81B801680FEF
:10241000711D6F5F7F4F8A816034710544F420E045
:10242000482FF401E81BF109CF010E94002FFFEFB4
:10243000AF1ABF0AD8CF47FD03C08D81480F4A832A
:102440008A8187FF03C08CE0F70187A3DF91CF91DA
:102450001F910F91FF90EF90DF90BF90AF909F90F2
:102460008F9008952F923F924F925F926F927F923A
:102470008F929F92AF92BF92CF92DF92EF92FF9294
:102480000F931F93CF93DF9300D000D0CDB7DEB76B
:102490009C838B835B01DB0151961C9181E0EB8176
:1024A000FC8181871682178210866F01F2E0CF0EC1
:1024B000D11C60EF72E0C6010E94A22DD50150969A
:1024C000EC91EF3028F4F0E0E359F74F649101C04C
:1024D00065E070E06F5F7F4FC6010E94002E62EFE3
:1024E00072E0C6010E94A22DF501608970E06F5F65
:1024F0007F4FC6010E94002ED5015096EC91EF301F
:1025000028F4F0E0E359F74FE49101C0E5E0F0E092
:10251000EE0FFF1FE95FFD4F60817181C6010E94D0
:102520007E2D00E021E04EEC58E060E070E089E6AE
:1025300090E00E94762B5EEFC52EDD24DA9400E059
:1025400021E043EC58E062E170E0C6010E94762B86
:1025500021E049EB58E062E370E0C6010E94762B6F
:10256000BAE0CB0ED11CE2E6CE16D10441F7AB8126
:10257000BC811E968C91823011F020E001C020E1D8
:1025800041E0B5018B819C810E94331EF50186815B
:1025900097816CE070E00E9412352C01C12CD12C87
:1025A000C50103969A8389839C2CAB81BC8150968C
:1025B0008C915097082E000C990B8C159D050CF4EE
:1025C0009EC0F601EE54F74F2490F601E555F74F03
:1025D0003490F601EC55F74FF4901F968C918730AC
:1025E00021F01F1102C081110AC03DE0E32E06E078
:1025F000232D422DB5018B819C810E94A210EB817D
:10260000FC8180898F37C9F4D50152968C9189114C
:1026100014C0B7E04B16510480F0112309F46FC0C9
:10262000632D70E000E020E04CE758E0822D022CA2
:10263000000C990B0E94762B03C0112309F45FC094
:10264000F116A0F01F1106C0EB81FC81878588235D
:1026500069F090C0F6E0CF16D10409F050C0AB810C
:10266000BC8151968C91863009F08AC0632C712C04
:10267000822C022C000C9908B3E08B0E911CA30154
:102680004C5F5F4FE12C05E12EE0B40189819A8116
:102690000E94BD2FE6E0CE16D10431F4AB81BC819F
:1026A00051968C91863039F0F501EC0DFD1D878D2A
:1026B00090E0019702C087E090E0880F991FFC012D
:1026C000E950FE4F40815181B3016A5F7F4F00E0C6
:1026D00021E0C4010E94762B1F1111C0EB81FC8107
:1026E0000785002361F080898F3749F401508DE020
:1026F000E82E232D422DB501CF010E94A210FFEF3D
:10270000CF1ADF0A87E0C816D10409F04DCFAB819C
:10271000BC811F968C911F97882341F050969C9105
:1027200050979F3719F481501F968C93EB81FC8151
:102730008685823041F520E04CEF5DE069E170E094
:1027400086E290E00F900F900F900F90DF91CF9165
:102750001F910F91FF90EF90DF90CF90BF90AF90BF
:102760009F908F907F906F905F904F903F902F90B1
:102770000C94A92E86E0C816D10409F0AFCF6FCF14
:102780001F11C5CFABCF0F900F900F900F90DF911F
:10279000CF911F910F91FF90EF90DF90CF90BF905E
:1027A000AF909F908F907F906F905F904F903F90F1
:1027B0002F900895EF92FF920F931F93CF93DF9383
:1027C000FC01DB0116861786108A86E0818B509605
:1027D0008C915097863051F028F4813039F0833055
:1027E00039F404C0893011F08D3011F487E001C054
:1027F00086E0818B17961C921E92169751968C91AB
:102800005197811136C08D01EF018DEF808B87E0EC
:10281000878795968C938AE0F82E66E070E080E0DA
:1028200090E00E945A2DE62E66E070E080E090E095
:102830000E945A2DD801AE0DB11D5F968C915F9705
:10284000F801E60FF11D978D5F969C93878FFA94A0
:10285000F110E3CFF80185898F3F39F48FE7888B3A
:1028600082E08E87158A118A0AC081E0F801818B87
:1028700006C08FE7808B87E0878781E08687DF91BE
:10288000CF911F910F91FF90EF900895AF92BF925B
:10289000CF92DF92EF92FF920F931F93CF93DF932C
:1028A0006C01EB01EE80FF808FE0E822FF2440E026
:1028B000C6010E942B1F00E021E040E756E060E0E7
:1028C00070E080E090E00E94762BD6011F96EC919C
:1028D000F0E0E359F94F249141E0F601868581301B
:1028E00009F040E0BE01C6010E94331EF9E0EF1678
:1028F000F10408F445C0D6011F968C91813049F04F
:10290000823059F41FE3D12C97E5C92E22E3A22E81
:1029100009C01FE334E2D32E02C012E2D12C80E3BF
:10292000C82EA12C239600E02D2D4C2D6A2DCE0112
:102930000E94E72F212F4C2D6A2DCE010E94E72FF8
:10294000F12EFD18E12C0D2D10E0B12CA8014E0D3B
:10295000511D20E0B501CE010E94432FE394E39482
:10296000FE14A0F7B12CD12CA8014B0D511D20E075
:10297000B601CE010E94432FB394B394FB14A0F789
:10298000DF91CF911F910F91FF90EF90DF90CF904B
:10299000BF90AF900895AF92BF92CF92DF92FF9217
:1029A0000F931F93CF93DF93EC018B016B0144E1F5
:1029B000C40ED11CFB01F184F0949085F9228E8520
:1029C000882321F0813009F449C061C0F5FE05C0BB
:1029D0008F85823011F488898F87F6FE06C08F8537
:1029E000823019F0888B82E08F87F4FE09C08F85D2
:1029F000811106C081E08F87F7FE07C01F8605C0E2
:102A0000F7FE03C08F858130C9F3F3FE40C08F8588
:102A1000813069F038F08230F1F461E0C6010E9443
:102A2000041D19C0F80185898F5F858B14C0F801DA
:102A3000878990E002968531910514F084E190E059
:102A4000F801878B27E130E0A901481B590BCA0127
:102A5000880F8093000181E08E8719C05B015FE0E1
:102A6000A50EB11C9989963450F49F5F998B9634CA
:102A700031F4B601C5010E94C21CF80187A3F3FE20
:102A800006C0B601C5010E94C21CF80187A3DF91F0
:102A9000CF911F910F91FF90DF90CF90BF90AF909B
:102AA0000895CF92DF92EF92FF920F93CF93DF932F
:102AB000EC016B017B0183E0E80EF11C41E0CE01EB
:102AC0000E942B1F00E020E04DE256E060E070E045
:102AD00087E290E00E94762B21E042E155E060E041
:102AE00070E087E290E00E94762BF6018681978164
:102AF00062E370E00E941235049740F421E047E061
:102B00006BE070E08AE390E00E94002F21E043E355
:102B10006CE370E083E290E00E94002F01E02EE37E
:102B200047E563E2C7010E94E72F2FE347E564E230
:102B3000C7010E94E72F8E85882329F0813031F468
:102B40004BEE53E005C04BE554E002C040E050E0DE
:102B500000E021E061E070E082E090E00E94762BEE
:102B60006F85F8E06F9FB0011124695F7F4F20E00F
:102B70004FE055E082E090E00E94A92E6F8588E04A
:102B8000689FB0011124695F7F4F20E04FE055E05E
:102B900081E290E00E94A92E88898823D1F08AE101
:102BA000E82E00E427E14FE1B601CE010E94561F56
:102BB00084E28E838F838CE18887E889F0E0EE0FD2
:102BC000FF1FE151FE4F60817181CE0102960E948C
:102BD0007E2D298941E0B601CE01DF91CF910F9181
:102BE000FF90EF90DF90CF900C94331EAF92BF9286
:102BF000CF92DF92EF92FF920F931F93CF93DF93C9
:102C00001F92CDB7DEB78C015B016B0144E1C40EAE
:102C1000D11CFB01F184F0948085F82211F0F801B9
:102C2000108AF8018685882321F0813009F4DCC000
:102C300026C1F7FE06C0F8018785882311F0815070
:102C40008787F4FE06C0F8018785863010F48F5F11
:102C50008787F3FE14C1F8012785223009F450C09C
:102C600028F4222351F0213041F1B7C0263008F476
:102C700072C0263009F492C0B0C0F5018689811176
:102C800002C081E005C0F50185898A3021F483E026
:102C9000F801808BA2C0F80181898061818BF501E8
:102CA0008589082E000C990B01968B30910514F044
:102CB0008AE090E0F501858B1FC0F50186898823A5
:102CC00001F38789843119F3F80181898260818B4E
:102CD000F501878990E001968531910514F084E132
:102CE00090E0F501878B27E130E0A901481B590BE3
:102CF000CA01880F80930001868990E0019724C063
:102D0000F5018689833008F4BCCF8789843109F4C2
:102D1000BECFF80181898260818BF501878990E0BF
:102D200004968531910514F084E190E0F501878BDC
:102D300027E130E0A901481B590BCA01880F809395
:102D40000001868990E0039797FF02C080E090E041
:102D5000F501868B42C0F501E688F7E0FE1508F024
:102D600090CFC60129830E948B262981823008F0EA
:102D70008ECFE22FF0E03397EA0DFB1D838D8F5F3E
:102D8000838F8E2D90E0089797FF02C080E090E03F
:102D9000F501868BF801818988601EC0F50186895E
:102DA000863008F46ECF2489253008F070CF30E0EB
:102DB0002F5F3F4F2630310514F025E030E0F5015C
:102DC000248B90E0069797FF02C080E090E0F50129
:102DD000868BF80181898460818BF8018189982F25
:102DE000977109F44CC02BC0F7FE06C0F801878527
:102DF000882311F081508787F4FE06C0F80187858B
:102E0000843010F48F5F8787F3FE39C0F80187851F
:102E1000F5018330B0F4E80FF11D838D8823A1F014
:102E20008150838FF501868990E004968B3091055F
:102E300014F08AE090E0F501868BF80181898860C2
:102E40001DC02489211104C082E0F801808B17C0C5
:102E500030E02150310937FF02C020E030E0F501B9
:102E6000248B868990E003968B30910514F08AE0DC
:102E700090E0F501868BF80181898C60818B8F2D24
:102E8000807641F081E0F8019685911180E0F801AB
:102E900086871786F2FE07C0B601C5010F960E940D
:102EA000C21CF50187A30F90DF91CF911F910F9165
:102EB000FF90EF90DF90CF90BF90AF9008950F9369
:102EC0001F93CF93DF931F92CDB7DEB78CE890E0CE
:102ED00069830E948734182F8DE890E00E94873420
:102EE0006981611104C01D3411F48235A9F06DE4CB
:102EF0008CE890E00E948F3462E58DE890E00E94BB
:102F00008F340EE810E060E0C8010E948F340F5F3C
:102F10001F4F02391105B9F70F90DF91CF911F9123
:102F20000F9108950F931F93CF93C62F8C010E5FBF
:102F30001F4F643660F469EE73E0C8010E947E2D75
:102F4000CA3028F467EE73E0C8010E947E2D4C2F32
:102F500050E060E070E02AE0C801CF911F910F912E
:102F60000C94B72D1F93CF93DF93162FEC0122966D
:102F70006A3028F465EE73E0CE010E947E2D412F69
:102F800050E060E070E02AE0CE010E94B72D63EED1
:102F900073E0CE01DF91CF911F910C947E2DFC0147
:102FA00016861786108A118A0895FC0116861786E0
:102FB000108A0895FC0116860895CF92DF92EF9251
:102FC0000F93CF93DF93EC016B0100E021E047E624
:102FD00050E168E070E08EE090E00E94762B8E85F4
:102FE000813069F40F85002351F0015025E0E22E75
:102FF0002DE042E2B601CE010E94A21018C085E089
:10300000E82E00E02DE042E2B601CE010E94A210BF
:10301000E889F0E0EE0FFF1FEC5CFD4F408151812D
:1030200021E06FE070E083E290E00E94762BDF9178
:10303000CF910F91EF90DF90CF900895CF92DF92D4
:10304000EF92FF920F93CF93DF93EC017B01FB0193
:10305000C680D78041E00E942B1F00E021E04AE6B5
:103060005FE060E070E080E090E00E94762B8E856B
:10307000813079F118F0823021F12FC08F858131B4
:1030800018F500E021E042EA5EE160E170E08EE0E8
:1030900090E00E94762B0AEF28894AE25FE161E026
:1030A00070E080E390E00E94182A83E08E838F8393
:1030B00082E088876EE57FE0CE0102960E947E2D39
:1030C0000CC08989811105C0B701CE010E940D3065
:1030D00004C0B701CE010E94DD178889863049F00F
:1030E000853049F0843049F48989882331F02AE019
:1030F00005C029E003C02CE001C028E08E858230A5
:1031000021F441E08F85863408F040E0B701CE011C
:103110000E94331E8E85823029F58989882311F11A
:103120008F858634F8F4FFE0CF22DD2489E0C816CD
:10313000D104C0F088E08E838F831886E889E1503F
:10314000F0E0EE0FFF1FEA52FD4F60817181CE016A
:103150000296DF91CF910F91FF90EF90DF90CF908B
:103160000C947E2DDF91CF910F91FF90EF90DF9027
:10317000CF900895CF92DF92FF920F931F93CF933A
:10318000DF93EC018B016B0184E1C80ED11CFB01C4
:10319000F184F0948085F8229E85913009F459C01D
:1031A00020F0923009F4B8C0C9C0EF85E13120F5B4
:1031B000F0E0E35BF04F649170E0F8018681978165
:1031C0000E941235892B09F0B9C066E070E080E0FA
:1031D00090E00E945A2DDC01CB010196A11DB11D8A
:1031E000888BF3FE02C081E145C08F858F5F8F879A
:1031F000F80117821682A2C08889853098F0F3FE04
:103200009DC087E08F8781E08E8766E070E080E078
:1032100090E00E945A2DDC01CB010196A11DB11D49
:10322000888B8CC0FB018389811102C081E001C0C1
:1032300082E0F801268990E0820F911D8B30910584
:1032400014F08AE090E0F801868B1F8682E08E877A
:1032500075C08F85882381F066E070E080E090E0A3
:103260000E945A2DDC01CB010196A11DB11D888B56
:103270008F8581508F8762C0998BC6010E948B26F3
:10328000823020F08889853008F455C0E889E5301F
:1032900081F050F4E13048F1F0E03197E00FF11F98
:1032A000838D8F5F838F21C0E63079F0E73091F016
:1032B0001CC0F801848990E001968630910514F0D5
:1032C00085E090E0F801848B10C062E0C6010E94A6
:1032D000041D0BC0F801868990E002968B309105A1
:1032E00014F08AE090E0F801868B1F8682E08E87DA
:1032F000F8018389811102C081E001C082E0F801F8
:10330000268990E0820F911D8B30910514F08AE0A0
:1033100090E0F801868B12C09F85963410F49F5F71
:103320009F87F3FE0BC0B601C8010F960E94C21C16
:10333000F80187A303C087E0888BA8CFDF91CF91E6
:103340001F910F91FF90DF90CF9008950F931F93DF
:10335000CF93DF938C01EB016C5E7F4FAE01415F39
:103360005F4F9985909528859223D8011E962C91C0
:10337000223009F459C028F4222341F1213041F0D0
:10338000E3C0233009F4CCC0243009F4D9C0DCC038
:10339000892F887093FF03C096E4F8019787D801BE
:1033A0001F969C911F97963420F49F5F1F969C93C5
:1033B000CBC0882309F4C8C0F8019089888D89178B
:1033C00008F0BAC0D801178682E02BC0D8011F963A
:1033D000EC91E131F8F4F0E0E551F24F649170E0E6
:1033E0008E819F810E941235892B09F0ADC066E065
:1033F00070E080E090E00E945A2DDC01CB01019644
:10340000A11DB11DF801808B87858F5F87871F8283
:103410001E829AC0D8011F961C921F971F821E827F
:1034200081E01E968C9390C0F80187858C3088F4DB
:1034300066E070E080E090E00E945A2DDC01CB0154
:103440000196A11DB11DF801808B87858F5F87874D
:103450007BC080898330C9F028F4813049F0823004
:1034600059F04FC0853061F1C8F0863079F149C01C
:103470008D8981508D8B45C08E8990E0019797FF93
:1034800002C080E090E08E8B3CC08C8990E0019778
:1034900097FF02C080E090E08C8B33C08F8990E072
:1034A000019797FF02C080E090E08F8B27E130E02A
:1034B000F901E81BF90BCF01880F8093000121C0AF
:1034C000898D8230F0F08150898F1BC08F8990E008
:1034D000029797FF02C080E090E08F8B27E130E0F9
:1034E000281B390B220F20930001892B51F088896A
:1034F0008A3030F4E82FF0E0EF51F24FE4918E0F74
:10350000888B8F89882341F01F821E82D8011F96E5
:103510001C921F9783E085CF84E0F801868714C052
:10352000D8011F962C911F97263420F42F5F1F96E9
:103530002C930AC093FF08C0CA010E94C21C03C09A
:1035400093FF02C08EE08FA3DF91CF911F910F9167
:1035500008958F929F92AF92BF92CF92DF92EF9297
:10356000FF920F931F93CF93DF93EC016B01FB014D
:10357000A680B78041E00E942B1F00E021E04BE3D2
:103580005FE068E270E080E090E00E94762B21E04E
:1035900047E25FE068E270E08FE490E00E94762B03
:1035A00069E0E62EF12C00E021E04EE05FE068E209
:1035B00070E0C7010E94762BFEE0EF0EF11C8FE455
:1035C000E816F10481F78E85823009F490C0A8F1E5
:1035D000833009F4C2C0843009F0E5C08E838F8344
:1035E0001886E889F0E0EE0FFF1FE15FFD4F608174
:1035F0007181CE0102960E947E2D00E028E04CE110
:10360000B601CE010E942820E889F0E0EE0FFF1FEE
:10361000E55EFD4F4081518121E06AE070E08EE17E
:1036200090E00E94762B20E04CEF5DE063E270E0DA
:1036300086E290E00E94A92EB6C013E01E831F838D
:1036400018874E01E2E08E0E911C62E07FE0C4011B
:103650000E947E2D82E48E838F831887288942E81A
:103660005EE062E070E083E390E00E94A92E8E8528
:10367000813009F098C0C5018F70992791E0893099
:1036800008F490E08F85863410F4911119863889FA
:10369000F601208D231798F0863470F4992361F099
:1036A000EE24E39407E02FE043E050E060E470E0B4
:1036B000C60103960E94BD2F6EE77EE012C08634DD
:1036C00070F4992361F0EE24E39407E02BE043E0EB
:1036D00050E060E470E0C60103960E94BD2F6BE7E6
:1036E0007EE0C4010E947E2D81E089875CC00F8549
:1036F00028E04CE1B601CE010E9428208F858D3054
:10370000D8F410E0312F330F8F8590E0FC01E75D96
:10371000FD4F2081121708F046C04096880F991F70
:1037200000E021E04CE65EE068E070E0830F911D70
:103730000E94762B1F5FE6CFE889F0E0EE0FFF1FB7
:10374000E55EFD4F4081518100E021E06AE070E0DC
:103750008EE190E00E94762B26C000E028E04CE14C
:10376000B601CE010E942820E889F0E0EE0FFF1F8D
:10377000E55EFD4F4081518121E06AE070E08EE11D
:1037800090E00E94762B84E08E838F831886E889F0
:10379000F0E0EE0FFF1FE15FFD4F60817181CE0110
:1037A00002960E947E2DE889E63028F4F0E0EA597E
:1037B000F14F249101C020E08E85833021F441E057
:1037C0008F85863408F040E0B601CE01DF91CF91BD
:1037D0001F910F91FF90EF90DF90CF90BF90AF902F
:1037E0009F908F900C94331E0F93CF93DF93EB0138
:1037F00041E00E94B41F00E021E046E45DE060E1AA
:1038000070E08DE190E00E94762B21E04BE05DE0DE
:1038100068E370E083E190E00E94762B8E819F81C7
:1038200066E470E00E941235079720F421E048EF2B
:103830005CE004C000E021E046EE5CE064E070E0A3
:1038400083E390E00E94762B8F8590E0FC01EE519F
:10385000F34F4491FC01E252F34F849121E06FE376
:1038600070E090E0DF91CF910F910C94002FFC015C
:10387000DB0118968C91189719969C911997909541
:10388000982384FF08C02685203118F42F5F2687EF
:1038900003C00E94AF2E168695FF09C01F968C911B
:1038A0001F97882321F081501F968C931F9796FFB6
:1038B00009C01F968C911F97833020F48F5F1F964D
:1038C0008C931F9793FF52C01F968C911F97880F60
:1038D000880F59961C925997E82FF0E0E253F34F66
:1038E000E4915496EC935497E1E0E80FF0E0E25352
:1038F000F34FE4915796EC935797E2E0E80FF0E02E
:10390000E253F34FE4915696EC9356978D5FE82F70
:10391000F0E0E253F34FE4915596EC93559781E034
:1039200058968C93589750961C92509751961C928B
:10393000519753961C92539752961C9252975B96AE
:103940001C925B975C961C925C975D961C925D97AF
:103950005E961C925E975A961C925A978AE09796AA
:103960008C93979717961C921E9216970895FC01B8
:1039700081E086878787108A128A138A148A118ABF
:10398000158A0895FC01DB0182818F5F8283833079
:1039900081F030F4813059F0823069F481E009C05F
:1039A000843039F0853039F486E083830DC013828A
:1039B00029C0838327C0863029F481818D3089F422
:1039C0008DE008958530F1F481818630D9F028F4B6
:1039D0008130C1F0833029F415C0893099F08D30E1
:1039E00089F011968C911197815011968C931197B3
:1039F000128211968C9187FD05C081818F5F818332
:103A0000138214828AE00895DC0114968C91149735
:103A1000E82FF0E0E654FC4EE49115969C91159742
:103A2000690FE61718F015966C9308956F5F6E1B7B
:103A300015966C9315978F5F14968C930895CF927B
:103A4000DF92EF92FF921F93CF93DF93EC01FB0184
:103A500011851095808518238E858230C9F17B01F0
:103A6000833030F4882309F44BC0813041F0F3C037
:103A7000833009F469C0843009F47AC0ECC0E88965
:103A8000E13100F5F0E0E154FC4E649170E0F701A3
:103A9000868197810E941235892B09F0DCC066E08F
:103AA00070E080E090E00E945A2DDC01CB0101968D
:103AB000A11DB11D898B88898F5F888BF7011782C3
:103AC0001682C9C0188AFB011782168282E04EC096
:103AD000912F987013FF02C086E4888B8889863402
:103AE00008F4A5C0992309F4B6C0188A1E869989DE
:103AF000808D891710F083E001C084E08F87ABC010
:103B000088898C30D8F466E070E080E090E00E9414
:103B10005A2DDC01CB010196A11DB11D8B8B2FEF1E
:103B2000280F09F426E02A8B61E0680F673010F453
:103B30006C8B02C081E08C8B888979C081E08D8B91
:103B40008F858E87188A87C015FF05C08D898823C9
:103B500011F081508D8B16FF05C08D89823010F4D5
:103B60008F5F8D8B13FF77C0188A84E08E8773C0B8
:103B70006B01F4E1CF0ED11C8889811150C08D8971
:103B8000FE01E80FF11D8289833059F128F481305C
:103B900041F0823091F043C0843089F18530A1F149
:103BA0003EC0FB01868990E002968B30910514F0AF
:103BB0008AE090E0F701868B32C0FB01278930E074
:103BC0002E5F3F4F2531310514F024E130E0F7013D
:103BD000278B87E190E0821B930B880F8093000175
:103BE0001EC0FB018589082E000C990B01968B30B5
:103BF000910514F08AE090E0F701858B10C062E037
:103C0000C6010E94041D0BC0FB01848990E001964F
:103C10008630910514F085E090E0F701848B13FF66
:103C200003C086E4888B18E08889863418F48F5F97
:103C3000888B11C013FF0FC08D89C80FD11D8A89D1
:103C4000863030F4B601C7010F960E94C21C01C035
:103C500088E0F70187A3DF91CF911F91FF90EF904C
:103C6000DF90CF9008952F923F924F925F926F9284
:103C70007F928F929F92AF92BF92CF92DF92EF92FC
:103C8000FF920F931F93CF93DF9300D000D0CDB757
:103C9000DEB76C017C836B83FB01868197818F701B
:103CA0009927099710F4512C01C0542EA12CB12C46
:103CB00030E06B807C80F3E06F0E711C22FB2224CD
:103CC00020F823FB442440F824FB332430F8822FCF
:103CD0008170898321FBFF24F0F84601E2E08E0E1B
:103CE000911C3330C1F028F4313059F0323071F08A
:103CF00004C03430A9F03530C1F0EB81FC81108D67
:103D00002EC0EB81FC81118D898113C0EB81FC8178
:103D100017898F2D0EC0EB81FC811489822D09C07B
:103D2000EB81FC811689842D04C0EB81FC8115890F
:103D3000832D8823A1F0552091F0F60111861A30C9
:103D400010F02AE001C025E0EE24E39407E0A5018D
:103D500067E770E0C3013A830E94BD2F3A8188E78C
:103D6000F60186838783A086412F50E060E070E0F3
:103D70002AE0C4013A830E94B72D81E0F6018187D1
:103D80003A813F5FF9E0AF0EB11C26E3A216B10401
:103D900009F0A7CFAB80BC808BE1A80EB11C86E6F2
:103DA000C82E82E0D82E10E04501F50180818823DD
:103DB00079F0F60140815181FBE01F9FC001112481
:103DC00020E068E370E085599F4F0E94A92E1F5F95
:103DD0002FEFA21AB20AF4018081823078F0F60146
:103DE00040815181FBE01F9FC001112420E068E366
:103DF00070E085599F4F0E94A92E1F5F22E0C20EDE
:103E0000D11C8EE6C81682E0D80671F6CB80DC8025
:103E1000E3E0CE0ED11C6AE670E0C6010E94912F4D
:103E200065E770E0C6010F900F900F900F90DF9143
:103E3000CF911F910F91FF90EF90DF90CF90BF90A7
:103E4000AF909F908F907F906F905F904F903F903A
:103E50002F900C94912F0F93CF93DF93442351F025
:103E600000E021E04CEA53E160E070E080E090E0A7
:103E70000E94762BC0E0D0E000E021E048E953E169
:103E8000BE0189E590E00E94762B2A96C634D105C2
:103E900099F721E043E553E160E070E089E690E0C6
:103EA0000E94762BDF91CF910F9108959F92AF9250
:103EB000BF92CF92DF92EF92FF920F931F93CF9317
:103EC000DF93902E1E2DC22ED12CC42FD0E05B018B
:103ED00083E0A80EB11CE12C012F292DA601BE0103
:103EE000C5010E94BD2F0AEF090DB6016E5F7F4F1D
:103EF0007E0183E0E80EF11C603471052CF421E0B2
:103F0000402FC7010E94002FB601610F711D635041
:103F100071096034710528F421E0402FC7010E9427
:103F2000002F165083E0C80ED11CBE016E5F7F4F7C
:103F300001E0212FA601C5010E94612FC90DD11DED
:103F4000BE0163507109212FA601C5010E94612F96
:103F5000DF91CF911F910F91FF90EF90DF90CF9065
:103F6000BF90AF909F900895EF92FF920F931F9391
:103F7000CF93DF93EC017B01142F00E021E048EBAD
:103F800052E160E070E080E090E00E94762B01E07A
:103F900021E048EB52E160E070E080E490E00E94B4
:103FA000762BEC85F0E0EE0FFF1FE25AFD4F4081CB
:103FB000518100E021E064E170E085E090E00E9442
:103FC000762BED85F0E0EE0FFF1FE25AFD4F4081AA
:103FD000518101E021E064E170E08BE690E00E9415
:103FE000762BF7018681978163E070E00E9412359D
:103FF000892B69F48C8590E00196837099278C87D2
:104000002D8530E02F5F3F4F237033272D871123FD
:10401000C1F021E04EE561E370E081E190E00E94B3
:10402000002F21E04EE563E370E081E190E00E9423
:10403000002F01E025E34EE661E1C70103960E94EF
:10404000E72FDF91CF911F910F91FF90EF9008958F
:10405000CF92DF92EF92FF920F931F93CF93DF9354
:10406000D22FE02FF0E0EE0FFF1FEC5BFD4FC08082
:10407000D180C0E010E1120FE42E440FFF088C2F16
:104080008170C0FD80E1C23010F46D2F01C0612F3E
:1040900070E00C2F21E0A601F701E80FF11DCF0120
:1040A0000E94762BCF5FC43051F7DF91CF911F91E3
:1040B0000F91FF90EF90DF90CF9008958F929F9295
:1040C000BF92CF92DF92EF92FF920F931F93CF9305
:1040D000DF93EC016B01FB01868197818F7099273B
:1040E000BB24B394893008F4B12C34EFE32EFF24C1
:1040F000FA9400E021E04BEB54E160E370E0C7018B
:104100000E94762BF4E1EF0EF11C28E5E216F10493
:1041100081F741E0B601CE010E942B1F0BEF20E09A
:1041200046EB54E168E370E080E090E00E94182ADA
:1041300020E041EB54E168E370E085E590E00E9407
:10414000182A1E85133018F41130A8F09BC01330C4
:1041500009F4DFC0143009F025C18D89FE01E80F94
:10416000F11D028928E04CE1B601CE010E94A6298A
:104170001E831F8306C18F85F60133964F0183305E
:1041800001F5E12C00E220E24FE050E062E070E057
:10419000CF010E94BD2F20E24FE050E066E370E0C7
:1041A000C4010E94BD2F08892FE042E0B601CE0174
:1041B0000E94282008892FE046E3B601CE010E9424
:1041C0002820E12C00E22EE148E050E06DE170E0B3
:1041D000C4010E94BD2F088928E04CE1B601CE0140
:1041E0000E94282088898D30E0F510E0E12EEE0C49
:1041F000888990E0FC01E757FD4F2081121708F0F5
:10420000D1C02F85F12C2330D9F40396880F991F44
:1042100000E021E042EA54E16FE070E08E0D9F1D66
:104220000E94762B2889C701820F911D820F911D54
:1042300021E042EA54E16FE070E0CA960E94762BDA
:104240002889C701820F911D820F911D00E021E096
:1042500042EA54E168E070E080960E94762B1F5F8E
:10426000C5CFEB89F0E0EE0FFF1FE853FD4F408113
:10427000518100E021E06AE070E08EE190E00E9470
:10428000762B90C013E01E831F8318874E01F2E047
:104290008F0E911C64E974E1C4010E947E2D87E4B5
:1042A0008E838F831887298944E154E162E070E0AE
:1042B00088E390E00E94A92E8E85823009F072C0BA
:1042C00088898634B0F4BB20A1F019869989F6015B
:1042D000808D891710F42BE001C02FE0EE24E394C9
:1042E00007E043E050E065E470E0C60103960E94F9
:1042F000BD2F9989F601808D891718F060E174E16E
:1043000002C06DE074E1C4010E947E2D81E08987C6
:1043100049C0E12CF12C8D89F701E058FD4F23E0D5
:10432000829FE00DF11D11248080E82DF0E0DF0177
:10433000A358BD4F1C91DF01A658BD4F9C90EC0FB8
:10434000FD1F0289212F492DB601CE010E94A62909
:10435000BB2069F08D8988110AC0612F70E000E0F0
:1043600020E046ED53E1892D90E00E94762B3FEF4F
:10437000E31AF30A83E0E816F10469F684E08E8319
:104380008F8318868D89FE01E80FF11DE289F0E028
:10439000EE0FFF1FE459FD4F60817181CE0102963F
:1043A0000E947E2D8D89FE01E80FF11DE289E63025
:1043B00028F4F0E0E053FC4E249101C020E08E850B
:1043C000843021F441E08889863408F040E0B60169
:1043D000CE01DF91CF911F910F91FF90EF90DF9071
:1043E000CF90BF909F908F900C94331EAF92BF924E
:1043F000CF92DF92EF92FF920F93CF93DF935A0108
:104400006901FC0180A18150C1E0823008F0C0E068
:10441000D0E0C114D104A1F000E020E0A6017E01AB
:10442000F8E1EF0EF11CB7018CE390E00E94762BCF
:1044300001E020E0A601B70183E490E00E94762B22
:1044400000E021E0A501BE0182E390E00E94762B0E
:1044500001E021E0A501BE0183E490E00E94762BFB
:10446000DF91CF910F91FF90EF90DF90CF90BF90B1
:10447000AF900895CF92DF92EF92FF920F931F9328
:10448000CF93DF93EC017B0141E08E85813009F40D
:1044900040E0B701CE010E94B41F8E85882309F445
:1044A0009CC0813009F0BAC000E021E04BE65AE13F
:1044B00061E170E083E190E00E94762B20E04AE128
:1044C0005AE164E070E088E190E00E94A92E87E064
:1044D0008B8789E18E838F8310E118876E01F2E06C
:1044E000CF0ED11C63EF79E1C6010E947E2D8FE5CE
:1044F0008E838F831887F7016785660FCE010E9430
:10450000B217F701608970E06F5F7F4F862F880FC9
:10451000680FCE010E94B217F701628D660FCE01BF
:104520000E94B21785E28E838F8317E21887F70106
:10453000608D660FCE010E94B217F7016789660F82
:10454000CE010E94B21786E48E838F831887F7010D
:104550006689660FCE010E94B217F7016589CE0108
:104560000E94B21786E68E838F831887F7016489CD
:10457000CE010E94B217C70144960E948B26682F75
:10458000CE010E94B21783E18E838F8319E31887CF
:104590006DED79E1C6010E947E2D8AE28E838F83C4
:1045A00018876F85CE010E94921782E68E838F83D3
:1045B00018876889CE010E94921721E04AE567E3D7
:1045C00070E083E190E0DF91CF911F910F91FF9018
:1045D000EF90DF90CF900C94002F00E021E048E2B4
:1045E0005BE16FE070E088E190E00E94762BF701DC
:1045F0008681978166E470E00E941235079720F467
:1046000021E045E15BE104C000E021E043E05BE143
:1046100064E070E083E390E00E94762BDF91CF911D
:104620001F910F91FF90EF90DF90CF900895CF935F
:10463000DF93FC01DB0118969C91189719968C91D9
:1046400019978095892383FF0BC08685882331F0D5
:10465000813031F48CE097968C9302C081E086879C
:10466000818997FF10C094FF0EC08F5F8D3311F0CA
:10467000818B0BC0EF01118A61E0CF010E945F17AF
:10468000188A1F8602C08111118ADF91CF91089587
:10469000DF92EF92FF920F931F93CF93DF93EC0182
:1046A0008B017B0184E1E80EF11C60E0CE010E94E9
:1046B0005F171E861F86188AF80182818D3011F0DF
:1046C00081E08E87F8019785292F220F322F390F2D
:1046D0003F87908D990F292F230F2F87408950E016
:1046E0004F5F5F4F942F990F940F920F9F87D7883A
:1046F000DD0C9D0D9F87D588D90EDF868489D80E65
:10470000DF868689880FD80EDF86828D880FD80EC7
:10471000DF86C7010E948B26E82EF12CED0CF11CE0
:10472000EF86F801878590E082579F4F0E9487347B
:104730008E1548F0888BDF91CF911F910F91FF90DC
:10474000EF90DF900895E88AF801878590E06E2D5C
:1047500082579F4FDF91CF911F910F91FF90EF9064
:10476000DF900C948F348F929F92AF92BF92CF9232
:10477000DF92EF92FF920F931F93CF93DF93EC01A1
:104780006B01DB0116968D919C91179764E170E0A7
:104790000E94123511E08B3008F410E088A19EEFE2
:1047A000980FAA24A394923008F0A12C9F8D9F5FAC
:1047B000943010F49F8F07C01F8E8F5F853010F4E8
:1047C00088A301C018A241E0B601CE010E942B1FB0
:1047D00000E021E045EC59E160E070E080E090E02D
:1047E0000E94762B01E020E04BEA59E16BE170E09A
:1047F00085E590E00E94762B00E021E04FE559E14D
:1048000063E170E088E290E00E94762B01E021E015
:104810004FE559E163E170E083E490E00E94762B7C
:10482000B12C7501BFEFEB1AFB0A21E04CE259E114
:10483000B7018FE190E00E94762BF60182818730EC
:10484000C1F427EE38E141EF58E1B601CE010E94F4
:10485000F62100E020E04BEC58E1B7018CE590E058
:104860000E94762B21E04CE259E1B7018CE590E003
:1048700024C020E030E04EE958E1B601CE010E94AC
:10488000F621F2E1AF0EB11C00E020E048E858E16B
:10489000B50187E490E00E94762B01E020E048E833
:1048A00058E1B50184E590E00E94762B00E021E01C
:1048B0004CE258E1B50187E490E00E94762B8E85AA
:1048C000811114C0112391F0198689898A3010F062
:1048D0002AE001C025E0EE24E39407E042E050E046
:1048E00064E170E0C60103960E94BD2F05E10E83CE
:1048F0000F8382E088875E0122E0A20EB11C498905
:1049000050E060E070E02AE0C5010E94B72D81E030
:1049100089870E830F838AE088874A8950E060E0A8
:1049200070E02AE0C5010E94B72D8E85843019F011
:104930008889843041F500E021E042ED57E163E1F0
:1049400070E080E090E00E94762B85E18E838F837B
:1049500087E188878AE08B8776018BE1E80EF11C7E
:1049600046019FE1890E911CD7014D917D0150E0D8
:1049700060E070E02AE0C5010E94B72DE814F90458
:1049800099F788E08B878E858250823040F0888945
:10499000833029F08B89883009F042C03FC0D601AE
:1049A0005096EC91EF3028F4F0E0E359F74FE491A2
:1049B00001C0E5E0D60112968C91873011F080E0BD
:1049C00001C085E0E80FF0E0DF01A054BD4F8C91FD
:1049D000880F880F8A5E93E09E839F838887EE0FFF
:1049E000FF1FE455FD4F60817181C5010E947E2D3E
:1049F00000E0F601808D081768F6FE01E00FF11D5A
:104A0000BAE00B9FC0011124248942E557E164E319
:104A100070E003960E94A92E0F5FEBCF1123C1F027
:104A20008E85833051F4D60158968C91880F982F3B
:104A3000990F990F890F8D5F03C0843049F48AE183
:104A400020E04CE457E165E370E090E00E94A92E7D
:104A50008E858350823008F511111FC08B8987FD28
:104A60001CC0843054F08830C4F4880FB4E08B9FAD
:104A7000800D1124855264E308C0880F682F660FEB
:104A8000660F860F66E1680F83E070E003E020E0C8
:104A900046E257E190E00E94182A8E85813011F09D
:104AA00020E001C022E041E0B601CE010E94331EA9
:104AB0008E85883028F4863018F58130E1F089C081
:104AC000883009F460C08D3008F083C080E2E82EA1
:104AD00004E621E14FE0B601CE010E94561F84E1B9
:104AE0008E838F8385E18887EE85F0E0EE0FFF1FD0
:104AF000EC57FD4F5DC08F85883009F06AC043C018
:104B0000873089F0F6018281873029F48C8D8530D9
:104B100021F42DE003C021E001C029E041E0B6010D
:104B2000CE010E94331ED60112968C918730D1F4AB
:104B30003AE1E32E08E527E144E1B601CE010E9407
:104B4000561F8AE18E838F838CE1888760E177E14D
:104B5000C5010E947E2DEC8DF0E0EE0FFF1FE456A4
:104B6000FD4F26C022E1E22E0CE328E142E2B6012D
:104B7000CE010E94561F88E28E838F838DE1888745
:104B800063E077E117C020E04CEF5DE069E170E0A1
:104B900086E290E0DF91CF911F910F91FF90EF900F
:104BA000DF90CF90BF90AF909F908F900C94A92EE4
:104BB00060817181C501DF91CF911F910F91FF90AD
:104BC000EF90DF90CF90BF90AF909F908F900C941C
:104BD0007E2DDF91CF911F910F91FF90EF90DF908D
:104BE000CF90BF90AF909F908F900895FC0190E080
:104BF000DB0158968C91981788F4DF01A90FB11D3D
:104C000091964C939197411107C058961C92268D0E
:104C1000222311F02150268F9F5FEACF0895FF9243
:104C20000F931F93CF93DF93EC018B0182E08E876C
:104C30008F87888B8FEF8B8BFE01B196CE01859687
:104C4000DF011D971C9214961C921192E817F90728
:104C5000B9F71C8E1D8E1E8E1DA240E0B801CE013C
:104C60000E94F625D80112968C9112978730F9F0A0
:104C7000883009F440C0863009F044C05096FC905A
:104C800066E070E080E090E00E945A2D6F0D6E5F4C
:104C9000698BD8015096EC91EF3028F4F0E0E3599D
:104CA000F74FE49101C0E5E0EE0FEE5F22C0D801BE
:104CB0005096EC91EF3028F4F0E0E359F74FE4918F
:104CC00001C0E5E08E2F880F880FE80FE65FE98BC3
:104CD000D8015096EC91EF3058F4F0E0E359F74FDB
:104CE000E491E53028F4F0E0EE53F24EE49101C097
:104CF000E0E0EA8B07C0F8018089880F8E5F898B1E
:104D000085E08A8B82E08E878F87DF91CF911F911C
:104D10000F91FF900895FC0190858781890F9185FF
:104D2000890F9285890F0895DF92EF92FF920F937A
:104D30001F93CF93DF938C01EB017B0184E1E80E9D
:104D4000F11C8A81873089F0883009F473C086307D
:104D500009F074C0E889EF3028F4F0E0E359F74F28
:104D6000649101C065E06F5F66C0E889EF3028F4A8
:104D7000F0E0E359F74F649101C065E06E5FC70151
:104D80000E94041DE889EF3030F4F0E0E359F74F5A
:104D9000E491E23010F083E001C082E02E8990E0DF
:104DA000820F911D8B30910514F08AE090E08E8B7C
:104DB0008A8D8F5F8A8F66E070E080E090E00E94CD
:104DC0005A2DDC01CB010196A11DB11DD82EF80191
:104DD000848FC7010E948B26823018F0F4E0FD1505
:104DE000C0F5F801248D253089F058F4213030F1D8
:104DF00030E021503109C20FD31F8B8D8F5F8B8F15
:104E00001DC02630B9F0273059F018C08C8990E0C9
:104E100001968630910514F085E090E08C8B0EC0F1
:104E20008E8990E002968B30910514F08AE090E034
:104E30008E8B04C062E0C7010E94041D86E0F80169
:104E40008687DF91CF911F910F91FF90EF90DF90B8
:104E5000089587E0F801848FC4CFCF92DF92EF925C
:104E6000FF920F931F93CF93DF93EC01DB017B0144
:104E700044E1E40EF11C9B01215F3F4F19969C9188
:104E80001997909518968C919823EE854E2F50E0A7
:104E90004D30510508F051C28B01FA01EC59FF4F1A
:104EA0000C94263593FF02C085E48D8F8D8D86345A
:104EB00008F043C28F5F8D8F863409F03EC21D8E8D
:104EC0008F858E87F80150C082E0888B93FD04C0E7
:104ED000ED8DE131F0F04BC081E18D8FF12CF801C7
:104EE000808DF816A8F76E01CF0CD11CF60181A1B8
:104EF00081110DC066E070E080E090E00E945A2DC4
:104F0000DC01CB010196A11DB11DF601848BF39448
:104F1000E6CFF0E0E953F24E649170E0F80186814B
:104F200097810E941235892B09F007C2F12CF801F4
:104F3000808DF816B0F46E01CF0CD11CF60181A162
:104F400081110DC066E070E080E090E00E945A2D73
:104F5000DC01CB010196A11DB11DF601848BF394F8
:104F6000E6CF8D8D8F5F8D8F17821682E6C18C897B
:104F7000863059F08D89863051F08E89863049F01F
:104F80008F89863041F088E007C084E005C085E065
:104F900003C086E001C087E08B8B80E021E0F80150
:104FA000908D891730F4FE01E80FF11D21A38F5F6A
:104FB000F6CF83E068C095FF20C08B89883024F04D
:104FC0002F89263019F413C0873021F42E8926301A
:104FD00019F40FC0863021F42D89263019F40BC046
:104FE000853051F42C89263039F484E005C087E0FF
:104FF00003C086E001C085E08B8B96FF25C02B891E
:10500000243024F48C89863019F416C0243021F41D
:105010008D89863019F412C0253021F48E898630AE
:1050200019F40EC0263029F48F89863059F427E010
:105030000AC0273041F406C024E005C025E003C0C3
:1050400026E001C028E02B8B93FF77C1EB89E43089
:105050000CF473C1E8305CF0E83009F06EC1F8017F
:10506000408D9E012C5E3F4FF90180E018C01D8EDF
:105070000E2E000CFF0B3497EC0FFD1F11A2808D3C
:105080008F5F808F82E08E8758C19191913039F087
:10509000890F9381592F550F950F990F890F9E2FC7
:1050A000921B941790F39DA1911195E0D92ED80EE3
:1050B000298930E02D1931092F31310514F02EE105
:1050C00030E037FF02C020E030E0298B40E0B8013B
:1050D000CE010E94F625898981110CC0B801CE014C
:1050E000DF91CF911F910F91FF90EF90DF90CF90C4
:1050F0000C9494261D8E83E0888B88E08B8BDD20BA
:10510000B9F01E86C7010E948B2681110FC08E8DBB
:10511000811109C085E008C040E0B801CE010E94BD
:10512000F62581E08E8782E08F8707C184E0FCCF7F
:10513000C7010E948B26811105C08E8D8111A2CFDF
:1051400085E0A1CF84E09FCF84E0888B97FD02C0EB
:1051500095FF20C08B8984302CF0F801268D211119
:1051600013C002C01816ACF4F801238D21110EC033
:1051700082307CF0248D21110BC0823051F0258DBE
:10518000222339F082E005C083E003C080E001C043
:1051900081E08B8B892F807539F18B8983308CF47A
:1051A000F801268D211118C087FF04C0838D882344
:1051B00019F014C018162CF0F801848D882319F00A
:1051C0000FC0813031F4F801858D882359F082E0D9
:1051D0000AC088303CF007C083E005C080E003C00F
:1051E00081E001C088E08B8B93FFA7C08B89813061
:1051F00039F11CF4882331F0A0CF823049F183309B
:1052000081F19BCFF801838D8150838F898990E054
:105210000A978F31910514F08EE190E097FF02C05C
:1052200080E090E0898B40E0B801CE010E94F62535
:105230008989882309F452CF84E0888B8AE023CFC0
:105240008E8F89E08E87F801848D8150848F75C0A0
:1052500081E08DA38BE08E87F801858D8150858F4D
:105260006CC08CE08E87F801868D8150868F87898F
:1052700090E008968531910514F084E190E0F80102
:10528000878B27E130E0A901481B590BCA01880F21
:105290008093000152C0FB01878990E02A8930E0A9
:1052A0004489241B31092333310514F022E330E013
:1052B00037FF02C020E030E0821B930B97FF02C053
:1052C00080E090E0F801878B27E130E0281B390B64
:1052D000220F20930001892B09F01ECF81E08E87D9
:1052E00088E022CF93FF09C081E0FB01838BB701E7
:1052F000C9010E94C21CF80187A38D8D8634E8F491
:105300008F5F8D8F8634C9F48E85888B87E0BBCE06
:1053100093FF13C081E0FB01838BB701C9010E9499
:10532000C21C03C093FF09C08EE0F80187A305C02B
:1053300093FDA8CE02C093FD03CFDF91CF911F91C3
:105340000F91FF90EF90DF90CF9008956F927F9232
:105350008F929F92AF92BF92CF92DF92EF920F9374
:105360001F93CF93DF933C014B01D42F122FC02FFB
:10537000C22ED12CA42EB12CE12C00E220E2A601F9
:10538000B501C40103960E94BD2F00E0212F4D2FCF
:10539000B401C3010E942820EC2FF0E0EE0FFF1FA4
:1053A000E853FD4F40815181B6016E5F7F4F21E090
:1053B000C50102960E94762BDF91CF911F910F912C
:1053C000EF90DF90CF90BF90AF909F908F907F90A5
:1053D0006F900895CF92DF92EF92FF920F931F93F9
:1053E000CF93DF936C017A018B01C0E0D0E0CE1542
:1053F000DF0589F0D8016D918D01D601ED91FC9109
:105400000190F081E02DC6010995892B11F47E01F0
:1054100002C02196ECCFC701DF91CF911F910F9170
:10542000FF90EF90DF90CF90089508950E94593635
:105430002F923F924F925F926F927F928F929F92A4
:10544000AF92BF92CF92DF92EF92FF920F931F9392
:10545000CF93DF9300D000D000D0CDB7DEB77B0173
:105460004115510509F429C1FA01D490319674917E
:105470004E5F5F4FAD2DB0E0222309F1E72FE69597
:10548000E695E695AE2EB12CE1E0F0E0372F3770CF
:1054900011F4E0E0F0E0EA0DFB1DAE9F5001AF9F7C
:1054A000B00CBE9FB00C1124033011F4AA0CBB1C2D
:1054B0002A9DF0012B9DF00D11244E0F5F1F0F3F11
:1054C00009F402E05C01AA0EBB1E1A141B040CF0C6
:1054D000F4C0803891050CF0F0C09701270F311D02
:1054E000121613060CF0E9C0F0E4EF16F1040CF00C
:1054F000E4C04115510509F4E0C02E2D27702D831D
:105500009701F7FE02C0295F3F4F63E0359527956D
:105510006A95E1F7F22FF7FE05C06D81662311F061
:10552000FFEFF20F97FF05C022273327281B390B07
:1055300002C020E030E0E0E8AE16B10424F060E8FC
:10554000762E781A01C07D2C721AEF2E0F2E000CC9
:10555000FF08FF3F1CF4CE2CC09401C0C12CE1E039
:10556000672F677009F4E0E07695769576959E2E24
:10557000970EE90CF11C69E0E616F1041CF0E8E076
:105580009E2E9F1A1C2D1F0F60E81603800D911D83
:105590001124820F931F61E070E00D8002C0660F3E
:1055A000771F0A94E2F7033011F0E1E001C0E2E076
:1055B000EE2EF12CCD9C200D311D1124E29E5001C8
:1055C000E39EB00CF29EB00C11246A01CA0CDB1CE5
:1055D000970121503109A20EB31E4A0D5B1DBB2459
:1055E000BA94B69E9001B79E300D112429014094C3
:1055F0005094F90DFE83A719B109EA9FA02D11243B
:10560000B0E0E79DA00DB11D11242E81121709F401
:1056100054C09C012D513C4F4A015601612C671426
:1056200009F443C0F5013490369EF001379EF00D29
:105630001124FA83E983E095F095FC83EB83023033
:1056400019F45C824B8210C00B3F19F41A82198244
:105650000BC0F4013490369EF001379EF00D1124FA
:10566000E095F095FC83EB8317FD09C0F9013080CC
:10567000EB81E321F9813E2E3F2AF9013082FD8141
:10568000FF2359F017304CF4F901E058FF4F208008
:105690003C8023203A80322830828E0C9F1CAE0C36
:1056A000BF1C63942F5F3F4FBACF1F5FCA0EDB1E34
:1056B0004A0F5B1F80589F4FA8CF26960FB6F894CD
:1056C000DEBF0FBECDBFDF91CF911F910F91FF9035
:1056D000EF90DF90CF90BF90AF909F908F907F9092
:1056E0006F905F904F903F902F9008952F923F9230
:1056F0004F925F926F927F928F929F92AF92BF92E2
:10570000CF92DF92EF92FF920F931F93CF93DF938D
:10571000CDB7DEB761970FB6F894DEBF0FBECDBF31
:105720007C014A01FA0134913196E491832F8F77FD
:105730008F5F282E312CC701820D931D97FDA1C1CB
:10574000F0E8EF16F1040CF09CC18E2F8F738F5F81
:10575000AB01480F511D57FD94C1603471050CF029
:1057600090C1331F3327331F3B8331E0E6FF30E026
:10577000EE1FEE27EE1FEF83AB0177FF04C0442737
:105780005527461B570B5A0117E0A122BB24AB013A
:1057900077FF02C0495F5F4FDA0153E0B595A795E7
:1057A0005A95E1F7BA83A98377FF0CC0A114B1041D
:1057B00049F01197BA83A98348E050E0FA01EA1949
:1057C000FB095F0141E050E06A010A2C02C0CC0CE9
:1057D000DD1C0A94E2F7D986C886982F969596958F
:1057E0009695877011F4892F02C081E0890F482FA8
:1057F000880F550B5E834D83502F52705A8701FFDF
:1058000006C0AD81BE81119781E0382702C0A0E0BB
:10581000B0E0602F61706C8300FF04C0B101615083
:10582000710902C060E070E097E040E150E080E084
:10583000612C712C8101015011091C870B870D818E
:105840001E81A017B1070CF01CC1B7FD1AC18A0157
:10585000CC24C394D12CF80143E0F695E7954A9502
:10586000E1F7E80DF91DE491F0E0A8014770552734
:1058700002C0F595E7954A95E2F7A8014F5F5F4FA3
:10588000E0FF05C01FEFC11AD10A8A01E4CFE1E0B1
:10589000CE16D104E9F4FA01F695E795F695E79569
:1058A000F695E795E80DF91DE491F0E0477055276E
:1058B0002F0102C0559447944A95E2F7F1E04F2238
:1058C00055244FEF441A540AA8014E5F5F4F41C060
:1058D0008601015011091E870D8744244394512CE1
:1058E0000D8402C0440C551C0A94E2F71FEF411AC4
:1058F000510A00E010E0FA01F695E795F695E79574
:10590000F695E795E80DF91DE491CE2ED12CD98AB4
:10591000C88A6A01E7E0CE22DD24E889F98902C05D
:10592000F595E795CA94E2F7E0FF0AC0E1E0F0E000
:10593000002E02C0EE0FFF1F0A94E2F74E0E5F1E0C
:105940004F5F5F4F0F5F1F4FCD84DE840C151D0529
:1059500094F2C12CD12CC414D50409F48CC00B8151
:10596000002369F0E92FF0E0311105C007E010E0F5
:105970000E1B1F0BF801E851FD4FE0818E2B91505B
:1059800008F075C0882309F44AC019811A0F1F87CF
:1059900018300CF044C0FB01EE0DFF1DE038F1059E
:1059A000F0F508851985809FF001819FF00D112485
:1059B000FE87ED871F8517FD15C0C701012F10E871
:1059C0000103800D911D1124860F971FFC01ED51DD
:1059D000FC4F80819D85222311F0892B02C0909578
:1059E00089238083A114B104D1F0EF85E730B9F0A9
:1059F000EF3FACF0C7010E2F10E80103800D911DA1
:105A00001124860F971FFC01ED59FB4F80819E8565
:105A1000222311F0892B02C09095892380830F8166
:105A2000002311F011E031278FEF681A780A9C816A
:105A3000992319F06150710902C06F5F7F4F6214A2
:105A4000730464F00A85002311F0119701C01196C8
:105A50001C81112331F06B857C8505C097E080E0C7
:105A600006C060E070E097E080E0612C712CEFEF01
:105A7000CE1ADE0A70CFCC24C394DB80CD18CB8243
:105A8000DECE61960FB6F894DEBF0FBECDBFDF91BC
:105A9000CF911F910F91FF90EF90DF90CF90BF902B
:105AA000AF909F908F907F906F905F904F903F90BE
:105AB0002F900895CF93DF9300D000D0CDB7DEB7FD
:105AC000611571058105910579F09B01AC01698330
:105AD0003A834B835C830E94793429813A814B81DC
