:100000000C9456130C947E130C947E130C947E1354
:100010000C947E130C947E130C947E130C947E131C
:100020000C947E130C947E130C947E130C947E130C
:100030000C947E130C947E130C947E130C947E13FC
:100040000C947E130C947E130C947E130C947E13EC
:100050000C947E130C947E130C947E130C944D1907
:100060000C947E130C947E130C947E130C947E13CC
:100070000C947E130C947E130C947E130C947E13BC
:100080000C947E130C947E130C947E130C947E13AC
:100090000C947E130C947E130C947E130C947E139C
:1000A0000C947E130C947E130C947E13FA13231479
:1000B000BB133C140C147514751475149614961413
:1000C000C813591407146E14381D381D461D9F1D82
:1000D000881E011F2C1F3A1F4D1F7F1E5D1F5D1FB5
:1000E000596F752075736564206120706F69736F37
:1000F0006E2077616E642E0A20204465616C203288
:100100002065787472612064616D6167650A2020E2
:100110002020202020706572207475726E2E005988
:100120006F7520757365642061206669726520773C
:10013000616E642E0A2020204D6F6E7374657220EC
:100140006C6F7365732031300A20202020202048F6
:100150005020706F696E74732E00596F752075731F
:10016000656420616E206963652077616E642E0A84
:1001700020204D6F6E737465722069732066726FF4
:100180007A656E0A2020666F722074776F2074750E
:10019000726E732E000101010101010101020202D0
:1001A000020404040808320F0000F80404E4A40464
:1001B000C444840484448404C44484448404C4043F
:1001C000C4040404E4846404A404E404E40484444F
:1001D00084048444E40404F8000000000F101013A9
:1001E00012101310131011131210131013101310F8
:1001F00010151310101013101310131013101310E8
:100200001113121011121310100F00000909AAFF88
:100210000101000101010001010100010101AAFF2A
:1002200000010101000101010001010100010101C2
:1002300000010408003E1C080909FE01010101013A
:100240000101FE000101010101010100FE010101A6
:1002500011010101FE000101010101010100FE0186
:10026000050101014101FE0001010101010101003F
:10027000FE01410111010501FE0001010101010121
:100280000100FE01450101014501FE0001010101DE
:1002900001010100FE01450111014501FE000101BE
:1002A000010101010100FE01550101015501FE009E
:1002B0000101010101010100ABBF3F37A7C39A4310
:1002C000FF2CA71CC71E7F8FC0B8E5CAEF5DFEF9E3
:1002D000D35F90F1DDF5F75DF394B3FBAB19F77FD6
:1002E00040E5E59FDCACDEC6659DF2B9BFFCAFFC26
:1002F000FBB7BF0B29FFEFB34FF91CC7B1FF98B98C
:10030000CCF963BB0FE3C8DFE7EFC6AFF1382E735C
:100310001FC6F19F93FF5AC67CF5E7CE69CE533EC8
:10032000FB27FF71FF0A66BE0F2B3F37075AB7093D
:10033000C8C261041091028A01B0B203CB3AD0FA6C
:100340004719B2100826EE0C8E20016C08E0B0A40C
:100350001007087114265B02D810C0806736935FBF
:10036000BC0F0002B7BD25149980080C40645204EC
:100370002E081408029341111880080C8A843099C1
:100380004CA04828A0F667EC0D028070DEFBA303AA
:10039000168000084402422829C0027E973B93CD74
:1003A0006673D5EA4000040039EDFDE91E5D0E607C
:1003B000B180E5B13F95E1409440B301805A18C245
:1003C000005A5252FEE26E8618C0C072B280C90056
:1003D000168B7F1E6BFBEFAABBBF0B297FEFB3DD34
:1003E00058499432C12271C86298FC39992CA08472
:1003F000925E286111874160186258948D4306B05F
:10040000582CFE4E8420652265005206206500525D
:1004100006206550D21013B09082050B0E6030811B
:10042000C564C29C3060426142410A05122850A155
:10043000C062F139F63C80088880088887E9DE5F71
:10044000ED26861026240491D098BDF73ECC1D9A47
:10045000B93E96A3CBE572B9BC6699C4C4C157181E
:100460000EA606A646270C39CCAD952131D9FEB58E
:100470001C2C3010A1C0624E9848000734E00007E1
:10048000B0D8FCD3D8FFB44CCC8F00A77FD92612AC
:1004900040168E7F127BDF40000EFB17B3F99BECFA
:1004A0007D060140D8FB6754054A9002933FD0DE99
:1004B0002704000190A1D52B9BCD6666FB97A4A1D4
:1004C000A1050638A016009CFCFE710326152A4CD7
:1004D0008A1C1BBECE620183092C360B22C3CDE6DB
:1004E00007750F5800C0BE6F00400060EFDFE95E87
:1004F000BF731F862A511793A86A06ECFDFBBAFB4F
:10050000FBB2BB3B01100001000110001000018094
:10051000027AD80391BF1ED93D606FDD40F838F0F4
:10052000BA0B89C74EDAA31351780BBC1D8B02B0EE
:1005300090000B018045C743E0C8074203088000D4
:100540008000200008800430F4CE99CFC01A20002B
:10055000A820200908000B64DD8113001FD9D318DF
:10056000080A0AC17838BC002603F803E5CF001753
:10057000B74F80C1048E0D3079042CE0373B61CE3B
:10058000A18FB9F183BD0983057EC41FAF1C189CE0
:100590007C0B08FCEA862208AEF429B081DFE77103
:1005A0005CD60978CE955FE939B71E798DFC3A8B18
:1005B000FF7B636DB096524B69B437D8874A6A0D9A
:1005C000B5945AAA3B73EFE85A4A596C165B3B60E4
:1005D000ECB34B558A142952B06D81EC83AEA58BD8
:1005E000CD6233DC1B606FAC0DD6526A298DF606E6
:1005F000FB5049ADA196524B7567EE1D5D4B298BA3
:10060000CD626B070CD7BF1EF9EF1347FF5F21E4E4
:10061000BF5659131F2F174C260212000424000442
:10062000000109000232D9EB7BFB0E0008000280BA
:100630000000002000080002C083FDBD7D0700040B
:100640000001400000001000040001E0C1FE5E3621
:10065000932293229349914991C9A4790C13DFDF26
:100660005BE18604842037B27EDF7E000002C08317
:10067000FDFBF6030010001EEC1F99B0596C169B91
:10068000E4A3131F5F5E30994CF6FABDFBFDFEBD7F
:10069000FBFDFEBDD94C2693E6E3131F5F5C30994A
:1006A0004C2693BD7EDFFEDEFE7DFB7BFBF76533D4
:1006B000994C2693E6A3139FEF56B82137E486DCC6
:1006C000901B7223EB7BFBF7EDEFEDDFB73F9AB0AA
:1006D000596C169BC566B1596C92C7139F7B851BDD
:1006E00072436EC80DB92137E486DCC8BAEFDFBFAC
:1006F000EFFBF7EF47099BC566B1596C169BC566C2
:10070000B1596C922313DFDF5BF95AD6EFFBFEEF92
:10071000FBFE8F9CF3B22E737E14139FDF59F97A80
:10072000D6EFF93DBFE7F7FCA8392FEBB22E737E69
:100730000C13DFF7955F9BF5FEF7BFFFFD1F99F3E5
:10074000B22EEBB22EEBB22E733E0293DF2B7F8DD7
:10075000FC2B1A735ED6655DD6655DD6655DD66584
:10076000CE01417265617E353A53756E6B656E7E62
:100770004B6565707E6F667E4F67210041726561D3
:100780007E343A466C616D696E677E556E64657243
:10079000776F726C6400417265617E333A556E64A6
:1007A0006561647E43617461636F6D627300417261
:1007B00065617E323A506F69736F6E6F75737E44F8
:1007C000756E67656F6E7300417265617E313A5474
:1007D00068657E426C61636B7E53657765727300FA
:1007E00050697420202020207E2D337E48502C7E9E
:1007F0002B46616C6C004D6F76696E677E57616C3D
:100800006C73202020202D317E5850005370726967
:100810006E677E426C616465202020202D317E4809
:1008200050005275737465647E41726D6F757220ED
:1008300020202D317E4152005472697077697265B3
:1008400020202020207E2D317E476F6C64004D6972
:100850006C646577202020202020207E2D317E466C
:100860006F6F64000E1000387C44000000A0600030
:1008700064544C0000B84414445478C14180C0C052
:10088000C08000D88498949C94949C949884D800B8
:10089000003E302E2C2B2A2A2B2C2E303E0000001E
:1008A0006090687434B4F4E810E0000000000000C8
:1008B0001F205B5B211C02010000000000D0D05013
:1008C00050F000E8D000000000000003040804031A
:1008D000082B2B0800000000004444106838681002
:1008E000444400000000707E3040707C7040307ED8
:1008F000700000C03008E4727AFA7A72E40830C0FE
:10090000000F00201122072506231120001F00C020
:10091000F03018B8789888D8F0E00000000303079A
:1009200007071E061F020D00000000FCFC04F4F483
:1009300004E404C4048404FC007F7F405F5F405FE4
:10094000405F405F407F139F0700C2993367DE72AC
:10095000E6CC9900F00200F8FD00C00B00E0F703C0
:1009600000AF8070E6CC99779C397326C011131FB5
:100970009705934900109000202001404004240076
:1009800008480010900030D9EBBE1F008000200006
:100990000800028000000020000800028000200003
:1009A00070DFF7FD000004000140001000040000AB
:1009B00000014000100004000180FBBE6733991461
:1009C00099149914293229322932994C9A23139F68
:1009D000FC75F837342FEBB22EEBB22EEBB22EEBC8
:1009E000B22EB301020203040405170824170824D9
:1009F00017FF1313273B3B4F05E742D435AA1D7061
:100A0000447561DB02A7E81AEE0D5C2A69B437125F
:100A100000D344DD9909C7E6AED9D1BB232018091C
:100A20000737474696A72C21815A17B74F80C10434
:100A30008E0D3079042CE0373B61CEA18FB9F18364
:100A4000BD0983057EC41FAF1C189C7C0B08FCEA03
:100A5000862208AEF429B081DFE7715CD60978CE32
:100A6000955FE939B71E798DFC3A459F371620000E
:100A70002560E2707AED7C76F5EA06A29090A103FB
:100A800022DA553B44060CCD671DB9682F9ED06B0A
:100A90000FE809BDE6825E855B4EDC2057E5EA057E
:100AA000F8101740000AC480397472EAE70086A77C
:100AB000591C51340828591686B54162B8F0D24104
:100AC000B0C79662CA4E19B0E4CC35AF3973E7357A
:100AD000677F1C020B0805BBFB7AB3CDB4EE18038D
:100AE00024B20A37E0FB63218305C0691C0347E099
:100AF000C8193812E60827E0E65F0D814D38FAC0C4
:100B0000CBB8406EC0959FE7DDAB57AF5EBD7204BA
:100B1000CE5E3922BF060105050600050306000466
:100B20000205000301037FFF705A4B175BBB1D6C6E
:100B3000169BA5ABF02F651CFDEB781CFF4A80BD12
:100B40001D6C169BA56B2965B877E5C872A94AC1CB
:100B5000B6AD50A44891A2EAF2C401B92137E486A7
:100B6000DC901B72436EC88DBF8B63D4269424C661
:100B7000380877AEDCB91A86DB2486E432867F0734
:100B80006EC80DB92137E486DC901B72436EC80332
:100B9000A06D05102952A4A8BA54A560DB7671E9AE
:100BA00065296538B0BA59242821008E936FF8B7AB
:100BB000B0BA2F65ACB56F6F6E6F6E7BADBABAEE23
:100BC000ABEBAFCE4342B821086A0C67A0145D4B73
:100BD000175BBB2F2CD2556B68FC80ACB4A485C4CA
:100BE000D2FE48C7F4EAD5C4C478F09A919C328FFB
:100BF000BC1B6BBCE338733AE50B83CE98833AA8F1
:100C00004EE687CEDF995CF1EAD59D186DEC18BFF2
:100C10004A565AD24262691F79880DD652DD7DC08C
:100C2000AC0DD6627D871E620081840100840310B2
:100C30004EFC2CBC7A750F768A57AFAEC99CEBD4AC
:100C40005BB3D25B4F735D73388C5B57D264F5D660
:100C5000D3BB3D6E5DA9CDEA6D1C1EB1A657AF2674
:100C6000316687F183D0430C20903000807000C241
:100C7000322CCDAC3534DA5B36A7B574B1B5DBF1C7
:100C800026D041020400F8C57C87338BCD6273E621
:100C9000A39CB9502E940B67CA4B024C0839F086BE
:100CA0000B67CA8572E1CC4739B3596C1667BEC36E
:100CB0002F0C74900001001E0D364BD752CA70EFF6
:100CC000CA91E55295826D5BA130793101F4059BA3
:100CD000C566B1596C169BC566B1596C169BC56645
:100CE000B1596C169BC566B1596C169BC566B15956
:100CF0006C169BC566B1596C169BC566B1596C16CE
:100D00009BC566B1596C169BC566B1596C169BC5DF
:100D100066B1596C169BC566B1596C169BC566B118
:100D20007934019E42912245D5A52A05DBB68B4B2D
:100D30002F4B29C35DDD2C368BA2EBC407C60230D6
:100D40001C9D883D020B11383A81F6570C39907181
:100D50007422F1D8CDB1724838F46890D5DBF82907
:100D600043F6B81964F5D67076228C5F31648F9B98
:100D70000117701CA7F1511803378BCDA2E85ABA9E
:100D8000D8DA7D0101010101010101010202020223
:100D90000404040808340F0000F804C4A464A4E4A4
:100DA000C40404046484640484448404C404C40443
:100DB00004E424C404A404844484048444E40404B3
:100DC00004C4E4A464A4C404F8000000000F1010DC
:100DD0001311131110101010101310101112111004
:100DE00011121110101312111013101113121011EF
:100DF0001213101010101113111310100F000020F7
:100E00002000FC020202C2A262A2C2020202C2A22C
:100E100062A2C2020202C2A262A2C202020202FCD8
:100E20000000FF0000000183010341000000018376
:100E30008183C1002000010301830120000000FF25
:100E40000000FF0040405058585C485158585E5FC1
:100E50005B5E5F5B5E545D5040585250404000FF07
:100E600000003F404040404040444440515F5040BB
:100E7000485C464F5F5F5A4C404040404040403FD6
:100E80000000FC0202020A0A1A32A262C2B2BA7A54
:100E9000726A6A5A5A3A3A3A3A1A0202020202FC50
:100EA0000000FF000000102C5E3F3F3FFEFEFDFDF6
:100EB000ED6D75B181810101010161D1610000FF1A
:100EC0000000FF00343434343434343532250B1709
:100ED0002E2F8FAF8F2F0E2C00343434343400FF7C
:100EE00000003F40404040404040444440515F503B
:100EF000404F50565F4F4040404040404040403F90
:100F00000000FC02026A0202B20202D20202620283
:100F10009A02D20202B20202F202B202920202FC6F
:100F20000000FF007C009600C4000078FCEEC6665E
:100F30003E66C6EEFC78000045003000CB0000FFA6
:100F40000000FF00710017006200170000670157E2
:100F5000010721070032001600401300450000FF82
:100F600000003F404040404040444440515F5040BA
:100F700040474B5149474040404040404040403F3F
:100F80000000FC02C2D20AC2C2D2D2C2D2C2C28203
:100F9000828202020202020202026A620A6A02FCFF
:100FA0000000FF0061056862020202020202226282
:100FB000A2A2A3A2A0A0A0A0A0A0A308D3C300FFA8
:100FC0000000FF005B43585B4040404040404040D1
:100FD000404040414141454145454148454100FF70
:100FE00000003F40404040404040444440515F503A
:100FF00040464D5E4F464040404040404040403FAC
:101000000000FC0232B282B202020222222282A23A
:10101000828282E2C28202020202D2C2D21202FCA6
:101020000000FF000C6D616D0000000008088BC31C
:101030000303034F474301000000B630B68600FFAC
:101040000000FF00435B185B0000000002070F1F59
:10105000070717071710000000006D0C6D6100FFF7
:1010600000003F404040404040444440515F5040B9
:101070004A444A405E4A4440404040404040403F2D
:101080000000FC02F252A24202020202E20202024A
:1010900072020202E2020202020242A252F202FCC6
:1010A0000000FF00FF55AA55880000000B40C0FE5D
:1010B000FEFEC0400B000000008855AA55FF00FF4F
:1010C0000000FF007F552A55080040000000000185
:1010D00003010000000000400008552A557F00FF72
:1010E00000003F40404040404044444051554A4049
:1010F000464D5E4F46404040404040404040403FAB
:10110000004E6F00596573000909FE0101010101DC
:101110000101FE000101010101010100FE010101C7
:1011200011010101FE000101010101010100FE01A7
:10113000050101014101FE00010101010101010060
:10114000FE01410111010501FE0001010101010142
:101150000100FE01450101014501FE0001010101FF
:1011600001010100FE01450111014501FE000101DF
:10117000010101010100FE01550101015501FE00BF
:10118000010101010101010045766164657E74720F
:1011900061703F008DD73DF13EF3F0AD7BB3673E0C
:1011A0007630714E0781B2F2398E812E0489D73D97
:1011B000F1B1C3E5DCECB91E5F1D04CAF2CE91307B
:1011C0003609973BF3F031E6F732777A231C799EA4
:1011D00045210C17B74F80C1048E0D3079042CE0E7
:1011E000373B61CEA18FB9F183BD0983057EC41F52
:1011F000AF1C189C7C0B08FCEA862208AEF429B0D0
:1012000081DFE7715CD60978CE955FE939B71E7941
:101210008DFC3A8BFF7B636DB096524B69B437D827
:10122000874A6A0DB5945AAA3B73EFE85A4A596C3B
:10123000165B3B60ECB34B558A142952B06D81ECC0
:1012400083AEA58BCD6233DC1B606FAC0DD6526ACA
:10125000298DF606FB5049ADA196524B7567EE1DE0
:101260005D4B298BCD626B070CD7BF1EF9EF13477F
:10127000FF5F21E4BF56594D6F6E73746572202075
:1012800020202020202020357E444D4700466F75C9
:101290006E647E536869656C64202020202B317E4B
:1012A0004152005768657473746F6E65202020206A
:1012B0002020202B317E585000466F756E647E4D85
:1012C000656174202020202B317E466F6F640048BA
:1012D00065616C74687E506F74696F6E2020202B7E
:1012E000317E4800466F756E647E4C6F6F742020AF
:1012F000207E2B317E476F6C640003081F051F1F83
:10130000151B1F11111F110E1F15111F05011F1194
:101310001D1F041F001F0010101F1F041B1F101093
:101320001F061F1F011F1F111F1F05071F311F1F32
:10133000051B17151D011F011F101F0F100F1F0C7C
:101340001F1B041B071C071915130C121E1F120C60
:101350001E12120C121F0C1A14041F052E2A1E1F17
:10136000021C001D00201D001F041A011F001E0486
:101370001E1E021E1E121E3E120C0C123E1E0206E5
:1013800014120A020F121E101E0E100E1E081E1A34
:10139000041A2E281E1A12161F111F121F101D15B7
:1013A0001711151F07041F17151D1F151D01011FFC
:1013B0001F151F17151F0017000010000404040458
:1013C0000E040229060A00000707000C3A163A0C20
:1013D000000707001A2432241A000707002A1836CB
:1013E0000C2A0001010101010101010202020204B3
:1013F00004040808202000FC020202020202028209
:10140000C2820222E20202E212D2F2E202020202EC
:1014100002020202FC0000FF0000307830000000F1
:1014200081C0E0E2F372F0E1E2C2A341800000007B
:1014300010000000FF0000FF0000000000003CFF63
:10144000FFF7FFF7E341E3F7FFF7FFFF3CC33C0083
:1014500000000000FF00003F40404042404040404C
:10146000414347474F4F4F4747434542414040461E
:101470004F4640403F0000FC02020202020202020C
:10148000020202020202020202020202020202023C
:1014900002020202FC0000FF0010381000447C40F1
:1014A000001834783C1880857D0D7C858000000014
:1014B00000000000FF0000FF000202020202020220
:1014C0000202F04CC20140C8DCC840C0C441C28422
:1014D00078020200FF00003F404C4C4C4C4C4C4CFE
:1014E0004C4C4C494A47444D4B4E4C4E4F474B4D4C
:1014F0004C4C4C403F0000FC020202020242E2421D
:101500000222F2020282C262F2F2F2A2C2020202DB
:1015100002020202FC0000FF00C0A050B058289850
:10152000A899A9193050A140C081A1A1A0202020D4
:1015300020202000FF0000FF007F847973F2E5EB9C
:10154000CAD2DBD158CCCA4D72CD54CB54CD55E95B
:1015500072A4F800FF00003F404040414142424534
:10156000454B4B4B484F4F48484F4D4A4D464542DF
:10157000434140403F0000FC02020202020242E2FC
:10158000420212F2020202A242A202E2A2420202BB
:1015900002020202FC0000FF00000000020008003E
:1015A0002000F1092574542448F0002100080002AD
:1015B00000000000FF0000FF00000000000000002D
:1015C0000000FF00000055AA55FF000000000000C9
:1015D00000000000FF00003F4040404040404040CD
:1015E000404041464850554A4741404040404040B5
:1015F000404040403F0000FC02020202020242E280
:10160000420222F2020202F2321212F2020202023A
:1016100002020202FC0000FF00000000000000C007
:1016200040A0A1A1A1D0D0A0A1A2A140C0000000D3
:1016300000000000FF0000FF0000000014AA548119
:101640001EE11F7BF9E0E0F97B1FE11E8154AA1423
:1016500000000000FF00003F404040404040414249
:10166000444041414246464241414044424140405B
:10167000404040403F0000FC02020202020202021F
:1016800002020202828282828202020202020202BA
:1016900002020202FC0000FF000000000000000047
:1016A000F00C02799CDE7E9EDC79020CF0000000DA
:1016B00000000000FF0000FF0080402010102844C0
:1016C000A34088448841894188448840A74828101D
:1016D00020408000FF00003F4040404040404040EC
:1016E00040404040404040404040404040404040FA
:1016F000404040403F0017B74F80C1048E0D307905
:10170000042CE0373B61CEA18FB9F183BD0983057D
:101710007EC41FAF1C189C7C0B08FCEA862208AE16
:10172000F429B081DFE7715CD60978CE955FE9399D
:10173000B71E798DFC3A8BFF7B636DB096524B6977
:10174000B437D8874A6A0DB5945AAA3B73EFE85A62
:101750004A596C165B3B60ECB34B558A142952B066
:101760006D81EC83AEA58BCD6233DC1B606FAC0D5D
:10177000D6526A298DF606FB5049ADA196524B759B
:1017800067EE1D5D4B298BCD626B070CD7BF1EF931
:10179000EF1347FF5F21E4BF565913170160F11D96
:1017A000160B2850000A2C60B1F90A0280002000B4
:1017B0005060BB810200028000200008000280000F
:1017C0002050AE141000040001400010000400017D
:1017D0000001589C5800140004284F280002800083
:1017E0002000080000D5F08D14A1C881CFD9F1AF39
:1017F00020001FA783C1E615020053B8197001C766
:10180000711A6F586C169BC566B1596C169BC157FF
:10181000C081042D12F031B080028FDDB0176F3A15
:10182000A8085DF4DB000C2B2E03C05B6001051ED5
:10183000BB612FDE745011BAE8C75D01851188AF16
:1018400081051478EC86BD78D34145E8A24F392252
:1018500037E486DC901B72436EC80DB92137E486ED
:10186000DC901B72436EC8111FBF83C1E6D50258BE
:10187000C22D8BE9310B485FB1D82C368BCD62B3CA
:10188000D82C368377CCC4C3413200A76F800514AF
:10189000F808E22AAF3AA8085DF4E3160BAA0AF1A9
:1018A00035B080021F415CE5550715A18B7E3519C7
:1018B0001D695374E40DB080028FDDB0176F3AA834
:1018C000085DF4DBE040821609F818584081B7E063
:1018D000401064082F3AA8085DF4DB000C2B2E039F
:1018E000C05B600105DE8203419021BCE8A0227448
:1018F000D12FF0D215501881F81A584081B7E04026
:101900001064082F3AA8085DF409AFBC7AF5EAD54F
:10191000AB57AF5EBD7AF5EAD5AB57CF01087E3F36
:101920003F3F97E160B1584C169389000690001232
:101930004AA8D3E9BF3213F3BDACB611040152700B
:1019400098B000800238A06BACFC3361B1582C9A7F
:101950002FC635130800010000200024C0C4D900A0
:101960001400100058309C2B2B23CBC99FD48184AA
:1019700066F1FBD86C764042D0101A102841021450
:101980004000100004000140001000108002180008
:101990008329445D197FB87D66B3D96C369BC962D3
:1019A000B2582CD67EEC000A8010A66C4A28412042
:1019B00008088004519120000220000200F39EF1EB
:1019C00097DA3F7BD706102820903ABC8E9D97402F
:1019D000014000100004000140001000040001C09C
:1019E00039D91F630125888A08000411D1120A2CF5
:1019F0003EB27FF7868083C567E7E621500040004E
:101A000010000400014000100004000160EF8E0F80
:101A1000030002E064B23F9B1F9F1F978FB0596C79
:101A2000169BC566B1B9E6C06432335A7002100124
:101A30005C2E974C0AB6ED600107BFFF7FC69CE69F
:101A40003CF9EFE1EFEEE18FFF6FE2B04EF973FE8C
:101A500033CAE94FF5EF2AE3EFF3EFEB0B1CC218A3
:101A6000479EE734131EFF23FBE477BFF7EF2C9765
:101A70007559977C7C5D1610705117B74F80C10463
:101A80008E0D3079042CE0373B61CEA18FB9F18304
:101A9000BD0983057EC41FAF1C189C7C0B08FCEAA3
:101AA000862208AEF429B081DFE7715CD60978CED2
:101AB000955FE939B71E798DFC3A8BFF7B636DB07A
:101AC00096524B69B437D8874A6A0DB5945AAA3BE7
:101AD00073EFE85A4A596C165B3B60ECB34B558A7E
:101AE000142952B06D81EC83AEA58BCD6233DC1B23
:101AF000606FAC0DD6526A298DF606FB5049ADA138
:101B000096524B7567EE1D5D4B298BCD626B070CB2
:101B1000D7BF1EF9EF1347FF5F21E4BF565957BFE8
:101B2000CC95AB0E01DDD62058B73508D66D0D2EFD
:101B3000BD7AF5EAD5AB57AF5EBD7AF5EAD5AB57BE
:101B40008F320F73E5EAD5AB57AF8E51AF5EBD7ADA
:101B5000F5EAD5AB57AF5EBD664DF6136606476432
:101B60000CB973481DCDE850987EC0230017100EA5
:101B700050D83060C18205290B162C58304139F9F4
:101B80009DBDF7F7BCC8AA6308E7BFDBFD5B08C2D1
:101B900000848210203080020B10994CA0C01204E7
:101BA00057804ACA905C2417C94572918C0D47E052
:101BB00032C22C0C98F3037BEFEF6D00E0B0DF3DF9
:101BC0001C05CE06991E5BCE4C00C8D5090ABCBDCB
:101BD0007F1638017202AE5EBD7A056E840302B2D2
:101BE00000805004004402000808004014008028CF
:101BF000056A0000500000000181E1EAFBBDF7F733
:101C000036ACBDDF3D616670453A168F80C1046E0B
:101C10002D30F9D425510CB0800212A0800428B0D8
:101C200080020B28B080020B2820010A2CA0C002E1
:101C30000A2CA0C0020A2CA0C0020A2CA0C0020AD2
:101C40002CA0C0020A2CA0C0020A2CA0C0020A0CC0
:101C50001193BDEF5CBDCFC33C5C9D9BAB7F9EFBF6
:101C6000BB96013D1A4401201C1C042102B3E6A9C5
:101C7000861868C010FD3613280CC43104EACFD88A
:101C80007BBFE3382EE16004B08230060827E0CF46
:101C9000747FC731772F80BCED61DE98C0456847FF
:101CA00070D4E005387729586073C09281C2AD4185
:101CB000065842D727F6DEDF130600100622410140
:101CC00040E17B03B7089020621772436EC80DB9DC
:101CD0002137D8673C7AF5EAD5AB57AF1E8C0AA0FE
:101CE000AA505529AA22A02A45D5881A6559698C77
:101CF000425491AA49353B760CAF5EB3E661E2D11E
:101D0000AB57578635D412868BE9D5AB57AFCED4B7
:101D1000626A57EDAA5DB5AB364B2617B74F80C147
:101D2000048E0D3079042CE0373B61CEA18FB9F1E0
:101D300083BD0983057EC41FAF1C189C7C0B08FC67
:101D4000EA862208AEF429B081DFE7715CD6097813
:101D5000CE955FE939B71E798DFC3A8BFF7B636DB9
:101D6000B096524B69B437D8874A6A0DB5945AAACF
:101D70003B73EFE85A4A596C165B3B60ECB34B552A
:101D80008A142952B06D81EC83AEA58BCD6233DC11
:101D90001B606FAC0DD6526A298DF606FB5049AD1B
:101DA000A196524B7567EE1D5D4B298BCD626B077B
:101DB0000C4F70656E7E63686573743A0A596F756F
:101DC0007E666F756E647E676F6C647E6F6E6C7915
:101DD00021004F70656E7E63686573743A0A476FC1
:101DE0006C647E616E647E74726561737572652168
:101DF00000557067726164657E796F75727E576594
:101E000061706F6E210020204761696E7E616E7E79
:101E100041726D6F757221004865616C7E506F7400
:101E2000696F6E7E2B7E35485021004761696E7E5A
:101E3000617E506F69736F6E7E57616E6421002002
:101E40004761696E7E617E4963657E57616E64217C
:101E500000204761696E7E617E466972657E5761CA
:101E60006E6421000101010101010101020202026F
:101E700004040408084F70656E7E63686573743AE5
:101E800000D7BF1EF9EF1347FFCF169CBD7AF5CFE1
:101E9000C199AB675EF3E7F0EAD5337FE6A56B093E
:101EA00000108811021638124E8413618E70A1043E
:101EB0000C658E70229C403995430C00000027F57C
:101EC00082DC908C498910CA858C2237E4863C00DC
:101ED0002A048C810000B896AE1F1E4020061048D0
:101EE0008C400C201015046200811880BDF7DE07BD
:101EF000D6426EC80DB971D827208006B8EC2B7277
:101F0000436EC80DB92137E4865CF7058802014E9F
:101F1000FBC00DB92137642D0E7BEFBD016200813E
:101F2000A820100308C400C60410880104728E178C
:101F3000402E085C2817EA8172C176246314E802F7
:101F40005C3414192CE486DC38EC131040035CF686
:101F500015B92137E486DC901B7243AEFB02448145
:101F600000A77DE086DC90C5404ACA1258053A4673
:101F7000325AB9500E960B2017CA05818B5917B7E4
:101F80004F80C1048E0D3079042CE0373B61CEA127
:101F90008FB9F183BD0983057EC41FAF1C189C7CDB
:101FA0000B08FCEA862208AEF429B081DFE7715CF9
:101FB000D60978CE955FE939B71E798DFC3A8BFF4B
:101FC0007B636DB096524B69B437D8874A6A0DB5BA
:101FD000945AAA3B73EFE85A4A596C165B3B60EC83
:101FE000B34B558A142952B06D81EC83AEA58BCDCD
:101FF0006233DC1B606FAC0DD6526A298DF606FB8E
:102000005049ADA196524B7567EE1D5D4B298BCDA6
:10201000626B070CD7BF1EF9EF1347FF5F21E4BFC8
:102020005659161600FC02020202020202020202C5
:102030000202020202020202FC0000FF0000000D88
:102040001219120D00040E0400111F100000FF00F1
:10205000000F101010101010101010101010101091
:10206000101010100F0000FC020202020202020215
:1020700002020202020202020202FC0000FF000051
:10208000150C1B06150000040E0400111F100000A3
:10209000FF00000F10101010101010101010101072
:1020A0001010101010100F0000FC020202020202B9
:1020B000020202020202020202020202FC0000FF0D
:1020C0000000061D0B1D060000040E0400111F1069
:1020D0000000FF00000F1010101010101010101052
:1020E00010101010101010100F0000FC020202025D
:1020F0000202020202020202020202020202FC00C8
:1021000000FF00000E1D3E1F0E0000040E0400170D
:10211000151D0000FF00000F1010101010101010FF
:10212000101010101010101010100F0000FC020200
:10213000020202020202020202020202020202027F
:10214000FC0000FF0000000F1321110F00040E041B
:1021500000111F100000FF00000F101010101010D1
:102160001010101010101010101010100F0000FCA4
:10217000020202020202020202020202020202023F
:102180000202FC0000FF000A040A001E0A04000408
:102190000E0400111F100000FF00000F101010109F
:1021A00010101010101010101010101010100F0040
:1021B0003B9F6FA8300051280080500022148008F7
:1021C00005204201885000221480080504000A807E
:1021D000001400010108A288228A22125044000043
:1021E0000404A00008400100840210A1004428005B
:1021F000110A40840210A100004201885000406092
:1022000080E59BFB00000080080080008C8537F093
:1022100006DEC0F3FE7BEC2378036FE00D64AD04B3
:1022200000000000000038ECDFB10F0000000000EB
:10223000C0DE833367CE5CF6DF633FE2CC99CBDE52
:102240000000000000C0617F9013E5C0ECA0088092
:102250000631800A858A80002A29982C413058410D
:102260001004011163446808A2558434209A8250F6
:1022700041100441104D00900882200842869D3193
:102280000D312049080052462707CA89033B97FFB2
:10229000C0EFF3304FB4A86C54362A27E7201B4810
:1022A0000002C439C809958DCA4665A3B251D9A8A0
:1022B0006C544E614C03042001761853D9A86C5419
:1022C000362A2DA779987716B206087480C01404B0
:1022D0005800022C000116807001810E10060808BB
:1022E0001710E800011680000B0AB0000458000225
:1022F0002C28C00210600108A380700101618030A9
:102300000A081B40800520C002106001084E4018DA
:102310000584B190050909FE01010101010101FED9
:10232000000101010101010100FE01010111010192
:1023300001FE000101010101010100FE0105010191
:10234000014101FE000101010101010100FE014105
:102350000111010501FE000101010101010100FE61
:1023600001450101014501FE0001010101010101D9
:1023700000FE01450111014501FE000101010101BD
:10238000010100FE01550101015501FE000101019D
:1023900001010101007FFFBF9FAB57AF1A29680EF3
:1023A0005EBD7AF54F1372EADFA6A7903F8557AF5F
:1023B0005EBD7AD5484173F0EA957F03805C00B931
:1023C000007201E402C805900B2017402EC0DF27E1
:1023D00037E512BC187E09F122B9A0B7FC3D800B8D
:1023E0000217042E085C10B8207041E082C00581FD
:1023F0000B02FF1CF86C4208C381140CC784508286
:1024000084911BC131904509F600001600011802A5
:1024100094121C03590C20001400011895CD9A1237
:102420004ECC6E64231927C6960310000A80008CD8
:10243000CA664D0927820316C920482821B9113AD6
:1024400044068B302A0706000520C877784878C7ED
:102450003F24E0004080018423EFB97AE6EAE4EA11
:10246000CFE6CADF8B2B9F030E0004184038F2CF53
:1024700016384160020070201C79CF819096009739
:1024800084508284913B767061208EF29CC02A2118
:102490001904092524370E5D94858CB128C1512477
:1024A0006C425A660641C2005CE51BC0090213007B
:1024B0008003E1C83F5E9C124E8C2D32588451B986
:1024C0006700200043F854060106321C84901C0566
:1024D000008002203828071722022000453EC1D87C
:1024E000222A2222881706CE453208124A488E191F
:1024F00004092524C70C820411C85CFC0B03362098
:10250000B001810D086C406003021B10D880C0062A
:10251000043620B001810D086C406003021B10D806
:1025200080C006043620B001810D086C40600302B3
:102530003180402820B001810D086C406003021BEF
:1025400010D880C006043620B001810D086C4060B0
:1025500003021B10D880C006043620B001810D088C
:102560006C406003021B10D880C0060436F0EF8276
:102570003367CE9C3973E6CC993367CE9C3973E6CA
:10258000CC993367CE9C3973E6CC993367CE9C39AE
:1025900073E6CC993367CE9C3973E6CC993367CE1A
:1025A0009C3973E6EF027FFF705A4B175BBB1D6CC3
:1025B000169BA5ABF05F45606F079BC566E95A4A5D
:1025C00019EE5D39B25CAA52B06D2B142952A4A841
:1025D000BAFC2F23D0B60288142952545DAA52B0F7
:1025E0006DBBB8F4B294321C58DD2C12941000C7A5
:1025F000C9FF10724310D418CE4029BA962EB67671
:102600005F58A4ABD6D0F8015969490B89A5FD0FD5
:102610009DACB4A485C4D23EF2101BACA5BAFB801D
:10262000591BACC5FA0E3DC400020903000807207F
:102630009CF8CF197A880104120600100E405886C3
:10264000A599B586467BCBE6B4962EB6763BDE04DE
:102650003A48800000FFF50B74900001001E0D3613
:102660004BD752CA70EFCA91E55295826D5BA1308B
:10267000793101F43F8813E029142952545DAA529C
:10268000B06DBBB8F4B29432DCD5CD62B328BA4E8B
:10269000FC5711C6C0CD62B328BA962EB6765F003D
:1026A00001020408102040808231813111241FBEB4
:1026B000CFEFDAE0DEBFCDBF12E0A0E0B1E0E6E0B0
:1026C000FCE602C005900D92AC38B107D9F726E0C0
:1026D000ACE8B2E001C01D92A33EB207E1F713E1FE
:1026E000C5E5D3E104C02197FE010E94BE34C43584
:1026F000D107C9F70E94A6310C94F6350C9400005E
:10270000CF92DF92EF92FF920F931F93CF93DF93BD
:102710006C017A018B01C0E0D0E0CE15DF0589F0B5
:10272000D8016D918D01D601ED91FC910190F08160
:10273000E02DC6010995892B11F47E0102C0219676
:10274000ECCFC701DF91CF911F910F91FF90EF90D8
:10275000DF90CF9008950E94F135DC01EC918E2F2F
:1027600090E0FC013197EE30F10508F0DFC0EA5A45
:10277000FF4F0C94BE34E8EBF6E08FE0DF011D92D2
:102780008A95E9F7CF010E94502A8EE991E050C066
:10279000E8EBF6E08AE1DF011D928A95E9F7CF01C7
:1027A0000E94502A8EE891E09093B9068093B80673
:1027B0001092C7061092C60686E791E09093C50670
:1027C0008093C40688E08093CD0681E08093CC0698
:1027D0001092C9061092CA061092C8068093CB06C2
:1027E0001092CE061092CF061092D00686E080930B
:1027F000D10699C0E8EBF6E080E1DF011D928A95F1
:10280000E9F7CF010E94502A86E691E028C0109295
:10281000BA068EEB91E064C0E8EBF6E08FE0DF01F2
:102820001D928A95E9F7CF010E94502A86E591E032
:102830009093B9068093B8061092C4061092C5060C
:102840001092C60670C0E8EBF6E080E1DF011D9251
:102850008A95E9F7CF010E94502A86E491E090938F
:10286000B9068093B8061092C4061092C50610925D
:10287000C6061092C70657C0E8EBF6E082E1DF011A
:102880001D928A95E9F7CF010E94502A86E391E0D4
:102890009093B9068093B8061092C4061092C506AC
:1028A0001092C6061092C7061092C8061092C9066A
:1028B0003AC0E8EBF6E086E0DF011D928A95E9F781
:1028C00086E291E09093B9068093B80680E8809301
:1028D000BA0680E48093BC06CF0108958EEA91E0A9
:1028E0009093B9068093B8061EC0E8EBF6E080E24C
:1028F000DF011D928A95E9F7CF010E94502A86E1F7
:1029000091E09093B9068093B80682E08093C40664
:102910008093C5068FEF8093C8061092D10610925F
:10292000D2061092D70688EB96E0089580E090E0FA
:1029300008952F923F924F925F926F927F928F9263
:102940009F92AF92BF92CF92DF92EF92FF920F933E
:102950001F93CF93DF9300D000D000D0CDB7DEB768
:102960007B014115510509F429C1FA01D490319632
:1029700074914E5F5F4FAD2DB0E0222309F1E72F38
:10298000E695E695E695AE2EB12CE1E0F0E0372F26
:10299000377011F4E0E0F0E0EA0DFB1DAE9F50014E
:1029A000AF9FB00CBE9FB00C1124033011F4AA0CE1
:1029B000BB1C2A9DF0012B9DF00D11244E0F5F1FB3
:1029C0000F3F09F402E05C01AA0EBB1E1A141B049F
:1029D0000CF0F4C0803891050CF0F0C09701270F7F
:1029E000311D121613060CF0E9C0F0E4EF16F104E5
:1029F0000CF0E4C04115510509F4E0C02E2D2770FC
:102A00002D839701F7FE02C0295F3F4F63E03595A4
:102A100027956A95E1F7F22FF7FE05C06D816623D1
:102A200011F0FFEFF20F97FF05C022273327281B75
:102A3000390B02C020E030E0E0E8AE16B10424F02B
:102A400060E8762E781A01C07D2C721AEF2E0F2EB8
:102A5000000CFF08FF3F1CF4CE2CC09401C0C12C19
:102A6000E1E0672F677009F4E0E07695769576955A
:102A70009E2E970EE90CF11C69E0E616F1041CF09D
:102A8000E8E09E2E9F1A1C2D1F0F60E81603800D94
:102A9000911D1124820F931F61E070E00D8002C030
:102AA000660F771F0A94E2F7033011F0E1E001C0EE
:102AB000E2E0EE2EF12CCD9C200D311D1124E29E82
:102AC0005001E39EB00CF29EB00C11246A01CA0CB6
:102AD000DB1C970121503109A20EB31E4A0D5B1D6C
:102AE000BB24BA94B69E9001B79E300D11242901E3
:102AF00040945094F90DFE83A719B109EA9FA02DC7
:102B00001124B0E0E79DA00DB11D11242E811217F4
:102B100009F454C09C0120573D4F4A015601612CD5
:102B2000671409F443C0F5013490369EF001379ED6
:102B3000F00D1124FA83E983E095F095FC83EB8393
:102B4000023019F45C824B8210C00B3F19F41A82D8
:102B500019820BC0F4013490369EF001379EF00DBF
:102B60001124E095F095FC83EB8317FD09C0F90172
:102B70003080EB81E321F9813E2E3F2AF90130823A
:102B8000FD81FF2359F017304CF4F901E058FF4F55
:102B900020803C8023203A80322830828E0C9F1C7B
:102BA000AE0CBF1C63942F5F3F4FBACF1F5FCA0E9E
:102BB000DB1E4A0F5B1F80589F4FA8CF26960FB68B
:102BC000F894DEBF0FBECDBFDF91CF911F910F9163
:102BD000FF90EF90DF90CF90BF90AF909F908F903D
:102BE0007F906F905F904F903F902F9008954F92FD
:102BF0005F927F928F929F92AF92BF92CF92DF921D
:102C0000EF92FF920F931F93CF93DF9300D000D0EA
:102C1000CDB7DEB7DC014115510509F4BAC0FA01A0
:102C2000D490319634914D2C512C5C01A40CB51CE0
:102C30001A141B040CF0ADC0803891050CF0A9C02B
:102C4000CB01830F911D181619060CF0A2C0603439
:102C500071050CF09EC0F62FF770EF2ECB0177FDBB
:102C6000079623E0959587952A95E1F7F82F77FF4A
:102C700004C0EE2011F0FFEFF80FB7FF05C0662784
:102C800077276A1B7B0B02C060E070E000E8A016AB
:102C9000B10424F080E8F82EFA1A01C0FD2CF61ACF
:102CA000AF2E0F2E000CBB08FF3F1CF4CA2CC094A3
:102CB00001C0C12C91E0832F877009F490E0369514
:102CC00036953695930FA90EB11C19E0A116B104E3
:102CD00014F098E09F1B8C2D8F0F9D01082F10E89A
:102CE0000103200D311D1124260F371F4E5F5F4F4A
:102CF000CD9C600D711D1124460F571F61E070E0DF
:102D00000E2C02C0660F771F0A94E2F7EFEFE69FE2
:102D1000D001E79FB00D1124A095B095BC83AB8383
:102D20007C809F0F8917A9F1F901E057FD4F6F01D2
:102D3000A12CB12CAF1438F5FA01EA0DFB1DE4917A
:102D4000E69F4001E79F900C11249A82898287FDBB
:102D500007C0F6011081E12FEA238E2AF601808256
:102D6000EE2051F0873044F4F601E058FF4F908098
:102D700097208A8098289082FFEFAF1ABF0A0FEF42
:102D8000C01AD00AD7CF8F5F440D551D20583F4F32
:102D9000C9CF0F900F900F900F90DF91CF911F919F
:102DA0000F91FF90EF90DF90CF90BF90AF909F90EA
:102DB0008F907F905F904F9008958F929F92AF92E7
:102DC000BF92EF92FF920F931F93CF93DF93CDB7F4
:102DD000DEB7A1970FB6F894DEBF0FBECDBF7C0162
:102DE000262F30E040E050E019A28E010F5D1F4F0A
:102DF0008AE0882E912CA12CB12CCA01B901A50121
:102E000094010E947934605DD8016E938D01211583
:102E100031054105510589F7109791F0C701FD0172
:102E200001900020E9F73197AF014A1B5B0BD701F6
:102E3000ED91FC910280F381E02DB801099502C06B
:102E400080E090E0A1960FB6F894DEBF0FBECDBF34
:102E5000DF91CF911F910F91FF90EF90BF90AF90B6
:102E60009F908F9008952F923F924F925F926F9212
:102E70007F928F929F92AF92BF92CF92DF92EF920A
:102E8000FF920F931F93CF93DF93CDB7DEB72C97AD
:102E90000FB6F894DEBF0FBECDBF6C01FA013491BE
:102EA0003196E491832F8F778F5FA82EB12CBB8250
:102EB000AA82C5018C0D9D1D97FD69C100E8C01651
:102EC000D1040CF064C18E2F8F738F5FDB01A80FCC
:102ED000B11DB7FD5CC1603471050CF058C1331FE2
:102EE0003327331F398331E0E6FF30E0EE1FEE2752
:102EF000EE1FEC833B0177FF04C066247724661A3B
:102F0000770A17E061227724FB0177FD37964F019E
:102F1000E3E095948794EA95E1F777FF0CC061149C
:102F2000710449F061E0861A910868E070E0DB0105
:102F3000A619B7093D0161E070E05B01062C02C0F3
:102F4000AA0CBB1C0A94E2F7BE82AD82682F66957C
:102F500066956695877009F06F5FE12CF12C97E01C
:102F6000A0E1B0E080E0412C512C212C312C062F27
:102F7000660F110B18870F830F81188520163106F5
:102F80000CF005C15D0101E010E0F50173E0F6957C
:102F9000E7957A95E1F7E40FF51FE491F0E0B501CC
:102FA0006770772702C0F595E7956A95E2F7D50136
:102FB0001196E0FF04C00F5F1F4F5D01E6CF0130A7
:102FC0001105C1F4FD0163E0F695E7956A95E1F717
:102FD000E40FF51F649170E0A770BB2702C07595E0
:102FE0006795AA95E2F7617077276F5F7F4FD501EC
:102FF00012963CC00150110961E070E0002E02C041
:10300000660F771F0A94E2F76F5F7F4FA12CB12CF8
:10301000FD01F695E795F695E795F695E795E40FAA
:10302000F51FF491EF2FF0E0FA87E987FD01E770D3
:10303000FF27FC87EB87E985FA850B8402C0F595AD
:10304000E7950A94E2F7E0FF0AC0E1E0F0E00A2C1D
:1030500002C0EE0FFF1F0A94E2F76E0F7F1F11965A
:10306000FFEFAF1ABF0AA016B10694F21C861B86AA
:10307000EB85FC85E617F70709F483C0A980AA2031
:1030800069F0E92FF0E0311105C007E010E00E1BF8
:103090001F0BF801E65FFE4FE0818E2B915008F088
:1030A00069C0882309F449C0122D180D18300CF09E
:1030B00044C0F701EC0DFD1DE038F105F0F5AD80E1
:1030C000BE808A9DF0018B9DF00D1124FA87E9875F
:1030D00017FD16C0C60100E81003800D911D1124D4
:1030E0008E0D9F1D80579D4FFC010081222319F0FA
:1030F000F9850F2B03C0B984B0940B21FC01008328
:1031000061147104D1F01730C1F01F3FB4F0C60153
:1031100000E81003800D911D11248E0D9F1D805F0E
:103120009C4FFC011081222319F0FA851F2B03C04C
:10313000EA85E0951E23FC011083AC80AA2019F0DB
:10314000BB24B3943B250FEF401A500A8A819B8120
:103150004816590634F49FEFE91AF90A97E080E01F
:1031600009C0EFEF2E1A3E0AE12CF12C97E080E027
:10317000412C512C0B851C850F5F1F4F1C870B8723
:1031800077CFAA24A394B980AB18A982F5CE2C9648
:103190000FB6F894DEBF0FBECDBFDF91CF911F9168
:1031A0000F91FF90EF90DF90CF90BF90AF909F90E6
:1031B0008F907F906F905F904F903F902F900895E9
:1031C000CF93DF9300D000D0CDB7DEB76115710586
:1031D0008105910579F09B01AC0169833A834B83AA
:1031E0005C830E94233429813A814B815C810E9457
:1031F000473403C060E070E0CB010F900F900F9058
:103200000F90DF91CF910895EF92FF920F931F934C
:10321000CF93DF938C017B01C0E0D0E0F701EC0F8E
:10322000FD1F6491662361F0D801ED91FC9101903E
:10323000F081E02DC8010995892B11F02196EECF80
:10324000CE01DF91CF911F910F91FF90EF900895E4
:103250003FB7F8948091DA069091DB06A091DC06E6
:10326000B091DD0626B5A89B05C02F3F19F0019649
:10327000A11DB11D3FBFBA2FA92F982F8827820FFC
:10328000911DA11DB11DBC01CD0142E0660F771F4C
:10329000881F991F4A95D1F708951F920F920FB674
:1032A0000F9211242F933F938F939F93AF93BF93CC
:1032B00080918C0290918D02A0918E02B0918F022C
:1032C0003091D90623E0230F2D3720F40196A11D5C
:1032D000B11D05C026E8230F0296A11DB11D209344
:1032E000D90680938C0290938D02A0938E02B093A6
:1032F0008F028091DA069091DB06A091DC06B091F6
:10330000DD060196A11DB11D8093DA069093DB06C0
:10331000A093DC06B093DD06BF91AF919F918F9192
:103320003F912F910F900FBE0F901F9018950F9304
:103330000AEF0E9499140F9108950F9302E00E94E2
:1033400099140F910895F89487E78093000880936B
:103350000108A89588E18093600088E08093600070
:10336000FFCF8F929F92AF92BF92CF92DF92EF9258
:10337000FF926C01E12CF12C0E9428194B015C0199
:10338000C114D104E104F104F1F00E942819DC0118
:10339000CB0188199909AA09BB09883E9340A10568
:1033A000B10570F321E0C21AD108E108F10888EEF6
:1033B000880E83E0981EA11CB11CC114D104E10445
:1033C000F10419F7DDCFFF90EF90DF90CF90BF9021
:1033D000AF909F908F9008958FB18095807F669B6E
:1033E00088601C9B84600895FC01840F911D181651
:1033F0001906E4F5E038F105CCF5F7FF02C0E0E08E
:10340000F0E08138910514F080E890E0382F3E1B01
:10341000AB0177FF02C0495F5F4F83E05595479549
:103420008A95E1F75695542F442757954795E40F11
:10343000F51FE057FD4F6770772781E090E001C0EE
:10344000880F6A95EAF7482F222349F0213071F45A
:10345000315020F08081842B8193FACF089580959C
:10346000315020F0908198239193FACF0895EF92F4
:10347000FF920F931F93CF93DF937C01EB0121E029
:1034800049E067E370E0CE010E94F41921E049E0D1
:103490006FE370E0CE010E94F41907E310E021E031
:1034A000A801BE01C7010E9463310F5F1F4F0034A6
:1034B0001105A9F7289607E310E021E0A801BE0155
:1034C000C7010E9463310F5F1F4F00341105A9F738
:1034D000DF91CF911F910F91FF90EF9008956F9220
:1034E0007F928F929F92AF92BF92CF92DF92EF9294
:1034F0000F931F93CF93DF934C016A01EB013B01C4
:10350000620E711C5A01A00EB11CC615D705DCF461
:103510008601D7FE0EC000E010E00BC008171907A7
:1035200084F42E2DA801BE01C4010E9463310F5FF7
:103530001F4FC50121E4A216B10484F380E490E09A
:10354000EDCF2196E2CFDF91CF911F910F91EF90B8
:10355000DF90CF90BF90AF909F908F907F906F90B3
:1035600008954F925F926F927F928F929F92AF9247
:10357000BF92CF92DF92EF92FF920F931F93CF9360
:10358000DF93EC014B01DB01ED91FC910480F581AF
:10359000E02DCB0109952C01D401ED91FC91048023
:1035A000F581E02DC40109956C01D401ED91FC91E8
:1035B0000480F581E02DC4010995F2018481958193
:1035C00064E170E00E94AA34BB24B3940B9708F422
:1035D000B12C21E045E056E060E070E080E090E052
:1035E0000E94331721E04FEA55E060E070E089E582
:1035F00090E00E94331721E04FE655E060E070E074
:1036000089E690E00E94331721E044E155E060E054
:1036100070E080E090E00E943317D401ED91FC91BE
:103620000480F581E02DC4010995FC01808187307B
:1036300049F0883011F0863051F444EF52E00BED40
:1036400013E009C048EB52E009E213E004C040E097
:1036500050E000E010E020E060E070E08AE390E0FD
:103660000E94331721E0A80160E070E08AE390E057
:103670000E94331721E04BE854E060E070E083E201
:1036800090E00E9433178C85811114C0BB2091F00B
:1036900019868E858A3010F02AE001C025E0EE24DC
:1036A000E39407E042E050E064E170E0C20101967B
:1036B0000E946F1A15E11E831F8382E088873E01F6
:1036C000F2E06F0E711C6E85C3010E94DD1681E071
:1036D00089871E831F838AE088876F85C3010E94C4
:1036E000DD161E831F8384E18887D60158966C916E
:1036F000C3010E94DD161E831F838EE18887F601B9
:10370000618DC3010E94DD161E831F8388E28887B6
:10371000D6015A966C91C3010E94DD168A8D8111E3
:1037200004C08F8D882351F117C0880F880F9DE149
:10373000F92EF80E2DE1E22E82010F5F1F4FFE14CD
:1037400080F34E2D50E022E060E070E0C8010E945E
:103750006331E394E394F3CF07E210E07201BFEF2B
:10376000EB1AFB0A22E0A80160E070E0C7010E94AA
:1037700063310E5F1F4F01331105A1F710E0D60131
:1037800056968C91181788F4FE01E10FF11D2AE07E
:10379000129FC0011124218948E352E064E370E0E4
:1037A00003960E949D191F5FEACF9C85935092302B
:1037B00088F49889973011F4BB2061F0BAE08B9FB0
:1037C000C001112420E042E352E065E370E003967B
:1037D0000E949D198C858350823050F5B11028C00D
:1037E000688967FD25C06330ACF067300CF5062EA4
:1037F000000C770B635071092AE0269FC001279FB8
:10380000900D112403E020E04CE052E064E370E00E
:1038100003960CC0EAE06E02B00111246D5E7F4F8A
:1038200003E020E04CE052E083E090E00E94991435
:1038300001E08C85813009F000E0A12CC12CE12C45
:1038400020E041E0B401CE010E940C288C85883034
:1038500009F465C038F4863009F442C0873009F4B1
:1038600057C075C08C3008F072C0E12C00E22EE524
:103870004AE050E061E170E0C20101960E946F1AD7
:1038800021E04CE56BE070E082E190E00E94F419E9
:1038900021E04CE568E270E082E190E00E94F419DA
:1038A00084E18E838F838EE08887EC85F0E0EE0FD5
:1038B000FF1FE252FE4F60817181C301DF91CF9102
:1038C0001F910F91FF90EF90DF90CF90BF90AF903E
:1038D0009F908F907F906F905F904F900C94041901
:1038E000D401ED91FC910480F581E02DC40109958E
:1038F000CC24C394FC018081873009F0C12CA12C19
:10390000E12C00E021E041E0B401CE010E940C284E
:1039100046EA51E068E170E087E290E006C045E9E0
:103920005DE068E170E086E290E0DF91CF911F9169
:103930000F91FF90EF90DF90CF90BF90AF909F904E
:103940008F907F906F905F904F900C94F715DF9160
:10395000CF911F910F91FF90EF90DF90CF90BF908C
:10396000AF909F908F907F906F905F904F90089551
:10397000EF92FF920F931F93CF93DF938C01EB0194
:10398000E881F9810480F581E02DCB01099542960B
:103990007C01E881F9810480F581E02DCE01099553
:1039A000DC018C918730C1F08830B1F08630C1F4F1
:1039B000E881F9810480F581E02DCE010995DC01D3
:1039C0001E96EC91EF3028F4F0E0E152FE4F60815A
:1039D00001C064E06F5F01C062E0C7010E941B2765
:1039E00086E0F8018487DF91CF911F910F91FF90BE
:1039F000EF9008958F929F92AF92BF92CF92DF92F5
:103A0000EF92FF920F931F93CF93DF9300D0CDB728
:103A1000DEB78C017B01DB01ED91FC910480F58127
:103A2000E02DCB0109954C01D701ED91FC9104806B
:103A3000F581E02DC70109956C01D701ED91FC914D
:103A40000480F581E02DC7010995F401B780B09499
:103A50002681B222D8011C96EC914E2F50E04C30BA
:103A6000510508F02CC2FA01EC59FF4F0C94BE34FA
:103A7000F801818D863408F022C28F5F818F8634F1
:103A800009F01DC2118E8585848733C0D8015996EF
:103A9000EC91E131A0F5F0E0EB56FE4F649170E05F
:103AA000F401848195810E94AA34892B09F007C210
:103AB000F12CD60156968C91F816B8F45801AF0C3B
:103AC000B11CD5015B968C9181110DC066E070E050
:103AD00080E090E00E94E018DC01CB010196A11D7E
:103AE000B11DF501818BF394E4CFF801818D8F5FD7
:103AF000818FD40115961C921E921497E0C1F80193
:103B00008189863059F08289863051F083898630E8
:103B100049F08489863041F087E007C083E005C022
:103B200084E003C085E001C086E0D80150968C9304
:103B300041E0B701C8010E94992E83E0DDC0B5FEC7
:103B40002AC0D80150968C91509787302CF054960B
:103B50009C91963019F417C0863029F4F8019389A6
:103B6000963019F412C0853031F4D80152969C91E8
:103B7000963019F40CC0843059F4F80191899630CC
:103B800039F483E005C086E003C085E001C084E02D
:103B9000D80150968C93B6FE2BC0F80180898330F3
:103BA00024F48189863019F41AC0833031F4D801A5
:103BB00052968C91863019F414C0843029F4F8019F
:103BC0008389863019F40FC0853031F4D8015496BA
:103BD0008C91863051F40AC0863041F406C083E0EF
:103BE00005C084E003C085E001C087E0F801808B58
:103BF000B3FE65C1D8015096EC91E3300CF45FC17F
:103C0000E73034F0E73009F05AC1C12CD12C1EC086
:103C1000D80159961C9259970E2E000CFF0B339722
:103C2000E00FF11F138E85898F5F858B82E06BC05B
:103C3000F801EC0DF11D8189813039F0D80E8589AC
:103C4000982F990F890F880FD80EC394D701ED9143
:103C5000FC910480F581E02DC7010995FC0186895E
:103C6000C81630F3D8015F968C91811182E0D80E8E
:103C7000F801868590E08D1991098F31910514F036
:103C80008EE190E097FF02C080E090E0D8011E96A0
:103C90008C9340E0B701C8010E94992EF8018685F7
:103CA000811105C0B701C8010E94B81C08C1118E5E
:103CB0004FEFB701C8010E94CF2E83300CF08FEF79
:103CC000F801808BDD2081F08F3F49F41486828DCE
:103CD000811102C085E006C082E0D801B0C0F801C1
:103CE000148684E08587EBC08F3F81F4D8015A9613
:103CF0008C91811106C085E0F8018487E0C0B3FE95
:103D0000DEC082E0D8011C968C93D9C084E0F4CF49
:103D1000B7FE26C0D80150962C91D701ED91FC91A9
:103D20000480F581E02DC7012A830995FC012A81D1
:103D3000233024F0828D81110EC002C0223021F484
:103D4000818D882319F009C0213041F4808D8823AA
:103D500029F020E003C022E001C021E0F801208B1F
:103D6000B4FE09C0D80150964C91B701C8010E9419
:103D7000CF2EF801808BB3FEA2C0D80150968C9153
:103D80005097813021F1823079F18111AFCFF60166
:103D9000808D8150808F1E968C9190E00A978F3194
:103DA000910514F08EE190E097FF02C080E090E072
:103DB000D8011E968C9340E0B701C8010E94992E4D
:103DC000F8018685882309F46DCF8AE096CF82E0DA
:103DD000D8015A968C935A9789E01C968C93F601D9
:103DE000818D8150818F6BC081E0D8015F968C936B
:103DF0005F978BE01C968C93F601828D8150828FA9
:103E00005EC0F601858990E0D8011F962C91821B37
:103E100091092289820F911D8531910514F084E169
:103E200090E097FF02C080E090E0F601858B892B3F
:103E300049F481E0D8011C968C931C9788E01D966C
:103E40008C933DC040E0B701C8010E94992E81E0EB
:103E5000F801848782E046CFD80159968C91599712
:103E6000863468F58F5F59968C935997863439F567
:103E700087E049CFB3FE23C021E0FC01218BB601CE
:103E80006E5E7F4F0D960E94DD26D701ED91FC916D
:103E90000084F185E02D8BE009C0B3FE10C0D7018E
:103EA000ED91FC910084F185E02D8AE08983BE01CB
:103EB0006F5F7F4FC701099502C0B3FC1CCF0F9005
:103EC0000F90DF91CF911F910F91FF90EF90DF90B6
:103ED000CF90BF90AF909F908F900895EF92FF92F8
:103EE0000F931F93CF93DF93EC017B01DB01ED91E7
:103EF000FC910480F581E02DCB0109958C0140E017
:103F0000B701CE010E94992ED701ED91FC9104805A
:103F1000F581E02DC7010995FC018081873029F1E9
:103F2000883009F447C0863009F056C0D8011E9683
:103F3000FC9066E070E080E090E00E94E018DC0118
:103F4000CB010196A11DB11D6F2D680F6E87D801A1
:103F50001E96EC91EF3028F4F0E0E152FE4F8081A4
:103F600001C084E0880F8E5F36C0D8011E96EC91A8
:103F7000EF3028F4F0E0E152FE4F908101C094E070
:103F8000892F880F880F980F965F9E87D8011E96FD
:103F9000EC91EF3038F4F0E0E152FE4FE081E53093
:103FA00038F401C0E4E0F0E0E652FE4F808113C037
:103FB00080E011C0F801168566E070E080E090E0D6
:103FC0000E94E018DC01CB010196A11DB11D612FFB
:103FD000680F6E8785E08F8782E08D87DF91CF91B4
:103FE0001F910F91FF90EF900895893061F028F4B0
:103FF000823049F0853029F406C08E3021F08331BB
:1040000011F080E0089581E008950895FC01128286
:10401000138280E4848381E085830895AF92BF9208
:10402000CF92DF92EF92FF920F931F93CF93DF9384
:104030001F92CDB7DEB77C018B01DB01ED91FC91C6
:104040000480F581E02DCB0109955C01D801ED914B
:10405000FC910480F581E02DC80109956C01F50102
:104060009781909526819223D70156968C91813025
:1040700021F120F0823009F44EC05CC0F50184814A
:10408000958165E070E00E94AA34892B09F052C046
:10409000D70158968C91589759969C9159978917A2
:1040A00020F48F5F58968C9345C08FEFF701808F77
:1040B00081E0868B87E0878B3DC097FF0AC0D601E1
:1040C00050968C91823011F0853019F48150F601B0
:1040D000808B94FF0AC0D60150968C91813011F0EC
:1040E000843019F48F5FF601808B93FF23C0D801D1
:1040F000ED91FC91E084F1840480F581E02DC8010C
:104100000995F601608970E0655E7F4F680F791F41
:10411000C801F7010EC093FF0DC0D801ED91FC91CD
:104120000084F185E02D8AE08983BE016F5F7F4FB7
:10413000C80109950F90DF91CF911F910F91FF90CA
:10414000EF90DF90CF90BF90AF9008957F928F92C5
:104150009F92AF92BF92CF92DF92EF92FF920F9316
:104160001F93CF93DF93EC014B01DB01ED91FC91A9
:104170000480F581E02DCB0109955C01D401ED911E
:10418000FC910480F581E02DC40109958C01D401D6
:10419000ED91FC910480F581E02DC4010995F501B4
:1041A000E480F58021E049E652E160E070E080E0E3
:1041B00090E00E94331721E043E152E160E070E0BB
:1041C00089E590E00E94331721E043ED51E160E082
:1041D00070E089E690E00E94331721E041EC51E164
:1041E00068E270E080E090E00E94331721E04DEA41
:1041F00051E168E270E08FE490E00E94331729E01B
:10420000C22ED12C21E044E951E168E270E0C60100
:104210000E943317FEE0CF0ED11C8FE4C816D104E4
:1042200089F78C85843018F4823068F06BC0843054
:1042300009F085C045E95DE068E170E086E290E064
:104240000E94F7157CC093E0792E7E827F8278866B
:104250006E01A2E0CA0ED11C68E871E1C6010E949D
:10426000041982E48E838F8378862E8548E051E19D
:1042700062E070E083E390E00E949D198C858130BC
:1042800009F05DC0C70168E170E00E94AA349C019A
:1042900091E02D30310508F490E08D85863410F4DE
:1042A000911119863E85F8012289231798F08634EA
:1042B00070F4992361F0EE24E39407E02FE043E0EB
:1042C00050E060E470E0C50101960E946F1A64E05E
:1042D00071E112C0863470F4992361F0EE24E39406
:1042E00007E02BE043E050E060E470E0C501019698
:1042F0000E946F1A61E071E1C6010E94041981E019
:1043000089871DC02E8521504FEF5DE068E070E089
:104310008CE190E00E949D198C85833081F484E0CB
:104320008E838F831886EE85F0E0EE0FFF1FE15D30
:10433000FD4F60817181CE0102960E9404198E8525
:10434000AA24A394813009F0A12CCC24C3948230F8
:1043500009F0C12CEE24E394833009F0E12C01E054
:10436000843009F000E021E0853009F020E08C8500
:10437000833021F441E08D85863408F040E0B401BB
:10438000CE010E940C28DF91CF911F910F91FF90D9
:10439000EF90DF90CF90BF90AF909F908F907F90E5
:1043A0000895AF92BF92CF92DF92EF92FF920F9358
:1043B0001F93CF93DF9300D01F92CDB7DEB78C0150
:1043C0006B01DB01ED91FC910480F581E02DCB01C7
:1043D00009955C01D601ED91FC910480F581E02DF9
:1043E000C60109957C01BC016E5E7F4FD601ED913F
:1043F000FC910480F581E02DC6016A837B830995D9
:10440000DC01AC01435F5F4FF50127812095968168
:104410002923F80194856A817B81923009F128F47F
:104420009923F1F0913041F0DBC0933009F4B5C02D
:10443000943009F4C6C0D4C08585863418F48F5FE3
:104440008587CEC023FFCCC0F8019685D701529650
:104450008C91891708F0AAC0F801158682E08EC0F9
:10446000F8018585813130F5E82FF0E0EC57F24F07
:10447000649170E0D50114968D919C9115970E94DE
:10448000AA34892B09F0ACC066E070E080E090E0CF
:104490000E94E018DC01CB010196A11DB11DF801BD
:1044A000868785858F5F8587D50115961C921E921C
:1044B000149796C0F801923009F067C08685833062
:1044C00001F128F4813061F08230A1F04BC08530D9
:1044D00041F1F70195898530F0F0863061F142C0F5
:1044E000D70153968C9153978823E1F181505396CD
:1044F0008C9338C0F70184898823A1F18150848B83
:1045000031C0D70152968C915297882359F181502E
:1045100052968C9327C0923028F19150F701958BD9
:1045200021C0D70157968C9157978230D8F081508F
:1045300057968C9317C09430A0F09350F701958B49
:104540001E969C911E979A3020F4963030F49D5F11
:1045500005C09F3038F49B5F01C09C5F1E969C9302
:1045600001C0158AF7018589882351F0D501159678
:104570001C921E921497F801158683E0848730C040
:1045800084E0D8011C968C932BC01586D501159616
:104590001C921E92149781E0F1CFF8018585863434
:1045A00018F48F5F85871CC023FF1AC0CA010E94C0
:1045B000DD26D601ED91FC910084F185E02D8BE0A4
:1045C00009C023FF0DC0D601ED91FC910084F18557
:1045D000E02D8AE08983BE016F5F7F4FC601099598
:1045E0000F900F900F90DF91CF911F910F91FF903F
:1045F000EF90DF90CF90BF90AF9008950F931F93EF
:10460000CF93DF93EB01E881F9810480F581E02D00
:10461000CB010995E881F9810480F581E02DCE0177
:1046200009958C01E881F9810480F581E02DCE01A6
:10463000099521E046E25BE060E070E080E090E018
:104640000E943317F8012585243050F430E0F90139
:10465000E35DFD4F8081F901E75DFD4F408102C0C0
:1046600040E080E021E06FE370E090E0DF91CF91E7
:104670001F910F910C94F4196F927F928F929F92D9
:10468000AF92BF92CF92DF92EF92FF921F93CF93A0
:10469000DF931F92CDB7DEB77C016B01DB01ED919B
:1046A000FC910480F581E02DCB010995D601ED91B7
:1046B000FC910480F581E02DC601099521E04AE6D0
:1046C0005AE06EE070E08EE190E00E943317F7014F
:1046D000828187FD42C0248130E08381281B31091B
:1046E00037FF02C02F5F3F4F35952795122F812C42
:1046F000912C20E8622E712CF7014281811640F541
:104700005401AA0CBB1CD70113968C91B501680FFC
:10471000711D603471052CF420E080E090E00E946F
:10472000F419F7018381B501680F711D6F5F7F4F29
:1047300082816034710544F420E0482FD301A81B26
:10474000B109CD010E94F419BFEF8B1A9B0AD4CF97
:1047500047FD03C08581480F4283D70112968C9193
:1047600087FF0DC0D601ED91FC910084F185E02D0D
:104770008DE08983BE016F5F7F4FC60109950F9061
:10478000DF91CF911F91FF90EF90DF90CF90BF907E
:10479000AF909F908F907F906F900895AF92BF924F
:1047A000CF92DF92EF92FF920F931F93CF93DF93FD
:1047B0001F92CDB7DEB76C018B01DB01ED91FC914F
:1047C0000480F581E02DCB0109955C01D801ED91C4
:1047D000FC910480F581E02DC80109957C01D80188
:1047E000ED91FC910480F581E02DC8010995FC0153
:1047F000D50116962C91169717969C919095922319
:10480000D60124FF0BC012968C911297803120F4B0
:104810008F5F12968C9304C00E94A31912961C926B
:1048200095FF05C08585882311F08150858796FF07
:1048300005C08585833010F48F5F858793FF39C06D
:104840009585990F990FF701178AE92FF0E0EA5E35
:10485000F44FE491D7015296EC935297E1E0E90FBF
:10486000F0E0EA5EF44FE4915596EC935597E2E060
:10487000E90FF0E0EA5EF44FE4915496EC9354971C
:104880009D5FE92FF0E0EA5EF44FE4915396EC93DC
:10489000539781E056968C93D801ED91FC9100845A
:1048A000F185E02D8BE08983BE016F5F7F4FC801EA
:1048B00009950F90DF91CF911F910F91FF90EF908D
:1048C000DF90CF90BF90AF9008952F923F924F927C
:1048D0005F926F927F928F929F92AF92BF92CF9290
:1048E000DF92EF92FF920F931F93CF93DF93CDB799
:1048F000DEB729970FB6F894DEBF0FBECDBF9987FC
:1049000088874B01DB01ED91FC910480F581E02D5E
:10491000CB0109953C01D401ED91FC910480F58116
:10492000E02DC40109959B838A83D401ED91FC910C
:104930000480F581E02DC40109959D838C83D40109
:10494000ED91FC910480F581E02DC4010995EA8187
:10495000FB81578481E0A885B98553968C93539742
:1049600050961C92509751961C92519752961C92B9
:1049700086858F3030F4E82FF0E0E65EFD4FE08171
:1049800001C0E4E0F0E0EE0FFF1FE05FFD4F60814B
:104990007181888599850C960E94041921E04AE26C
:1049A0005AE060E070E089E690E00E943317C12C85
:1049B000D12C21E04FE15AE062E170E0C6010E9493
:1049C000331721E045E15AE062E370E0C6010E943E
:1049D0003317BAE0CB0ED11CE4E6CE16D10449F76A
:1049E00021E048EF59E062E170E082E690E00E9449
:1049F0003317A12CC12CE12C00E020E041E0B401F0
:104A0000888599850E940C28D30114968D919C91DC
:104A100015976CE070E00E94AA349F838E83C12CAE
:104A2000D12C1301BFEF2B1A3B0A1C2DE885F98509
:104A3000808D8C1508F4D3C0F601EF50F64FF4903A
:104A4000F601E651F64F84918983F601ED51F64F58
:104A50004490A885B98557968C91873021F05410E1
:104A600002C0811115C0B9816B2E712C20E04EEC73
:104A700059E0B301AF2C0F2C000CBB08C5010E94FC
:104A8000331721E04EE659E0B301C5010E94331708
:104A9000E885F985808D8F3FE1F4AA81BB8150962E
:104AA0008C91811316C0EE81FF81379790F0AC8115
:104AB000BD8153968C91882361F0B9816B2F70E092
:104AC00020E046E459E08F2D0F2C000C990B0E943A
:104AD0003317451490F0541006C0E885F98587898E
:104AE000882359F0B8C0163009F079C0A885B98577
:104AF00059968C91863009F0B2C0B9816B2E712C19
:104B0000AF2C0F2C000CBB08E3E0AE0EB11CA301D0
:104B10004C5F5F4FE12C05E12EE0B501C1010E9421
:104B20006F1A163031F4A885B98559968C91863064
:104B300071F0D401ED91FC910480F581E02DC40168
:104B400009958C0D9D1DFC01238D215001C027E08E
:104B5000B3016A5F7F4F44E658E0C5010E94971990
:104B600054103DC0A885B98557968C9157978823D6
:104B7000B1F158968C918F3F91F5B981AB2EB12C44
:104B80006F2CFF0C7708A5014C5F5F4FB3016D5F81
:104B90007F4FE12C05E12EE0C1010E946F1AA8852C
:104BA000B9855796EC91F0E0EE0FFF1FE050FE4FF5
:104BB0004081518120E0B501C3010E943317A885CF
:104BC000B9855796EC91F0E0EE0FFF1FEE50FE4FC7
:104BD0004081518121E0B501C3010E943317BFEF2D
:104BE000CB1ADB0AE7E0CE16D10409F01ECFA88568
:104BF000B98557968C915797882341F058969C9188
:104C000058979F3F19F4815057968C93E885F98502
:104C10008689823039F545E95DE068E170E086E239
:104C200090E029960FB6F894DEBF0FBECDBFDF919E
:104C3000CF911F910F91FF90EF90DF90CF90BF9099
:104C4000AF909F908F907F906F905F904F903F902C
:104C50002F900C94F715163009F084CF47CF5410DD
:104C6000C6CF80CF29960FB6F894DEBF0FBECDBF5A
:104C7000DF91CF911F910F91FF90EF90DF90CF9038
:104C8000BF90AF909F908F907F906F905F904F906C
:104C90003F902F900895089580E090E00895089542
:104CA0000895FC01DB018C9182838C9184A381E0C7
:104CB00085A3089502960895029608952BE0629FB9
:104CC000C001112468E370E085599F4F0C94F715DB
:104CD0000F93CF93DF93FC016A3039F4858184838D
:104CE00096818185890F86834EC084816E3719F441
:104CF0008E5F848348C0262FEF0166816F5F2A3361
:104D000074F42033F4F42B32F1F01CF42132F9F076
:104D10002CC02D3281F12E3241F52FE319C02B35F5
:104D200044F4213464F42A3381F02F33F1F422E483
:104D30000FC09FE9920F9A31C0F4275409C0215443
:104D400007C02C5F05C021E403C023E401C02EE3AB
:104D50003F81062E000C770B082E000C990B31308A
:104D600061F44AEF52E10E94971988858D5F9C811A
:104D7000890F8C8308C020E4EBCF0BEF4AEF52E1A0
:104D80000E949914F2CF81E090E0DF91CF910F91D2
:104D900008950C9459350C9459350C9459350C944C
:104DA00059350C9459350C9459350C9459350C944B
:104DB00059350C9459350C9459350F931F93CF9353
:104DC000DF93EC018A818F5F8A83833091F08B01BE
:104DD000843030F4813059F0823069F481E009C0C8
:104DE000843039F0853039F486E08B830EC01B8225
:104DF0001DC08B831BC0863031F489810E94F51F52
:104E0000811108C013C0853089F489810E94F51F83
:104E100081110CC0F801818181508183882331F098
:104E20001A8289818F5F89831B821C82DF91CF91D7
:104E30001F910F910895FC019581690F658366307C
:104E400038F08481843020F4665065838F5F8483DA
:104E500008958F929F92AF92BF92CF92DF92EF927E
:104E6000FF920F931F93CF93DF931F92CDB7DEB7BF
:104E70007C018B01DB01ED91FC910480F581E02D3B
:104E8000CB0109956C01D801ED91FC910480F5816D
:104E9000E02DC80109955C014C01B2E18B0E911C1B
:104EA000D801ED91FC910480F581E02DC8010995B0
:104EB000AC01F6019781909526819223D7011C962B
:104EC0002C91213009F46AC020F0223009F487C007
:104ED00095C0D7011D96EC91E13118F5F0E0ED5148
:104EE000FC4E649170E0F601848195810E94AA34A1
:104EF000892B09F083C066E070E080E090E00E94BA
:104F0000E018DC01CB010196A11DB11DF7018687D8
:104F100085858F5F8587D60115961C921E92149702
:104F20006DC0F70196859330E1F028F4913041F09F
:104F3000923081F02BC09430F1F0953009F126C009
:104F4000D50154968C915497843100F58F5F549617
:104F50008C931CC0F50185898431C0F48F5F858BEB
:104F600015C0D50153968C9153978A3078F48F5F92
:104F700053968C930BC061E0C4010E941B2706C0AE
:104F8000F5018289853010F48F5F828B81E0D70133
:104F90001C968C931C971D961C9230C0F70125859A
:104FA000263418F42F5F258729C093FF27C08685F4
:104FB000863068F4B401CA010D960E94DD26D8013E
:104FC000ED91FC910084F185E02D8BE011C0D801BA
:104FD000ED91FC910084F185E02D88E009C093FFFC
:104FE0000DC0D801ED91FC910084F185E02D8AE09F
:104FF0008983BE016F5F7F4FC80109950F90DF91D4
:10500000CF911F910F91FF90EF90DF90CF90BF90C5
:10501000AF909F908F9008952F923F924F925F9202
:105020006F927F928F929F92AF92BF92CF92DF92B8
:10503000EF92FF920F931F93CF93DF931F92CDB701
:10504000DEB71C013B01142FD02EFE2C5A2CDB01A5
:10505000ED91FC910480F581E02DCB012983099528
:105060004C01D301ED91FC910480F581E02DC30149
:1050700009955C01D301ED91FC910480F581E02D4F
:10508000C3010995F4018481958168E170E00E9473
:10509000AA344424439429810D9708F4412CC40177
:1050A00001964C01112389F0222379F0442069F004
:1050B000D10119961C92EE24E39407E02AE040E027
:1050C00050E067E770E00E946F1A88E7F10186837D
:1050D000878310863101F2E06F0E711CD501569660
:1050E0006C91C3010E94DD16F5016789C3010E941E
:1050F000DD1681E0D10119968C9319971123B9F02F
:10510000DD20A9F0442099F019961C92F5018589BB
:105110008A3010F02AE001C025E0EE24E39407E095
:105120004BE050E067E770E0C4010E946F1A88E727
:10513000D10116968C93169717968C9317978BE040
:1051400018968C93F5016589C3010E94DD1681E0F4
:10515000D10119968C9319971123B9F0FF20A9F06A
:10516000442099F019961C92F50182898A3010F03A
:105170002AE001C025E0EE24E39407E046E150E098
:1051800067E770E0C4010E946F1A88E7D1011696A4
:105190008C93169717968C93179786E118968C9395
:1051A000F5016289C3010E94DD1681E0D1011996E3
:1051B0008C9319971123B9F0CC20A9F0442099F0D1
:1051C00019961C92F50184898A3010F02AE001C0FA
:1051D00025E0EE24E39407E041E250E067E770E069
:1051E000C4010E946F1A88E7D10116968C93169716
:1051F00017968C93179781E218968C93F501648922
:10520000C3010E94DD1681E0D10119968C93199794
:105210001123B9F05520A9F0442099F019961C9259
:10522000F50183898A3010F02AE001C025E0EE24E0
:10523000E39407E04CE250E067E770E0C4010E94AD
:105240006F1A88E7D10116968C93169717968C9350
:1052500017978CE218968C93F5016389C3010E941D
:10526000DD1681E0D10119968C93F501818D88239B
:1052700041F04AED53E160E0C1010E945E2611E079
:1052800001C010E0D50159968C91823038F04AED7A
:1052900053E1612FC1010E945E261F5FF501808DE1
:1052A000882339F041ED53E1612FC1010E945E2650
:1052B0001F5FD50158968C91823038F041ED53E153
:1052C000612FC1010E945E261F5FF501828D882338
:1052D00039F048EC53E1612FC1010E945E261F5F47
:1052E000D5015A968C91823030F048EC53E1612F11
:1052F000C1010E945E266AE670E0C4010E94371A6E
:1053000065E770E0C4010F90DF91CF911F910F917D
:10531000FF90EF90DF90CF90BF90AF909F908F90D5
:105320007F906F905F904F903F902F900C94371A22
:105330008F929F92AF92CF92EF920F931F93CF9342
:10534000DF93EC014B01DB01ED91FC910480F581D1
:10535000E02DCB010995D401ED91FC910480F581FC
:10536000E02DC4010995D401ED91FC910480F581F3
:10537000E02DC4010995D401ED91FC910480F581E3
:10538000E02DC401099504EF1FEF21E04AE957E140
:1053900068E270E0C8010E9433170C5E1F4F0835A9
:1053A000110599F721E04CE857E160E070E080E0FA
:1053B00090E00E94331721E046E357E160E070E09F
:1053C00089E590E00E94331721E046EF56E160E066
:1053D00070E089E690E00E9433178C85823058F0A7
:1053E000823031F545E95DE068E170E086E290E009
:1053F0000E94F7151DC02E85215044EF53E168E04F
:1054000070E08CE190E00E949D198C85813081F4E0
:1054100084E08E838F831886EE85F0E0EE0FFF1F09
:10542000E359FD4F60817181CE0102960E940419FB
:105430008E85AA24A394833009F0A12CCC24C39494
:10544000813009F0C12CEE24E394853009F0E12C81
:1054500001E0823009F000E021E0843009F020E032
:105460008C85813021F441E08D85863408F040E060
:10547000B401CE010E940C28DF91CF911F910F91B2
:10548000EF90CF90AF909F908F90089508950895DA
:105490000895089508950895089508950895089524
:1054A000FC0183E692E0918380831582148286E773
:1054B00091E09383828388E0838781E082871782EB
:1054C00010861682818708950C9459350895CF92DD
:1054D000DF92EF92FF920F931F93CF93DF938C0194
:1054E000EB01E881F9810480F581E02DCB0109957C
:1054F0006C01E881F9810480F581E02DCE010995E8
:105500007C01E881F9810480F581E02DCE010995C7
:10551000FC01D7011E969C91993051F028F49230ED
:1055200039F0953039F404C09E3011F0933111F404
:1055300097E001C096E0D80159969C93D601159644
:105540001C921E921497D7011F968C911F97811160
:1055500044C0F801168A108E87E0D82ED78A81E0E1
:105560001F968C93E881F9810480F581E02DCE01AE
:105570000995DC019196DC929AE0F92E66E070E0E4
:1055800080E090E00E94E018E62E66E070E080E0A7
:1055900090E00E94E018062FE881F9810480F581EF
:1055A000E02DCE0109956C0110E0E881F9810480BD
:1055B000F581E02DCE010995DC01AE0DB11D5B96A4
:1055C0009C915B97F601E00FF11F838D5B968C93A6
:1055D000938FFA94F110D2CF13C08FEFD801589661
:1055E0008C9358978389882341F087E057968C9352
:1055F000579781E056968C9303C082E0F801868B22
:10560000DF91CF911F910F91FF90EF90DF90CF909E
:1056100008954F925F926F927F928F929F92AF9276
:10562000CF92DF92EF92FF920F931F93CF93DF936E
:105630003C01EB01E881F9810480F581E02DCB018B
:1056400009954C01E881F9810480F581E02DCE01B6
:105650000995F4018481958168E170E00E94AA3483
:105660002C0121E04BE55DE160E070E089E590E030
:105670000E94331721E04BE15DE160E070E089E6D4
:1056800090E00E94331721E04EE15BE160E070E0C2
:1056900080E090E00E943317F3019585AA24A3943B
:1056A0009111A12C01E0913009F000E021E092304D
:1056B00009F020E041E0F3018485813009F040E009
:1056C000C12CE12CBE01C3010E940C28FDE04F1645
:1056D000510408F45AC0F3018585813039F08230D5
:1056E00041F4DFE3C0E007E512E307C0DFE3C4E213
:1056F00002C0D2E2C0E000E310E0F12E6C2E712C6B
:105700002401FFEF4F1A5F0A0F1550F06F2D70E064
:1057100020E0A301C2010E946331F394F394F4CF1B
:10572000F12E6D2E712C24018FEF481A580A0F1597
:1057300050F06F2D70E020E0A301C2010E946331A0
:10574000F394F394F4CFDC2EE12EF12C3401EFEF3F
:105750006E1A7E0ADD1550F04D2D50E020E0B701A5
:10576000C3010E946331D394D394F4CF10E0FFEFD0
:105770008F1A9F0ADC1748F04C2F50E020E0B80148
:10578000C4010E946331CE5FF5CFDF91CF911F91AD
:105790000F91FF90EF90DF90CF90AF909F908F9000
:1057A0007F906F905F904F900895AF92BF92CF928D
:1057B000DF92EF92FF920F931F93CF93DF931F928D
:1057C000CDB7DEB77C016B01DB01ED91FC9104806C
:1057D000F581E02DCB0109955C01D601ED91FC919D
:1057E0000480F581E02DC60109958C01D601ED916B
:1057F000FC910480F581E02DC6010995AC01F5010D
:105800009781909586819823D7011C968C91882347
:1058100021F0813009F4B3C0DBC097FF06C0F70167
:105820008585882311F08150858794FF09C0D701B1
:105830001D968C911D97853018F48F5F1D968C9363
:1058400093FFC6C0F70125852230E9F128F4222311
:1058500039F02130E9F084C0263008F459C080C006
:10586000D80154968C915497882309F479C05396A3
:105870008C9153978A3008F073C081E0F701818BD7
:1058800053968C9153978F5F53968C93539716C072
:10589000D80154968C915497882309F461C0559689
:1058A0008C915597843108F05BC0F7012787559696
:1058B0008C9155978F5F55968C93559754968C91F4
:1058C0005497815022C0D80154968C9154978430BB
:1058D00008F446C055968C915597843108F040C025
:1058E00081E0F701878755962C9130E02C5F3F4F80
:1058F0002531310514F024E130E0D80155962C9380
:10590000559754968C915497845054968C9328C0F4
:10591000F8016489683020F1208D818D328D782FD7
:10592000720F730F7230E0F46850F801648BD70186
:105930001D966C91633021F42F5FD80158962C93FB
:10594000F7012585243021F48F5FD80159968C9377
:10595000F7018585853021F43F5FD8015A963C9345
:10596000F7018785811106C08685811103C0818971
:10597000882371F181E0D70150968C9329C097FF5D
:1059800006C0F7018585882311F08150858794FF33
:1059900009C0D7011D968C911D97833018F48F5F35
:1059A0001D968C9393FF14C0F7018585F801E80FCD
:1059B000F11D808D882361F08150808FD80154962D
:1059C0008C9154978C5F54968C9381E0F701808B77
:1059D000892F807649F081E0D7011C962C91211106
:1059E00080E0F7018487158692FF14C0B8016E5ECF
:1059F0007F4FCA010D960E94DD26D601ED91FC91E4
:105A00000084F185E02D8BE08983BE016F5F7F4FBD
:105A1000C60109950F90DF91CF911F910F91FF90D3
:105A2000EF90DF90CF90BF90AF9008956F927F92EC
:105A30008F929F92AF92BF92DF92EF92FF920F935D
:105A40001F93CF93DF931F92CDB7DEB78C017B01FD
:105A5000DB01ED91FC910480F581E02DCB010995EE
:105A60003C01D701ED91FC910480F581E02DC70147
:105A700009955C014C01B2E18B0E911CD701ED91AF
:105A8000FC910480F581E02DC70109959C01F3018B
:105A9000D780D0948681D822D8011C969C919923D6
:105AA00021F0913009F44AC07CC0D5FE06C0F8014F
:105AB0008585823011F486858587D6FE0CC0D80195
:105AC0001D968C911D97823031F01E968C931E97F7
:105AD00082E01D968C93D4FE0CC0F801858581115F
