:100000000C94F10E0C94190F0C94190F0C94190FF9
:100010000C94190F0C94190F0C94190F0C94190FC0
:100020000C94190F0C94190F0C94190F0C94190FB0
:100030000C94190F0C94190F0C94190F0C94190FA0
:100040000C94190F0C94190F0C94190F0C94190F90
:100050000C94190F0C94190F0C94190F0C94C924BB
:100060000C94190F0C94190F0C94190F0C94190F70
:100070000C94190F0C94190F0C94190F0C94190F60
:100080000C94190F0C94190F0C94190F0C94190F50
:100090000C94190F0C94190F0C94190F0C94190F40
:1000A0000C94190F0C94190F0C94190F6D1EA41EAB
:1000B000461EBD1E8D1E041F041F041F291F531E34
:1000C000DE1E7A1EF31EF31E2E272E274227C1277F
:1000D000BC288F29C229E929FC29B4280C2A0C2A1A
:1000E0000C2A090F97059349001090002020014029
:1000F000E0305F0020002000020002200000090F15
:100100002F174C260212000424C0BB7D07000400F8
:1001100001400000090F5F5C309904F8DE7E0000AA
:1001200000090F5F5E30F9FABE03090F5F5C30997A
:100130007C75BF03090F2F174C2693C9E4F5FE1EEB
:10014000090F970593C96432994CAEFBFB090FFC6C
:100150007900090F5F5C3CFBDE7B090F5F5A3CFFB7
:10016000CE7700090F2F169FBD7F1F090F2EFE2C83
:100170000707410C1A3C1E0C410707000C3A163ABF
:100180000C000707002A18360C2A000707001A245B
:1001900032241A00D5F08D14A1C881CFD9F1AF2037
:1001A0000003081F051F1F151B1F11111F110E1F14
:1001B00015111F05011F111D1F041F001F00101026
:1001C0001F1F041B1F10101F061F1F011F1F111FC1
:1001D0001F05071F311F1F051B17151D011F011FBD
:1001E000101F0F100F1F0C1F1B041B071C071915D6
:1001F000130C121E1F120C1E12120C121F0C1A14BA
:10020000041F052E2A1E1F021C001D00201D001F9A
:10021000041A011F001E041E1E021E1E121E3E1284
:100220000C0C123E1E020614120A020F121E101EA1
:100230000E100E1E081E1A041A2E281E1A12161F41
:10024000111F121F101D151711151F07041F171559
:100250001D1F151D01011F1F151F17151F0017005A
:10026000001000040404040E040229060A00003FE2
:10027000FF705A4B175BBB1D6C169BA5AB70E4EA75
:10028000D5AB460A9A8357AF5EFDD3849CFAAB5830
:100290002E5529D8B6158A142952545D9E98805C33
:1002A00000B9007201E402C805900B2017402EC06F
:1002B000DF2737E512BC18BED5CB52CA706075B3C4
:1002C000485042001C27DFF00F8F74D51A1A3F20C8
:1002D0002B2D6921B1B4FFFC98B5C15AACEFD043C6
:1002E0000C20903000807000C2897F699CD6D2C5F6
:1002F000D66EC79B4007091000E09F23CBA52A05B7
:10030000DBB64261F26202E80300041600020B0051
:10031000810580C00240600120B000105800082C08
:1003200000041600020B00810580C002406001201D
:10033000B000105800082C00041600020B008105C4
:1003400080C00240600120B000105800089C7A591B
:100350004A19EEEA66B159145D27FE2102340F00F6
:1003600000F804C4A464A4E4C4040404648464041D
:1003700084448404C404C40404E424C404A404849D
:100380004484048444E4040404C4E4A464A4C404CD
:10039000F8000000000F10101311131110101010AE
:1003A000101310101112111011121110101312113C
:1003B000101310111312101112131010101011132A
:1003C000111310100F000017F74F912041063290C3
:1003D000B74081DF0A1C0870EB06C24340E067DBD0
:1003E000C0188CE17B107E77411725AC3E477E7AA2
:1003F0004209AC43DEB15CFC4E26A3459A91F7DC82
:10040000F87DBDE5B42EE26BE002FC2E8BCF7B6362
:100410006DB096524B69B43756CE9C73EBADB74C6A
:10042000D7BF1EF9EF1347FF5F21E4BF5659596F3D
:10043000757E757365647E617E6865616C696E67E3
:100440007E7370656C6C2E0A2020207E596F757E3D
:10045000686176657E6761696E65647E380A202012
:1004600020207E65787472617E48507E706F696E60
:1004700074732E007E596F757E757365647E617E20
:10048000706F69736F6E7E7370656C6C2E0A2020BE
:100490007E4465616C7E327E65787472617E6461D3
:1004A0006D6167650A202020202020207065727E03
:1004B0007475726E2E0020596F757E757365647E3B
:1004C000617E666972657E7370656C6C2E0A202091
:1004D000207E4D6F6E737465727E6C6F7365737E74
:1004E00031300A20202020202048507E706F696E15
:1004F00074732E0020596F757E757365647E616E0E
:100500007E6963657E7370656C6C2E0A20207E4D5B
:100510006F6E737465727E69737E66726F7A656ED4
:100520000A2020202020666F727E6F6E657E7475B3
:10053000726E2E00557067726164657E796F757298
:100540007E576561706F6E210020204761696E7E65
:10055000616E7E41726D6F757221004761696E7EBA
:10056000617E4865616C696E677E57616E642100CB
:100570004761696E7E617E506F69736F6E7E5761F1
:100580006E642100204761696E7E616E7E496365FD
:100590007E57616E642100204761696E7E617E46F0
:1005A0006972657E57616E642100207E596F7520E7
:1005B000616C72656164790A206861766520656E98
:1005C0006F75676821007E596F7520646F6E7420A7
:1005D000686176650A206F6E6520746F2073656CA4
:1005E0006C2100202020596F75206E6565640A20FB
:1005F000206D6F726520676F6C642100456E656DBC
:1006000079204B696C6C656400596F757E6B696C01
:100610006C65647E7468657E426F73732E0A000990
:1006200009AAFF010100010101000101010001010E
:1006300001AAFF0001010100010101000101010007
:1006400001010100010408003E1C08090900FEFE2A
:10065000FEFEFEFEFE00000000000000000000FEA6
:10066000FFFFFFEFFFFFFFFE00010101010101019C
:1006700000FEFFFBFFFFFFBFFFFE000101010101C4
:10068000010100FEFFBFFFEFFFFBFFFE00010101C4
:100690000101010100FEFFBBFFFFFFBBFFFE0001E8
:1006A00001010101010100FEFFBBFFEFFFBBFFFEE7
:1006B000000101010101010100FEFFABFFFFFFABE3
:1006C000FFFE00010101010101010011AFEFC6A20F
:1006D000002C24C0420060D1F11038F281D0000219
:1006E0002000200008000220010CBD73E633B00694
:1006F00008002A08480202C0025977E004C047F601
:100700003406828242301E0E2F80C9003E31752A87
:1007100002484568141DF311100EC0398F7A436EDC
:10072000C80DBCF93DABBF3F37A7C39A43FF2CA709
:100730001CC71E7F8FC0B8E5CAEF5DFEF9D35F907E
:10074000F1DDF5F75DF394B3FBAB19F77F40E5E519
:100750009FDCACDEC6659DF2B9BFFCAFFCFBB7BF4A
:100760000B29FFEFB34FF91CC7B1FF98B9CCF96360
:10077000BB0FE3C8DFE7EFC6AFF1382E731FC6F13A
:100780009F93FF5AC67CF5E7CE69CE533EFB27FF09
:1007900071FF0A66BE0F2B3F37075AB709C8C261FF
:1007A000041091028A01B0B203CB3AD0FA4719B2D1
:1007B000100826EE0C8E20016C08E0B0A41007088B
:1007C0007114265B02D810C0806736935FBC0F009F
:1007D00002B7BD25149980080C406452042E0814F9
:1007E00008029341111880080C8A8430994CA04863
:1007F00028A0F667EC0D028070DEFBA303168000D4
:10080000084402422829C0027E973B93CD6673D5E7
:10081000EA4000040039EDFDE91E5D0E60B180E59F
:10082000B13F95E1409440B301805A18C2005A523A
:1008300052FEE26E8618C0C072B280C900168B7F6D
:100840001E6BFBEFAABBBF0B297FEFB3DD584994AA
:1008500032C12271C86298FC39992CA084925E281A
:100860006111874160186258948D4306B0582CFE80
:100870004E842065226500520620650052062065E0
:1008800050D21013B09082050B0E603081C564C247
:100890009C3060426142410A05122850A1C062F1B9
:1008A00039F63C80088880088887E9DE5FED268677
:1008B0001026240491D098BDF73ECC1D9AB93E96DF
:1008C000A3CBE572B9BC6699C4C4C157180EA6067D
:1008D000A646270C39CCAD952131D9FEB51C2C305C
:1008E00010A1C0624E9848000734E00007B0D8FC61
:1008F000D3D8FFB44CCC8F00A77FD9261240168ED8
:100900007F127BDF40000EFB17B3F99BEC7D0601E5
:1009100040D8FB6754054A9002933FD0DE2704007D
:100920000190A1D52B9BCD6666FB97A4A1A10506DE
:1009300038A016009CFCFE710326152A4C8A1C1B4D
:10094000BECE620183092C360B22C3CDE607750F9C
:100950005800C0BE6F00400060EFDFE95EBF731F4C
:10096000862A511793A86A06ECFDFBBAFBFBB2BBC3
:100970003B011000010001100010000180027AD834
:1009800003910F2E9E74B07A6B81C5E781B72D322B
:100990003C76B07A7420051F034F1FA60419C0408F
:1009A0000A86634A082184E646C8281226A19D4487
:1009B000000108001542919051246CA000048000B1
:1009C000D04EC298219C98CC6E26413A0E0C98933A
:1009D0000205200004807612C60CE14400C6A4295A
:1009E0002184109A1B21A348988476521600012076
:1009F000C843160B10408020B0D96C5E335D9C99C3
:100A00002E6032F9D52C26933F1BD3CFB0588000EF
:100A1000020481CD66F31D360B28000516C3C5F709
:100A2000086D08B794104208CD8DD950A4A8744C15
:100A30009E12324268464AD010427363763351C9DF
:100A400092A2C155242C83D049534208053A269FCF
:100A500060B38005142830FC3E6B8570C655244C6D
:100A6000423BB9A50004800A9F4A099BC9444273CE
:100A700014400000004001A01C5C6E240004802093
:100A8000DFC155A44811C53BAE495342082134C7C4
:100A900094104208CD31258450206BF2124797B94B
:100AA000C1155CF39DEB3E79C77CD79E5F9E99F79D
:100AB000E9A2A78F9DF026A727A387661E3ACECC72
:100AC000FB74D1D381799F59336BDFAF789537327F
:100AD000073D3FBFEFC972CF07EFEE0B7AEF7726E6
:100AE000FBBE998F5F303E715FD07BEFF705AE9D07
:100AF000F14AB9A0A71C3117CE984BE4CC655D38FC
:100B0000E788B944CE5CD68572599F162FE2D73C50
:100B1000E50B5CD6857259672EEBC27D5C101FE732
:100B200037168F9005205E9D4280D3388D576C54C8
:100B3000368BCD62A3B291B0597C4F00590AC814CC
:100B4000DE02021B782D4075C8C316156448FB6988
:100B500000748AB801780B086CE0B500D5210F5BF2
:100B6000549021ED77A9403410A2F53120B081D7FF
:100B70000254873C6C514186B41FAF4C2687BC059C
:100B80000436F018290B017CD7B240C6EC3B1FFF9E
:100B900037166F860A00A05CB2585E5360F5119B51
:100BA000209BC566B151D948D82C3E40721943F7F5
:100BB00016F02120B0812F20C1519EB5A82043DA24
:100BC0008F4B455450968F01810D7C01514779D64A
:100BD000A2820C693F9879594D9642DE01021B783A
:100BE0008C1415017CD7A2820C69BF2D802C056462
:100BF0000A6F01810D3C16405404F05D8B0A32A44B
:100C0000FD34003A45DC00BC050436F058005111B3
:100C1000C0772D2AC890F6BB54201A08D1FA1810B4
:100C2000D8C06301444500DFB5A82043DA8F5726BA
:100C30009343DE02021B785C9085C4772D0B64CC55
:100C4000BE0301087E3F3F3F97E160B1584C1693C9
:100C50008900069000124AA8D3E9BF3213F3BDAC55
:100C6000B6110401527098B000800238A06BACFC41
:100C70003361B1582C9A2FC63513080001000020AB
:100C80000024C0C4D9001400100058309C2B2B2322
:100C9000CBC99FD4818466F1FBD86C764042D010DA
:100CA0001A102841021440001000040001400010F6
:100CB0000010800218008329445D197FB87D66B357
:100CC000D96C369BC962B2582CD67EEC000A8010D3
:100CD000A66C4A2841200808800451912000022077
:100CE000000200F39EF197DA3F7BD7061028209090
:100CF0003ABC8E9D97400140001000040001400066
:100D00001000040001C039D91F630125888A08003A
:100D10000411D1120A2C3EB27FF7868083C567E7A3
:100D2000E6215000400010000400014000100004C3
:100D3000000160EF8E0F030002E064B23F9B1F9F33
:100D40001F978FB0596C169BC566B1B9E6C0643267
:100D5000335A700210015C2E974C0AB6ED60010701
:100D6000BFFF7FC69CE63CF9EFE1EFEEE18FFF6F3E
:100D7000E2B04EF973FE33CAE94FF5EF2AE3EFF321
:100D8000EFEB0B1CC218479EE734131EFF23FBE456
:100D900077BFF7EF2C977559977C7C5D16107051D3
:100DA00050697420202020207E2D327E48502C7ED9
:100DB0002B46616C6C004D6F76696E677E57616C77
:100DC0006C73202020202D317E58500053707269A2
:100DD0006E677E426C616465202020202D317E4844
:100DE00050005275737465647E41726D6F75722028
:100DF00020202D317E4152005472697077697265EE
:100E000020202020207E2D317E476F6C64004D69AC
:100E10006C646577202020202020207E2D317E46A6
:100E20006F6F64001B9F7B15000098C007C64BCDF9
:100E300081FBF81630010080AEFB010000000000CD
:100E40004278CE60D8C9396E0E7C81100000000057
:100E500000383C590013008003378EDC803347E0B4
:100E600098A7DC3800003001D6A7B97244E0C43D31
:100E7000A771E4F7001BDF178738557CCD62B317E5
:100E8000EC75D9739E780A822E10CB0B5BC41811B7
:100E90003FC04891CC4B6F0513307C03C4A1206A3E
:100EA00079C3027583DFC9C8A98B299429D4F205B7
:100EB000F1505CFE021F70895C3902D79C809F0153
:100EC0001B9F872CC86488B840445822C212F10086
:100ED000C20572E47B22D45804F12E8661848ADF35
:100EE000643980051458A0C2021516A8B040853296
:100EF000032B6FC0C10215169BC566B131B0596C8A
:100F000004606360232194450C8B812C42F9253EBB
:100F1000E01239721CA7FC1C1B9F0FC0F0007C0361
:100F20003E502F826E110E5C8427E3065E224F61D5
:100F3000EC086C306C67C76690A8080E4592305C70
:100F400054CE84B0D553E46DCEC0C93BB099286E61
:100F5000004E8C4A18C85637F080CD91F07DAE1CFB
:100F600031175E70249C809F031B9FAF91458D0EAF
:100F700058125C0220B120242008820208A01131FE
:100F800046C468901BF2491426CCBD0538F2805047
:100F9000A4049475E9171CE0F0B9885BC42DE2162F
:100FA000712B92148003145452009A82AEC20DDC4D
:100FB000226E117F8A0FB8448E9E10B88C5F031B7F
:100FC000DF6F43600904661E87C01208CC3C0E81A7
:100FD000251098F9093CA43CEEA5705807C2952746
:100FE000DC289F61B180052A2C08C8022218400223
:100FF0000B82B0608101244001284880C502032C87
:1010000060B1F8093EE012B972EA715C8227BF0B49
:101010001197CF801B78E4390FB8019FC981087BF5
:10102000BECD91A30017FE4211D767CE9C7DCE6343
:10103000E4C8438EC03527E0CC31772F80FC910087
:1010400011D7776FC20D7CCDEB7C5339303879E7FF
:1010500098075C227F2411D777E49263E42DAFF3E5
:1010600045CC695C903BC73CE012F9230111D7776E
:101070008EE00D78CEEB7CB427C88D3BC73CE012E8
:10108000F9230111D70FB87A045EF33A9F849C8448
:101090001B70E798075C227F2411D70F380247E0C6
:1010A00035AFF34DE5623879E798075C227F244F2E
:1010B00070656E7E63686573743A0A596F757E66F3
:1010C0006F756E647E676F6C647E6F6E6C792100E5
:1010D0004F70656E7E63686573743A0A476F6C641F
:1010E0007E616E647E7472656173757265210047FE
:1010F00061696E7E327E476F6C647E5069656365A0
:10110000732100557067726164657E796F75727EB8
:10111000576561706F6E210020204761696E7E61A6
:101120006E7E41726D6F757221004761696E7E61DE
:101130007E4865616C696E677E57616E6421004709
:1011400061696E7E617E506F69736F6E7E57616EEE
:10115000642100204761696E7E616E7E4963657E11
:1011600057616E642100204761696E7E617E466929
:1011700072657E57616E642100132A4A600F170E54
:101180000BD7876301188E4EC41E8185081C9D40B5
:10119000FB2B861CC8383A9178ECE65839241C7A27
:1011A00034C8EA6DFC94217BDC0CB27A6B383B11BD
:1011B000C6AF18B2C7CD800B388ED30045DF7FB0E5
:1011C000EBDA1D8E7D71DEA7F33EBDECB65E5F5C93
:1011D000FF68F6D65B57D204D35B4F33E7398E5E98
:1011E000CD8E578F635E3B4FB93A1B336BC770B4DC
:1011F00077BC7A752E0ED3AB57B933566FBD35C158
:1012000034A31D303F34BAE8173267E62D576763C1
:101210003ABDE6B4733B8CA3575312AF5E33CF5D38
:1012200047AF7497ABC7319E7D2ACB8C75E87F2F73
:101230000002020202030303030303011F20200133
:10124000014000100004002108084E6F005965732A
:1012500000090900FEFEFEFEFEFEFE00000000008A
:101260000000000000FEFFFFFFEFFFFFFFFE000198
:1012700001010101010100FEFFFBFFFFFFBFFFFEB7
:10128000000101010101010100FEFFBFFFEFFFFBB3
:10129000FFFE000101010101010100FEFFBBFFFF94
:1012A000FFBBFFFE000101010101010100FEFFBBC8
:1012B000FFEFFFBBFFFE000101010101010100FE84
:1012C000FFABFFFFFFABFFFE0001010101010101C8
:1012D0000045766164657E747261703F008DD73D14
:1012E000F13EF3F0AD7BB3673E7630714E0781B2CD
:1012F000F2398E812E0489D73DF1B1C3E5DCECB91A
:101300001E5F1D04CAF2CE91303609973BF3F031CF
:10131000E6F732777A231C799E45210C0101010101
:10132000010101010202020204040408084F706571
:101330006E7E63686573743A00D7BF1EF9EF13477A
:10134000FFCF169CBD7AF5CFC199AB675EF3E7F08E
:10135000EAD5337FE6A56B09001088110216381212
:101360004E8413618E70A1040C658E70229C4039EE
:1013700095430C00000027F582DC908C498910CA47
:10138000858C2237E4863C002A048C810000B896C4
:10139000AE1F1E40200610488C400C201015046221
:1013A00000811880BDF7DE07D6426EC80DB971D82E
:1013B00027208006B8EC2B72436EC80DB92137E4A4
:1013C000865CF7058802014EFBC00DB92137642DFC
:1013D0000E7BEFBD01620081A820100308C400C687
:1013E0000410880104728E17402E085C2817EA81C9
:1013F00072C176246314E8025C3414192CE486DC90
:1014000038EC131040035CF615B92137E486DC9004
:101410001B7243AEFB02448100A77DE086DC90C5D1
:10142000404ACA1258053A46325AB9500E960B2015
:1014300017CA05818B593BDF4F982008140C000513
:1014400001000A06808201A060002818000A0680B8
:101450008201A0600028180082868008411121883E
:101460008204519000123000140C00050340C100AA
:10147000503000140C00050340C100501000A06063
:1014800000282008934FEE0D000400001010582093
:101490006B0A37E126DC849B70136EC24DB80937A6
:1014A000E126DC849B70136EC24DB80937612C3283
:1014B00081000000000000B0F7EFD81B0000000022
:1014C00000386C3973E6CC993367CE9C3973E6CC1F
:1014D000993367CE9C3973DC07000000000060EF91
:1014E000AF122E0CDAC500A40A882860400B02A2B5
:1014F000000615404840B0E01882E004CC8EDDD4F0
:101500006DB352671D290882204409C4A0200882B7
:10151000203846CD8E21424C80500406AB657021A8
:101520005C013B97FFC0EFF3304FB4A86C54362AF0
:1015300027E7201B480002C439C809958DCA4665B3
:10154000A3B251D9A86C544E614C03042001761803
:1015500053D9A86C54362A2DA779987716B2060865
:101560007480C014045800022C00011680700181A0
:101570000E100608081710E800011680000B0AB0CC
:1015800000045800022C28C00210600108A38070DB
:1015900001016180300A081B40800520C0021060F4
:1015A00001084E40180584B19005090900FEFEFEB1
:1015B000FEFEFEFE00000000000000000000FEFF36
:1015C000FFFFEFFFFFFFFE0001010101010101002C
:1015D000FEFFFBFFFFFFBFFFFE0001010101010154
:1015E0000100FEFFBFFFEFFFFBFFFE000101010155
:1015F00001010100FEFFBBFFFFFFBBFFFE00010179
:10160000010101010100FEFFBBFFEFFFBBFFFE0078
:101610000101010101010100FEFFABFFFFFFABFF74
:10162000FE00010101010101010001020408102076
:1016300040800F0FBF74C1E4D7EE3B0F0FBF6CC1EA
:101640006432F975FB3D0F0FBF64C16432994C7E63
:10165000CDFE1E0F0F5F5E30994C2693C9E4EBFB65
:10166000FB0F0F5F5A30994C2693C96432F9DAFEAA
:101670003D0F8FEF56B82137E486DC901B72E3E113
:10168000FE7D0F8F7B851B72436EC80DB92137E439
:10169000C661FF5E4D6F6E7374657220202020203E
:1016A00020202020357E444D4700466F756E647EB5
:1016B000536869656C64202020202B317E415200E4
:1016C0005768657473746F6E652020202020202079
:1016D0002B327E585000466F756E647E4D65617486
:1016E000202020202B317E466F6F64004865616C9E
:1016F00074687E506F74696F6E2020202B327E4894
:101700005000466F756E647E4C6F6F742020207E93
:101710002B327E476F6C64001B1F3F8BC562020338
:1017200018C060B3F94BEC73133184014409A62748
:10173000F7FA112C168BC9024A58C0A20409252CAD
:101740004A589420A1844510085260B1D96CFED249
:101750001B9FDF646472451C9B27AD02A584F49730
:1017600072CF4610162C5860848211162C5820C84F
:10177000CE9DDF014C0000000046669220D48164BB
:10178000051916244966060000000013F87D7CCD7B
:10179000AFF17D1B5FEF79C1CAE218080081BC017F
:1017A000160BB875008B1B3F8E23A7B51948020096
:1017B0008041008475E5017F81FD0E000400040076
:1017C000E69F8BC562028BCDEF021B9F9F62667006
:1017D00044C6903B87D4D18C0E85E92FE8040240A3
:1017E000A58202425400105480408C131800006CF3
:1017F0000137606001411622B20865F16C95401313
:10180000002A062888A110D9102155B0414D6A0040
:1018100000500000000D000081041184F1433C22BF
:1018200037E4D61B72EB0D3CFA391B9F3F9C1B72B1
:10183000E6D75092580E1A045021D30A384B03C4ED
:1018400045E93ACC4119842377AEFCB206D04A2E42
:10185000344218288380250B76B1D00FF5D65B6F04
:10186000BDF5861C3D0AB7DE7A046EBDF50A1B9FE6
:101870005FE690700C2C00C9AD838AD0457F94B38D
:10188000F18DA7392F6301E9691D260C38A0EFF807
:1018900028CFBA8E2CCE9009F3C4990D5C24B6E5FE
:1018A000989FC935B71E3DF3B51CB90300060C124D
:1018B00063011F20200101400010000400210808DE
:1018C00013170160F11D160B2850000A2C60B1F9A6
:1018D0000A02800020005060BB81020002800020CC
:1018E0000008000280002050AE14100004000140E7
:1018F0000010000400010001589C58001400042846
:101900004F28000280002000080000030507090C92
:1019100001010101010101010202020204040408A3
:10192000080D0F9725132A54264626512645E6BA58
:10193000CF0903183061C0840113064C98070D0FBE
:1019400093A62C0C180114440014134CD8D96CA67F
:101950003AA00600182AB050056A203054CE0D0F68
:1019600057EB6061C00815065031C184ED76F70170
:10197000124A300390380C123697110D8F0F09253B
:101980009409260B2C8B20E12B710DC3258E15B9E4
:10199000983572000DCF6FA1B00181DD130CF8A650
:1019A000270607F442042880E10D0D8F8F0499A0CB
:1019B000818282509830493E3A064304415246C2E1
:1019C000913B0DCF274919AA40A30205D414501DFD
:1019D00034F866D41128A8000540000AA04221C3AB
:1019E0008E030DCFA76494F01AC0AB5200441F05BC
:1019F000201428A100D83084C1CCAD47003A7E53D2
:101A0000756E6B656E7E4B6565707E6F667E4F672B
:101A100021003A7E466C616D696E677E556E646525
:101A200072776F726C64003A7E556E646561647E95
:101A300043617461636F6D6273003A7E506F6973C6
:101A40006F6E6F75737E44756E67656F6E73003A67
:101A50007E5468657E426C61636B7E536577657208
:101A6000730057BFCC95AB0E01DDD62058B73508B3
:101A7000D66D0D2EBD7AF5EAD5AB57AF5EBD7AF5C2
:101A8000EAD5AB578F320F73E5EAD5AB57AF8E511E
:101A9000AF5EBD7AF5EAD5AB57AF5EBD664DF613C6
:101AA000660647640CB973481DCDE850987EC02384
:101AB0000017100E50D83060C18205290B162C5823
:101AC000304139F99DBDF7F7BCC8AA6308E7BFDB11
:101AD000FD5B08C200848210203080020B10994CFC
:101AE000A0C0120457804ACA905C2417C94572915D
:101AF0008C0D47E032C22C0C98F3037BEFEF6D00A6
:101B0000E0B0DF3D1C05CE06991E5BCE4C00C8D56B
:101B1000090ABCBD7F1638017202AE5EBD7A056E41
:101B2000840302B200805004004402000808004010
:101B300014008028056A0000500000000181E1EADD
:101B4000FBBDF7F736ACBDDF3D616670453A168FD9
:101B500080C1046E2D30F9D425510CB0800212A042
:101B6000800428B080020B28B080020B2820010AD4
:101B70002CA0C0020A2CA0C0020A2CA0C0020A2C71
:101B8000A0C0020A2CA0C0020A2CA0C0020A2CA0ED
:101B9000C0020A0C1193BDEF5CBDCFC33C5C9D9BA2
:101BA000AB7F9EFBBB96013D1A4401201C1C042107
:101BB00002B3E6A9861868C010FD3613280CC4319C
:101BC00004EACFD87BBFE3382EE16004B082300650
:101BD0000827E0CF747FC731772F80BCED61DE9896
:101BE000C045684770D4E005387729586073C092C3
:101BF00081C2AD41065842D727F6DEDF130600103A
:101C00000622410140E17B03B7089020621772432E
:101C10006EC80DB92137D8673C7AF5EAD5AB57AF16
:101C20001E8C0AA0AA505529AA22A02A45D5881A96
:101C30006559698C425491AA49353B760CAF5EB325
:101C4000E661E2D1AB57578635D412868BE9D5AB26
:101C500057AFCED4626A57EDAA5DB5AB364B2600BE
:101C60000001010202020303030404040404139F9D
:101C70000700C2993367DE72E6CC9900F00200F8E3
:101C8000FD00C00B00E0F70300AF8070E6CC997751
:101C90009C397326C01101020203040405170824AD
:101CA00017082417FF1313273B3B4F05E742D43592
:101CB000AA1D70447561DB02A7E81AEE0D5C2A6963
:101CC000B4371200D344DD9909C7E6AED9D1BB239E
:101CD0002018090737474696A72C21815A17F74F36
:101CE000912041063290B74081DF0A1C0870EB0654
:101CF000C24340E067DBC0188CE17B107E77411760
:101D000025AC3E477E7A4209AC43DEB15CFC4E26F0
:101D1000A3459A91F7DCF87DBDE5B42EE26BE002B5
:101D2000FC2E459F371620002560E2707AED7C7608
:101D3000F5EA06A29090A10322DA553B44060CCDA9
:101D4000671DB9682F9ED06B0FE809BDE6825E85DE
:101D50005B4EDC2057E5EA05F8101740000AC48006
:101D6000397472EAE70086A7591C513408285916BD
:101D700086B54162B8F0D241B0C79662CA4E19B07A
:101D8000E4CC35AF3973E735677F1C020B0805BB20
:101D9000FB7AB3CDB4EE180324B20A37E0FB63211B
:101DA0008305C0691C0347E0C8193812E60827E01C
:101DB000E65F0D814D38FAC0CBB8406EC0959FE705
:101DC000DDAB57AF5EBD7204CE5E3922BF060105A2
:101DD00005060005030600040205000301030531A2
:101DE000043111241FBECFEFDAE0DEBFCDBF12E019
:101DF000A0E0B1E0E6E1FBE602C005900D92A43D53
:101E0000B107D9F727E0A4EDB2E001C01D92AE32D0
:101E1000B207E1F71EE0C0EFDEE004C02197FE014B
:101E20000E944634CF3ED107C9F70E942B310C9453
:101E30007E350C940000089580E090E008950895A8
:101E40000895FB012081FC0125A321E026A308952C
:101E5000029608950296089508950F93CF93DF9305
:101E6000FC016A3039F48581848396818185890FEC
:101E700086834BC084816E3719F48E5F848345C09E
:101E8000262FEF0166816F5F2A3374F42033F4F458
:101E90002B32F1F01CF42132F9F02DC02D3289F1F2
:101EA0002E3249F52FE319C02B3544F4213464F464
:101EB0002A3381F02F33F9F422E40FC09FE9920F07
:101EC0009A31C8F4275409C0215407C02C5F05C0BB
:101ED00021E403C023E401C02EE33F81062E000C61
:101EE000770B082E000C990B313069F40AEF41EAA8
:101EF00051E00E942C1F88858D5F9C81890F8C8307
:101F000004C020E4EACF0BEFF2CF81E090E0DF9154
:101F1000CF910F9108950C94E1340C94E1340C941A
:101F2000E1340C94E1340C94E1340C94E1340C94DD
:101F3000E1340C94E1340C94E1340C94E1340C94CD
:101F4000E1342F923F924F925F926F927F928F92E5
:101F50009F92AF92BF92CF92DF92EF92FF920F9338
:101F60001F93CF93DF93CDB7DEB729970FB6F894C1
:101F7000DEBF0FBECDBF3C012B01D42EB22E302EC2
:101F80002E2CDB01ED91FC910480F581E02DCB013D
:101F900009954C01D201ED91FC910480F581E02D71
:101FA000C201099599878887F4018481958168E148
:101FB00070E00E9432349A838983412C512C30E0A6
:101FC000C40101969C838B8388E7F82ED301129677
:101FD000BE83AD833330C9F028F4313059F032304C
:101FE00079F004C03430B9F03530D1F0E885F985A6
:101FF000168937C0A885B98557961C918B2D15C0B9
:10200000E885F9851589832D10C0A885B985529674
:102010001C91822D0AC0E885F98514898C2D05C094
:10202000A885B98553961C918A2DDD20D1F088238F
:10203000C1F0E981FA813D97A0F0D30119961C9275
:102040001A3010F02AE001C025E0EE24E39407E006
:10205000A20167E770E08B819C813F830E94671C2F
:102060003F81F301F682F7824086412F50E060E025
:1020700070E02AE08D819E813F830E94212481E0CF
:10208000D30119968C933F813F5FB9E04B0E511CF1
:10209000E6E34E16510409F09DCFC884D984F8E1D7
:1020A000CF0ED11C06E511E0F12C5601D6018C9122
:1020B000882371F0F80140815181FBE0FF9EC0014F
:1020C000112468E370E085599F4F0E948A20F394A1
:1020D0002FEFC21AD20AD5018C91823070F0F8012C
:1020E00040815181FBE0FF9EC001112468E370E054
:1020F00085599F4F0E948A20F3940E5F1F4F21E065
:102100000E35120791F68FEF881A980A6AE670E08A
:10211000C4010E94702165E770E0C40129960FB6E2
:10212000F894DEBF0FBECDBFDF91CF911F910F910D
:10213000FF90EF90DF90CF90BF90AF909F908F90E7
:102140007F906F905F904F903F902F900C947021F4
:10215000EF92FF920F93CF93DF931F92CDB7DEB72D
:10216000DB01ED91FC910480F581E02DCB014983E9
:1021700009954981442351F000E021E040E254E018
:1021800060E070E080E090E00E949C21E12CF12C66
:1021900000E021E04CE054E0B70189E590E00E94C6
:1021A0009C21BAE0EB0EF11C86E4E816F10481F7FD
:1021B00021E047EC53E060E070E089E690E00E94A7
:1021C0009C210F90DF91CF910F91FF90EF90089598
:1021D0004DE553E069E170E086E290E00C948A20DE
:1021E0009F92AF92BF92CF92DF92EF92FF920F93A6
:1021F0001F93CF93DF93C42FC22E902E1E2DDB0191
:10220000ED91FC910480F581E02DCB010995D12C55
:10221000D0E001965C01E12C012F292DA601BE0121
:102220000E94671C0AEF090DB6016E5F7F4F7E01A9
:10223000B3E0EB0EF11C603471052CF421E0402F6B
:10224000C7010E948A1BB601610F711D635071099D
:102250006034710528F421E0402FC7010E948A1BD9
:10226000165083E0C80ED11CBE016E5F7F4F01E0A7
:10227000212FA601C5010E94371CBE01690D711DE9
:1022800063507109212FA601C5010E94371CDF91FF
:10229000CF911F910F91FF90EF90DF90CF90BF9063
:1022A000AF909F9008950F93DB01ED91FC91048016
:1022B000F581E02DCB01099500E021E04FE652E0E9
:1022C00060E070E080E090E00E949C2101E021E06D
:1022D0004FE652E060E070E080E490E00E949C21D4
:1022E0000F9108956F927F928F929F92AF92BF92BB
:1022F000CF92DF92EF92FF920F93CF93DF93C42E92
:10230000A22EDB01ED91FC910480F581E02DCB0143
:102310000995C02FD0E0CC0FDD1FFE01E85BFE4F1A
:10232000608071800A2C000CBB080C2C000CDD08AE
:1023300000E020E0A301B501C6010E949C214601F6
:10234000BAE08B0E911C01E020E0A301B501C401AD
:102350000E949C21C5018E0D911D7C0102E020E0B0
:10236000A301BC01C6010E949C2103E020E0A3015F
:10237000B701C4010E949C21C65CDE4F0990D88140
:10238000C02D00E021E0AE01B501C6010E949C21F4
:1023900001E021E0AE01B501C4010E949C2102E0F0
:1023A00021E0AE01B701C6010E949C2103E021E0BB
:1023B000AE01B701C4010E949C21DF91CF910F9122
:1023C000FF90EF90DF90CF90BF90AF909F908F9055
:1023D0007F906F9008950895089508950895089541
:1023E00008950895089508950895FC018EE291E0FE
:1023F000918380831582148282E291E093838283A9
:1024000088E0838781E08287178210861682818721
:1024100008950F931F93CF93DF931F92CDB7DEB72D
:102420008B01DB01ED91FC910480F581E02DCB0166
:102430000995FC01278120959681822F892383FFAE
:102440000DC0D801ED91FC910084F185E02D8CE068
:102450008983BE016F5F7F4FC80109950F90DF919F
:10246000CF911F910F91089508958F929F92AF92EF
:10247000CF92EF92FF920F93CF93DF93EC014B013A
:10248000DB01ED91FC910480F581E02DCB010995F4
:1024900001967C01D401ED91FC910480F581E02D41
:1024A000C401099541E0B401CE010E94A81000E0EA
:1024B00020E040E65DE060E070E087E290E00E94AE
:1024C0009C2121E045E45CE060E070E087E290E080
:1024D0000E949C2121E043E36CE370E083E290E002
:1024E0000E948A1B01E02EE347E563E2C7010E94D8
:1024F000E51D2FE347E564E2C7010E94E51D8C85D9
:10250000882329F0813031F44EE15BE005C04EE8CC
:102510005BE002C040E050E000E021E061E070E0FC
:1025200082E090E00E949C216D85B8E06B9FB00135
:102530001124695F7F4F42E45CE082E090E00E94FA
:102540008A206D8588E0689FB0011124695F7F4F04
:1025500042E45CE081E290E00E948A208E8588233C
:10256000D1F08AE1E82E00E427E14FE1B401CE0189
:102570000E94F01084E28E838F838CE18887EE8541
:10258000F0E0EE0FFF1FE059FE4F60817181CE0138
:1025900002960E94E823AA88C988EB8808892F85BB
:1025A00041E0B401CE010E94A10FDF91CF910F91C4
:1025B000FF90EF90CF90AF909F908F900895AF9243
:1025C000BF92CF92DF92EF92FF920F931F93CF9320
:1025D000DF931F92CDB7DEB77C016B01DB01ED917C
:1025E000FC910480F581E02DCB0109955C01D601B9
:1025F000ED91FC910480F581E02DC60109958C01D7
:10260000D601ED91FC910480F581E02DC60109957C
:10261000F501278120953681232319F0D7011E96D5
:102620001C92F7013485332321F0313009F4FAC0CC
:102630004EC127FF05C03585332311F03150358752
:1026400024FF06C0F7013585363010F43F5F35872B
:1026500023FF3DC1D7011D96EC91E23009F45BC028
:1026600028F4EE2351F0E130A9F1CDC0E63008F4B2
:102670007CC0E63009F4A6C0C6C0F8013489311127
:1026800002C031E005C0F80133893A3029F433E063
:10269000D7011E963C93B7C031E0F701328BD801C9
:1026A00053964C91042E000C550B4F5F5F4F4B30EF
:1026B000510514F04AE050E0F801438B448950E0A2
:1026C0004150510957FF02C040E050E0D8015496F4
:1026D0004C9399C0D80154963C915497332389F276
:1026E00055963C91343199F2D7015096EC93F8010C
:1026F000458950E04F5F5F4F4531510514F044E18B
:1027000050E0D80155964C93559754964C9150E013
:102710004150510923C0D80154963C91549733300D
:1027200008F4AFCF55963C915597343109F4AFCFAB
:1027300031E0F701308B55964C9150E04C5F5F4F84
:102740004531510514F044E150E0D80155964C93C1
:10275000559754964C9150E04350510957FF02C091
:1027600040E050E0F801448B4EC0D80154964C91A3
:102770005497483008F485CF59965C9159975896EC
:102780003C915897350F5A965C915A97350F5B9646
:102790005C91350F323008F07ACFF0E03397E00FDC
:1027A000F11F308D3F5F308F50E04850510957FF87
:1027B00002C040E050E0F801448B31E0D70151966F
:1027C0003C9321C0F8014489463008F45ACF62890D
:1027D000653008F05CCF70E06F5F7F4F6630710549
:1027E00014F065E070E0D80152966C9350E04650CA
:1027F000510957FF02C040E050E0F801448B31E03E
:10280000D70153963C93F7013089311139C0378590
:10281000311136C03289311133C03389332309F481
:1028200056C02EC027FF06C0F7013585332311F0AF
:102830003150358724FF09C0D7011D963C911D9763
:10284000343018F43F5F1D963C9323FF40C0F701DE
:1028500035853330D0F4F801E30FF11D308D33238B
:10286000C9F03150308FD80154964C9150E04C5FF4
:102870005F4F4B30510514F04AE050E0F801448BB3
:1028800031E0D70151963C9322C0D80152964C9129
:10289000411104C032E0F701368719C050E04150C1
:1028A000510957FF02C040E050E0F801428B4489D3
:1028B00050E04D5F5F4F4B30510514F04AE050E05F
:1028C000D80154964C9331E0F701318B338B322F82
:1028D000307649F031E0D7011C964C91411130E03F
:1028E000F7013487158622FF12C0D601ED91FC91C5
:1028F000E084F184B8016E5E7F4F0D960E94A2269F
:102900008983BE016F5F7F4FC601F70109950F9064
:10291000DF91CF911F910F91FF90EF90DF90CF90BB
:10292000BF90AF9008950F931F93CF93DF938C01C7
:10293000EB01E881F9810480F581E02DCB01099557
:10294000BE01C8010E945311E881F9810480F5811C
:10295000E02DCE010995FC01808100E021E08E3060
:1029600039F44DE95AE065E170E08DE190E006C090
:1029700049E959E06FE070E088E190E00E949C2115
:10298000DF91CF911F910F9108956F927F928F9257
:102990009F92AF92BF92CF92DF92EF92FF920F93EE
:1029A0001F93CF93DF93EC014B01DB01ED91FC9181
:1029B0000480F581E02DCB0109955C01D401ED91F6
:1029C000FC910480F581E02DC40109956C01D401CE
:1029D000ED91FC910480F581E02DC4010995F5018C
:1029E0008481958164E170E00E943234FF24F39485
:1029F0008B3008F4F12C41E0B401CE010E94A81004
:102A000000E021E041E859E060E070E080E090E023
:102A10000E949C21D401ED91FC910480F581E02D70
:102A2000C4010995FC018081873059F0883011F08C
:102A3000863071F441E657E078E4672E78E0772E2F
:102A40000BC045E257E066E9662E67E0762E04C0CB
:102A500040E050E0612C712C00E020E060E070E08C
:102A60008AE390E00E949C2121E0A30160E070E0F5
:102A70008AE390E00E949C2121E048EF58E060E06A
:102A800070E083E290E00E949C218C85811114C04B
:102A9000FF2091F019868F858A3010F02AE001C05E
:102AA00025E0EE24E39407E042E050E064E170E0CA
:102AB000C50101960E94671C15E11E831F8382E0F9
:102AC00088873E01F2E06F0E711C4F8550E060E098
:102AD00070E02AE0C3010E94212481E089871E83DF
:102AE0001F838AE08887488950E060E070E02AE030
:102AF000C3010E9421248C85843021F08E8584308E
:102B000009F041C000E021E04BEC56E063E170E0E9
:102B100080E090E00E949C2115E11E831F8387E1E5
:102B20008887D60158964C9150E060E070E02AE02A
:102B3000C3010E9421241E831F8381E28887F6013E
:102B4000418D50E060E070E02AE0C3010E94212442
:102B50001E831F838BE28887D6015A964C9150E0E2
:102B600060E070E02AE0C3010E9421241E831F83DD
:102B700085E38887F601438D50E060E070E02AE04D
:102B8000C3010E9421248C858250823038F08E85CA
:102B9000833021F089898830D1F417C010E0D60144
:102BA00056968C911817B0F7FE01E10FF11D2AE03F
:102BB000129FC001112422894BE456E064E370E0C7
:102BC00003960E9413251F5FEACFFF20B9F08C8582
:102BD000833049F4F6018689880F982F990F990F51
:102BE000890F8D5F03C0843049F48AE120E045E419
:102BF00056E065E370E090E00E9413258C858350D9
:102C0000823008F5F1101FC0698967FD1CC064306F
:102C10005CF06830C4F4660FF4E06F9F600D11241F
:102C20008BED860F64E307C0660F862F880F880F31
:102C3000680F6A5E83E070E003E020E04FE156E059
:102C400090E00E942C1F01E08C85813009F000E0AB
:102C5000A12CC12CE12C20E041E0B401CE010E9466
:102C6000A10F8C85883028F4863018F58130E1F08A
:102C70009CC0883009F475C08D3008F096C080E2A1
:102C8000E82E04E621E14FE0B401CE010E94F010ED
:102C900084E18E838F8385E18887EC85F0E0EE0FF9
:102CA000FF1FE45BFE4F6EC08D85883009F07DC04C
:102CB00058C0D401ED91FC910480F581E02DC40150
:102CC0000995CC24C394FC018081873011F0C12C7C
:102CD00005C0EE24E3948A8D853009F0E12C8C85C3
:102CE000873041F0A12C00E021E041E0B401CE01A9
:102CF0000E94A10FD401ED91FC910480F581E02D9B
:102D0000C4010995FC0180818730D1F43AE1E32EBA
:102D100008E527E144E1B401CE010E94F0108AE108
:102D20008E838F838CE1888769E076E0C3010E94FF
:102D3000E823EA8DF0E0EE0FFF1FEC59FE4F22C0B2
:102D400022E1E22E0CE328E142E2B401CE010E942E
:102D5000F01088E28E838F838DE188876CEF75E0B9
:102D600013C0CE01DF91CF911F910F91FF90EF9093
:102D7000DF90CF90BF90AF909F908F907F906F909B
:102D80000C94E81060817181C301DF91CF911F9194
:102D90000F91FF90EF90DF90CF90BF90AF909F90FA
:102DA0008F907F906F900C94E823DF91CF911F91CB
:102DB0000F91FF90EF90DF90CF90BF90AF909F90DA
:102DC0008F907F906F900895DF92EF92FF920F9314
:102DD0001F93CF93DF931F92CDB7DEB78C017B019A
:102DE000D12CD701ED91FC910480F581E02DC70134
:102DF00049830995FC0186894981D81690F4F80128
:102E0000ED0DF11D458F41110AC0168AD8015C965F
:102E10009C915C97992319F091505C969C93D39464
:102E2000E0CF0F90DF91CF911F910F91FF90EF9026
:102E3000DF900895AF92BF92CF92DF92EF92FF9210
:102E40000F931F93CF93DF938C015B01DB01ED9117
:102E5000FC910480F581E02DCB010995EC017C010A
:102E6000B2E1EB0EF11CD501ED91FC910480F581EE
:102E7000E02DC50109956C01D501ED91FC9104800F
:102E8000F581E02DC5010995FC018081873099F01D
:102E9000883009F47AC0863009F07BC0D6011E96CE
:102EA000EC91EF3028F4F0E0E15AF34E649101C068
:102EB00065E06F5F6BC0D6011E96EC91EF3028F491
:102EC000F0E0E15AF34E649101C065E06E5FC70126
:102ED0000E94212AD6011E96EC91EF3030F4F0E0EA
:102EE000E15AF34EE491E23010F083E001C082E059
:102EF0002C8990E0820F911D8B30910514F08AE0AF
:102F000090E08C8B66E070E080E090E00E94C4234B
:102F1000DC01CB010196A11DB11D282FF801828F84
:102F2000998D888D890F9A8D890F9B8D890F82309D
:102F300011F42530E0F1D8015A969C91953089F032
:102F400058F4913030F1E92FF0E03197EC0FFD1F8C
:102F5000808D8F5F808F1DC09630B9F0973059F00B
:102F600018C08A8990E001968630910514F085E0BA
:102F700090E08A8B0EC08C8990E002968B30910590
:102F800014F08AE090E08C8B04C062E0C7010E94DC
:102F9000212A86E0F8018487DF91CF911F910F915C
:102FA000FF90EF90DF90CF90BF90AF90089587E0B3
:102FB000828FC1CF089508950F93CF93DF93EC01D3
:102FC000DB01ED91FC910480F581E02DCB010995A9
:102FD00089E08B8783E08E838F8382E088872E85CC
:102FE0004AEA55E161E070E080E390E00E94132539
:102FF00000E021E042E255E160E170E08EE090E027
:103000000E949C212E85CE010296253018F060ED9D
:1030100070E102C06FEA70E10E94E82388E08B87CC
:10302000DF91CF910F910895CF92DF92EF920F939E
:10303000CF93DF93EC016B01DB01ED91FC910480F8
:10304000F581E02DCB01099500E021E046E354E154
:1030500068E070E08EE090E00E949C218C858130D9
:1030600069F40D85002351F0015025E0E22E2DE09A
:1030700042E2B601CE010E94721118C085E0E82E2E
:1030800000E02DE042E2B601CE010E947211EE8511
:10309000F0E0EE0FFF1FE556FE4F4081518121E029
:1030A0006FE070E083E290E00E949C21DF91CF917D
:1030B0000F91EF90DF90CF9008956F927F928F9253
:1030C0009F92AF92CF92EF920F93CF93DF93EC0149
:1030D0004B01DB01ED91FC910480F581E02DCB01EA
:1030E00009953C01D401ED91FC910480F581E02D1E
:1030F000C4010995F3016480758041E0B401CE01FB
:103100000E94A81000E021E049E353E160E070E094
:1031100080E090E00E949C218C85813079F118F04C
:10312000823021F12FC08D85813118F500E021E03A
:1031300042E255E160E170E08EE090E00E949C2167
:103140000AEF2E854AEA55E161E070E080E390E005
:103150000E942C1F83E08E838F8382E088876DE23C
:1031600073E1CE0102960E94E8230CC08F85811185
:1031700005C0B401CE010E94DC1704C0B401CE0129
:103180000E9414189E85EE24E394953009F0E12CFA
:103190000F85002321F001E0943009F000E021E0E8
:1031A000963009F020E08C85823021F441E08D8555
:1031B000863408F040E0A12CCC24C394B401CE01A5
:1031C0000E94A10F8C85823041F58F85882329F1DB
:1031D0008D85863410F5C30168E170E00E943234B9
:1031E0000D97D8F088E08E838F831886EE85E150A6
:1031F000F0E0EE0FFF1FE555FE4F60817181CE01BB
:103200000296DF91CF910F91EF90CF90AF909F906A
:103210008F907F906F900C94E823DF91CF910F9166
:10322000EF90CF90AF909F908F907F906F90089588
:103230004F925F927F928F929F92AF92BF92CF9266
:10324000DF92EF92FF920F931F93CF93DF931F9222
:10325000CDB7DEB78C014B01DB01ED91FC91048011
:10326000F581E02DCB0109955C01D401ED91FC9134
:103270000480F581E02DC40109956C012C01B2E1B7
:103280004B0E511CD401ED91FC910480F581E02D91
:10329000C40109957C01F5017780709486817822BC
:1032A000D8011C968C91813009F474C020F08230D2
:1032B00009F4D6C0EEC0F8018585813188F473FE2B
:1032C0000FC081E1858766E070E080E090E00E94B9
:1032D000C423DC01CB010196A11DB11DF801868735
:1032E000D8011D96EC91E13118F5F0E0E45EFC4E5A
:1032F000649170E0F501848195810E943234892BBC
:1033000009F0C7C066E070E080E090E00E94C4234E
:10331000DC01CB010196A11DB11DF80186878585D1
:103320008F5F8587D50115961C921E921497B1C0A8
:10333000F80186858530A0F073FEABC087E08587F5
:1033400081E0848766E070E080E090E00E94C42322
:10335000DC01CB010196A11DB11DF801868799C042
:10336000D70151968C91811102C081E001C082E0A9
:10337000F601248990E0820F911D8B30910514F0A5
:103380008AE090E0D60154968C93F801158682E08D
:1033900084877FC0D8011D969C91992389F066E0AF
:1033A00070E080E090E00E94C423DC01CB01019634
:1033B000A11DB11DF801868785858150858769C06B
:1033C000D8011F968C931F971E96EC91E53081F0E3
:1033D00050F4E13058F1F0E03197EC0DFD1D808D97
:1033E0008F5F808F23C0E63081F0E73099F01EC0F8
:1033F000F601828990E001968630910514F085E00F
:1034000090E0D60152968C9311C062E0C2010E94F6
:10341000212A0CC0F601848990E002968B30910538
:1034200014F08AE090E0D60154968C93F80115864A
:1034300082E08487D70151968C91811102C081E08E
:1034400001C082E0F601248990E0820F911D8B304B
:10345000910514F08AE090E0D60154968C9319C03F
:10346000F8018585863410F48F5F858773FE11C05F
:10347000D401ED91FC9100851185B201C7010D9633
:103480000E94A2268983BE016F5F7F4FC401F801AD
:1034900009950F90DF91CF911F910F91FF90EF90C1
:1034A000DF90CF90BF90AF909F908F907F905F9074
:1034B0004F900895AF92BF92CF92DF92EF92FF921A
:1034C0000F931F93CF93DF9300D01F92CDB7DEB73A
:1034D0008C016B01DB01ED91FC910480F581E02D05
:1034E000CB0109955C01D601ED91FC910480F58139
:1034F000E02DC60109957C01BC016E5E7F4FD601AF
:10350000ED91FC910480F581E02DC6016A837B83F7
:103510000995DC01AC01435F5F4FF50127812095E0
:1035200096812923F80194856A817B81923031F15B
:1035300028F4992319F1913041F0D6C0933009F461
:10354000ADC0943009F4C1C0CFC0922F987023FF52
:1035500002C086E48587F8018585863408F19923C1
:1035600009F4C2C09685F7018689891708F09EC0C4
:10357000D8011D961C921D9782E082C0F8018585B6
:103580008C3088F466E070E080E090E00E94C42314
:10359000DC01CB010196A11DB11DF801868785854F
:1035A0008F5F8587A1C0923009F071C0F8019685C0
:1035B000933001F128F4913049F0923079F053C002
:1035C000953081F118F19630A1F14DC0D701539695
:1035D0008C915397815053968C9345C0F701848901
:1035E00090E0019797FF02C080E090E0D7015496E9
:1035F0008C9339C0F701828990E0019797FF02C050
:1036000080E090E0D70152968C932DC0F701858918
:1036100090E0019797FF02C080E090E0D7015596B7
:103620008C9321C0F70187898230E8F08150878B25
:103630001AC0F701258930E02250310937FF02C056
:1036400020E030E0F701258B232B69F01E968C914A
:103650001E978A3030F4E82FF0E0EF5CFD4EE491E5
:103660008E0F1E968C93D70155968C91882359F016
:10367000F50115821482D8011D961C921D9783E0D6
:103680001C968C9331C084E0F80184872DC0D8014A
:103690001586F5011582148281E0F2CF8585863486
:1036A00018F48F5F858720C023FF1EC0D601ED91DF
:1036B000FC9100851185CA010E94A2268983BE0162
:1036C0006F5F7F4FC601F8010EC023FF0DC0D6010A
:1036D000ED91FC910084F185E02D8EE08983BE019F
:1036E0006F5F7F4FC60109950F900F900F90DF918C
:1036F000CF911F910F91FF90EF90DF90CF90BF90EF
:10370000AF9008958FB18095807F669B88601C9BE9
:1037100084600895FC01840F911D18161906E4F5C4
:10372000E038F105CCF5F7FF02C0E0E0F0E08138C9
:10373000910514F080E890E0382F3E1BAB0177FF35
:1037400002C0495F5F4F83E0559547958A95E1F741
:103750005695542F442757954795E40FF51FE75288
:10376000FD4F6770772781E090E001C0880F6A9570
:10377000EAF7482F222349F0213071F4315020F02C
:103780008081842B8193FACF08958095315020F069
:10379000908198239193FACF0895EF92FF920F931F
:1037A0001F93CF93DF938C01EB01E881F9810480B3
:1037B000F581E02DCB010995E881F9810480F5813F
:1037C000E02DCE0109957C01E881F9810480F58125
:1037D000E02DCE010995BE01C8010E94531100E001
:1037E00021E04CEB51E161E170E08CE190E00E945E
:1037F0009C2121E041E851E168E370E083E190E041
:103800000E949C21F701858590E0FC01E358FE4E63
:103810004491FC01E758FE4E849121E06FE370E093
:1038200090E0DF91CF911F910F91FF90EF900C945A
:103830008A1B60387105D0F440345105B8F4EAE2CF
:10384000F6E180E1849FD001A0781124A60F477093
:10385000E40FF11D8491A752BD4F222319F06C9102
:10386000862B03C080956C9186238C930895AF922C
:10387000BF92CF92DF92EF92FF920F93CF93DF939D
:103880006C015B017A01E20EF11CEA0157FF0DC0E9
:10389000C0E0D0E00AC0C417D5077CF4202FAE01E9
:1038A000B501C6010E94191C2196A70181E4E81602
:1038B000F1048CF340E450E0EECFDF91CF910F9113
:1038C000FF90EF90DF90CF90BF90AF9008958F92D0
:1038D0009F92AF92BF92CF92DF92EF920F931F937E
:1038E000CF93DF935C014A01102FEB016B01C20EF5
:1038F000D11CCC15DD054CF40E2D212FA401BE01E9
:10390000C5010E94371C2196F4CFDF91CF911F9102
:103910000F91EF90DF90CF90BF90AF909F908F90DE
:1039200008956F927F928F929F92AF92BF92CF92A3
:10393000DF92EF92FF920F931F93CF93DF93EC01EF
:103940004B01DB01ED91FC910480F581E02DCB0171
:1039500009955C01D401ED91FC910480F581E02D85
:10396000C40109957C01D401ED91FC910480F5819D
:10397000E02DC4010995F5016480758041E0B40132
:10398000CE010E94A81000E021E04AE053E168E285
:1039900070E080E090E00E949C2121E046EF52E13F
:1039A00068E270E08FE490E00E949C2159E0C52E0F
:1039B000D12C00E021E04DED52E168E270E0C6015B
:1039C0000E949C21FEE0CF0ED11C8FE4C816D104CA
:1039D00081F78C85823009F467C050F0833009F498
:1039E0009DC0843009F0BEC0CE010E94E810BAC06C
:1039F00013E01E831F8318876E01A2E0CA0ED11C3C
:103A000061ED72E1C6010E94E82382E48E838F8318
:103A100018872E8541E552E162E070E083E390E093
:103A20000E9413258C85813009F09CC0C30168E198
:103A300070E00E94323491E08D3008F490E08D8582
:103A4000863410F4911119863E85F70126892317D3
:103A500098F0863470F4992361F0EE24E39407E043
:103A60002FE043E050E060E470E0C50101960E9461
:103A7000671C6DE472E112C0863470F4992361F022
:103A8000EE24E39407E02BE043E050E060E470E0D4
:103A9000C50101960E94671C6AE472E1C6010E949A
:103AA000E82381E089875EC06D85C4010E94802380
:103AB000ED85ED3010F5F0E0E057FE4F8081882372
:103AC00009F450C010E0312F330F8D8590E0FC01D8
:103AD000E057FE4F2081121708F044C04096880F2F
:103AE000991F00E021E04BE352E168E070E0830FB2
:103AF000911D0E949C211F5FE6CFEE85F0E0EE0F46
:103B0000FF1FEE57FE4F4081518100E021E06AE047
:103B100070E08EE190E00E949C2124C060E0C4012E
:103B20000E948023EE85F0E0EE0FFF1FEE57FE4F60
:103B30004081518100E021E06AE070E08EE190E098
:103B40000E949C2184E08E838F831886EE85F0E0AE
:103B5000EE0FFF1FEA58FE4F60817181CE01029681
:103B60000E94E8238E85AA24A394813009F0A12C19
:103B7000CC24C394823009F0C12CEE24E39483302A
:103B800009F0E12C01E0843009F000E021E085300B
:103B900009F020E08C85833021F441E08D85863466
:103BA00008F040E0B401CE010E94A10FDF91CF9157
:103BB0001F910F91FF90EF90DF90CF90BF90AF904B
:103BC0009F908F907F906F900895AF92BF92CF9209
:103BD000DF92EF92FF920F93CF93DF935C01D42F8C
:103BE000D61BC0E0C22ED12CE62EF12CB7016C0FF3
:103BF000711D202FA601C5010E94191CCE5FDC1784
:103C0000A8F7DF91CF910F91FF90EF90DF90CF90C9
:103C1000BF90AF900895CF92DF92EF92FF920F93F3
:103C20001F93CF93DF936C017A018B01C0E0D0E04A
:103C3000CE15DF0589F0D8016D918D01D601ED918A
:103C4000FC910190F081E02DC6010995892B11F4BA
:103C50007E0102C02196ECCFC701DF91CF911F9169
:103C60000F91FF90EF90DF90CF9008950E947935EB
:103C7000DC01EC918E2F90E0FC013197EE30F105E4
:103C800008F0E7C0EA5AFF4F0C944634E2E0F7E050
:103C90008FE0DF011D928A95E9F7CF010E94F511AF
:103CA00083E892E046C0E2E0F7E080E1DF011D92A8
:103CB0008A95E9F7CF010E94F51183E792E090938E
:103CC00003078093020710920E0710920F071092BD
:103CD000100786E080931107B9C0E2E0F7E080E1C9
:103CE000DF011D928A95E9F7CF010E94F51183E665
:103CF00092E036C0E2E0F7E08DE0DF011D928A95A8
:103D0000E9F7CF010E94F51183E592E09093030754
:103D10008093020710920E0799C0E2E0F7E08FE06F
:103D2000DF011D928A95E9F7CF010E94F51183E426
:103D300092E0909303078093020710920E0710926F
:103D40000F071092100782C0E2E0F7E080E1DF0188
:103D50001D928A95E9F7CF010E94F51183E392E065
:103D6000909303078093020710920E0710920F079B
:103D7000109210071092110769C0E2E0F7E084E1A9
:103D8000DF011D928A95E9F7CF010E94F51183E2C8
:103D900092E0909303078093020710920E0710920F
:103DA0000F0710921007109211071092120710922D
:103DB0001307109214071092150748C0E2E0F7E0CD
:103DC00086E0DF011D928A95E9F783E092E0909307
:103DD00003078093020780E88093040780E48093C0
:103DE0000607CF010895E2E0F7E08CE0DF011D92C5
:103DF0008A95E9F7CF010E94F51183EF91E0909346
:103E000003078093020722C0E2E0F7E082E2DF01CD
:103E10001D928A95E9F7CF010E94F51183EE91E09A
:103E2000909303078093020782E080930E078093AC
:103E30000F07809310078FEF8093130710921C07D2
:103E400010921D0710921E071092230782E097E040
:103E5000089580E090E008952F923F924F925F92F4
:103E60006F927F928F929F92AF92BF92CF92DF928A
:103E7000EF92FF920F931F93CF93DF9300D000D068
:103E800000D0CDB7DEB77B014115510509F429C13A
:103E9000FA01D490319674914E5F5F4FAD2DB0E032
:103EA000222309F1E72FE695E695E695AE2EB12C93
:103EB000E1E0F0E0372F377011F4E0E0F0E0EA0DD8
:103EC000FB1DAE9F5001AF9FB00CBE9FB00C1124E4
:103ED000033011F4AA0CBB1C2A9DF0012B9DF00DA0
:103EE00011244E0F5F1F0F3F09F402E05C01AA0E80
:103EF000BB1E1A141B040CF0F4C0803891050CF0A2
:103F0000F0C09701270F311D121613060CF0E9C0FF
:103F1000F0E4EF16F1040CF0E4C04115510509F48A
:103F2000E0C02E2D27702D839701F7FE02C0295F78
:103F30003F4F63E0359527956A95E1F7F22FF7FE3D
:103F400005C06D81662311F0FFEFF20F97FF05C0EA
:103F500022273327281B390B02C020E030E0E0E89D
:103F6000AE16B10424F060E8762E781A01C07D2CDC
:103F7000721AEF2E0F2E000CFF08FF3F1CF4CE2C00
:103F8000C09401C0C12CE1E0672F677009F4E0E044
:103F90007695769576959E2E970EE90CF11C69E044
:103FA000E616F1041CF0E8E09E2E9F1A1C2D1F0F50
:103FB00060E81603800D911D1124820F931F61E0AC
:103FC00070E00D8002C0660F771F0A94E2F703309D
:103FD00011F0E1E001C0E2E0EE2EF12CCD9C200DCD
:103FE000311D1124E29E5001E39EB00CF29EB00CF4
:103FF00011246A01CA0CDB1C970121503109A20E61
:10400000B31E4A0D5B1DBB24BA94B69E9001B79EA9
:10401000300D1124290140945094F90DFE83A71905
:10402000B109EA9FA02D1124B0E0E79DA00DB11DBC
:1040300011242E81121709F454C09C0127523D4FC0
:104040004A015601612C671409F443C0F50134900C
:10405000369EF001379EF00D1124FA83E983E09536
:10406000F095FC83EB83023019F45C824B8210C024
:104070000B3F19F41A8219820BC0F4013490369E5A
:10408000F001379EF00D1124E095F095FC83EB8351
:1040900017FD09C0F9013080EB81E321F9813E2E43
:1040A0003F2AF9013082FD81FF2359F017304CF48B
:1040B000F901E058FF4F20803C8023203A803228CD
:1040C00030828E0C9F1CAE0CBF1C63942F5F3F4F41
:1040D000BACF1F5FCA0EDB1E4A0F5B1F80589F4F6F
:1040E000A8CF26960FB6F894DEBF0FBECDBFDF91E6
:1040F000CF911F910F91FF90EF90DF90CF90BF90E5
:10410000AF909F908F907F906F905F904F903F9077
:104110002F9008954F925F927F928F929F92AF92CD
:10412000BF92CF92DF92EF92FF920F931F93CF93A4
:10413000DF9300D000D0CDB7DEB7DC0141155105CB
:1041400009F4BAC0FA01D490319634914D2C512C17
:104150005C01A40CB51C1A141B040CF0ADC0803813
:1041600091050CF0A9C0CB01830F911D18161906FB
:104170000CF0A2C0603471050CF09EC0F62FF770F1
:10418000EF2ECB0177FD079623E0959587952A952D
:10419000E1F7F82F77FF04C0EE2011F0FFEFF80FE2
:1041A000B7FF05C0662777276A1B7B0B02C060E05C
:1041B00070E000E8A016B10424F080E8F82EFA1AA6
:1041C00001C0FD2CF61AAF2E0F2E000CBB08FF3FCE
:1041D0001CF4CA2CC09401C0C12C91E0832F8770BD
:1041E00009F490E0369536953695930FA90EB11CDB
:1041F00019E0A116B10414F098E09F1B8C2D8F0FCD
:104200009D01082F10E80103200D311D1124260FF8
:10421000371F4E5F5F4FCD9C600D711D1124460FFF
:10422000571F61E070E00E2C02C0660F771F0A94E2
:10423000E2F7EFEFE69FD001E79FB00D1124A095C4
:10424000B095BC83AB837C809F0F8917A9F1F901DE
:10425000E752FD4F6F01A12CB12CAF1438F5FA01D4
:10426000EA0DFB1DE491E69F4001E79F900C1124AD
:104270009A82898287FD07C0F6011081E12FEA2327
:104280008E2AF6018082EE2051F0873044F4F60148
:10429000E058FF4F908097208A8098289082FFEF07
:1042A000AF1ABF0A0FEFC01AD00AD7CF8F5F440DE5
:1042B000551D20583F4FC9CF0F900F900F900F9072
:1042C000DF91CF911F910F91FF90EF90DF90CF90F2
:1042D000BF90AF909F908F907F905F904F90089588
:1042E000EF92FF920F93CF93DF937C01EB0121E0DC
:1042F00049E067E370E0CE010E948A1B21E049E0BB
:104300006FE370E0CE010E948A1B01E029E047E3E1
:1043100050E0BE01C7010E94371CBE01685F7F4F9D
:1043200029E047E350E0C7010E94371CDF91CF919D
:104330000F91FF90EF9008952F923F924F925F92CE
:104340006F927F928F929F92AF92BF92CF92DF92A5
:10435000EF92FF920F931F93CF93DF93CDB7DEB70A
:1043600061970FB6F894DEBF0FBECDBF7C014A0146
:10437000FA0134913196E491832F8F778F5F282E45
:10438000312CC701820D931D97FDA1C1F0E8EF16F6
:10439000F1040CF09CC18E2F8F738F5FAB01480F1F
:1043A000511D57FD94C1603471050CF090C1331F4D
:1043B0003327331F3B8331E0E6FF30E0EE1FEE276B
:1043C000EE1FEF83AB0177FF04C044275527461B40
:1043D000570B5A0117E0A122BB24AB0177FF02C0A3
:1043E000495F5F4FDA0153E0B595A7955A95E1F71C
:1043F000BA83A98377FF0CC0A114B10449F01197C7
:10440000BA83A98348E050E0FA01EA19FB095F0189
:1044100041E050E06A010A2C02C0CC0CDD1C0A9479
:10442000E2F7D986C886982F9695969596958770C7
:1044300011F4892F02C081E0890F482F880F550B96
:104440005E834D83502F52705A8701FF06C0AD81A5
:10445000BE81119781E0382702C0A0E0B0E0602F54
:1044600061706C8300FF04C0B1016150710902C02A
:1044700060E070E097E040E150E080E0612C712C5A
:104480008101015011091C870B870D811E81A01726
:10449000B1070CF01CC1B7FD1AC18A01CC24C3942A
:1044A000D12CF80143E0F695E7954A95E1F7E80D40
:1044B000F91DE491F0E0A8014770552702C0F59579
:1044C000E7954A95E2F7A8014F5F5F4FE0FF05C00F
:1044D0001FEFC11AD10A8A01E4CFE1E0CE16D10460
:1044E000E9F4FA01F695E795F695E795F695E795DF
:1044F000E80DF91DE491F0E0477055272F0102C047
:10450000559447944A95E2F7F1E04F2255244FEF36
:10451000441A540AA8014E5F5F4F41C08601015002
:1045200011091E870D8744244394512C0D8402C029
:10453000440C551C0A94E2F71FEF411A510A00E09F
:1045400010E0FA01F695E795F695E795F695E7956B
:10455000E80DF91DE491CE2ED12CD98AC88A6A01C2
:10456000E7E0CE22DD24E889F98902C0F595E795D8
:10457000CA94E2F7E0FF0AC0E1E0F0E0002E02C0DA
:10458000EE0FFF1F0A94E2F74E0E5F1E4F5F5F4F64
:104590000F5F1F4FCD84DE840C151D0594F2C12CD6
:1045A000D12CC414D50409F48CC00B81002369F00C
:1045B000E92FF0E0311105C007E010E00E1B1F0BE2
:1045C000F801E952FE4FE0818E2B915008F075C042
:1045D000882309F44AC019811A0F1F8718300CF07C
:1045E00044C0FB01EE0DFF1DE038F105F0F5088534
:1045F0001985809FF001819FF00D1124FE87ED87C2
:104600001F8517FD15C0C701012F10E80103800D9C
:10461000911D1124860F971FFC01E752FD4F8081E9
:104620009D85222311F0892B02C0909589238083D8
:10463000A114B104D1F0EF85E730B9F0EF3FACF051
:10464000C7010E2F10E80103800D911D1124860F64
:10465000971FFC01E75AFC4F80819E85222311F0B1
:10466000892B02C09095892380830F81002311F04C
:1046700011E031278FEF681A780A9C81992319F08D
:104680006150710902C06F5F7F4F6214730464F060
:104690000A85002311F0119701C011961C81112386
:1046A00031F06B857C8505C097E080E006C060E056
:1046B00070E097E080E0612C712CEFEFCE1ADE0AFB
:1046C00070CFCC24C394DB80CD18CB82DECE619634
:1046D0000FB6F894DEBF0FBECDBFDF91CF911F9113
:1046E0000F91FF90EF90DF90CF90BF90AF909F9091
:1046F0008F907F906F905F904F903F902F90089594
:10470000EF92FF920F93CF93DF931F92CDB7DEB757
:10471000DC01ED91FC910480F581E02D6983099520
:104720006981E62FF0E0EE0FFF1FE354FE4FE080BB
:10473000F18000E021E0A70168E070E08CE190E00A
:104740000E949C2101E021E0A70168E070E08CE27A
:1047500090E00E949C2102E021E0A70168E170E066
:104760008CE190E00E949C2103E021E0A70168E138
:1047700070E08CE290E00E949C210F90DF91CF913D
:104780000F91FF90EF900895CF93DF9300D000D06A
:10479000CDB7DEB7611571058105910579F09B01F3
:1047A000AC0169833A834B835C830E94AB332981DC
:1047B0003A814B815C810E94CF3303C060E070E09E
:1047C000CB010F900F900F900F90DF91CF91089534
:1047D000EF92FF920F931F93CF93DF938C017B0196
:1047E000C0E0D0E0F701EC0FFD1F6491662361F09B
:1047F000D801ED91FC910190F081E02DC80109955F
:10480000892B11F02196EECFCE01DF91CF911F9130
:104810000F91FF90EF9008956115710579F0FB01FC
:1048200001900020E9F73197AF01461B570BDC01DF
:10483000ED91FC910280F381E02D099480E090E0FD
:1048400008954F925F926F927F92EF92FF920F9333
:104850001F93CF93DF93CDB7DEB7A1970FB6F89430
:10486000DEBF0FBECDBF7C01FA01CB0119A2223001
:1048700008F42AE08E010F5D1F4F422E512C612C4F
:10488000712CBF01A30192010E940134F901CA01F8
:10489000015011096A3014F4605D01C0695CD801EF
:1048A0006C93232B242B252B61F7B801C7010E94A1
:1048B0000C24A1960FB6F894DEBF0FBECDBFDF91DA
:1048C000CF911F910F91FF90EF907F906F905F902D
:1048D0004F900895CF92DF92EF92FF920F931F9324
:1048E000CF93DF936B01770FEE08FF08F7FE1FC031
:1048F000EC01E881F9810190F081E02D6DE20995EC
:104900008C0144275527BA014C195D096E097F09AE
:104910002AE0CE010E942124800F911FDF91CF91C8
:104920001F910F91FF90EF90DF90CF9008952AE0B4
:10493000B701A601DF91CF911F910F91FF90EF90EA
:10494000DF90CF900C9421243FB7F89480912607F4
:1049500090912707A0912807B091290726B5A89B19
:1049600005C02F3F19F00196A11DB11D3FBFBA2F01
:10497000A92F982F8827820F911DA11DB11DBC0161
:10498000CD0142E0660F771F881F991F4A95D1F726
:1049900008951F920F920FB60F9211242F933F93F9
:1049A0008F939F93AF93BF938091D5029091D6023E
:1049B000A091D702B091D8023091250723E0230FB0
:1049C0002D3720F40196A11DB11D05C026E8230F47
:1049D0000296A11DB11D209325078093D5029093C7
:1049E000D602A093D702B093D80280912607909167
:1049F0002707A0912807B09129070196A11DB11D95
:104A00008093260790932707A0932807B093290740
:104A1000BF91AF919F918F913F912F910F900FBEBA
:104A20000F901F9018950F9302E00E942C1F0F917A
:104A30000895F89487E78093000880930108A8956B
:104A400088E18093600088E080936000FFCF8F92C0
:104A50009F92AF92BF92CF92DF92EF92FF926C0142
:104A6000E12CF12C0E94A4244B015C01C114D1045F
:104A7000E104F104F1F00E94A424DC01CB018819C7
:104A80009909AA09BB09883E9340A105B10570F3B5
:104A900021E0C21AD108E108F10888EE880E83E00F
:104AA000981EA11CB11CC114D104E104F10419F732
:104AB000DDCFFF90EF90DF90CF90BF90AF909F90B1
:104AC0008F900895EF92FF920F931F93CF93DF93F0
:104AD000EC017B01DB01ED91FC910480F581E02D7F
:104AE000CB0109958C0140E0B701CE010E94E4168C
:104AF000D701ED91FC910480F581E02DC701099566
:104B0000FC018081873001F1883009F441C0863092
:104B100009F045C0D8011E96FC9066E070E080E088
:104B200090E00E94C4236F0D6E5F6F87D8011E96C0
:104B3000EC91EF3028F4F0E0E15AF34EE49101C03B
:104B4000E5E0EE0FEE5F22C0D8011E96EC91EF304B
:104B500028F4F0E0E15AF34EE49101C0E5E08E2F35
:104B6000880F880FE80FE65FEF87D8011E96EC915B
:104B7000EF3058F4F0E0E15AF34EE491E53028F4D8
:104B8000F0E0E55FF64EE49101C0E0E0E88B07C09D
:104B9000F8018685880F8E5F8F8785E0888B82E09D
:104BA0008D87DF91CF911F910F91FF90EF90089526
:104BB0008F929F92AF92CF92EF92FF920F931F939B
:104BC000CF93DF93EC014B01DB01ED91FC9104806D
:104BD000F581E02DCB01099544EFE42EFF24FA94F2
:104BE00000E021E040EC58E168E270E0C7010E947B
:104BF0009C21B4E1EB0EF11C88E5E816F10481F785
:104C000041E0B401CE010E94A8108C85813009F4E6
:104C100046C038F0823009F066C0CE010E94E8102C
:104C200062C06D85C4010E948023ED85ED3030F5B2
:104C3000F0E0E955FD4F8081882309F454C010E06D
:104C4000912F990F2D8530E0F901E955FD4F8081B5
:104C5000181708F048C0205F3F4FF901EE0FFF1F03
:104C600000E021E041EB58E168E070E0DF01A90FCE
:104C7000B11DCD010E949C211F5FE2CFEE85F0E0C7
:104C8000EE0FFF1FE756FD4F4081518100E021E00C
:104C90006AE070E08EE190E00E949C2124C060E018
:104CA000C4010E948023EE85F0E0EE0FFF1FE7565F
:104CB000FD4F4081518100E021E06AE070E08EE12B
:104CC00090E00E949C2184E08E838F831886EE857D
:104CD000F0E0EE0FFF1FE357FD4F60817181CE01C1
:104CE00002960E94E8238E85AA24A394833009F0BB
:104CF000A12CCC24C394813009F0C12CEE24E39480
:104D0000853009F0E12C01E0823009F000E021E07B
:104D1000843009F020E08C85813021F441E08D85DC
:104D2000863408F040E0B401CE010E94A10FDF916B
:104D3000CF911F910F91FF90EF90CF90AF909F90E8
:104D40008F900895FC01DB0182818F5F8283833025
:104D500081F030F4813059F0823069F481E009C08B
:104D6000843039F0853039F486E083830DC01382B6
:104D700029C0838327C0863029F481818D3089F44E
:104D80008DE008958530F1F481818630D9F028F4E2
:104D90008130C1F0833029F415C0893099F08D300D
:104DA00089F011968C911197815011968C931197DF
:104DB000128211968C9187FD05C081818F5F81835E
:104DC000138214828AE008954F925F926F927F92CD
:104DD0008F929F92BF92CF92DF92EF92FF920F93AA
:104DE0001F93CF93DF9300D01F92CDB7DEB78C0116
:104DF0006B01DB01ED91FC910480F581E02DCB018D
:104E000009954C01D601ED91FC910480F581E02DCE
:104E1000C60109957C01BC016E5E7F4FD601ED9104
:104E2000FC910480F581E02DC6016A837B8309959E
:104E3000DC010D96F401B780B0942681B222F8010E
:104E40004484512C6A817B81FDE04F16510408F0A7
:104E5000E5C2F201EC59FF4F0C944634B3FE04C096
:104E600085E4D8015B968C93F801838D863408F035
:104E7000D5C28F5F838F863409F0D0C2138E8585AB
:104E8000848759C082E0F8018687B3FC06C0D80148
:104E90005B96EC91E13108F154C081E1F801838F18
:104EA000B12CD70156968C91B81688F738016B0C47
:104EB000711CD3015D968C9181110DC066E070E08C
:104EC00080E090E00E94C423DC01CB010196A11D8B
:104ED000B11DF301828BB394E4CFF0E0E05FF64EB6
:104EE000649170E0F401848195810E943234892BB1
:104EF00009F094C2D12CD70156968C91D816B8F4EB
:104F000038016D0C711CD3015D968C9181110DC01F
:104F100066E070E080E090E00E94C423DC01CB01F9
:104F20000196A11DB11DF301828BD394E4CFF8014A
:104F3000838D8F5F838FD40115961C921E921497D8
:104F40006DC2F8018289863059F08389863051F02C
:104F50008489863049F08589863041F088E007C031
:104F600084E005C085E003C086E001C087E0D80189
:104F700051968C9341E0B601C8010E94E41683E08B
:104F8000F6C0B5FE2AC0D80151968C915197883051
:104F90002CF055969C91963019F417C0873029F45F
:104FA000F8019489963019F412C0863031F4D80192
:104FB00053969C91963019F40CC0853059F4F80141
:104FC0009289963039F484E005C087E003C086E01A
:104FD00001C085E0D80151968C93B6FE2CC0F80133
:104FE0008189843024F48289863019F41BC084308E
:104FF00031F4D80153968C91863019F415C0853060
:1050000029F4F8018489863019F410C0863039F407
:10501000D80155968C91863059F487E00AC08730C4
:1050200041F406C084E005C085E003C086E001C00D
:1050300088E0F801818BB3FEF1C1D8015196EC9163
:10504000E4300CF4EBC1E83034F0E83009F0E6C1AC
:10505000912CB12C1EC0D8015B961C925B970E2E32
:10506000000CFF0B3497E00FF11F158E86898F5FC0
:10507000868B82E076C0F801E90DF11D82898130CE
:1050800039F0B80E8689982F990F890F880FB80EBE
:105090009394D601ED91FC910480F581E02DC60139
:1050A0000995FC018689981630F3D80191968C9168
:1050B000811185E0B80EF801878590E08B19910980
:1050C0008F31910514F08EE190E097FF02C080E0EF
:1050D00090E0D8011F968C9340E0B601C8010E9471
:1050E000E416F8018785811105C0B601C8010E9448
:1050F0001A1794C1D801138E83E0868788E0818BCC
:10510000BB20C9F01486F701918D808D890F928D97
:10511000890F938D890F61F45C968C915C97811156
:1051200002C085E002C082E0D8011D968C9376C152
:1051300084E0F80119C1D70159969C915997589666
:105140008C915897890F5A969C915A97890F5B9624
:105150009C91890F79F4F801848D811107C085E055
:10516000D8011C968C935AC1B3FE58C182E0F80155
:10517000848754C184E0F4CF84E0F8018687B7FCCB
:1051800002C0B5FE2CC0D80151962C91D601ED91EC
:10519000FC910480F581E02DC6012A830995FC016C
:1051A0002A81243024F0838D811112C002C012168E
:1051B000A4F4808D81110EC022307CF0818D81118C
:1051C0000BC0223051F0828D882339F022E005C0D7
:1051D00023E003C020E001C021E0F801218B8B2DEA
:1051E000807591F1D80151962C91D601ED91FC91E9
:1051F0000480F581E02DC6012A830995FC012A81EE
:1052000023307CF4838D811116C027FF04C0808D6C
:10521000882319F012C0121624F0818D882319F00A
:105220000EC0213029F4828D882359F022E00AC073
:1052300028303CF007C023E005C020E003C021E097
:1052400001C028E0F801218BB3FEE8C0D8015196D7
:105250008C91813081F11CF4882339F05CC082305C
:10526000B1F1833009F440C056C0F701808D815000
:10527000808FD8011F968C9190E00A978F3191050D
:1052800014F08EE190E097FF02C080E090E0F8011A
:10529000878740E0B601C8010E94E416D8011F9636
:1052A0008C911F97882309F420CF84E01E968C935D
:1052B0001E978AE056CFF801848F89E08487D70152
:1052C00059968C915997815059968C93A7C081E03B
:1052D000F80181A38BE08487D7015A968C915A9765
:1052E00081505A968C939AC08CE0F8018487D7013C
:1052F0005B968C915B9781505B968C935B975596F0
:105300008C9190E008968531910514F084E190E04D
:10531000F701858B83C0D8015C968C911ECFF70175
:105320008589282F30E0D80150968C9190E04289F1
:10533000841B91098333910514F082E390E097FF79
:1053400002C080E090E0F901E81BF90BCF01F7FF04
:1053500002C080E090E0D70155968C93892B31F400
:1053600081E0F801848788E0858758C040E0B60175
:10537000C8010E94E41681E0D8011C968C931C970A
:1053800082E0D3CEB3FE11C021E051962C93D6011A
:10539000ED91FC91E084F1840E94A2268983BE01F4
:1053A0006F5F7F4FC601F7010995D8015B968C911D
:1053B0005B97863498F58F5F5B968C935B9786340A
:1053C00069F51C968C911C971E968C931E9787E00E
:1053D000C8CEB3FE23C021E051962C93D601ED91A7
:1053E000FC91008511850E94A2268983BE016F5F12
:1053F0007F4FC601F8010EC0B3FE10C0D601ED917B
:10540000FC910084F185E02D8EE08983BE016F5F01
:105410007F4FC601099502C0B3FCA1CE0F900F903B
:105420000F90DF91CF911F910F91FF90EF90DF9040
:10543000CF90BF909F908F907F906F905F904F9094
:105440000895DC0114968C911497E82FF0E0E45550
:10545000F74EE49115969C911597690FE61718F091
:1054600015966C9308956F5F6E1B15966C93159748
:105470008F5F14968C9308958F929F92AF92BF92F4
:10548000CF92DF92EF92FF920F931F93CF93DF9310
:105490001F92CDB7DEB78C017B01DB01ED91FC9152
:1054A0000480F581E02DCB0109954C01D701ED91E8
:1054B000FC910480F581E02DC70109956C015C0128
:1054C000B2E1AB0EB11CD701ED91FC910480F581E6
:1054D000E02DC7010995AC01F401978190952681D3
:1054E0009223D8011C962C91213009F467C020F03A
:1054F000223009F48CC09AC0F80185858C3088F47C
:1055000066E070E080E090E00E94C423DC01CB0103
:105510000196A11DB11DF801868785858F5F85875E
:1055200085C09685933029F128F4913041F092306E
:1055300099F03FC0943061F1953079F13AC0F601AD
:10554000848990E002968B30910514F08AE090E017
:10555000D60154968C932DC0F601858990E0029671
:105560008531910514F084E190E0D60155968C9335
:1055700020C0F6018389082E000C990B01968B3010
:10558000910514F08AE090E0D60153968C9311C0F7
:1055900062E0C5010E94212A0CC0F601828990E0D8
:1055A00001968630910514F085E090E0D601529680
:1055B0008C9381E0F8018487158638C093FF05C07D
:1055C00086E4D8011D968C9398E0F8012585263451
:1055D00018F42F5F25872AC093FF28C08685D7013E
:1055E000ED91FC91863070F400851185B501CA01FA
:1055F0000D960E94A2268983BE016F5F7F4FC7016F
:10560000F80113C00084F185E02D88E009C093FF04
:105610000DC0D701ED91FC910084F185E02D8EE065
:105620008983BE016F5F7F4FC70109950F90DF919E
:10563000CF911F910F91FF90EF90DF90CF90BF908F
:10564000AF909F908F9008950895FC01128213826D
:1056500080E4848381E085830895AF92BF92CF92E6
:10566000DF92EF92FF920F931F93CF93DF931F92DE
:10567000CDB7DEB77C018B01DB01ED91FC9104809D
:10568000F581E02DCB0109955C01D801ED91FC91EC
:105690000480F581E02DC80109956C01F501978121
:1056A000909526819223D7011C968C91813051F1DF
:1056B00020F0823009F454C062C0F50184819581E4
:1056C00065E070E00E943234892B09F058C0D701A0
:1056D0001E968C911E97482F082E000C550B1F9676
:1056E0002C911F9730E04217530724F48F5F1E96CA
:1056F0008C9345C08FE7F701868781E0848787E038
:1057000085873DC097FF0AC0D60150968C918230A4
:1057100011F0853019F48150F601808B94FF0AC096
:10572000D60150968C91813011F0843019F48F5F3E
:10573000F601808B93FF23C0D801ED91FC91E084AA
:10574000F1840480F581E02DC8010995F601608996
:1057500070E0645E7F4F680F791FC801F7010EC0CB
:1057600093FF0DC0D801ED91FC910084F185E02DEF
:105770008EE08983BE016F5F7F4FC80109950F904E
:10578000DF91CF911F910F91FF90EF90DF90CF901D
:10579000BF90AF900895AF92BF92CF92DF92EF92F9
:1057A000FF920F931F93CF93DF931F92CDB7DEB776
:1057B0006C018B01DB01ED91FC910480F581E02D02
:1057C000CB0109955C01D801ED91FC910480F58134
:1057D000E02DC80109957C01D801ED91FC91048070
:1057E000F581E02DC8010995FC01D50116962C9193
:1057F000169717969C9190959223D60124FF0BC083
:105800001C968C911C97803120F48F5F1C968C9392
:1058100004C00E9419251C961C9295FF05C0858521
:10582000882311F08150858796FF05C085858330D8
:1058300010F48F5F858793FF4DC09585990F990F61
:10584000F701178AE92FF0E0E253F24EE491D70115
:105850005296EC935297E1E0E90FF0E0E253F24EFA
:10586000E4915596EC935597E2E0E90FF0E0E253AE
:10587000F24EE4915496EC9354979D5FE92FF0E03B
:10588000E253F24EE4915396EC935397DD24D39474
:105890005696DC92D801ED91FC910480F581E02DC3
:1058A000C8010995FC0116861786118A108A108E88
:1058B000118E128E138ED68A178AD801ED91FC9123
:1058C0000084F185E02D8AE08983BE016F5F7F4F00
:1058D000C80109950F90DF91CF911F910F91FF9013
:1058E000EF90DF90CF90BF90AF9008956F927F922E
:1058F0008F929F92AF92BF92CF92DF92EF92FF92E0
:105900000F931F93CF93DF931F92CDB7DEB77C0128
:105910006B01DB01ED91FC910480F581E02DCB0161
:105920000995D601ED91FC910480F581E02DC60129
:10593000099500E021E042E25DE16EE070E08EE179
:1059400090E00E949C21F701828187FD42C0248162
:1059500030E08381281B310937FF02C02F5F3F4FA2
:1059600035952795122F812C912C20E8622E712CD1
:10597000F7014281811640F55401AA0CBB1CD701E6
:1059800013968C91B501680F711D603471052CF46C
:1059900020E080E090E00E948A1BF7018381B5013E
:1059A000680F711D6F5F7F4F82816034710544F411
:1059B00020E0482FD301A81BB109CD010E948A1B0A
:1059C000BFEF8B1A9B0AD4CF47FD03C08581480FD8
:1059D0004283D70112968C9187FF0DC0D601ED91BD
:1059E000FC910084F185E02D8CE08983BE016F5F1E
:1059F0007F4FC60109950F90DF91CF911F910F91B5
:105A0000FF90EF90DF90CF90BF90AF909F908F90DE
:105A10007F906F9008952F923F924F925F926F9276
:105A20007F928F929F92AF92BF92CF92DF92EF922E
:105A3000FF920F931F93CF93DF9300D000D000D03D
:105A4000CDB7DEB79E838D834B01DB01ED91FC91D9
:105A50000480F581E02DCB0109952C01D401ED9155
:105A6000FC910480F581E02DC40109953C01D4012D
:105A7000ED91FC910480F581E02DC4010995F301BD
:105A8000178581E0AD81BE8119968C931997169682
:105A90001C92169717961C92179718961C92189797
:105AA0006D01B2E0CB0ED11C6EEC72E0C6010E941B
:105AB0000C24D3011E96EC91EF3028F4F0E0E15A6B
:105AC000F34E649101C065E070E06F5F7F4FC601E7
:105AD0000E946A2460ED72E0C6010E940C24F3016A
