:100000000C9469110C9491110C9491110C94911110
:100010000C9491110C9491110C9491110C949111D8
:100020000C9491110C9491110C9491110C949111C8
:100030000C9491110C9491110C9491110C949111B8
:100040000C9491110C9491110C9491110C949111A8
:100050000C9491110C9491110C9491110C947023A7
:100060000C9491110C9491110C9491110C94911188
:100070000C9491110C9491110C9491110C94911178
:100080000C9491110C9491110C9491110C94911168
:100090000C9491110C9491110C9491110C94911158
:1000A0000C9491110C9491110C9491110E190E193C
:1000B0002D19AD199E1A441B741B861B9E1B921A88
:1000C000AE1BAE1B921A7C27A5275527BE278E276D
:1000D000FB27FB27FB2720286227DF278927F42718
:1000E0004D6F6E7374657220202020202020202008
:1000F000357E444D4700466F756E647E5368696572
:100100006C64202020202B317E415200576865749A
:1001100073746F6E65202020202020202B327E58A3
:100120005000466F756E647E4D65617420202020FE
:100130002B317E466F6F64004865616C74687E5039
:100140006F74696F6E2020202B327E485000466FFE
:10015000756E647E4C6F6F742020207E2B327E473C
:100160006F6C64001B1F3F8BC562020318C060B335
:10017000F94BEC73133184014409A627F7FA112CCB
:10018000168BC9024A58C0A20409252C4A5894204B
:10019000A1844510085260B1D96CFED21B9FDF6468
:1001A0006472451C9B27AD02A584F49772CF46105C
:1001B000162C5860848211162C5820C8CE9DDF0161
:1001C0004C0000000046669220D481640519162474
:1001D0004966060000000013F87D7CCDAFF17D1B61
:1001E0005FEF79C1CAE218080081BC01160BB8752F
:1001F000008B1B3F8E23A7B5194802008041008465
:1002000075E5017F81FD0E0004000400E69F8BC5AB
:1002100062028BCDEF021B9F9F62667044C6903BCB
:1002200087D4D18C0E85E92FE8040240A5820242D2
:100230005400105480408C131800006C013760602B
:1002400001411622B20865F16C954013002A062878
:1002500088A110D9102155B0414D6A00005000000E
:10026000000D000081041184F1433C2237E4D61BC9
:1002700072EB0D3CFA391B9F3F9C1B72E6D75092E4
:10028000580E1A045021D30A384B03C445E93ACC1E
:100290004119842377AEFCB206D04A2E3442182886
:1002A0008380250B76B1D00FF5D65B6FBDF5861C2C
:1002B0003D0AB7DE7A046EBDF50A1B9F5FE69070BB
:1002C0000C2C00C9AD838AD0457F94B3F18DA7393A
:1002D0002F6301E9691D260C38A0EFF828CFBA8EEC
:1002E0002CCE9009F3C4990D5C24B6E5989FC935CE
:1002F000B71E3DF3B51CB9031F1FBF74C16432D9CB
:10030000EBEFB9DFEFBFE77EBFFF9E6B33994C5831
:10031000BF141F9FBF6B851B72436EC88DACBFD7C8
:10032000FEFEFE7BEDEFEFBFD85AC80DB921376452
:10033000AD5F061F9FBF63851B72436EC80DB92159
:1003400037B2FE1EFBF7EDBFC7FE7DFB2FB2167264
:10035000436EC80DB9213764AD5F021F9FDF5DE1B9
:1003600086DC901B72436EC80DB92137B27EEFFE5A
:10037000FDFBF7EEDFBF7FF15AC80DB92137E486E8
:10038000DC901B7243D6FA321F9FDF59E186DC9066
:100390001B72436EC80DB92137E486DCC8FA3DFBF9
:1003A000EFB37FCFFEFBEC5FB41672436EC80DB99E
:1003B0002137E486DC901B7243D6FA121F9FEF565A
:1003C000B82137E486DC901B72436EC80DB9213723
:1003D000E486DCC8FADEFEFBEDEFEDBFDFFEE25A9D
:1003E000C80DB92137E486DC901B72436EC80DB985
:1003F000213764AD9703081F051F1F151B1F11111F
:100400001F110E1F15111F05011F111D1F041F00B5
:100410001F0010101F1F041B1F10101F061F1F019D
:100420001F1F111F1F05071F311F1F051B17151D3C
:10043000011F011F101F0F100F1F0C1F1B041B0794
:100440001C071915130C121E1F120C1E12120C126F
:100450001F0C1A14041F052E2A1E1F021C001D004B
:10046000201D001F041A011F001E041E1E021E1E56
:10047000121E3E120C0C123E1E020614120A020F2D
:10048000121E101E0E100E1E081E1A041A2E281EF2
:100490001A12161F111F121F101D151711151F07F5
:1004A000041F17151D1F151D01011F1F151F1715EF
:1004B0001F001700001000040404040E04022906A3
:1004C0000A0000340F0000F804C4A464A4E4C404C7
:1004D00004046484640484448404C404C40404E4FC
:1004E00024C404A404844484048444E4040404C4AC
:1004F000E4A464A4C404F8000000000F1010131159
:1005000013111010101010131010111211101112DD
:1005100011101013121110131011131210111213C5
:10052000101010101113111310100F000017F74FB7
:10053000912041063290B74081DF0A1C0870EB061B
:10054000C24340E067DBC0188CE17B107E77411727
:1005500025AC3E477E7A4209AC43DEB15CFC4E26B8
:10056000A3459A91F7DCF87DBDE5B42EE26BE0027D
:10057000FC2E8BCF7B636DB096524B69B43756CE51
:100580009C73EBADB74CD7BF1EF9EF1347FF5F214C
:10059000E4BF56590707002A003E2A3E000707001D
:1005A0000C3A163A0C000707001A2432241A0007E6
:1005B00007002A18360C2A001F9F7B851B72436E8A
:1005C000C80DB92137E486DC901B72436EC80DB9A3
:1005D0002137B2EEFBEFBBEFFBEFBB5FAC85DC90EE
:1005E0001B72436EC80DB92137E486DC901B724341
:1005F0006EC80D59EB02011F2020010140001000C0
:10060000040021080813170160F11D160B28500083
:100610000A2C60B1F90A02800020005060BB810200
:1006200000028000200008000280002050AE14105C
:1006300000040001400010000400010001589C5813
:1006400000140004284F2800028000200008000049
:10065000596F757E757365647E617E6865616C69CE
:100660006E677E7370656C6C2E0A2020207E596F39
:10067000757E686176657E6761696E65647E380A3D
:10068000202020207E65787472617E48507E706FD5
:10069000696E74732E007E596F757E757365647E06
:1006A000617E706F69736F6E7E7370656C6C2E0AFD
:1006B00020207E4465616C7E327E65787472617E36
:1006C00064616D6167650A2020202020202070650C
:1006D000727E7475726E2E0020596F757E7573650B
:1006E000647E617E666972657E7370656C6C2E0ACD
:1006F0002020207E4D6F6E737465727E6C6F736503
:10070000737E31300A20202020202048507E706FD8
:10071000696E74732E0020596F757E757365647EE3
:10072000616E7E6963657E7370656C6C2E0A202035
:100730007E4D6F6E737465727E69737E66726F7ABA
:10074000656E0A202020207E666F727E74776F7E31
:100750007475726E732E0001010101010101010225
:100760000202020404040808320F0000F80404E442
:10077000A404C444840484448404C4448444840499
:10078000C404C4040404E4846404A404E404E40489
:10079000844484048444E40404F8000000000F103E
:1007A0001013121013101310111312101310131032
:1007B0001310101513101010131013101310131022
:1007C00013101113121011121310100F0000090949
:1007D000AAFF010100010101000101010001010165
:1007E000AAFF000101010001010100010101000156
:1007F000010100010408003E1C080909FE01010175
:1008000001010101FE000101010101010100FE01E0
:10081000010111010101FE000101010101010100BD
:10082000FE01050101014101FE000101010101017B
:100830000100FE01410111010501FE00010101015C
:1008400001010100FE01450101014501FE00010118
:10085000010101010100FE01450111014501FE00F8
:100860000101010101010100FE01550101015501D4
:10087000FE00010101010101010011AFEFC6A2005C
:100880002C24C0420060D1F11038F281D000022047
:1008900000200008000220010CBD73E633B00608FA
:1008A000002A08480202C0025977E004C047F63423
:1008B00006828242301E0E2F80C9003E3165010043
:1008C000B20608000B64CD47403800E73C126EC802
:1008D0000DB92137BF07ABBF3F37A7C39A43FF2CE2
:1008E000A71CC71E7F8FC0B8E5CAEF5DFEF9D35FB6
:1008F00090F1DDF5F75DF394B3FBAB19F77F40E5BD
:10090000E59FDCACDEC6659DF2B9BFFCAFFCFBB772
:10091000BF0B29FFEFB34FF91CC7B1FF98B9CCF952
:1009200063BB0FE3C8DFE7EFC6AFF1382E731FC616
:10093000F19F93FF5AC67CF5E7CE69CE533EFB2765
:10094000FF71FF0A66BE0F2B3F37075AB709C8C2AF
:1009500061041091028A01B0B203CB3AD0FA471970
:10096000B2100826EE0C8E20016C08E0B0A410072F
:10097000087114265B02D810C0806736935FBC0FE5
:100980000002B7BD25149980080C406452042E085B
:100990001408029341111880080C8A8430994CA0E5
:1009A0004828A0F667EC0D028070DEFBA3031680DA
:1009B00000084402422829C0027E973B93CD66730B
:1009C000D5EA4000040039EDFDE91E5D0E60B180FE
:1009D000E5B13F95E1409440B301805A18C2005AF6
:1009E0005252FEE26E8618C0C072B280C900168BE9
:1009F0007F1E6BFBEFAABBBF0B297FEFB3DD58490E
:100A00009432C12271C86298FC39992CA084925EFC
:100A1000286111874160186258948D4306B0582CA4
:100A2000FE4E842065226500520620650052062095
:100A30006550D21013B09082050B0E603081C564F2
:100A4000C29C3060426142410A05122850A1C06236
:100A5000F139F63C80088880088887E9DE5FED265A
:100A6000861026240491D098BDF73ECC1D9AB93E3D
:100A700096A3CBE572B9BC6699C4C4C157180EA63B
:100A800006A646270C39CCAD952131D9FEB51C2CD4
:100A90003010A1C0624E9848000734E00007B0D87B
:100AA000FCD3D8FFB44CCC8F00A77FD926124016B8
:100AB0008E7F127BDF40000EFB17B3F99BEC7D06A7
:100AC0000140D8FB6754054A9002933FD0DE2704CB
:100AD000000190A1D52B9BCD6666FB97A4A1A10533
:100AE0000638A016009CFCFE710326152A4C8A1CB1
:100AF0001BBECE620183092C360B22C3CDE60775DF
:100B00000F5800C0BE6F00400060EFDFE95EBF73AA
:100B10001F862A511793A86A06ECFDFBBAFBFBB2AD
:100B2000BB3B011000010001100010000180027A9F
:100B3000D803910F2E9E74B07A6B81C5E781B72DD3
:100B4000323C76B07A7420051F03131F2F174C26F2
:100B500002120004240004000109000232D9EB7BD8
:100B6000FB0E00080002800000002000080002C008
:100B700083FDBD7D0700040001400000001000045B
:100B80000001E0C1FE5E3693229322934991499180
:100B9000C9A4790C13DFDF5BE18604842037B27EC1
:100BA000DF7E000002C083FDFBF6030010001EEC98
:100BB0001F99B0596C169BE4A3131F5F5E30994CCC
:100BC000F6FABDFBFDFEBDFBFDFEBDD94C2693E64E
:100BD000E3131F5F5C30994C2693BD7EDFFEDEFE83
:100BE0007DFB7BFBF76533994C2693E6A3139FEFC0
:100BF00056B82137E486DC901B7223EB7BFBF7EDC4
:100C0000EFEDDFB73F9AB0596C169BC566B1596CD2
:100C100092C7139F7B851B72436EC80DB92137E4C1
:100C200086DCC8BAEFDFBFEFFBF7EF47099BC5666D
:100C3000B1596C169BC566B1596C922313DFDF5B0B
:100C4000F95AD6EFFBFEEFFBFE8F9CF3B22E737EBC
:100C500014139FDF59F97AD6EFF93DBFE7F7FCA8E7
:100C6000392FEBB22E737E0C13DFF7955F9BF5FEE9
:100C7000F7BFFFFD1F99F3B22EEBB22EEBB22E732E
:100C80003E0293DF2B7F8DFC2B1A735ED6655DD6FB
:100C9000655DD6655DD665CE010D0F9725132A5487
:100CA000264626512645E6BACF0903183061C0848E
:100CB0000113064C98070D0F57EB6061C00815062D
:100CC0005031C184ED76F701124A300390380C128E
:100CD0003697110D8FDB4B751AC82AE822C1393FB0
:100CE000D1D3BA846E190700DF020D8F0F09259446
:100CF00009260B2C8B20E12B710DC3258E15B9987D
:100D00003572000DCF6FA1B00181DD130CF8A6275D
:100D10000607F442042880E10D0D8F8F0499A0810D
:100D20008282509830493E3A064304415246C2916D
:100D30003B0DCF274919AA40A30205D414501D34F6
:100D4000F866D41128A8000540000AA04221C38EED
:100D5000030DCFA76494F01AC0AB5200441F0520C6
:100D60001428A100D83084C1CCAD47003A7E537519
:100D70006E6B656E7E4B6565707E6F667E4F67211C
:100D8000003A7E466C616D696E677E556E64657271
:100D9000776F726C64003A7E556E646561647E4361
:100DA000617461636F6D6273003A7E506F69736F37
:100DB0006E6F75737E44756E67656F6E73003A7EF5
:100DC0005468657E426C61636B7E536577657273B0
:100DD00000139F0700C2993367DE72E6CC9900F0DA
:100DE0000200F8FD00C00B00E0F70300AF8070E6E2
:100DF000CC99779C397326C011131F97059349002E
:100E00001090002020014040042400084800109069
:100E10000030D9EBBE1F00800020000800028000D7
:100E2000000020000800028000200070DFF7FD00B5
:100E30000004000140001000040000000140001008
:100E40000004000180FBBE6733991499149914299A
:100E50003229322932994C9A23139FFC75F8373482
:100E60002FEBB22EEBB22EEBB22EEBB22EB3010271
:100E7000020304040517082417082417FF13132777
:100E80003B3B4F05E742D435AA1D70447561DB0238
:100E9000A7E81AEE0D5C2A69B4371200D344DD9935
:100EA00009C7E6AED9D1BB232018090737474696B4
:100EB000A72C21815A17F74F912041063290B74055
:100EC00081DF0A1C0870EB06C24340E067DBC018F4
:100ED0008CE17B107E77411725AC3E477E7A420934
:100EE000AC43DEB15CFC4E26A3459A91F7DCF87D5D
:100EF000BDE5B42EE26BE002FC2E459F37162000C4
:100F00002560E2707AED7C76F5EA06A29090A10366
:100F100022DA553B44060CCD671DB9682F9ED06B75
:100F20000FE809BDE6825E855B4EDC2057E5EA05E9
:100F3000F8101740000AC480397472EAE70086A7E7
:100F4000591C51340828591686B54162B8F0D2416F
:100F5000B0C79662CA4E19B0E4CC35AF3973E735E5
:100F6000677F1C020B0805BBFB7AB3CDB4EE1803F8
:100F700024B20A37E0FB63218305C0691C0347E004
:100F8000C8193812E60827E0E65F0D814D38FAC02F
:100F9000CBB8406EC0959FE7DDAB57AF5EBD720426
:100FA000CE5E3922BF0601050506000503060004D2
:100FB0000205000301037FFF705A4B175BBB1D6CDA
:100FC000169BA5ABF02F651CFDEB781CFF4A80BD7E
:100FD0001D6C169BA56B2965B877E5C872A94AC137
:100FE000B6AD50A44891A2EAF2C401B92137E48613
:100FF000DC901B72436EC88DBF8B63D4269424C6CD
:10100000380877AEDCB91A86DB2486E432867F079F
:101010006EC80DB92137E486DC901B72436EC8039D
:10102000A06D05102952A4A8BA54A560DB7671E919
:1010300065296538B0BA59242821008E936FF8B716
:10104000B0BA2F65ACB56F6F6E6F6E7BADBABAEE8E
:10105000ABEBAFCE4342B821086A0C67A0145D4BDE
:10106000175BBB2F2CD2556B68FC80ACB4A485C435
:10107000D2FE48C7F4EAD5C4C478F09A919C328F66
:10108000BC1B6BBCE338733AE50B83CE98833AA85C
:101090004EE687CEDF995CF1EAD59D186DEC18BF5E
:1010A0004A565AD24262691F79880DD652DD7DC0F8
:1010B000AC0DD6627D871E6200818401008403101E
:1010C0004EFC2CBC7A750F768A57AFAEC99CEBD418
:1010D0005BB3D25B4F735D73388C5B57D264F5D6CC
:1010E000D3BB3D6E5DA9CDEA6D1C1EB1A657AF26E0
:1010F000316687F183D0430C20903000807000C2AD
:10110000322CCDAC3534DA5B36A7B574B1B5DBF132
:1011100026D041020400F8C57C87338BCD6273E68C
:10112000A39CB9502E940B67CA4B024C0839F08629
:101130000B67CA8572E1CC4739B3596C1667BEC3D9
:101140002F0C74900001001E0D364BD752CA70EF61
:10115000CA91E55295826D5BA130793101F4059B0E
:10116000C566B1596C169BC566B1596C169BC566B0
:10117000B1596C169BC566B1596C169BC566B159C1
:101180006C169BC566B1596C169BC566B1596C1639
:101190009BC566B1596C169BC566B1596C169BC54B
:1011A00066B1596C169BC566B1596C169BC566B184
:1011B0007934019E42912245D5A52A05DBB68B4B99
:1011C0002F4B29C35DDD2C368BA2EBC407C6023042
:1011D0001C9D883D020B11383A81F6570C399071ED
:1011E0007422F1D8CDB1724838F46890D5DBF82973
:1011F00043F6B81964F5D67076228C5F31648F9B04
:101200000117701CA7F1511803378BCDA2E85ABA09
:10121000D8DA7D0150697420202020207E2D327E76
:1012200048502C7E2B46616C6C004D6F76696E6762
:101230007E57616C6C73202020202D317E58500029
:10124000537072696E677E426C6164652020202055
:101250002D317E4850005275737465647E41726D05
:101260006F75722020202D317E41520054726970BA
:101270007769726520202020207E2D317E476F6C9B
:1012800064004D696C646577202020202020207E3A
:101290002D317E466F6F64001B9F7B15000098C048
:1012A00007C64BCD81FBF81630010080AEFB010074
:1012B000000000004278CE60D8C9396E0E7C8110E3
:1012C0000000000000383C590013008003378EDC1A
:1012D000803347E098A7DC3800003001D6A7B97208
:1012E00044E0C43DA771E4F7001BDF178738557C45
:1012F000CD62B317EC75D9739E780A822E10CB0B92
:101300005BC418113FC04891CC4B6F0513307C0370
:10131000C4A1206A79C30275839F01474E5D4CA129
:101320004CA1962F8887E2F217F8804BE4CA11B8D7
:10133000E604FC0C1BDFB718080BDC224241C40595
:10134000226E112E209CF25D10636911DE48078029
:1013500011BFCA740105161061810A0B5458A0C24E
:101360000227819847C262080B1C2C368B4D810DD9
:10137000864D900D806C8894B0286111CA42202C53
:101380007E03578E980B0F721A477E071B9F0FC064
:10139000F0007C033E502F826E110E5C8427E30622
:1013A0005E224F61EC086C306C67C76690A8080E2F
:1013B0004592305C54CE84B0D553E46DCEC0C93B69
:1013C0007060A1B80138312A61205BDDC003364767
:1013D000C2F7B972C45C78C19170027E0E1B9FAFD8
:1013E00091458D0E58125C0220B120242008820203
:1013F00008A0113146C468901BF2491426CCBD05E3
:1014000038F28050A4049475E9171CE0F0B9885BA9
:10141000C42DE216712B2258000E50504901680A63
:10142000BA0A37708BB845FC293EE012397A42E09F
:10143000327E0D1BDF6F43600904661E87C01208F1
:10144000CC3C0E81251098F9093CA43CEEA57058BF
:1014500007C29527DC289F61B180052A2C08C802A5
:1014600022000212581084050B0C20010A40410290
:101470002C161860018BC54FF00197C895538FE368
:10148000123CF95D1F1FBF74C16432D9EBEFB9DFA5
:10149000EFBFE77EBFFF9E6B33994C58BF141F9F71
:1014A000BF6B851B72436EC88DACBFD7FEFEFE7B43
:1014B000EDEFEFBFD85AC80DB9213764AD5F061FF5
:1014C0009FBF63851B72436EC80DB92137B2FE1EE4
:1014D000FBF7EDBFC7FE7DFB2FB21672436EC80D42
:1014E000B9213764AD5F021F9FDF5DE186DC901B91
:1014F00072436EC80DB92137B27EEFFEFDFBF7EEE9
:10150000DFBF7FF15AC80DB92137E486DC901B722A
:1015100043D6FA321F9FDF59E186DC901B72436E7F
:10152000C80DB92137E486DCC8FA3DFBEFB37FCFA5
:10153000FEFBEC5FB41672436EC80DB92137E4862A
:10154000DC901B7243D6FA121F9FEF56B82137E486
:1015500086DC901B72436EC80DB92137E486DCC867
:10156000FADEFEFBEDEFEDBFDFFEE25AC80DB9215A
:1015700037E486DC901B72436EC80DB9213764AD29
:101580009711D767CE9C7DCE63E4E6438EC03527A6
:10159000E0CC31E75C40F8230111D7AF7B436EDE2E
:1015A000790C7ED51383037AE598075C227F24119A
:1015B00097CF80638E3CE7EE0DFC8AA779188F7376
:1015C000E458B8E4EF0311D7778EE00D78CE63F0DE
:1015D000A33D416EDC39E60197C81F091197AF386A
:1015E000E7C87B1E70F33BC049BC096F73E488B940
:1015F000F0170211970F390247E0310FB8F955E59E
:10160000623879CE9123E6C25F084F70656E7E63C3
:10161000686573743A0A596F757E666F756E647E7D
:10162000676F6C647E6F6E6C7921004F70656E7EA3
:1016300063686573743A0A476F6C647E616E647E9A
:1016400074726561737572652100557067726164AB
:10165000657E796F75727E576561706F6E210020AF
:10166000204761696E7E616E7E41726D6F75722179
:10167000004865616C7E506F74696F6E7E2B7E359D
:10168000485021004761696E7E617E506F69736FBB
:101690006E7E57616E642100204761696E7E616EC7
:1016A0007E4963657E57616E642100204761696EE3
:1016B0007E617E466972657E57616E6421001F9F60
:1016C0007B851B72436EC80DB92137E486DC901B05
:1016D00072436EC80DB92137B2EEFBEFBBEFFBEFE3
:1016E000BB5FAC85DC901B72436EC80DB92137E43B
:1016F00086DC901B72436EC80D59EB02011F20203F
:1017000001014000100004002108084E6F005965D7
:1017100073000909FE01010101010101FE0001013F
:10172000010101010100FE01010111010101FE00A1
:101730000101010101010100FE0105010101410159
:10174000FE000101010101010100FE014101110141
:101750000501FE000101010101010100FE01450139
:1017600001014501FE000101010101010100FE012D
:10177000450111014501FE000101010101010100C6
:10178000FE01550101015501FE00010101010101A8
:10179000010045766164657E747261703F008DD78B
:1017A0003DF13EF3F0AD7BB3673E7630714E07817D
:1017B000B2F2398E812E0489D73DF1B1C3E5DCEC5C
:1017C000B91E5F1D04CAF2CE91303609973BF3F083
:1017D00031E6F732777A231C799E45210C0101010D
:1017E00001010101010202020204040408084F7011
:1017F000656E7E63686573743A00D7BF1EF9EF1398
:1018000047FFCF169CBD7AF5CFC199AB675EF3E772
:10181000F0EAD5337FE6A56B09001088110216386F
:10182000124E8413618E70A1040C658E70229C4050
:101830003995430C00000027F582DC908C49891013
:10184000CA858C2237E4863C002A048C810000B8CB
:1018500096AE1F1E40200610488C400C2010150428
:101860006200811880BDF7DE07D6426EC80DB971DF
:10187000D827208006B8EC2B72436EC80DB92137EB
:10188000E4865CF7058802014EFBC00DB921376480
:101890002D0E7BEFBD01620081A820100308C4005B
:1018A000C60410880104728E17402E085C2817EABF
:1018B0008172C176246314E8025C3414192CE48626
:1018C000DC38EC131040035CF615B92137E486DCF4
:1018D000901B7243AEFB02448100A77DE086DC9042
:1018E000C5404ACA1258053A46325AB9500E960BAC
:1018F0002017CA05818B593B9F6FA83000512800E3
:1019000080500022148008052042018850002214D3
:1019100080080504000A80001400010108A2882242
:101920008A2212504400000404A0000840010084F0
:101930000210A100442800110A40840210A10000F6
:101940004201885000406080E59BFB000000800859
:101950000080008C8537F006DEC0F3FE7BEC237838
:10196000036FE00D64AD0400000000000038ECDF00
:10197000B10F0000000000C0DE833367CE5CF6DFED
:10198000633FE2CC99CBDE0000000000C0617F9095
:1019900013E5C0ECA008800631800A858A80002A01
:1019A00029982C413058411004011163446808A261
:1019B000558434209A825041100441104D00900803
:1019C00082200842869D310D312049080052462769
:1019D00007CA89033B97FFC0EFF3304FB4A86C549C
:1019E000362A27E7201B480002C439C809958DCA4A
:1019F0004665A3B251D9A86C544E614C0304200132
:101A0000761853D9A86C54362A2DA779987716B230
:101A100006087480C014045800022C00011680705F
:101A200001810E100608081710E800011680000B4F
:101A30000AB000045800022C28C00210600108A35C
:101A4000807001016180300A081B40800520C002BF
:101A5000106001084E40180584B190050909FE0187
:101A6000010101010101FE0001010101010101006B
:101A7000FE01010111010101FE000101010101014D
:101A80000100FE01050101014101FE00010101010A
:101A900001010100FE01410111010501FE000101EA
:101AA000010101010100FE01450101014501FE00A6
:101AB0000101010101010100FE0145011101450182
:101AC000FE000101010101010100FE0155010101BA
:101AD0005501FE0001010101010101007FFFBF9FCF
:101AE000AB57AF1A29680E5EBD7AF54F1372EADF65
:101AF000A6A7903F8557AF5EBD7AD5484173F0EAFF
:101B0000957F03805C00B9007201E402C805900B68
:101B10002017402EC0DF2737E512BC187E09F122BE
:101B2000B9A0B7FC3D800B0217042E085C10B8204A
:101B30007041E082C005810B02FF1CF86C4208C3B3
:101B400081140CC784508284911BC131904509F6E1
:101B50000000160001180294121C03590C200014F6
:101B600000011895CD9A124ECC6E64231927C696A3
:101B70000310000A80008CCA664D0927820316C92B
:101B800020482821B9113A44068B302A070600055F
:101B900020C877784878C73F24E00040800184233C
:101BA000EFB97AE6EAE4EACFE6CADF8B2B9F030EB1
:101BB0000004184038F2CF16384160020070201C33
:101BC00079CF819096009784508284913B767061A2
:101BD000208EF29CC02A211904092524370E5D9419
:101BE000858CB128C151246C425A660641C2005C02
:101BF000E51BC0090213008003E1C83F5E9C124E42
:101C00008C2D32588451B96700200043F8540601E6
:101C100006321C84901C05008002203828071722F9
:101C2000022000453EC1D8222A2222881706CE452E
:101C30003208124A488E1904092524C70C8204115F
:101C4000C85CFC0B033620B001810D086C406003BA
:101C5000021B10D880C006043620B001810D086C2C
:101C6000406003021B10D880C006043620B00181FA
:101C70000D086C406003023180402820B001810DC6
:101C8000086C406003021B10D880C006043620B0E8
:101C900001810D086C406003021B10D880C006044F
:101CA0003620B001810D086C406003021B10D88003
:101CB000C0060436F0EF823367CE9C3973E6CC99C8
:101CC0003367CE9C3973E6CC993367CE9C3973E683
:101CD000CC993367CE9C3973E6CC993367CE9C3967
:101CE00073E6CC993367CE9C3973E6EF027FFF70C1
:101CF0005A4B175BBB1D6C169BA5ABF05F45606F25
:101D0000079BC566E95A4A19EE5D39B25CAA52B022
:101D10006D2B142952A4A8BAFC2F23D0B602881424
:101D20002952545DAA52B06DBBB8F4B294321C581B
:101D3000DD2C12941000C7C9FF10724310D418CEC6
:101D40004029BA962EB6765F58A4ABD6D0F8015982
:101D500069490B89A5FD0F9DACB4A485C4D23EF2A0
:101D6000101BACA5BAFB80591BACC5FA0E3DC400D4
:101D7000020903000807209CF8CF197A8801041291
:101D80000600100E405886A599B586467BCBE6B472
:101D9000962EB6763BDE043A48800000FFF50B74C1
:101DA000900001001E0D364BD752CA70EFCA91E564
:101DB0005295826D5BA130793101F43F8813E0299F
:101DC000142952545DAA52B06DBBB8F4B29432DCFF
:101DD000D5CD62B328BA4EFC5711C6C0CD62B32828
:101DE000BA962EB6765F000102040810204080D516
:101DF000F08D14A1C881CFD9F1AF2000207E596F9A
:101E00007520616C72656164790A2068617665206D
:101E1000656E6F75676821007E596F7520646F6EFF
:101E20007420686176650A206F6E6520746F207378
:101E3000656C6C2100202020596F75206E656564EB
:101E40000A20206D6F726520676F6C6421001FE7A8
:101E500037168F9005205E9D4280D3388D576C5485
:101E6000368BCD62A3B291B0597C4F00590AC81489
:101E7000DE02021B782D4075C8C316156448FB6945
:101E800000748AB801780B086CE0B500D5210F5BAF
:101E9000549021ED77A9403410A2F53120B081D7BC
:101EA0000254873C6C514186B41FAF4C2687BC0559
:101EB0000436F018290B017CD7B240C6EC3B1FFF5B
:101EC00037166F860A00A05CB2585E5360F5119B0E
:101ED000209BC566B151D948D82C3E40721943F7B2
:101EE00016F02120B0812F20C1519EB5A82043DAE1
:101EF0008F4B455450968F01810D7C01514779D607
:101F0000A2820C693F9879594D9642DE01021B78F6
:101F10008C1415017CD7A2820C69BF2D802C05641E
:101F20000A6F01810D3C16405404F05D8B0A32A407
:101F3000FD34003A45DC00BC050436F05800511170
:101F4000C0772D2AC890F6BB54201A08D1FA181071
:101F5000D8C06301444500DFB5A82043DA8F572677
:101F60009343DE02021B785C9085C4772D0B64CC12
:101F7000BE0301087E3F3F3F97E160B1584C169386
:101F80008900069000124AA8D3E9BF3213F3BDAC12
:101F9000B6110401527098B000800238A06BACFCFE
:101FA0003361B1582C9A2FC6351308000100002068
:101FB0000024C0C4D9001400100058309C2B2B23DF
:101FC000CBC99FD4818466F1FBD86C764042D01097
:101FD0001A102841021440001000040001400010B3
:101FE0000010800218008329445D197FB87D66B314
:101FF000D96C369BC962B2582CD67EEC000A801090
:10200000A66C4A2841200808800451912000022033
:10201000000200F39EF197DA3F7BD706102820904C
:102020003ABC8E9D97400140001000040001400022
:102030001000040001C039D91F630125888A0800F7
:102040000411D1120A2C3EB27FF7868083C567E760
:10205000E621500040001000040001400010000480
:10206000000160EF8E0F030002E064B23F9B1F9FF0
:102070001F978FB0596C169BC566B1B9E6C0643224
:10208000335A700210015C2E974C0AB6ED600107BE
:10209000BFFF7FC69CE63CF9EFE1EFEEE18FFF6FFB
:1020A000E2B04EF973FE33CAE94FF5EF2AE3EFF3DE
:1020B000EFEB0B1CC218479EE734131EFF23FBE413
:1020C00077BFF7EF2C977559977C7C5D1610705190
:1020D00057BFCC95AB0E01DDD62058B73508D66D6D
:1020E0000D2EBD7AF5EAD5AB57AF5EBD7AF5EAD5D0
:1020F000AB578F320F73E5EAD5AB57AF8E51AF5E5A
:10210000BD7AF5EAD5AB57AF5EBD664DF6136606F0
:1021100047640CB973481DCDE850987EC023001762
:10212000100E50D83060C18205290B162C58304152
:1021300039F99DBDF7F7BCC8AA6308E7BFDBFD5BB3
:1021400008C200848210203080020B10994CA0C07D
:10215000120457804ACA905C2417C94572918C0DAD
:1021600047E032C22C0C98F3037BEFEF6D00E0B038
:10217000DF3D1C05CE06991E5BCE4C00C8D5090A72
:10218000BCBD7F1638017202AE5EBD7A056E840357
:1021900002B200805004004402000808004014000D
:1021A0008028056A0000500000000181E1EAFBBDC3
:1021B000F7F736ACBDDF3D616670453A168F80C1DA
:1021C000046E2D30F9D425510CB0800212A0800489
:1021D00028B080020B28B080020B2820010A2CA016
:1021E000C0020A2CA0C0020A2CA0C0020A2CA0C067
:1021F000020A2CA0C0020A2CA0C0020A2CA0C00215
:102200000A0C1193BDEF5CBDCFC33C5C9D9BAB7FC3
:102210009EFBBB96013D1A4401201C1C042102B305
:10222000E6A9861868C010FD3613280CC43104EAEC
:10223000CFD87BBFE3382EE16004B0823006082798
:10224000E0CF747FC731772F80BCED61DE98C04549
:10225000684770D4E005387729586073C09281C20E
:10226000AD41065842D727F6DEDF130600100622DE
:10227000410140E17B03B7089020621772436EC8AA
:102280000DB92137D8673C7AF5EAD5AB57AF1E8C2C
:102290000AA0AA505529AA22A02A45D5881A65590C
:1022A000698C425491AA49353B760CAF5EB3E66126
:1022B000E2D1AB57578635D412868BE9D5AB57AFF1
:1022C000CED4626A57EDAA5DB5AB364B2600A43179
:1022D000A33111241FBECFEFDAE0DEBFCDBF13E084
:1022E000A0E0B1E0E4E5FCE602C005900D92A43068
:1022F000B107D9F727E0A4E0B3E001C01D92AE35E5
:10230000B207E1F711E1C8E6D1E104C02197FE016F
:102310000E94E534C736D107C9F70E94C8310C9432
:102320001D360C940000863061F028F4813049F0AD
:10233000833029F406C0893021F08D3011F080E01F
:10234000089581E00895089580E090E0089508954B
:102350000895FB012081FC0125A321E026A3089517
:102360000296089502960895EF92FF920F931F939D
:10237000CF93DF93EC018B01DB01ED91FC910480A5
:10238000F581E02DCB0109957C01D801ED91FC91FF
:102390000480F581E02DC801099540E0B801CE0127
:1023A0000E943531D801ED91FC910480F581E02D3A
:1023B000C8010995FC018081873001F1883009F45A
:1023C00042C0863009F04CC0D7011E961C9166E0D1
:1023D00070E080E090E00E94402C610F6E5F6F879C
:1023E000D7011E96EC91EA3028F4F0E0E457FE4F56
:1023F000808101C084E0880F8E5F31C0D7011E96B6
:10240000EC91EA3028F4F0E0E457FE4F908101C0EF
:1024100094E0892F880F880F980F965F9F87D701C8
:102420001E96EC91EA3038F4F0E0E457FE4FE0817C
:10243000E53038F401C0E4E0F0E0E957FE4F808178
:102440000EC080E00CC0F701168566E070E080E009
:1024500090E00E94402C610F6E5F6F8785E0888B53
:1024600082E08D87DF91CF911F910F91FF90EF90C8
:1024700008952BE0629FC001112468E370E0855944
:102480009F4F0C9481290F93CF93DF93FC016A3007
:1024900039F48581848396818185890F86834BC039
:1024A00084816E3719F48E5F848345C0262FEF0137
:1024B00066816F5F2A3374F42033F4F42B32F1F029
:1024C0001CF42132F9F02DC02D3289F12E3249F55C
:1024D0002FE319C02B3544F4213464F42A3381F0FE
:1024E0002F33F9F422E40FC09FE9920F9A31C8F418
:1024F000275409C0215407C02C5F05C021E403C044
:1025000023E401C02EE33F81062E000C770B082E3A
:10251000000C990B313069F40AEF45EF53E00E944B
:10252000232888858D5F9C81890F8C8304C020E4DB
:10253000EACF0BEFF2CF81E090E0DF91CF910F91E6
:1025400008950C9480350C9480350C9480350C944F
:1025500080350C9480350C9480350C9480350C9427
:1025600080350C9480350C9480350F931F93CF9356
:10257000DF93EC018B018A818F5F8A83833081F046
:1025800030F4813059F0823069F481E009C0843040
:1025900039F0853039F486E08B830EC01B8221C070
:1025A0008B831FC0863031F489810E949311811181
:1025B00008C017C08530A9F489810E949311811148
:1025C00010C0F801818181508B3094F08AE0F801CD
:1025D0008183882331F01A8289818F5F89831B82EE
:1025E0001C828981853011F08AE006C08DE004C02C
:1025F00087FFEDCF80E0EBCFDF91CF911F910F915F
:102600000895FC019581690F6583663038F08481F7
:10261000843020F4655065838F5F848308958F92A2
:102620009F92AF92BF92CF92DF92EF92FF920F9361
:102630001F93CF93DF931F92CDB7DEB77C018B0141
:10264000DB01ED91FC910480F581E02DCB01099532
:102650004C01D801ED91FC910480F581E02DC80179
:1026600009956C015C01B2E1AB0EB11CD801ED9192
:10267000FC910480F581E02DC8010995AC01F401BD
:102680009781909526819223D7011C962C91213019
:1026900009F461C020F0223009F483C091C0F70131
:1026A00085858C3088F466E070E080E090E00E94E0
:1026B000402CDC01CB010196A11DB11DF7018687DD
:1026C00085858F5F85877CC09685933019F128F4C6
:1026D000913041F0923091F039C0943039F1953019
:1026E00051F134C0F60184898E5F8B300CF08AE0A2
:1026F00087FD80E0D60154968C9328C0F601858929
:102700008E5F85310CF084E187FD80E0D60155961F
:102710008C931CC0F60183898F5F8B300CF08AE0AC
:1027200087FD80E0D60153968C9310C062E0C5010E
:102730000E9401130BC0F60182898F5F86300CF076
:1027400085E087FD80E0D60152968C9381E0F70109
:102750008487158635C0D7011D962C911D97263488
:1027600020F42F5F1D962C932BC093FF29C0F701F7
:102770008685D801ED91FC91863070F4E084F18477
:10278000B501CA010D960E94B5128983BE016F5F23
:102790007F4FC801F70113C00084F185E02D88E068
:1027A00009C093FF0DC0D801ED91FC910084F18523
:1027B000E02D8CE08983BE016F5F7F4FC8010995D2
:1027C0000F90DF91CF911F910F91FF90EF90DF90CD
:1027D000CF90BF90AF909F908F9008952F923F928F
:1027E0004F925F926F927F928F929F92AF92BF9221
:1027F000CF92DF92EF92FF920F931F93CF93DF93CD
:10280000CDB7DEB729970FB6F894DEBF0FBECDBFA8
:10281000998788872B01D42EB22E302E2E2CDB01E7
:10282000ED91FC910480F581E02DCB0109953C01EF
:10283000D201ED91FC910480F581E02DC201099552
:102840004C01D201ED91FC910480F581E02DC20193
:102850000995F3018481958168E170E00E94D1348B
:102860009A838983412C512C10E0C30101969C83EB
:102870008B8388E7F82EA885B9851296BE83AD8331
:102880001330B1F028F4113051F0123069F004C067
:10289000143099F01530A9F0F40136892FC0D40115
:1028A00057963C918B2D11C0F4013589832D0DC0B5
:1028B000D40152963C91822D08C0F40134898C2DAC
:1028C00004C0D40153963C918A2DDD20B9F08823B1
:1028D000A9F0E981FA813D9788F0A885B985199614
:1028E0001C92EE24E39407E025E0A20167E770E084
:1028F0008B819C813F830E9490253F81E885F985EB
:10290000F682F7824086432F50E060E070E02AE0D4
:102910008D819E810E949D2C81E0A885B9851996A4
:102920008C931F5FB9E04B0E511CE6E34E16510429
:1029300009F0A6CFD40159968C91882349F04FEA2B
:1029400055E060E0888599850E94391211E001C048
:1029500010E0F401818D823040F04FEA55E0612FA4
:10296000888599850E9439121F5FD40158968C91F1
:10297000882341F046EA55E0612F888599850E94B9
:1029800039121F5FF401808D823040F046EA55E035
:10299000612F888599850E9439121F5FD4015A964C
:1029A0008C91882341F04DE955E0612F8885998508
:1029B0000E9439121F5FF401828D823040F04DE990
:1029C00055E0612F888599850E9439121F5FD401D7
:1029D0005B968C91882341F044E955E0612F88850E
:1029E00099850E9439121F5FF401838D823038F07F
:1029F00044E955E0612F888599850E943912FFEFDF
:102A00006F1A7F0A6AE670E0C3010E94672A65E7D1
:102A100070E0C30129960FB6F894DEBF0FBECDBF9C
:102A2000DF91CF911F910F91FF90EF90DF90CF90AA
:102A3000BF90AF909F908F907F906F905F904F90DE
:102A40003F902F900C94672A0F931F93CF93DF939F
:102A50001F92CDB7DEB7DB01ED91FC910480F581CB
:102A6000E02DCB01498309954981442349F021E0B8
:102A700046E855E060E070E080E090E00E94932A34
:102A800000E010E021E042E755E0B80189E590E080
:102A90000E94932A065F1F4F0634110599F721E023
:102AA0004DE255E060E070E089E690E00F90DF9144
:102AB000CF911F910F910C94932A43EC54E069E15C
:102AC00070E086E290E00C9481298F929F92AF9201
:102AD000CF92EF920F931F93CF93DF93EC014B01B3
:102AE000DB01ED91FC910480F581E02DCB0109958E
:102AF000D401ED91FC910480F581E02DC40109958C
:102B000004EF1FEF21E045E056E068E270E0C80105
:102B10000E94932A0C5E1F4F0835110599F741E07A
:102B2000B401CE010E9424158C85813009F44FC078
:102B300038F0823009F073C0CE010E945D156FC07D
:102B4000ED85F0E0EE0FFF1FE359FE4F408151810C
:102B500021E068E070E08CE190E00E94932AED852E
:102B6000ED3028F5F0E0E05AFE4F8081882309F42B
:102B700056C010E0912F990F2D8530E0F901E05AF1
:102B8000FE4F8081181708F04AC0205F3F4FF901BF
:102B9000EE0FFF1F21E046EF55E068E070E0DF0137
:102BA000A90FB11DCD010E94932A1F5FE3CFEE85CF
:102BB000F0E0EE0FFF1FEE5AFE4F4081518121E001
:102BC0006AE070E08EE190E00E94932A28C021E044
:102BD00048EB55E068E070E08CE190E00E94932AB9
:102BE000EE85F0E0EE0FFF1FEE5AFE4F408151815F
:102BF00021E06AE070E08EE190E00E94932A84E098
:102C00008E838F831886EE85F0E0EE0FFF1FEA5B60
:102C1000FE4F60817181CE0102960E94642C8E85E8
:102C2000AA24A394833009F0A12CCC24C39481302E
:102C300009F0C12CEE24E394853009F0E12C01E089
:102C4000823009F000E021E0843009F020E08C853A
:102C5000813021F441E08D85863408F040E0B401F4
:102C6000CE010E94EE13DF91CF911F910F91EF9053
:102C7000CF90AF909F908F900895089508950895F4
:102C80000895089508950895089508950895FC01FC
:102C90008CE391E0918380831582148280E391E03C
:102CA0009383828388E0838781E0828717821086FE
:102CB0001682818708954F925F926F927F928F92D2
:102CC0009F92AF92CF92DF92EF92FF920F931F935A
:102CD000CF93DF93EC014B01DB01ED91FC9104807C
:102CE000F581E02DCB0109952C01D401ED91FC91EA
:102CF0000480F581E02DC40109956C01D401ED91AA
:102D0000FC910480F581E02DC4010995F2018481D4
:102D1000958164E170E00E94D134FF24F3940B9715
:102D200008F4F12C41E0B401CE010E94241521E009
:102D300042E35BE060E070E080E090E00E94932A74
:102D4000D401ED91FC910480F581E02DC401099539
:102D5000FC018081873049F0883011F0863051F4D1
:102D600042E159E009EF19E009C046ED58E007E4F7
:102D700019E004C040E050E000E010E020E060E036
:102D800070E08AE390E00E94932A21E0A80160E0CD
:102D900070E08AE390E00E94932A21E049EA5AE039
:102DA00060E070E083E290E00E94932A8C858111BC
:102DB00014C0FF2091F019868F858A3010F02AE028
:102DC00001C025E0EE24E39407E042E050E064E136
:102DD00070E0C20101960E94902515E11E831F83B9
:102DE00082E088873E01F2E06F0E711C4F8550E053
:102DF00060E070E02AE0C3010E949D2C81E0898799
:102E00001E831F838AE08887488950E060E070E075
:102E10002AE0C3010E949D2C8C85843021F08E8590
:102E2000843009F040C021E04AE758E063E170E0F7
:102E300080E090E00E94932A15E11E831F8387E1C2
:102E40008887D60158964C9150E060E070E02AE007
:102E5000C3010E949D2C1E831F8381E28887F60197
:102E6000418D50E060E070E02AE0C3010E949D2C9B
:102E70001E831F838BE28887D6015A964C9150E0BF
:102E800060E070E02AE0C3010E949D2C1E831F8336
:102E900085E38887F601438D50E060E070E02AE02A
:102EA000C3010E949D2C8C858250823038F08E8523
:102EB000833021F08C85833059F517C010E0D6019E
:102EC00056968C911817B0F7FE01E10FF11D2AE01C
:102ED000129FC001112422894AEF57E064E370E099
:102EE00003960E94BA231F5FEACF8989883011F4C4
:102EF000FF2071F0F6018689FAE08F9FC00111244E
:102F000020E044EF57E065E370E003960E94BA23A7
:102F10008C85843071F48989883011F4FF2049F060
:102F200020E044EF57E065E370E08AE190E00E9422
:102F3000BA238C858350823050F5F11028C06989FE
:102F400067FD25C06430ACF068300CF5062E000C2F
:102F5000770B645071092AE0269FC001279F900DCE
:102F6000112403E020E04EEC57E064E370E00396A8
:102F70000CC02AE06202B00111246A5E7F4F03E0B8
:102F800020E04EEC57E083E090E00E94232801E02F
:102F90008C85813009F000E0A12CC12CE12C20E0CF
:102FA00041E0B401CE010E94EE138C85883009F413
:102FB00087C038F4863009F454C0873009F469C0FA
:102FC00091C08D3008F08EC0FFEF4F1A5F0AE12CE0
:102FD00000E224E641E150E06FE070E0C2010E94AF
:102FE000902521E04EE562E170E082E190E00E94F0
:102FF000FF2401E02CE143E150E061E170E0C20117
:103000000E94602521E04EE56FE270E082E190E0F1
:103010000E94FF242CE143E150E060E770E0C20130
:103020000E94602584E18E838F8385E18887EC850B
:10303000F0E0EE0FFF1FEC57FE4F60817181C3017E
:10304000DF91CF911F910F91FF90EF90DF90CF9084
:10305000AF909F908F907F906F905F904F900C9467
:10306000642CD401ED91FC910480F581E02DC40124
:103070000995CC24C394FC018081873009F0C12CD0
:10308000A12CE12C00E021E041E0B401CE010E943E
:10309000EE1348E657E069E170E087E290E0DF91E7
:1030A000CF911F910F91FF90EF90DF90CF90AF9055
:1030B0009F908F907F906F905F904F900C9481299C
:1030C000CE01DF91CF911F910F91FF90EF90DF9094
:1030D000CF90AF909F908F907F906F905F904F9028
:1030E0000C945D15DF91CF911F910F91FF90EF90A0
:1030F000DF90CF90AF909F908F907F906F905F9078
:103100004F900895CF92DF92EF92FF920F931F930B
:10311000CF93DF938C01EB01E881F9810480F58185
:10312000E02DCB01099542967C01E881F98104806C
:10313000F581E02DCE0109956C01E881F9810480CB
:10314000F581E02DCE010995DC019C91963059F076
:103150009830D9F462E0C7010E94011386E0D801DB
:103160001C968C9312C0D6011E96EC91EA3028F47E
:10317000F0E0E457FE4F608101C064E06F5FC7017B
:103180000E94011386E0F8018487DF91CF911F919F
:103190000F91FF90EF90DF90CF9008956F927F9204
:1031A0008F929F92AF92BF92CF92DF92EF92FF9257
:1031B0000F931F93CF93DF9300D0CDB7DEB78C0171
:1031C0007B01DB01ED91FC910480F581E02DCB01C9
:1031D00009954C01D701ED91FC910480F581E02D1A
:1031E000C70109956C01D701ED91FC910480F5812F
:1031F000E02DC7010995F401B780B0942681B22271
:10320000D8011C96EC914E2F50E04D30510508F03E
:10321000A7C2FA01EA5AFF4F0C94E534B3FE03C08B
:1032200085E4F801838FD8015B968C915B97863497
:1032300008F096C28F5F5B968C935B97863409F09B
:103240008FC25B961C925B971D968C911D971C9666
:103250008C93F4011582148283C282E0D8011E96F9
:103260008C93B3FC06C0D8015B96EC91E13108F178
:1032700054C081E1F801838FB12CD60156968C9110
:10328000B81688F738016B0C711CD3015D968C91D0
:1032900081110DC066E070E080E090E00E94402C5B
:1032A000DC01CB010196A11DB11DF301828BB3940A
:1032B000E4CFF0E0E95AF84F649170E0F4018481C2
:1032C00095810E94D134892B09F04AC2F12CD60194
:1032D00056968C91F816B8F45801AF0CB11CD50174
:1032E0005D968C9181110DC066E070E080E090E009
:1032F0000E94402CDC01CB010196A11DB11DF501FE
:10330000828BF394E4CFF801838D8F5F838FD40198
:1033100015961C921E92149723C2F801828986305A
:1033200059F08389863051F08489863049F0858947
:10333000863041F088E007C084E005C085E003C026
:1033400086E001C087E0D80151968C9341E0B70137
:10335000C8010E94353183E0E2C0B5FE2AC0D80121
:1033600051968C91519788302CF055969C919630BF
:1033700019F417C0873029F4F8019489963019F4AC
:1033800012C0863031F4D80153969C91963019F4CE
:103390000CC0853059F4F8019289963039F484E0F4
:1033A00005C087E003C086E001C085E0D8015196E2
:1033B0008C93B6FE2CC0F8018189843024F4828974
:1033C000863019F41BC0843031F4D80153968C91A7
:1033D000863019F415C0853029F4F80184898630C7
:1033E00019F410C0863039F4D80155968C91863086
:1033F00059F487E00AC0873041F406C084E005C074
:1034000085E003C086E001C088E0F801818BB3FE4F
:10341000A7C1D8015196EC91E4300CF4A1C1E83079
:1034200034F0E83009F09CC1C12CD12C1EC0D80169
:103430005B961C925B970E2E000CFF0B3497E00FEF
:10344000F11F158E86898F5F868B82E06FC0F80131
:10345000EC0DF11D8289813039F0D80E8689982FC4
:10346000990F890F880FD80EC394D701ED91FC9165
:103470000480F581E02DC7010995FC018689C816F5
:1034800030F3D80191968C91811182E0D80EF80129
:10349000878590E08D1991098F31910514F08EE1A7
:1034A00090E097FF02C080E090E0D8011F968C93D7
:1034B00040E0B701C8010E943531F80187858111CC
:1034C00005C0B701C8010E9482184AC1138E83E06B
:1034D00086874FEFB701C8010E946B3184300CF032
:1034E0008FEFF801818BDD2091F08F3F49F4148636
:1034F000848D811102C085E0F5C082E0D801E6C06C
:10350000F801148684E0858788E0818B29C18F3F8C
:1035100081F4D8015C968C91811106C085E0F80198
:1035200084871EC1B3FE1CC182E0D8011C968C9317
:1035300017C188E0F801818B84E0F2CF84E0D801E4
:103540001E968C93B7FC02C0B5FE2BC0F8012189F2
:10355000D701ED91FC910480F581E02DC7012A830C
:103560000995FC012A81243024F0838D811112C039
:1035700002C01216A4F4808D81110EC022307CF09E
:10358000818D81110BC0223051F0828D882339F05A
:1035900022E005C023E003C020E001C021E0F801E3
:1035A000218B8B2D807549F0D80151964C91B70134
:1035B000C8010E946B31F801818BB3FED1C0D801E4
:1035C00051968C91813081F11CF4882339F0A1CF80
:1035D0008230B9F1833009F441C09BCFF601808D70
:1035E0008150808FD8011F968C9190E00A978F317F
:1035F000910514F08EE190E097FF02C080E090E02A
:10360000F801878740E0B701C8010E943531D80131
:103610001F968C911F97882309F453CF84E01E9640
:103620008C931E978AE082CF82E0F801848F89E034
:103630008487D60159968C915997815059968C93CD
:103640008FC081E0F80181A38BE08487D6015A9670
:103650008C915A9781505A968C9382C08CE0F801D5
:103660008487D6015B968C915B9781505B968C9397
:103670005B9755968C91885F85310CF084E187FDCE
:1036800080E0F601858B6CC0F6018589082E000C60
:10369000990BD80150962C91821B91092289820F97
:1036A000911D27FD9A958531910514F084E190E0F4
:1036B00097FF02C080E090E0F601858B892B49F4EA
:1036C00081E0D8011C968C931C9788E01D968C9302
:1036D00047C040E0B701C8010E94353181E0F801E0
:1036E000848782E085873CC0B3FE04C085E4D801AE
:1036F0005B968C93F801838D863490F58F5F838F72
:10370000863471F586E0868787E00ACFB3FE28C04D
:1037100021E0DC0151962C93D701ED91FC910085BD
:103720001185B6016E5E7F4F0D960E94B51289839A
:10373000BE016F5F7F4FC701F8010EC0B3FE10C01E
:10374000D701ED91FC910084F185E02D8CE0898317
:10375000BE016F5F7F4FC701099502C0B3FCDECE8B
:103760000F900F90DF91CF911F910F91FF90EF90ED
:10377000DF90CF90BF90AF909F908F907F906F9091
:1037800008950895FC011282138280E4848381E00D
:1037900085830895AF92BF92CF92DF92EF92FF920E
:1037A0000F931F93CF93DF931F92CDB7DEB77C01AA
:1037B0008B01DB01ED91FC910480F581E02DCB01C3
:1037C00009955C01D801ED91FC910480F581E02D13
:1037D000C80109956C01F501978190952681922386
:1037E000D7011C968C91813051F120F0823009F480
:1037F00054C062C0F5018481958165E070E00E944B
:10380000D134892B09F058C0D7011E968C911E9790
:10381000482F082E000C550B1F962C911F9730E057
:103820004217530724F48F5F1E968C9345C08FE791
:10383000F701868781E0848787E085873DC097FF11
:103840000AC0D60150968C91823011F0853019F45F
:103850008150F601808B94FF0AC0D60150968C915E
:10386000813011F0843019F48F5FF601808B93FF63
:1038700023C0D801ED91FC91E084F1840480F581AE
:10388000E02DC8010995F601608970E0645E7F4F04
:10389000680F791FC801F7010EC093FF0DC0D80152
:1038A000ED91FC910084F185E02D8CE08983BE01CF
:1038B0006F5F7F4FC80109950F90DF91CF911F91E6
:1038C0000F91FF90EF90DF90CF90BF90AF90089551
:1038D000AF92BF92CF92DF92EF92FF920F931F931E
:1038E000CF93DF9300D01F92CDB7DEB78C016B0171
:1038F000DB01ED91FC910480F581E02DCB01099570
:103900005C01D601ED91FC910480F581E02DC601AA
:1039100009957C01BC016E5E7F4FD601ED91FC9153
:103920000480F581E02DC6016A837B830995FC0143
:10393000AC01435F5F4FD50117962C9117972095E7
:1039400016969C912923D8011C969C916A817B81B3
:10395000923091F128F4992379F1913041F0E6C049
:10396000933009F4BCC0943009F4D1C0DFC0922F69
:10397000987023FF03C086E4F8018587D8011D965F
:103980008C911D97863420F48F5F1D968C93CEC04A
:10399000992309F4CBC0F801268530E0D70152966F
:1039A0008C91082E000C990B821793070CF0A0C085
:1039B000D801158682E086C0D8011D968C918D3085
:1039C00078F466E070E080E090E00E94402CDC013A
:1039D000CB010196A11DB11DF8018687858583C0A5
:1039E000923009F072C0D8011E969C91933021F15B
:1039F00028F4913049F0923099F055C09530A1F1FA
:103A000038F19630C1F14FC0F701838981508B3076
:103A10000CF08AE087FD80E0D70153968C9343C079
:103A2000F701848981508B300CF08AE087FD80E0BB
:103A3000D70154968C9337C0F701928991509630F4
:103A40000CF095E097FD90E0D70152969C932BC027
:103A5000F7019589915095310CF094E197FD90E034
:103A6000D70155969C931FC0F70187898230D8F003
:103A70008150878B18C0D70155969C9192509531F3
:103A800014F094E102C097FD90E0D70155969C9305
:103A9000992349F09685943020F09A3020F49D5F68
:103AA00001C09E5F9687F701858918164CF4D501F1
:103AB00015961C921E921497F801158683E00DC08E
:103AC00084E0D8011C968C9331C0F8011586D5018D
:103AD00015961C921E92149781E0848727C0F801E6
:103AE0008585863418F48F5F858720C023FF1EC02C
:103AF000D601ED91FC9100851185CA010E94B51295
:103B00008983BE016F5F7F4FC601F8010EC023FF9E
:103B10000DC0D601ED91FC910084F185E02D8CE083
:103B20008983BE016F5F7F4FC60109950F900F908B
:103B30000F90DF91CF911F910F91FF90EF90DF9049
:103B4000CF90BF90AF900895CF92DF92EF92FF9207
:103B50000F931F93CF93DF938C01EB01E881F981E1
:103B60000480F581E02DCB0109956C01E881F98194
:103B70000480F581E02DCE0109957C01E881F98171
:103B80000480F581E02DCE010995F70196859630E8
:103B900051F028F4913039F0933039F404C0993061
:103BA00011F09D3011F497E001C096E0F80197877D
:103BB000F60115821482F7018785811143C0F8014F
:103BC0001486168687E0D82ED58681E0F701878790
:103BD000E881F9810480F581E02DCE010995FC0191
:103BE000D2A29AE0F92E66E070E080E090E00E94B8
:103BF000402CE62E66E070E080E090E00E94402CD1
:103C0000062FE881F9810480F581E02DCE01099528
:103C10006C0110E0E881F9810480F581E02DCE018E
:103C20000995DC01AE0DB11D5C969C915C97F60187
:103C3000E00FF11F848D5C968C93948FFA94F110B1
:103C4000D2CF07C08FE7F801868787E0858781E0BC
:103C50008487DF91CF911F910F91FF90EF90DF90BC
:103C6000CF9008950F931F93CF93DF93EB01E881DB
:103C7000F9810480F581E02DCB010995E881F98176
:103C80000480F581E02DCE0109958C01E881F98150
:103C90000480F581E02DCE01099521E046EB5FE03F
:103CA00060E070E080E090E00E94932AF8012585B2
:103CB000243050F430E0F901EE51FE4F8081F901DB
:103CC000E252FE4F408102C040E080E021E06FE31D
:103CD00070E090E0DF91CF911F910F910C94FF2441
:103CE0006F927F928F929F92AF92BF92CF92DF920C
:103CF000EF92FF921F93CF93DF931F92CDB7DEB762
:103D00007C016B01DB01ED91FC910480F581E02DDC
:103D1000CB010995D601ED91FC910480F581E02D50
:103D2000C601099521E04AEF5EE06EE070E08EE1A9
:103D300090E00E94932AF701828187FD42C024818E
:103D400030E08381281B310937FF02C02F5F3F4FCE
:103D500035952795122F812C912C20E8622E712CFD
:103D6000F7014281811640F55401AA0CBB1CD70112
:103D700013968C91B501680F711D603471052CF498
:103D800020E080E090E00E94FF24F7018381B501EC
:103D9000680F711D6F5F7F4F82816034710544F43D
:103DA00020E0482FD301A81BB109CD010E94FF24B8
:103DB000BFEF8B1A9B0AD4CF47FD03C08581480F04
:103DC0004283D70112968C9187FF0DC0D601ED91E9
:103DD000FC910084F185E02D8CE08983BE016F5F4A
:103DE0007F4FC60109950F90DF91CF911F91FF90F2
:103DF000EF90DF90CF90BF90AF909F908F907F908B
:103E00006F900895AF92BF92CF92DF92EF92FF92A0
:103E10000F931F93CF93DF931F92CDB7DEB76C0143
:103E20008B01DB01ED91FC910480F581E02DCB014C
:103E300009955C01D801ED91FC910480F581E02D9C
:103E4000C80109957C01D801ED91FC910480F581B0
:103E5000E02DC8010995FC01D50116962C91169705
:103E600017969C9190959223D60124FF0BC0129631
:103E70008C911297803120F48F5F12968C9304C03E
:103E80000E94AE2412961C9295FF05C0858588235A
:103E900011F08150858796FF05C08585833010F429
:103EA0008F5F858793FF4CC09585990F990FF70118
:103EB000178AE92FF0E0EA55F04FE491D7015296C6
:103EC000EC935297E1E0E90FF0E0EA55F04FE4910E
:103ED0005596EC935597E2E0E90FF0E0EA55F04F84
:103EE000E4915496EC9354979D5FE92FF0E0EA55E6
:103EF000F04FE4915396EC93539781E056968C9350
:103F0000D801ED91FC910480F581E02DC80109955F
:103F1000FC0116861786118A108A108E118E128E59
:103F2000138E168A178AD801ED91FC910084F185D1
:103F3000E02D8AE08983BE016F5F7F4FC80109953C
:103F40000F90DF91CF911F910F91FF90EF90DF9035
:103F5000CF90BF90AF9008952F923F924F925F9273
:103F60006F927F928F929F92AF92BF92CF92DF9289
:103F7000EF92FF920F931F93CF93DF9300D000D067
:103F800000D0CDB7DEB79E838D834B01DB01ED9171
:103F9000FC910480F581E02DCB0109952C01D40121
:103FA000ED91FC910480F581E02DC40109953C015F
:103FB000D401ED91FC910480F581E02DC4010995B7
:103FC000F301178581E0AD81BE8119968C93199715
:103FD00016961C92169717961C92179718961C9275
:103FE00018976D01B2E0CB0ED11C6FEF72E0C601E5
:103FF0000E94882CD3011E96EC91EA3028F4F0E060
:10400000EC52FE4F608101C064E070E06F5F7F4F53
:10401000C6010E94E62C61E073E0C6010E94882C74
:10402000F301668570E06F5F7F4FC6010E94E62C4A
:10403000D3011E96EC91EA3028F4F0E0EC52FE4FEA
:10404000E08101C0E4E0F0E0EE0FFF1FE653FE4F19
:1040500060817181C6010E94642C21E045EB5EE025
:1040600060E070E089E690E00E94932AC12CD12C98
:1040700021E04AEA5EE062E170E0C6010E94932A14
:1040800021E040EA5EE062E370E0C6010E94932A0C
:10409000BAE0CB0ED11CE4E6CE16D10449F721E0FC
:1040A00043E85EE062E170E082E690E00E94932ADD
:1040B000AA24A394AD81BE811C968C91823009F014
:1040C000A12CC12CE12C00E020E041E0B4018D8165
:1040D0009E810E94EE13F201848195816CE070E074
:1040E0000E94D1349A838983C12CD12CC2010196BC
:1040F0009C838B830C2DAD81BE811E968C911E9767
:10410000082E000C990B8C159D050CF4C8C0F60107
:10411000E458F14F2490F601EB58F14F3490F6013A
:10412000E259F14FF4901D968C91873021F01F11C8
:1041300002C0811114C0432C512C20E049E55EE0FF
:10414000B201A22C022C000CBB08C5010E94932ACC
:1041500021E049EF5DE0B201C5010E94932AED81A3
:10416000FE8186858F37C1F4D30150968C918013E0
:1041700013C0E981FA81379778F0112309F48FC0D1
:10418000632D70E020E041ED5DE0822D022C000CFB
:10419000990B0E94932A03C0112309F480C0F116E1
:1041A00098F01F11B3C0AD81BE811D968C918823FC
:1041B00059F0F6E0CF16D10409F045C0ED81FE813B
:1041C0008785863009F0A7C0A32CB12C422C022C85
:1041D000000C5508F3E04F0E511CA5014C5F5F4FDA
:1041E000E12C05E12EE0B2018B819C810E9490259B
:1041F00086E0C816D10431F4AD81BE811F968C9142
:10420000863079F0D401ED91FC910480F581E02DA8
:10421000C40109958C0D9D1DFC01848D90E00197D2
:1042200002C087E090E0880F991FFC01E654FE4F22
:1042300040815181B5016A5F7F4F21E0C2010E9438
:10424000932A1F112CC0AD81BE811D96EC911D9744
:10425000EE2329F11E968C918F3709F5432C512CB2
:10426000A22C220CBB08F0E0EE0FFF1FE655FE4F1C
:104270004081518120E0B201C5010E94932AAD81A5
:10428000BE811D96EC91F0E0EE0FFF1FE456FE4F4D
:104290004081518121E0B201C5010E94932ABFEF04
:1042A000CB1ADB0AE7E0CE16D10409F023CFAD81AB
:1042B000BE811D968C911D97882341F01E969C917E
:1042C0001E979F3719F481501D968C93ED81FE81C6
:1042D0008485823019F5CF0126960FB6F894DEBF9B
:1042E0000FBECDBFDF91CF911F910F91FF90EF9047
:1042F000DF90CF90BF90AF909F908F907F906F9006
:104300005F904F903F902F900C945D1586E0C816FB
:10431000D10429F653CF1F11CACF95CF26960FB6D9
:10432000F894DEBF0FBECDBFDF91CF911F910F91EB
:10433000FF90EF90DF90CF90BF90AF909F908F90C5
:104340007F906F905F904F903F902F9008950895C9
:104350000F931F93CF93DF931F92CDB7DEB78B01DF
:10436000DB01ED91FC910480F581E02DCB010995F5
:10437000FC01278120959681822F892383FF0DC020
:10438000D801ED91FC910084F185E02D8CE08983CA
:10439000BE016F5F7F4FC80109950F90DF91CF91EC
:1043A0001F910F91089508950895DB01ED91FC91FF
:1043B0000480F581E02DCB01099521E04DEE5CE113
:1043C00060E070E080E090E00E94932A21E04CEDF4
:1043D0005AE160E070E080E090E00C94932ACF9383
:1043E000DF93EC01DB01ED91FC910480F581E02D80
:1043F000CB01099521E047EF58E168E070E08EE0DD
:1044000090E00E94932AEE85F0E0EE0FFF1FED5D35
:10441000FD4F4081518121E06FE070E083E290E048
:10442000DF91CF910C94932A6F927F928F929F92FB
:10443000AF92BF92CF92DF92EF92FF920F931F93B2
:10444000CF93DF931F92CDB7DEB78C017B01DB01E9
:10445000ED91FC910480F581E02DCB0109956C0173
:10446000D701ED91FC910480F581E02DC7010995FC
:104470003C014C01B2E18B0E911CD701ED91FC91F6
:104480000480F581E02DC70109955C01F601878163
:10449000809596818923D8011C969C91923020F0BA
:1044A000923009F4F1C00CC1B82FB870FB2E83FF15
:1044B0002DC081E1F8018587D30159969C915997C8
:1044C00058968C915897890F5A969C915A97890FB4
:1044D0005B969C91890F823061F462E070E080E02D
:1044E00090E00E94402CDC01CB010596A11DB11D7E
:1044F0000BC066E070E080E090E00E94402CDC01A0
:10450000CB010196A11DB11DF8018687D8011D962A
:10451000EC91E13108F03EC0F0E0E352F84E6491D6
:1045200070E0F601848195810E94D134892B09F0D5
:10453000C7C0D30159969C91599758968C9158971A
:10454000890F5A969C915A97890F5B969C91890F77
:10455000823061F462E070E080E090E00E94402CE4
:10456000DC01CB010596A11DB11D0BC066E070E01A
:1045700080E090E00E94402CDC01CB010196A11D5F
:10458000B11DF801868785858F5F8587F6011582C5
:10459000148296C0D8011C969C911C971E968C91F3
:1045A0001E97913009F050C01F969C938330E1F024
:1045B00060F48130A1F0823079F5D30159968C9165
:1045C00059978F5F59968C9327C08530D1F088F02A
:1045D000863011F562E0C4010E9401131DC0F30191
:1045E000808D8F5F808F18C0F301828D8F5F828FE7
:1045F00013C0D3015B968C915B978F5F5B968C9316
:104600000BC0F30182898F5F86300CF085E087FD57
:1046100080E0D30152968C93F801158682E084875E
:10462000D50151968C91811102C081E001C082E0D8
:10463000F3019489890F8B300CF08AE087FD80E0CC
:10464000D30154968C933CC0853030F0FF20C1F1EB
:10465000F801158681E016C0D50151968C91811123
:1046600002C081E001C082E0F3019489890F8B30A0
:104670000CF08AE087FD80E0D30154968C93F8011A
:10468000158682E084871CC0D8011D969C911D97D9
:10469000963418F49F5F1D969C9383FF11C0D70139
:1046A000ED91FC9100851185B401C5010D960E9424
:1046B000B5128983BE016F5F7F4FC701F80109956D
:1046C0000F90DF91CF911F910F91FF90EF90DF90AE
:1046D000CF90BF90AF909F908F907F906F900895F4
:1046E0001F920F920FB60F9211242F933F938F9327
:1046F0009F93AF93BF938091040390910503A09182
:104700000603B09107033091080323E0230F2D37F0
:1047100020F40196A11DB11D05C026E8230F0296C5
:10472000A11DB11D209308038093040390930503FA
:10473000A0930603B09307038091090390910A03A5
:10474000A0910B03B0910C030196A11DB11D8093A4
:10475000090390930A03A0930B03B0930C03BF913A
:10476000AF919F918F913F912F910F900FBE0F901E
:104770001F9018950F9302E00E9423280F9108952F
:10478000CF93DF93EC01DB01ED91FC910480F58187
:10479000E02DCB01099589E08B8783E08E838F83A1
:1047A00082E088872E854CE55AE161E070E080E385
:1047B00090E00E94BA2321E044ED59E160E170E00D
:1047C0008EE090E00E94932A2E85CE01029625303D
:1047D00018F06BE276E102C06AE076E10E94642C98
:1047E00088E08B87DF91CF9108956F927F928F92AF
:1047F0009F92AF92CF92EF920F93CF93DF93EC0102
:104800004B01DB01ED91FC910480F581E02DCB01A2
:1048100009953C01D401ED91FC910480F581E02DD6
:10482000C4010995F3016480758041E0B401CE01B3
:104830000E94241521E04AEF57E160E070E080E03B
:1048400090E00E94932A9C85913071F118F092308B
:1048500019F12EC08D85813110F521E044ED59E12B
:1048600060E170E08EE090E00E94932A0AEF2E85CE
:104870004CE55AE161E070E080E390E00E9423287B
:1048800083E08E838F8382E088876EEE77E1CE01AE
:1048900002960E94642C0CC08F85811105C0B40162
:1048A000CE010E94C02304C0B401CE010E94EF21BA
:1048B0009E85EE24E394953009F0E12C01E09430DC
:1048C00009F000E021E0963009F020E08C8582308C
:1048D00039F44F85442329F041E08D85863408F072
:1048E00040E0A12CCC24C394B401CE010E94EE136D
:1048F0008C85823041F58F85882329F18D8586341A
:1049000010F5C30168E170E00E94D1340D97D8F032
:104910008AE08E838F831886EE85E150F0E0EE0FFB
:10492000FF1FEF5CFD4F60817181CE010296DF9128
:10493000CF910F91EF90CF90AF909F908F907F90FD
:104940006F900C94642CDF91CF910F91EF90CF90EA
:10495000AF909F908F907F906F900895F89487E725
:104960008093000880930108A89588E180936000F7
:1049700088E080936000FFCF8F929F92AF92BF92AA
:10498000CF92DF92EF92FF926C01E12CF12C0E940A
:10499000202D4B015C01C114D104E104F104F1F0BC
:1049A0000E94202DDC01CB0188199909AA09BB09B5
:1049B000883E9340A105B10570F321E0C21AD108E9
:1049C000E108F10888EE880E83E0981EA11CB11C56
:1049D000C114D104E104F10419F7DDCFFF90EF9089
:1049E000DF90CF90BF90AF909F908F9008958FB140
:1049F0008095807F669B88601C9B84600895FC0185
:104A0000840F911D18161906E4F5E038F105CCF570
:104A1000F7FF02C0E0E0F0E08138910514F080E893
:104A200090E0382F3E1BAB0177FF02C0495F5F4F1C
:104A300083E0559547958A95E1F75695542F44277D
:104A400057954795E40FF51FE35FFC4F6770772795
:104A500081E090E001C0880F6A95EAF7482F222391
:104A600049F0213071F4315020F08081842B819302
:104A7000FACF08958095315020F09081982391933A
:104A8000FACF089560387105D0F440345105B8F478
:104A9000E7EEFDE180E1849FD001A0781124A60F0C
:104AA0004770E40FF11D8491A35FBC4F222319F0DE
:104AB0006C91862B03C080956C9186238C9308950E
:104AC000AF92BF92CF92DF92EF92FF920F93CF936C
:104AD000DF936C015B017A01E20EF11CEA0157FFE2
:104AE0000DC0C0E0D0E00AC0C417D5077CF4202F69
:104AF000AE01B501C6010E9442252196A70181E4BD
:104B0000E816F1048CF340E450E0EECFDF91CF9152
:104B10000F91FF90EF90DF90CF90BF90AF900895EE
:104B20008F929F92AF92BF92CF92DF92EF920F93AC
:104B30001F93CF93DF935C014A01102FEB016B01B0
:104B4000C20ED11CCC15DD054CF40E2D212FA40175
:104B5000BE01C5010E9460252196F4CFDF91CF915F
:104B60001F910F91EF90DF90CF90BF90AF909F90EB
:104B70008F9008957F928F929F92AF92BF92CF9223
:104B8000DF92EF92FF920F931F93CF93DF93EC018D
:104B90004B01DB01ED91FC910480F581E02DCB010F
:104BA00009955C01D401ED91FC910480F581E02D23
:104BB000C40109958C01D401ED91FC910480F5812B
:104BC000E02DC4010995F501E480F58041E0B401D0
:104BD000CE010E94241521E04BEC57E168E270E021
:104BE00080E090E00E94932A21E047EB57E168E2E1
:104BF00070E08FE490E00E94932A79E0C72ED12CD8
:104C000021E04EE957E168E270E0C6010E94932A74
:104C1000FEE0CF0ED11C8FE4C816D10489F78C8535
:104C2000823009F46AC050F0833009F4A9C084309E
:104C300009F0CEC0CE010E945D15CAC063E0762E99
:104C40007E827F8278866E01A2E0CA0ED11C62E964
:104C500077E1C6010E94642C82E48E838F8378867C
:104C60002E8542E157E162E070E083E390E00E942C
:104C7000BA238C85813009F0ABC0C70168E170E0D0
:104C80000E94D1349C0191E02D30310508F490E070
:104C90008D85863410F4911119863E85F801268998
:104CA000231798F0863470F4992361F0EE24E3948E
:104CB00007E02FE043E050E060E470E0C5010196BA
:104CC0000E9490256EE077E112C0863470F499233B
:104CD00061F0EE24E39407E02BE043E050E060E471
:104CE00070E0C50101960E9490256BE077E1C60156
:104CF0000E94642C81E089876BC0ED85F0E0EE0FA7
:104D0000FF1FE55FFD4F4081518121E068E070E0C9
:104D10008CE190E00E94932AED85ED3008F5F0E0FB
:104D2000E250FE4F8081882309F452C010E0312FF9
:104D3000330F8D8590E0FC01E250FE4F2081121769
:104D400008F046C04096880F991F21E04CEF56E1CD
:104D500068E070E0830F911D0E94932A1F5FE7CFE8
:104D6000EE85F0E0EE0FFF1FE051FE4F40815181D4
:104D700021E06AE070E08EE190E00E94932A28C072
:104D800021E04EEB56E168E070E08CE190E00E949B
:104D9000932AEE85F0E0EE0FFF1FE051FE4F4081B9
:104DA000518121E06AE070E08EE190E00E94932A58
:104DB00084E08E838F831886EE85F0E0EE0FFF1F70
:104DC000EC51FE4F60817181CE0102960E94642CED
:104DD0008E85AA24A394813009F0A12CCC24C394FD
:104DE000823009F0C12CEE24E394833009F0E12CE9
:104DF00001E0843009F000E021E0853009F020E096
:104E00008C85833021F441E08D85863408F040E0C4
:104E1000B401CE010E94EE13DF91CF911F910F914B
:104E2000FF90EF90DF90CF90BF90AF909F908F90CA
:104E30007F900895CF92DF92EF92FF920F931F938E
:104E4000CF93DF936C017A018B01C0E0D0E0CE15E7
:104E5000DF0589F0D8016D918D01D601ED91FC91AE
:104E60000190F081E02DC6010995892B11F47E0196
:104E700002C02196ECCFC701DF91CF911F910F9116
:104E8000FF90EF90DF90CF9008950E941836DC01DC
:104E9000EC918E2F90E0FC013197ED30F10508F098
:104EA000CFC0ED59FF4F0C94E534E6E3F7E08FE017
:104EB000DF011D928A95E9F7CF010E9447168DEB1D
:104EC00092E038C0E6E3F7E080E1DF011D928A95C9
:104ED000E9F7CF010E9447168DEA92E090933707D9
:104EE00080933607109242071092430710924407AE
:104EF00086E080934507A1C0E6E3F7E080E1DF01AB
:104F00001D928A95E9F7CF010E9447168DE992E03C
:104F100028C0109238078DED92E068C0E6E3F7E014
:104F20008FE0DF011D928A95E9F7CF010E944716B5
:104F30008DE892E0909337078093360710924207EE
:104F4000109243071092440778C0E6E3F7E080E14F
:104F5000DF011D928A95E9F7CF010E9447168DE780
:104F600092E0909337078093360710924207109291
:104F7000430710924407109245075FC0E6E3F7E04D
:104F800084E1DF011D928A95E9F7CF010E9447165F
:104F90008DE692E090933707809336071092420790
:104FA000109243071092440710924507109246074B
:104FB0001092470710924807109249073EC0E6E357
:104FC000F7E086E0DF011D928A95E9F78DE592E032
:104FD000909337078093360780E88093380780E402
:104FE00080933A07CF0108958DEC92E090933707B4
:104FF0008093360722C0E6E3F7E082E2DF011D92EC
:105000008A95E9F7CF010E9447168DE492E09093CC
:1050100037078093360782E08093420780934307E7
:10502000809344078FEF80934707109250071092A8
:105030005107109252071092570786E397E00895A0
:1050400080E090E008952F923F924F925F926F928E
:105050007F928F929F92AF92BF92CF92DF92EF9208
:10506000FF920F931F93CF93DF9300D000D000D017
:10507000CDB7DEB77B014115510509F429C1FA010D
:10508000D490319674914E5F5F4FAD2DB0E02223E6
:1050900009F1E72FE695E695E695AE2EB12CE1E015
:1050A000F0E0372F377011F4E0E0F0E0EA0DFB1D7F
:1050B000AE9F5001AF9FB00CBE9FB00C11240330C7
:1050C00011F4AA0CBB1C2A9DF0012B9DF00D11249C
:1050D0004E0F5F1F0F3F09F402E05C01AA0EBB1EDA
:1050E0001A141B040CF0F4C0803891050CF0F0C0C9
:1050F0009701270F311D121613060CF0E9C0F0E4DA
:10510000EF16F1040CF0E4C04115510509F4E0C0BC
:105110002E2D27702D839701F7FE02C0295F3F4F88
:1051200063E0359527956A95E1F7F22FF7FE05C004
:105130006D81662311F0FFEFF20F97FF05C0222764
:105140003327281B390B02C020E030E0E0E8AE1620
:10515000B10424F060E8762E781A01C07D2C721A12
:10516000EF2E0F2E000CFF08FF3F1CF4CE2CC09436
:1051700001C0C12CE1E0672F677009F4E0E076958B
:10518000769576959E2E970EE90CF11C69E0E61651
:10519000F1041CF0E8E09E2E9F1A1C2D1F0F60E802
:1051A0001603800D911D1124820F931F61E070E0A2
:1051B0000D8002C0660F771F0A94E2F7033011F0EA
:1051C000E1E001C0E2E0EE2EF12CCD9C200D311D7E
:1051D0001124E29E5001E39EB00CF29EB00C11240B
:1051E0006A01CA0CDB1C970121503109A20EB31EC3
:1051F0004A0D5B1DBB24BA94B69E9001B79E300D3C
:105200001124290140945094F90DFE83A719B10986
:10521000EA9FA02D1124B0E0E79DA00DB11D11243F
:105220002E81121709F454C09C01235F3C4F4A01A0
:105230005601612C671409F443C0F5013490369E81
:10524000F001379EF00D1124FA83E983E095F09583
:10525000FC83EB83023019F45C824B8210C00B3F5D
:1052600019F41A8219820BC0F4013490369EF001B1
:10527000379EF00D1124E095F095FC83EB8317FD2C
:1052800009C0F9013080EB81E321F9813E2E3F2AEC
:10529000F9013082FD81FF2359F017304CF4F901F8
:1052A000E058FF4F20803C8023203A803228308213
:1052B0008E0C9F1CAE0CBF1C63942F5F3F4FBACF68
:1052C0001F5FCA0EDB1E4A0F5B1F80589F4FA8CF7F
:1052D00026960FB6F894DEBF0FBECDBFDF91CF91FB
:1052E0001F910F91FF90EF90DF90CF90BF90AF9004
:1052F0009F908F907F906F905F904F903F902F90F6
:1053000008954F925F927F928F929F92AF92BF9239
:10531000CF92DF92EF92FF920F931F93CF93DF9381
:1053200000D000D0CDB7DEB7DC014115510509F43E
:10533000BAC0FA01D490319634914D2C512C5C01B5
:10534000A40CB51C1A141B040CF0ADC080389105D8
:105350000CF0A9C0CB01830F911D181619060CF093
:10536000A2C0603471050CF09EC0F62FF770EF2ECE
:10537000CB0177FD079623E0959587952A95E1F770
:10538000F82F77FF04C0EE2011F0FFEFF80FB7FF02
:1053900005C0662777276A1B7B0B02C060E070E0C0
:1053A00000E8A016B10424F080E8F82EFA1A01C033
:1053B000FD2CF61AAF2E0F2E000CBB08FF3F1CF47D
:1053C000CA2CC09401C0C12C91E0832F877009F4CE
:1053D00090E0369536953695930FA90EB11C19E0DD
:1053E000A116B10414F098E09F1B8C2D8F0F9D0126
:1053F000082F10E80103200D311D1124260F371F3F
:105400004E5F5F4FCD9C600D711D1124460F571FDD
:1054100061E070E00E2C02C0660F771F0A94E2F77D
:10542000EFEFE69FD001E79FB00D1124A095B09556
:10543000BC83AB837C809F0F8917A9F1F901E35FDF
:10544000FC4F6F01A12CB12CAF1438F5FA01EA0D15
:10545000FB1DE491E69F4001E79F900C11249A8286
:10546000898287FD07C0F6011081E12FEA238E2A89
:10547000F6018082EE2051F0873044F4F601E058C6
:10548000FF4F908097208A8098289082FFEFAF1A74
:10549000BF0A0FEFC01AD00AD7CF8F5F440D551D3A
:1054A00020583F4FC9CF0F900F900F900F90DF9172
:1054B000CF911F910F91FF90EF90DF90CF90BF9011
:1054C000AF909F908F907F905F904F900895EF9254
:1054D000FF920F93CF93DF937C01EB0121E049E032
:1054E00067E370E0CE010E94FF2421E049E06FE312
:1054F00070E0CE010E94FF2401E029E047E350E084
:10550000BE01C7010E946025BE01685F7F4F29E090
:1055100047E350E0C7010E946025DF91CF910F91D2
:10552000FF90EF9008952F923F924F925F926F926B
:105530007F928F929F92AF92BF92CF92DF92EF9223
:10554000FF920F931F93CF93DF93CDB7DEB72C97C6
:105550000FB6F894DEBF0FBECDBF6C01FA013491D7
:105560003196E491832F8F778F5FA82EB12CBB8269
:10557000AA82C5018C0D9D1D97FD69C100E8C0166A
:10558000D1040CF064C18E2F8F738F5FDB01A80FE5
:10559000B11DB7FD5CC1603471050CF058C1331FFB
:1055A0003327331F398331E0E6FF30E0EE1FEE276B
:1055B000EE1FEC833B0177FF04C066247724661A54
:1055C000770A17E061227724FB0177FD37964F01B8
:1055D000E3E095948794EA95E1F777FF0CC06114B6
:1055E000710449F061E0861A910868E070E0DB011F
:1055F000A619B7093D0161E070E05B01062C02C00D
:10560000AA0CBB1C0A94E2F7BE82AD82682F669595
:1056100066956695877009F06F5FE12CF12C97E035
:10562000A0E1B0E080E0412C512C212C312C062F40
:10563000660F110B18870F830F811885201631060E
:105640000CF005C15D0101E010E0F50173E0F69595
:10565000E7957A95E1F7E40FF51FE491F0E0B501E5
:105660006770772702C0F595E7956A95E2F7D5014F
:105670001196E0FF04C00F5F1F4F5D01E6CF0130C0
:105680001105C1F4FD0163E0F695E7956A95E1F730
:10569000E40FF51F649170E0A770BB2702C07595F9
:1056A0006795AA95E2F7617077276F5F7F4FD50105
:1056B00012963CC00150110961E070E0002E02C05A
:1056C000660F771F0A94E2F76F5F7F4FA12CB12C12
:1056D000FD01F695E795F695E795F695E795E40FC4
:1056E000F51FF491EF2FF0E0FA87E987FD01E770ED
:1056F000FF27FC87EB87E985FA850B8402C0F595C7
:10570000E7950A94E2F7E0FF0AC0E1E0F0E00A2C36
:1057100002C0EE0FFF1F0A94E2F76E0F7F1F119673
:10572000FFEFAF1ABF0AA016B10694F21C861B86C3
:10573000EB85FC85E617F70709F483C0A980AA204A
:1057400069F0E92FF0E0311105C007E010E00E1B11
:105750001F0BF801EF5BFD4FE0818E2B915008F09D
:1057600069C0882309F449C0122D180D18300CF0B7
:1057700044C0F701EC0DFD1DE038F105F0F5AD80FA
:10578000BE808A9DF0018B9DF00D1124FA87E98778
:1057900017FD16C0C60100E81003800D911D1124ED
:1057A0008E0D9F1D835F9C4FFC010081222319F009
:1057B000F9850F2B03C0B984B0940B21FC01008341
:1057C00061147104D1F01730C1F01F3FB4F0C6016D
:1057D00000E81003800D911D11248E0D9F1D83572D
:1057E0009C4FFC011081222319F0FA851F2B03C066
:1057F000EA85E0951E23FC011083AC80AA2019F0F5
:10580000BB24B3943B250FEF401A500A8A819B8139
:105810004816590634F49FEFE91AF90A97E080E038
:1058200009C0EFEF2E1A3E0AE12CF12C97E080E040
:10583000412C512C0B851C850F5F1F4F1C870B873C
:1058400077CFAA24A394B980AB18A982F5CE2C9661
:105850000FB6F894DEBF0FBECDBFDF91CF911F9181
:105860000F91FF90EF90DF90CF90BF90AF909F90FF
:105870008F907F906F905F904F903F902F90089502
:10588000CF93DF9300D000D0CDB7DEB7611571059F
:105890008105910579F09B01AC0169833A834B83C3
:1058A0005C830E944A3429813A814B815C810E9449
:1058B0006E3403C060E070E0CB010F900F900F904A
:1058C0000F90DF91CF910895EF92FF920F931F9366
:1058D000CF93DF938C017B01C0E0D0E0F701EC0FA8
:1058E000FD1F6491662361F0D801ED91FC91019058
:1058F000F081E02DC8010995892B11F02196EECF9A
:10590000CE01DF91CF911F910F91FF90EF900895FD
:105910006115710579F0FB0101900020E9F73197DD
:10592000AF01461B570BDC01ED91FC910280F38126
:10593000E02D099480E090E008954F925F926F927D
:105940007F92EF92FF920F931F93CF93DF93CDB788
:10595000DEB7A1970FB6F894DEBF0FBECDBF7C01B6
:10596000FA01CB0119A2223008F42AE08E010F5D62
:105970001F4F422E512C612C712CBF01A3019201AB
:105980000E94A034F901CA01015011096A3014F4CF
:10599000605D01C0695CD8016C93232B242B252BFF
:1059A00061F7B801C7010E94882CA1960FB6F89440
:1059B000DEBF0FBECDBFDF91CF911F910F91FF9042
:1059C000EF907F906F905F904F900895CF92DF920D
:1059D000EF92FF920F931F93CF93DF936B01770F9B
:1059E000EE08FF08F7FE1FC0EC01E881F981019085
:1059F000F081E02D6DE209958C0144275527BA010D
:105A00004C195D096E097F092AE0CE010E949D2C88
:105A1000800F911FDF91CF911F910F91FF90EF9019
:105A2000DF90CF9008952AE0B701A601DF91CF91D2
:105A30001F910F91FF90EF90DF90CF900C949D2CD1
:105A40003FB7F8948091090390910A03A0910B034A
:105A5000B0910C0326B5A89B05C02F3F19F0019605
:105A6000A11DB11D3FBFBA2FA92F982F8827820FE4
:105A7000911DA11DB11DBC01CD0142E0660F771F34
:105A8000881F991F4A95D1F708950C948035089581
:105A9000FC012081620F6B300CF06AE067FD60E072
:105AA000FC01608308954F925F926F927F928F9274
:105AB0009F92AF92CF92EF92FF920F931F93CF934B
:105AC000DF933C01EB01E881F9810480F581E02D51
:105AD000CB0109954C01E881F9810480F581E02D25
