:100000000C9407110C942F110C942F110C942F1198
:100010000C942F110C942F110C942F110C942F1160
:100020000C942F110C942F110C942F110C942F1150
:100030000C942F110C942F110C942F110C942F1140
:100040000C942F110C942F110C942F110C942F1130
:100050000C942F110C942F110C942F110C944321FC
:100060000C942F110C942F110C942F110C942F1110
:100070000C942F110C942F110C942F110C942F1100
:100080000C942F110C942F110C942F110C942F11F0
:100090000C942F110C942F110C942F110C942F11E0
:1000A0000C942F110C942F110C942F1164156415BE
:1000B0007815F715E116B417E5170D182118D8169D
:1000C0003118311831189D19C6197619DF19AF1971
:1000D0001C1A1C1A1C1A411A8319001AAA19151A7B
:1000E000151A0707410C1A3C1E0C410707000C3A71
:1000F000163A0C000707002A18360C2A00070700DA
:100100001A2432241A00D5F08D14A1C881CFD9F158
:10011000AF200003081F051F1F151B1F11111F1102
:100120000E1F15111F05011F111D1F041F001F00A9
:1001300010101F1F041B1F10101F061F1F011F1F61
:10014000111F1F05071F311F1F051B17151D011F3D
:10015000011F101F0F100F1F0C1F1B041B071C0774
:100160001915130C121E1F120C1E12120C121F0C4A
:100170001A14041F052E2A1E1F021C001D00201D1C
:10018000001F041A011F001E041E1E021E1E121E46
:100190003E120C0C123E1E020614120A020F121E10
:1001A000101E0E100E1E081E1A041A2E281E1A12D9
:1001B000161F111F121F101D151711151F07041FE1
:1001C00017151D1F151D01011F1F151F17151F00D6
:1001D0001700001000040404040E040229060A009B
:1001E00000340F0000F804C4A464A4E4C4040404AC
:1001F0006484640484448404C404C40404E424C4FF
:1002000004A404844484048444E4040404C4E4A4EE
:1002100064A4C404F8000000000F1010131113119F
:1002200010101010101310101112111011121110C3
:1002300010131211101310111312101112131010A9
:1002400010101113111310100F000017F74F912009
:1002500041063290B74081DF0A1C0870EB06C243AA
:1002600040E067DBC0188CE17B107E77411725AC3E
:100270003E477E7A4209AC43DEB15CFC4E26A34584
:100280009A91F7DCF87DBDE5B42EE26BE002FC2E1E
:100290008BCF7B636DB096524B69B43756CE9C734F
:1002A000EBADB74CD7BF1EF9EF1347FF5F21E4BF9B
:1002B00056594D6F6E7374657220202020202020C7
:1002C0002020357E444D4700466F756E647E53682E
:1002D00069656C64202020202B317E4152005768D4
:1002E000657473746F6E65202020202020202B32CF
:1002F0007E585000466F756E647E4D656174202097
:1003000020202B317E466F6F64004865616C7468F5
:100310007E506F74696F6E2020202B327E48500013
:10032000466F756E647E4C6F6F742020207E2B327A
:100330007E476F6C64001B1F3F8BC562020318C0B1
:1003400060B3F94BEC73133184014409A627F7FA23
:10035000112C168BC9024A58C0A20409252C4A58F0
:100360009420A1844510085260B1D96CFED21B9F25
:10037000DF646472451C9B27AD02A584F49772CF9D
:100380004610162C5860848211162C5820C8CE9D19
:10039000DF014C0000000046669220D481640519FC
:1003A00016244966060000000013F87D7CCDAFF1ED
:1003B0007D1B5FEF79C1CAE218080081BC01160BF2
:1003C000B875008B1B3F8E23A7B5194802008041EA
:1003D000008475E5017F81FD0E0004000400E69FA6
:1003E0008BC562028BCDEF021B9F9F62667044C675
:1003F000903B87D4D18C0E85E92FE8040240A5827A
:1004000002425400105480408C131800006C0137D5
:10041000606001411622B20865F16C954013002A14
:10042000062888A110D9102155B0414D6A0000500E
:100430000000000D000081041184F1433C2237E4E8
:10044000D61B72EB0D3CFA391B9F3F9C1B72E6D703
:100450005092580E1A045021D30A384B03C445E970
:100460003ACC4119842377AEFCB206D04A2E3442EE
:1004700018288380250B76B1D00FF5D65B6FBDF5BC
:10048000861C3D0AB7DE7A046EBDF50A1B9F5FE647
:1004900090700C2C00C9AD838AD0457F94B3F18D48
:1004A000A7392F6301E9691D260C38A0EFF828CF82
:1004B000BA8E2CCE9009F3C4990D5C24B6E5989FB2
:1004C000C935B71E3DF3B51CB9031F1FBF74C16406
:1004D00032D9EBEFB9DFEFBFE77EBFFF9E6B3399F9
:1004E0004C58BF141F9FBF6B851B72436EC88DACE9
:1004F000BFD7FEFEFE7BEDEFEFBFD85AC80DB92186
:100500003764AD5F061F9FBF63851B72436EC80DC6
:10051000B92137B2FE1EFBF7EDBFC7FE7DFB2FB240
:100520001672436EC80DB9213764AD5F021F9FDF9D
:100530005DE186DC901B72436EC80DB92137B27E37
:10054000EFFEFDFBF7EEDFBF7FF15AC80DB9213793
:10055000E486DC901B7243D6FA321F9FDF59E18696
:10056000DC901B72436EC80DB92137E486DCC8FAF3
:100570003DFBEFB37FCFFEFBEC5FB41672436EC85A
:100580000DB92137E486DC901B7243D6FA121F9F07
:10059000EF56B82137E486DC901B72436EC80DB964
:1005A0002137E486DCC8FADEFEFBEDEFEDBFDFFEAF
:1005B000E25AC80DB92137E486DC901B72436EC83D
:1005C0000DB9213764AD9700060C12631F9F7B8520
:1005D0001B72436EC80DB92137E486DC901B724351
:1005E0006EC80DB92137B2EEFBEFBBEFFBEFBB5F7F
:1005F000AC85DC901B72436EC80DB92137E486DCF4
:10060000901B72436EC80D59EB02011F202001019F
:1006100040001000040021080813170160F11D16A6
:100620000B2850000A2C60B1F90A0280002000500B
:1006300060BB8102000280002000080002800020D0
:1006400050AE14100004000140001000040001002E
:1006500001589C5800140004284F280002800020F4
:1006600000080000030507090C0101010101010157
:1006700001020202020404040808506974202020C8
:1006800020207E2D327E48502C7E2B46616C6C00E3
:100690004D6F76696E677E57616C6C7320202020E9
:1006A0002D317E585000537072696E677E426C61C6
:1006B0006465202020202D317E48500052757374CF
:1006C00065647E41726D6F75722020202D317E41F0
:1006D0005200547269707769726520202020207E54
:1006E0002D317E476F6C64004D696C646577202006
:1006F00020202020207E2D317E466F6F64001B9FBE
:100700007B15000098C007C64BCD81FBF816300161
:100710000080AEFB0100000000004278CE60D8C926
:10072000396E0E7C81100000000000383C59001327
:10073000008003378EDC803347E098A7DC38000068
:100740003001D6A7B97244E0C43DA771E4F7001B9D
:10075000DF178738557CCD62B317EC75D9739E7857
:100760000A822E10CB0B5BC418113FC04891CC4BB2
:100770006F0513307C03C4A1206A79C30275839F7F
:1007800001474E5D4CA14CA1962F8887E2F217F8E5
:10079000804BE4CA11B8E604FC0C1BDFB718080B49
:1007A000DC224241C405226E112E209CF25D1063B2
:1007B0006911DE48078011BFCA74010516106181F6
:1007C0000A0B5458A0C20227819847C262080B1C2A
:1007D0002C368B4D810D864D900D806C8894B02801
:1007E0006111CA42202C7E03578E980B0F721A4754
:1007F0007E071B9F0FC0F0007C033E502F826E11BE
:100800000E5C8427E3065E224F61EC086C306C6757
:10081000C76690A8080E4592305C54CE84B0D5537C
:10082000E46DCEC0C93B7060A1B80138312A6120A7
:100830005BDDC0033647C2F7B972C45C78C1917002
:10084000027E0E1B9FAF91458D0E58125C0220B1A7
:1008500020242008820208A0113146C468901BF2AF
:10086000491426CCBD0538F28050A4049475E917CC
:100870001CE0F0B9885BC42DE216712B2258000EE3
:1008800050504901680ABA0A37708BB845FC293EB6
:10089000E012397A42E0327E0D1BDF6F43600904BB
:1008A000661E87C01208CC3C0E81251098F9093CC1
:1008B000A43CEEA5705807C29527DC289F61B18043
:1008C000052A2C08C80222000212581084050B0CBD
:1008D00020010A4041022C161860018BC54FF0011F
:1008E00097C895538FE3123CF95D1F1FBF74C16415
:1008F00032D9EBEFB9DFEFBFE77EBFFF9E6B3399D5
:100900004C58BF141F9FBF6B851B72436EC88DACC4
:10091000BFD7FEFEFE7BEDEFEFBFD85AC80DB92161
:100920003764AD5F061F9FBF63851B72436EC80DA2
:10093000B92137B2FE1EFBF7EDBFC7FE7DFB2FB21C
:100940001672436EC80DB9213764AD5F021F9FDF79
:100950005DE186DC901B72436EC80DB92137B27E13
:10096000EFFEFDFBF7EEDFBF7FF15AC80DB921376F
:10097000E486DC901B7243D6FA321F9FDF59E18672
:10098000DC901B72436EC80DB92137E486DCC8FACF
:100990003DFBEFB37FCFFEFBEC5FB41672436EC836
:1009A0000DB92137E486DC901B7243D6FA121F9FE3
:1009B000EF56B82137E486DC901B72436EC80DB940
:1009C0002137E486DCC8FADEFEFBEDEFEDBFDFFE8B
:1009D000E25AC80DB92137E486DC901B72436EC819
:1009E0000DB9213764AD9711D7774F085CC66B1EE0
:1009F0002347BEA25CA027EF1C73F702C81F091192
:100A0000D767CE9C7DCE63E4C8438EC03527E0CC4B
:100A100031772F80FC910011D7AF7B436EDE790CCC
:100A20007ED51383037AE598075C227F2411D7478C
:100A3000E498636EBCE031F8214E398D23E1C63174
:100A40000FB844FE4811D7778EE00D78CE63F0A33F
:100A50003D416EDC39E60197C81F091197AF38E7B1
:100A6000C87B1E70F33BC049BC096F73E488B9F0C2
:100A7000170211970F390247E0310FB8F955E562B7
:100A80003879CE9123E6C25F084F70656E7E636849
:100A90006573743A0A596F757E666F756E647E670A
:100AA0006F6C647E6F6E6C7921004F70656E7E6333
:100AB000686573743A0A476F6C647E616E647E7415
:100AC0007265617375726521004761696E7E327E61
:100AD000476F6C647E50696563657321005570676C
:100AE000726164657E796F75727E576561706F6E35
:100AF000210020204761696E7E616E7E41726D6FBC
:100B0000757221004761696E7E617E4865616C691E
:100B10006E677E57616E6421004761696E7E617EFB
:100B2000506F69736F6E7E57616E6421002047615C
:100B3000696E7E616E7E4963657E57616E642100D9
:100B4000204761696E7E617E466972657E57616E7F
:100B50006421001F9F7B851B72436EC80DB921372E
:100B6000E486DC901B72436EC80DB92137B2EEFBF0
:100B7000EFBBEFFBEFBB5FAC85DC901B72436EC835
:100B80000DB92137E486DC901B72436EC80D59EB1A
:100B900002011F202001014000100004002108086C
:100BA0004E6F0059657300090900FEFEFEFEFEFE51
:100BB000FE00000000000000000000FEFFFFFFEF4D
:100BC000FFFFFFFE000101010101010100FEFFFB2B
:100BD000FFFFFFBFFFFE000101010101010100FE57
:100BE000FFBFFFEFFFFBFFFE00010101010101015B
:100BF00000FEFFBBFFFFFFBBFFFE00010101010183
:100C0000010100FEFFBBFFEFFFBBFFFE0001010182
:100C10000101010100FEFFABFFFFFFABFFFE000182
:100C20000101010101010045766164657E74726114
:100C3000703F008DD73DF13EF3F0AD7BB3673E765C
:100C400030714E0781B2F2398E812E0489D73DF181
:100C5000B1C3E5DCECB91E5F1D04CAF2CE9130369B
:100C600009973BF3F031E6F732777A231C799E45FA
:100C7000210C01010101010101010202020204042F
:100C80000408084F70656E7E63686573743A00D718
:100C9000BF1EF9EF1347FFCF169CBD7AF5CFC19960
:100CA000AB675EF3E7F0EAD5337FE6A56B0900108A
:100CB0008811021638124E8413618E70A1040C65DF
:100CC0008E70229C403995430C00000027F582DC91
:100CD000908C498910CA858C2237E4863C002A040E
:100CE0008C810000B896AE1F1E40200610488C4034
:100CF0000C201015046200811880BDF7DE07D64273
:100D00006EC80DB971D827208006B8EC2B72436EDF
:100D1000C80DB92137E4865CF7058802014EFBC097
:100D20000DB92137642D0E7BEFBD01620081A82033
:100D3000100308C400C60410880104728E17402EE8
:100D4000085C2817EA8172C176246314E8025C34D7
:100D500014192CE486DC38EC131040035CF615B94A
:100D60002137E486DC901B7243AEFB02448100A76E
:100D70007DE086DC90C5404ACA1258053A46325A90
:100D8000B9500E960B2017CA05818B593B9F6FA84F
:100D900030005128008050002214800805204201B4
:100DA000885000221480080504000A800014000105
:100DB0000108A288228A2212504400000404A000E4
:100DC00008400100840210A100442800110A408458
:100DD0000210A100004201885000406080E59BFBAA
:100DE00000000080080080008C8537F006DEC0F32C
:100DF000FE7BEC2378036FE00D64AD04000000007F
:100E0000000038ECDFB10F0000000000C0DE8333CB
:100E100067CE5CF6DF633FE2CC99CBDE00000000DA
:100E200000C0617F9013E5C0ECA008800631800A05
:100E3000858A80002A29982C4130584110040111DC
:100E400063446808A2558434209A825041100441BA
:100E5000104D00900882200842869D310D312049B6
:100E6000080052462707CA89033B97FFC0EFF330BB
:100E70004FB4A86C54362A27E7201B480002C43917
:100E8000C809958DCA4665A3B251D9A86C544E6164
:100E90004C03042001761853D9A86C54362A2DA788
:100EA00079987716B206087480C014045800022C92
:100EB000000116807001810E100608081710E80066
:100EC000011680000B0AB000045800022C28C00252
:100ED00010600108A3807001016180300A081B4086
:100EE000800520C002106001084E40180584B190B2
:100EF00005090900FEFEFEFEFEFEFE0000000000E9
:100F00000000000000FEFFFFFFEFFFFFFFFE0001FB
:100F100001010101010100FEFFFBFFFFFFBFFFFE1A
:100F2000000101010101010100FEFFBFFFEFFFFB16
:100F3000FFFE000101010101010100FEFFBBFFFFF7
:100F4000FFBBFFFE000101010101010100FEFFBB2B
:100F5000FFEFFFBBFFFE000101010101010100FEE7
:100F6000FFABFFFFFFABFFFE00010101010101012B
:100F7000000102040810204080207E596F75206116
:100F80006C72656164790A206861766520656E6FB0
:100F900075676821007E596F7520646F6E742068D4
:100FA0006176650A206F6E6520746F2073656C6CC6
:100FB0002100202020596F75206E6565640A20206D
:100FC0006D6F726520676F6C642100131F2F174CC3
:100FD0002602120004240004000109000232D9EBA9
:100FE0007BFB0E00080002800000002000080002C9
:100FF000C083FDBD7D07000400014000000010001B
:10100000040001E0C1FE5E36932293229349914988
:1010100091C9A4790C13DFDF5BE18604842037B229
:101020007EDF7E000002C083FDFBF6030010001E81
:10103000EC1F99B0596C169BE4A3131F5F5E3099A7
:101040004CF6FABDFBFDFEBDFBFDFEBDD94C269363
:10105000E6E3131F5F5C30994C2693BD7EDFFEDE16
:10106000FE7DFB7BFBF76533994C2693E6A3139F2C
:10107000EF56B82137E486DC901B7223EB7BFBF73D
:10108000EDEFEDDFB73F9AB0596C169BC566B159CD
:101090006C92C7139F7B851B72436EC80DB92137B5
:1010A000E486DCC8BAEFDFBFEFFBF7EF47099BC56B
:1010B00066B1596C169BC566B1596C922313DFDF7C
:1010C0005BF95AD6EFFBFEEFFBFE8F9CF3B22E735B
:1010D0007E14139FDF59F97AD6EFF93DBFE7F7FC8D
:1010E000A8392FEBB22E737E0C13DFF7955F9BF5BB
:1010F000FEF7BFFFFD1F99F3B22EEBB22EEBB22E1F
:10110000733E0293DF2B7F8DFC2B1A735ED6655DD9
:10111000D6655DD6655DD665CE010D0F9725132A80
:1011200054264626512645E6BACF0903183061C039
:10113000840113064C98070D0F93A62C0C1801146C
:10114000440014134CD8D96CA63AA00600182AB053
:1011500050056A203054CE0D0F57EB6061C0081562
:10116000065031C184ED76F701124A300390380CF5
:10117000123697110D8F0F09259409260B2C8B2001
:10118000E12B710DC3258E15B9983572000DCF6F07
:10119000A1B00181DD130CF8A6270607F44204284C
:1011A00080E10D0D8F8F0499A08182825098304983
:1011B0003E3A064304415246C2913B0DCF2749199E
:1011C000AA40A30205D414501D34F866D41128A8EF
:1011D000000540000AA04221C38E030DCFA76494EE
:1011E000F01AC0AB5200441F05201428A100D830CB
:1011F00084C1CCAD47003A7E53756E6B656E7E4BF5
:101200006565707E6F667E4F6721003A7E466C6131
:101210006D696E677E556E646572776F726C64007F
:101220003A7E556E646561647E43617461636F6D7F
:101230006273003A7E506F69736F6E6F75737E4490
:10124000756E67656F6E73003A7E5468657E426C9A
:1012500061636B7E536577657273001FE737168F86
:101260009005205E9D4280D3388D576C54368BCDCF
:1012700062A3B291B0597C4F00590AC814DE020231
:101280001B782D4075C8C316156448FB6900748A25
:10129000B801780B086CE0B500D5210F5B549021A4
:1012A000ED77A9403410A2F53120B081D7025487E0
:1012B0003C6C514186B41FAF4C2687BC050436F008
:1012C00018290B017CD7B240C6EC3B1FFF37166FC5
:1012D000860A00A05CB2585E5360F5119B209BC546
:1012E00066B151D948D82C3E40721943F716F02107
:1012F00020B0812F20C1519EB5A82043DA8F4B45E5
:101300005450968F01810D7C01514779D6A2820CF1
:10131000693F9879594D9642DE01021B788C14156D
:10132000017CD7A2820C69BF2D802C05640A6F0155
:10133000810D3C16405404F05D8B0A32A4FD34004C
:101340003A45DC00BC050436F058005111C0772D39
:101350002AC890F6BB54201A08D1FA1810D8C063D6
:1013600001444500DFB5A82043DA8F57269343DEBA
:1013700002021B785C9085C4772D0B64CCBE030100
:10138000087E3F3F3F97E160B1584C1693890006B5
:101390009000124AA8D3E9BF3213F3BDACB61104D2
:1013A00001527098B000800238A06BACFC3361B180
:1013B000582C9A2FC635130800010000200024C0C5
:1013C000C4D9001400100058309C2B2B23CBC99F8C
:1013D000D4818466F1FBD86C764042D0101A102874
:1013E0004102144000100004000140001000108071
:1013F0000218008329445D197FB87D66B3D96C3625
:101400009BC962B2582CD67EEC000A8010A66C4AAA
:101410002841200808800451912000022000020089
:10142000F39EF197DA3F7BD706102820903ABC8EC6
:101430009D9740014000100004000140001000048E
:101440000001C039D91F630125888A08000411D121
:10145000120A2C3EB27FF7868083C567E7E62150EB
:101460000040001000040001400010000400016072
:10147000EF8E0F030002E064B23F9B1F9F1F978F08
:10148000B0596C169BC566B1B9E6C06432335A7068
:101490000210015C2E974C0AB6ED600107BFFF7F7A
:1014A000C69CE63CF9EFE1EFEEE18FFF6FE2B04E54
:1014B000F973FE33CAE94FF5EF2AE3EFF3EFEB0BD5
:1014C0001CC218479EE734131EFF23FBE477BFF7C7
:1014D000EF2C977559977C7C5D1610705157BFCCD7
:1014E00095AB0E01DDD62058B73508D66D0D2EBD53
:1014F0007AF5EAD5AB57AF5EBD7AF5EAD5AB578F33
:10150000320F73E5EAD5AB57AF8E51AF5EBD7AF5BA
:10151000EAD5AB57AF5EBD664DF613660647640C61
:10152000B973481DCDE850987EC0230017100E50A7
:10153000D83060C18205290B162C58304139F99DED
:10154000BDF7F7BCC8AA6308E7BFDBFD5B08C200B4
:10155000848210203080020B10994CA0C0120457D6
:10156000804ACA905C2417C94572918C0D47E032BD
:10157000C22C0C98F3037BEFEF6D00E0B0DF3D1C55
:1015800005CE06991E5BCE4C00C8D5090ABCBD7FAE
:101590001638017202AE5EBD7A056E840302B20097
:1015A0008050040044020008080040140080280510
:1015B0006A0000500000000181E1EAFBBDF7F73648
:1015C000ACBDDF3D616670453A168F80C1046E2D5B
:1015D00030F9D425510CB0800212A0800428B080CC
:1015E000020B28B080020B2820010A2CA0C0020A9E
:1015F0002CA0C0020A2CA0C0020A2CA0C0020A2CF7
:10160000A0C0020A2CA0C0020A2CA0C0020A0C1121
:1016100093BDEF5CBDCFC33C5C9D9BAB7F9EFBBB92
:1016200096013D1A4401201C1C042102B3E6A98640
:101630001868C010FD3613280CC43104EACFD87BDB
:10164000BFE3382EE16004B08230060827E0CF7493
:101650007FC731772F80BCED61DE98C04568477049
:10166000D4E005387729586073C09281C2AD410635
:101670005842D727F6DEDF1306001006224101404C
:10168000E17B03B7089020621772436EC80DB92141
:1016900037D8673C7AF5EAD5AB57AF1E8C0AA0AABB
:1016A000505529AA22A02A45D5881A6559698C4225
:1016B0005491AA49353B760CAF5EB3E661E2D1ABFB
:1016C00057578635D412868BE9D5AB57AFCED46247
:1016D0006A57EDAA5DB5AB364B2600000101020248
:1016E000020303030404040404139F0700C2993394
:1016F00067DE72E6CC9900F00200F8FD00C00B0036
:10170000E0F70300AF8070E6CC99779C397326C070
:1017100011131F97059349001090002020014040AD
:1017200004240008480010900030D9EBBE1F008050
:101730000020000800028000000020000800028055
:1017400000200070DFF7FD000004000140001000E1
:1017500004000000014000100004000180FBBE678F
:1017600033991499149914293229322932994C9AAF
:1017700023139FFC75F837342FEBB22EEBB22EEB10
:10178000B22EEBB22EB301020203040405170824A3
:1017900017082417FF1313273B3B4F05E742D435A7
:1017A000AA1D70447561DB02A7E81AEE0D5C2A6978
:1017B000B4371200D344DD9909C7E6AED9D1BB23B3
:1017C0002018090737474696A72C21815A17F74F4B
:1017D000912041063290B74081DF0A1C0870EB0669
:1017E000C24340E067DBC0188CE17B107E77411775
:1017F00025AC3E477E7A4209AC43DEB15CFC4E2606
:10180000A3459A91F7DCF87DBDE5B42EE26BE002CA
:10181000FC2E596F757E757365647E617E686561A7
:101820006C696E677E7370656C6C2E0A2020207E5A
:10183000596F757E686176657E6761696E65647EE5
:10184000380A202020207E65787472617E48507EA0
:10185000706F696E74732E007E596F757E75736537
:10186000647E617E706F69736F6E7E7370656C6C81
:101870002E0A20207E4465616C7E327E657874720B
:10188000617E64616D6167650A2020202020202030
:101890007065727E7475726E2E0020596F757E753C
:1018A0007365647E617E666972657E7370656C6C5B
:1018B0002E0A2020207E4D6F6E737465727E6C6FD1
:1018C0007365737E31300A20202020202048507E0E
:1018D000706F696E74732E0020596F757E75736515
:1018E000647E616E7E6963657E7370656C6C2E0AC2
:1018F00020207E4D6F6E737465727E69737E667292
:101900006F7A656E0A2020202020666F727E6F6ECF
:10191000657E7475726E2E00557067726164657EA7
:10192000796F75727E576561706F6E210020204758
:1019300061696E7E616E7E41726D6F7572210047C6
:1019400061696E7E617E4865616C696E677E576114
:101950006E6421004761696E7E617E506F69736FAE
:101960006E7E57616E642100204761696E7E616EF4
:101970007E4963657E57616E642100204761696E10
:101980007E617E466972657E57616E642100456E98
:10199000656D79204B696C6C656400596F757E6B61
:1019A000696C6C65647E7468657E426F73732E0A21
:1019B000000909AAFF010100010101000101010064
:1019C000010101AAFF000101010001010100010163
:1019D000010001010100010408003E1C0809090082
:1019E000FEFEFEFEFEFEFE00000000000000000005
:1019F00000FEFFFFFFEFFFFFFFFE000101010101FD
:101A0000010100FEFFFBFFFFFFBFFFFE0001010120
:101A10000101010100FEFFBFFFEFFFFBFFFE000120
:101A200001010101010100FEFFBBFFFFFFBBFFFE43
:101A3000000101010101010100FEFFBBFFEFFFBB3F
:101A4000FFFE000101010101010100FEFFABFFFFEC
:101A5000FFABFFFE00010101010101010011AFEF29
:101A6000C6A2002C24C0420060D1F11038F281D00F
:101A700000022000200008000220010CBD73E633A4
:101A8000B00608002A08480202C0025977E004C0E4
:101A900047F63406828242301E0E2F80C9003E3146
:101AA000752A02484568141DF311100EC0398F7A4B
:101AB000436EC80DBCF93DABBF3F37A7C39A43FF88
:101AC0002CA71CC71E7F8FC0B8E5CAEF5DFEF9D3F7
:101AD0005F90F1DDF5F75DF394B3FBAB19F77F4051
:101AE000E5E59FDCACDEC6659DF2B9BFFCAFFCFB53
:101AF000B7BF0B29FFEFB34FF91CC7B1FF98B9CCA3
:101B0000F963BB0FE3C8DFE7EFC6AFF1382E731FF1
:101B1000C6F19F93FF5AC67CF5E7CE69CE533EFBD4
:101B200027FF71FF0A66BE0F2B3F37075AB709C858
:101B3000C261041091028A01B0B203CB3AD0FA47D5
:101B400019B2100826EE0C8E20016C08E0B0A4102B
:101B500007087114265B02D810C0806736935FBCFB
:101B60000F0002B7BD25149980080C406452042E62
:101B7000081408029341111880080C8A8430994C8B
:101B8000A04828A0F667EC0D028070DEFBA30316C8
:101B90008000084402422829C0027E973B93CD660C
:101BA00073D5EA4000040039EDFDE91E5D0E60B119
:101BB00080E5B13F95E1409440B301805A18C200DE
:101BC0005A5252FEE26E8618C0C072B280C9001628
:101BD0008B7F1E6BFBEFAABBBF0B297FEFB3DD58DA
:101BE000499432C12271C86298FC39992CA0849220
:101BF0005E286111874160186258948D4306B05881
:101C00002CFE4E8420652265005206206500520697
:101C1000206550D21013B09082050B0E603081C544
:101C200064C29C3060426142410A05122850A1C042
:101C300062F139F63C80088880088887E9DE5FED2C
:101C400026861026240491D098BDF73ECC1D9AB963
:101C50003E96A3CBE572B9BC6699C4C4C157180EB1
:101C6000A606A646270C39CCAD952131D9FEB51C68
:101C70002C3010A1C0624E9848000734E00007B035
:101C8000D8FCD3D8FFB44CCC8F00A77FD926124004
:101C9000168E7F127BDF40000EFB17B3F99BEC7DA5
:101CA000060140D8FB6754054A9002933FD0DE27D7
:101CB00004000190A1D52B9BCD6666FB97A4A1A142
:101CC000050638A016009CFCFE710326152A4C8AD6
:101CD0001C1BBECE620183092C360B22C3CDE60746
:101CE000750F5800C0BE6F00400060EFDFE95EBFB7
:101CF000731F862A511793A86A06ECFDFBBAFBFBFB
:101D0000B2BB3B0110000100011000100001800275
:101D10007AD803910F2E9E74B07A6B81C5E781B794
:101D20002D323C76B07A7420051F03459F3716206C
:101D3000002560E2707AED7C76F5EA06A29090A12B
:101D40000322DA553B44060CCD671DB9682F9ED09F
:101D50006B0FE809BDE6825E855B4EDC2057E5EA45
:101D600005F8101740000AC480397472EAE700864B
:101D7000A7591C51340828591686B54162B8F0D2CB
:101D800041B0C79662CA4E19B0E4CC35AF3973E79B
:101D900035677F1C020B0805BBFB7AB3CDB4EE1888
:101DA0000324B20A37E0FB63218305C0691C0347A3
:101DB000E0C8193812E60827E0E65F0D814D38FAD1
:101DC000C0CBB8406EC0959FE7DDAB57AF5EBD722C
:101DD00004CE5E3922BF0601050506000503060094
:101DE00004020500030103132A4A600F170E0BD7E4
:101DF000876301188E4EC41E8185081C9D40FB2BF5
:101E0000861CC8383A9178ECE65839241C7A34C8D4
:101E1000EA6DFC94217BDC0CB27A6B383B11C6AFC7
:101E200018B2C7CD800B388ED30045DF7FB0EBDA18
:101E30001D8E7D71DEA7F33EBDECB65E5F5CFF6874
:101E4000F6D65B57D204D35B4F33E7398E5ECD8E27
:101E5000578F635E3B4FB93A1B336BC770B477BC87
:101E60007A752E0ED3AB57B933566FBD35C134A337
:101E70001D303F34BAE8173267E62D5767633ABD25
:101E8000E6B4733B8CA3575312AF5E33CF5D47AFBD
:101E90007497ABC7319E7D2ACB8C75E87F2F003FAE
:101EA000FF705A4B175BBB1D6C169BA5AB70E4EA29
:101EB000D5AB460A9A8357AF5EFDD3849CFAAB58E4
:101EC0002E5529D8B6158A142952545D9E98805CE7
:101ED00000B9007201E402C805900B2017402EC023
:101EE000DF2737E512BC18BED5CB52CA706075B378
:101EF000485042001C27DFF00F8F74D51A1A3F207C
:101F00002B2D6921B1B4FFFC98B5C15AACEFD04379
:101F10000C20903000807000C2897F699CD6D2C5A9
:101F2000D66EC79B4007091000E09F23CBA52A056A
:101F3000DBB64261F26202E80300041600020B0005
:101F4000810580C00240600120B000105800082CBC
:101F500000041600020B00810580C00240600120D1
:101F6000B000105800082C00041600020B00810578
:101F700080C00240600120B000105800089C7A59CF
:101F80004A19EEEA66B159145D27FE2102020202E7
:101F9000020303030303034F1FA60419C0400A866C
:101FA000634A082184E646C8281226A19D44000100
:101FB00008001542919051246CA000048000D04E7E
:101FC000C298219C98CC6E26413A0E0C989302053B
:101FD000200004807612C60CE14400C6A4292184A6
:101FE000109A1B21A3489884765216000120C843FA
:101FF000160B10408020B0D96C5E335D9C992E602A
:1020000032F9D52C26933F1BD3CFB0588000020461
:1020100081CD66F31D360B28000516C3C5F7086D84
:1020200008B794104208CD8DD950A4A8744C9E12C4
:10203000324268464AD010427363763351C992A245
:10204000C155242C83D049534208053A269F60B3DA
:102050008005142830FC3E6B8570C655244C423BED
:10206000B9A50004800A9F4A099BC94442731440E1
:102070000000004001A01C5C6E2400048020DFC131
:1020800055A44811C53BAE495342082134C79410AA
:102090004208CD31258450206BF2124797B9C11503
:1020A0005CF39DEB3E79C77CD79E5F9E99F7E9A2D2
:1020B000A78F9DF026A727A387661E3ACECCFB7478
:1020C000D1D381799F59336BDFAF78953732073D94
:1020D0003FBFEFC972CF07EFEE0B7AEF7726FBBE5B
:1020E000998F5F303E715FD07BEFF705AE9DF14A6F
:1020F000B9A0A71C3117CE984BE4CC655D38E788B2
:10210000B944CE5CD68572599F162FE2D73CE50BB9
:102110005CD6857259672EEBC27D5C103FFF705A0A
:102120004B175BBB1D6C169BA5AB70E4EAD5AB46A9
:102130000A9A8357AF5EFDD3849CFAAB582E55297B
:10214000D8B6158A142952545D9E98805C00B90057
:102150007201E402C805900B2017402EC0DF27371C
:10216000E512BC18BED5CB52CA706075B348504258
:10217000001C27DFF00F8F74D51A1A3F202B2D6912
:1021800021B1B4FFFC98B5C15AACEFD0430C2090FC
:102190003000807000C2897F699CD6D2C5D66EC7D8
:1021A0009B4007091000E09F23CBA52A05DBB64220
:1021B00061F26202E80300041600020B0081058050
:1021C000C00240600120B000105800082C00041626
:1021D00000020B00810580C00240600120B00010A9
:1021E0005800082C00041600020B00810580C00274
:1021F00040600120B000105800089C7A594A19EE3E
:10220000EA66B159145D27FE210251325032112481
:102210001FBECFEFDAE0DEBFCDBF12E0A0E0B1E03D
:10222000EAEAFDE602C005900D92AE3EB107D9F78D
:1022300027E0AEEEB2E001C01D92A834B207E1F78C
:1022400011E1C6E0D1E104C02197FE010E94903562
:10225000C530D107C9F70E9477320C94C8360C9468
:102260000000089580E090E0089508950895FB012E
:102270002081FC0125A321E026A30895029608955C
:102280000296089508950F93CF93DF93FC016A306F
:1022900039F48581848396818185890F86834BC03B
:1022A00084816E3719F48E5F848345C0262FEF0139
:1022B00066816F5F2A3374F42033F4F42B32F1F02B
:1022C0001CF42132F9F02DC02D3289F12E3249F55E
:1022D0002FE319C02B3544F4213464F42A3381F000
:1022E0002F33F9F422E40FC09FE9920F9A31C8F41A
:1022F000275409C0215407C02C5F05C021E403C046
:1023000023E401C02EE33F81062E000C770B082E3C
:10231000000C990B313069F40AEF43E151E00E945F
:10232000441A88858D5F9C81890F8C8304C020E4CA
:10233000EACF0BEFF2CF81E090E0DF91CF910F91E8
:1023400008950C942B360C942B360C942B360C944D
:102350002B360C942B360C942B360C942B360C9479
:102360002B360C942B360C942B360C942B362F9248
:102370003F924F925F926F927F928F929F92AF9215
:10238000BF92CF92DF92EF92FF920F931F93CF9362
:10239000DF93CDB7DEB729970FB6F894DEBF0FBE37
:1023A000CDBF3C012B01D42EB22E302E2E2CDB01C2
:1023B000ED91FC910480F581E02DCB0109954C0154
:1023C000D201ED91FC910480F581E02DC2010995C7
:1023D00099878887F4018481958168E170E00E9483
:1023E0007C359A838983412C512C30E0C4010196BD
:1023F0009C838B8388E7F82ED3011296BE83AD832E
:102400003330C9F028F4313059F0323079F004C05B
:102410003430B9F03530D1F0E885F985168937C008
:10242000A885B98557961C918B2D15C0E885F9852F
:102430001589832D10C0A885B98552961C91822DCF
:102440000AC0E885F98514898C2D05C0A885B98551
:1024500053961C918A2DDD20D1F08823C1F0E981AB
:10246000FA813D97A0F0D30119961C921A3010F012
:102470002AE001C025E0EE24E39407E0A20167E72B
:1024800070E08B819C813F830E9468233F81F30130
:10249000F682F7824086412F50E060E070E02AE04B
:1024A0008D819E813F830E94F51E81E0D3011996A4
:1024B0008C933F813F5FB9E04B0E511CE6E34E1613
:1024C000510409F09DCFC884D984F8E1CF0ED11C06
:1024D0000AE311E0F12C5601D6018C91882371F0AA
:1024E000F80140815181FBE0FF9EC001112468E3A7
:1024F00070E085599F4F0E94A21BF3942FEFC21AE0
:10250000D20AD5018C91823070F0F801408151815E
:10251000FBE0FF9EC001112468E370E085599F4FE6
:102520000E94A21BF3940E5F1F4F21E0023412079A
:1025300091F68FEF881A980A6AE670E0C4010E944B
:10254000881C65E770E0C40129960FB6F894DEBFD9
:102550000FBECDBFDF91CF911F910F91FF90EF90F4
:10256000DF90CF90BF90AF909F908F907F906F90B3
:102570005F904F903F902F900C94881CEF92FF92A9
:102580000F93CF93DF931F92CDB7DEB7DB01ED91B1
:10259000FC910480F581E02DCB01498309954981A7
:1025A000442351F000E021E044EA52E060E070E0B2
:1025B00080E090E00E94B41CE12CF12C00E021E0CE
:1025C00040E952E0B70189E590E00E94B41CBAE00E
:1025D000EB0EF11C86E4E816F10481F721E04BE4F0
:1025E00052E060E070E089E690E00E94B41C0F9039
:1025F000DF91CF910F91FF90EF90089541EE51E060
:1026000069E170E086E290E00C94A21B9F92AF9289
:10261000BF92CF92DF92EF92FF920F931F93CF93CF
:10262000DF93C42FC22E902E1E2DDB01ED91FC9165
:102630000480F581E02DCB010995D12CD0E00196E5
:102640005C01E12C012F292DA601BE010E94682307
:102650000AEF090DB6016E5F7F4F7E01B3E0EB0E0E
:10266000F11C603471052CF421E0402FC7010E9459
:10267000D722B601610F711D635071096034710575
:1026800028F421E0402FC7010E94D722165083E092
:10269000C80ED11CBE016E5F7F4F01E0212FA60145
:1026A000C5010E943823BE01690D711D6350710977
:1026B000212FA601C5010E943823DF91CF911F91E0
:1026C0000F91FF90EF90DF90CF90BF90AF909F90D1
:1026D0000895089508950895089508950895089512
:1026E000089508950895FC018EE291E0918380831E
:1026F0001582148282E291E09383828388E083874B
:1027000081E0828717821086168281870895EF9272
:10271000FF920F931F93CF93DF93EC017B01DB01BB
:10272000ED91FC910480F581E02DCB0109958C01A0
:1027300040E0B701CE010E941A32D701ED91FC9121
:102740000480F581E02DC7010995FC018081873067
:1027500001F1883009F441C0863009F045C0D80144
:102760001E96FC9066E070E080E090E00E94981E6B
:102770006F0D6E5F6F87D8011E96EC91EF3028F4D5
:10278000F0E0E652F94EE49101C0E5E0EE0FEE5FB5
:1027900022C0D8011E96EC91EF3028F4F0E0E6520A
:1027A000F94EE49101C0E5E08E2F880F880FE80F05
:1027B000E65FEF87D8011E96EC91EF3058F4F0E019
:1027C000E652F94EE491E53028F4F0E0EC59F94F87
:1027D000E49101C0E0E0E88B07C0F8018685880F2E
:1027E0008E5F8F8785E0888B82E08D87DF91CF9128
:1027F0001F910F91FF90EF9008958F929F92AF924B
:10280000CF92EF92FF920F931F93CF93DF93EC0140
:102810004B01DB01ED91FC910480F581E02DCB01B2
:10282000099554EFE52EFF24FA9400E021E049E1F8
:1028300056E068E270E0C7010E94B41CB4E1EB0E00
:10284000F11C88E5E816F10481F741E0B401CE01FE
:102850000E94BE128C85813009F450C038F082305D
:1028600009F075C0CE010E94FE1271C0ED85F0E046
:10287000EE0FFF1FE959FE4F4081518100E021E03A
:1028800068E070E08CE190E00E94B41CED85ED30D2
:1028900020F5F0E0E65AFE4F8081882309F457C006
:1028A00010E0A12FAA0F2D8530E0F901E65AFE4F66
:1028B0008081181708F04BC0205F3F4FC901880F77
:1028C000991F00E021E04AE056E068E070E08A0FDE
:1028D000911D0E94B41C1F5FE4CFEE85F0E0EE0F67
:1028E000FF1FE45BFE4F4081518100E021E06AE080
:1028F00070E08EE190E00E94B41C29C000E021E06D
:102900004CEC55E068E070E08CE190E00E94B41C73
:10291000EE85F0E0EE0FFF1FE45BFE4F408151813A
:1029200021E06AE070E08EE190E00E94B41C84E057
:102930008E838F831886EE85F0E0EE0FFF1FE05C3C
:10294000FE4F60817181CE0102960E94BC1E8E8571
:10295000AA24A394833009F0A12CCC24C394813001
:1029600009F0C12CEE24E394853009F0E12C01E05C
:10297000823009F000E021E0843009F020E08C850D
:10298000813021F441E08D85863408F040E0B401C7
:10299000CE010E94B711DF91CF911F910F91FF904F
:1029A000EF90CF90AF909F908F900895FC0197810A
:1029B0008681890F9085890F9185890F0895FC0183
:1029C000DB0182818F5F8283833081F030F481303C
:1029D00059F0823069F481E009C0843039F08530E3
:1029E00039F486E083830DC0138229C0838327C016
:1029F000863029F481818D3089F48DE00895853009
:102A0000F1F481818630D9F028F48130C1F083302F
:102A100029F415C0893099F08D3089F011968C9188
:102A20001197815011968C931197128211968C9167
:102A300087FD05C081818F5F8183138214828AE0C4
:102A400008956F927F928F929F92BF92CF92DF9262
:102A5000EF92FF920F931F93CF93DF9300D0CDB7E8
:102A6000DEB78C017B01DB01ED91FC910480F581E7
:102A7000E02DCB0109953C01D701ED91FC9104803B
:102A8000F581E02DC70109956C014C01B2E18B0E77
:102A9000911CD701ED91FC910480F581E02DC701D7
:102AA0000995DC010D96F301B780B0942681B2221E
:102AB000F801448550E04D30510508F0D4C2FA01C8
:102AC000EA5AFF4F0C949035B3FE04C085E4D80158
:102AD0005B968C93F801838D863408F0C4C28F5FB7
:102AE000838F863409F0BFC2138E8585848759C0D1
:102AF00082E0F8018687B3FC06C0D8015B96EC91B2
:102B0000E13108F154C081E1F801838FB12CD60185
:102B100056968C91B81688F748018B0C911CD401FD
:102B20005D968C9181110DC066E070E080E090E0D0
:102B30000E94981EDC01CB010196A11DB11DF4017C
:102B4000828BB394E4CFF0E0E759F94F649170E0E1
:102B5000F301848195810E947C35892B09F083C221
:102B6000F12CD60156968C91F816B8F448018F0CCA
:102B7000911CD4015D968C9181110DC066E070E0CE
:102B800080E090E00E94981EDC01CB010196A11D1F
:102B9000B11DF401828BF394E4CFF801838D8F5F34
:102BA000838FD30115961C921E9214975CC2F80174
:102BB0008289863059F08389863051F08489863045
:102BC00049F08589863041F088E007C084E005C07F
:102BD00085E003C086E001C087E0D80151968C9360
:102BE00041E0B701C8010E941A3283E0DEC0B5FEA1
:102BF0002AC0D80151968C91519788302CF0559667
:102C00009C91963019F417C0873029F4F801948903
:102C1000963019F412C0863031F4D80153969C9145
:102C2000963019F40CC0853059F4F8019289963029
:102C300039F484E005C087E003C086E001C085E088
:102C4000D80151968C93B6FE2CC0F801918994302E
:102C500024F48289863019F41BC0943031F4D801F1
:102C600053968C91863019F415C0953029F4F801EB
:102C70008489863019F410C0963039F4D8015596FD
:102C80008C91863059F497E00AC0973041F406C021
:102C900094E005C095E003C096E001C098E0F8011B
:102CA000918BB3FEE0C1D8015196EC91E4300CF465
:102CB000DAC1E83034F0E83009F0D5C1C12CD12CAC
:102CC0001EC0D8015B961C925B970E2E000CFF0B6A
:102CD0003497E00FF11F158E86898F5F868B82E017
:102CE0006BC0F801EC0DF11D8289813039F0D80EEE
:102CF0008689982F990F890F880FD80EC394D70112
:102D0000ED91FC910480F581E02DC7010995FC014E
:102D10008689C81630F3D80191968C91811185E08F
:102D2000D80EF801878590E08D1991098F319105B2
:102D300014F08EE190E097FF02C080E090E0D801AF
:102D40001F968C9340E0B701C8010E941A32F80127
:102D50008785811105C0B701C8010E94A92C83C1D4
:102D6000138E83E0868788E0818BDD2099F01486BE
:102D7000C4010E94D614811109C0F801848D81110B
:102D800002C085E005C082E0D80112C184E0F801EC
:102D9000858769C1C4010E94D614811110C0D80171
:102DA0005C968C91811106C085E0F80184875BC137
:102DB000B3FE59C182E0D8011C968C9354C184E0C3
:102DC000F4CF84E0D8011E968C93B7FC02C0B5FE08
:102DD0002BC0F8012189D701ED91FC910480F58188
:102DE000E02DC7012A830995FC012A81243024F0B3
:102DF000838D811112C002C01216A4F4808D81113E
:102E00000EC022307CF0818D81110BC0223051F038
:102E1000828D882339F022E005C023E003C020E042
:102E200001C021E0F801218B8B2D807591F1D80133
:102E300051962C91D701ED91FC910480F581E02D04
:102E4000C7012A830995FC012A8123307CF4838DF4
:102E5000811116C027FF04C0808D882319F012C08D
:102E6000121624F0818D882319F00EC0213029F428
:102E7000828D882359F022E00AC028303CF007C038
:102E800023E005C020E003C021E001C028E0F801F4
:102E9000218BB3FEE8C0D80151968C91813081F12D
:102EA0001CF4882339F05DC08230B1F1833009F41D
:102EB00040C057C0F601808D8150808FD8011F9689
:102EC0008C9190E00A978F31910514F08EE190E09B
:102ED00097FF02C080E090E0F801878740E0B701EB
:102EE000C8010E941A32D8011F968C911F9788231F
:102EF00009F431CF84E01E968C931E978AE05CCF54
:102F0000F801848F89E08487D60159968C9159976E
:102F1000815059968C93A7C081E0F80181A38BE082
:102F20008487D6015A968C915A9781505A968C93E1
:102F30009AC08CE0F8018487D6015B968C915B97F0
:102F400081505B968C935B9755968C915597282F63
:102F500030E02D3031050CF086C0885F55968C939B
:102F600082C0F801848D1ECFD80150968C9190E0DC
:102F7000F6012289821B91098333910514F082E3C3
:102F800090E097FF02C080E090E0D60155962C912A
:102F90005597281718F0281B55962C93F60185890C
:102FA000811109C081E0D8011C968C931C9788E0A0
:102FB0001D968C9358C040E0B701C8010E941A3298
:102FC00081E0F801848782E0E3CEB3FE12C021E005
:102FD00051962C93D701ED91FC91C084D184B4011A
:102FE0000E94DF148983BE016F5F7F4FC701F60126
:102FF0000995D8015B968C915B978634A0F58F5F1D
:103000005B968C935B97863471F51C968C911C971C
:103010001E968C931E9787E0CFCEB3FE24C021E08E
:1030200051962C93D701ED91FC9100851185B40147
:103030000E94DF148983BE016F5F7F4FC701F801D3
:103040000EC0B3FE10C0D701ED91FC910084F18554
:10305000E02D8EE08983BE016F5F7F4FC701099528
:1030600002C0B3FCA1CE0F900F90DF91CF911F91C2
:103070000F91FF90EF90DF90CF90BF909F908F9037
:103080007F906F900895DC0114968C911497E82F2F
:10309000F0E0E953FA4FE49115969C911597690F6A
:1030A000E61718F015966C9308956F5F6E1B1596D2
:1030B0006C9315978F5F14968C9308958F929F92BF
:1030C000AF92BF92CF92DF92EF92FF920F931F9336
:1030D000CF93DF931F92CDB7DEB78C017B01DB016D
:1030E000ED91FC910480F581E02DCB0109954C0117
:1030F000D701ED91FC910480F581E02DC701099580
:103100006C015C01B2E1AB0EB11CD701ED91FC91F9
:103110000480F581E02DC7010995AC01F401978188
:10312000909526819223D8011C962C91213009F488
:103130005CC020F0223009F481C08FC0F801858581
:103140008C3088F466E070E080E090E00E94981E89
:10315000DC01CB010196A11DB11DF8018687858593
:103160008F5F85877AC09685933011F128F491306E
:1031700041F0923081F034C0943009F1953021F162
:103180002FC0F6018489282F30E02930310544F51D
:103190008E5F848B25C0D60155968C915597282F2C
:1031A00030E023313105E4F48E5F55968C9318C0DE
:1031B000F60183898A30A4F48F5F838B11C062E0AB
:1031C000C5010E9443180CC0D60152968C915297AB
:1031D000282F30E0253031051CF48F5F52968C93F8
:1031E00081E0F8018487158638C093FF05C086E426
:1031F000D8011D968C9398E0F8012585263418F4A3
:103200002F5F25872AC093FF28C08685D701ED91BF
:10321000FC91863070F400851185B501CA010D96C8
:103220000E94DF148983BE016F5F7F4FC701F801E1
:1032300013C00084F185E02D88E009C093FF0DC024
:10324000D701ED91FC910084F185E02D8EE089831A
:10325000BE016F5F7F4FC70109950F90DF91CF913E
:103260001F910F91FF90EF90DF90CF90BF90AF90A4
:103270009F908F900895CF92DF92EF92FF920F93DD
:103280001F93CF93DF936C017A018B01C0E0D0E0F4
:10329000CE15DF0589F0D8016D918D01D601ED9134
:1032A000FC910190F081E02DC6010995892B11F464
:1032B0007E0102C02196ECCFC701DF91CF911F9113
:1032C0000F91FF90EF90DF90CF9008950E94C3364A
:1032D000DC01EC918E2F90E0FC013197EE30F1058E
:1032E00008F0CFC0ED59FF4F0C949035ECE1F7E0BA
:1032F0008FE0DF011D928A95E9F7CF010E947313D9
:103300008DEF91E038C0ECE1F7E080E1DF011D9244
:103310008A95E9F7CF010E9473138DEE91E09093A7
:103320001D0780931C0710922807109229071092FE
:103330002A0786E080932B07A1C0ECE1F7E080E14B
:10334000DF011D928A95E9F7CF010E9473138DED7D
:1033500091E028C010921E078DE192E068C0ECE178
:10336000F7E08FE0DF011D928A95E9F7CF010E9417
:1033700073138DEC91E090931D0780931C071092BE
:1033800028071092290710922A0778C0ECE1F7E08D
:1033900080E1DF011D928A95E9F7CF010E94731346
:1033A0008DEB91E090931D0780931C0710922807E6
:1033B0001092290710922A0710922B075FC0ECE1A8
:1033C000F7E084E1DF011D928A95E9F7CF010E94C1
:1033D00073138DEA91E090931D0780931C07109260
:1033E00028071092290710922A0710922B07109293
:1033F0002C0710922D0710922E0710922F073EC017
:10340000ECE1F7E086E0DF011D928A95E9F78DE9AE
:1034100091E090931D0780931C0780E880931E071E
:1034200080E480932007CF0108958DE092E090938F
:103430001D0780931C0722C0ECE1F7E082E2DF0168
:103440001D928A95E9F7CF010E9473138DE891E0F0
:1034500090931D0780931C0782E080932807809338
:10346000290780932A078FEF80932D071092360744
:10347000109237071092380710923D078CE197E0C1
:10348000089580E090E008952F923F924F925F92CE
:103490006F927F928F929F92AF92BF92CF92DF9264
:1034A000EF92FF920F931F93CF93DF9300D000D042
:1034B00000D0CDB7DEB77B014115510509F429C114
:1034C000FA01D490319674914E5F5F4FAD2DB0E00C
:1034D000222309F1E72FE695E695E695AE2EB12C6D
:1034E000E1E0F0E0372F377011F4E0E0F0E0EA0DB2
:1034F000FB1DAE9F5001AF9FB00CBE9FB00C1124BE
:10350000033011F4AA0CBB1C2A9DF0012B9DF00D79
:1035100011244E0F5F1F0F3F09F402E05C01AA0E59
:10352000BB1E1A141B040CF0F4C0803891050CF07B
:10353000F0C09701270F311D121613060CF0E9C0D9
:10354000F0E4EF16F1040CF0E4C04115510509F464
:10355000E0C02E2D27702D839701F7FE02C0295F52
:103560003F4F63E0359527956A95E1F7F22FF7FE17
:1035700005C06D81662311F0FFEFF20F97FF05C0C4
:1035800022273327281B390B02C020E030E0E0E877
:10359000AE16B10424F060E8762E781A01C07D2CB6
:1035A000721AEF2E0F2E000CFF08FF3F1CF4CE2CDA
:1035B000C09401C0C12CE1E0672F677009F4E0E01E
:1035C0007695769576959E2E970EE90CF11C69E01E
:1035D000E616F1041CF0E8E09E2E9F1A1C2D1F0F2A
:1035E00060E81603800D911D1124820F931F61E086
:1035F00070E00D8002C0660F771F0A94E2F7033077
:1036000011F0E1E001C0E2E0EE2EF12CCD9C200DA6
:10361000311D1124E29E5001E39EB00CF29EB00CCD
:1036200011246A01CA0CDB1C970121503109A20E3A
:10363000B31E4A0D5B1DBB24BA94B69E9001B79E83
:10364000300D1124290140945094F90DFE83A719DF
:10365000B109EA9FA02D1124B0E0E79DA00DB11D96
:1036600011242E81121709F454C09C012D503D4F96
:103670004A015601612C671409F443C0F5013490E6
:10368000369EF001379EF00D1124FA83E983E09510
:10369000F095FC83EB83023019F45C824B8210C0FE
:1036A0000B3F19F41A8219820BC0F4013490369E34
:1036B000F001379EF00D1124E095F095FC83EB832B
:1036C00017FD09C0F9013080EB81E321F9813E2E1D
:1036D0003F2AF9013082FD81FF2359F017304CF465
:1036E000F901E058FF4F20803C8023203A803228A7
:1036F00030828E0C9F1CAE0CBF1C63942F5F3F4F1B
:10370000BACF1F5FCA0EDB1E4A0F5B1F80589F4F48
:10371000A8CF26960FB6F894DEBF0FBECDBFDF91BF
:10372000CF911F910F91FF90EF90DF90CF90BF90BE
:10373000AF909F908F907F906F905F904F903F9051
:103740002F9008954F925F927F928F929F92AF92A7
:10375000BF92CF92DF92EF92FF920F931F93CF937E
:10376000DF9300D000D0CDB7DEB7DC0141155105A5
:1037700009F4BAC0FA01D490319634914D2C512CF1
:103780005C01A40CB51C1A141B040CF0ADC08038ED
:1037900091050CF0A9C0CB01830F911D18161906D5
:1037A0000CF0A2C0603471050CF09EC0F62FF770CB
:1037B000EF2ECB0177FD079623E0959587952A9507
:1037C000E1F7F82F77FF04C0EE2011F0FFEFF80FBC
:1037D000B7FF05C0662777276A1B7B0B02C060E036
:1037E00070E000E8A016B10424F080E8F82EFA1A80
:1037F00001C0FD2CF61AAF2E0F2E000CBB08FF3FA8
:103800001CF4CA2CC09401C0C12C91E0832F877096
:1038100009F490E0369536953695930FA90EB11CB4
:1038200019E0A116B10414F098E09F1B8C2D8F0FA6
:103830009D01082F10E80103200D311D1124260FD2
:10384000371F4E5F5F4FCD9C600D711D1124460FD9
:10385000571F61E070E00E2C02C0660F771F0A94BC
:10386000E2F7EFEFE69FD001E79FB00D1124A0959E
:10387000B095BC83AB837C809F0F8917A9F1F901B8
:10388000ED50FD4F6F01A12CB12CAF1438F5FA01AA
:10389000EA0DFB1DE491E69F4001E79F900C112487
:1038A0009A82898287FD07C0F6011081E12FEA2301
:1038B0008E2AF6018082EE2051F0873044F4F60122
:1038C000E058FF4F908097208A8098289082FFEFE1
:1038D000AF1ABF0A0FEFC01AD00AD7CF8F5F440DBF
:1038E000551D20583F4FC9CF0F900F900F900F904C
:1038F000DF91CF911F910F91FF90EF90DF90CF90CC
:10390000BF90AF909F908F907F905F904F90089561
:10391000EF92FF920F93CF93DF937C01EB0121E0B5
:1039200049E067E370E0CE010E94D72221E049E040
:103930006FE370E0CE010E94D72201E029E047E367
:1039400050E0BE01C7010E943823BE01685F7F4F6F
:1039500029E047E350E0C7010E943823DF91CF916F
:103960000F91FF90EF9008952F923F924F925F92A8
:103970006F927F928F929F92AF92BF92CF92DF927F
:10398000EF92FF920F931F93CF93DF93CDB7DEB7E4
:1039900061970FB6F894DEBF0FBECDBF7C014A0120
:1039A000FA0134913196E491832F8F778F5F282E1F
:1039B000312CC701820D931D97FDA1C1F0E8EF16D0
:1039C000F1040CF09CC18E2F8F738F5FAB01480FF9
:1039D000511D57FD94C1603471050CF090C1331F27
:1039E0003327331F3B8331E0E6FF30E0EE1FEE2745
:1039F000EE1FEF83AB0177FF04C044275527461B1A
:103A0000570B5A0117E0A122BB24AB0177FF02C07C
:103A1000495F5F4FDA0153E0B595A7955A95E1F7F5
:103A2000BA83A98377FF0CC0A114B10449F01197A0
:103A3000BA83A98348E050E0FA01EA19FB095F0163
:103A400041E050E06A010A2C02C0CC0CDD1C0A9453
:103A5000E2F7D986C886982F9695969596958770A1
:103A600011F4892F02C081E0890F482F880F550B70
:103A70005E834D83502F52705A8701FF06C0AD817F
:103A8000BE81119781E0382702C0A0E0B0E0602F2E
:103A900061706C8300FF04C0B1016150710902C004
:103AA00060E070E097E040E150E080E0612C712C34
:103AB0008101015011091C870B870D811E81A01700
:103AC000B1070CF01CC1B7FD1AC18A01CC24C39404
:103AD000D12CF80143E0F695E7954A95E1F7E80D1A
:103AE000F91DE491F0E0A8014770552702C0F59553
:103AF000E7954A95E2F7A8014F5F5F4FE0FF05C0E9
:103B00001FEFC11AD10A8A01E4CFE1E0CE16D10439
:103B1000E9F4FA01F695E795F695E795F695E795B8
:103B2000E80DF91DE491F0E0477055272F0102C020
:103B3000559447944A95E2F7F1E04F2255244FEF10
:103B4000441A540AA8014E5F5F4F41C086010150DC
:103B500011091E870D8744244394512C0D8402C003
:103B6000440C551C0A94E2F71FEF411A510A00E079
:103B700010E0FA01F695E795F695E795F695E79545
:103B8000E80DF91DE491CE2ED12CD98AC88A6A019C
:103B9000E7E0CE22DD24E889F98902C0F595E795B2
:103BA000CA94E2F7E0FF0AC0E1E0F0E0002E02C0B4
:103BB000EE0FFF1F0A94E2F74E0E5F1E4F5F5F4F3E
:103BC0000F5F1F4FCD84DE840C151D0594F2C12CB0
:103BD000D12CC414D50409F48CC00B81002369F0E6
:103BE000E92FF0E0311105C007E010E00E1B1F0BBC
:103BF000F801EF57FE4FE0818E2B915008F075C011
:103C0000882309F44AC019811A0F1F8718300CF055
:103C100044C0FB01EE0DFF1DE038F105F0F508850D
:103C20001985809FF001819FF00D1124FE87ED879B
:103C30001F8517FD15C0C701012F10E80103800D76
:103C4000911D1124860F971FFC01ED50FD4F8081BF
:103C50009D85222311F0892B02C0909589238083B2
:103C6000A114B104D1F0EF85E730B9F0EF3FACF02B
:103C7000C7010E2F10E80103800D911D1124860F3E
:103C8000971FFC01ED58FC4F80819E85222311F087
:103C9000892B02C09095892380830F81002311F026
:103CA00011E031278FEF681A780A9C81992319F067
:103CB0006150710902C06F5F7F4F6214730464F03A
:103CC0000A85002311F0119701C011961C81112360
:103CD00031F06B857C8505C097E080E006C060E030
:103CE00070E097E080E0612C712CEFEFCE1ADE0AD5
:103CF00070CFCC24C394DB80CD18CB82DECE61960E
:103D00000FB6F894DEBF0FBECDBFDF91CF911F91EC
:103D10000F91FF90EF90DF90CF90BF90AF909F906A
:103D20008F907F906F905F904F903F902F9008956D
:103D3000CF93DF9300D000D0CDB7DEB7611571050A
:103D40008105910579F09B01AC0169833A834B832E
:103D50005C830E94F53429813A814B815C810E9409
:103D6000193503C060E070E0CB010F900F900F9009
:103D70000F90DF91CF910895EF92FF920F931F93D1
:103D8000CF93DF938C017B01C0E0D0E0F701EC0F13
:103D9000FD1F6491662361F0D801ED91FC910190C3
:103DA000F081E02DC8010995892B11F02196EECF05
:103DB000CE01DF91CF911F910F91FF90EF90089569
:103DC0006115710579F0FB0101900020E9F7319749
:103DD000AF01461B570BDC01ED91FC910280F38192
:103DE000E02D099480E090E008954F925F926F92E9
:103DF0007F92EF92FF920F931F93CF93DF93CDB7F4
:103E0000DEB7A1970FB6F894DEBF0FBECDBF7C0121
:103E1000FA01CB0119A2223008F42AE08E010F5DCD
:103E20001F4F422E512C612C712CBF01A301920116
:103E30000E944B35F901CA01015011096A3014F48E
:103E4000605D01C0695CD8016C93232B242B252B6A
:103E500061F7B801C7010E94E01EA1960FB6F89461
:103E6000DEBF0FBECDBFDF91CF911F910F91FF90AD
:103E7000EF907F906F905F904F900895CF92DF9278
:103E8000EF92FF920F931F93CF93DF936B01770F06
:103E9000EE08FF08F7FE1FC0EC01E881F9810190F0
:103EA000F081E02D6DE209958C0144275527BA0178
:103EB0004C195D096E097F092AE0CE010E94F51EAA
:103EC000800F911FDF91CF911F910F91FF90EF9085
:103ED000DF90CF9008952AE0B701A601DF91CF913E
:103EE0001F910F91FF90EF90DF90CF900C94F51EF3
:103EF0003FB7F8948091EF029091F002A091F10207
:103F0000B091F20226B5A89B05C02F3F19F001968B
:103F1000A11DB11D3FBFBA2FA92F982F8827820F4F
:103F2000911DA11DB11DBC01CD0142E0660F771F9F
:103F3000881F991F4A95D1F70895089508950F9302
:103F4000CF93DF93EC01DB01ED91FC910480F581CF
:103F5000E02DCB01099500E021E04CE85DE068E050
:103F600070E08EE090E00E94B41CEE85F0E0EE0F71
:103F7000FF1FEA58FD4F4081518121E06FE070E062
:103F800083E290E00E94B41CDF91CF910F910895DD
:103F90005F926F927F928F929F92AF92BF92CF92D9
:103FA000DF92EF92FF920F931F93CF93DF931F92B5
:103FB000CDB7DEB78C016B01DB01ED91FC91048084
:103FC000F581E02DCB0109955C01D601ED91FC91C5
:103FD0000480F581E02DC60109957C014C01B2E118
:103FE0008B0E911CD601ED91FC910480F581E02DA2
:103FF000C60109953C01F5015780509486815822ED
:10400000D8011C968C91813009F467C020F0823071
:1040100009F402C127C1F8018585813188F453FE76
:104020000FC081E1858766E070E080E090E00E944B
:10403000981EDC01CB010196A11DB11DF8018687F8
:10404000D8011D96EC91E13118F5F0E0EE58F34FF0
:10405000649170E0F501848195810E947C35892B03
:1040600009F000C166E070E080E090E00E94981ED8
:10407000DC01CB010196A11DB11DF8018687858564
:104080008F5F8587D50115961C921E921497EAC002
:10409000F8018685853030F053FEE4C0158681E056
:1040A0008487E0C0D30151968C91811102C091E0C8
:1040B00001C092E0F7018489292F30E0280F311DDB
:1040C0002B30310514F4890F848BD8011D961C9276
:1040D0001D9782E01C968C93C5C0F80185858131BF
:1040E000D8F453FE19C081E1858766E070E080E076
:1040F00090E00E94981EDC01CB010196A11DB11D2C
:10410000D82EF8018687C4010E94D614823021F48B
:10411000F4E0FD1508F09DC0D8011D96EC91E13149
:1041200078F5F0E0EE58F34F649170E0F50184818A
:1041300095810E947C35892B09F094C066E070E07F
:1041400080E090E00E94981EDC01CB010196A11D49
:10415000B11DF82EF8018687C4010E94D614823062
:1041600021F4F4E0FF1508F079C0D8011D968C9178
:104170001D978F5F1D968C93F5011582148272C076
:1041800081E0D8011F968C931F971E96EC91E53025
:1041900081F050F4E13040F1F0E03197EE0DFF1D79
:1041A000808D8F5F808F20C0E63069F0E73081F02E
:1041B0001BC0F7018289282F30E025303105A4F497
:1041C0008F5F828B11C062E0C4010E9443180CC053
:1041D000D70154968C915497282F30E0293031051F
:1041E0001CF48E5F54968C93F801158682E08487C8
:1041F000D30151968C91811102C091E001C092E0EF
:10420000F7018489292F30E0280F311D2B3031052B
:104210004CF5890F848B26C0D8011D968C911D9773
:10422000863418F48F5F1D968C9353FE1BC0D60105
:10423000ED91FC9100851185B401C3010D960E949A
:10424000DF148983BE016F5F7F4FC601F8010995B6
:1042500009C087E0D8011E968C935ECF87E0F801F5
:10426000868783CF0F90DF91CF911F910F91FF90A1
:10427000EF90DF90CF90BF90AF909F908F907F9006
:104280006F905F9008951F920F920FB60F921124B6
:104290002F933F938F939F93AF93BF9380913F074B
:1042A00090914007A0914107B09142073091430798
:1042B00023E0230F2D3720F40196A11DB11D05C069
:1042C00026E8230F0296A11DB11D2093430780937A
:1042D0003F0790934007A0934107B0934207809116
:1042E000EF029091F002A091F102B091F2020196DA
:1042F000A11DB11D8093EF029093F002A093F102F3
:10430000B093F202BF91AF919F918F913F912F9106
:104310000F900FBE0F901F9018950F9302E00E9410
:10432000441A0F9108950F93CF93DF93EC01DB01B3
:10433000ED91FC910480F581E02DCB01099589E098
:104340008B8783E08E838F8382E088872E8541EF81
:104350005EE061E070E080E390E00E948D2100E08B
:1043600021E049E65EE060E170E08EE090E00E94CE
:10437000B41C2E85CE010296253018F06AEA7AE048
:1043800002C069E87AE00E94BC1E88E08B87DF915A
:10439000CF910F9108956F927F928F929F92AF92DB
:1043A000CF92EF920F93CF93DF93EC014B01DB01A0
:1043B000ED91FC910480F581E02DCB0109953C0144
:1043C000D401ED91FC910480F581E02DC4010995A3
:1043D000F3016480758041E0B401CE010E94BE12F9
:1043E00000E021E04FE85CE060E070E080E090E019
:1043F0000E94B41C8C85813079F118F0823021F153
:104400002FC08D85813118F500E021E049E65EE09E
:1044100060E170E08EE090E00E94B41C0AEF2E850F
:1044200041EF5EE061E070E080E390E00E94441ABA
:1044300083E08E838F8382E0888763E87CE0CE010F
:1044400002960E94BC1E0CC08F85811105C0B4016C
:10445000CE010E94932104C0B401CE010E949F1F8F
:104460009E85EE24E394953009F0E12C0F8500231E
:1044700021F001E0943009F000E021E0963009F0ED
:1044800020E08C85823021F441E08D85863408F06F
:1044900040E0A12CCC24C394B401CE010E94B711FA
:1044A0008C85823041F58F85882329F18D8586346E
:1044B00010F5C30168E170E00E947C350D97D8F0DB
:1044C00088E08E838F831886EE85E150F0E0EE0F52
:1044D000FF1FEA57FD4F60817181CE010296DF9187
:1044E000CF910F91EF90CF90AF909F908F907F9052
:1044F0006F900C94BC1EDF91CF910F91EF90CF90F5
:10450000AF909F908F907F906F900895F89487E779
:104510008093000880930108A89588E1809360004B
:1045200088E080936000FFCF8F929F92AF92BF92FE
:10453000CF92DF92EF92FF926C01E12CF12C0E945E
:10454000781F4B015C01C114D104E104F104F1F0C6
:104550000E94781FDC01CB0188199909AA09BB09BF
:10456000883E9340A105B10570F321E0C21AD1083D
:10457000E108F10888EE880E83E0981EA11CB11CAA
:10458000C114D104E104F10419F7DDCFFF90EF90DD
:10459000DF90CF90BF90AF909F908F9008958FB194
:1045A0008095807F669B88601C9B84600895FC01D9
:1045B000840F911D18161906E4F5E038F105CCF5C5
:1045C000F7FF02C0E0E0F0E08138910514F080E8E8
:1045D00090E0382F3E1BAB0177FF02C0495F5F4F71
:1045E00083E0559547958A95E1F75695542F4427D2
:1045F00057954795E40FF51FED50FD4F67707727EE
:1046000081E090E001C0880F6A95EAF7482F2223E5
:1046100049F0213071F4315020F08081842B819356
:10462000FACF08958095315020F09081982391938E
:10463000FACF089560387105D0F440345105B8F4CC
:10464000E1E7FFE080E1849FD001A0781124A60F6C
:104650004770E40FF11D8491AD50BD4F222319F036
:104660006C91862B03C080956C9186238C93089562
:10467000AF92BF92CF92DF92EF92FF920F93CF93C0
:10468000DF936C015B017A01E20EF11CEA0157FF36
:104690000DC0C0E0D0E00AC0C417D5077CF4202FBD
:1046A000AE01B501C6010E941A232196A70181E43B
:1046B000E816F1048CF340E450E0EECFDF91CF91A7
:1046C0000F91FF90EF90DF90CF90BF90AF90089543
:1046D0008F929F92AF92BF92CF92DF92EF920F9301
:1046E0001F93CF93DF935C014A01102FEB016B0105
:1046F000C20ED11CCC15DD054CF40E2D212FA401CA
:10470000BE01C5010E9438232196F4CFDF91CF91DD
:104710001F910F91EF90DF90CF90BF90AF909F903F
:104720008F9008956F927F928F929F92AF92BF92D7
:10473000CF92DF92EF92FF920F931F93CF93DF936D
:10474000EC014B01DB01ED91FC910480F581E02D42
:10475000CB0109955C01D401ED91FC910480F581B8
:10476000E02DC40109957C01D401ED91FC910480F8
:10477000F581E02DC4010995F5016480758041E063
:10478000B401CE010E94BE1200E021E040E65CE0F0
:1047900068E270E080E090E00E94B41C21E04CE40C
:1047A0005CE068E270E08FE490E00E94B41C69E095
:1047B000C62ED12C00E021E043E35CE068E270E02B
:1047C000C6010E94B41CFEE0CF0ED11C8FE4C816B7
:1047D000D10481F78C85823009F467C050F08330B2
:1047E00009F4A9C0843009F0CFC0CE010E94FE12A6
:1047F000CBC013E01E831F8318876E01A2E0CA0E90
:10480000D11C67E27CE0C6010E94BC1E82E48E835C
:104810008F8318872E8547EA5BE062E070E083E3D0
:1048200090E00E948D218C85813009F0ADC0C301DC
:1048300068E170E00E947C3591E08D3008F490E0F2
:104840008D85863410F4911119863E85F7012689ED
:10485000231798F0863470F4992361F0EE24E394E2
:1048600007E02FE043E050E060E470E0C50101960E
:104870000E94682363EA7BE012C0863470F49923B7
:1048800061F0EE24E39407E02BE043E050E060E4C5
:1048900070E0C50101960E94682360EA7BE0C601D2
:1048A0000E94BC1E81E089876FC0ED85F0E0EE0FAD
:1048B000FF1FE25AFD4F4081518100E021E068E096
:1048C00070E08CE190E00E94B41CED85ED3010F5B5
:1048D000F0E0EF5AFD4F8081882309F455C010E0C5
:1048E000312F330F8D8590E0FC01EF5AFD4F208171
:1048F000121708F049C04096880F991F00E021E088
:1049000041E95BE068E070E0830F911D0E94B41CF8
:104910001F5FE6CFEE85F0E0EE0FFF1FED5BFD4F72
:104920004081518100E021E06AE070E08EE190E09A
:104930000E94B41C29C000E021E043E55BE068E090
:1049400070E08CE190E00E94B41CEE85F0E0EE0F88
:10495000FF1FED5BFD4F4081518121E06AE070E077
:104960008EE190E00E94B41C84E08E838F831886D1
:10497000EE85F0E0EE0FFF1FE95CFD4F6081718175
:10498000CE0102960E94BC1E8E85AA24A39481307B
:1049900009F0A12CCC24C394823009F0C12CEE2460
:1049A000E394833009F0E12C01E0843009F000E069
:1049B00021E0853009F020E08C85833021F441E04E
:1049C0008D85863408F040E0B401CE010E94B71115
:1049D000DF91CF911F910F91FF90EF90DF90CF90DB
:1049E000BF90AF909F908F907F906F900895AF92FF
:1049F000BF92CF92DF92EF92FF920F93CF93DF930C
:104A00005C01D42FD61BC0E0C22ED12CE62EF12C97
:104A1000B7016C0F711D202FA601C5010E941A233A
:104A2000CE5FDC17A8F7DF91CF910F91FF90EF9049
:104A3000DF90CF90BF90AF900895AF92BF92CF928A
:104A4000DF92EF92FF920F931F93CF93DF931F920A
:104A5000CDB7DEB77C018B01DB01ED91FC910480C9
:104A6000F581E02DCB0109955C01D801ED91FC9118
:104A70000480F581E02DC80109956C01F50197814D
:104A8000909526819223D7011C968C91813051F10B
:104A900020F0823009F454C062C0F5018481958110
:104AA00065E070E00E947C35892B09F058C0D70181
:104AB0001E968C911E97482F082E000C550B1F96A2
:104AC0002C911F9730E04217530724F48F5F1E96F6
:104AD0008C9345C08FE7F701868781E0848787E064
:104AE00085873DC097FF0AC0D60150968C918230D1
:104AF00011F0853019F48150F601808B94FF0AC0C3
:104B0000D60150968C91813011F0843019F48F5F6A
:104B1000F601808B93FF23C0D801ED91FC91E084D6
:104B2000F1840480F581E02DC8010995F6016089C2
:104B300070E0645E7F4F680F791FC801F7010EC0F7
:104B400093FF0DC0D801ED91FC910084F185E02D1B
:104B50008EE08983BE016F5F7F4FC80109950F907A
:104B6000DF91CF911F910F91FF90EF90DF90CF9049
:104B7000BF90AF9008952F923F924F925F926F92A5
:104B80007F928F929F92AF92BF92CF92DF92EF92DD
:104B9000FF920F931F93CF93DF93CDB7DEB7279785
:104BA0000FB6F894DEBF0FBECDBF9F838E834B013F
:104BB000DB01ED91FC910480F581E02DCB0109959D
:104BC0002C01D401ED91FC910480F581E02DC4010C
:104BD00009953C01D401ED91FC910480F581E02D13
:104BE000C4010995F301178581E0AE81BF81199653
:104BF0008C93199716961C92169717961C921797D6
:104C000018961C9218977D01B2E0EB0EF11C68EE2D
:104C100072E0C7010E94E01ED3011E96EC91EF30B6
:104C200028F4F0E0E652F94E649101C065E070E0CE
:104C30006F5F7F4FC7010E943E1F6AEE72E0C7019F
:104C40000E94E01EF301668570E06F5F7F4FC70131
:104C50000E943E1FD3011E96EC91EF3028F4F0E045
:104C6000E652F94EE49101C0E5E0F0E0EE0FFF1FDF
:104C7000E653FD4F60817181C7010E94BC1E00E0B8
:104C800021E04DEC57E160E070E089E690E00E94A1
:104C9000B41CE12CF12C00E021E042EC57E162E190
:104CA00070E0C7010E94B41C21E048EB57E162E3C9
:104CB00070E0C7010E94B41CBAE0EB0EF11CE4E600
:104CC000EE16F10441F721E04BE957E162E170E0B3
:104CD00082E690E00E94B41CAA24A394AE81BF8116
:104CE0001C968C91823009F0A12CC12CE12C00E0A3
:104CF00020E041E0B4018E819F810E94B711F20152
:104D0000848195816CE070E00E947C359B838A836E
:104D1000C12CD12CC20101969D838C835C2CAE8169
:104D2000BF811E968C91082E000C990B8C159D0549
:104D30000CF4D2C0F601EC56F84E2490F601E3577D
:104D4000F84EB491B983F601EA57F84E3490EE81EB
:104D5000FF818585873021F0131102C0811116C0B3
:104D6000F981AF2EB12C00E020E041E757E1B50119
:104D7000E22C022C000CFF08C7010E94B41C21E0A9
:104D800041E157E1B501C7010E94B41CAE81BF816A
:104D90001E968C918F37C9F4F3018089851115C057
:104DA0008A819B81079788F0112309F495C0998126
:104DB000692F70E000E020E049EE56E1822D022CE0
:104DC000000C990B0E94B41C03C0112309F484C089
:104DD000311698F01311B7C0AE81BF811D968C912A
:104DE000882359F0F6E0CF16D10409F047C0EE81D0
:104DF000FF818785863009F0ABC0F9814F2E512C99
:104E0000A22C022C000CBB0883E0A80EB11CA2014E
:104E10004C5F5F4FE12C05E12EE0B5018C819D8157
:104E20000E94682396E0C916D10431F4AE81BF8197
:104E30001F968C91863079F0D401ED91FC9104801D
:104E4000F581E02DC40109958C0D9D1DFC01848D1B
:104E500090E0019702C087E090E0880F991FFC0165
:104E6000E654FD4F40815181B2016A5F7F4F00E0FF
:104E700021E0C5010E94B41C13112EC0AE81BF8178
:104E80001D96EC911D97EE2339F11E968C918F376C
:104E900019F5B981AB2EB12CE22C220CFF08F0E001
:104EA000EE0FFF1FE655FD4F4081518100E020E0ED
:104EB000B501C7010E94B41CAE81BF811D96EC9163
:104EC000F0E0EE0FFF1FE456FD4F4081518121E0DD
:104ED000B501C7010E94B41CBFEFCB1ADB0AE7E0A3
:104EE000CE16D10409F01ACFAE81BF811D968C91E8
:104EF0001D97882341F01E969C911E979F3719F4A9
:104F000081501D968C93EE81FF818485823019F546
:104F1000CF0127960FB6F894DEBF0FBECDBFDF914D
:104F2000CF911F910F91FF90EF90DF90CF90BF90A6
:104F3000AF909F908F907F906F905F904F903F9039
:104F40002F900C94FE1286E0C816D10429F64FCF9C
:104F50001311CACF93CF27960FB6F894DEBF0FBEBA
:104F6000CDBFDF91CF911F910F91FF90EF90DF9018
:104F7000CF90BF90AF909F908F907F906F905F90F9
:104F80004F903F902F9008956F927F928F929F92B3
:104F9000AF92BF92CF92DF92EF92FF920F931F9347
:104FA000CF93DF938C01EB01E881F9810480F581D7
:104FB000E02DCB0109955C01E881F9810480F58140
:104FC000E02DCE0109957C01E881F9810480F5810D
:104FD000E02DCE0109956C01F7019685963051F0D0
:104FE00028F4913039F0933039F404C0993011F03D
:104FF0009D3011F497E001C096E0F8019787F50124
:1050000015821482F7018785811151C0F801148639
:10501000168687E0B82EB586E881F9810480F5818F
:10502000E02DCE010995FC01B2A29AE0992E66E02E
:1050300070E080E090E00E94981E862E66E070E0AE
:1050400080E090E00E94981EA62EE881F9810480FD
:10505000F581E02DCE0109953C01B12CE881F98163
:105060000480F581E02DCE010995DC01A80DB11D6C
:105070005C968C915C97F301EA0DFB1D948D5C9618
:105080009C93848F9A949110D2CFF60183898F3F9D
:1050900051F48FE7F801868782E08487F601138A4E
:1050A000F70117860BC081E0F701878707C08FE7FC
:1050B000F801868787E0858781E08487DF91CF913B
:1050C0001F910F91FF90EF90DF90CF90BF90AF9026
:1050D0009F908F907F906F9008954F925F926F9204
:1050E0007F928F929F92AF92CF92DF92EF92FF9238
:1050F0000F931F93CF93DF933C01EB01E881F9817C
:105100000480F581E02DCB0109954C01E881F981FE
:105110000480F581E02DCE010995F401848195810B
:1051200068E170E00E947C352C0140E0BE01C301C3
:105130000E94BE1200E021E04DED54E160E070E01D
:1051400080E090E00E94B41CF3019585AA24A3940A
:105150009111A12C01E0913009F000E021E09230A2
:1051600009F020E041E0F3018485813009F040E05E
:10517000C12CE12CBE01C3010E94B711FDE04F1606
:10518000510408F440C0F3018585813041F082303C
:1051900051F49FE3D92EC0E017E5D2E309C02FE315
:1051A000D22EC4E203C082E2D82EC0E010E3D0E0E9
:1051B000FFEF8F1A9F0A00E02C2F412F6D2FC401A3
:1051C0000E94F7242D2D412F6D2FC4010E94F7243A
:1051D0000C2FED2EF12CD01648F0402F50E020E09F
:1051E000B701C4010E941A230E5FF5CF012F10E012
:1051F000DC1648F04C2F50E020E0B801C4010E94BA
:105200001A23CE5FF5CFDF91CF911F910F91FF90C1
:10521000EF90DF90CF90AF909F908F907F906F90A6
:105220005F904F9008956F927F928F929F92AF926E
:10523000BF92DF92EF92FF920F931F93CF93DF9372
:105240001F92CDB7DEB78C017B01DB01ED91FC91A4
:105250000480F581E02DCB0109953C01D701ED914A
:10526000FC910480F581E02DC70109955C014C019A
:10527000B2E18B0E911CD701ED91FC910480F58178
:10528000E02DC70109959C01F301D780D094868158
:10529000D822D8011C969C91992321F0913009F4D1
:1052A0004FC07FC0D5FE06C0F8018585823011F45D
:1052B00086858587D6FE0CC0D8011D968C911D97DA
:1052C000823031F01E968C931E9782E01D968C934F
:1052D000D4FE0CC0F8018585811108C081E0858766
:1052E000D7FE0AC0D8011D961C9206C0D7FE04C086
:1052F000F80185858130B1F3D3FE53C0D8011D96E6
:105300008C91813069F038F08230B1F461E0C401F1
:105310000E94431811C0F50183898F5F838B0CC0F5
:10532000D50155968C915597282F30E023313105C2
:105330001CF48E5F55968C9381E0F801848731C010
:105340005901FDE0AF0EB11CD8011F969C911F972B
:105350009634A8F49F5F1F969C93963481F4D701EE
:10536000ED91FC9100851185B401C5010E94DF1407
:105370008983BE016F5F7F4FC701F8010995D3FE96
:1053800010C0D701ED91FC9100851185B401C501D4
:105390000E94DF148983BE016F5F7F4FC701F80150
:1053A00009950F90DF91CF911F910F91FF90EF9092
:1053B000DF90BF90AF909F908F907F906F900895F7
:1053C0008F929F92AF92CF92EF92FF920F93CF93D3
:1053D000DF93EC014B01DB01ED91FC910480F58141
:1053E000E02DCB01099501967C01D401ED91FC9152
:1053F0000480F581E02DC401099541E0B401CE019E
:105400000E94BE1200E020E04DE954E160E070E04F
:1054100087E290E00E94B41C21E042E853E160E0A2
:1054200070E087E290E00E94B41C21E043E36CE36B
:1054300070E083E290E00E94D72201E02EE347E58E
:1054400063E2C7010E94F7242FE347E564E2C70146
:105450000E94F7248C85882329F0813031F44BE5B4
:1054600052E105C04BEC52E102C040E050E000E0E8
:1054700021E061E070E082E090E00E94B41C6D8564
:10548000B8E06B9FB0011124695F7F4F4FE753E194
:1054900082E090E00E94A21B6D8588E0689FB001C9
:1054A0001124695F7F4F4FE753E181E290E00E9452
:1054B000A21B8E858823D1F08AE1E82E00E427E143
:1054C0004FE1B401CE010E94061384E28E838F83E4
:1054D0008CE18887EE85F0E0EE0FFF1FEA56FD4F66
:1054E00060817181CE0102960E94BC1EAA88C98883
:1054F000EB8808892F8541E0B401CE010E94B711E5
:10550000DF91CF910F91FF90EF90CF90AF909F9050
:105510008F9008956F927F928F929F92AF92BF92D9
:10552000CF92DF92EF92FF920F931F93CF93DF936F
:10553000EC014B01DB01ED91FC910480F581E02D44
:10554000CB0109955C01D401ED91FC910480F581BA
:10555000E02DC40109956C01D401ED91FC9104800A
:10556000F581E02DC4010995F5018481958164E1FF
:1055700070E00E947C35FF24F3948B3008F4F12C0A
:1055800041E0B401CE010E94BE1200E021E043E1FF
:105590005DE160E070E080E090E00E94B41CD40126
:1055A000ED91FC910480F581E02DC4010995FC0189
:1055B0008081873059F0883011F0863071F443EFE4
:1055C0005AE17AED672E7BE1772E0BC047EB5AE16B
:1055D00068E2662E6BE1762E04C040E050E0612C5C
:1055E000712C00E020E060E070E08AE390E00E942F
:1055F000B41C21E0A30160E070E08AE390E00E9427
:10560000B41C21E04AE85CE160E070E083E290E0F5
:105610000E94B41C8C85811114C0FF2091F0198662
:105620008F858A3010F02AE001C025E0EE24E39453
:1056300007E042E050E064E170E0C50101960E949D
:10564000682315E11E831F8382E088873E01F2E014
:105650006F0E711C4F8550E060E070E02AE0C301DE
:105660000E94F51E81E089871E831F838AE0888758
:10567000488950E060E070E02AE0C3010E94F51E16
:105680008C85843021F08E85843009F041C000E0A3
:1056900021E04DE55AE163E170E080E090E00E9496
:1056A000B41C15E11E831F8387E18887D6015896B5
:1056B0004C9150E060E070E02AE0C3010E94F51ECA
:1056C0001E831F8381E28887F601418D50E060E0F0
:1056D00070E02AE0C3010E94F51E1E831F838BE247
:1056E0008887D6015A964C9150E060E070E02AE03D
:1056F000C3010E94F51E1E831F8385E38887F60180
:10570000438D50E060E070E02AE0C3010E94F51E86
:105710008C858250823038F08E85833021F08989E3
:105720008830D1F417C010E0D60156968C91181726
:10573000B0F7FE01E10FF11D2AE0129FC001112414
:1057400022894DED59E164E370E003960E948D21BA
:105750001F5FEACFFF20B9F08C85833049F4F60152
:105760008689880F982F990F990F890F8D5F03C035
:10577000843049F48AE120E047ED59E165E370E0C7
:1057800090E00E948D218C858350823008F5F110C5
:105790001FC0698967FD1CC064305CF06830C4F4C8
:1057A000660FF4E06F9F600D11248BED860F64E3AC
:1057B00007C0660F862F880F880F680F6A5E83E028
:1057C00070E003E020E041EB59E190E00E94441AD0
:1057D00001E08C85813009F000E0A12CC12CE12C86
:1057E00020E041E0B401CE010E94B7118C858830E1
:1057F00028F4863018F58130E1F09CC0883009F437
:1058000075C08D3008F096C080E2E82E04E621E1F4
:105810004FE0B401CE010E94061384E18E838F8392
:1058200085E18887EC85F0E0EE0FFF1FEE53FD4F1A
:105830006EC08D85883009F07DC058C0D401ED91CF
:10584000FC910480F581E02DC4010995CC24C3941A
:10585000FC018081873011F0C12C05C0EE24E39457
:105860008A8D853009F0E12C8C85873041F0A12CA0
:1058700000E021E041E0B401CE010E94B711D40163
:10588000ED91FC910480F581E02DC4010995FC01A6
:1058900080818730D1F43AE1E32E08E527E144E145
:1058A000B401CE010E9406138AE18E838F838CE1BE
:1058B00088876BE979E1C3010E94BC1EEA8DF0E0A4
:1058C000EE0FFF1FE652FD4F22C022E1E22E0CE355
:1058D00028E142E2B401CE010E94061388E28E83E1
:1058E0008F838DE188876EE879E113C0CE01DF9167
:1058F000CF911F910F91FF90EF90DF90CF90BF90CD
:10590000AF909F908F907F906F900C94FE1260816B
:105910007181C301DF91CF911F910F91FF90EF90A3
:10592000DF90CF90BF90AF909F908F907F906F90BF
:105930000C94BC1EDF91CF911F910F91FF90EF90BF
:10594000DF90CF90BF90AF909F908F907F906F909F
:105950000895AF92BF92CF92DF92EF92FF920F9392
:105960001F93CF93DF93EC015B01DB01ED91FC9181
:105970000480F581E02DCB0109958C017C01B2E119
:10598000EB0EF11CD501ED91FC910480F581E02D29
:10599000C50109956C01D501ED91FC910480F5815B
:1059A000E02DC5010995FC018081873099F0883090
:1059B00009F478C0863009F079C0D6011E96EC91C2
:1059C000EF3028F4F0E0E652F94E649101C065E052
:1059D0006F5F69C0F60166856F3030F470E0FB01DF
:1059E000E652F94E649101C065E06E5FC7010E9406
:1059F0004318D6011E96EC91EF3030F4F0E0E652F9
:105A0000F94EE491E23010F093E001C092E0F80129
:105A10008489292F30E0280F311D2B30310514F4F3
:105A2000890F848B66E070E080E090E00E94981E11
:105A3000DC01CB010196A11DB11DD82E8A8FC701B3
:105A40000E94D614823019F4F4E0FD15E0F59A8D29
:105A5000953089F058F4913048F1E92FF0E0319712
:105A6000E00FF11F808D8F5F808F20C09630D1F0C6
:105A7000973071F01BC0D80152968C915297282F05
:105A800030E02530310594F48F5F52968C930EC030
:105A9000F8018489282F30E0293031053CF48E5FED
:105AA000848B04C062E0C7010E94431886E08C87A3
:105AB000DF91CF911F910F91FF90EF90DF90CF90EA
:105AC000BF90AF90089587E08A8FC1CF0895FC0101
:105AD0001282138280E4848381E085830895AF92EB
