:100000000C9428100C9450100C9450100C94501018
:100010000C9450100C9450100C9450100C945010E0
:100020000C9450100C9450100C9450100C945010D0
:100030000C9450100C9450100C9450100C945010C0
:100040000C9450100C9450100C9450100C945010B0
:100050000C9450100C9450100C9450100C941717D2
:100060000C9450100C9450100C9450100C94501090
:100070000C9450100C9450100C9450100C94501080
:100080000C9449110C9450100C9450100C94501076
:100090000C9450100C9450100C9450100C94501060
:1000A0000C9450100C9450100C945010AB33C83377
:1000B000E53302341D34383438343834BC345534E4
:1000C00072348934A034A034F921F9210B22822220
:1000D0004B23F22319242F2439243F244224422481
:1000E0004224090F970593490010900020200140F9
:1000F000E0305F0020002000020002200000090F15
:100100002F174C260212000424C0BB7D07000400F8
:1001100001400000090F5F5C309904F8DE7E0000AA
:1001200000090F5F5E30F9FABE03090F5F5C30997A
:100130007C75BF03090F2F174C2693C9E4F5FE1EEB
:10014000090F970593C96432994CAEFBFB090FFC6C
:100150007900090F5F5C3CFBDE7B090F5F5A3CFFB7
:10016000CE7700090F2F169FBD7F1F090F2EFE2C83
:10017000D5F08D14A1C881CFD9F1AF200003081F9D
:10018000051F1F151B1F11111F110E1F15111F0514
:10019000011F111D1F041F001F0010101F1F041B33
:1001A0001F10101F061F1F011F1F111F1F05071FF4
:1001B000311F1F051B17151D011F011F101F0F10D9
:1001C0000F1F0C1F1B041B071C071915130C121EF5
:1001D0001F120C1E12120C121F0C1A14041F052ED3
:1001E0002A1E1F021C001D00201D001F041A011FD3
:1001F000001E041E1E021E1E121E3E120C0C123E7B
:100200001E020614120A020F121E101E0E100E1EDF
:10021000081E1A041A2E281E1A12161F111F121F4A
:10022000101D151711151F07041F17151D1F151D6C
:1002300001011F1F151F17151F00170000100004D4
:100240000404040E040229060A00001197CF801B43
:1002500078E4390FB8019FC981087BBECD91A30016
:1002600017FE4211D767CE9C7DCE63E4C8438EC093
:100270003527E0CC31772F80FC910011D7776FC202
:100280000D7CCDEB7C5339303879E798075C227FC1
:100290002411D777E49263E42DAFF345CC695C90E9
:1002A0003BC73CE012F9230111D7778EE00D78CEE1
:1002B000EB7CB427C88D3BC73CE012F9230111D772
:1002C0000FB87A045EF33A9F849C841B70E798070A
:1002D0005C227F2411D70F380247E035AFF34DE59C
:1002E000623879E798075C227F244F70656E7E63E1
:1002F000686573743A0A596F757E666F756E647EB1
:10030000676F6C647E6F6E6C7921004F70656E7ED6
:1003100063686573743A0A476F6C647E616E647ECD
:10032000747265617375726521004761696E7E3212
:100330007E476F6C647E50696563657321005570FC
:1003400067726164657E796F75727E576561706FE3
:100350006E210020204761696E7E616E7E41726D64
:100360006F757221004761696E7E617E4865616CC0
:10037000696E677E57616E6421004761696E7E61B8
:100380007E506F69736F6E7E57616E6421002047E7
:1003900061696E7E616E7E4963657E57616E642120
:1003A00000204761696E7E617E466972657E576195
:1003B0006E6421003BDF4F982008140C00050100FB
:1003C0000A06808201A060002818000A06808201C7
:1003D000A0600028180082868008411121888204CC
:1003E000519000123000140C00050340C100503041
:1003F00000140C00050340C100501000A06000284C
:100400002008934FEE0D00040000101058206B0AD6
:1004100037E126DC849B70136EC24DB80937E126A4
:10042000DC849B70136EC24DB80937612C32810099
:100430000000000000B0F7EFD81B000000000038FB
:100440006C3973E6CC993367CE9C3973E6CC99331B
:1004500067CE9C3973DC07000000000060EFAF122C
:100460002E0CDAC500A40A882860400B02A2000600
:1004700015404840B0E01882E004CC8EDDD46DB366
:1004800052671D290882204409C4A0200882203810
:1004900046CD8E21424C80500406AB6570215C0134
:1004A0003B97FFC0EFF3304FB4A86C54362A27E7D0
:1004B000201B480002C439C809958DCA4665A3B2FD
:1004C00051D9A86C544E614C03042001761853D9BD
:1004D000A86C54362A2DA779987716B2060874802E
:1004E000C014045800022C000116807001810E1007
:1004F0000608081710E800011680000B0AB0000477
:100500005800022C28C00210600108A3807001016D
:100510006180300A081B40800520C002106001087D
:100520004E40180584B19005090900FEFEFEFEFE4E
:10053000FEFE00000000000000000000FEFFFFFFC4
:10054000EFFFFFFFFE000101010101010100FEFFBD
:10055000FBFFFFFFBFFFFE000101010101010100E0
:10056000FEFFBFFFEFFFFBFFFE00010101010101E4
:100570000100FEFFBBFFFFFFBBFFFE000101010109
:1005800001010100FEFFBBFFEFFFBBFFFE00010109
:10059000010101010100FEFFABFFFFFFABFFFE0009
:1005A0000101010101010100010204081020408045
:1005B0000F0FBF74C1E4D7EE3B0F0FBF6CC16432A5
:1005C000F975FB3D0F0FBF64C16432994C7ECDFEBF
:1005D0001E0F0F5F5E30994C2693C9E4EBFBFB0FB7
:1005E0000F5F5A30994C2693C96432F9DAFE3D0FF9
:1005F0008FEF56B82137E486DC901B72E3E1FE7D75
:100600000F8F7B851B72436EC80DB92137E4C6611D
:10061000FF5E8F0FB5D0B6CDA24D800A1D6C37F2AC
:100620007547CB81C90296B7BE058F4FDAB66D47C5
:1006300016B0C0E5765A935F924D5D2E60F4D67782
:100640008F8F8276EF79020778B11C84277C3E7009
:100650008AD925B7BE058F0F75B56DB3188975B9E1
:10066000D96CDEF009CEBDB51DC0F2D6B707074183
:100670000C1A3C1E0C410707000C3A163A0C0007F6
:1006800007002A18360C2A000707001A2432241AF9
:10069000004D6F6E73746572202020202020202072
:1006A0007E357E444D4700466F756E647E536869A3
:1006B000656C64202020202B317E415200576865F4
:1006C0007473746F6E652020202020207E2B327E74
:1006D000585000466F756E647E4D65617420202011
:1006E000202B317E466F6F64004865616C74687EB4
:1006F000506F74696F6E2020202B327E4850004668
:100700006F756E647E4C6F6F74202020202B327EBC
:10071000476F6C64001B1F3F8BC562020318C060EB
:10072000B3F94BEC73133184014409A627F7FA118E
:100730002C168BC9024A58C0A20409252C4A589489
:1007400020A1844510085260B1D96CFED21B9FDFF6
:10075000646472451C9B27AD02A584F49772CF4652
:1007600010162C5860848211162C5820C8CE9DDF9C
:10077000014C0000000046669220D48164051916E1
:10078000244966060000000013F87D7CCDAFF17DA2
:100790001B5FEF79C1CAE218080081BC01160BB8D3
:1007A00075008B1B3F8E23A7B519480200804100BE
:1007B0008475E5017F81FD0E0004000400E69F8B37
:1007C000C562028BCDEF021B9F9F62667044C6908C
:1007D0003B87D4D18C0E85E92FE8040240A5820224
:1007E000425400105480408C131800006C01376094
:1007F0006001411622B20865F16C954013002A068B
:100800002888A110D9102155B0414D6A0000500030
:1008100000000D000081041184F1433C2237E4D62E
:100820001B72EB0D3CFA391B9F3F9C1B72E6D750A5
:1008300092580E1A045021D30A384B03C445E93AA2
:10084000CC4119842377AEFCB206D04A2E3442182C
:10085000288380250B76B1D00FF5D65B6FBDF5866A
:100860001C3D0AB7DE7A046EBDF50A1B9F5FE69059
:100870007054168072ECA02274D11FE56C7CE36981
:10088000CE001D0B48175D614C1827E4211FE55968
:10089000D7918DC090C2000D4C89C003E0B2584082
:1008A00039E66772CDAD47BF9E2377BFFF9ED6D294
:1008B000C502ED76B0596C96AEC291AB57AF1A290E
:1008C000680E5EBD7AF59F01CBA52A05DBB6429185
:1008D00022458AAACB1313900B2017402E805C0070
:1008E000B9007201E402C805F8F38FCB52CAD05A9E
:1008F000B5B2B028C1E238F98FD174D51A1AED26F5
:100900000EFFE93A6B83B554AFC6A087184020614B
:100910000000E1008413FFD03CADA58BADDD0E5D82
:1009200099810E122000C03F47964B550AB66D853F
:10093000A2EA830910FE518ECB52CA7057378BCD75
:10094000A2E83AF10F1117F74F912041063290B704
:100950004081DF0A1C0870EB06C24340E0771B6150
:10096000964E9F83F0BB0BBA2861F539F2D3134A38
:10097000601DF28EE5E27732192DD28CBCE7C6EF0E
:10098000EB2DA775115F0317E077018BCF7B636DAC
:10099000B096524B69B43756CE9C73EBADB74CD77B
:1009A000BF1EF9EF1347FF5F21E4BF565900060C45
:1009B00012630101010101010101020202020404AA
:1009C0000408080008021001041F1F2700E0CC994A
:1009D0003367CE9C3973E6CC993367CEDC0178015E
:1009E00000FC7D01801700C0DF17007801C09D3337
:1009F00067CE9C3973E6CC993367CE9C39030027C8
:100A00004E6F0059657300090900FEFEFEFEFEFEF2
:100A1000FE00000000000000000000FEFFFFFFEFEE
:100A2000FFFFFFFE000101010101010100FEFFFBCC
:100A3000FFFFFFBFFFFE000101010101010100FEF8
:100A4000FFBFFFEFFFFBFFFE0001010101010101FC
:100A500000FEFFBBFFFFFFBBFFFE00010101010124
:100A6000010100FEFFBBFFEFFFBBFFFE0001010124
:100A70000101010100FEFFABFFFFFFABFFFE000124
:100A800001010101010100456E6F7567687E736B9E
:100A9000696C6C3F00011F20200101400010000420
:100AA0000021080803088040200308204080938F1D
:100AB000003180A0061088010462008118402011D6
:100AC000108801046200811840200658940BE5420A
:100AD000298372A15C2817CA857AA05C28030305C4
:100AE00007090C596F757E757365647E617E686554
:100AF000616C696E677E7370656C6C2E0A202020B5
:100B00007E596F757E686176657E6761696E656422
:100B10007E380A202020207E65787472617E4850DD
:100B20007E706F696E74732E007E596F757E75735B
:100B300065647E617E706F69736F6E7E7370656CC5
:100B40006C2E0A20207E4465616C7E327E6578744E
:100B500072617E64616D6167650A2020202020201B
:100B6000207065727E7475726E2E0020596F757ECE
:100B7000757365647E617E666972657E7370656C8F
:100B80006C2E0A2020207E4D6F6E737465727E6C11
:100B90006F7365737E31300A20202020202048505A
:100BA0007E706F696E74732E0020596F757E757339
:100BB00065647E616E7E6963657E7370656C6C2EA4
:100BC0000A20207E4D6F6E737465727E69737E6637
:100BD000726F7A656E0A2020202020666F727E6F09
:100BE0006E657E7475726E2E004761696E203220CC
:100BF000476F6C64205069656365732100557067A9
:100C0000726164657E796F75727E576561706F6E13
:100C1000210020204761696E7E616E7E41726D6F9A
:100C2000757221004761696E7E617E4865616C69FD
:100C30006E677E57616E6421004761696E7E617EDA
:100C4000506F69736F6E7E57616E6421002047613B
:100C5000696E7E616E7E4963657E57616E642100B8
:100C6000204761696E7E617E466972657E57616E5E
:100C70006421004F67730A52656D61696E7300539A
:100C8000657270656E740A44656D6F6E00556E64B2
:100C90006561640A4C6F726400536B656C65746FB8
:100CA0006E0A4C6F726400556E646561640A476930
:100CB000616E74004F67730A53616E6374756D0AD9
:100CC00047756172640053657270656E740A4B6E8D
:100CD0006967687400556E646561640A4B6E696784
:100CE000687400536B656C65746F6E00556E646557
:100CF00061640A536F6C646965720001010101014E
:100D0000010101020202020404040808456E656D37
:100D100079204B696C6C656400596F757E6B696CEA
:100D20006C65647E7468657E426F73732E0A000979
:100D300009AAFF01010001010100010101000101F7
:100D400001AAFF00010101000101010001010100F0
:100D500001010100010408003E1C08090900FEFE13
:100D6000FEFEFEFEFE00000000000000000000FE8F
:100D7000FFFFFFEFFFFFFFFE000101010101010185
:100D800000FEFFFBFFFFFFBFFFFE000101010101AD
:100D9000010100FEFFBFFFEFFFFBFFFE00010101AD
:100DA0000101010100FEFFBBFFFFFFBBFFFE0001D1
:100DB00001010101010100FEFFBBFFEFFFBBFFFED0
:100DC000000101010101010100FEFFABFFFFFFABCC
:100DD000FFFE00010101010101010011AFEFC6A2F8
:100DE000002C24C0420060D1F11038F281D0000202
:100DF0002000200008000220010CBD73E633B0067D
:100E000008002A08480202C0025977E004C047F6E9
:100E10003406828242301E0E2F80C9003E31752A70
:100E200002484568141DF311100EC0398F7A436EC5
:100E3000C80DBCF93D0FBF3FE994E3D83F66F9BD4B
:100E40008FFE84E51847AEDBEF66DC7F6079797250
:100E5000DC7A5A9775CAE7EECBDFF9F637020FBF97
:100E60007FFFCF79EC691DF63C65FE6E7F9DA78301
:100E7000F76739CD79EA91EF3DFD915F9BF91D2B25
:100E80003F37075AB709C8C261041091028A01B0FE
:100E9000B203CB3AD0FA4719B2100826EE0C8E20D6
:100EA000016C08E0B0A41007087114265B02D8108A
:100EB000C0806736935FBC0F0002B7BD25149980D0
:100EC000080C406452042E08140802934111188043
:100ED000080C8A8430994CA04828A0F667EC0D02D3
:100EE0008070DEFBA303168000084402422829C05C
:100EF000027E973B93CD6673D5EA4000040039ED3E
:100F0000FDE91E5D0E60B180E5B13F95E140944082
:100F1000B301805A18C2005A5252FEE26E8618C0BF
:100F2000C072B280C900168B7F1E6BFBEFAABBBFDD
:100F30000B297FEFB3DD58499432C12271C8629802
:100F4000FC39992CA084925E286111874160186257
:100F500058948D4306B0582CFE4E842065226500BF
:100F600052062065005206206550D21013B09082C0
:100F7000050B0E603081C564C29C30604261424105
:100F80000A05122850A1C062F139F63C8008888019
:100F9000088887E9DE5FED26861026240491D09824
:100FA000BDF73ECC1D9AB93E96A3CBE572B9BC669F
:100FB00099C4C4C157180EA606A646270C39CCAD55
:100FC000952131D9FEB51C2C3010A1C0624E984835
:100FD000000734E00007B0D8FCD3D8FFB44CCC8F66
:100FE00000A77FD9261240168E7F127BDF40000EAD
:100FF000FB17B3F99BEC7D060140D8FB6754054A0B
:101000009002933FD0DE2704000190A1D52B9BCD09
:101010006666FB97A4A1A1050638A016009CFCFEFD
:10102000710326152A4C8A1C1BBECE620183092C33
:10103000360B22C3CDE607750F5800C0BE6F0040C7
:101040000060EFDFE95EBF731F862A511793A86A1D
:1010500006ECFDFBBAFBFBB2BB3B0110000100013B
:10106000100010000180027AD803910F2E9E74B0F8
:101070007A6B81C5E781B72D323C76B07A74200552
:101080001F0350697420202020207E2D327E48507E
:101090002C7E2B46616C6C004D6F76696E677E57B7
:1010A000616C6C73202020202D317E5850005370CD
:1010B00072696E677E426C616465202020202D314C
:1010C0007E4850005275737465647E41726D6F7511
:1010D000722020202D317E41520054726970776950
:1010E000726520202020207E2D317E476F6C6400A9
:1010F0004D696C646577202020202020207E2D31D2
:101100007E466F6F64001B9F7B15000098C007C66A
:101110004BCD81FBF81630010080AEFB01000000D2
:1011200000004278CE60D8C9396E0E7C8110000074
:10113000000000383C590013008003378EDCC02BC0
:1011400047E098A7DC3800003001D6A7B9722C5CC4
:1011500080734EE3C8EF011BDF178738557CCD62E3
:10116000B317EC75D9739E780A822E10CB0B5BC433
:1011700018113FC04891CC4B6F0513307C03C4A1BC
:10118000206A79C3027583DFC9C8A98B299429D441
:10119000F205F1505CFE021F70895C3902D79C8019
:1011A0009F011B9F872CC86488B840445822C212F4
:1011B000F100C20572E47B22D45804F12E866184CA
:1011C0008ADF643980051458A0C2021516A8B04001
:1011D0008532032B6FC0C10215169BC566B131B0B5
:1011E000596C04606360232194450C8B812C42F977
:1011F000253EE01239721CA7FC1C1B9F0FC0F0009B
:101200007C033E502F826E110E5C8427E3065E2223
:101210004F61EC086C306C67C76690A8080E459269
:10122000305C54CE84B0D553E46DCEC0C93BB09988
:10123000286E004E8C4A18C85637F080CD91F07D4C
:10124000AE1C31175E70249C809F031B9FAF91459D
:101250008D0E58125C0220B120242008820208A0C2
:10126000113146C468901BF2491426CCBD0538F2F2
:101270008050A4049475E9171CE0F0B9885BC42D74
:10128000E216712B92148003145452009A82AEC25B
:101290000DDC226E117F8A0FB8448E9E10B88C5FD1
:1012A000031BDF6F43600904661E87C01208CC3C35
:1012B0000E81251098F9093CA43CEEA5705807C290
:1012C0009527DC289F61B180052A2C08C8022218C6
:1012D00040020B82B0608101244001284880C50291
:1012E000032C60B1F8093EE012B972EA715C822702
:1012F000BF0B0105050600050306000402050003F7
:101300000103132A4A600F170E0B9987D94DDB8D05
:1013100039A8277E0127F510D96DD31D1907389DEF
:101320000E700093CDE46731590CA0E070381CD7E3
:10133000876301188E4EC41E8185081C9D40FB2BBF
:10134000861CC8383A9178ECE65839241C7A34C89F
:10135000EA6DFC94217BDC0CB27A6B383B11C6AF92
:1013600018B2C7CD800B388ED30045DF7FB0EBDAE3
:101370001D8E7D71DEA7F33EBDECB65E5F5CFF683F
:10138000F6D65B57D204D35B4F33E7398E5ECD8EF2
:10139000578F635E3B4FB93A1B336BC770B477BC52
:1013A0007A752E0ED3AB57B933566FBD35C134A302
:1013B0001D303F34BAE8173267E62D5767633ABDF0
:1013C000E6B4733B8CA3575312AF5E33CF5D47AF88
:1013D0007497ABC7319E7D2ACB8C7568F80E671663
:1013E0009BC5E6CC6739B3D82C368B339B574C2042
:1013F0009919BC637166B3D82CCE7C96339BC566B5
:1014000071E61B84000202020203030303030301CB
:1014100001010101010101020202020404040808A1
:1014200034100000F804C4A464A4E4C404040464F4
:1014300084640484448404C404C40404E424C4040C
:10144000A404844484048444E4040404C4E4A4643C
:10145000A4C404F8000000000F10101311131110A1
:101460001010101013101011121110111211101071
:101470001312111013101113121011121310101057
:10148000101113111310100F0000001008040201B6
:10149000011F202001014000100004002108084E17
:1014A0006F0059657300090900FEFEFEFEFEFEFE98
:1014B00000000000000000000000FEFFFFFFEFFF43
:1014C000FFFFFE000101010101010100FEFFFBFF22
:1014D000FFFFBFFFFE000101010101010100FEFF4E
:1014E000BFFFEFFFFBFFFE00010101010101010051
:1014F000FEFFBBFFFFFFBBFFFE0001010101010179
:101500000100FEFFBBFFEFFFBBFFFE000101010179
:1015100001010100FEFFABFFFFFFABFFFE00010179
:1015200001010101010045766164657E747261709C
:101530003F008DD73DF13EF3F0AD7BB3673E763093
:10154000714E0781B2F2398E812E0489D73DF1B1F7
:10155000C3E5DCECB91E5F1D04CAF2CE913036093A
:10156000973BF3F031E6F732777A231C799E4521D9
:101570000C01010101010101010202020204040443
:1015800008084F70656E7E63686573743A00D7BF54
:101590001EF9EF1347FFCF169CBD7AF5CFC199AB6B
:1015A000675EF3E7F0EAD5337FE6A56B09001088A4
:1015B00011021638124E8413618E70A1040C658ED0
:1015C00070229C403995430C00000027F582DC9086
:1015D0008C498910CA858C2237E4863C002A048C09
:1015E000810000B896AE1F1E40200610488C400CAB
:1015F000201015046200811880BDF7DE07D6426E08
:10160000C80DB971D827208006B8EC2B72436EC87C
:101610000DB92137E4865CF7058802014EFBC00D49
:10162000B92137642D0E7BEFBD01620081A8201027
:101630000308C400C60410880104728E17402E08E7
:101640005C2817EA8172C176246314E8025C3414C2
:10165000192CE486DC38EC131040035CF615B92134
:1016600037E486DC901B7243AEFB02448100A77D09
:10167000E086DC90C5404ACA1258053A46325AB94B
:10168000500E960B2017CA05818B59207E596F7515
:1016900020616C72656164790A20686176652065F5
:1016A0006E6F75676821007E596F7520646F6E7468
:1016B00020686176650A206F6E6520746F207365FF
:1016C0006C6C2100202020596F75206E6565640ABE
:1016D00020206D6F726520676F6C64210053636F0B
:1016E00072653A2020207E486967687E53636F7276
:1016F000653A00536B696C6C7E4C6576656C0A418B
:101700007265617E526561636865640A426F7373D6
:1017100065737E536C61796564004F080000003C7E
:101720007EC391F377321080C0F82F2FFEF8E0804F
:101730000081FFFF1FFC781CFFFF0081FFFF9191DC
:10174000B98340000000003C7EE181877E3C0001BF
:10175000071FFFF8380F03010081FFFF9191B98344
:101760004081FFFF117FFFEE80000059A7FFE0815D
:1017700003016E1015A0206F80FF00016501504E1F
:10178000880850BD53E0EFC211F8BA57FE3E1C91D5
:101790005B3EC7D5BF0347E09A342004B9B9F810BF
:1017A0003F130910C24810091B280B80728888005B
:1017B00082DE29F0674812ACB0C2C8A6002C0A6CC1
:1017C00012012D7807CACF0796653150083AD840E4
:1017D0005900948D2436DC80F23B388E53EE1C8108
:1017E0006B2E203CE50773EB715C8227AFC0912B19
:1017F000E6C2137E3D70815C7302EE1C813B97C88C
:10180000955F039987D94DDB8D39A8277E0127F590
:1018100010D96DD31D1907389D0E700093CDE46764
:1018200031590CA0E070381C4F1FA60419C0400AA3
:1018300086634A082184E646C8281226A19D4400F2
:101840000108001542919051246CA000048000D042
:101850004EC298219C98CC6E26413A0E0C98930269
:1018600005200004807612C60CE14400C6A429219C
:1018700084109A1B21A3489884765216000120C830
:1018800043160B10408020B0D96C5E335D9C992EBE
:101890006032F9D52C26933F1BD3CFB0588000027D
:1018A0000481CD66F31D360B28000516C3C5F70865
:1018B0006D08B794104208CD8DD950A4A8744C9EE1
:1018C00012324268464AD010427363763351C9924D
:1018D000A2C155242C83D049534208053A269F6063
:1018E000B38005142830FC3E6B8570C655244C42ED
:1018F0003BB9A50004800A9F4A099BC9444273145E
:10190000400000004001A01C5C6E2400048020DF29
:10191000C155A44811C53BAE495342082134C79470
:10192000104208CD31258450206BF2120A0030009D
:10193000300030001FE737168F9005205E9D4280F3
:10194000D3388D576C54368BCD62A3B291B0597C8D
:101950004F00590AC814DE02021B782D4075C8C317
:1019600016156448FB6900748AB801780B086CE0AE
:10197000B500D5210F5B549021ED77A9403410A21A
:10198000F53120B081D70254873C6C514186B41F99
:10199000AF4C2687BC050436F018290B017CD7B262
:1019A00040C6EC3B1FFF37166F860A00A05CB2589A
:1019B0005E5360F5119B209BC566B151D948D82C68
:1019C0003E40721943F716F02120B0812F20C151FB
:1019D0009EB5A82043DA8F4B455450968F01810D58
:1019E0007C01514779D6A2820C693F9879594D966E
:1019F00042DE01021B788C1415017CD7A2820C698F
:101A0000BF2D802C05640A6F01810D3C16405404E3
:101A1000F05D8B0A32A4FD34003A45DC00BC0504BD
:101A200036F058005111C0772D2AC890F6BB5420CB
:101A30001A08D1FA1810D8C06301444500DFB5A8D0
:101A40002043DA8F57269343DE02021B785C908591
:101A5000C4772D0B64CCBE0301087E3F3F3F97E166
:101A600060B1584C16938900069000124AA8D3E939
:101A7000BF3213F3BDACB6110401527098B00080B0
:101A80000238A06BACFC3361B1582C9A2FC63513C9
:101A90000800010000200024C0C4D9001400100078
:101AA00058309C2B2B23CBC99FD4818466F1FBD863
:101AB0006C764042D0101A102841021440001000E9
:101AC0000400014000100010800218008329445DCA
:101AD000197FB87D66B3D96C369BC962B2582CD6D3
:101AE0007EEC000A8010A66C4A2841200808800479
:101AF000519120000220000200F39EF197DA3F7B13
:101B0000D706102820903ABC8E9D974001400010C7
:101B10000004000140001000040001C039D91F6317
:101B20000125888A08000411D1120A2C3EB27FF7E1
:101B3000868083C567E7E62150004000100004005E
:101B4000014000100004000160EF8E0F030002E06E
:101B500064B23F9B1F9F1F978FB0596C169BC56641
:101B6000B1B9E6C06432335A700210015C2E974C52
:101B70000AB6ED600107BFFF7FC69CE63CF9EFE1C6
:101B8000EFEEE18FFF6FE2B04EF973FE33CAE94F1B
:101B9000F5EF2AE3EFF3EFEB0B1CC218479EE73497
:101BA000131EFF23FBE477BFF7EF2C977559977C43
:101BB0007C5D161070510D0F9725132A542646266A
:101BC000512645E6BACF0903183061C084011306D7
:101BD0004C98070D0F93A62C0C1801144440044098
:101BE00031C1849DED5407D40000430506B0500573
:101BF0006A203054260D8F4B9D34128C05E1024231
:101C00008D0453A6BA46D9428000610D9022401639
:101C10004980809B0E0D8F0F09259409260B2C8B74
:101C200020E12B710DC3258E15B9983572000DCFAB
:101C30006FA1B00181DD130CF8A6270607F442045A
:101C40002880E10D0D8F8F0499A0818282509830F9
:101C5000493E3A064304415246C2913B0DCF2749C3
:101C600019AA40A30205D414501D34F866D41128D3
:101C7000A8000540000AA04221C38E030DCFA7642F
:101C800094F01AC0AB5200441F05201428A100D8BC
:101C90003084C1CCAD47003A7E53756E6B656E7E65
:101CA0004B6565707E6F667E4F6721003A7E466C9D
:101CB000616D696E677E556E646572776F726C6474
:101CC000003A7E556E646561647E43617461636F42
:101CD0006D6273003A7E506F69736F6E6F75737EBD
:101CE00044756E67656F6E73003A7E5468657E4218
:101CF0006C61636B7E5365776572730010020157E8
:101D0000BFCC95AB0E01DDD62058B73508D66D0D8A
:101D10002EBD7AF5EAD5AB57AF5EBD7AF5EAD5AB05
:101D2000578F320F73E5EAD5AB57AF8E51AF5EBD1B
:101D30007AF5EAD5AB57AF5EBD664DF6136606473A
:101D4000640CB973481DCDE850987EC0230017106D
:101D50000E50D83060C18205290B162C58304139FD
:101D6000F99DBDF7F7BCC8AA6308E7BFDBFD5B08B8
:101D7000C200848210203080020B10994CA0C01247
:101D80000457804ACA905C2417C94572918C0D474C
:101D9000E032C22C0C98F3037BEFEF6D00E0B0DF74
:101DA0003D1C05CE06991E5BCE4C00C8D5090ABC69
:101DB000BD7F1638017202AE5EBD7A056E840302E5
:101DC000B200805004004402000808004014008063
:101DD00028056A0000500000000181E1EAFBBDF720
:101DE000F736ACBDDF3D616670453A168F80C104A1
:101DF0006E2D30F9D425510CB0800212A080042839
:101E0000B080020B28B080020B2820010A2CA0C051
:101E1000020A2CA0C0020A2CA0C0020A2CA0C002F8
:101E20000A2CA0C0020A2CA0C0020A2CA0C0020AE0
:101E30000C1193BDEF5CBDCFC33C5C9D9BAB7F9E03
:101E4000FBBB96013D1A4401201C1C042102B3E691
:101E5000A9861868C010FD3613280CC43104EACFD7
:101E6000D87BBFE3382EE16004B08230060827E05B
:101E7000CF747FC731772F80BCED61DE98C0456895
:101E80004770D4E005387729586073C09281C2AD9D
:101E900041065842D727F6DEDF130600100622411E
:101EA0000140E17B03B7089020621772436EC80DB2
:101EB000B92137D8673C7AF5EAD5AB57AF1E8C0A03
:101EC000A0AA505529AA22A02A45D5881A65596981
:101ED0008C425491AA49353B760CAF5EB3E661E281
:101EE000D1AB57578635D412868BE9D5AB57AFCED9
:101EF000D4626A57EDAA5DB5AB364B2600000101EE
:101F00000202020303030404040404139F0700C233
:101F1000993367DE72E6CC9900F00200F8FD00C04C
:101F20000B00E0F70300AF8070E6CC99779C397323
:101F300026C011010202030404051708241708240F
:101F400017FF1313273B3B4F09C7E6AED9D1BB237D
:101F50002018090737474696A72C21815A17F74FB3
:101F6000912041063290B74081DF0A1C0870EB06D1
:101F7000C24340E0771B61964E9F83F0BB0BBA28AB
:101F800061F539F2D3134A601DF28EE5E27732191A
:101F90002DD28CBCE7C6EFEB2DA775115F0317E0C0
:101FA0007701459F371620002560E2707AED7C7638
:101FB000F5EA06A29090A10322DA553B44060CCD27
:101FC000671DB9682F9ED06B0FE809BDE6825E855C
:101FD0005B4EDC2057E5EA05F8101740000AC48084
:101FE000397472EAE70086A7591C5134082859163B
:101FF00086B54162B8F0D241B0C79662CA4E19B0F8
:10200000E4CC35AF3973E735677F1C020B0805BB9D
:10201000FB7AB3CDB4EE180324B20A37E0FB632198
:102020008305C0691C0347E0C8193812E60827E099
:10203000E65F0D814D38FAC0CBB8406EC0959FE782
:10204000DDAB57AF5EBD7204CE5E3922BF06E13014
:1020500011241FBECFEFDAE0DEBFCDBF12E0A0E05B
:10206000B1E0E0E0FEE602C005900D92A63FB107A8
:10207000D9F727E0A6EFB2E001C01D92AA3EB20751
:10208000E1F710E1C8E2D0E104C02197FE010E940F
:10209000C635C732D107C9F70E94BF310C94FE364E
:1020A0000C940000089580E090E00895089508954C
:1020B0000895089508950895089508950895089538
:1020C000089508950895FC018BE191E09183808348
:1020D000158214828FE091E09383828388E0838766
:1020E00081E0828717821086168281871486858711
:1020F000089508950F93CF93DF93FC016A3039F46C
:102100008581848396818185890F86834BC08481F4
:102110006E3719F48E5F848345C0262FEF016681E8
:102120006F5F2A3374F42033F4F42B32F1F01CF493
:102130002132F9F02DC02D3289F12E3249F52FE3ED
:1021400019C02B3544F4213464F42A3381F02F3341
:10215000F9F422E40FC09FE9920F9A31C8F4275492
:1021600009C0215407C02C5F05C021E403C023E44B
:1021700001C02EE33F81062E000C770B082E000CC9
:10218000990B313069F40AEF4DE751E00E94E311F9
:1021900088858D5F9C81890F8C8304C020E4EACF01
:1021A0000BEFF2CF81E090E0DF91CF910F91089596
:1021B0000C9461360C9461360C9461360C94613643
:1021C0000C9461360C9461360C9461360C94613633
:1021D0000C9461360C9461360C9461360C94613623
:1021E0009F92AF92BF92CF92DF92EF92FF920F93A6
:1021F0001F93CF93DF93F22E10E0000F111FF80111
:10220000ED51FE4FC080D180F801EB52FE4FA0800F
:10221000B18010E0922E9E0CC42F440FDD0B812F55
:10222000817010FD8AE0123010F46F2D01C0692D0D
:1022300070E0012F20E0A601FE01E80FF11DCF01A3
:102240000E9441131F5F143051F710E0EF0C812FF3
:10225000817010FD8AE0123010F46F2D01C06E2DD8
:1022600070E0012F21E0A501FE01E80FF11DCF0173
:102270000E9441131F5F143051F7DF91CF911F91DE
:102280000F91FF90EF90DF90CF90BF90AF909F9015
:1022900008951F920F920FB60F921124CF92DF92E2
:1022A000EF92FF920F931F932F933F934F935F9360
:1022B0006F937F938F939F93AF93BF938091D90335
:1022C0009091DA03A091DB03B091DC030196A11D8C
:1022D000B11D8093D9039093DA03A093DB03B093ED
:1022E000DC03492F5A2F6B2F772767FD7A952091B2
:1022F000000124236C017D0139E0F594E794D79423
:10230000C7943A95D1F74C295D296E297F29489FBA
:10231000402D112442238C019D015DE035952795C8
:10232000179507955A95D1F7082366E0B595A795B7
:10233000979587956A95D1F7802B84278093CF0056
:10234000BF91AF919F918F917F916F915F914F91CD
:102350003F912F911F910F91FF90EF90DF90CF90C1
:102360000F900FBE0F901F901895CF92DF92EF92B3
:10237000FF920F931F93CF93DF936C017A018B0130
:10238000C0E0D0E0CE15DF0589F0D8016D918D0158
:10239000D601ED91FC910190F081E02DC6010995E7
:1023A000892B11F47E0102C02196ECCFC701DF9189
:1023B000CF911F910F91FF90EF90DF90CF900895F4
:1023C00008950E94F9362F923F924F925F926F923A
:1023D0007F928F929F92AF92BF92CF92DF92EF92B5
:1023E000FF920F931F93CF93DF9300D000D000D0C4
:1023F000CDB7DEB77B014115510509F429C1FA01BA
:10240000D490319674914E5F5F4FAD2DB0E0222392
:1024100009F1E72FE695E695E695AE2EB12CE1E0C1
:10242000F0E0372F377011F4E0E0F0E0EA0DFB1D2B
:10243000AE9F5001AF9FB00CBE9FB00C1124033073
:1024400011F4AA0CBB1C2A9DF0012B9DF00D112448
:102450004E0F5F1F0F3F09F402E05C01AA0EBB1E86
:102460001A141B040CF0F4C0803891050CF0F0C075
:102470009701270F311D121613060CF0E9C0F0E486
:10248000EF16F1040CF0E4C04115510509F4E0C069
:102490002E2D27702D839701F7FE02C0295F3F4F35
:1024A00063E0359527956A95E1F7F22FF7FE05C0B1
:1024B0006D81662311F0FFEFF20F97FF05C0222711
:1024C0003327281B390B02C020E030E0E0E8AE16CD
:1024D000B10424F060E8762E781A01C07D2C721ABF
:1024E000EF2E0F2E000CFF08FF3F1CF4CE2CC094E3
:1024F00001C0C12CE1E0672F677009F4E0E0769538
:10250000769576959E2E970EE90CF11C69E0E616FD
:10251000F1041CF0E8E09E2E9F1A1C2D1F0F60E8AE
:102520001603800D911D1124820F931F61E070E04E
:102530000D8002C0660F771F0A94E2F7033011F096
:10254000E1E001C0E2E0EE2EF12CCD9C200D311D2A
:102550001124E29E5001E39EB00CF29EB00C1124B7
:102560006A01CA0CDB1C970121503109A20EB31E6F
:102570004A0D5B1DBB24BA94B69E9001B79E300DE8
:102580001124290140945094F90DFE83A719B10933
:10259000EA9FA02D1124B0E0E79DA00DB11D1124EC
:1025A0002E81121709F454C09C012F513C4F4A014F
:1025B0005601612C671409F443C0F5013490369E2E
:1025C000F001379EF00D1124FA83E983E095F09530
:1025D000FC83EB83023019F45C824B8210C00B3F0A
:1025E00019F41A8219820BC0F4013490369EF0015E
:1025F000379EF00D1124E095F095FC83EB8317FDD9
:1026000009C0F9013080EB81E321F9813E2E3F2A98
:10261000F9013082FD81FF2359F017304CF4F901A4
:10262000E058FF4F20803C8023203A8032283082BF
:102630008E0C9F1CAE0CBF1C63942F5F3F4FBACF14
:102640001F5FCA0EDB1E4A0F5B1F80589F4FA8CF2B
:1026500026960FB6F894DEBF0FBECDBFDF91CF91A7
:102660001F910F91FF90EF90DF90CF90BF90AF90B0
:102670009F908F907F906F905F904F903F902F90A2
:1026800008952F923F924F925F926F927F928F9216
:102690009F92AF92BF92CF92DF92EF92FF920F93F1
:1026A0001F93CF93DF93CDB7DEB761970FB6F89442
:1026B000DEBF0FBECDBF7C014A01FA0134913196D5
:1026C000E491832F8F778F5F282E312CC701820DE5
:1026D000931D97FDA1C1F0E8EF16F1040CF09CC129
:1026E0008E2F8F738F5FAB01480F511D57FD94C123
:1026F000603471050CF090C1331F3327331F3B83C7
:1027000031E0E6FF30E0EE1FEE27EE1FEF83AB0176
:1027100077FF04C044275527461B570B5A0117E083
:10272000A122BB24AB0177FF02C0495F5F4FDA01F2
:1027300053E0B595A7955A95E1F7BA83A98377FF3A
:102740000CC0A114B10449F01197BA83A98348E0E1
:1027500050E0FA01EA19FB095F0141E050E06A012B
:102760000A2C02C0CC0CDD1C0A94E2F7D986C8867C
:10277000982F969596959695877011F4892F02C09B
:1027800081E0890F482F880F550B5E834D83502FB2
:1027900052705A8701FF06C0AD81BE81119781E05A
:1027A000382702C0A0E0B0E0602F61706C8300FFAA
:1027B00004C0B1016150710902C060E070E097E0AF
:1027C00040E150E080E0612C712C81010150110941
:1027D0001C870B870D811E81A017B1070CF01CC14F
:1027E000B7FD1AC18A01CC24C394D12CF80143E06F
:1027F000F695E7954A95E1F7E80DF91DE491F0E0CB
:10280000A8014770552702C0F595E7954A95E2F76C
:10281000A8014F5F5F4FE0FF05C01FEFC11AD10A4B
:102820008A01E4CFE1E0CE16D104E9F4FA01F6958D
:10283000E795F695E795F695E795E80DF91DE4918E
:10284000F0E0477055272F0102C0559447944A95F0
:10285000E2F7F1E04F2255244FEF441A540AA80141
:102860004E5F5F4F41C08601015011091E870D87E1
:1028700044244394512C0D8402C0440C551C0A94EA
:10288000E2F71FEF411A510A00E010E0FA01F69555
:10289000E795F695E795F695E795E80DF91DE4912E
:1028A000CE2ED12CD98AC88A6A01E7E0CE22DD2457
:1028B000E889F98902C0F595E795CA94E2F7E0FF47
:1028C0000AC0E1E0F0E0002E02C0EE0FFF1F0A9404
:1028D000E2F74E0E5F1E4F5F5F4F0F5F1F4FCD84BD
:1028E000DE840C151D0594F2C12CD12CC414D50422
:1028F00009F48CC00B81002369F0E92FF0E031115D
:1029000005C007E010E00E1B1F0BF801EF5EFD4F46
:10291000E0818E2B915008F075C0882309F44AC0DD
:1029200019811A0F1F8718300CF044C0FB01EE0DFF
:10293000FF1DE038F105F0F508851985809FF0014D
:10294000819FF00D1124FE87ED871F8517FD15C0AF
:10295000C701012F10E80103800D911D1124860F7E
:10296000971FFC01EF51FC4F80819D85222311F0C0
:10297000892B02C0909589238083A114B104D1F0E2
:10298000EF85E730B9F0EF3FACF0C7010E2F10E84C
:102990000103800D911D1124860F971FFC01EF5933
:1029A000FB4F80819E85222311F0892B02C09095D8
:1029B000892380830F81002311F011E031278FEFED
:1029C000681A780A9C81992319F06150710902C034
:1029D0006F5F7F4F6214730464F00A85002311F067
:1029E000119701C011961C81112331F06B857C85F4
:1029F00005C097E080E006C060E070E097E080E00E
:102A0000612C712CEFEFCE1ADE0A70CFCC24C39468
:102A1000DB80CD18CB82DECE61960FB6F894DEBF98
:102A20000FBECDBFDF91CF911F910F91FF90EF901F
:102A3000DF90CF90BF90AF909F908F907F906F90DE
:102A40005F904F903F902F9008954F925F927F92AA
:102A50008F929F92AF92BF92CF92DF92EF92FF92AE
:102A60000F931F93CF93DF9300D000D0CDB7DEB785
:102A7000DC014115510509F4BAC0FA01D490319630
:102A800034914D2C512C5C01A40CB51C1A141B0460
:102A90000CF0ADC0803891050CF0A9C0CB01830FBC
:102AA000911D181619060CF0A2C0603471050CF0C7
:102AB0009EC0F62FF770EF2ECB0177FD079623E02F
:102AC000959587952A95E1F7F82F77FF04C0EE20BA
:102AD00011F0FFEFF80FB7FF05C0662777276A1BD5
:102AE0007B0B02C060E070E000E8A016B10424F0A7
:102AF00080E8F82EFA1A01C0FD2CF61AAF2E0F2E20
:102B0000000CBB08FF3F1CF4CA2CC09401C0C12CB0
:102B100091E0832F877009F490E0369536953695CD
:102B2000930FA90EB11C19E0A116B10414F098E09E
:102B30009F1B8C2D8F0F9D01082F10E80103200D86
:102B4000311D1124260F371F4E5F5F4FCD9C600D46
:102B5000711D1124460F571F61E070E00E2C02C05A
:102B6000660F771F0A94E2F7EFEFE69FD001E79F29
:102B7000B00D1124A095B095BC83AB837C809F0FD2
:102B80008917A9F1F901EF51FC4F6F01A12CB12C6C
:102B9000AF1438F5FA01EA0DFB1DE491E69F400100
:102BA000E79F900C11249A82898287FD07C0F60165
:102BB0001081E12FEA238E2AF6018082EE2051F067
:102BC000873044F4F601E058FF4F908097208A80C8
:102BD00098289082FFEFAF1ABF0A0FEFC01AD00AF1
:102BE000D7CF8F5F440D551D20583F4FC9CF0F9051
:102BF0000F900F900F90DF91CF911F910F91FF9049
:102C0000EF90DF90CF90BF90AF909F908F907F908C
:102C10005F904F900895CF93DF9300D000D0CDB751
:102C2000DEB7611571058105910579F09B01AC0155
:102C300069833A834B835C830E94193529813A81E9
:102C40004B815C810E944F3503C060E070E0CB0196
:102C50000F900F900F900F90DF91CF910895EF920A
:102C6000FF920F931F93CF93DF938C017B01C0E002
:102C7000D0E0F701EC0FFD1F6491662361F0D801ED
:102C8000ED91FC910190F081E02DC8010995892B0F
:102C900011F02196EECFCE01DF91CF911F910F91D0
:102CA000FF90EF9008956115710579F0FB01019097
:102CB0000020E9F73197AF01461B570BDC01ED917E
:102CC000FC910280F381E02D099480E090E008956A
:102CD0004F925F926F927F92EF92FF920F931F93AA
:102CE000CF93DF93CDB7DEB7A1970FB6F894DEBFD1
:102CF0000FBECDBF7C01FA01CB0119A2223008F42E
:102D00002AE08E010F5D1F4F422E512C612C712C39
:102D1000BF01A30192010E948135F901CA0101504E
:102D200011096A3014F4605D01C0695CD8016C93CC
:102D3000232B242B252B61F7B801C7010E945316C2
:102D4000A1960FB6F894DEBF0FBECDBFDF91CF9135
:102D50001F910F91FF90EF907F906F905F904F9039
:102D60000895462F50E060E070E02AE00C94681669
:102D7000CF92DF92EF92FF920F931F93CF93DF9347
:102D80006B01770FEE08FF08F7FE1FC0EC01E8812A
:102D9000F9810190F081E02D6DE209958C014427C5
:102DA0005527BA014C195D096E097F092AE0CE0149
:102DB0000E946816800F911FDF91CF911F910F9194
:102DC000FF90EF90DF90CF9008952AE0B701A60121
:102DD000DF91CF911F910F91FF90EF90DF90CF90F7
:102DE0000C9468163FB7F8948091E2079091E3073E
:102DF000A091E407B091E50726B5A89B05C02F3F39
:102E000019F00196A11DB11D3FBFBA2FA92F982F10
:102E10008827820F911DA11DB11DBC01CD0142E08B
:102E2000660F771F881F991F4A95D1F708951F9243
:102E30000F920FB60F9211242F933F938F939F936E
:102E4000AF93BF938091DD039091DE03A091DF03E8
:102E5000B091E0033091E10723E0230F2D3720F4F8
:102E60000196A11DB11D05C026E8230F0296A11DE4
:102E7000B11D2093E1078093DD039093DE03A093BF
:102E8000DF03B093E0038091E2079091E307A09104
:102E9000E407B091E5070196A11DB11D8093E207FB
:102EA0009093E307A093E407B093E507BF91AF9138
:102EB0009F918F913F912F910F900FBE0F901F9078
:102EC00018950F9302E00E94E3110F910895F89472
:102ED00087E78093000880930108A89588E1809394
:102EE000600088E080936000FFCF8F929F92AF9246
:102EF000BF92CF92DF92EF92FF926C01E12CF12C06
:102F00000E94F2164B015C01C114D104E104F104EA
:102F1000F1F00E94F216DC01CB0188199909AA0987
:102F2000BB09883E9340A105B10570F321E0C21AA8
:102F3000D108E108F10888EE880E83E0981EA11CF4
:102F4000B11CC114D104E104F10419F7DDCFFF90E5
:102F5000EF90DF90CF90BF90AF909F908F900895AB
:102F60008FB18095807F669B88601C9B84600895EC
:102F7000FC01840F911D18161906E4F5E038F105DF
:102F8000CCF5F7FF02C0E0E0F0E08138910514F0E5
:102F900080E890E0382F3E1BAB0177FF02C0495F0D
:102FA0005F4F83E0559547958A95E1F75695542FE5
:102FB000442757954795E40FF51FEF51FC4F677075
:102FC000772781E090E001C0880F6A95EAF7482FE3
:102FD000222349F0213071F4315020F08081842B7C
:102FE0008193FACF08958095315020F090819823F5
:102FF0009193FACF089560387105D0F440345105AB
:10300000B8F4E8EAF5E080E1849FD001A0781124CB
:10301000A60F4770E40FF11D8491AF51BC4F2223DE
:1030200019F06C91862B03C080956C9186238C934C
:103030000895AF92BF92CF92DF92EF92FF920F93DB
:10304000CF93DF936C015B017A01E20EF11CEA0180
:1030500057FF0DC0C0E0D0E00AC0C417D5077CF40C
:10306000202FAE01B501C6010E94FB172196A701D2
:1030700081E4E816F1048CF340E450E0EECFDF91F8
:10308000CF910F91FF90EF90DF90CF90BF90AF90D6
:103090000895EF92FF920F93CF93DF937C01EB01A2
:1030A00021E049E067E370E0CE010E94B81721E01B
:1030B00049E06FE370E0CE010E94B81701E029E01B
:1030C00047E350E0BE01C7010E941918BE01685FC6
:1030D0007F4F29E047E350E0C7010E941918DF91B4
:1030E000CF910F91FF90EF9008958F929F92AF92A2
:1030F000BF92CF92DF92EF920F931F93CF93DF9304
:103100005C014A01102FEB016B01C20ED11CCC15E2
:10311000DD054CF40E2D212FA401BE01C5010E9436
:1031200019182196F4CFDF91CF911F910F91EF9055
:10313000DF90CF90BF90AF909F908F900895AF9207
:10314000BF92CF92DF92EF92FF920F93CF93DF93D4
:103150005C01D42FD61BC0E0C22ED12CE62EF12C60
:10316000B7016C0F711D202FA601C5010E94FB172E
:10317000CE5FDC17A8F7DF91CF910F91FF90EF9012
:10318000DF90CF90BF90AF9008950F93CF93DF93D0
:10319000EC0189E08B8783E08E838F8382E08887D0
:1031A000288948E255E061E070E080E390E00E9409
:1031B000611700E021E040EA54E060E170E08EE059
:1031C00090E00E9441132889CE010296253018F024
:1031D0006BE073E002C06AEE72E00E942F1688E096
:1031E0008B87DF91CF910F910895CF92DF92EF926D
:1031F0000F93CF93DF93EC016B0100E021E044EBF0
:1032000053E068E070E08EE090E00E9441138E850C
:10321000813069F40F85002351F0015025E0E22E42
:103220002DE042E2B601CE010E94F01018C085E008
:10323000E82E00E02DE042E2B601CE010E94F0103F
:10324000E889F0E0EE0FFF1FE151FE4F4081518110
:1032500021E06FE070E083E290E00E944113DF9193
:10326000CF910F91EF90DF90CF900895FC0181E016
:1032700086878787108A128A138A148A118A158A88
:103280000895FF920F931F93CF93DF93EC018B016F
:1032900082E08E878F87888B8FEF8B8BFE017F96E6
:1032A000CE018396DF011B971C9214961C921192FB
:1032B000E817F907B9F71C8E1D8E1E8E1BA240E081
:1032C000B801CE010E94E42CD80112968C9112977D
:1032D0008730F9F0883009F440C0863009F044C0E6
:1032E0005096FC9066E070E080E090E00E940B1643
:1032F0006F0D6E5F698BD8015096EC91EF3028F41A
:10330000F0E0E450F14EE49101C0E5E0EE0FEE5F35
:1033100022C0D8015096EC91EF3028F4F0E0E45050
:10332000F14EE49101C0E5E08E2F880F880FE80F81
:10333000E65FE98BD8015096EC91EF3058F4F0E05D
:10334000E450F14EE491E53028F4F0E0E252F54F1C
:10335000E49101C0E0E0EA8B07C0F8018089880FA2
:103360008E5F898B85E08A8B82E08E878F87DF91E5
:10337000CF911F910F91FF900895FC019085878157
:10338000890F9185890F9285890F0895FC01DB01D2
:1033900082818F5F8283833081F030F4813059F0F5
:1033A000823069F481E009C0843039F0853039F425
:1033B00086E083830DC0138229C0838327C08630B3
:1033C00029F481818D3089F48DE008958530F1F400
:1033D00081818630D9F028F48130C1F0833029F41E
:1033E00015C0893099F08D3089F011968C91119724
:1033F000815011968C931197128211968C9187FDB2
:1034000005C081818F5F8183138214828AE00895D1
:10341000DC0114968C911497E82FF0E0E355F64FF9
:10342000E49115969C911597690FE61718F015967B
:103430006C9308956F5F6E1B15966C9315978F5F55
:1034400014968C930895CF92DF92EF92FF921F9380
:10345000CF93DF93EC01FB01118510958085182334
:103460008E858230C9F17B01833030F4882309F4E2
:103470004BC0813041F0F3C0833009F469C084301F
:1034800009F47AC0ECC0E889E13100F5F0E0EE54CF
:10349000F64F649170E0F701868197810E94B23502
:1034A000892B09F0DCC066E070E080E090E00E94CB
:1034B0000B16DC01CB010196A11DB11D898B8889FA
:1034C0008F5F888BF70117821682C9C0188AFB01AB
:1034D0001782168282E04EC0912F987013FF02C0AF
:1034E00086E4888B8889863408F4A5C0992309F47A
:1034F000B6C0188A1E869989808D891710F083E0DE
:1035000001C084E08F87ABC088898C30D8F466E036
:1035100070E080E090E00E940B16DC01CB01019688
:10352000A11DB11D8B8B2FEF280F09F426E02A8BEC
:1035300061E0680F673010F46C8B02C081E08C8B07
:10354000888979C081E08D8B8F858E87188A87C0A6
:1035500015FF05C08D89882311F081508D8B16FFD2
:1035600005C08D89823010F48F5F8D8B13FF77C07B
:10357000188A84E08E8773C06B01F4E1CF0ED11CF2
:103580008889811150C08D89FE01E80FF11D828963
:10359000833059F128F4813041F0823091F043C0FA
:1035A000843089F18530A1F13EC0FB01868990E02D
:1035B00002968B30910514F08AE090E0F701868B3B
:1035C00032C0FB01278930E02E5F3F4F25313105A6
:1035D00014F024E130E0F701278B87E190E0821BB3
:1035E000930B880F809300011EC0FB018589082E74
:1035F000000C990B01968B30910514F08AE090E055
:10360000F701858B10C062E0C6010E94081A0BC04A
:10361000FB01848990E001968630910514F085E0E5
:1036200090E0F701848B13FF03C086E4888B18E0D9
:103630008889863418F48F5F888B11C013FF0FC000
:103640008D89C80FD11D8A89863030F4B601C70133
:103650000F960E94C61901C088E0F70187A3DF9189
:10366000CF911F91FF90EF90DF90CF9008952F9210
:103670003F924F925F926F927F928F929F92AF9202
:10368000BF92CF92DF92EF92FF920F931F93CF934F
:10369000DF9300D000D000D0CDB7DEB79E838D83FE
:1036A0006B01FB01868197818F709927099710F430
:1036B000512C01C0542EA12CB12CFF24F39488E787
:1036C000482E8D809E80F2E08F0E911C332433941F
:1036D000360183E0680E711C22FB222420F823FBB4
:1036E000EE27E0F9E983F22FF071FA83822F8170DF
:1036F0008B8321FB112710F98FEF8F0D8330A9F0F9
:1037000028F4813051F0823061F004C0843089F0B7
:10371000853099F0F601308D2AC0F601318D8B810C
:10372000A4C0F6013789812FA0C0F6013489822D0B
:103730009CC0F6013689898198C0F6013589FA81E5
:10374000FF2349F1552099F0ED81FE8111863A3031
:1037500010F02AE001C025E0EE24E39407E0A50183
:1037600067E770E0C3013C830E9475183C81ED81DE
:10377000FE8146824782A086632FC4010E94B11653
:10378000ED81FE813186F6E0FF16A9F0F394E9E0C1
:10379000AE0EB11CB1CF88E7ED81FE8186838783B1
:1037A0008DE28087632FCF0102960E94B11681E0DF
:1037B000ED81FE8181875601EBE1AE0EB11C0BE37A
:1037C00012E0F12C4501F5018081882371F0F801A8
:1037D00040815181FBE0FF9EC001112468E370E04D
:1037E00085599F4F0E942515F3942FEFA21AB20A14
:1037F000F4018081823070F0F80140815181FBE05A
:10380000FF9EC001112468E370E085599F4F0E941C
:103810002515F3940E5F1F4F22E00334120791F633
:1038200083E0C80ED11C6AE670E0C6010E94491808
:1038300065E770E0C60126960FB6F894DEBF0FBEAE
:10384000CDBFDF91CF911F910F91FF90EF90DF904F
:10385000CF90BF90AF909F908F907F906F905F9030
:103860004F903F902F900C94491881116BCFED81B0
:10387000FE8146824782A086632FC4010E94B11652
:10388000ED81FE81318682CF0F93CF93DF93442366
:1038900051F000E021E04FE959E060E070E080E0A5
:1038A00090E00E944113C0E0D0E000E021E04BE84E
:1038B00059E0BE0189E590E00E9441132A96C63482
:1038C000D10599F721E046E459E060E070E089E62F
:1038D00090E00E944113DF91CF910F9108959F9244
:1038E000AF92BF92CF92DF92EF92FF920F931F930E
:1038F000CF93DF93902E1E2DC22ED12CC42FD0E05B
:103900005B0183E0A80EB11CE12C012F292DA6013B
:10391000BE01C5010E9475180AEF090DB6016E5F60
:103920007F4F7E0183E0E80EF11C603471052CF4BA
:1039300021E0402FC7010E94B817B601610F711D29
:10394000635071096034710528F421E0402FC701EC
:103950000E94B817165083E0C80ED11CBE016E5FDE
:103960007F4F01E0212FA601C5010E941918C90D42
:10397000D11DBE0163507109212FA601C5010E940E
:103980001918DF91CF911F910F91FF90EF90DF9069
:10399000CF90BF90AF909F900895EF92FF920F93BA
:1039A0001F93CF93DF93EC017B01142F00E021E004
:1039B0004BEA58E060E070E080E090E00E94411344
:1039C00001E021E04BEA58E060E070E080E490E044
:1039D0000E944113EC85F0E0EE0FFF1FED5CFD4F00
:1039E0004081518100E021E064E170E085E090E0F9
:1039F0000E944113ED85F0E0EE0FFF1FED5CFD4FDF
:103A00004081518101E021E064E170E08BE690E0CB
:103A10000E944113F7018681978163E070E00E9464
:103A2000B235892B69F48C8590E0019683709927D3
:103A30008C872D8530E02F5F3F4F237033272D87F4
:103A40001123C1F021E04EE561E370E081E190E0F7
:103A50000E94B81721E04EE563E370E081E190E059
:103A60000E94B81701E025E34EE661E1C701039625
:103A70000E949F18DF91CF911F910F91FF90EF90BF
:103A80000895CF92DF92EF92FF920F931F93CF93FF
:103A9000DF93D22FE02FF0E0EE0FFF1FE75EFD4F28
:103AA000C080D180C0E010E1120FE42E440FFF0867
:103AB0008C2F8170C0FD80E1C23010F46D2F01C0E9
:103AC000612F70E00C2F21E0A601F701E80FF11D36
:103AD000CF010E944113CF5FC43051F7DF91CF91E6
:103AE0001F910F91FF90EF90DF90CF9008956F920C
:103AF0007F928F929F92AF92BF92CF92DF92EF927E
:103B00000F931F93CF93DF933C014B01D42F122FC0
:103B1000C02FC22ED12CA42EB12CE12C00E220E229
:103B2000A601B501C40103960E94751800E0212F7B
:103B30004D2FB401C3010E94411DEC2FF0E0EE0FA8
:103B4000FF1FE759FD4F40815181B6016E5F7F4FE6
:103B500021E0C50102960E944113DF91CF911F9190
:103B60000F91EF90DF90CF90BF90AF909F908F908C
:103B70007F906F9008958F929F92BF92CF92DF9225
:103B8000EF92FF920F931F93CF93DF93EC016B01A2
:103B9000FB01868197818F709927BB24B39489306C
:103BA00008F4B12C34EFE32EFF24FA9400E021E076
:103BB0004EEA5AE060E370E0C7010E944113F4E16D
:103BC000EF0EF11C28E5E216F10481F741E0B601A1
:103BD000CE010E94441C0BEF20E049EA5AE068E362
:103BE00070E080E090E00E94E31120E044EA5AE0B7
:103BF00068E370E085E590E00E94E3111E851330D4
:103C000018F41130A8F09BC0133009F4DFC0143051
:103C100009F025C18D89FE01E80FF11D028928E018
:103C20004CE1B601CE010E94771D1E831F8306C1A1
:103C30008F85F60133964F01833001F5E12C00E2C8
:103C400020E24FE050E062E070E0CF010E94751882
:103C500020E24FE050E066E370E0C4010E94751876
:103C600008892FE042E0B601CE010E94411D08897B
:103C70002FE046E3B601CE010E94411DE12C00E297
:103C80002EE148E050E06DE170E0C4010E9475183B
:103C9000088928E04CE1B601CE010E94411D8889C7
:103CA0008D30E0F510E0E12EEE0C888990E0FC010B
:103CB000E25AFD4F2081121708F0D1C02F85F12C58
:103CC0002330D9F40396880F991F00E021E045E9DD
:103CD0005AE06FE070E08E0D9F1D0E94411328890D
:103CE000C701820F911D820F911D21E045E95AE025
:103CF0006FE070E0CA960E9441132889C701820FC5
:103D0000911D820F911D00E021E045E95AE068E035
:103D100070E080960E9441131F5FC5CFEB89F0E0F1
:103D2000EE0FFF1FE759FD4F4081518100E021E078
:103D30006AE070E08EE190E00E94411390C013E0D1
:103D40001E831F8318874E01F2E08F0E911C67E8D7
:103D50007AE0C4010E942F1687E48E838F83188730
:103D6000298947E05AE062E070E088E390E00E9431
:103D700061178E85823009F072C088898634B0F46C
:103D8000BB20A1F019869989F601808D891710F45E
:103D90002BE001C02FE0EE24E39407E043E050E085
:103DA00065E470E0C60103960E9475189989F601D2
:103DB000808D891718F063E07AE002C060E07AE055
:103DC000C4010E942F1681E0898749C0E12CF12CA3
:103DD0008D89F701EB5AFD4F23E0829FE00DF11D25
:103DE00011248080E82DF0E0DF01AE5ABD4F1C9118
:103DF000DF01A15BBD4F9C90EC0FFD1F0289212FBD
:103E0000492DB601CE010E94771DBB2069F08D8936
:103E100088110AC0612F70E000E020E049EC59E011
:103E2000892D90E00E9441133FEFE31AF30A83E0EB
:103E3000E816F10469F684E08E838F8318868D89F5
:103E4000FE01E80FF11DE289F0E0EE0FFF1FEF5BCE
:103E5000FD4F60817181CE0102960E942F168D89DF
:103E6000FE01E80FF11DE289E63028F4F0E0ED53A1
:103E7000F64F249101C020E08E85843021F441E08A
:103E80008889863408F040E0B601CE01DF91CF91F9
:103E90001F910F91FF90EF90DF90CF90BF909F9078
:103EA0008F900C94371BAF92BF92CF92DF92EF921C
:103EB0000F931F93CF93DF93EC016B01DB011696F9
:103EC0008D919C91179764E170E00E94B23511E0EA
:103ED0008B3008F410E041E0B601CE010E94441C92
:103EE00000E021E04AE650E160E070E080E090E030
:103EF0000E944113F6018281873059F0883011F019
:103F0000863071F44EE55EE071E3A72E7FE0B72EB8
:103F10000BC045E35EE06FE7A62E6EE0B62E04C050
:103F200040E050E0A12CB12C00E020E060E070E027
:103F300085E590E00E94411321E0A50160E070E07A
:103F40008AE390E00E94411321E041EE5FE060E0EF
:103F500070E083E290E00E9441138E85811114C0CD
:103F6000112391F0198689898A3010F02AE001C066
:103F700025E0EE24E39407E042E050E064E170E0E5
:103F8000C60103960E94751805E10E830F8382E037
:103F900088875E01F2E0AF0EB11C6989C5010E94FD
:103FA000B11681E089870E830F838AE088876A894A
:103FB000C5010E94B1168E85843019F0888984303D
:103FC00089F500E021E04BED5DE063E170E080E029
:103FD00090E00E94411305E10E830F8387E18887FB
:103FE000D6015B966C91C5010E94B1160E830F83BA
:103FF00081E28887F601648DC5010E94B1160E83A7
:104000000F838BE28887D6015D966C91C5010E9473
:10401000B1160E830F8385E38887F601668DC5018F
:104020000E94B1168E858250823040F0888983309C
:1040300029F08B89883009F042C03FC0D6015096E4
:10404000EC91EF3028F4F0E0E450F14EE49101C03F
:10405000E5E0D60112968C91873011F080E001C026
:1040600085E0E80FF0E0DF01AF55BD4F8C91880F80
:10407000880F8A5E93E09E839F838887EE0FFF1FE1
:10408000E357FD4F60817181C5010E942F1600E04A
:10409000F601808D081768F6FE01E00FF11DBAE009
:1040A0000B9FC001112424894BE55DE064E370E0BF
:1040B00003960E9461170F5FEBCF1123C1F08E852D
:1040C000833051F4D60158968C91880F982F990F10
:1040D000990F890F8D5F03C0843049F48AE120E095
:1040E00045E55DE065E370E090E00E9461178E8534
:1040F0008350823008F511111FC08B8987FD1CC0C9
:10410000843054F08830C4F4880FB4E08B9F800D65
:104110001124855264E308C0880F682F660F660F6C
:10412000860F66E1680F83E070E003E020E04FE275
:104130005DE090E00E94E3118E85813011F020E077
:1041400001C022E041E0B601CE010E94371B8E85FE
:10415000883028F4863018F58130E1F082C088304C
:1041600009F460C08D3008F07CC080E2E82E04E6DF
:1041700021E14FE0B601CE010E946F1C84E18E83E5
:104180008F8385E18887EE85F0E0EE0FFF1FEB5906
:10419000FD4F59C08F85883009F063C043C0873018
:1041A00089F0F6018281873029F48C8D853021F4E5
:1041B0002DE003C021E001C029E041E0B601CE01BD
:1041C0000E94371BD60112968C918730D1F43AE1C8
:1041D000E32E08E527E144E1B601CE010E946F1C01
:1041E0008AE18E838F838CE1888769E17DE0C50158
:1041F0000E942F16EC8DF0E0EE0FFF1FE358FD4FED
:1042000022C022E1E22E0CE328E142E2B601CE0117
:104210000E946F1C88E28E838F838DE188876CE01B
:104220007DE013C040E254E169E170E086E290E095
:10423000DF91CF911F910F91EF90DF90CF90BF90C2
:10424000AF900C94251560817181C501DF91CF91EC
:104250001F910F91EF90DF90CF90BF90AF900C9493
:104260002F16DF91CF911F910F91EF90DF90CF909C
:10427000BF90AF900895DF92EF92FF920F931F933C
:10428000CF93DF938C01EB017B0184E1E80EF11CFD
:104290008A81873089F0883009F473C0863009F04C
:1042A00074C0E889EF3028F4F0E0E450F14E6491F6
:1042B00001C065E06F5F66C0E889EF3028F4F0E088
:1042C000E450F14E649101C065E06E5FC7010E9449
:1042D000081AE889EF3030F4F0E0E450F14EE49150
:1042E000E23010F083E001C082E02E8990E0820F7E
:1042F000911D8B30910514F08AE090E08E8B8A8DB1
:104300008F5F8A8F66E070E080E090E00E940B167D
:10431000DC01CB010196A11DB11DD82EF801848FBF
:10432000C7010E94BD19823018F0F4E0FD15C0F5F8
:10433000F801248D253089F058F4213030F130E037
:1043400021503109C20FD31F8B8D8F5F8B8F1DC002
:104350002630B9F0273059F018C08C8990E00196CA
:104360008630910514F085E090E08C8B0EC08E892C
:1043700090E002968B30910514F08AE090E08E8BED
:1043800004C062E0C7010E94081A86E0F80186872F
:10439000DF91CF911F910F91FF90EF90DF900895E3
:1043A00087E0F801848FC4CFCF92DF92EF92FF9223
:1043B0000F931F93CF93DF93EC01DB017B0144E16B
:1043C000E40EF11C9B01215F3F4F19969C911997B8
:1043D000909518968C919823EE854E2F50E04D3095
:1043E000510508F051C28B01FA01EC59FF4F0C94B2
:1043F000C63593FF02C085E48D8F8D8D863408F01D
:1044000043C28F5F8D8F863409F03EC21D8E8F852B
:104410008E87F80150C082E0888B93FD04C0ED8D3B
:10442000E131F0F04BC081E18D8FF12CF801808DEE
:10443000F816A8F76E01CF0CD11CF601878D8111FB
:104440000DC066E070E080E090E00E940B16DC0199
:10445000CB010196A11DB11DF601848BF394E6CF2B
:10446000F0E0E550F34F649170E0F80186819781A8
:104470000E94B235892B09F007C2F12CF801808D1A
:10448000F816B0F46E01CF0CD11CF601878D8111A6
:104490000DC066E070E080E090E00E940B16DC0149
:1044A000CB010196A11DB11DF601848BF394E6CFDB
:1044B0008D8D8F5F8D8F17821682E6C18C89863035
:1044C00059F08D89863051F08E89863049F08F8978
:1044D000863041F088E007C084E005C085E003C075
:1044E00086E001C087E08B8B80E021E0F801908DB1
:1044F000891730F4FE01E80FF11D278F8F5FF6CF8B
:1045000083E068C095FF20C08B89883024F02F8914
:10451000263019F413C0873021F42E89263019F47F
:104520000FC0863021F42D89263019F40BC0853058
:1045300051F42C89263039F484E005C087E003C0AB
:1045400086E001C085E08B8B96FF25C02B89243047
:1045500024F48C89863019F416C0243021F48D8916
:10456000863019F412C0253021F48E89863019F472
:104570000EC0263029F48F89863059F427E00AC00E
:10458000273041F406C024E005C025E003C026E042
:1045900001C028E02B8B93FF77C1EB89E4300CF44A
:1045A00073C1E8305CF0E83009F06EC1F801408D6D
:1045B0009E012C5E3F4FF90180E018C01D8E0E2E2B
:1045C000000CFF0B3497EC0FFD1F178E808D8F5F53
:1045D000808F82E08E8758C19191913039F0890F98
:1045E0009381592F550F950F990F890F9E2F921B6D
:1045F000941790F39BA1911195E0D92ED80E29899B
:1046000030E02D1931092F31310514F02EE130E061
:1046100037FF02C020E030E0298B40E0B801CE0136
:104620000E94E42C898981110CC0B801CE01DF9170
:10463000CF911F910F91FF90EF90DF90CF900C944E
:104640003B211D8E83E0888B88E08B8BDD20B9F0C9
:104650001E86C7010E94BD1981110FC08E8D811168
:1046600009C085E008C040E0B801CE010E94E42CFA
:1046700081E08E8782E08F8707C184E0FCCFC7018D
:104680000E94BD19811105C08E8D8111A2CF85E0D8
:10469000A1CF84E09FCF84E0888B97FD02C095FF77
:1046A00020C08B8984302CF0F801268D211113C095
:1046B00002C01816ACF4F801238D21110EC082300F
:1046C0007CF0248D21110BC0823051F0258D2223E6
:1046D00039F082E005C083E003C080E001C081E0E2
:1046E0008B8B892F807539F18B8983308CF4F8019D
:1046F000268D211118C087FF04C0838D882319F0EF
:1047000014C018162CF0F801848D882319F00FC0FE
:10471000813031F4F801858D882359F082E00AC098
:1047200088303CF007C083E005C080E003C081E032
:1047300001C088E08B8B93FFA7C08B89813039F152
:104740001CF4882331F0A0CF823049F1833081F10D
:104750009BCFF801838D8150838F898990E00A97E0
:104760008F31910514F08EE190E097FF02C080E058
:1047700090E0898B40E0B801CE010E94E42C898949
:10478000882309F452CF84E0888B8AE023CF8E8F70
:1047900089E08E87F801848D8150848F75C081E017
:1047A0008BA38BE08E87F801858D8150858F6CC03F
:1047B0008CE08E87F801868D8150868F878990E006
:1047C00008968531910514F084E190E0F801878B1B
:1047D00027E130E0A901481B590BCA01880F8093DB
:1047E000000152C0FB01878990E02A8930E04489AA
:1047F000241B31092333310514F022E330E037FF65
:1048000002C020E030E0821B930B97FF02C080E0E3
:1048100090E0F801878B27E130E0281B390B220F4D
:1048200020930001892B09F01ECF81E08E8788E05C
:1048300022CF93FF09C081E0FB01838BB701C9013F
:104840000E94C619F80187A38D8D8634E8F48F5F26
:104850008D8F8634C9F48E85888B87E0BBCE93FF1D
:1048600013C081E0FB01838BB701C9010E94C61907
:1048700003C093FF09C08EE0F80187A305C093FD34
:10488000A8CE02C093FD03CFDF91CF911F910F916E
:10489000FF90EF90DF90CF900895FC011686178669
:1048A000108A118A0895FC0116861786108A0895C9
:1048B000FC0116860895CF92DF92EF92FF920F933C
:1048C000CF93DF93EC017B01FB01C680D78041E0F1
:1048D0000E94441C00E021E04EE855E160E070E0F9
:1048E00080E090E00E9441138E85813079F118F0CC
:1048F000823021F12FC08F85813118F500E021E051
:1049000040EA54E060E170E08EE090E00E944113E4
:104910000AEF288948E255E061E070E080E390E02A
:104920000E94E31183E08E838F8382E0888762E8B0
:1049300075E1CE0102960E942F160CC08989811163
:1049400005C0B701CE010E94C51804C0B701CE0151
:104950000E94F5188889863049F0853049F0843006
:1049600049F48989882331F02AE005C029E003C091
:104970002CE001C028E08E85823021F441E08F8553
:10498000863408F040E0B701CE010E94371B8E85C7
:10499000823029F58989882311F18F858634F8F4CE
:1049A000FFE0CF22DD2489E0C816D104C0F088E002
:1049B0008E838F831886E889E150F0E0EE0FFF1FA9
:1049C000E150FE4F60817181CE010296DF91CF915F
:1049D0000F91FF90EF90DF90CF900C942F16DF9106
:1049E000CF910F91FF90EF90DF90CF900895CF92ED
:1049F000DF92FF920F931F93CF93DF93EC018B0114
:104A00006B0184E1C80ED11CFB01F184F094808518
:104A1000F8229E85913009F459C020F0923009F4B3
:104A2000B8C0C9C0EF85E13120F5F0E0EF58FA4E8B
:104A3000649170E0F801868197810E94B235892BDC
:104A400009F0B9C066E070E080E090E00E940B16CB
:104A5000DC01CB010196A11DB11D888BF3FE02C0C4
:104A600081E145C08F858F5F8F87F801178216829D
:104A7000A2C08889853098F0F3FE9DC087E08F87BB
:104A800081E08E8766E070E080E090E00E940B1687
:104A9000DC01CB010196A11DB11D888B8CC0FB01EF
:104AA0008389811102C081E001C082E0F80126897A
:104AB00090E0820F911D8B30910514F08AE090E018
:104AC000F801868B1F8682E08E8775C08F858823CC
:104AD00081F066E070E080E090E00E940B16DC015F
:104AE000CB010196A11DB11D888B8F8581508F87C9
:104AF00062C0998BC6010E94BD19823020F088895E
:104B0000853008F455C0E889E53081F050F4E13093
:104B100048F1F0E03197E00FF11F838D8F5F838FB5
:104B200021C0E63079F0E73091F01CC0F8018489AB
:104B300090E001968630910514F085E090E0F80150
:104B4000848B10C062E0C6010E94081A0BC0F801F5
:104B5000868990E002968B30910514F08AE090E00F
:104B6000F801868B1F8682E08E87F8018389811188
:104B700002C081E001C082E0F801268990E0820F46
:104B8000911D8B30910514F08AE090E0F801868B3E
:104B900012C09F85963410F49F5F9F87F3FE0BC071
:104BA000B601C8010F960E94C619F80187A303C079
:104BB00087E0888BA8CFDF91CF911F910F91FF9055
:104BC000DF90CF9008950F931F93CF93DF938C01C5
:104BD000EB016C5E7F4FAE01415F5F4F9985909511
:104BE00028859223D8011E962C91223009F459C0B1
:104BF00028F4222341F1213041F0E3C0233009F4AD
:104C0000CCC0243009F4D9C0DCC0892F887093FF50
:104C100003C096E4F8019787D8011F969C911F97CF
:104C2000963420F49F5F1F969C93CBC0882309F491
:104C3000C8C0F8019089888D891708F0BAC0D801DA
:104C4000178682E02BC0D8011F96EC91E131F8F471
:104C5000F0E0E15FFB4E649170E08E819F810E94E5
:104C6000B235892B09F0ADC066E070E080E090E0DD
:104C70000E940B16DC01CB010196A11DB11DF801AC
:104C8000808B87858F5F87871F821E829AC0D8019D
:104C90001F961C921F971F821E8281E01E968C9386
:104CA00090C0F80187858C3088F466E070E080E081
:104CB00090E00E940B16DC01CB010196A11DB11DF5
:104CC000F801808B87858F5F87877BC080898330E1
:104CD000C9F028F4813049F0823059F04FC0853056
:104CE00061F1C8F0863079F149C08D8981508D8B92
:104CF00045C08E8990E0019797FF02C080E090E068
:104D00008E8B3CC08C8990E0019797FF02C080E0B9
:104D100090E08C8B33C08F8990E0019797FF02C0A1
:104D200080E090E08F8B27E130E0F901E81BF90B80
:104D3000CF01880F8093000121C0898D8230F0F06F
:104D40008150898F1BC08F8990E0029797FF02C026
:104D500080E090E08F8B27E130E0281B390B220F99
:104D600020930001892B51F088898A3030F4E82F94
:104D7000F0E0EB5FFB4EE4918E0F888B8F898823E8
:104D800041F01F821E82D8011F961C921F9783E05C
:104D900085CF84E0F801868714C0D8011F962C9136
:104DA0001F97263420F42F5F1F962C930AC093FF81
:104DB00008C0CA010E94C61903C093FF02C08EE05A
:104DC0008FA3DF91CF911F910F9108958F929F92A2
:104DD000AF92BF92CF92DF92EF92FF920F931F9309
:104DE000CF93DF93EC016B01FB01A680B78041E01C
:104DF0000E94441C00E021E04FE555E168E270E0CC
:104E000080E090E00E94411321E04BE455E168E22C
:104E100070E08FE490E00E94411369E0E62EF12CEF
:104E200000E021E042E355E168E270E0C7010E9442
:104E30004113FEE0EF0EF11C8FE4E816F10481F758
:104E40008E85823009F48FC0A0F1833009F4C1C08F
:104E5000843009F0E4C08E838F831886E889F0E0FF
:104E6000EE0FFF1FE755FD4F60817181CE01029665
:104E70000E942F1600E028E04CE1B601CE010E940E
:104E8000411DE889F0E0EE0FFF1FEB54FD4F40811C
:104E9000518121E06AE070E08EE190E00E944113D0
:104EA00040E254E163E270E086E290E00E94251562
:104EB000B6C013E01E831F8318874E01E2E08E0EFA
:104EC000911C66E275E1C4010E942F1682E48E8374
:104ED0008F831887288946EA54E162E070E083E313
:104EE00090E00E9461178E85813009F098C0C5015D
:104EF0008F70992791E0893008F490E08F8586348F
:104F000010F4911119863889F601208D231798F035
:104F1000863470F4992361F0EE24E39407E02FE0E7
:104F200043E050E060E470E0C60103960E9475180B
:104F300062EA74E112C0863470F4992361F0EE24C1
:104F4000E39407E02BE043E050E060E470E0C6014A
:104F500003960E9475186FE974E1C4010E942F1630
:104F600081E089875CC00F8528E04CE1B601CE0165
:104F70000E94411D8F858D30D8F410E0312F330F02
:104F80008F8590E0FC01ED53FD4F2081121708F052
:104F900046C04096880F991F00E021E040E954E1A7
:104FA00068E070E0830F911D0E9441131F5FE6CF00
:104FB000E889F0E0EE0FFF1FEB54FD4F4081518177
:104FC00000E021E06AE070E08EE190E00E94411391
:104FD00026C000E028E04CE1B601CE010E94411D50
:104FE000E889F0E0EE0FFF1FEB54FD4F4081518147
:104FF00021E06AE070E08EE190E00E94411384E0DD
:105000008E838F831886E889F0E0EE0FFF1FE75547
:10501000FD4F60817181CE0102960E942F16E889B2
:10502000E63028F4F0E0E657FB4E249101C020E082
:105030008E85833021F441E08F85863408F040E08E
:10504000B601CE01DF91CF911F910F91FF90EF90AC
:10505000DF90CF90BF90AF909F908F900C94371BB4
:105060000F93CF93DF93EB0141E00E94CD1C00E052
:1050700021E04AE653E160E170E08DE190E00E94BA
:10508000411321E04FE253E168E370E083E190E0F7
:105090000E9441138E819F8166E470E00E94B235C8
:1050A000079720F421E04CE153E104C000E021E047
:1050B0004AE053E164E070E083E390E00E94411332
:1050C0008F8590E0FC01EA5FFC4E4491FC01EE5FAD
:1050D000FC4E849121E06FE370E090E0DF91CF918E
:1050E0000F910C94B817FC01DB0118968C9118975E
:1050F00019969C9119979095982384FF08C026854E
:10510000203118F42F5F268703C00E946717168688
:1051100095FF09C01F968C911F97882321F081501D
:105120001F968C931F9796FF09C01F968C911F970F
:10513000833020F48F5F1F968C931F9793FF52C08C
:105140001F968C911F97880F880F59961C9259971C
:10515000E82FF0E0EE50FD4EE4915496EC93549716
:10516000E1E0E80FF0E0EE50FD4EE4915796EC934D
:105170005797E2E0E80FF0E0EE50FD4EE4915696CE
:10518000EC9356978D5FE82FF0E0EE50FD4EE491E2
:105190005596EC93559781E058968C935897509676
:1051A0001C92509751961C92519753961C9253976C
:1051B00052961C9252975B961C925B975C961C923F
:1051C0005C975D961C925D975E961C925E975A96D0
:1051D0001C925A978AE097968C93979717961C92F1
:1051E0001E9216970895FC0116861786108A089558
:1051F000CF92DF92EF92FF920F93CF93DF93EC0168
:105200006B017B0183E0E80EF11C41E0CE010E94BE
:10521000441C00E020E046E75BE160E070E087E2EC
:1052200090E00E94411321E04BE55AE160E070E01C
:1052300087E290E00E944113F6018681978162E344
:1052400070E00E94B235049740F421E047E06BE043
:1052500070E08AE390E00E94B81721E043E36CE33A
:1052600070E083E290E00E94B81701E02EE347E58A
:1052700063E2C7010E949F182FE347E564E2C7017C
:105280000E949F188E85882329F0813031F444E3F1
:1052900059E105C044EA59E102C040E050E000E0B5
:1052A00021E061E070E082E090E00E9441136F85B0
:1052B000F8E06F9FB0011124695F7F4F48E55AE124
:1052C00082E090E00E9425156F8588E0689FB0011C
:1052D0001124695F7F4F48E55AE181E290E00E9426
:1052E000251588898823D1F08AE1E82E00E427E19A
:1052F0004FE1B601CE010E946F1C84E28E838F8342
:105300008CE18887E889F0E0EE0FFF1FE253FD4F44
:1053100060817181CE0102960E942F16298941E099
:10532000B601CE01DF91CF910F91FF90EF90DF900A
:10533000CF900C94371BAF92BF92CF92DF92EF9237
:10534000FF920F931F93CF93DF931F92CDB7DEB7DA
:105350008C015B016B0144E1C40ED11CFB01F184A3
:10536000F0948085F82211F0F801108AF801868502
:10537000882321F0813009F4DCC026C1F7FE06C085
:10538000F8018785882311F081508787F4FE06C0D5
:10539000F8018785863010F48F5F8787F3FE14C18C
:1053A000F8012785223009F450C028F4222351F057
:1053B000213041F1B7C0263008F472C0263009F41C
:1053C00092C0B0C0F5018689811102C081E005C09C
:1053D000F50185898A3021F483E0F801808BA2C031
:1053E000F80181898061818BF5018589082E000C87
:1053F000990B01968B30910514F08AE090E0F5014D
:10540000858B1FC0F5018689882301F38789843144
:1054100019F3F80181898260818BF501878990E019
:1054200001968531910514F084E190E0F501878BB8
:1054300027E130E0A901481B590BCA01880F80936E
:105440000001868990E0019724C0F50186898330A8
:1054500008F4BCCF8789843109F4BECFF801818973
:105460008260818BF501878990E0049685319105F2
:1054700014F084E190E0F501878B27E130E0A90189
:10548000481B590BCA01880F80930001868990E060
:10549000039797FF02C080E090E0F501868B42C041
:1054A000F501E688F7E0FE1508F090CFC6012983E4
:1054B0000E94BD192981823008F08ECFE22FF0E0E2
:1054C0003397EA0DFB1D838D8F5F838F8E2D90E0C8
:1054D000089797FF02C080E090E0F501868BF80105
:1054E000818988601EC0F5018689863008F46ECFF8
:1054F0002489253008F070CF30E02F5F3F4F2630F1
:10550000310514F025E030E0F501248B90E006979A
:1055100097FF02C080E090E0F501868BF801818959
:105520008460818BF8018189982F977109F44CC0B0
:105530002BC0F7FE06C0F8018785882311F0815043
:105540008787F4FE06C0F8018785843010F48F5FEA
:105550008787F3FE39C0F8018785F5018330B0F401
:10556000E80FF11D838D8823A1F08150838FF50111
:10557000868990E004968B30910514F08AE090E0E3
:10558000F501868BF801818988601DC0248921116D
:1055900004C082E0F801808B17C030E0215031094F
:1055A00037FF02C020E030E0F501248B868990E0CF
:1055B00003968B30910514F08AE090E0F501868B1C
:1055C000F80181898C60818B8F2D807641F081E09C
:1055D000F8019685911180E0F80186871786F2FE22
:1055E00007C0B601C5010F960E94C619F50187A331
:1055F0000F90DF91CF911F910F91FF90EF90DF906F
:10560000CF90BF90AF9008950F931F93CF93DF93E8
:105610001F92CDB7DEB78CE890E069830E942735F2
:10562000182F8DE890E00E9427356981611104C030
:105630001D3411F48235A9F06DE48CE890E00E94ED
:105640002F3562E58DE890E00E942F350EE810E0DE
:1056500060E0C8010E942F350F5F1F4F023911050E
:10566000B9F70F90DF91CF911F910F910895CF93CC
:10567000DF93FC01DB0118969C91189719968C9189
:1056800019978095892383FF0BC08685882331F085
:10569000813031F48CE097968C9302C081E086874C
:1056A000818997FF10C094FF0EC08F5F8D3311F07A
:1056B000818B0BC0EF01118A61E0CF010E94042BA6
:1056C000188A1F8602C08111118ADF91CF91089537
:1056D000DF92EF92FF920F931F93CF93DF93EC0132
:1056E0008B017B0184E1E80EF11C60E0CE010E9499
:1056F000042B1E861F86188AF80182818D3011F0D6
:1057000081E08E87F8019785292F220F322F390FDC
:105710003F87908D990F292F230F2F87408950E0C5
:105720004F5F5F4F942F990F940F920F9F87D788E9
:10573000DD0C9D0D9F87D588D90EDF868489D80E14
:10574000DF868689880FD80EDF86828D880FD80E77
:10575000DF86C7010E94BD19E82EF12CED0CF11C6B
:10576000EF86F801878590E082579F4F0E9427358A
:105770008E1548F0888BDF91CF911F910F91FF908C
:10578000EF90DF900895E88AF801878590E06E2D0C
:1057900082579F4FDF91CF911F910F91FF90EF9014
:1057A000DF900C942F351F93CF93DF93162FEC01CE
:1057B0002296643660F462E379E1CE010E942F16EE
:1057C0001A3028F460E379E1CE010E942F16612F90
:1057D000CE01DF91CF911F910C94B1161F93CF93FF
:1057E000DF93162FEC0122966A3028F46EE279E1FD
:1057F000CE010E942F16612FCE010E94B1166CE2DD
:1058000079E1CE01DF91CF911F910C942F16CF92A9
:10581000DF92EF92FF920F931F93CF93DF93EC01F0
:105820007B0141E08E85813009F440E0B701CE0173
:105830000E94CD1C8E85882309F49CC0813009F01C
:10584000BAC000E021E04BE657E161E170E083E19E
:1058500090E00E94411320E04AE157E164E070E0EB
:1058600088E190E00E94611787E08B8789E18E8351
:105870008F8310E118876E01F2E0CF0ED11C63EF29
:1058800076E1C6010E942F168FE58E838F831887DD
:10589000F7016785660FCE010E94EE2BF701608944
:1058A00070E06F5F7F4F862F880F680FCE010E94D8
:1058B000EE2BF701628D660FCE010E94EE2B85E282
:1058C0008E838F8317E21887F701608D660FCE01F4
:1058D0000E94EE2BF7016789660FCE010E94EE2B26
:1058E00086E48E838F831887F7016689660FCE0161
:1058F0000E94EE2BF7016589CE010E94EE2B86E611
:105900008E838F831887F7016489CE010E94EE2B66
:10591000C70144960E94BD19682FCE010E94EE2B4C
:1059200083E18E838F8319E318876DED76E1C601DD
:105930000E942F168AE28E838F8318876F85CE018F
:105940000E94D32B82E68E838F8318876889CE01CD
:105950000E94D32B21E04AE567E370E083E190E009
:10596000DF91CF911F910F91FF90EF90DF90CF903B
:105970000C94B81700E021E048E258E16FE070E0D5
:1059800088E190E00E944113F7018681978166E4E7
:1059900070E00E94B235079720F421E045E158E11C
:1059A00004C000E021E043E058E164E070E083E3FC
:1059B00090E00E944113DF91CF911F910F91FF90D2
:1059C000EF90DF90CF900895FC0190E0DB015896B6
:1059D0008C91981788F4DF01A90FB11D5F964C9345
:1059E0005F97411107C058961C92268D222311F013
:1059F0002150268F9F5FEACF08950895FC011282FF
:105A0000138280E4848381E085830895CF93DF93BC
:105A1000EC01FB0181858095908589239E859130DD
:105A200001F118F09230C1F13BC08681978165E0A9
:105A300070E00E94B235892B99F58889482F082E8D
:105A4000000C550B298930E0421753071CF48F5F77
:105A5000888B26C08FE7888B81E08E8787E08F87D1
:105A60001FC087FF07C09289923011F0953011F462
:105A70009150928B84FF07C09289913011F094303D
:105A800011F49F5F928B83FF0BC08289DF01A80F07
:105A9000B11D5F968C9103C083FF02C08EE087A387
:105AA000DF91CF910895FC0116861786108A118A1E
:105AB00008958F929F92AF92BF92DF92EF92FF92E2
:105AC0000F931F93CF93DF93EC017B0100E021E064
:105AD00042EA5FE16EE070E08EE190E00E944113E7
