:100000000C94EB0F0C9413100C9413100C9413100D
:100010000C9413100C9413100C9413100C941310D4
:100020000C9413100C9413100C9413100C941310C4
:100030000C9413100C9413100C9413100C941310B4
:100040000C9413100C9413100C9413100C941310A4
:100050000C9413100C9413100C9413100C942F1573
:100060000C9413100C9413100C9413100C94131084
:100070000C9413100C9413100C9413100C94131074
:100080000C94C4140C9413100C9413100C941310AF
:100090000C9413100C9413100C9413100C94131054
:1000A0000C9413100C9413100C9413100732243278
:1000B00041325E3279329432943294321C33B1320E
:1000C000CE32E53200330033B423B423C6233D24BB
:1000D0000625A425C725DD25E725ED25F025F025F6
:1000E000F025D5F08D14A1C881CFD9F1AF2000093A
:1000F0000F970593490010900020200140E0305FE9
:100100000020002000020002200000090F2F174CE1
:10011000260212000424C0BB7D0700040001400039
:1001200000090F5F5C309904F8DE7E000000090FC3
:100130005F5E30F9FABE03090F5F5C30997C75BFD2
:1001400003090F2F174C2693C9E4F5FE1E090F97DC
:100150000593C96432994CAEFBFB090FFC79000989
:100160000F5F5C3CFBDE7B090F5F5A3CFFCE7700E4
:10017000090F2F169FBD7F1F090F2EFE2C0F0FBFDB
:1001800074C1E4D7EE3B0F0FBF6CC16432F975FB4D
:100190003D0F0FBF64C16432994C7ECDFE1E0F0F20
:1001A0005F5E30994C2693C9E4EBFBFB0F0F5F5A5F
:1001B00030994C2693C96432F9DAFE3D0F8FEF5621
:1001C000B82137E486DC901B72E3E1FE7D0F8F7B64
:1001D000851B72436EC80DB92137E4C661FF5E8F7F
:1001E0000FB5D0B6CDA24D800A1D6C37F27547CB46
:1001F00081C90296B7BE058F4FDAB66D4716B0C0FB
:10020000E5765A935F924D5D2E60F4D6778F8F829C
:1002100076EF79020778B11C84277C3E708AD92555
:10022000B7BE058F0F75B56DB3188975B9D96CDE7A
:10023000F009CEBDB51DC0F2D6B70707410C1A3C78
:100240001E0C410707000C3A163A0C000707002A5B
:1002500018360C2A000707001A2432241A00030853
:100260001F051F1F151B1F11111F110E1F15111F19
:1002700005011F111D1F041F001F0010101F1F0468
:100280001B1F10101F061F1F011F1F111F1F050717
:100290001F311F1F051B17151D011F011F101F0FE9
:1002A000100F1F0C1F1B041B071C071915130C1222
:1002B0001E1F120C1E12120C121F0C1A14041F0502
:1002C0002E2A1E1F021C001D00201D001F041A01E3
:1002D0001F001E041E1E021E1E121E3E120C0C12B9
:1002E0003E1E020614120A020F121E101E0E100EDF
:1002F0001E081E1A041A2E281E1A12161F111F126B
:100300001F101D151711151F07041F17151D1F1589
:100310001D01011F1F151F17151F001700001000DA
:10032000040404040E040229060A0000BFFF9ED63E
:10033000D2C502ED76B0596C96AEC291AB57AF1AEA
:1003400029680E5EBD7AF59F01CBA52A05DBB64272
:100350009122458AAACB1313900B2017402E805C64
:1003600000B9007201E402C805F8F38FCB52CAD07D
:100370005AB5B2B028C1E238F98FD174D51A1AED46
:10038000260EFFE93A6B83B554AFC6A0871840200C
:10039000610000E1008413FFD03CADA58BADDD0E04
:1003A0005D99810E122000C03F47964B550AB66DED
:1003B00085A2EA830910FE518ECB52CA7057378B43
:1003C000CDA2E83AF10F1117F74F91204106329074
:1003D000B74081DF0A1C0870EB06C24340E0771B80
:1003E00061964E9F83F0BB0BBA2861F539F2D313A7
:1003F0004A601DF28EE5E27732192DD28CBCE7C639
:10040000EFEB2DA775115F0317E077018BCF7B63AF
:100410006DB096524B69B43756CE9C73EBADB74C6A
:10042000D7BF1EF9EF1347FF5F21E4BF56590006FF
:100430000C12630101010101010101020202020427
:100440000404080850697420202020207E2D327E6C
:1004500048502C7E2B46616C6C004D6F76696E6740
:100460007E57616C6C73202020202D317E58500007
:10047000537072696E677E426C6164652020202033
:100480002D317E4850005275737465647E41726DE3
:100490006F75722020202D317E4152005472697098
:1004A0007769726520202020207E2D317E476F6C79
:1004B00064004D696C646577202020202020207E18
:1004C0002D317E466F6F64001B9F7B15000098C026
:1004D00007C64BCD81FBF81630010080AEFB010052
:1004E000000000004278CE60D8C9396E0E7C8110C1
:1004F0000000000000383C590013008003378EDCF8
:10050000C02B47E098A7DC3800003001D6A7B972AD
:100510002C5C80734EE3C8EF011BDF178738557CD6
:10052000CD62B317EC75D9739E780A822E10CB0B6F
:100530005BC418113FC04891CC4B6F0513307C034E
:10054000C4A1206A79C3027583DFC9C8A98B299425
:1005500029D4F205F1505CFE021F70895C3902D784
:100560009C809F011B9F872CC86488B840445822F8
:10057000C212F100C20572E47B22D45804F12E8627
:1005800061848ADF643980051458A0C2021516A858
:10059000B0408532032B6FC0C10215169BC566B1F2
:1005A00031B0596C04606360232194450C8B812C1D
:1005B00042F9253EE01239721CA7FC1C1B9F0FC09C
:1005C000F0007C033E502F826E110E5C8427E30600
:1005D0005E224F61EC086C306C67C76690A8080E0D
:1005E0004592305C54CE84B0D553E46DCEC0C93B47
:1005F000B099286E004E8C4A18C85637F080CD91BD
:10060000F07DAE1C31175E70249C809F031B9FAF52
:1006100091458D0E58125C0220B1202420088202E0
:1006200008A0113146C468901BF2491426CCBD05C0
:1006300038F28050A4049475E9171CE0F0B9885B87
:10064000C42DE216712B92148003145452009A8226
:10065000AEC20DDC226E117F8A0FB8448E9E10B898
:100660008C5F031BDF6F43600904661E87C012089E
:10067000CC3C0E81251098F9093CA43CEEA570589D
:1006800007C29527DC289F61B180052A2C08C80283
:10069000221840020B82B06081012440012848806A
:1006A000C502032C60B1F8093EE012B972EA715C30
:1006B0008227BF0B1197CF801B78E4390FB8019FB9
:1006C000C981087BBECD91A30017FE4211D767CE2A
:1006D0009C7DCE63E4C8438EC03527E0CC31772FB4
:1006E00080FC910011D7776FC20D7CCDEB7C533924
:1006F000303879E798075C227F2411D777E492633A
:10070000E42DAFF345CC695C903BC73CE012F92384
:100710000111D7778EE00D78CEEB7CB427C88D3BE6
:10072000C73CE012F9230111D70FB87A045EF33AFF
:100730009F849C841B70E798075C227F2411D70F4D
:10074000380247E035AFF34DE5623879E798075C4A
:10075000227F244F70656E7E63686573743A0A5910
:100760006F757E666F756E647E676F6C647E6F6E8C
:100770006C7921004F70656E7E63686573743A0A08
:10078000476F6C647E616E647E74726561737572AE
:100790006521004761696E7E327E476F6C647E50D2
:1007A00069656365732100557067726164657E7960
:1007B0006F75727E576561706F6E210020204761F2
:1007C000696E7E616E7E41726D6F75722100476148
:1007D000696E7E617E4865616C696E677E57616E89
:1007E0006421004761696E7E617E506F69736F6E30
:1007F0007E57616E642100204761696E7E616E7E66
:100800004963657E57616E642100204761696E7E91
:10081000617E466972657E57616E6421000105053F
:1008200006000503060004020500030103098F9773
:100830002C20845C7F30098F97AC64E47A01208897
:10084000FC2E098F0E473EFFDCAB57AF00132A4A40
:10085000600F170E0B9987D94DDB8D39A8277E01C4
:1008600027F510D96DD31D1907389D0E700093CD53
:10087000E46731590CA0E070381CD7876301188EEB
:100880004EC41E8185081C9D40FB2B861CC8383A2F
:100890009178ECE65839241C7A34C8EA6DFC94212E
:1008A0007BDC0CB27A6B383B11C6AF18B2C7CD8077
:1008B0000B388ED30045DF7FB0EBDA1D8E7D71DE05
:1008C000A7F33EBDECB65E5F5CFF68F6D65B57D221
:1008D00004D35B4F33E7398E5ECD8E578F635E3B1B
:1008E0004FB93A1B336BC770B477BC7A752E0ED3F1
:1008F000AB57B933566FBD35C134A31D303F34BA41
:10090000E8173267E62D5767633ABDE6B4733B8C50
:10091000A3575312AF5E33CF5D47AF7497ABC73168
:100920009E7D2ACB8C7568F80E67169BC5E6CC6752
:1009300039B3D82C368B339B574C209919BC637133
:1009400066B3D82CCE7C96339BC56671E61B8400BB
:100950000202020203030303030301010101010177
:10096000010102020202040404080834100000F825
:1009700004C4A464A4E4C404040464846404844437
:100980008404C404C40404E424C404A40484448487
:10099000048444E4040404C4E4A464A4C404F80087
:1009A0000000000F1010131113111010101010136D
:1009B0001010111211101112111010131211101326
:1009C0001011131210111213101010101113111313
:1009D00010100F0000001008040201011F20200168
:1009E000014000100004002108084E6F0059657393
:1009F00000090900FEFEFEFEFEFEFE0000000000F3
:100A00000000000000FEFFFFFFEFFFFFFFFE000100
:100A100001010101010100FEFFFBFFFFFFBFFFFE1F
:100A2000000101010101010100FEFFBFFFEFFFFB1B
:100A3000FFFE000101010101010100FEFFBBFFFFFC
:100A4000FFBBFFFE000101010101010100FEFFBB30
:100A5000FFEFFFBBFFFE000101010101010100FEEC
:100A6000FFABFFFFFFABFFFE000101010101010130
:100A70000045766164657E747261703F008DD73D7C
:100A8000F13EF3F0AD7BB3673E7630714E0781B235
:100A9000F2398E812E0489D73DF1B1C3E5DCECB982
:100AA0001E5F1D04CAF2CE91303609973BF3F03138
:100AB000E6F732777A231C799E45210C010101016A
:100AC000010101010202020204040408084F7065DA
:100AD0006E7E63686573743A00D7BF1EF9EF1347E3
:100AE000FFCF169CBD7AF5CFC199AB675EF3E7F0F7
:100AF000EAD5337FE6A56B0900108811021638127B
:100B00004E8413618E70A1040C658E70229C403956
:100B100095430C00000027F582DC908C498910CAAF
:100B2000858C2237E4863C002A048C810000B8962C
:100B3000AE1F1E40200610488C400C201015046289
:100B400000811880BDF7DE07D6426EC80DB971D896
:100B500027208006B8EC2B72436EC80DB92137E40C
:100B6000865CF7058802014EFBC00DB92137642D64
:100B70000E7BEFBD01620081A820100308C400C6EF
:100B80000410880104728E17402E085C2817EA8131
:100B900072C176246314E8025C3414192CE486DCF8
:100BA00038EC131040035CF615B92137E486DC906D
:100BB0001B7243AEFB02448100A77DE086DC90C53A
:100BC000404ACA1258053A46325AB9500E960B207E
:100BD00017CA05818B593BDF4F982008140C00057C
:100BE00001000A06808201A060002818000A068021
:100BF0008201A060002818008286800841112188A7
:100C00008204519000123000140C00050340C10012
:100C1000503000140C00050340C100501000A060CB
:100C200000282008934FEE0D0004000010105820FB
:100C30006B0A37E126DC849B70136EC24DB809370E
:100C4000E126DC849B70136EC24DB80937612C32EB
:100C500081000000000000B0F7EFD81B000000008A
:100C600000386C3973E6CC993367CE9C3973E6CC87
:100C7000993367CE9C3973DC07000000000060EFF9
:100C8000AF122E0CDAC500A40A882860400B02A21D
:100C9000000615404840B0E01882E004CC8EDDD458
:100CA0006DB352671D290882204409C4A020088220
:100CB000203846CD8E21424C80500406AB65702111
:100CC0005C013B97FFC0EFF3304FB4A86C54362A59
:100CD00027E7201B480002C439C809958DCA46651C
:100CE000A3B251D9A86C544E614C0304200176186C
:100CF00053D9A86C54362A2DA779987716B20608CE
:100D00007480C014045800022C0001168070018108
:100D10000E100608081710E800011680000B0AB034
:100D200000045800022C28C00210600108A3807043
:100D300001016180300A081B40800520C00210605C
:100D400001084E40180584B19005090900FEFEFE19
:100D5000FEFEFEFE00000000000000000000FEFF9E
:100D6000FFFFEFFFFFFFFE00010101010101010094
:100D7000FEFFFBFFFFFFBFFFFE00010101010101BC
:100D80000100FEFFBFFFEFFFFBFFFE0001010101BD
:100D900001010100FEFFBBFFFFFFBBFFFE000101E1
:100DA000010101010100FEFFBBFFEFFFBBFFFE00E1
:100DB0000101010101010100FEFFABFFFFFFABFFDD
:100DC000FE000101010101010100207E596F752023
:100DD000616C72656164790A206861766520656E70
:100DE0006F75676821007E596F7520646F6E74207F
:100DF000686176650A206F6E6520746F2073656C7C
:100E00006C2100202020596F75206E6565640A20D2
:100E1000206D6F726520676F6C6421000D0F972540
:100E2000132A54264626512645E6BACF0903183020
:100E300061C0840113064C98070D0F93A62C0C1863
:100E400001144440044031C1849DED5407D4000096
:100E5000430506B050056A203054260D8F4B9D3453
:100E6000128C05E102428D0453A6BA46D942800095
:100E7000610D902240164980809B0E0D8F0F092531
:100E80009409260B2C8B20E12B710DC3258E15B9EF
:100E9000983572000DCF6FA1B00181DD130CF8A65B
:100EA000270607F442042880E10D0D8F8F0499A0D6
:100EB000818282509830493E3A064304415246C2EC
:100EC000913B0DCF274919AA40A30205D414501D08
:100ED00034F866D41128A8000540000AA04221C3B6
:100EE0008E030DCFA76494F01AC0AB5200441F05C7
:100EF000201428A100D83084C1CCAD47003A7E53DD
:100F0000756E6B656E7E4B6565707E6F667E4F6736
:100F100021003A7E466C616D696E677E556E646530
:100F200072776F726C64003A7E556E646561647EA0
:100F300043617461636F6D6273003A7E506F6973D1
:100F40006F6E6F75737E44756E67656F6E73003A72
:100F50007E5468657E426C61636B7E536577657213
:100F600073000A003000300030001FE737168F9002
:100F700005205E9D4280D3388D576C54368BCD62F0
:100F8000A3B291B0597C4F00590AC814DE02021B6B
:100F9000782D4075C8C316156448FB6900748AB87B
:100FA00001780B086CE0B500D5210F5B549021ED62
:100FB00077A9403410A2F53120B081D70254873C84
:100FC0006C514186B41FAF4C2687BC050436F0181F
:100FD000290B017CD7B240C6EC3B1FFF37166F864A
:100FE0000A00A05CB2585E5360F5119B209BC56659
:100FF000B151D948D82C3E40721943F716F0212040
:10100000B0812F20C1519EB5A82043DA8F4B4554A3
:1010100050968F01810D7C01514779D6A2820C69CF
:101020003F9879594D9642DE01021B788C141501C8
:101030007CD7A2820C69BF2D802C05640A6F0181C8
:101040000D3C16405404F05D8B0A32A4FD34003A86
:1010500045DC00BC050436F058005111C0772D2A3C
:10106000C890F6BB54201A08D1FA1810D8C06301F2
:10107000444500DFB5A82043DA8F57269343DE02AC
:10108000021B785C9085C4772D0B64CCBE030108ED
:101090007E3F3F3F97E160B1584C16938900069020
:1010A00000124AA8D3E9BF3213F3BDACB611040154
:1010B000527098B000800238A06BACFC3361B1581C
:1010C0002C9A2FC635130800010000200024C0C44C
:1010D000D9001400100058309C2B2B23CBC99FD46F
:1010E000818466F1FBD86C764042D0101A102841FA
:1010F00002144000100004000140001000108002A3
:1011000018008329445D197FB87D66B3D96C369B7E
:10111000C962B2582CD67EEC000A8010A66C4A2810
:10112000412008088004519120000220000200F3B1
:101130009EF197DA3F7BD706102820903ABC8E9D0F
:10114000974001400010000400014000100004001E
:1011500001C039D91F630125888A08000411D11202
:101160000A2C3EB27FF7868083C567E7E6215000F0
:10117000400010000400014000100004000160EF76
:101180008E0F030002E064B23F9B1F9F1F978FB03A
:10119000596C169BC566B1B9E6C06432335A700209
:1011A00010015C2E974C0AB6ED600107BFFF7FC6A9
:1011B0009CE63CF9EFE1EFEEE18FFF6FE2B04EF914
:1011C00073FE33CAE94FF5EF2AE3EFF3EFEB0B1CA5
:1011D000C218479EE734131EFF23FBE477BFF7EFE7
:1011E0002C977559977C7C5D161070511002015731
:1011F000BFCC95AB0E01DDD62058B73508D66D0DA6
:101200002EBD7AF5EAD5AB57AF5EBD7AF5EAD5AB20
:10121000578F320F73E5EAD5AB57AF8E51AF5EBD36
:101220007AF5EAD5AB57AF5EBD664DF61366064755
:10123000640CB973481DCDE850987EC02300171088
:101240000E50D83060C18205290B162C5830413918
:10125000F99DBDF7F7BCC8AA6308E7BFDBFD5B08D3
:10126000C200848210203080020B10994CA0C01262
:101270000457804ACA905C2417C94572918C0D4767
:10128000E032C22C0C98F3037BEFEF6D00E0B0DF8F
:101290003D1C05CE06991E5BCE4C00C8D5090ABC84
:1012A000BD7F1638017202AE5EBD7A056E84030200
:1012B000B20080500400440200080800401400807E
:1012C00028056A0000500000000181E1EAFBBDF73B
:1012D000F736ACBDDF3D616670453A168F80C104BC
:1012E0006E2D30F9D425510CB0800212A080042854
:1012F000B080020B28B080020B2820010A2CA0C06D
:10130000020A2CA0C0020A2CA0C0020A2CA0C00213
:101310000A2CA0C0020A2CA0C0020A2CA0C0020AFB
:101320000C1193BDEF5CBDCFC33C5C9D9BAB7F9E1E
:10133000FBBB96013D1A4401201C1C042102B3E6AC
:10134000A9861868C010FD3613280CC43104EACFF2
:10135000D87BBFE3382EE16004B08230060827E076
:10136000CF747FC731772F80BCED61DE98C04568B0
:101370004770D4E005387729586073C09281C2ADB8
:1013800041065842D727F6DEDF1306001006224139
:101390000140E17B03B7089020621772436EC80DCD
:1013A000B92137D8673C7AF5EAD5AB57AF1E8C0A1E
:1013B000A0AA505529AA22A02A45D5881A6559699C
:1013C0008C425491AA49353B760CAF5EB3E661E29C
:1013D000D1AB57578635D412868BE9D5AB57AFCEF4
:1013E000D4626A57EDAA5DB5AB364B260000010109
:1013F0000202020303030404040404139F0700C24F
:10140000993367DE72E6CC9900F00200F8FD00C067
:101410000B00E0F70300AF8070E6CC99779C39733E
:1014200026C011010202030404051708241708242A
:1014300017FF1313273B3B4F09C7E6AED9D1BB2398
:101440002018090737474696A72C21815A17F74FCE
:10145000912041063290B74081DF0A1C0870EB06EC
:10146000C24340E0771B61964E9F83F0BB0BBA28C6
:1014700061F539F2D3134A601DF28EE5E277321935
:101480002DD28CBCE7C6EFEB2DA775115F0317E0DB
:101490007701459F371620002560E2707AED7C7653
:1014A000F5EA06A29090A10322DA553B44060CCD42
:1014B000671DB9682F9ED06B0FE809BDE6825E8577
:1014C0005B4EDC2057E5EA05F8101740000AC4809F
:1014D000397472EAE70086A7591C51340828591656
:1014E00086B54162B8F0D241B0C79662CA4E19B013
:1014F000E4CC35AF3973E735677F1C020B0805BBB9
:10150000FB7AB3CDB4EE180324B20A37E0FB6321B3
:101510008305C0691C0347E0C8193812E60827E0B4
:10152000E65F0D814D38FAC0CBB8406EC0959FE79D
:10153000DDAB57AF5EBD7204CE5E3922BF064D6F84
:101540006E7374657220202020202020207E357E3E
:10155000444D4700466F756E647E536869656C64E0
:10156000202020202B317E4152005768657473740F
:101570006F6E652020202020207E2B327E58500068
:10158000466F756E647E4D656174202020202B317E
:101590007E466F6F64004865616C74687E506F743E
:1015A000696F6E2020202B327E485000466F756E8A
:1015B000647E4C6F6F74202020202B327E476F6C2E
:1015C00064001B1F3F8BC562020318C060B3F94B58
:1015D000EC73133184014409A627F7FA112C168BFA
:1015E000C9024A58C0A20409252C4A589420A18453
:1015F0004510085260B1D96CFED21B9FDF64647243
:10160000451C9B27AD02A584F49772CF4610162C7B
:101610005860848211162C5820C8CE9DDF014C00E2
:1016200000000046669220D481640519162449669C
:10163000060000000013F87D7CCDAFF17D1B5FEF4D
:1016400079C1CAE218080081BC01160BB875008B7D
:101650001B3F8E23A7B5194802008041008475E521
:10166000017F81FD0E0004000400E69F8BC562022D
:101670008BCDEF021B9F9F62667044C6903B87D460
:10168000D18C0E85E92FE8040240A5820242540065
:10169000105480408C131800006C013760600141C9
:1016A0001622B20865F16C954013002A062888A11D
:1016B00010D9102155B0414D6A0000500000000DB6
:1016C000000081041184F1433C2237E4D61B72EB05
:1016D0000D3CFA391B9F3F9C1B72E6D75092580E67
:1016E0001A045021D30A384B03C445E93ACC4119B6
:1016F000842377AEFCB206D04A2E34421828838069
:10170000250B76B1D00FF5D65B6FBDF5861C3D0A73
:10171000B7DE7A046EBDF50A1B9F5FE69070541623
:101720008072ECA02274D11FE56C7CE369CE001DB1
:101730000B48175D614C1827E4211FE559D7918D9F
:10174000C090C2000D4C89C003E0B2584039E66732
:1017500072CDAD47BF9E23770008021001041F1F02
:101760002700E0CC993367CE9C3973E6CC99336778
:10177000CEDC01780100FC7D01801700C0DF17007E
:101780007801C09D3367CE9C3973E6CC993367CE20
:101790009C390300274E6F0059657300090900FE4C
:1017A000FEFEFEFEFEFE0000000000000000000045
:1017B000FEFFFFFFEFFFFFFFFE000101010101013E
:1017C0000100FEFFFBFFFFFFBFFFFE000101010163
:1017D00001010100FEFFBFFFEFFFFBFFFE00010163
:1017E000010101010100FEFFBBFFFFFFBBFFFE0087
:1017F0000101010101010100FEFFBBFFEFFFBBFF83
:10180000FE000101010101010100FEFFABFFFFFF2E
:10181000ABFFFE000101010101010100456E6F7582
:1018200067687E736B696C6C3F00011F20200101AB
:10183000400010000400210808030880402003082D
:10184000204080938F003180A00610880104620040
:101850008118402011108801046200811840200680
:1018600058940BE542298372A15C2817CA857AA097
:101870005C2803030507090C0101010101010101B5
:10188000020202020404040808596F757E7573652C
:10189000647E617E6865616C696E677E7370656C7D
:1018A0006C2E0A2020207E596F757E686176657ED9
:1018B0006761696E65647E380A202020207E657825
:1018C0007472617E48507E706F696E74732E007EF4
:1018D000596F757E757365647E617E706F69736F15
:1018E0006E7E7370656C6C2E0A20207E4465616C80
:1018F0007E327E65787472617E64616D6167650AAF
:10190000202020202020207065727E7475726E2E3B
:101910000020596F757E757365647E617E6669729D
:10192000657E7370656C6C2E0A2020207E4D6F6E74
:10193000737465727E6C6F7365737E31300A20201C
:101940002020202048507E706F696E74732E002016
:10195000596F757E757365647E616E7E6963657EA1
:101960007370656C6C2E0A20207E4D6F6E737465EB
:10197000727E69737E66726F7A656E0A20202020FF
:1019800020666F727E6F6E657E7475726E2E004774
:1019900061696E203220476F6C6420506965636511
:1019A000732100557067726164657E796F75727E10
:1019B000576561706F6E210020204761696E7E61FE
:1019C0006E7E41726D6F757221004761696E7E6136
:1019D0007E4865616C696E677E57616E6421004761
:1019E00061696E7E617E506F69736F6E7E57616E46
:1019F000642100204761696E7E616E7E4963657E69
:101A000057616E642100204761696E7E617E466980
:101A100072657E57616E6421004F67730A52656D6F
:101A200061696E730053657270656E740A44656D0A
:101A30006F6E00556E646561640A4C6F726400538A
:101A40006B656C65746F6E0A4C6F726400556E64E2
:101A50006561640A4769616E74004F67730A536178
:101A60006E6374756D0A47756172640053657270B8
:101A7000656E740A4B6E6967687400556E646561C3
:101A8000640A4B6E6967687400536B656C65746FAC
:101A90006E00556E646561640A536F6C64696572AB
:101AA00000456E656D79204B696C6C656400596FFB
:101AB000757E6B696C6C65647E7468657E426F735D
:101AC000732E0A000909AAFF0101000101010001AA
:101AD000010100010101AAFF000101010001010152
:101AE000000101010001010100010408003E1C0881
:101AF000090900FEFEFEFEFEFEFE000000000000E2
:101B000000000000FEFFFFFFEFFFFFFFFE000101EE
:101B1000010101010100FEFFFBFFFFFFBFFFFE000F
:101B20000101010101010100FEFFBFFFEFFFFBFF0B
:101B3000FE000101010101010100FEFFBBFFFFFFEB
:101B4000BBFFFE000101010101010100FEFFBBFF1F
:101B5000EFFFBBFFFE000101010101010100FEFFDB
:101B6000ABFFFFFFABFFFE0001010101010101001E
:101B700011AFEFC6A2002C24C0420060D1F1103892
:101B8000F281D000022000200008000220010CBDDC
:101B900073E633B00608002A08480202C0025977EB
:101BA000E004C047F63406828242301E0E2F80C900
:101BB000003E31752A02484568141DF311100EC00D
:101BC000398F7A436EC80DBCF93D9B5F9D269040CE
:101BD0000A162C3880010C60319930270C985080FF
:101BE0000115280CC042810496E975EFAF761343C6
:101BF000081312428092EADE7B9FE6DEEB95494CA9
:101C00001C7C85E1606A606A604BC3616E521C187F
:101C100093EDD71D2C3010A1C06232274C1C30042C
:101C200007A4E060FB3D8DDF9D9775EA2D573FE3EC
:101C3000AFDD1E6EFC9EEF789AF394E711173F2EEE
:101C400071B07018A1C8FA1C8BC56401250D9BB238
:101C500088210E408E0EA084503693108A4C8AC084
:101C6000A0080C8AC0A0080C000B2F9F182ECE4C89
:101C700057C6C8CB5F71FC31FBA73CF901CF33DA03
:101C8000B6CD70F139078F8F48E629E7CFE51411FB
:101C900027BFC181D66D02B270180144249F63B181
:101CA000388204B02180C35D880384A30328219473
:101CB000CD24842213108101884C8AC00581023F03
:101CC000960514002112E0F7B3590B2F9F1AB2109A
:101CD0000826EE7C691F00046E7B3FDE1B0400E1DA
:101CE000BCF71BAD0E04400090D3DE4F05805A18A0
:101CF000C2005A52F21D163019C062F1591B2F3F13
:101D0000A75A7F5F8E2E977726C3C562B1582C7F66
:101D1000E9BE142C58D09DE966B3D99C59FCC07D0E
:101D2000000060C200C617F7CFDD07400000E66480
:101D3000C2A7F64FDE970AA82A3098F881861F9C22
:101D4000784F20050340D3400089E71CC761CF537B
:101D50009E8D394FF9DC97BEF27EE43B0FBB2EEB34
:101D6000B22E01910F2E9E74B07A6B81C5E781B7B8
:101D70002D323C76B07A7420051F0353636F726571
:101D80003A2020207E486967687E53636F72653A07
:101D900000536B696C6C7E4C6576656C0A417265AC
:101DA000617E526561636865640A426F737365732F
:101DB0007E536C61796564004F080000003C7EC36F
:101DC00091F377321080C0F82F2FFEF8E080008169
:101DD000FFFF1FFC781CFFFF0081FFFF9191B9837B
:101DE00040000000003C7EE181877E3C0001071F2F
:101DF000FFF8380F03010081FFFF9191B983408103
:101E0000FFFF117FFFEE80000059A7FFE081030173
:101E10006E1015A0206F80FF00016501504E8808EC
:101E200050BD53E0EFC211F8BA57FE3E1C915B3E25
:101E3000C7D5BF0347E09A342004B9B9F8103F135F
:101E40000910C24810091B280B807288880082DEA6
:101E500029F0674812ACB0C2C8A6002C0A6C120167
:101E60002D7807CACF0796653150083AD8405900F7
:101E7000948D2436DC80F23B388E53EE1C816B2E21
:101E8000203CE50773EB715C8227AFC0912BE6C263
:101E9000137E3D70815C7302EE1C813B97C8955F99
:101EA000039987D94DDB8D39A8277E0127F510D9F5
:101EB0006DD31D1907389D0E700093CDE46731591D
:101EC0000CA0E070381C4F1FA60419C0400A86639E
:101ED0004A082184E646C8281226A19D440001082C
:101EE000001542919051246CA000048000D04EC295
:101EF00098219C98CC6E26413A0E0C9893020520AE
:101F00000004807612C60CE14400C6A42921841086
:101F10009A1B21A3489884765216000120C84316C4
:101F20000B10408020B0D96C5E335D9C992E6032DE
:101F3000F9D52C26933F1BD3CFB0588000020481E3
:101F4000CD66F31D360B28000516C3C5F7086D08CE
:101F5000B794104208CD8DD950A4A8744C9E12326B
:101F60004268464AD010427363763351C992A2C187
:101F700055242C83D049534208053A269F60B380EC
:101F800005142830FC3E6B8570C655244C423BB985
:101F9000A50004800A9F4A099BC94442731440006B
:101FA00000004001A01C5C6E2400048020DFC155AD
:101FB000A44811C53BAE495342082134C79410428E
:101FC00008CD31258450206BF21201020408102044
:101FD00040802F332B3311241FBECFEFDAE0DEBF5A
:101FE000CDBF13E0A0E0B1E0EAEAFCE602C0059054
:101FF0000D92AC30B107D9F728E0ACE0B3E001C0F6
:102000001D92A830B207E1F71FE0CAEEDFE004C07E
:102010002197FE010E941035C93ED107C9F70E94E1
:1020200044300C9448360C94000008950C94AB3561
:102030000C94AB350C94AB350C94AB350C94AB35A0
:102040000C94AB350C94AB350C94AB350C94AB3590
:102050000C94AB350C94AB3508950895089508950C
:10206000089508950895089508950895FC018AE15A
:1020700091E091838083158214828EE091E09383B6
:10208000828388E0838781E08287178210861682A8
:1020900081871486858708950895FC0181E08687ED
:1020A0008787108A128A138A148A118A158A0895DA
:1020B000089580E090E00895ABEFB3E02FB7F89477
:1020C0007D918D919C9166B52FBFA89B05C06F3FF8
:1020D00018F47F5F8F4F9F4F22E0660F771F881F96
:1020E000991F2A95D1F70895089508950F93CF93D6
:1020F000DF93FC016A3039F4858184839681818580
:10210000890F86834BC084816E3719F48E5F848378
:1021100045C0262FEF0166816F5F2A3374F42033A8
:10212000F4F42B32F1F01CF42132F9F02DC02D32F1
:1021300089F12E3249F52FE319C02B3544F42134AF
:1021400064F42A3381F02F33F9F422E40FC09FE9BD
:10215000920F9A31C8F4275409C0215407C02C5F4C
:1021600005C021E403C023E401C02EE33F81062E15
:10217000000C770B082E000C990B313069F40AEF34
:102180004EE552E00E94D32A88858D5F9C81890F9D
:102190008C8304C020E4EACF0BEFF2CF81E090E023
:1021A000DF91CF910F9108950C94AB35FC01DB01C9
:1021B00082818F5F8283833081F030F4813059F0E7
:1021C000823069F481E009C0843039F0853039F417
:1021D00086E083830DC0138229C0838327C08630A5
:1021E00029F481818D3089F48DE008958530F1F4F2
:1021F00081818630D9F028F48130C1F0833029F410
:1022000015C0893099F08D3089F011968C91119715
:10221000815011968C931197128211968C9187FDA3
:1022200005C081818F5F8183138214828AE00895C3
:10223000DC0114968C911497E82FF0E0E25DFB4FDF
:10224000E49115969C911597690FE61718F015966D
:102250006C9308956F5F6E1B15966C9315978F5F47
:1022600014968C930895CF92DF92EF92FF921F9372
:10227000CF93DF93EC01FB01118510958085182326
:102280008E858230C9F17B01833030F4882309F4D4
:102290004BC0813041F0ECC0833009F469C0843018
:1022A00009F47AC0E5C0E889E13100F5F0E0ED5CC1
:1022B000FB4F649170E0F701868197810E94FC34A6
:1022C000892B09F0D5C066E070E080E090E00E94C4
:1022D000152EDC01CB010196A11DB11D898B8889CA
:1022E0008F5F888BF70117821682C2C0188AFB01A4
:1022F0001782168282E04EC0912F987013FF02C0A1
:1023000086E4888B8889863408F49EC0992309F472
:10231000AFC0188A1E869989808D891710F083E0D6
:1023200001C084E08F87A4C088898C30D8F466E02F
:1023300070E080E090E00E94152EDC01CB01019658
:10234000A11DB11D8B8B2FEF280F09F426E02A8BDE
:1023500061E0680F673010F46C8B02C081E08C8BF9
:10236000888972C081E08D8B8F858E87188A80C0A6
:1023700015FF05C08D89882311F081508D8B16FFC4
:1023800005C08D89823010F48F5F8D8B13FF70C074
:10239000188A84E08E876CC06B01F4E1CF0ED11CEB
:1023A0008889811149C08D89FE01E80FF11D82895C
:1023B000833019F128F4813041F0823091F03CC033
:1023C000843049F1853061F137C0FB01868990E0A6
:1023D00002968B30910514F08AE090E0F701868B2D
:1023E0002BC0FB01878990E002968531910514F09E
:1023F00084E190E0F701878B1FC0FB018589082EDF
:10240000000C990B01968B30910514F08AE090E056
:10241000F701858B11C062E0C6010E9418110CC043
:10242000FB01248930E02F5F3F4F2630310514F047
:1024300025E030E0F701248B13FF03C086E4888B8E
:1024400018E08889863418F48F5F888B11C013FFD9
:102450000FC08D89C80FD11D8A89863030F4B6012E
:10246000C7010F960E94D61001C088E0F70187A32C
:10247000DF91CF911F91FF90EF90DF90CF90089563
:102480002F923F924F925F926F927F928F929F9284
:10249000AF92BF92CF92DF92EF92FF920F931F9372
:1024A000CF93DF9300D000D0CDB7DEB76C017C8333
:1024B0006B83FB01868197818F709927099710F4B0
:1024C000512C01C0542EA12CB12C30E06B807C80AB
:1024D000F3E06F0E711C22FB222420F823FB44241E
:1024E00040F824FB332430F8822F8170898321FB4C
:1024F000FF24F0F84601E2E08E0E911C3330C1F06B
:1025000028F4313059F0323071F004C03430A9F081
:102510003530C1F0EB81FC81108D2EC0EB81FC8148
:10252000118D898113C0EB81FC8117898F2D0EC01D
:10253000EB81FC811489822D09C0EB81FC81168915
:10254000842D04C0EB81FC811589832D8823A1F0A3
:10255000552091F0F60111861A3010F02AE001C0E2
:1025600025E0EE24E39407E0A50167E770E0C301EE
:102570003A830E94F42F3A8188E7F60186838783A5
:10258000A086412F50E060E070E02AE0C4013A8369
:102590000E94722E81E0F60181873A813F5FF9E067
:1025A000AF0EB11C26E3A216B10409F0A7CFAB8091
:1025B000BC808BE1A80EB11C8AE2C82E82E0D82E26
:1025C00010E04501F5018081882379F0F601408112
:1025D0005181FBE01F9FC001112420E068E370E0FF
:1025E00085599F4F0E94F52E1F5F2FEFA21AB20A46
:1025F000F4018081823078F0F60140815181FBE066
:102600001F9FC001112420E068E370E085599F4FAF
:102610000E94F52E1F5F22E0C20ED11C82E3C81675
:1026200082E0D80671F6CB80DC80E3E0CE0ED11CD0
:102630006AE670E0C6010E94C82F65E770E0C60137
:102640000F900F900F900F90DF91CF911F910F91EE
:10265000FF90EF90DF90CF90BF90AF909F908F90C2
:102660007F906F905F904F903F902F900C94C82F69
:102670000F93CF93DF93442351F000E021E040E239
:1026800054E060E070E080E090E00E94312CC0E017
:10269000D0E000E021E04CE054E0BE0189E590E0AC
:1026A0000E94312C2A96C634D10599F721E047ECD7
:1026B00053E060E070E089E690E00E94312CDF9109
:1026C000CF910F9108959F92AF92BF92CF92DF92D8
:1026D000EF92FF920F931F93CF93DF93902E1E2DB7
:1026E000C22ED12CC42FD0E05B0183E0A80EB11C18
:1026F000E12C012F292DA601BE01C5010E94F42F56
:102700000AEF090DB6016E5F7F4F7E0183E0E80E90
:10271000F11C603471052CF421E0402FC7010E94A8
:10272000372FB601610F711D635071096034710557
:1027300028F421E0402FC7010E94372F165083E074
:10274000C80ED11CBE016E5F7F4F01E0212FA60194
:10275000C5010E94982FC90DD11DBE01635071099A
:10276000212FA601C5010E94982FDF91CF911F91C3
:102770000F91FF90EF90DF90CF90BF90AF909F9020
:102780000895EF92FF920F931F93CF93DF93EC0185
:102790007B01142F00E021E04CE253E060E070E0A8
:1027A00080E090E00E94312C01E021E04CE253E017
:1027B00060E070E080E490E00E94312CEC85F0E075
:1027C000EE0FFF1FEE5DFD4F4081518100E021E0E3
:1027D00064E170E085E090E00E94312CED85F0E04E
:1027E000EE0FFF1FEE5DFD4F4081518101E021E0C2
:1027F00064E170E08BE690E00E94312CF701868165
:10280000978163E070E00E94FC34892B69F48C8529
:1028100090E00196837099278C872D8530E02F5F9B
:102820003F4F237033272D871123C1F021E04EE560
:1028300061E370E081E190E00E94372F21E04EE5F6
:1028400063E370E081E190E00E94372F01E025E32F
:102850004EE661E1C70103960E941E30DF91CF91E1
:102860001F910F91FF90EF900895CF92DF92EF921A
:10287000FF920F931F93CF93DF93D22FE02FF0E0BF
:10288000EE0FFF1FE85FFD4FC080D180C0E010E178
:10289000120FE42E440FFF088C2F8170C0FD80E1E1
:1028A000C23010F46D2F01C0612F70E00C2F21E0B9
:1028B000A601F701E80FF11DCF010E94312CCF5F77
:1028C000C43051F7DF91CF911F910F91FF90EF909E
:1028D000DF90CF9008959F92AF92BF92CF92DF92F8
:1028E000EF92FF920F931F93CF93DF93F22E10E09E
:1028F000000F111FF801E650FE4FC080D180F80193
:10290000E451FE4FA080B18010E0922E9E0CC42FA7
:10291000440FDD0B812F817010FD8AE0123010F41E
:102920006F2D01C0692D70E0012F20E0A601FE018E
:10293000E80FF11DCF010E94312C1F5F143051F7B9
:1029400010E0EF0C812F817010FD8AE0123010F43E
:102950006F2D01C06E2D70E0012F21E0A501FE0159
:10296000E80FF11DCF010E94312C1F5F143051F789
:10297000DF91CF911F910F91FF90EF90DF90CF905B
:10298000BF90AF909F9008951F920F920FB60F9235
:102990001124CF92DF92EF92FF920F931F932F9308
:1029A0003F934F935F936F937F938F939F93AF93D7
:1029B000BF938091FF0390910004A0910104B09116
:1029C00002040196A11DB11D8093FF0390930004A2
:1029D000A0930104B0930204492F5A2F6B2F77273D
:1029E00067FD7A95242F2E726C017D0139E0F594F4
:1029F000E794D794C7943A95D1F74C295D296E296D
:102A00007F29489F402D112442238C019D015DE0C8
:102A100035952795179507955A95D1F7082366E0C0
:102A2000B595A795979587956A95D1F7802B8427BB
:102A30008093CF00BF91AF919F918F917F916F91C4
:102A40005F914F913F912F911F910F91FF90EF90C8
:102A5000DF90CF900F900FBE0F901F9018950F939F
:102A60000FB70F931F9211248F939F93EF93FF93B0
:102A7000E2EFF3E08091FA0391E08D5F8D3710F083
:102A80008D5793958093FA038081890F808391817C
:102A9000911D91830281011D02838381811D8383A6
:102AA00009270F70092702950093F9033AD0811185
:102AB0000093F7038C3A11F08C3599F40091F803E8
:102AC000901B983080F08553809300088093010814
:102AD00028D0F1F788E198E080936000909360003F
:102AE000FFCF9093F8038091F603815020F08093FC
:102AF000F60387E749F3EBEFF3E0808191810196DC
:102B00008083918382819381811D911D8283938330
:102B1000FF91EF919F918F911F900F910FBF0F9198
:102B200018958FB18095807F669B88601C9B846020
:102B30000895FC0116861786108A118A0895FC01F3
:102B400016861786108A0895FC01168620910304C4
:102B5000208B08950F93CF93DF93EC0189E08B874F
:102B600083E08E838F8382E0888728894AE45DE052
:102B700061E070E080E390E00E94F52E00E021E04B
:102B800042EC5CE060E170E08EE090E00E94312C6D
:102B90002889CE010296253018F064E777E002C05C
:102BA00063E577E00E94392E88E08B87DF91CF9133
:102BB0000F910895CF92DF92EF920F93CF93DF930F
:102BC000EC016B0100E021E046ED5BE068E070E0C5
:102BD0008EE090E00E94312C8E85813069F40F8563
:102BE000002351F0015025E0E22E2DE042E2B60133
:102BF000CE010E946B1418C085E0E82E00E02DE0A5
:102C000042E2B601CE010E946B14E889F0E0EE0FBB
:102C1000FF1FEB5AFD4F4081518121E06FE070E0D2
:102C200083E290E00E94312CDF91CF910F91EF90E1
:102C3000DF90CF900895CF92DF92EF92FF920F93A3
:102C4000CF93DF93EC017B01FB01C680D78041E08D
:102C50000E94381300E021E049ED5AE060E070E0A6
:102C600080E090E00E94312C8E85813079F118F05F
:102C7000823021F12FC08F85813118F500E021E0ED
:102C800042EC5CE060E170E08EE090E00E94312C6C
:102C90000AEF28894AE45DE061E070E080E390E0BB
:102CA0000E94D32A83E08E838F8382E088876DEC35
:102CB0007AE0CE0102960E94392E0CC089898111DA
:102CC00005C0B701CE010E94AA1504C0B701CE010C
:102CD0000E94DA158889863049F0853049F08430C1
:102CE00049F48989882331F02AE005C029E003C02E
:102CF0002CE001C028E08E85823021F441E08F85F0
:102D0000863408F040E0B701CE010E9440128E8563
:102D1000823029F58989882311F18F858634F8F46A
:102D2000FFE0CF22DD2489E0C816D104C0F088E09E
:102D30008E838F831886E889E150F0E0EE0FFF1F45
:102D4000EB59FD4F60817181CE010296DF91CF91E9
:102D50000F91FF90EF90DF90CF900C94392EDF9180
:102D6000CF910F91FF90EF90DF90CF900895CF9289
:102D7000DF92FF920F931F93CF93DF93EC018B01B0
:102D80006B0184E1C80ED11CFB01F184F0948085B5
:102D9000F8229E85913009F459C020F0923009F450
:102DA000B8C0C9C0EF85E13120F5F0E0E454F54F3B
:102DB000649170E0F801868197810E94FC34892B30
:102DC00009F0B9C066E070E080E090E00E94152E46
:102DD000DC01CB010196A11DB11D888BF3FE02C061
:102DE00081E145C08F858F5F8F87F801178216823A
:102DF000A2C08889853098F0F3FE9DC087E08F8758
:102E000081E08E8766E070E080E090E00E94152E01
:102E1000DC01CB010196A11DB11D888B8CC0FB018B
:102E20008389811102C081E001C082E0F801268916
:102E300090E0820F911D8B30910514F08AE090E0B4
:102E4000F801868B1F8682E08E8775C08F85882368
:102E500081F066E070E080E090E00E94152EDC01D9
:102E6000CB010196A11DB11D888B8F8581508F8765
:102E700062C0998BC6010E948623823020F0888927
:102E8000853008F455C0E889E53081F050F4E13030
:102E900048F1F0E03197E00FF11F838D8F5F838F52
:102EA00021C0E63079F0E73091F01CC0F801848948
:102EB00090E001968630910514F085E090E0F801ED
:102EC000848B10C062E0C6010E9418110BC0F8018B
:102ED000868990E002968B30910514F08AE090E0AC
:102EE000F801868B1F8682E08E87F8018389811125
:102EF00002C081E001C082E0F801268990E0820FE3
:102F0000911D8B30910514F08AE090E0F801868BDA
:102F100012C09F85963410F49F5F9F87F3FE0BC00D
:102F2000B601C8010F960E94D610F80187A303C00E
:102F300087E0888BA8CFDF91CF911F910F91FF90F1
:102F4000DF90CF9008950F931F93CF93DF938C0161
:102F5000EB016C5E7F4FAE01415F5F4F99859095AD
:102F600028859223D8011E962C91223009F459C04D
:102F700028F4222341F1213041F0CEC0233009F45E
:102F8000BAC0243009F4C4C0C7C0892F887093FF29
:102F900003C096E4F8019787D8011F969C911F976C
:102FA000963420F49F5F1F969C93B6C0882309F443
:102FB000B3C0F8019089888D891708F0A5C0D801A1
:102FC000178682E02BC0D8011F96EC91E131F8F40E
:102FD000F0E0E65AF64F649170E08E819F810E9486
:102FE000FC34892B09F098C066E070E080E090E046
:102FF0000E94152EDC01CB010196A11DB11DF80127
:10300000808B87858F5F87871F821E8285C0D8014E
:103010001F961C921F971F821E8281E01E968C9322
:103020007BC0F80187858C3088F466E070E080E032
:1030300090E00E94152EDC01CB010196A11DB11D6F
:10304000F801808B87858F5F878766C08089833092
:10305000C9F028F4813049F0823059F03FC0853002
:1030600019F1C8F0863031F139C08D8981508D8BCE
:1030700035C08E8990E0019797FF02C080E090E014
:103080008E8B2CC08C8990E0019797FF02C080E066
:1030900090E08C8B23C08F8990E0019797FF02C04E
:1030A00080E090E08F8B1AC0898D8230B8F081501B
:1030B000898F14C08F8990E0029797FF02C080E04B
:1030C00090E08F8B892B51F088898A3030F4E82F7B
:1030D000F0E0E05BF64FE4918E0F888B8F898823B8
:1030E00039F01F821E82F801178683E0868714C09C
:1030F00084E0D80193CFF8012785263418F42F5F98
:1031000027870AC093FF08C0CA010E94D61003C0D7
:1031100093FF02C08EE08FA3DF91CF911F910F919B
:1031200008958F929F92AF92BF92CF92DF92EF92CB
:10313000FF920F931F93CF93DF93EC016B01FB0181
:10314000A680B78041E00E94381300E021E04AEAFF
:103150005AE068E270E080E090E00E94312C21E0CB
:1031600046E95AE068E270E08FE490E00E94312C7A
:1031700069E0E62EF12C00E021E04DE75AE068E23C
:1031800070E0C7010E94312CFEE0EF0EF11C8FE4CD
:10319000E816F10481F78E85823009F490C0A8F119
:1031A000833009F4C2C0843009F0E5C08E838F8378
:1031B0001886E889F0E0EE0FFF1FE05DFD4F6081AB
:1031C0007181CE0102960E94392E00E028E04CE188
:1031D000B601CE010E943514E889F0E0EE0FFF1F22
:1031E000E45CFD4F4081518121E06AE070E08EE1B6
:1031F00090E00E94312C20E04BE659E063E270E061
:1032000086E290E00E94F52EB6C013E01E831F8375
:1032100018874E01E2E08E0E911C61E77AE0C4014E
:103220000E94392E82E48E838F831887288941EF8C
:1032300059E062E070E083E390E00E94F52E8E8515
:10324000813009F098C0C5018F70992791E08930CD
:1032500008F490E08F85863410F49111198638892E
:10326000F601208D231798F0863470F4992361F0CD
:10327000EE24E39407E02FE043E050E060E470E0E8
:10328000C60103960E94F42F6DEE79E012C08634D9
:1032900070F4992361F0EE24E39407E02BE043E01F
:1032A00050E060E470E0C60103960E94F42F6AEEDD
:1032B00079E0C4010E94392E81E089875CC00F85C6
:1032C00028E04CE1B601CE010E9435148F858D3087
:1032D000D8F410E0312F330F8F8590E0FC01E65BCE
:1032E000FD4F2081121708F046C04096880F991FA5
:1032F00000E021E04BED59E068E070E0830F911DA4
:103300000E94312C1F5FE6CFE889F0E0EE0FFF1F2F
:10331000E45CFD4F4081518100E021E06AE070E013
:103320008EE190E00E94312C26C000E028E04CE1C4
:10333000B601CE010E943514E889F0E0EE0FFF1FC0
:10334000E45CFD4F4081518121E06AE070E08EE154
:1033500090E00E94312C84E08E838F831886E88968
:10336000F0E0EE0FFF1FE05DFD4F60817181CE0147
:1033700002960E94392EE889E63028F4F0E0EB52FC
:10338000F64F249101C020E08E85833021F441E086
:103390008F85863408F040E0B601CE01DF91CF91F1
:1033A0001F910F91FF90EF90DF90CF90BF90AF9063
:1033B0009F908F900C944012EF92FF920F93CF93B7
:1033C000DF93EC017B0141E00E94C11300E021E0AA
:1033D00045EB58E060E170E08DE190E00E94312C17
:1033E00021E04AE758E068E370E083E190E00E9462
:1033F000312CF7018681978166E470E00E94FC34ED
:10340000079720F421E047E658E004C000E021E0FF
:1034100045E558E064E070E083E390E00E94312CE1
:10342000F701278530E0F901EF5AF74F4491F90190
:10343000E35BF74F849121E06FE370E090E00E943E
:10344000372F8F858823F1F000E020E042E458E038
:1034500068E370E087E790E00E94312C8F858F70E1
:10346000883080F48889813019F04DE258E002C03C
:1034700046E358E000E021E068E370E087E790E091
:103480000E94312CDF91CF910F91FF90EF90089522
:10349000CF93DF93EC01DB0118969C911897199656
:1034A0008C9119978095892394FF08C09E8590314F
:1034B00018F49F5F9E8703C00E94FB2E1E8685FF27
:1034C00009C01F969C911F97992321F091501F9638
:1034D0009C931F9786FF09C01F969C911F9793305E
:1034E00020F49F5F1F969C931F9783FF52C01F96E7
:1034F0009C911F97990F990F59961C925997E92FF4
:10350000F0E0E35EF74FE4915496EC935497E1E0DA
:10351000E90FF0E0E35EF74FE4915796EC9357978D
:10352000E2E0E90FF0E0E35EF74FE4915696EC93AA
:1035300056979D5FE92FF0E0E35EF74FE4915596D3
:10354000EC93559791E058969C93589750961C92FF
:10355000509751961C92519753961C92539752969E
:103560001C9252975B961C925B975C961C925C97A0
:103570005D961C925D975E961C925E975A961C9281
:103580005A979AE097969C93979717961C921E923B
:10359000169782FF10C08CE38F8781E09889911184
:1035A00080E0888B80910304882319F00E942C2FDF
:1035B00002C00E94312F8F85882311F081508F87A0
:1035C000DF91CF9108950895FC011282138280E467
:1035D000848381E085830895CF93DF93EC01FB0121
:1035E00081858095908589239E85913001F118F021
:1035F0009230C1F13BC08681978165E070E00E9406
:10360000FC34892B99F58889482F082E000C550B1E
:10361000298930E0421753071CF48F5F888B26C03E
:103620008FE7888B81E08E8787E08F871FC087FFB9
:1036300007C09289923011F0953011F49150928B1D
:1036400084FF07C09289913011F0943011F49F5F8C
:10365000928B83FF0BC08289DF01A80FB11D5F969B
:103660008C9103C083FF02C08EE087A3DF91CF91CE
:103670000895FC0116861786108A118A0895FC01A8
:1036800016861786108A08958F929F92AF92BF92E6
:10369000DF92EF92FF920F931F93CF93DF93EC0192
:1036A0007B0100E021E042E954E16EE070E08EE150
:1036B00090E00E94312C8A8187FD3EC02C8130E051
:1036C0008B81281B310937FF02C02F5F3F4F359593
:1036D0002795D22EA12CB12C20E8822E912C4A8144
:1036E000AD1428F58501000F111F8B81B801680FFB
:1036F000711D603471052CF420E080E090E00E94A0
:10370000372F8B81B801680F711D6F5F7F4F8A81E2
:103710006034710544F420E0482FF401E81BF109FE
:10372000CF010E94372FFFEFAF1ABF0AD8CF47FD56
:1037300003C08D81480F4A838A8187FF03C08CE0D4
:10374000F70187A3DF91CF911F910F91FF90EF9029
:10375000DF90BF90AF909F908F9008952F923F92EF
:103760004F925F926F927F928F929F92AF92BF9291
:10377000CF92DF92EF92FF920F931F93CF93DF933D
:1037800000D000D0CDB7DEB79C838B835B01DB011B
:1037900051961C9181E0EB81FC8181871682178212
:1037A00010866F01F2E0CF0ED11C67E073E0C60116
:1037B0000E945D2ED5015096EC91EF3028F4F0E098
:1037C000E451FC4E649101C065E070E06F5F7F4F93
:1037D000C6010E94BB2E69E073E0C6010E945D2E07
:1037E000F501608970E06F5F7F4FC6010E94BB2EBC
:1037F000D5015096EC91EF3028F4F0E0E451FC4E06
:10380000E49101C0E5E0F0E0EE0FFF1FE357FD4F4C
:1038100060817181C6010E94392E00E021E04DE4F3
:1038200054E160E070E089E690E00E94312C5EEFA8
:10383000C52EDD24DA9400E021E042E454E162E1A7
:1038400070E0C6010E94312C21E048E354E162E3BC
:1038500070E0C6010E94312CBAE0CB0ED11CE2E62A
:10386000CE16D10441F7AB81BC811E968C9182307B
:1038700011F020E001C020E141E0B5018B819C8185
:103880000E944012F501868197816CE070E00E94F1
:10389000FC342C01C12CD12CC50103969A83898359
:1038A0009C2CAB81BC8150968C915097082E000CBB
:1038B000990B8C159D050CF49EC0F601EF5CFB4E38
:1038C0002490F601E65DFB4E3490F601ED5DFB4E73
:1038D000F4901F968C91873021F01F1102C0811146
:1038E0000AC03DE0E32E06E0232D422DB5018B8179
:1038F0009C810E946B14EB81FC8180898F37C9F415
:10390000D50152968C91891114C0B7E04B16510421
:1039100080F0112309F46FC0632D70E000E020E017
:103920004BEF53E1822D022C000C990B0E94312C9D
:1039300003C0112309F45FC0F116A0F01F1106C0E7
:10394000EB81FC818785882369F090C0F6E0CF1673
:10395000D10409F050C0AB81BC8151968C91863066
:1039600009F08AC0632C712C822C022C000C99085F
:10397000B3E08B0E911CA3014C5F5F4FE12C05E17E
:103980002EE0B40189819A810E94F42FE6E0CE16E0
:10399000D10431F4AB81BC8151968C91863039F0E1
:1039A000F501EC0DFD1D878D90E0019702C087E0C9
:1039B00090E0880F991FFC01E358FD4F4081518131
:1039C000B3016A5F7F4F00E021E0C4010E94312C07
:1039D0001F1111C0EB81FC810785002361F08089F4
:1039E0008F3749F401508DE0E82E232D422DB5018B
:1039F000CF010E946B14FFEFCF1ADF0A87E0C816D1
:103A0000D10409F04DCFAB81BC811F968C911F97DB
:103A1000882341F050969C9150979F3719F481501C
:103A20001F968C93EB81FC818685823041F520E0E6
:103A30004BE659E069E170E086E290E00F900F906C
:103A40000F900F90DF91CF911F910F91FF90EF900A
:103A5000DF90CF90BF90AF909F908F907F906F90AE
:103A60005F904F903F902F900C94F52E86E0C816F3
:103A7000D10409F0AFCF6FCF1F11C5CFABCF0F90DF
:103A80000F900F900F90DF91CF911F910F91FF90AA
:103A9000EF90DF90CF90BF90AF909F908F907F90EE
:103AA0006F905F904F903F902F900895EF92FF920C
:103AB0000F931F93CF93DF93FC01DB0116861786CC
:103AC000108A86E0818B50968C915097863051F009
:103AD00028F4813039F0833039F404C0893011F092
:103AE0008D3011F487E001C086E0818B17961C921F
:103AF0001E92169751968C915197811136C08D0167
:103B0000EF018DEF808B87E0878795968C938AE015
:103B1000F82E66E070E080E090E00E94152EE62E20
:103B200066E070E080E090E00E94152ED801AE0DB6
:103B3000B11D5F968C915F97F801E60FF11D978D8F
:103B40005F969C93878FFA94F110E3CFF8018589F3
:103B50008F3F39F48FE7888B82E08E87158A118A30
:103B60000AC081E0F801818B06C08FE7808B87E077
:103B7000878781E08687DF91CF911F910F91FF901A
:103B8000EF900895AF92BF92CF92DF92EF92FF92A3
:103B90000F931F93CF93DF936C01EB01EE80FF80B7
:103BA0008FE0E822FF2440E0C6010E94381300E0C5
:103BB00021E04FEE51E160E070E080E090E00E9493
:103BC000312CD6011F96EC91F0E0E451FE4E249189
:103BD00041E0F6018685813009F040E0BE01C60172
:103BE0000E944012F9E0EF16F10408F445C0D60136
:103BF0001F968C91813049F0823059F41FE3D12C0B
:103C000097E5C92E22E3A22E09C01FE334E2D32E8A
:103C100002C012E2D12C80E3C82EA12C239600E032
:103C20002D2D4C2D6A2DCE010E941E30212F4C2DA2
:103C30006A2DCE010E941E30F12EFD18E12C0D2DB3
:103C400010E0B12CA8014E0D511D20E0B501CE01B0
:103C50000E947A2FE394E394FE14A0F7B12CD12CA8
:103C6000A8014B0D511D20E0B601CE010E947A2F14
:103C7000B394B394FB14A0F7DF91CF911F910F91F0
:103C8000FF90EF90DF90CF90BF90AF900895AF92EC
:103C9000BF92CF92DF92FF920F931F93CF93DF9348
:103CA000EC018B016B0184E1C80ED11CFB01F18496
:103CB000F0949085F9228E85882321F0813009F4D3
:103CC00040C058C0F5FE05C08F85823011F4888948
:103CD0008F87F6FE06C08F85823019F0888B82E0D0
:103CE0008F87F4FE09C08F85811106C081E08F8720
:103CF000F7FE07C01F8605C0F7FE03C08F85813021
:103D0000C9F3F3FE37C08F85813069F038F0823017
:103D1000A9F461E0C6010E94181110C0F80185895C
:103D20008F5F858B0BC0F801878990E00296853103
:103D3000910514F084E190E0F801878B81E08E8793
:103D400019C05B01FFE0AF0EB11C9989963450F4A5
:103D50009F5F998B963431F4B601C5010E94D6104D
:103D6000F80187A3F3FE06C0B601C5010E94D61074
:103D7000F80187A3DF91CF911F910F91FF90DF9002
:103D8000CF90BF90AF900895CF92DF92EF92FF92C5
:103D90000F93CF93DF93EC016B017B0183E0E80E7F
:103DA000F11C41E0CE010E94381300E020E04CEA13
:103DB00051E160E070E087E290E00E94312C21E068
:103DC00041E950E160E070E087E290E00E94312C30
:103DD000F6018681978162E370E00E94FC340497CB
:103DE00040F421E047E06BE070E08AE390E00E945D
:103DF000372F21E043E36CE370E083E290E00E9420
:103E0000372F01E02EE347E563E2C7010E941E3031
:103E10002FE347E564E2C7010E941E308E858823A8
:103E200029F0813031F44AE65FE005C04AED5FE0F9
:103E300002C040E050E000E021E061E070E082E09C
:103E400090E00E94312C6F85F8E06F9FB001112443
:103E5000695F7F4F20E04EE850E182E090E00E94F1
:103E6000F52E6F8588E0689FB0011124695F7F4F50
:103E700020E04EE850E181E290E00E94F52E888932
:103E80008823D1F08AE1E82E00E427E14FE1B60172
:103E9000CE010E94631384E28E838F838CE1888736
:103EA000E889F0E0EE0FFF1FEB58FD4F6081718154
:103EB000CE0102960E94392E298941E0B601CE0139
:103EC000DF91CF910F91FF90EF90DF90CF900C9406
:103ED0004012AF92BF92CF92DF92EF92FF920F9378
:103EE0001F93CF93DF931F92CDB7DEB78C015B0199
:103EF0006B0184E1C80ED11CFB01F184F094808534
:103F0000F82211F0F801108AF8018685882321F043
:103F1000813009F4C8C012C1F7FE06C0F8018785D8
:103F2000882311F081508787F4FE06C0F801878549
:103F3000863010F48F5F8787F3FE00C1F801278574
:103F4000223009F447C028F4222351F0213041F1F6
:103F5000A3C0263008F45EC0263009F47EC09CC0A1
:103F6000F5018689811102C081E005C0F5018589CE
:103F70008A3021F483E0F801808B8EC0F8018189BA
:103F80008061818BF5018589082E000C990B0196C3
:103F90008B30910514F08AE090E0F501858B16C016
:103FA000F5018689882301F38789843119F3F801A3
:103FB00081898260818BF501878990E00196853146
:103FC000910514F084E190E0F501878B868990E0FB
:103FD000019719C0F5018689833030F287898431D1
:103FE00049F2F80181898260818BF501878990E02F
:103FF00004968531910514F084E190E0F501878BFA
:10400000868990E0039797FF02C080E090E0F50179
:10401000868B42C0F501E688F7E0FE1508F0A4CFD4
:10402000C60129830E9486232981823008F0A2CF0D
:10403000E22FF0E03397EA0DFB1D838D8F5F838FB6
:104040008E2D90E0089797FF02C080E090E0F50188
:10405000868BF801818988601EC0F50186898630CB
:1040600008F482CF2489253008F084CF30E02F5F18
:104070003F4F2630310514F025E030E0F501248B68
:1040800090E0069797FF02C080E090E0F501868BF4
:10409000F80181898460818BF8018189982F97715B
:1040A00009F44CC02BC0F7FE06C0F80187858823B1
:1040B00011F081508787F4FE06C0F80187858430AF
:1040C00010F48F5F8787F3FE39C0F8018785F5010B
:1040D0008330B0F4E80FF11D838D8823A1F0815067
:1040E000838FF501868990E004968B30910514F05A
:1040F0008AE090E0F501868BF801818988601DC017
:104100002489211104C082E0F801808B17C030E0BF
:104110002150310937FF02C020E030E0F501248B47
:10412000868990E003968B30910514F08AE090E048
:10413000F501868BF80181898C60818B8F2D8076CB
:1041400041F081E0F8019685911180E0F8018687C1
:104150001786F2FE07C0B601C5010F960E94D61061
:10416000F50187A30F90DF91CF911F910F91FF90E1
:10417000EF90DF90CF90BF90AF9008950F931F9373
:10418000CF93DF931F92CDB7DEB78CE890E06983C1
:104190000E947134182F8DE890E00E94713469817B
:1041A000611104C01D3411F48235A9F06DE48CE86E
:1041B00090E00E94793462E58DE890E00E947934C5
:1041C0000EE810E060E0C8010E9479340F5F1F4FD5
:1041D00002391105B9F70F90DF91CF911F910F911F
:1041E00008950F931F93CF93C62F8C010E5F1F4F1F
:1041F000643660F468E67FE0C8010E94392ECA3058
:1042000028F466E67FE0C8010E94392E4C2F50E06A
:1042100060E070E02AE0C801CF911F910F910C94EB
:10422000722E1F93CF93DF93162FEC0122966A30E4
:1042300028F464E67FE0CE010E94392E412F50E041
:1042400060E070E02AE0CE010E94722E62E67FE01C
:10425000CE01DF91CF911F910C94392EFF920F93D5
:104260001F93CF93DF93EC018B0182E08E878F87C2
:10427000888B8FEF8B8BFE01B196CE018596DF0187
:104280001D971C9214961C921192E817F907B9F722
:104290001C8E1D8E1E8E1DA240E0B801CE010E9414
:1042A000F329D80112968C9112978730F9F0883053
:1042B00009F440C0863009F044C05096FC9066E096
:1042C00070E080E090E00E94152E6F0D6E5F698BAC
:1042D000D8015096EC91EF3028F4F0E0E451FC4E18
:1042E000E49101C0E5E0EE0FEE5F22C0D8015096E8
:1042F000EC91EF3028F4F0E0E451FC4EE49101C081
:10430000E5E08E2F880F880FE80FE65FE98BD80174
:104310005096EC91EF3058F4F0E0E451FC4EE4910B
:10432000E53028F4F0E0ED58F74EE49101C0E0E00C
:10433000EA8B07C0F8018089880F8E5F898B85E042
:104340008A8B82E08E878F87DF91CF911F910F91AB
:10435000FF9008956F927F928F929F92AF92BF923B
:10436000CF92DF92EF920F931F93CF93DF933C0195
:104370004B01D42F122FC02FC22ED12CA42EB12C22
:10438000E12C00E220E2A601B501C40103960E94DF
:10439000F42F00E0212F4D2FB401C3010E943514EA
:1043A000EC2FF0E0EE0FFF1FE354FD4F40815181F1
:1043B000B6016E5F7F4F21E0C50102960E94312C4D
:1043C000DF91CF911F910F91EF90DF90CF90BF9031
:1043D000AF909F908F907F906F9008958F929F9253
:1043E000BF92CF92DF92EF92FF920F931F93CF93E2
:1043F000DF93EC016B01FB01868197818F70992718
:10440000BB24B394893008F4B12C34EFE32EFF249D
:10441000FA9400E021E043E458E160E370E0C70172
:104420000E94312CF4E1EF0EF11C28E5E216F104B4
:1044300081F741E0B601CE010E9438130BEF20E076
:104440004EE358E168E370E080E090E00E94D32AF8
:1044500020E049E358E168E370E085E590E00E94E0
:10446000D32A1E85133018F41130A8F09BC01330E6
:1044700009F4DFC0143009F025C18D89FE01E80F71
:10448000F11D028928E04CE1B601CE010E94AA216B
:104490001E831F8306C18F85F60133964F0183303B
:1044A00001F5E12C00E220E24FE050E062E070E034
:1044B000CF010E94F42F20E24FE050E066E370E06D
:1044C000C4010E94F42F08892FE042E0B601CE011A
:1044D0000E94351408892FE046E3B601CE010E9400
:1044E0003514E12C00E22EE148E050E06DE170E08F
:1044F000C4010E94F42F088928E04CE1B601CE01E6
:104500000E94351488898D30E0F510E0E12EEE0C24
:10451000888990E0FC01EE54FD4F2081121708F0CD
:10452000D1C02F85F12C2330D9F40396880F991F21
:1045300000E021E04AE258E16FE070E08E0D9F1D3F
:104540000E94312C2889C701820F911D820F911D75
:1045500021E04AE258E16FE070E0CA960E94312CF7
:104560002889C701820F911D820F911D00E021E073
:104570004AE258E168E070E080960E94312C1F5FAB
:10458000C5CFEB89F0E0EE0FFF1FE354FD4F4081F4
:10459000518100E021E06AE070E08EE190E00E944D
:1045A000312C90C013E01E831F8318874E01F2E068
:1045B0008F0E911C6CE178E1C4010E94392E87E4D2
:1045C0008E838F83188729894CE957E162E070E078
:1045D00088E390E00E94F52E8E85823009F072C04B
:1045E00088898634B0F4BB20A1F019869989F60138
:1045F000808D891710F42BE001C02FE0EE24E394A6
:1046000007E043E050E065E470E0C60103960E94D5
:10461000F42F9989F601808D891718F068E977E100
:1046200002C065E977E1C4010E94392E81E08987E3
:1046300049C0E12CF12C8D89F701E755FD4F23E0AE
:10464000829FE00DF11D11248080E82DF0E0DF0154
:10465000AA55BD4F1C91DF01AD55BD4F9C90EC0F8D
:10466000FD1F0289212F492DB601CE010E94AA21EA
:10467000BB2069F08D8988110AC0612F70E000E0CD
:1046800020E04EE557E1892D90E00E94312C3FEF6C
:10469000E31AF30A83E0E816F10469F684E08E83F6
:1046A0008F8318868D89FE01E80FF11DE289F0E005
:1046B000EE0FFF1FEB56FD4F60817181CE01029618
:1046C0000E94392E8D89FE01E80FF11DE289E63046
:1046D00028F4F0E0E85AF84E249101C020E08E85DD
:1046E000843021F441E08889863408F040E0B60146
:1046F000CE01DF91CF911F910F91FF90EF90DF904E
:10470000CF90BF909F908F900C944012FC019085A9
:104710008781890F9185890F9285890F0895CF929E
:10472000DF92EF92FF920F931F93CF93DF93EC01F1
:10473000DB017B0144E1E40EF11C9B01215F3F4F53
:1047400019969C911997909518968C919823EE85BF
:104750004E2F50E04D30510508F044C28B01FA0154
:10476000EC59FF4F0C94103593FF02C085E48D8FF8
:104770008D8D863408F036C28F5F8D8F863409F0B8
:1047800031C21D8E8F858E87F80150C082E0888BE4
:1047900093FD04C0ED8DE131F0F04BC081E18D8FD0
:1047A000F12CF801808DF816A8F76E01CF0CD11C02
:1047B000F60181A181110DC066E070E080E090E01B
:1047C0000E94152EDC01CB010196A11DB11DF60141
:1047D000848BF394E6CFF0E0E858F74E649170E0F4
:1047E000F801868197810E94FC34892B09F0FAC177
:1047F000F12CF801808DF816B0F46E01CF0CD11CAD
:10480000F60181A181110DC066E070E080E090E0CA
:104810000E94152EDC01CB010196A11DB11DF601F0
:10482000848BF394E6CF8D8D8F5F8D8F17821682E8
:10483000D9C18C89863059F08D89863051F08E89A6
:10484000863049F08F89863041F088E007C084E0E7
:1048500005C085E003C086E001C087E08B8B80E067
:1048600021E0F801908D891730F4FE01E80FF11D69
:1048700021A38F5FF6CF83E068C095FF20C08B89AE
:10488000883024F02F89263019F413C0873021F4A2
:104890002E89263019F40FC0863021F42D89263058
:1048A00019F40BC0853051F42C89263039F484E09A
:1048B00005C087E003C086E001C085E08B8B96FFD2
:1048C00025C02B89243024F48C89863019F416C035
:1048D000243021F48D89863019F412C0253021F45A
:1048E0008E89863019F40EC0263029F48F898630DF
:1048F00059F427E00AC0273041F406C024E005C07F
:1049000025E003C026E001C028E02B8B93FF6AC19D
:10491000EB89E4300CF466C1E8305CF0E83009F073
:1049200061C1F801408D9E012C5E3F4FF90180E08E
:1049300018C01D8E0E2E000CFF0B3497EC0FFD1FC0
:1049400011A2808D8F5F808F82E08E874BC1919105
:10495000913039F0890F9381592F550F950F990F89
:10496000890F9E2F921B941790F39DA1911195E0B2
:10497000D92ED80E298930E02D1931092F31310572
:1049800014F02EE130E037FF02C020E030E0298B48
:1049900040E0B801CE010E94F329898981110CC041
:1049A000B801CE01DF91CF911F910F91FF90EF9051
:1049B000DF90CF900C940C2A1D8E83E0888B88E0CA
:1049C0008B8BDD20B9F01E86C7010E9486238111E2
:1049D0000FC08E8D811109C085E008C040E0B8018C
:1049E000CE010E94F32981E08E8782E08F87FAC092
:1049F00084E0FCCFC7010E948623811105C08E8D03
:104A00008111A2CF85E0A1CF84E09FCF84E0888B85
:104A100097FD02C095FF20C08B8984302CF0F801EF
:104A2000268D211113C002C01816ACF4F801238D95
:104A300021110EC082307CF0248D21110BC08230F8
:104A400051F0258D222339F082E005C083E003C0B8
:104A500080E001C081E08B8B892F807539F18B89D3
:104A600083308CF4F801268D211118C087FF04C013
:104A7000838D882319F014C018162CF0F801848D4A
:104A8000882319F00FC0813031F4F801858D882317
:104A900059F082E00AC088303CF007C083E005C0CE
:104AA00080E003C081E001C088E08B8B93FF9AC057
:104AB0008B89813039F11CF4882331F0A0CF82300A
:104AC00049F1833081F19BCFF801838D8150838F31
:104AD000898990E00A978F31910514F08EE190E07A
:104AE00097FF02C080E090E0898B40E0B801CE01E2
:104AF0000E94F3298989882309F452CF84E0888BA6
:104B00008AE023CF8E8F89E08E87F801848D8150D3
:104B1000848F68C081E08DA38BE08E87F801858D3E
:104B20008150858F5FC08CE08E87F801868D815023
:104B3000868F878990E008968531910514F084E18D
:104B400090E0F801878B4EC0FB018789282F30E069
:104B50008A8990E04489841B91098333910514F07C
:104B600082E390E097FF02C080E090E0A901481B3B
:104B7000590BCA0157FF02C080E090E0F801878B13
:104B8000892B09F02BCF81E08E8788E02FCF93FF10
:104B900009C081E0FB01838BB701C9010E94D610D7
:104BA000F80187A38D8D8634E8F48F5F8D8F86346E
:104BB000C9F48E85888B87E0C8CE93FF13C081E04F
:104BC000FB01838BB701C9010E94D61003C093FF7C
:104BD00009C08EE0F80187A305C093FDB5CE02C0E1
:104BE00093FD10CFDF91CF911F910F91FF90EF9028
:104BF000DF90CF900895AF92BF92CF92DF92EF9265
:104C0000FF920F93CF93DF935A016901FC0180A1BA
:104C10008150C1E0823008F0C0E0D0E0C114D1047E
:104C2000A1F000E020E0A6017E01F8E1EF0EF11C0A
:104C3000B7018CE390E00E94312C01E020E0A60156
:104C4000B70183E490E00E94312C00E021E0A5014F
:104C5000BE0182E390E00E94312C01E021E0A50139
:104C6000BE0183E490E00E94312CDF91CF910F913F
:104C7000FF90EF90DF90CF90BF90AF900895CF92CC
:104C8000DF92EF92FF920F931F93CF93DF93EC018C
:104C90007B0141E08E85813009F440E0B701CE010F
:104CA0000E94C1138E85882309F49CC0813009F0CD
:104CB000BAC000E021E049E05EE161E170E083E13B
:104CC00090E00E94312C20E048EB5DE164E070E070
:104CD00088E190E00E94F52E87E08B8789E18E8342
:104CE0008F8310E118876E01F2E0CF0ED11C61E9CD
:104CF0007DE1C6010E94392E8FE58E838F83188750
:104D0000F7016785660FCE010E941121F7016089C6
:104D100070E06F5F7F4F862F880F680FCE010E9473
:104D20001121F701628D660FCE010E94112185E2EB
:104D30008E838F8317E21887F701608D660FCE018F
:104D40000E941121F7016789660FCE010E9411218F
:104D500086E48E838F831887F7016689660FCE01FC
:104D60000E941121F7016589CE010E94112186E67A
:104D70008E838F831887F7016489CE010E941121E9
:104D8000C70144960E948623682FCE010E941121FC
:104D900083E18E838F8319E318876BE77DE1C6017A
:104DA0000E94392E8AE28E838F8318876F85CE0109
:104DB0000E94F12082E68E838F8318876889CE0156
:104DC0000E94F12021E04AE567E370E083E190E092
:104DD000DF91CF911F910F91FF90EF90DF90CF90D7
:104DE0000C94372F00E021E046EC5EE16FE070E0CC
:104DF00088E190E00E94312CF7018681978166E47A
:104E000070E00E94FC34079720F421E043EB5EE160
:104E100004C000E021E041EA5EE164E070E083E389
:104E200090E00E94312CDF91CF911F910F91FF9064
:104E3000EF90DF90CF900895CF93DF93FC01DB01DB
:104E400018969C91189719968C911997809589239B
:104E500083FF0BC08685882331F0813031F48CE0EC
:104E600097968C9302C081E08687818997FF10C056
:104E700094FF0EC08F5F8D3311F0818B0BC0EF015B
:104E8000118A61E0CF010E94BE20188A1F8602C0ED
:104E90008111118ADF91CF910895DF92EF92FF92F5
:104EA0000F931F93CF93DF93EC018B017B0184E180
:104EB000E80EF11C60E0CE010E94BE201E861F8617
:104EC000188AF80182818D3011F081E08E87F80117
:104ED0009785292F220F322F390F3F87908D990FF9
:104EE000292F230F2F87408950E04F5F5F4F942F6A
:104EF000990F940F920F9F87D788DD0C9D0D9F8788
:104F0000D588D90EDF868489D80EDF868689880FFA
:104F1000D80EDF86828D880FD80EDF86C7010E94EB
:104F20008623E82EF12CED0CF11CEF86F801878525
:104F300090E082579F4F0E9471348E1548F0888B05
:104F4000DF91CF911F910F91FF90EF90DF90089527
:104F5000E88AF801878590E06E2D82579F4FDF9198
:104F6000CF911F910F91FF90EF90DF900C947934C7
:104F70009F92AF92BF92CF92DF92EF92FF920F93E8
:104F80001F93CF93DF93EC016B01DB0116968D919C
:104F90009C91179764E170E00E94FC3411E08B3023
:104FA00008F410E088A19EEF980FAA24A3949230F1
:104FB00008F0A12C9F8D9F5F943010F49F8F07C045
:104FC0001F8E8F5F853010F488A301C018A241E0C6
:104FD000B601CE010E94381300E021E043E65DE116
:104FE00060E070E080E090E00E94312C01E020E081
:104FF00049E45DE16BE170E085E590E00E94312CD1
:1050000000E021E04DEF5CE163E170E088E290E0D8
:105010000E94312C01E021E04DEF5CE163E170E0A2
:1050200083E490E00E94312CB12C7501BFEFEB1AA4
:10503000FB0A21E04AEC5CE1B7018FE190E00E94BD
:10504000312CF60182818730C1F425E83CE14FE83C
:105050005CE1B601CE010E94FB2500E020E049E6BC
:105060005CE1B7018CE590E00E94312C21E04AEC34
:105070005CE1B7018CE590E024C020E030E04CE337
:105080005CE1B601CE010E94FB25F2E1AF0EB11C3E
:1050900000E020E046E25CE1B50187E490E00E9498
:1050A000312C01E020E046E25CE1B50184E590E0CE
:1050B0000E94312C00E021E04AEC5BE1B50187E47D
:1050C00090E00E94312C8E85811114C0112391F043
:1050D000198689898A3010F02AE001C025E0EE2483
:1050E000E39407E042E050E064E170E0C60103961B
:1050F0000E94F42F05E10E830F8382E088875E0112
:1051000022E0A20EB11C498950E060E070E02AE084
:10511000C5010E94722E81E089870E830F838AE089
:1051200088874A8950E060E070E02AE0C5010E946B
:10513000722E8E85843041F08889843029F08E85E6
:105140008250823020F52BC000E021E040E75BE197
:1051500063E170E080E090E00E94312C76018BE109
:10516000E80EF11C65E1962E9E829F8287E1800FFA
:105170008887D7014D917D0150E060E070E02AE022
:10518000C5010E94722E065F083271F7D8CF888958
:10519000833029F08B89883009F042C03FC0D601A6
:1051A0005096EC91EF3028F4F0E0E451FC4EE4919D
:1051B00001C0E5E0D60112968C91873011F080E0B5
:1051C00001C085E0E80FF0E0DF01AB50BD4F8C91EE
:1051D000880F880F8A5E93E09E839F838887EE0FF7
:1051E000FF1FEF51FD4F60817181C5010E94392E73
:1051F00000E0F601808D081768F6FE01E00FF11D52
:10520000BAE00B9FC0011124248940EF5AE164E306
:1052100070E003960E94F52E0F5FEBCF1123C1F0D3
:105220008E85833051F4D60158968C91880F982F33
:10523000990F990F890F8D5F03C0843049F48AE17B
:1052400020E04AEE5AE165E370E090E00E94F52E1E
:105250008E858350823008F511111FC08B8987FD20
:105260001CC0843054F08830C4F4880FB4E08B9FA5
:10527000800D1124855264E308C0880F682F660FE3
:10528000660F860F66E1680F83E070E003E020E0C0
:1052900044EC5AE190E00E94D32A8E85813011F0CF
:1052A00020E001C022E041E0B601CE010E944012A0
:1052B0008E85883028F4863018F58130E1F087C07B
:1052C000883009F460C08D3008F081C080E2E82E9B
:1052D00004E621E14FE0B601CE010E94631384E1B0
:1052E0008E838F8385E18887EE85F0E0EE0FFF1FC8
:1052F000E754FD4F5CC08F85883009F068C043C01B
:10530000873089F0F6018281873029F48C8D8530D1
:1053100021F42DE003C021E001C029E041E0B60105
:10532000CE010E944012D60112968C918730D1F4A2
:105330003AE1E32E08E527E144E1B601CE010E94FF
:1053400063138AE18E838F838CE188876EEA7AE12A
:10535000C5010E94392EEC8DF0E0EE0FFF1FEF52D9
:10536000FD4F25C022E1E22E0CE328E142E2B60126
:10537000CE010E94631388E28E838F838DE188873C
:1053800061EA7AE116C020E04BE659E069E170E09D
:1053900086E290E0DF91CF911F910F91FF90EF9007
:1053A000DF90CF90BF90AF909F900C94F52E6081CE
:1053B0007181C501DF91CF911F910F91FF90EF9007
:1053C000DF90CF90BF90AF909F900C94392EDF91DB
:1053D000CF911F910F91FF90EF90DF90CF90BF90F2
:1053E000AF909F900895FC0190E0DB0158968C915E
:1053F000981788F4DF01A90FB11D91964C939197EE
:10540000411107C058961C92268D222311F021507D
:10541000268F9F5FEACF0895DF92EF92FF920F935E
:105420001F93CF93DF938C01EB017B0184E1E80EA6
:10543000F11C8A81873089F0883009F473C0863086
:1054400009F074C0E889EF3028F4F0E0E451FC4E34
:10545000649101C065E06F5F66C0E889EF3028F4B1
:10546000F0E0E451FC4E649101C065E06E5FC7015D
:105470000E941811E889EF3030F4F0E0E451FC4E5E
:10548000E491E23010F083E001C082E02E8990E0E8
:10549000820F911D8B30910514F08AE090E08E8B85
:1054A0008A8D8F5F8A8F66E070E080E090E00E94D6
:1054B000152EDC01CB010196A11DB11DD82EF801DE
:1054C000848FC7010E948623823018F0F4E0FD1516
:1054D000C0F5F801248D253089F058F4213030F1E1
:1054E00030E021503109C20FD31F8B8D8F5F8B8F1E
:1054F0001DC02630B9F0273059F018C08C8990E0D3
:1055000001968630910514F085E090E08C8B0EC0FA
:105510008E8990E002968B30910514F08AE090E03D
:105520008E8B04C062E0C7010E94181186E0F8016A
:105530008687DF91CF911F910F91FF90EF90DF90C1
:10554000089587E0F801848FC4CFCF92DF92EF9265
:10555000FF920F931F93CF93DF936C017A018B011E
:10556000C0E0D0E0CE15DF0589F0D8016D918D0146
:10557000D601ED91FC910190F081E02DC6010995D5
:10558000892B11F47E0102C02196ECCFC701DF9177
:10559000CF911F910F91FF90EF90DF90CF900895E2
:1055A00008950E9443362F923F924F925F926F92DE
:1055B0007F928F929F92AF92BF92CF92DF92EF92A3
:1055C000FF920F931F93CF93DF9300D000D000D0B2
:1055D000CDB7DEB77B014115510509F429C1FA01A8
:1055E000D490319674914E5F5F4FAD2DB0E0222381
:1055F00009F1E72FE695E695E695AE2EB12CE1E0B0
:10560000F0E0372F377011F4E0E0F0E0EA0DFB1D19
:10561000AE9F5001AF9FB00CBE9FB00C1124033061
:1056200011F4AA0CBB1C2A9DF0012B9DF00D112436
:105630004E0F5F1F0F3F09F402E05C01AA0EBB1E74
:105640001A141B040CF0F4C0803891050CF0F0C063
:105650009701270F311D121613060CF0E9C0F0E474
:10566000EF16F1040CF0E4C04115510509F4E0C057
:105670002E2D27702D839701F7FE02C0295F3F4F23
:1056800063E0359527956A95E1F7F22FF7FE05C09F
:105690006D81662311F0FFEFF20F97FF05C02227FF
:1056A0003327281B390B02C020E030E0E0E8AE16BB
:1056B000B10424F060E8762E781A01C07D2C721AAD
:1056C000EF2E0F2E000CFF08FF3F1CF4CE2CC094D1
:1056D00001C0C12CE1E0672F677009F4E0E0769526
:1056E000769576959E2E970EE90CF11C69E0E616EC
:1056F000F1041CF0E8E09E2E9F1A1C2D1F0F60E89D
:105700001603800D911D1124820F931F61E070E03C
:105710000D8002C0660F771F0A94E2F7033011F084
:10572000E1E001C0E2E0EE2EF12CCD9C200D311D18
:105730001124E29E5001E39EB00CF29EB00C1124A5
:105740006A01CA0CDB1C970121503109A20EB31E5D
:105750004A0D5B1DBB24BA94B69E9001B79E300DD6
:105760001124290140945094F90DFE83A719B10921
:10577000EA9FA02D1124B0E0E79DA00DB11D1124DA
:105780002E81121709F454C09C012C5F3B4F4A0133
:105790005601612C671409F443C0F5013490369E1C
:1057A000F001379EF00D1124FA83E983E095F0951E
:1057B000FC83EB83023019F45C824B8210C00B3FF8
:1057C00019F41A8219820BC0F4013490369EF0014C
:1057D000379EF00D1124E095F095FC83EB8317FDC7
:1057E00009C0F9013080EB81E321F9813E2E3F2A87
:1057F000F9013082FD81FF2359F017304CF4F90193
:10580000E058FF4F20803C8023203A8032283082AD
:105810008E0C9F1CAE0CBF1C63942F5F3F4FBACF02
:105820001F5FCA0EDB1E4A0F5B1F80589F4FA8CF19
:1058300026960FB6F894DEBF0FBECDBFDF91CF9195
:105840001F910F91FF90EF90DF90CF90BF90AF909E
:105850009F908F907F906F905F904F903F902F9090
:1058600008952F923F924F925F926F927F928F9204
:105870009F92AF92BF92CF92DF92EF92FF920F93DF
:105880001F93CF93DF93CDB7DEB761970FB6F89430
:10589000DEBF0FBECDBF7C014A01FA0134913196C3
:1058A000E491832F8F778F5F282E312CC701820DD3
:1058B000931D97FDA1C1F0E8EF16F1040CF09CC117
:1058C0008E2F8F738F5FAB01480F511D57FD94C111
:1058D000603471050CF090C1331F3327331F3B83B5
:1058E00031E0E6FF30E0EE1FEE27EE1FEF83AB0165
:1058F00077FF04C044275527461B570B5A0117E072
:10590000A122BB24AB0177FF02C0495F5F4FDA01E0
:1059100053E0B595A7955A95E1F7BA83A98377FF28
:105920000CC0A114B10449F01197BA83A98348E0CF
:1059300050E0FA01EA19FB095F0141E050E06A0119
:105940000A2C02C0CC0CDD1C0A94E2F7D986C8866A
:10595000982F969596959695877011F4892F02C089
:1059600081E0890F482F880F550B5E834D83502FA0
:1059700052705A8701FF06C0AD81BE81119781E048
:10598000382702C0A0E0B0E0602F61706C8300FF98
:1059900004C0B1016150710902C060E070E097E09D
:1059A00040E150E080E0612C712C8101015011092F
:1059B0001C870B870D811E81A017B1070CF01CC13D
:1059C000B7FD1AC18A01CC24C394D12CF80143E05D
:1059D000F695E7954A95E1F7E80DF91DE491F0E0B9
:1059E000A8014770552702C0F595E7954A95E2F75B
:1059F000A8014F5F5F4FE0FF05C01FEFC11AD10A3A
:105A00008A01E4CFE1E0CE16D104E9F4FA01F6957B
:105A1000E795F695E795F695E795E80DF91DE4917C
:105A2000F0E0477055272F0102C0559447944A95DE
:105A3000E2F7F1E04F2255244FEF441A540AA8012F
:105A40004E5F5F4F41C08601015011091E870D87CF
:105A500044244394512C0D8402C0440C551C0A94D8
:105A6000E2F71FEF411A510A00E010E0FA01F69543
:105A7000E795F695E795F695E795E80DF91DE4911C
:105A8000CE2ED12CD98AC88A6A01E7E0CE22DD2445
:105A9000E889F98902C0F595E795CA94E2F7E0FF35
:105AA0000AC0E1E0F0E0002E02C0EE0FFF1F0A94F2
:105AB000E2F74E0E5F1E4F5F5F4F0F5F1F4FCD84AB
:105AC000DE840C151D0594F2C12CD12CC414D50410
:105AD00009F48CC00B81002369F0E92FF0E031114B
