:100000000C940C110C9434110C9434110C94341184
:100010000C9434110C9434110C9434110C9434114C
:100020000C9434110C9434110C9434110C9434113C
:100030000C9434110C9434110C9434110C9434112C
:100040000C9434110C9434110C9434110C9434111C
:100050000C9434110C9434110C9434110C947629B2
:100060000C9434110C9434110C9434110C943411FC
:100070000C9434110C9434110C9434110C943411EC
:100080000C9434110C9434110C9434110C943411DC
:100090000C9434110C9434110C9434110C943411CC
:1000A0000C9434110C9434110C943411C715C715E9
:1000B000DB155A164417131842186A187E183B1796
:1000C0008E188E188E18F2191B1ACB19341A041AAE
:1000D000711A711A711A961AD819551AFF196A1AD3
:1000E0006A1AD5F08D14A1C881CFD9F1AF200003D1
:1000F000081F051F1F151B1F11111F110E1F1511A2
:100100001F05011F111D1F041F001F0010101F1FBE
:10011000041B1F10101F061F1F011F1F111F1F058B
:10012000071F311F1F051B17151D011F011F101F62
:100130000F100F1F0C1F1B041B071C071915130C96
:10014000121E1F120C1E12120C121F0C1A14041F66
:10015000052E2A1E1F021C001D00201D001F041A50
:10016000011F001E041E1E021E1E121E3E120C0C3B
:10017000123E1E020614120A020F121E101E0E104C
:100180000E1E081E1A041A2E281E1A12161F111FE0
:10019000121F101D151711151F07041F17151D1FFE
:1001A000151D01011F1F151F17151F001700001037
:1001B00000040404040E040229060A0000340F009F
:1001C00000F804C4A464A4E4C404040464846404BF
:1001D00084448404C404C40404E424C404A404843F
:1001E0004484048444E4040404C4E4A464A4C4046F
:1001F000F8000000000F1010131113111010101050
:1002000010131010111211101112111010131211DD
:1002100010131011131210111213101010101113CB
:10022000111310100F000017F74F91204106329064
:10023000B74081DF0A1C0870EB06C24340E067DB71
:10024000C0188CE17B107E77411725AC3E477E7A43
:100250004209AC43DEB15CFC4E26A3459A91F7DC23
:10026000F87DBDE5B42EE26BE002FC2E8BCF7B6304
:100270006DB096524B69B43756CE9C73EBADB74C0C
:10028000D7BF1EF9EF1347FF5F21E4BF5659070799
:10029000002A003E2A3E000707000C3A163A0C00DE
:1002A0000707001A2432241A000707002A18360C00
:1002B0002A004D6F6E73746572202020202020204C
:1002C0002020357E444D4700466F756E647E53682E
:1002D00069656C64202020202B317E4152005768D4
:1002E000657473746F6E65202020202020202B32CF
:1002F0007E585000466F756E647E4D656174202097
:1003000020202B317E466F6F64004865616C7468F5
:100310007E506F74696F6E2020202B327E48500013
:10032000466F756E647E4C6F6F742020207E2B327A
:100330007E476F6C64001B1F3F8BC562020318C0B1
:1003400060B3F94BEC73133184014409A627F7FA23
:10035000112C168BC9024A58C0A20409252C4A58F0
:100360009420A1844510085260B1D96CFED21B9F25
:10037000DF646472451C9B27AD02A584F49772CF9D
:100380004610162C5860848211162C5820C8CE9D19
:10039000DF014C0000000046669220D481640519FC
:1003A00016244966060000000013F87D7CCDAFF1ED
:1003B0007D1B5FEF79C1CAE218080081BC01160BF2
:1003C000B875008B1B3F8E23A7B5194802008041EA
:1003D000008475E5017F81FD0E0004000400E69FA6
:1003E0008BC562028BCDEF021B9F9F62667044C675
:1003F000903B87D4D18C0E85E92FE8040240A5827A
:1004000002425400105480408C131800006C0137D5
:10041000606001411622B20865F16C954013002A14
:10042000062888A110D9102155B0414D6A0000500E
:100430000000000D000081041184F1433C2237E4E8
:10044000D61B72EB0D3CFA391B9F3F9C1B72E6D703
:100450005092580E1A045021D30A384B03C445E970
:100460003ACC4119842377AEFCB206D04A2E3442EE
:1004700018288380250B76B1D00FF5D65B6FBDF5BC
:10048000861C3D0AB7DE7A046EBDF50A1B9F5FE647
:1004900090700C2C00C9AD838AD0457F94B3F18D48
:1004A000A7392F6301E9691D260C38A0EFF828CF82
:1004B000BA8E2CCE9009F3C4990D5C24B6E5989FB2
:1004C000C935B71E3DF3B51CB9031F1FBF74C16406
:1004D00032D9EBEFB9DFEFBFE77EBFFF9E6B3399F9
:1004E0004C58BF141F9FBF6B851B72436EC88DACE9
:1004F000BFD7FEFEFE7BEDEFEFBFD85AC80DB92186
:100500003764AD5F061F9FBF63851B72436EC80DC6
:10051000B92137B2FE1EFBF7EDBFC7FE7DFB2FB240
:100520001672436EC80DB9213764AD5F021F9FDF9D
:100530005DE186DC901B72436EC80DB92137B27E37
:10054000EFFEFDFBF7EEDFBF7FF15AC80DB9213793
:10055000E486DC901B7243D6FA321F9FDF59E18696
:10056000DC901B72436EC80DB92137E486DCC8FAF3
:100570003DFBEFB37FCFFEFBEC5FB41672436EC85A
:100580000DB92137E486DC901B7243D6FA121F9F07
:10059000EF56B82137E486DC901B72436EC80DB964
:1005A0002137E486DCC8FADEFEFBEDEFEDBFDFFEAF
:1005B000E25AC80DB92137E486DC901B72436EC83D
:1005C0000DB9213764AD971F9F7B851B72436EC8A1
:1005D0000DB92137E486DC901B72436EC80DB9213A
:1005E00037B2EEFBEFBBEFFBEFBB5FAC85DC901BE4
:1005F00072436EC80DB92137E486DC901B72436EDE
:10060000C80D59EB02011F20200101400010000419
:100610000021080813170160F11D160B2850000A6D
:100620002C60B1F90A02800020005060BB810200FA
:10063000028000200008000280002050AE1410004C
:10064000040001400010000400010001589C580003
:10065000140004284F280002800020000800000138
:10066000010101010101010202020204040408085F
:10067000207E596F7520616C72656164790A20680B
:1006800061766520656E6F75676821007E596F75AC
:1006900020646F6E7420686176650A206F6E652035
:1006A000746F2073656C6C2100202020596F7520B9
:1006B0006E6565640A20206D6F726520676F6C64DB
:1006C00021004F1FA60419C0400A86634A082184EE
:1006D000E646C8281226A19D440001080015429153
:1006E0009051246CA000048000D04EC298219C98A8
:1006F000CC6E26413A0E0C989302052000048076B9
:1007000012C60CE14400C6A4292184109A1B21A31F
:10071000489884765216000120C843160B1040807A
:1007200020B0D96C5E335D9C992E6032F9D52C26B1
:10073000933F1BD3CFB0588000020481CD66F31DD8
:10074000360B28000516C3C5F7086D08B79410428C
:1007500008CD8DD950A4A8744C9E12324268464AE6
:10076000D010427363763351C992A2C155242C83B1
:10077000D049534208053A269F60B38005142830BB
:10078000FC3E6B8570C655244C423BB9A5000480E5
:100790000A9F4A099BC9444273144000000040016B
:1007A000A01C5C6E2400048020DFC155A44811C544
:1007B0003BAE495342082134C794104208CD31253D
:1007C0008450206BF2124797B9C1155CF39DEB3E44
:1007D00079C77CD79E5F9E99F7E9A2A78F9DF026E7
:1007E000A727A387661E3ACECCFB74D1D381799F0D
:1007F00059336BDFAF78953732073D3FBFEFC97292
:10080000CF07EFEE0B7AEF7726FBBE998F5F303E76
:10081000715FD07BEFF705AE9DF14AB9A0A71C31FF
:1008200017CE984BE4CC655D38E788B944CE5CD6EA
:100830008572599F162FE2D73CE50B5CD68572591D
:10084000672EEBC27D5C103FFF705A4B175BBB1DE0
:100850006C169BA5AB70E4EAD5AB460A9A8357AFFA
:100860005EFDD3849CFAAB582E5529D8B6158A1450
:100870002952545D9E98805C00B9007201E402C860
:1008800005900B2017402EC0DF2737E512BC18BE9D
:10089000D5CB52CA706075B3485042001C27DFF0B8
:1008A0000F8F74D51A1A3F202B2D6921B1B4FFFC8C
:1008B00098B5C15AACEFD0430C2090300080700046
:1008C000C2897F699CD6D2C5D66EC79B40070910E6
:1008D00000E09F23CBA52A05DBB64261F26202E865
:1008E0000300041600020B00810580C00240600175
:1008F00020B000105800082C00041600020B0081E4
:100900000580C00240600120B000105800082C0093
:10091000041600020B00810580C00240600120B077
:1009200000105800089C7A594A19EEEA66B1591429
:100930005D27FE21021FE737168F9005205E9D423E
:1009400080D3388D576C54368BCD62A3B291B05999
:100950007C4F00590AC814DE02021B782D4075C86E
:10096000C316156448FB6900748AB801780B086CDB
:10097000E0B500D5210F5B549021ED77A9403410EC
:10098000A2F53120B081D70254873C6C514186B426
:100990001FAF4C2687BC050436F018290B017CD705
:1009A000B240C6EC3B1FFF37166F860A00A05CB250
:1009B000585E5360F5119B209BC566B151D948D84C
:1009C0002C3E40721943F716F02120B0812F20C130
:1009D000519EB5A82043DA8F4B455450968F018124
:1009E0000D7C01514779D6A2820C693F9879594D07
:1009F0009642DE01021B788C1415017CD7A2820C72
:100A000069BF2D802C05640A6F01810D3C1640548E
:100A100004F05D8B0A32A4FD34003A45DC00BC05CD
:100A20000436F058005111C0772D2AC890F6BB54F7
:100A3000201A08D1FA1810D8C06301444500DFB568
:100A4000A82043DA8F57269343DE02021B785C907E
:100A500085C4772D0B64CCBE0301087E3F3F3F97D2
:100A6000E160B1584C16938900069000124AA8D351
:100A7000E9BF3213F3BDACB6110401527098B00057
:100A8000800238A06BACFC3361B1582C9A2FC6356C
:100A9000130800010000200024C0C4D90014001075
:100AA0000058309C2B2B23CBC99FD4818466F1FB4B
:100AB000D86C764042D0101A102841021440001021
:100AC0000004000140001000108002180083294437
:100AD0005D197FB87D66B3D96C369BC962B2582C5C
:100AE000D67EEC000A8010A66C4A284120080880B7
:100AF00004519120000220000200F39EF197DA3F9A
:100B00007BD706102820903ABC8E9D97400140006C
:100B1000100004000140001000040001C039D91F7A
:100B2000630125888A08000411D1120A2C3EB27F85
:100B3000F7868083C567E7E6215000400010000477
:100B400000014000100004000160EF8E0F0300025E
:100B5000E064B23F9B1F9F1F978FB0596C169BC5D7
:100B600066B1B9E6C06432335A700210015C2E9748
:100B70004C0AB6ED600107BFFF7FC69CE63CF9EF6B
:100B8000E1EFEEE18FFF6FE2B04EF973FE33CAE999
:100B90004FF5EF2AE3EFF3EFEB0B1CC218479EE78C
:100BA00034131EFF23FBE477BFF7EF2C977559979B
:100BB0007C7C5D1610705157BFCC95AB0E01DDD615
:100BC0002058B73508D66D0D2EBD7AF5EAD5AB574E
:100BD000AF5EBD7AF5EAD5AB578F320F73E5EAD534
:100BE000AB57AF8E51AF5EBD7AF5EAD5AB57AF5E6E
:100BF000BD664DF613660647640CB973481DCDE813
:100C000050987EC0230017100E50D83060C1820566
:100C1000290B162C58304139F99DBDF7F7BCC8AAED
:100C20006308E7BFDBFD5B08C200848210203080D0
:100C3000020B10994CA0C0120457804ACA905C2441
:100C400017C94572918C0D47E032C22C0C98F30302
:100C50007BEFEF6D00E0B0DF3D1C05CE06991E5B1B
:100C6000CE4C00C8D5090ABCBD7F1638017202AE51
:100C70005EBD7A056E840302B20080500400440217
:100C8000000808004014008028056A000050000099
:100C9000000181E1EAFBBDF7F736ACBDDF3D6166DF
:100CA00070453A168F80C1046E2D30F9D425510C51
:100CB000B0800212A0800428B080020B28B080020D
:100CC0000B2820010A2CA0C0020A2CA0C0020A2C6A
:100CD000A0C0020A2CA0C0020A2CA0C0020A2CA0AC
:100CE000C0020A2CA0C0020A0C1193BDEF5CBDCF5C
:100CF000C33C5C9D9BAB7F9EFBBB96013D1A4401B0
:100D0000201C1C042102B3E6A9861868C010FD3619
:100D100013280CC43104EACFD87BBFE3382EE1603E
:100D200004B08230060827E0CF747FC731772F8068
:100D3000BCED61DE98C045684770D4E0053877297E
:100D4000586073C09281C2AD41065842D727F6DE83
:100D5000DF130600100622410140E17B03B7089033
:100D600020621772436EC80DB92137D8673C7AF5F7
:100D7000EAD5AB57AF1E8C0AA0AA505529AA22A0CB
:100D80002A45D5881A6559698C425491AA49353B40
:100D9000760CAF5EB3E661E2D1AB57578635D4121D
:100DA000868BE9D5AB57AFCED4626A57EDAA5DB555
:100DB000AB364B2650697420202020207E2D327EB9
:100DC00048502C7E2B46616C6C004D6F76696E67C7
:100DD0007E57616C6C73202020202D317E5850008E
:100DE000537072696E677E426C61646520202020BA
:100DF0002D317E4850005275737465647E41726D6A
:100E00006F75722020202D317E415200547269701E
:100E10007769726520202020207E2D317E476F6CFF
:100E200064004D696C646577202020202020207E9E
:100E30002D317E466F6F64001B9F7B15000098C0AC
:100E400007C64BCD81FBF81630010080AEFB0100D8
:100E5000000000004278CE60D8C9396E0E7C811047
:100E60000000000000383C590013008003378EDC7E
:100E7000803347E098A7DC3800003001D6A7B9726C
:100E800044E0C43DA771E4F7001BDF178738557CA9
:100E9000CD62B317EC75D9739E780A822E10CB0BF6
:100EA0005BC418113FC04891CC4B6F0513307C03D5
:100EB000C4A1206A79C30275839F01474E5D4CA18E
:100EC0004CA1962F8887E2F217F8804BE4CA11B83C
:100ED000E604FC0C1BDFB718080BDC224241C405FA
:100EE000226E112E209CF25D10636911DE4807808E
:100EF00011BFCA740105161061810A0B5458A0C2B3
:100F00000227819847C262080B1C2C368B4D810D3D
:100F1000864D900D806C8894B0286111CA42202CB7
:100F20007E03578E980B0F721A477E071B9F0FC0C8
:100F3000F0007C033E502F826E110E5C8427E30686
:100F40005E224F61EC086C306C67C76690A8080E93
:100F50004592305C54CE84B0D553E46DCEC0C93BCD
:100F60007060A1B80138312A61205BDDC0033647CB
:100F7000C2F7B972C45C78C19170027E0E1B9FAF3C
:100F800091458D0E58125C0220B120242008820267
:100F900008A0113146C468901BF2491426CCBD0547
:100FA00038F28050A4049475E9171CE0F0B9885B0E
:100FB000C42DE216712B2258000E50504901680AC8
:100FC000BA0A37708BB845FC293EE012397A42E004
:100FD000327E0D1BDF6F43600904661E87C0120856
:100FE000CC3C0E81251098F9093CA43CEEA5705824
:100FF00007C29527DC289F61B180052A2C08C8020A
:1010000022000212581084050B0C20010A404102F4
:101010002C161860018BC54FF00197C895538FE3CC
:10102000123CF95D1F1FBF74C16432D9EBEFB9DF09
:10103000EFBFE77EBFFF9E6B33994C58BF141F9FD5
:10104000BF6B851B72436EC88DACBFD7FEFEFE7BA7
:10105000EDEFEFBFD85AC80DB9213764AD5F061F59
:101060009FBF63851B72436EC80DB92137B2FE1E48
:10107000FBF7EDBFC7FE7DFB2FB21672436EC80DA6
:10108000B9213764AD5F021F9FDF5DE186DC901BF5
:1010900072436EC80DB92137B27EEFFEFDFBF7EE4D
:1010A000DFBF7FF15AC80DB92137E486DC901B728F
:1010B00043D6FA321F9FDF59E186DC901B72436EE4
:1010C000C80DB92137E486DCC8FA3DFBEFB37FCF0A
:1010D000FEFBEC5FB41672436EC80DB92137E4868F
:1010E000DC901B7243D6FA121F9FEF56B82137E4EB
:1010F00086DC901B72436EC80DB92137E486DCC8CC
:10110000FADEFEFBEDEFEDBFDFFEE25AC80DB921BE
:1011100037E486DC901B72436EC80DB9213764AD8D
:1011200097010505060005030600040205000301FA
:1011300003D7876301188E4EC41E8185081C9D400D
:10114000FB2B861CC8383A9178ECE65839241C7A77
:1011500034C8EA6DFC94217BDC0CB27A6B383B110D
:10116000C6AF18B2C7CD800B388ED30045DF7FB035
:10117000EBDA1D8E7D71DEA7F33EBDECB65E5F5CE3
:10118000FF68F6D65B57D204D35B4F33E7398E5EE8
:10119000CD8E578F635E3B4FB93A1B336BC770B42C
:1011A00077BC7A752E0ED3AB57B933566FBD35C1A8
:1011B00034A31D303F34BAE8173267E62D57676312
:1011C0003ABDE6B4733B8CA3575312AF5E33CF5D89
:1011D00047AF7497ABC7319E7D2ACB8C75E87F2FC4
:1011E000003FFF705A4B175BBB1D6C169BA5AB7085
:1011F000E4EAD5AB460A9A8357AF5EFDD3849CFAE6
:10120000AB582E5529D8B6158A142952545D9E988C
:10121000805C00B9007201E402C805900B20174001
:101220002EC0DF2737E512BC18BED5CB52CA70607E
:1012300075B3485042001C27DFF00F8F74D51A1A7F
:101240003F202B2D6921B1B4FFFC98B5C15AACEFFA
:10125000D0430C20903000807000C2897F699CD6FA
:10126000D2C5D66EC79B4007091000E09F23CBA5CF
:101270002A05DBB64261F26202E8030004160002AE
:101280000B00810580C00240600120B000105800B2
:10129000082C00041600020B00810580C00240608B
:1012A0000120B000105800082C00041600020B00AA
:1012B000810580C00240600120B000105800089CE9
:1012C0007A594A19EEEA66B159145D27FE21021FC8
:1012D0009F7B851B72436EC80DB92137E486DC9075
:1012E0001B72436EC80DB92137B2EEFBEFBBEFFBAB
:1012F000EFBB5FAC85DC901B72436EC80DB9213724
:10130000E486DC901B72436EC80D59EB02011F206E
:101310002001014000100004002108084E6F005910
:101320006573000909FE01010101010101FE0001CF
:1013300001010101010100FE01010111010101FE94
:10134000000101010101010100FE0105010101414E
:1013500001FE000101010101010100FE0141011135
:10136000010501FE000101010101010100FE01452D
:101370000101014501FE000101010101010100FE21
:1013800001450111014501FE0001010101010101B9
:1013900000FE01550101015501FE0001010101019D
:1013A00001010045766164657E747261703F008D55
:1013B000D73DF13EF3F0AD7BB3673E7630714E071B
:1013C00081B2F2398E812E0489D73DF1B1C3E5DCBB
:1013D000ECB91E5F1D04CAF2CE91303609973BF37B
:1013E000F031E6F732777A231C799E45210C11D72C
:1013F00067CE9C7DCE63E4C8438EC03527E0CC31F8
:10140000772F80FC910011D7AF7B436EDE790C7E85
:10141000D51383037AE598075C227F2411D747E42C
:1014200098636EBCE031F8214E398D23E1C6310F4F
:10143000B844FE4811D7778EE00D78CE63F0A33D17
:10144000416EDC39E60197C81F091197AF38E7C82C
:101450007B1E70F33BC049BC096F73E488B9F01779
:101460000211970F390247E0310FB8F955E562389C
:1014700079CE9123E6C25F084F70656E7E63686522
:1014800073743A0A596F757E666F756E647E676F06
:101490006C647E6F6E6C7921004F70656E7E636840
:1014A0006573743A0A476F6C647E616E647E747211
:1014B0006561737572652100557067726164657E40
:1014C000796F75727E576561706F6E2100202047BD
:1014D00061696E7E616E7E41726D6F75722100472B
:1014E00061696E7E617E4865616C696E677E576179
:1014F0006E6421004761696E7E617E506F69736F13
:101500006E7E57616E642100204761696E7E616E58
:101510007E4963657E57616E642100204761696E74
:101520007E617E466972657E57616E6421000101AD
:101530000101010101010202020204040408084F32
:1015400070656E7E63686573743A00D7BF1EF9EFED
:101550001347FFCF169CBD7AF5CFC199AB675EF3F9
:10156000E7F0EAD5337FE6A56B0900108811021673
:1015700038124E8413618E70A1040C658E70229C0B
:10158000403995430C00000027F582DC908C498996
:1015900010CA858C2237E4863C002A048C81000026
:1015A000B896AE1F1E40200610488C400C20101527
:1015B000046200811880BDF7DE07D6426EC80DB9FF
:1015C00071D827208006B8EC2B72436EC80DB92164
:1015D00037E4865CF7058802014EFBC00DB9213760
:1015E000642D0E7BEFBD01620081A820100308C4AA
:1015F00000C60410880104728E17402E085C28175C
:10160000EA8172C176246314E8025C3414192CE474
:1016100086DC38EC131040035CF615B92137E486FC
:10162000DC901B7243AEFB02448100A77DE086DCA8
:1016300090C5404ACA1258053A46325AB9500E96D9
:101640000B2017CA05818B593B9F6FA8300051288A
:10165000008050002214800805204201885000229A
:101660001480080504000A80001400010108A28803
:10167000228A2212504400000404A0000840010005
:10168000840210A100442800110A40840210A10025
:10169000004201885000406080E59BFB0000008014
:1016A000080080008C8537F006DEC0F3FE7BEC235B
:1016B00078036FE00D64AD0400000000000038EC1A
:1016C000DFB10F0000000000C0DE833367CE5CF6A0
:1016D000DF633FE2CC99CBDE0000000000C0617FF9
:1016E0009013E5C0ECA008800631800A858A80004E
:1016F0002A29982C4130584110040111634468088C
:10170000A2558434209A825041100441104D00901B
:101710000882200842869D310D312049080052463A
:101720002707CA89033B97FFC0EFF3304FB4A86C7B
:1017300054362A27E7201B480002C439C809958D72
:10174000CA4665A3B251D9A86C544E614C0304201B
:1017500001761853D9A86C54362A2DA77998771694
:10176000B206087480C014045800022C00011680D0
:101770007001810E100608081710E800011680009D
:101780000B0AB000045800022C28C00210600108A7
:10179000A3807001016180300A081B40800520C0D1
:1017A00002106001084E40180584B190050909FE39
:1017B00001010101010101FE00010101010101011D
:1017C00000FE01010111010101FE00010101010101
:1017D000010100FE01050101014101FE00010101BD
:1017E0000101010100FE01410111010501FE00019D
:1017F00001010101010100FE01450101014501FE58
:10180000000101010101010100FE01450111014535
:1018100001FE000101010101010100FE015501016C
:10182000015501FE00010101010101010001020455
:101830000810204080596F757E757365647E617EE7
:101840006865616C696E677E7370656C6C2E0A20CA
:1018500020207E596F757E686176657E6761696E4E
:1018600065647E380A202020207E65787472617E4F
:1018700048507E706F696E74732E007E596F757E4E
:10188000757365647E617E706F69736F6E7E737051
:10189000656C6C2E0A20207E4465616C7E327E650C
:1018A000787472617E64616D6167650A2020202012
:1018B0002020207065727E7475726E2E0020596F24
:1018C000757E757365647E617E666972657E737010
:1018D000656C6C2E0A2020207E4D6F6E73746572CD
:1018E0007E6C6F7365737E31300A202020202020AB
:1018F00048507E706F696E74732E0020596F757E2C
:10190000757365647E616E7E6963657E7370656CF8
:101910006C2E0A20207E4D6F6E737465727E697323
:101920007E66726F7A656E0A202020207E666F7256
:101930007E74776F7E7475726E732E005570677249
:101940006164657E796F75727E576561706F6E2117
:101950000020204761696E7E616E7E41726D6F75F9
:101960007221004761696E7E617E4865616C696EB7
:10197000677E57616E6421004761696E7E617E50AB
:101980006F69736F6E7E57616E64210020476169D5
:101990006E7E616E7E4963657E57616E64210020B4
:1019A0004761696E7E617E466972657E57616E64CD
:1019B0002100320F0000F80404E4A404C4448404A9
:1019C00084448404C44484448404C404C4040404D7
:1019D000E4846404A404E404E404844484048444A7
:1019E000E40404F8000000000F101013121013108C
:1019F00013101113121013101310131010151310CD
:101A000010101310131013101310131011131210C1
:101A100011121310100F0000596F757E6B696C6CFA
:101A200065647E7468657E426F73732E0A000909CF
:101A3000AAFF0101000101010001010100010101F2
:101A4000AAFF0001010100010101000101010001E3
:101A5000010100010408003E1C080909FE01010102
:101A600001010101FE000101010101010100FE016E
:101A7000010111010101FE0001010101010101004B
:101A8000FE01050101014101FE0001010101010109
:101A90000100FE01410111010501FE0001010101EA
:101AA00001010100FE01450101014501FE000101A6
:101AB000010101010100FE01450111014501FE0086
:101AC0000101010101010100FE0155010101550162
:101AD000FE00010101010101010011AFEFC6A200EA
:101AE0002C24C0420060D1F11038F281D0000220D5
:101AF00000200008000220010CBD73E633B0060888
:101B0000002A08480202C0025977E004C047F634B0
:101B100006828242301E0E2F80C9003E31650100D0
:101B2000B20608000B64CD47403800E73C126EC88F
:101B30000DB92137BF07ABBF3F37A7C39A43FF2C6F
:101B4000A71CC71E7F8FC0B8E5CAEF5DFEF9D35F43
:101B500090F1DDF5F75DF394B3FBAB19F77F40E54A
:101B6000E59FDCACDEC6659DF2B9BFFCAFFCFBB700
:101B7000BF0B29FFEFB34FF91CC7B1FF98B9CCF9E0
:101B800063BB0FE3C8DFE7EFC6AFF1382E731FC6A4
:101B9000F19F93FF5AC67CF5E7CE69CE533EFB27F3
:101BA000FF71FF0A66BE0F2B3F37075AB709C8C23D
:101BB00061041091028A01B0B203CB3AD0FA4719FE
:101BC000B2100826EE0C8E20016C08E0B0A41007BD
:101BD000087114265B02D810C0806736935FBC0F73
:101BE0000002B7BD25149980080C406452042E08E9
:101BF0001408029341111880080C8A8430994CA073
:101C00004828A0F667EC0D028070DEFBA303168067
:101C100000084402422829C0027E973B93CD667398
:101C2000D5EA4000040039EDFDE91E5D0E60B1808B
:101C3000E5B13F95E1409440B301805A18C2005A83
:101C40005252FEE26E8618C0C072B280C900168B76
:101C50007F1E6BFBEFAABBBF0B297FEFB3DD58499B
:101C60009432C12271C86298FC39992CA084925E8A
:101C7000286111874160186258948D4306B0582C32
:101C8000FE4E842065226500520620650052062023
:101C90006550D21013B09082050B0E603081C56480
:101CA000C29C3060426142410A05122850A1C062C4
:101CB000F139F63C80088880088887E9DE5FED26E8
:101CC000861026240491D098BDF73ECC1D9AB93ECB
:101CD00096A3CBE572B9BC6699C4C4C157180EA6C9
:101CE00006A646270C39CCAD952131D9FEB51C2C62
:101CF0003010A1C0624E9848000734E00007B0D809
:101D0000FCD3D8FFB44CCC8F00A77FD92612401645
:101D10008E7F127BDF40000EFB17B3F99BEC7D0634
:101D20000140D8FB6754054A9002933FD0DE270458
:101D3000000190A1D52B9BCD6666FB97A4A1A105C0
:101D40000638A016009CFCFE710326152A4C8A1C3E
:101D50001BBECE620183092C360B22C3CDE607756C
:101D60000F5800C0BE6F00400060EFDFE95EBF7338
:101D70001F862A511793A86A06ECFDFBBAFBFBB23B
:101D8000BB3B011000010001100010000180027A2D
:101D9000D803910F2E9E74B07A6B81C5E781B72D61
:101DA000323C76B07A7420051F03131F2F174C2680
:101DB00002120004240004000109000232D9EB7B66
:101DC000FB0E00080002800000002000080002C096
:101DD00083FDBD7D070004000140000000100004E9
:101DE0000001E0C1FE5E369322932293499149910E
:101DF000C9A4790C13DFDF5BE18604842037B27E4F
:101E0000DF7E000002C083FDFBF6030010001EEC25
:101E10001F99B0596C169BE4A3131F5F5E30994C59
:101E2000F6FABDFBFDFEBDFBFDFEBDD94C2693E6DB
:101E3000E3131F5F5C30994C2693BD7EDFFEDEFE10
:101E40007DFB7BFBF76533994C2693E6A3139FEF4D
:101E500056B82137E486DC901B7223EB7BFBF7ED51
:101E6000EFEDDFB73F9AB0596C169BC566B1596C60
:101E700092C7139F7B851B72436EC80DB92137E44F
:101E800086DCC8BAEFDFBFEFFBF7EF47099BC566FB
:101E9000B1596C169BC566B1596C922313DFDF5B99
:101EA000F95AD6EFFBFEEFFBFE8F9CF3B22E737E4A
:101EB00014139FDF59F97AD6EFF93DBFE7F7FCA875
:101EC000392FEBB22E737E0C13DFF7955F9BF5FE77
:101ED000F7BFFFFD1F99F3B22EEBB22EEBB22E73BC
:101EE0003E0293DF2B7F8DFC2B1A735ED6655DD689
:101EF000655DD6655DD665CE010D0F9725132A5415
:101F0000264626512645E6BACF0903183061C0841B
:101F10000113064C98070F1793A62C0C18011444B4
:101F200000144031C1849DCDDD151D501380A108E2
:101F30000B0D4A809A0143F1AF020D0F57EB606120
:101F4000C00815065031C184ED76F701124A3003FE
:101F500090380C123697110D8F0F09259409260B16
:101F60002C8B20E12B710DC3258E15B9983572008D
:101F70000DCF6FA1B00181DD130CF8A6270607F481
:101F800042042880E10D0D8F8F0499A08182825038
:101F90009830493E3A064304415246C2913B0DCF28
:101FA000274919AA40A30205D414501D34F866D459
:101FB0001128A8000540000AA04221C38E030DCFBE
:101FC000A76494F01AC0AB5200441F05201428A146
:101FD00000D83084C1CCAD47003A7E53756E6B6536
:101FE0006E7E4B6565707E6F667E4F6721003A7E20
:101FF000466C616D696E677E556E646572776F724F
:102000006C64003A7E556E646561647E4361746100
:10201000636F6D6273003A7E506F69736F6E6F7598
:10202000737E44756E67656F6E73003A7E546865A3
:102030007E426C61636B7E53657765727300139F9C
:102040000700C2993367DE72E6CC9900F00200F80F
:10205000FD00C00B00E0F70300AF8070E6CC99777D
:102060009C397326C011131F9705934900109000E7
:10207000202001404004240008480010900030D97E
:10208000EBBE1F008000200008000280000000203E
:10209000000800028000200070DFF7FD000004004F
:1020A0000140001000040000000140001000040086
:1020B0000180FBBE6733991499149914293229328F
:1020C0002932994C9A23139FFC75F837342FEBB2C1
:1020D0002EEBB22EEBB22EEBB22EB30102020304B2
:1020E000040517082417082417FF1313273B3B4F39
:1020F00005E742D435AA1D70447561DB02A7E81AD2
:10210000EE0D5C2A69B4371200D344DD9909C7E6A5
:10211000AED9D1BB232018090737474696A72C21F3
:10212000815A17F74F912041063290B74081DF0A5C
:102130001C0870EB06C24340E067DBC0188CE17BF3
:10214000107E77411725AC3E477E7A4209AC43DECC
:10215000B15CFC4E26A3459A91F7DCF87DBDE5B451
:102160002EE26BE002FC2E459F371620002560E230
:10217000707AED7C76F5EA06A29090A10322DA55FA
:102180003B44060CCD671DB9682F9ED06B0FE80944
:10219000BDE6825E855B4EDC2057E5EA05F8101748
:1021A00040000AC480397472EAE70086A7591C51BE
:1021B000340828591686B54162B8F0D241B0C796A6
:1021C00062CA4E19B0E4CC35AF3973E735677F1C6E
:1021D000020B0805BBFB7AB3CDB4EE180324B20A98
:1021E00037E0FB63218305C0691C0347E0C8193849
:1021F00012E60827E0E65F0D814D38FAC0CBB84003
:102200006EC0959FE7DDAB57AF5EBD7204CE5E3901
:1022100022BF06005932583211241FBECFEFDAE038
:10222000DEBFCDBF13E0A0E0B1E0EEEBFDE602C003
:1022300005900D92AC30B107D9F727E0ACE0B3E0E0
:1022400001C01D92A636B207E1F711E1CBE0D1E162
:1022500004C02197FE010E949A35CA30D107C9F700
:102260000E947D320C94D2360C940000089580E0D8
:1022700090E0089508950895FB012081FC0125A3B5
:1022800021E026A3089502960895029608950895E0
:102290002BE0629FC001112468E370E085599F4FD5
:1022A0000C94F71B0F93CF93DF93FC016A3039F442
:1022B0008581848396818185890F86834BC0848143
:1022C0006E3719F48E5F848345C0262FEF01668137
:1022D0006F5F2A3374F42033F4F42B32F1F01CF4E2
:1022E0002132F9F02DC02D3289F12E3249F52FE33C
:1022F00019C02B3544F4213464F42A3381F02F3390
:10230000F9F422E40FC09FE9920F9A31C8F42754E0
:1023100009C0215407C02C5F05C021E403C023E499
:1023200001C02EE33F81062E000C770B082E000C17
:10233000990B313069F40AEF4FEE50E00E94991A80
:1023400088858D5F9C81890F8C8304C020E4EACF4F
:102350000BEFF2CF81E090E0DF91CF910F910895E4
:102360000C9435360C9435360C9435360C94353641
:102370000C9435360C9435360C9435360C94353631
:102380000C9435360C9435360C9435362F923F929A
:102390004F925F926F927F928F929F92AF92BF9275
:1023A000CF92DF92EF92FF920F931F93CF93DF9321
:1023B000CDB7DEB729970FB6F894DEBF0FBECDBFFD
:1023C000998788874B01D42EB22E302E2E2CDB011C
:1023D000ED91FC910480F581E02DCB0109953C0144
:1023E000D401ED91FC910480F581E02DC4010995A3
:1023F0004C01F3018481958168E170E00E9486358B
:102400009A838983412C512C30E0C30101969C832F
:102410008B8388E7F82EA885B9851296BE83AD8395
:102420003330B1F028F4313051F0323069F004C06B
:10243000343099F03530A9F0F401168933C0D40155
:1024400057961C918B2D11C0F4011589832D0DC059
:10245000D40152961C91822D08C0F40114898C2D50
:1024600004C0D40153961C918A2DDD20D9F0882315
:10247000C9F0E981FA813D97A8F0A885B985199638
:102480001C921A3010F02AE001C025E0EE24E394FB
:1024900007E0A20167E770E08B819C813F830E9487
:1024A0009B2B3F81E885F985F682F7824086412F94
:1024B00050E060E070E02AE08D819E813F830E94C1
:1024C0004A1F81E0A885B98519968C933F813F5FAB
:1024D000B9E04B0E511CE6E34E16510409F0A0CFB3
:1024E000D40159968C91882349F049EA52E060E082
:1024F000888599850E94481111E001C010E0F4011F
:10250000818D823040F049EA52E0612F88859985BB
:102510000E9448111F5FD40158968C91882341F086
:1025200040EA52E0612F888599850E9448111F5F1B
:10253000F401808D823040F040EA52E0612F8885BE
:1025400099850E9448111F5FD4015A968C91882367
:1025500041F047E952E0612F888599850E94481132
:102560001F5FF401828D823040F047E952E0612F15
:10257000888599850E9448111F5FD4015B968C91D4
:10258000882341F04EE852E0612F888599850E94AA
:1025900048111F5FF401838D823038F04EE852E01D
:1025A000612F888599850E944811FFEF6F1A7F0A75
:1025B0006AE670E0C3010E94DD1C65E770E0C301BC
:1025C00029960FB6F894DEBF0FBECDBFDF91CF9135
:1025D0001F910F91FF90EF90DF90CF90BF90AF9041
:1025E0009F908F907F906F905F904F903F902F9033
:1025F0000C94DD1CEF92FF920F93CF93DF931F9209
:10260000CDB7DEB7DB01ED91FC910480F581E02DC3
:10261000CB01498309954981442351F000E021E031
:1026200040E852E060E070E080E090E00E94091D28
:10263000E12CF12C00E021E04CE652E0B70189E505
:1026400090E00E94091DBAE0EB0EF11C86E4E8164A
:10265000F10481F721E047E252E060E070E089E6B2
:1026600090E00E94091D0F90DF91CF910F91FF9094
:10267000EF9008954DEB51E069E170E086E290E063
:102680000C94F71B9F92AF92BF92CF92DF92EF9282
:10269000FF920F931F93CF93DF93C42FC22E902EE0
:1026A0001E2DDB01ED91FC910480F581E02DCB0125
:1026B0000995D12CD0E001965C01E12C012F292D48
:1026C000A601BE010E949B2B0AEF090DB6016E5FA9
:1026D0007F4F7E01B3E0EB0EF11C603471052CF4EA
:1026E00021E0402FC7010E940A2BB601610F711D26
:1026F000635071096034710528F421E0402FC7014F
:102700000E940A2B165083E0C80ED11CBE016E5FDA
:102710007F4F01E0212FA601C5010E946B2BBE0156
:10272000690D711D63507109212FA601C5010E9419
:102730006B2BDF91CF911F910F91FF90EF90DF9066
:10274000CF90BF90AF909F900895089508950895F9
:102750000895089508950895089508950895FC0131
:102760008EE291E0918380831582148282E291E06F
:102770009383828388E0838781E082871782108633
:10278000168281870895863061F028F4813049F0FF
:10279000833029F406C0893021F08D3011F080E0BB
:1027A000089581E00895EF92FF920F931F93CF93C6
:1027B000DF93EC017B01DB01ED91FC910480F5815D
:1027C000E02DCB0109958C0140E0B701CE010E94BC
:1027D0002924D701ED91FC910480F581E02DC701FA
:1027E0000995FC018081873001F1883009F442C0ED
:1027F000863009F04CC0D8011E96FC9066E070E06F
:1028000080E090E00E94ED1E6F0D6E5F6F87D80133
:102810001E96EC91EA3028F4F0E0E755FD4F8081F8
:1028200001C084E0880F8E5F31C0D8011E96EC9104
:10283000EA3028F4F0E0E755FD4F908101C094E0C4
:10284000892F880F880F980F965F9F87D8011E9653
:10285000EC91EA3038F4F0E0E755FD4FE081E530E7
:1028600038F401C0E4E0F0E0ED57FE4F80810EC087
:1028700080E00CC0F801168566E070E080E090E032
:102880000E94ED1E610F6E5F6F8785E0888B82E08E
:102890008D87DF91CF911F910F91FF90EF90089559
:1028A0008F929F92AF92CF92EF92FF920F931F93CE
:1028B000CF93DF93EC014B01DB01ED91FC910480A0
:1028C000F581E02DCB01099554EFE52EFF24FA9414
:1028D00000E021E044E156E068E270E0C7010E94B8
:1028E000091DB4E1EB0EF11C88E5E816F10481F74F
:1028F00041E0B401CE010E94FA128C85813009F4C6
:1029000050C038F0823009F075C0CE010E943A13F1
:1029100071C0ED85F0E0EE0FFF1FE759FE4F4081DB
:10292000518100E021E068E070E08CE190E00E94DD
:10293000091DED85ED3020F5F0E0E45AFE4F808171
:10294000882309F457C010E0A12FAA0F2D8530E08D
:10295000F901E45AFE4F8081181708F04BC0205F40
:102960003F4FC901880F991F00E021E045E056E084
:1029700068E070E08A0F911D0E94091D1F5FE4CF7F
:10298000EE85F0E0EE0FFF1FE25BFE4F40815181CC
:1029900000E021E06AE070E08EE190E00E94091D15
:1029A00029C000E021E047EC55E068E070E08CE1F0
:1029B00090E00E94091DEE85F0E0EE0FFF1FE25B44
:1029C000FE4F4081518121E06AE070E08EE190E0AD
:1029D0000E94091D84E08E838F831886EE85F0E0C7
:1029E000EE0FFF1FEE5BFE4F60817181CE010296FC
:1029F0000E94111F8E85AA24A394833009F0A12C74
:102A0000CC24C394813009F0C12CEE24E3948530AA
:102A100009F0E12C01E0823009F000E021E084308F
:102A200009F020E08C85813021F441E08D858634E9
:102A300008F040E0B401CE010E94C611DF91CF91B1
:102A40001F910F91FF90EF90CF90AF909F908F903C
:102A50000895FC0197818681890F9085890F918562
:102A6000890F08950F931F93CF93DF93EC018B0190
:102A70008A818F5F8A83833081F030F4813059F00E
:102A8000823069F481E009C0843039F0853039F44E
:102A900086E08B830EC01B8221C08B831FC08630D3
:102AA00031F489810E94C313811108C017C0853099
:102AB000A9F489810E94C313811110C0F80181819A
:102AC00081508B30C4F08AE0F8018183882331F093
:102AD0001A8289818F5F89831B821C82E981EA3097
:102AE00030F4F0E0E65CFE4F8081853011F08AE042
:102AF00006C08DE004C087FFE7CF80E0E5CFDF911F
:102B0000CF911F910F9108956F927F928F929F9214
:102B1000AF92BF92DF92EF92FF920F931F93CF93EA
:102B2000DF9300D0CDB7DEB78C017B01DB01ED91E7
:102B3000FC910480F581E02DCB0109953C01D70182
:102B4000ED91FC910480F581E02DC70109955C01B0
:102B50004C01B2E18B0E911CD701ED91FC910480E8
:102B6000F581E02DC7010995DC010D96F301D780B1
:102B7000D0942681D222F801448550E04D30510591
:102B800008F0CEC2FA01EA5AFF4F0C949A35D3FEF0
:102B900004C085E4D8015B968C93F801838D86345C
:102BA00008F0BEC28F5F838F863409F0B9C2138EDE
:102BB0008585848759C082E0F8018687D3FC06C0EA
:102BC000D8015B96EC91E13108F154C081E1F80144
:102BD000838FD12CD50156968C91D81688F7480151
:102BE0008D0C911CD4015D968C9181110DC066E015
:102BF00070E080E090E00E94ED1EDC01CB010196C8
:102C0000A11DB11DF401828BD394E4CFF0E0E15A11
:102C1000F94F649170E0F301848195810E948635BB
:102C2000892B09F07DC2F12CD50156968C91F816AE
:102C3000B8F448018F0C911CD4015D968C918111E0
:102C40000DC066E070E080E090E00E94ED1EDC01C7
:102C5000CB010196A11DB11DF401828BF394E4CF49
:102C6000F801838D8F5F838FD30115961C921E927E
:102C7000149756C2F8018289863059F083898630CC
:102C800051F08489863049F08589863041F088E0AA
:102C900007C084E005C085E003C086E001C087E08E
:102CA000D80151968C9341E0B701C8010E942924B4
:102CB00083E0DEC0D5FE2AC0D80151968C91519791
:102CC00088302CF055969C91963019F417C08730B7
:102CD00029F4F8019489963019F412C0863031F441
:102CE000D80153969C91963019F40CC0853059F454
:102CF000F8019289963039F484E005C087E003C07A
:102D000086E001C085E0D80151968C93D6FE2CC098
:102D1000F8019189943024F48289863019F41BC01B
:102D2000943031F4D80153968C91863019F415C043
:102D3000953029F4F8018489863019F410C0963052
:102D400039F4D80155968C91863059F497E00AC031
:102D5000973041F406C094E005C095E003C096E0CA
:102D600001C098E0F801918BD3FEDAC1D8015196E9
:102D7000EC91E4300CF4D4C1E83034F0E83009F0E0
:102D8000CFC1B12CD12C1EC0D8015B961C925B9791
:102D90000E2E000CFF0B3497E00FF11F158E868965
:102DA0008F5F868B82E06BC0F801EB0DF11D82898D
:102DB000813039F0D80E8689982F990F890F880FA6
:102DC000D80EB394D701ED91FC910480F581E02DEC
:102DD000C7010995FC018689B81630F3D801919690
:102DE0008C91811182E0D80EF801878590E08D19D1
:102DF00091098F31910514F08EE190E097FF02C0A8
:102E000080E090E0D8011F968C9340E0B701C801A4
:102E10000E942924F8018785811105C0B701C801E6
:102E20000E94E92D7DC1138E83E0868788E0818B27
:102E3000DD2099F01486C4010E942915811109C072
:102E4000F801848D811102C085E005C082E0D801BF
:102E50000CC184E0F801858763C1C4010E94291573
:102E6000811110C0D8015C968C91811106C085E05B
:102E7000F801848755C1D3FE53C182E0D8011C9666
:102E80008C934EC184E0F4CF84E0D8011E968C93DD
:102E9000D7FC02C0D5FE2BC0F8012189D701ED91E6
:102EA000FC910480F581E02DC7012A830995FC017E
:102EB0002A81243024F0838D811112C002C01216A1
:102EC000A4F4808D81110EC022307CF0818D81119F
:102ED0000BC0223051F0828D882339F022E005C0EA
:102EE00023E003C020E001C021E0F801218B8D2DFB
:102EF000807591F1D80151962C91D701ED91FC91FB
:102F00000480F581E02DC7012A830995FC012A81FF
:102F100023307CF4838D811116C027FF04C0808D7F
:102F2000882319F012C0121624F0818D882319F01D
:102F30000EC0213029F4828D882359F022E00AC086
:102F400028303CF007C023E005C020E003C021E0AA
:102F500001C028E0F801218BD3FEE2C0D8015196D0
:102F60008C91813081F11CF4882339F07BCF823041
:102F7000B9F1833009F441C075CFF501808D8150DE
:102F8000808FD8011F968C9190E00A978F31910520
:102F900014F08EE190E097FF02C080E090E0F8012D
:102FA000878740E0B701C8010E942924D8011F96F5
:102FB0008C911F97882309F431CF84E01E968C935F
:102FC0001E978AE05CCF82E0F801848F89E08487D5
:102FD000D50159968C915997815059968C93A0C0E0
:102FE00081E0F80181A38BE08487D5015A968C910A
:102FF0005A9781505A968C9393C08CE0F80184873D
:10300000D5015B968C915B9781505B968C935B9717
:1030100055968C91885F85310CF084E187FD80E0C6
:10302000F501858B7DC0F5018589082E000C990B73
:10303000D80150962C91821B91092289820F911DF3
:1030400027FD9A958531910514F084E190E097FF72
:1030500002C080E090E0F501858B892B49F481E086
:10306000D8011C968C931C9788E01D968C9358C0B1
:1030700040E0B701C8010E94292481E0F80184875B
:1030800082E0E9CED3FE12C021E051962C93D70105
:10309000ED91FC91A084B184B4010E943215898322
:1030A000BE016F5F7F4FC701F5010995D8015B969F
:1030B0008C915B978634A0F58F5F5B968C935B97C2
:1030C000863471F51C968C911C971E968C931E97D6
:1030D00087E0D5CED3FE24C021E051962C93D701B2
:1030E000ED91FC9100851185B4010E943215898310
:1030F000BE016F5F7F4FC701F8010EC0D3FE10C045
:10310000D701ED91FC910084F185E02D8EE089835B
:10311000BE016F5F7F4FC701099502C0D3FCA7CEE8
:103120000F900F90DF91CF911F910F91FF90EF9033
:10313000DF90BF90AF909F908F907F906F90089599
:10314000FC019581690F6583663038F08481843095
:1031500020F4655065838F5F848308958F929F92DA
:10316000AF92BF92CF92DF92EF92FF920F931F9395
:10317000CF93DF931F92CDB7DEB78C017B01DB01CC
:10318000ED91FC910480F581E02DCB0109954C0176
:10319000D701ED91FC910480F581E02DC7010995DF
:1031A0006C015C01B2E1AB0EB11CD701ED91FC9159
:1031B0000480F581E02DC7010995AC01F4019781E8
:1031C000909526819223D8011C962C91213009F4E8
:1031D00061C020F0223009F486C094C0F8018585D2
:1031E0008C3088F466E070E080E090E00E94ED1E94
:1031F000DC01CB010196A11DB11DF80186878585F3
:103200008F5F85877FC09685933019F128F49130C0
:1032100041F0923091F039C0943039F1953051F14C
:1032200034C0F60184898E5F8B300CF08AE087FD14
:1032300080E0D60154968C9328C0F60185898E5F74
:1032400085310CF084E187FD80E0D60155968C93A2
:103250001CC0F60183898F5F8B300CF08AE087FDFC
:1032600080E0D60153968C9310C062E0C5010E94A5
:10327000A0180BC0F60182898F5F86300CF085E0C4
:1032800087FD80E0D60152968C9381E0F801848717
:10329000158638C093FF05C086E4D8011D968C932F
:1032A00098E0F8012585263418F42F5F25872AC079
:1032B00093FF28C08685D701ED91FC91863070F48C
:1032C00000851185B501CA010D960E9432158983CA
:1032D000BE016F5F7F4FC701F80113C00084F18505
:1032E000E02D88E009C093FF0DC0D701ED91FC915E
:1032F0000084F185E02D8EE08983BE016F5F7F4FF2
:10330000C70109950F90DF91CF911F910F91FF9009
:10331000EF90DF90CF90BF90AF909F908F900895E7
:10332000CF92DF92EF92FF920F931F93CF93DF9391
:103330006C017A018B01C0E0D0E0CE15DF0589F089
:10334000D8016D918D01D601ED91FC910190F08134
:10335000E02DC6010995892B11F47E0102C021964A
:10336000ECCFC701DF91CF911F910F91FF90EF90AC
:10337000DF90CF9008950E94CD36DC01EC918E2F26
:1033800090E0FC013197EE30F10508F0CFC0ED5927
:10339000FF4F0C949A35EAE3F7E08FE0DF011D92CE
:1033A0008A95E9F7CF010E94AF1384E092E038C01C
:1033B000EAE3F7E080E1DF011D928A95E9F7CF01AA
:1033C0000E94AF1384EF91E090933B0780933A07FC
:1033D00010924607109247071092480786E08093A4
:1033E0004907A1C0EAE3F7E080E1DF011D928A9579
:1033F000E9F7CF010E94AF1384EE91E028C010924C
:103400003C0784E292E068C0EAE3F7E08FE0DF0186
:103410001D928A95E9F7CF010E94AF1384ED91E0E8
:1034200090933B0780933A07109246071092470704
:103430001092480778C0EAE3F7E080E1DF011D92CF
:103440008A95E9F7CF010E94AF1384EC91E0909345
:103450003B0780933A071092460710924707109255
:103460004807109249075FC0EAE3F7E084E1DF0113
:103470001D928A95E9F7CF010E94AF1384EB91E08A
:1034800090933B0780933A071092460710924707A4
:10349000109248071092490710924A0710924B0762
:1034A00010924C0710924D073EC0EAE3F7E086E029
:1034B000DF011D928A95E9F784EA91E090933B073A
:1034C00080933A0780E880933C0780E480933E072E
:1034D000CF01089584E192E090933B0780933A07EF
:1034E00022C0EAE3F7E082E2DF011D928A95E9F764
:1034F000CF010E94AF1384E991E090933B07809342
:103500003A0782E0809346078093470780934807F5
:103510008FEF80934B07109254071092550710922B
:10352000560710925B078AE397E0089580E090E0E9
:1035300008952F923F924F925F926F927F928F9257
:103540009F92AF92BF92CF92DF92EF92FF920F9332
:103550001F93CF93DF9300D000D000D0CDB7DEB75C
:103560007B014115510509F429C1FA01D490319626
:1035700074914E5F5F4FAD2DB0E0222309F1E72F2C
:10358000E695E695E695AE2EB12CE1E0F0E0372F1A
:10359000377011F4E0E0F0E0EA0DFB1DAE9F500142
:1035A000AF9FB00CBE9FB00C1124033011F4AA0CD5
:1035B000BB1C2A9DF0012B9DF00D11244E0F5F1FA7
:1035C0000F3F09F402E05C01AA0EBB1E1A141B0493
:1035D0000CF0F4C0803891050CF0F0C09701270F73
:1035E000311D121613060CF0E9C0F0E4EF16F104D9
:1035F0000CF0E4C04115510509F4E0C02E2D2770F0
:103600002D839701F7FE02C0295F3F4F63E0359598
:1036100027956A95E1F7F22FF7FE05C06D816623C5
:1036200011F0FFEFF20F97FF05C022273327281B69
:10363000390B02C020E030E0E0E8AE16B10424F01F
:1036400060E8762E781A01C07D2C721AEF2E0F2EAC
:10365000000CFF08FF3F1CF4CE2CC09401C0C12C0D
:10366000E1E0672F677009F4E0E07695769576954E
:103670009E2E970EE90CF11C69E0E616F1041CF091
:10368000E8E09E2E9F1A1C2D1F0F60E81603800D88
:10369000911D1124820F931F61E070E00D8002C024
:1036A000660F771F0A94E2F7033011F0E1E001C0E2
:1036B000E2E0EE2EF12CCD9C200D311D1124E29E76
:1036C0005001E39EB00CF29EB00C11246A01CA0CAA
:1036D000DB1C970121503109A20EB31E4A0D5B1D60
:1036E000BB24BA94B69E9001B79E300D11242901D7
:1036F00040945094F90DFE83A719B109EA9FA02DBB
:103700001124B0E0E79DA00DB11D11242E811217E8
:1037100009F454C09C012F5E3C4F4A015601612CB4
:10372000671409F443C0F5013490369EF001379ECA
:10373000F00D1124FA83E983E095F095FC83EB8387
:10374000023019F45C824B8210C00B3F19F41A82CC
:1037500019820BC0F4013490369EF001379EF00DB3
:103760001124E095F095FC83EB8317FD09C0F90166
:103770003080EB81E321F9813E2E3F2AF90130822E
:10378000FD81FF2359F017304CF4F901E058FF4F49
:1037900020803C8023203A80322830828E0C9F1C6F
:1037A000AE0CBF1C63942F5F3F4FBACF1F5FCA0E92
:1037B000DB1E4A0F5B1F80589F4FA8CF26960FB67F
:1037C000F894DEBF0FBECDBFDF91CF911F910F9157
:1037D000FF90EF90DF90CF90BF90AF909F908F9031
:1037E0007F906F905F904F903F902F9008954F92F1
:1037F0005F927F928F929F92AF92BF92CF92DF9211
:10380000EF92FF920F931F93CF93DF9300D000D0DE
:10381000CDB7DEB7DC014115510509F4BAC0FA0194
:10382000D490319634914D2C512C5C01A40CB51CD4
:103830001A141B040CF0ADC0803891050CF0A9C01F
:10384000CB01830F911D181619060CF0A2C060342D
:1038500071050CF09EC0F62FF770EF2ECB0177FDAF
:10386000079623E0959587952A95E1F7F82F77FF3E
:1038700004C0EE2011F0FFEFF80FB7FF05C0662778
:1038800077276A1B7B0B02C060E070E000E8A0169F
:10389000B10424F080E8F82EFA1A01C0FD2CF61AC3
:1038A000AF2E0F2E000CBB08FF3F1CF4CA2CC09497
:1038B00001C0C12C91E0832F877009F490E0369508
:1038C00036953695930FA90EB11C19E0A116B104D7
:1038D00014F098E09F1B8C2D8F0F9D01082F10E88E
:1038E0000103200D311D1124260F371F4E5F5F4F3E
:1038F000CD9C600D711D1124460F571F61E070E0D3
:103900000E2C02C0660F771F0A94E2F7EFEFE69FD6
:10391000D001E79FB00D1124A095B095BC83AB8377
:103920007C809F0F8917A9F1F901EF5EFC4F6F01B1
:10393000A12CB12CAF1438F5FA01EA0DFB1DE4916E
:10394000E69F4001E79F900C11249A82898287FDAF
:1039500007C0F6011081E12FEA238E2AF60180824A
:10396000EE2051F0873044F4F601E058FF4F90808C
:1039700097208A8098289082FFEFAF1ABF0A0FEF36
:10398000C01AD00AD7CF8F5F440D551D20583F4F26
:10399000C9CF0F900F900F900F90DF91CF911F9193
:1039A0000F91FF90EF90DF90CF90BF90AF909F90DE
:1039B0008F907F905F904F900895EF92FF920F93BA
:1039C000CF93DF937C01EB0121E049E067E370E0F6
:1039D000CE010E940A2B21E049E06FE370E0CE01A6
:1039E0000E940A2B01E029E047E350E0BE01C70135
:1039F0000E946B2BBE01685F7F4F29E047E350E0D8
:103A0000C7010E946B2BDF91CF910F91FF90EF9038
:103A100008952F923F924F925F926F927F928F9272
:103A20009F92AF92BF92CF92DF92EF92FF920F934D
:103A30001F93CF93DF93CDB7DEB761970FB6F8949E
:103A4000DEBF0FBECDBF7C014A01FA013491319631
:103A5000E491832F8F778F5F282E312CC701820D41
:103A6000931D97FDA1C1F0E8EF16F1040CF09CC185
:103A70008E2F8F738F5FAB01480F511D57FD94C17F
:103A8000603471050CF090C1331F3327331F3B8323
:103A900031E0E6FF30E0EE1FEE27EE1FEF83AB01D3
:103AA00077FF04C044275527461B570B5A0117E0E0
:103AB000A122BB24AB0177FF02C0495F5F4FDA014F
:103AC00053E0B595A7955A95E1F7BA83A98377FF97
:103AD0000CC0A114B10449F01197BA83A98348E03E
:103AE00050E0FA01EA19FB095F0141E050E06A0188
:103AF0000A2C02C0CC0CDD1C0A94E2F7D986C886D9
:103B0000982F969596959695877011F4892F02C0F7
:103B100081E0890F482F880F550B5E834D83502F0E
:103B200052705A8701FF06C0AD81BE81119781E0B6
:103B3000382702C0A0E0B0E0602F61706C8300FF06
:103B400004C0B1016150710902C060E070E097E00B
:103B500040E150E080E0612C712C8101015011099D
:103B60001C870B870D811E81A017B1070CF01CC1AB
:103B7000B7FD1AC18A01CC24C394D12CF80143E0CB
:103B8000F695E7954A95E1F7E80DF91DE491F0E027
:103B9000A8014770552702C0F595E7954A95E2F7C9
:103BA000A8014F5F5F4FE0FF05C01FEFC11AD10AA8
:103BB0008A01E4CFE1E0CE16D104E9F4FA01F695EA
:103BC000E795F695E795F695E795E80DF91DE491EB
:103BD000F0E0477055272F0102C0559447944A954D
:103BE000E2F7F1E04F2255244FEF441A540AA8019E
:103BF0004E5F5F4F41C08601015011091E870D873E
:103C000044244394512C0D8402C0440C551C0A9446
:103C1000E2F71FEF411A510A00E010E0FA01F695B1
:103C2000E795F695E795F695E795E80DF91DE4918A
:103C3000CE2ED12CD98AC88A6A01E7E0CE22DD24B3
:103C4000E889F98902C0F595E795CA94E2F7E0FFA3
:103C50000AC0E1E0F0E0002E02C0EE0FFF1F0A9460
:103C6000E2F74E0E5F1E4F5F5F4F0F5F1F4FCD8419
:103C7000DE840C151D0594F2C12CD12CC414D5047E
:103C800009F48CC00B81002369F0E92FF0E03111B9
:103C900005C007E010E00E1B1F0BF801E857FE4FB0
:103CA000E0818E2B915008F075C0882309F44AC03A
:103CB00019811A0F1F8718300CF044C0FB01EE0D5C
:103CC000FF1DE038F105F0F508851985809FF001AA
:103CD000819FF00D1124FE87ED871F8517FD15C00C
:103CE000C701012F10E80103800D911D1124860FDB
:103CF000971FFC01EF5EFC4F80819D85222311F010
:103D0000892B02C0909589238083A114B104D1F03E
:103D1000EF85E730B9F0EF3FACF0C7010E2F10E8A8
:103D20000103800D911D1124860F971FFC01EF5692
:103D3000FC4F80819E85222311F0892B02C0909533
:103D4000892380830F81002311F011E031278FEF49
:103D5000681A780A9C81992319F06150710902C090
:103D60006F5F7F4F6214730464F00A85002311F0C3
:103D7000119701C011961C81112331F06B857C8550
:103D800005C097E080E006C060E070E097E080E06A
:103D9000612C712CEFEFCE1ADE0A70CFCC24C394C5
:103DA000DB80CD18CB82DECE61960FB6F894DEBFF5
:103DB0000FBECDBFDF91CF911F910F91FF90EF907C
:103DC000DF90CF90BF90AF909F908F907F906F903B
:103DD0005F904F903F902F900895CF93DF9300D046
:103DE00000D0CDB7DEB7611571058105910579F079
:103DF0009B01AC0169833A834B835C830E94FF344F
:103E000029813A814B815C810E94233503C060E0A7
:103E100070E0CB010F900F900F900F90DF91CF913A
:103E20000895EF92FF920F931F93CF93DF938C012E
:103E30007B01C0E0D0E0F701EC0FFD1F6491662329
:103E400061F0D801ED91FC910190F081E02DC80165
:103E50000995892B11F02196EECFCE01DF91CF91FC
:103E60001F910F91FF90EF9008956115710579F002
:103E7000FB0101900020E9F73197AF01461B570B7A
:103E8000DC01ED91FC910280F381E02D099480E04A
:103E900090E008954F925F926F927F92EF92FF921F
:103EA0000F931F93CF93DF93CDB7DEB7A1970FB6D4
:103EB000F894DEBF0FBECDBF7C01FA01CB0119A281
:103EC000223008F42AE08E010F5D1F4F422E512C44
:103ED000612C712CBF01A30192010E945535F9019B
:103EE000CA01015011096A3014F4605D01C0695CB7
:103EF000D8016C93232B242B252B61F7B801C70124
:103F00000E94351FA1960FB6F894DEBF0FBECDBF3D
:103F1000DF91CF911F910F91FF90EF907F906F9065
:103F20005F904F900895CF92DF92EF92FF920F93A0
:103F30001F93CF93DF936B01770FEE08FF08F7FE17
:103F40001FC0EC01E881F9810190F081E02D6DE264
:103F500009958C0144275527BA014C195D096E0952
:103F60007F092AE0CE010E944A1F800F911FDF9136
:103F7000CF911F910F91FF90EF90DF90CF90089518
:103F80002AE0B701A601DF91CF911F910F91FF9019
:103F9000EF90DF90CF900C944A1F3FB7F894809138
:103FA0000D0390910E03A0910F03B091100326B55D
:103FB000A89B05C02F3F19F00196A11DB11D3FBF61
:103FC000BA2FA92F982F8827820F911DA11DB11DEF
:103FD000BC01CD0142E0660F771F881F991F4A95EB
:103FE000D1F70895FC012081620F6B300CF06AE07C
:103FF00067FD60E0FC01608308950F931F93CF93EA
:10400000DF931F92CDB7DEB78B01DB01ED91FC9101
:104010000480F581E02DCB010995FC0127812095D5
:104020009681822F892383FF0DC0D801ED91FC91E9
:104030000084F185E02D8CE08983BE016F5F7F4FA6
:10404000C80109950F90DF91CF911F910F910895AD
:1040500008950F93CF93DF93EB01E881F9810480FA
:10406000F581E02DCB01099500E021E047E458E01F
:1040700060E070E080E090E00E94091D01E021E036
:1040800047E458E060E070E080E490E00E94091DA1
:10409000E881F9810480F581E02DCE010995FC01CC
:1040A000808100E021E08E3039F446EC57E065E194
:1040B00070E08DE190E006C042EC56E06FE070E009
:1040C00088E190E00E94091DDF91CF910F91089542
:1040D0004F925F926F927F928F929F92AF92CF9208
:1040E000EF92FF920F931F93CF93DF933C01EB016D
:1040F000E881F9810480F581E02DCB0109954C011F
:10410000E881F9810480F581E02DCE010995F40163
:104110008481958168E170E00E9486352C0140E041
:10412000BE01C3010E94FA1200E021E047EB5BE010
:1041300060E070E080E090E00E94091DF301958549
:10414000AA24A3949111A12C01E0913009F000E080
:1041500021E0923009F020E041E0F30184858130D4
:1041600009F040E0C12CE12CBE01C3010E94C61140
:10417000FDE04F16510408F45AC0F30185858130E3
:1041800039F0823041F4DFE3C0E007E512E307C015
:10419000DFE3C4E202C0D2E2C0E000E310E0F12EAF
:1041A0006C2E712C2401FFEF4F1A5F0A0F1550F08F
:1041B0006F2D70E020E0A301C2010E944D2BF3940B
:1041C000F394F4CFF12E6D2E712C24018FEF481A49
:1041D000580A0F1550F06F2D70E020E0A301C201C6
:1041E0000E944D2BF394F394F4CF7C2EE12EF12C0E
:1041F0002401EFEF4E1A5E0AD71550F0472D50E01C
:1042000020E0B701C2010E944D2B73947394F4CF48
:1042100010E0FFEF8F1A9F0ADC1748F04C2F50E098
:1042200020E0B801C4010E944D2BCE5FF5CFDF9195
:10423000CF911F910F91FF90EF90CF90AF909F90F3
:104240008F907F906F905F904F9008956F927F92C4
:104250008F929F92AF92BF92DF92EF92FF920F9355
:104260001F93CF93DF931F92CDB7DEB78C017B01F5
:10427000DB01ED91FC910480F581E02DCB010995E6
:104280003C01D701ED91FC910480F581E02DC7013F
:1042900009955C014C01B2E18B0E911CD701ED91A7
:1042A000FC910480F581E02DC70109959C01F30183
:1042B000D780D0948681D822D8011C969C919923CE
:1042C00021F0913009F44AC07AC0D5FE06C0F80149
:1042D0008585823011F486858587D6FE0CC0D8018D
:1042E0001D968C911D97823031F01E968C931E97EF
:1042F00082E01D968C93D4FE0CC0F8018585811157
:1043000008C081E08587D7FE0AC0D8011D961C929F
:1043100006C0D7FE04C0F80185858130B1F3D3FE15
:104320004EC0D8011D968C91813069F038F08230F2
:1043300089F461E0C4010E94A0180CC0F5018389D2
:104340008F5F838B07C0D50155968C9155978E5FF3
:1043500055968C9381E0F801848731C05901FDE0C6
:10436000AF0EB11CD8011F969C911F979634A8F4EC
:104370009F5F1F969C93963481F4D701ED91FC9139
:1043800000851185B401C5010E9432158983BE01E3
:104390006F5F7F4FC701F8010995D3FE10C0D701A9
:1043A000ED91FC9100851185B401C5010E94321583
:1043B0008983BE016F5F7F4FC701F80109950F9098
:1043C000DF91CF911F910F91FF90EF90DF90BF9001
:1043D000AF909F908F907F906F9008958F929F9253
:1043E000AF92CF92EF92FF920F931F93CF93DF93F1
:1043F000EC014B01DB01ED91FC910480F581E02D96
:10440000CB0109957C01D401ED91FC910480F581EB
:10441000E02DC401099541E0B401CE010E94FA12D9
:1044200000E020E047E75BE060E070E087E290E0DA
:104430000E94091D21E04CE55AE060E070E087E24F
:1044400090E00E94091D21E043E36CE370E083E209
:1044500090E00E940A2B03E210E0BFEFEB1AFB0A88
:1044600021E04EE350E0B801C7010E944D2B0E5FE2
:104470001F4F09351105A1F704E210E021E04FE3D9
:1044800050E0B801C7010E944D2B0E5F1F4F083549
:104490001105A1F78C85882329F0813031F445E39B
:1044A00059E005C045EA59E002C040E050E000E0B4
:1044B00021E061E070E082E090E00E94091D6D85DE
:1044C00088E0689FB0011124695F7F4F49E55AE099
:1044D00082E090E00E94F71B6D85A8E06A9FB00122
:1044E0001124695F7F4F49E55AE081E290E00E9424
:1044F000F71B8E858823D1F08AE1E82E00E427E1BE
:104500004FE1B401CE010E94421384E28E838F8377
:104510008CE18887EE85F0E0EE0FFF1FE25CFD4F37
:1045200060817181CE0102960E94111FAA88C988FC
:10453000EB8808892F8541E0B401CE010E94C611A5
:10454000DF91CF911F910F91FF90EF90CF90AF909F
:104550009F908F9008954F925F927F928F929F923B
:10456000AF92BF92CF92DF92EF92FF920F931F9381
:10457000CF93DF9300D0CDB7DEB78C016B01DB01A9
:10458000ED91FC910480F581E02DCB0109952C0182
:10459000D601ED91FC910480F581E02DC6010995CD
:1045A0007C014C01B2E18B0E911CD601ED91FC9186
:1045B0000480F581E02DC60109955C01F201778048
:1045C00070948681782219F0D8011E961C92F80109
:1045D0008485882321F0813009F4C2C007C177FEA9
:1045E00005C08585882311F08150858774FE06C03B
:1045F000F8018585863010F48F5F858773FEF6C0DD
:10460000D8011D962C91223009F445C028F42223AC
:1046100051F0213031F195C0263008F456C02630D3
:1046200009F472C08EC0F7018489811102C081E053
:1046300005C0F70183898A3029F483E0D8011E96EA
:104640008C937FC081E0F801828BD70153968C91C7
:104650008F5F8B300CF08AE087FD80E0F701838B61
:1046600018C0D70154968C915497882301F355961E
:104670008C915597843109F3F801208B55968C91D4
:104680008F5F85310CF084E187FD80E0D70155967E
:104690008C936FEF15C0F7018489833044F28589CC
:1046A000843159F281E0D80150968C9385898C5FD2
:1046B00085310CF084E187FD80E0F701858B6DEF9B
:1046C000C70144960E94F21F3CC0D70154968C91BA
:1046D00088300CF4ACCFC4012A830E9429152A81AA
:1046E000823008F0AACFE22FF0E03397EE0DFF1DE5
:1046F000808D8F5F808F68EFC70144960E94F21F04
:1047000081E0F801818B1DC0D70154968C9154979C
:1047100086300CF48CCF52968C9185300CF08DCF76
:104720008F5F86300CF085E087FD80E0F701828B9B
:104730006AEFC70144960E94F21F81E0D8015396A8
:104740008C93F8018089811131C0878581112EC039
:10475000828981112BC08389882309F447C026C030
:1047600077FE06C0F8018585882311F08150858782
:1047700074FE09C0D8011D968C911D97843018F4E1
:104780008F5F1D968C9373FE31C0F8018585833051
:1047900090F4F701E80FF11D808D882389F0815096
:1047A000808F64E0C70144960E94F21F81E0D80127
:1047B00051968C931BC0D70152968C91181624F0F9
:1047C00082E0F801868712C0815086300CF085E0C7
:1047D000F701828B63E0C70144960E94F21F81E0DB
:1047E000D80151968C93519753968C93872D807650
:1047F00059F081E0F8019485911180E0D8011C9670
:104800008C931C971D961C9272FE11C0D601ED91DF
:10481000FC9100851185B401C5010D960E943215E9
:104820008983BE016F5F7F4FC601F80109950F9024
:104830000F90DF91CF911F910F91FF90EF90DF903C
:10484000CF90BF90AF909F908F907F905F904F9050
:104850000895DF92EF92FF920F931F93CF93DF9310
:104860001F92CDB7DEB78C017B01D12CD701ED9122
:10487000FC910480F581E02DC70149830995FC0175
:1048800086894981D81690F4F801ED0DF11D458F08
:1048900041110AC0168AD8015C969C915C979923B5
:1048A00019F091505C969C93D394E0CF0F90DF91D8
:1048B000CF911F910F91FF90EF90DF9008956F922D
:1048C0007F928F929F92AF92BF92CF92DF92EF92A0
:1048D000FF920F931F93CF93DF93EC014B01DB010A
:1048E000ED91FC910480F581E02DCB0109955C01EF
:1048F000D401ED91FC910480F581E02DC40109956E
:104900007C01D401ED91FC910480F581E02DC4017E
:104910000995F5016480758041E0B401CE010E94E3
:10492000FA1200E021E04CED53E168E270E080E033
:1049300090E00E94091D21E048EC53E168E270E03C
:104940008FE490E00E94091D69E0C62ED12C00E0A2
:1049500021E04FEA53E168E270E0C6010E94091DC0
:10496000FEE0CF0ED11C8FE4C816D10481F78C85F0
:10497000823009F469C050F0833009F4ABC0843050
:1049800009F0D1C0CE010E943A13CDC013E01E83BE
:104990001F8318876E01A2E0CA0ED11C63EA73E17F
:1049A000C6010E94111F82E48E838F8318872E8593
:1049B00043E253E162E070E083E390E00E94C029AB
:1049C0008C85813009F0AFC0C30168E170E00E94BE
:1049D00086359C0191E02D30310508F490E08D85FD
:1049E000863410F4911119863E85F7012689231724
:1049F00098F0863470F4992361F0EE24E39407E094
:104A00002FE043E050E060E470E0C50101960E94B1
:104A10009B2B6FE173E112C0863470F4992361F02F
:104A2000EE24E39407E02BE043E050E060E470E024
:104A3000C50101960E949B2B6CE173E1C6010E94A7
:104A4000111F81E089876FC0ED85F0E0EE0FFF1F39
:104A5000ED58FD4F4081518100E021E068E070E0B9
:104A60008CE190E00E94091DED85ED3010F5F0E03D
:104A7000EA59FD4F8081882309F455C010E0312F99
:104A8000330F8D8590E0FC01EA59FD4F208112170C
:104A900008F049C04096880F991F00E021E04DE0E2
:104AA00053E168E070E0830F911D0E94091D1F5FB4
:104AB000E6CFEE85F0E0EE0FFF1FE85AFD4F408194
:104AC000518100E021E06AE070E08EE190E00E9418
:104AD000091D29C000E021E04FEC52E168E070E0E0
:104AE0008CE190E00E94091DEE85F0E0EE0FFF1FC3
:104AF000E85AFD4F4081518121E06AE070E08EE18B
:104B000090E00E94091D84E08E838F831886EE85D5
:104B1000F0E0EE0FFF1FE45BFD4F60817181CE017D
:104B200002960E94111F8E85AA24A394813009F059
:104B3000A12CCC24C394823009F0C12CEE24E39440
:104B4000833009F0E12C01E0843009F000E021E03D
:104B5000853009F020E08C85833021F441E08D859B
:104B6000863408F040E0B401CE010E94C611DF9106
:104B7000CF911F910F91FF90EF90DF90CF90BF905A
:104B8000AF909F908F907F906F900895AF92BF925B
:104B9000CF92DF92EF92FF920F931F93CF93DF9309
:104BA00000D01F92CDB7DEB78C016B01DB01ED9118
:104BB000FC910480F581E02DCB0109955C01D601C3
:104BC000ED91FC910480F581E02DC60109957C01F1
:104BD000BC016E5E7F4FD601ED91FC910480F581A2
:104BE000E02DC6016A837B830995FC01AC01435F1C
:104BF0005F4FD50117962C911797209516969C918B
:104C00002923D8011C969C916A817B81923069F19D
:104C100028F4992351F1913041F0E1C0933009F427
:104C2000B7C0943009F4CCC0DAC0922F987023FF3B
:104C300003C086E4F8018587D8011D968C911D97E5
:104C4000863420F48F5F1D968C93C9C0992309F494
:104C5000C6C0F8019685D70156968C91891708F041
:104C6000A0C0D801158682E086C0D8011D968C911F
:104C70008D3078F466E070E080E090E00E94ED1EF8
:104C8000DC01CB010196A11DB11DF8018687858548
:104C900083C0923009F072C0D8011E969C91933067
:104CA00021F128F4913049F0923099F055C09530B7
:104CB000A1F138F19630C1F14FC0F70183898150DD
:104CC0008B300CF08AE087FD80E0D70153968C93FF
:104CD00043C0F701848981508B300CF08AE087FD56
:104CE00080E0D70154968C9337C0F7019289915098
:104CF00096300CF095E097FD90E0D70152969C938A
:104D00002BC0F7019589915095310CF094E197FDF6
:104D100090E0D70155969C931FC0F7018789823098
:104D2000D8F08150878B18C0D70155969C9192502E
:104D3000953114F094E102C097FD90E0D7015596AB
:104D40009C93992349F09685943020F09A3020F472
:104D50009D5F01C09E5F9687F701858918164CF408
:104D6000D50115961C921E921497F801158683E0C2
:104D70000DC084E0D8011C968C9331C0F8011586D3
:104D8000D50115961C921E92149781E0848727C046
:104D9000F8018585863418F48F5F858720C023FF4E
:104DA0001EC0D601ED91FC9100851185CA010E94BB
:104DB00032158983BE016F5F7F4FC601F8010EC0B7
:104DC00023FF0DC0D601ED91FC910084F185E02D0B
:104DD0008EE08983BE016F5F7F4FC60109950F90FA
:104DE0000F900F90DF91CF911F910F91FF90EF9057
:104DF000DF90CF90BF90AF900895EF92FF920F9306
:104E0000CF93DF93EB01E881F9810480F581E02DF8
:104E1000CB010995E881F9810480F581E02DCE016F
:104E200009957C01E881F9810480F581E02DCE01AE
:104E3000099500E021E041EE51E160E070E080E0A2
:104E400090E00E94091D01E021E041EE51E160E0A7
:104E500070E080E490E00E94091D00E021E04CE653
:104E600051E161E170E08CE190E00E94091D21E0D8
:104E700041E351E168E370E083E190E00E94091DA5
:104E8000F7012585243050F430E0F901E65BFD4F51
:104E90008081F901EA5BFD4F408102C040E080E083
:104EA00021E06FE370E090E0DF91CF910F91FF90F0
:104EB000EF900C940A2BAF92BF92CF92DF92EF92B9
:104EC000FF920F931F93CF93DF931F92CDB7DEB75F
:104ED0006C018B01DB01ED91FC910480F581E02DEB
:104EE000CB0109955C01D801ED91FC910480F5811D
:104EF000E02DC80109957C01D801ED91FC91048059
:104F0000F581E02DC8010995FC01D50116962C917B
:104F1000169717969C9190959223D60124FF0BC06B
:104F200012968C911297803120F48F5F12968C9399
:104F300004C00E94B92A12961C9295FF05C085856F
:104F4000882311F08150858796FF05C085858330C1
:104F500010F48F5F858793FF4DC09585990F990F4A
:104F6000F701178AE92FF0E0EF5DFE4EE491D701DB
:104F70005296EC935297E1E0E90FF0E0EF5DFE4EC0
:104F8000E4915596EC935597E2E0E90FF0E0EF5D80
:104F9000FE4EE4915496EC9354979D5FE92FF0E018
:104FA000EF5DFE4EE4915396EC935397DD24D3943A
:104FB0005696DC92D801ED91FC910480F581E02DAC
:104FC000C8010995FC0116861786118A108A108E71
:104FD000118E128E138ED68A178AD801ED91FC910C
:104FE0000084F185E02D8AE08983BE016F5F7F4FE9
:104FF000C80109950F90DF91CF911F910F91FF90FC
:10500000EF90DF90CF90BF90AF90089508950895EE
:105010000F93CF93DF93EC01DB01ED91FC910480C2
:10502000F581E02DCB01099500E021E048E456E14F
:1050300068E070E08EE090E00E94091DEE85F0E0EF
:10504000EE0FFF1FE557FD4F4081518121E06FE0DA
:1050500070E083E290E00E94091DDF91CF910F91F3
:1050600008955F926F927F928F929F92AF92BF92BC
:10507000CF92DF92EF92FF920F931F93CF93DF9324
:105080001F92CDB7DEB78C016B01DB01ED91FC9176
:105090000480F581E02DCB0109953C01D601ED910D
:1050A000FC910480F581E02DC60109957C015C012D
:1050B000B2E1AB0EB11CD601ED91FC910480F581FB
:1050C000E02DC60109954C01F3015780509486816B
:1050D0005822D8011C968C91823020F0823009F43D
:1050E000D8C0F3C0F8018585813110F553FE20C08A
:1050F00081E18587C5010E942915823061F462E053
:1051000070E080E090E00E94ED1EDC01CB0105968E
:10511000A11DB11D0BC066E070E080E090E00E9430
:10512000ED1EDC01CB010196A11DB11DF8018687A2
:10513000D8011D96EC91E13190F5F0E0E25DFA4E78
:10514000649170E0F301848195810E948635892BFA
:1051500009F0BBC0C5010E942915823061F462E0EC
:1051600070E080E090E00E94ED1EDC01CB0105962E
:10517000A11DB11D0BC066E070E080E090E00E94D0
:10518000ED1EDC01CB010196A11DB11DF801868742
:1051900085858F5F8587F3011582148296C0D801BB
:1051A0001C969C911C971E968C911E97913009F02D
:1051B00050C01F969C938330E1F060F48130A1F0E1
:1051C000823079F5D70159968C9159978F5F59960E
:1051D0008C9327C08530D1F088F0863011F562E0DD
:1051E000C5010E94A0181DC0F701808D8F5F808FC0
:1051F00018C0F701828D8F5F828F13C0D7015B9635
:105200008C915B978F5F5B968C930BC0F7018289C3
:105210008F5F86300CF085E087FD80E0D7015296E5
:105220008C93F801158682E08487D40151968C9185
:10523000811102C081E001C082E0F7019489890FE9
:105240008B300CF08AE087FD80E0D70154968C9378
:105250003CC0853030F053FE38C0F801158681E03F
:1052600016C0D40151968C91811102C081E001C019
:1052700082E0F7019489890F8B300CF08AE087FD7A
:1052800080E0D70154968C93F801158682E08487DC
:105290001CC0D8011D968C911D97863418F48F5F21
:1052A0001D968C9353FE11C0D601ED91FC910085A3
:1052B0001185B501C4010D960E9432158983BE0186
:1052C0006F5F7F4FC601F80109950F90DF91CF9175
:1052D0001F910F91FF90EF90DF90CF90BF90AF9014
:1052E0009F908F907F906F905F9008951F920F9284
:1052F0000FB60F9211242F933F938F939F93AF93E9
:10530000BF9380915D0790915E07A0915F07B09178
:1053100060073091610723E0230F2D3720F40196B9
:10532000A11DB11D05C026E8230F0296A11DB11DC8
:105330002093610780935D0790935E07A0935F07BA
:10534000B093600780910D0390910E03A0910F031D
:10535000B09110030196A11DB11D80930D03909390
:105360000E03A0930F03B0931003BF91AF919F91D1
:105370008F913F912F910F900FBE0F901F90189516
:105380000F9302E00E94991A0F9108950F93CF9303
:10539000DF93EC01DB01ED91FC910480F581E02DC0
:1053A000CB01099589E08B8783E08E838F8382E030
:1053B00088872E854DEA57E161E070E080E390E058
:1053C0000E94C02900E021E045E257E160E170E081
:1053D0008EE090E00E94091D2E85CE0102962530B8
:1053E00018F069E974E102C068E774E10E94111FD6
:1053F00088E08B87DF91CF910F9108956F927F9214
:105400008F929F92AF92CF92EF920F93CF93DF93B1
:10541000EC014B01DB01ED91FC910480F581E02D65
:10542000CB0109953C01D401ED91FC910480F581FB
:10543000E02DC4010995F3016480758041E0B40159
:10544000CE010E94FA1200E021E04BE455E160E059
:1054500070E080E090E00E94091D8C85813079F138
:1054600018F0823021F12FC08D85813118F500E0D0
:1054700021E045E257E160E170E08EE090E00E94BB
:10548000091D0AEF2E854DEA57E161E070E080E3E7
:1054900090E00E94991A83E08E838F8382E0888750
:1054A0006FE375E1CE0102960E94111F0CC08F853B
:1054B000811105C0B401CE010E94C62904C0B40107
:1054C000CE010E9408289E85EE24E394953009F0D1
:1054D000E12C0F85002321F001E0943009F000E079
:1054E00021E0963009F020E08C85823021F441E003
:1054F0008D85863408F040E0A12CCC24C394B401FF
:10550000CE010E94C6118C85823041F58F8588239B
:1055100029F18D85863410F5C30168E170E00E94A1
:1055200086350D97D8F088E08E838F831886EE85B8
:10553000E150F0E0EE0FFF1FE756FD4F60817181F3
:10554000CE010296DF91CF910F91EF90CF90AF9067
:105550009F908F907F906F900C94111FDF91CF914F
:105560000F91EF90CF90AF909F908F907F906F9022
:105570000895F89487E78093000880930108A89520
:1055800088E18093600088E080936000FFCF8F9275
:105590009F92AF92BF92CF92DF92EF92FF926C01F7
:1055A000E12CF12C0E94CD1F4B015C01C114D104F0
:1055B000E104F104F1F00E94CD1FDC01CB01881958
:1055C0009909AA09BB09883E9340A105B10570F36A
:1055D00021E0C21AD108E108F10888EE880E83E0C4
:1055E000981EA11CB11CC114D104E104F10419F7E7
:1055F000DDCFFF90EF90DF90CF90BF90AF909F9066
:105600008F9008958FB18095807F669B88601C9BEA
:1056100084600895FC01840F911D18161906E4F5A5
:10562000E038F105CCF5F7FF02C0E0E0F0E08138AA
:10563000910514F080E890E0382F3E1BAB0177FF16
:1056400002C0495F5F4F83E0559547958A95E1F722
:105650005695542F442757954795E40FF51FEF5E55
:10566000FC4F6770772781E090E001C0880F6A9552
:10567000EAF7482F222349F0213071F4315020F00D
:105680008081842B8193FACF08958095315020F04A
:10569000908198239193FACF089560387105D0F4E2
:1056A00040345105B8F4EDE2F8E180E1849FD00187
:1056B000A0781124A60F4770E40FF11D8491AF5E0E
:1056C000BC4F222319F06C91862B03C080956C91FE
:1056D00086238C930895AF92BF92CF92DF92EF9280
:1056E000FF920F93CF93DF936C015B017A01E20E7F
:1056F000F11CEA0157FF0DC0C0E0D0E00AC0C4179A
:10570000D5077CF4202FAE01B501C6010E944D2BB8
:105710002196A70181E4E816F1048CF340E450E0FF
:10572000EECFDF91CF910F91FF90EF90DF90CF9070
:10573000BF90AF9008958F929F92AF92BF92CF92F9
:10574000DF92EF920F931F93CF93DF935C014A0197
:10575000102FEB016B01C20ED11CCC15DD054CF4F2
:105760000E2D212FA401BE01C5010E946B2B219695
:10577000F4CFDF91CF911F910F91EF90DF90CF90F9
:10578000BF90AF909F908F9008956F927F928F926D
:105790009F92AF92BF92CF92DF92EF92FF920F93C0
:1057A0001F93CF93DF93EC014B01DB01ED91FC9153
:1057B0000480F581E02DCB0109955C01D401ED91C8
:1057C000FC910480F581E02DC40109956C01D401A0
:1057D000ED91FC910480F581E02DC4010995F5015E
:1057E0008481958164E170E00E948635FF24F39402
:1057F0000B9708F4F12C41E0B401CE010E94FA129B
:1058000000E021E042E95DE160E070E080E090E0EE
:105810000E94091DD401ED91FC910480F581E02DD9
:10582000C4010995FC018081873059F0883011F05E
:10583000863071F442E75BE179E5672E7CE1772EF3
:105840000BC046E35BE167EA662E6BE1762E04C08F
:1058500040E050E0612C712C00E020E060E070E05E
:105860008AE390E00E94091D21E0A30160E070E05E
:105870008AE390E00E94091D21E049E05DE160E0DB
:1058800070E083E290E00E94091D8C85811114C0B4
:10589000FF2091F019868F858A3010F02AE001C030
:1058A00025E0EE24E39407E042E050E064E170E09C
:1058B000C50101960E949B2B15E11E831F8382E088
:1058C00088873E01F2E06F0E711C4F8550E060E06A
:1058D00070E02AE0C3010E944A1F81E089871E838D
:1058E0001F838AE08887488950E060E070E02AE002
:1058F000C3010E944A1F8C85843021F08E8584303C
:1059000009F041C000E021E04AED5AE163E170E0B6
:1059100080E090E00E94091D15E11E831F8387E14E
:105920008887D60158964C9150E060E070E02AE0FC
:10593000C3010E944A1F1E831F8381E28887F601EC
:10594000418D50E060E070E02AE0C3010E944A1FF0
:105950001E831F838BE28887D6015A964C9150E0B4
:1059600060E070E02AE0C3010E944A1F1E831F838B
:1059700085E38887F601438D50E060E070E02AE01F
:10598000C3010E944A1F8C858250823038F08E8578
:10599000833021F089898830D1F417C010E0D60116
:1059A00056968C911817B0F7FE01E10FF11D2AE011
:1059B000129FC001112422894AE55AE164E370E094
:1059C00003960E94C0291F5FEACFFF20B9F08C85A3
:1059D000833049F4F6018689880F982F990F990F23
:1059E000890F8D5F03C0843049F48AE120E044E5EB
:1059F0005AE165E370E090E00E94C0298C858350F5
:105A0000823008F5F1101FC0698967FD1CC0643041
:105A10005CF06830C4F4660FF4E06F9F600D1124F1
:105A20008BED860F64E307C0660F862F880F880F03
:105A3000680F6A5E83E070E003E020E04EE25AE126
:105A400090E00E94991A01E08C85813009F000E015
:105A5000A12CC12CE12C20E041E0B401CE010E9438
:105A6000C6118C85883028F4863018F58130E1F035
:105A7000A1C0883009F47AC08D3008F09BC080E264
:105A8000E82E04E621E14FE0B401CE010E9442136A
:105A900084E18E838F8385E18887EC85F0E0EE0FCB
:105AA000FF1FEF55FD4F73C08D85883009F082C010
:105AB0005DC0D401ED91FC910480F581E02DC4011D
:105AC0000995CC24C394FC018081873011F0C12C4E
:105AD00005C0EE24E3948A8D853009F0E12C8C8595
