:100000000C941B100C9443100C9443100C9443104C
:100010000C9443100C9443100C9443100C94431014
:100020000C9443100C9443100C9443100C94431004
:100030000C9443100C9443100C9443100C944310F4
:100040000C9443100C9443100C9443100C944310E4
:100050000C9443100C9443100C9443100C944818C7
:100060000C9443100C9443100C9443100C944310C4
:100070000C9443100C9443100C9443100C944310B4
:100080000C947A120C9443100C9443100C9443106B
:100090000C9443100C9443100C9443100C94431094
:1000A0000C9443100C9443100C9443109F33BC33B6
:1000B000D933F63311342C342C342C34B034493445
:1000C00066347D3494349434461D461D581DCF1D2E
:1000D000981E3F1F661F7C1F861F8C1F8F1F8F1F40
:1000E0008F1F090F970593490010900020200140B1
:1000F000E0305F0020002000020002200000090F15
:100100002F174C260212000424C0BB7D07000400F8
:1001100001400000090F5F5C309904F8DE7E0000AA
:1001200000090F5F5E30F9FABE03090F5F5C30997A
:100130007C75BF03090F2F174C2693C9E4F5FE1EEB
:10014000090F970593C96432994CAEFBFB090FFC6C
:100150007900090F5F5C3CFBDE7B090F5F5A3CFFB7
:10016000CE7700090F2F169FBD7F1F090F2EFE2C83
:100170000F0FBF74C1E4D7EE3B0F0FBF6CC16432E9
:10018000F975FB3D0F0FBF64C16432994C7ECDFE03
:100190001E0F0F5F5E30994C2693C9E4EBFBFB0FFB
:1001A0000F5F5A30994C2693C96432F9DAFE3D0F3D
:1001B0008FEF56B82137E486DC901B72E3E1FE7DB9
:1001C0000F8F7B851B72436EC80DB92137E4C66162
:1001D000FF5E8F0FB5D0B6CDA24D800A1D6C37F2F1
:1001E0007547CB81C90296B7BE058F4FDAB66D470A
:1001F00016B0C0E5765A935F924D5D2E60F4D677C7
:100200008F8F8276EF79020778B11C84277C3E704D
:100210008AD925B7BE058F0F75B56DB3188975B925
:10022000D96CDEF009CEBDB51DC0F2D6B7D5F08DC4
:1002300014A1C881CFD9F1AF200003081F051F1FEB
:10024000151B1F11111F110E1F15111F05011F1165
:100250001D1F041F001F0010101F1F041B1F101064
:100260001F061F1F011F1F111F1F05071F311F1F03
:10027000051B17151D011F011F101F0F100F1F0C4D
:100280001F1B041B071C071915130C121E1F120C31
:100290001E12120C121F0C1A14041F052E2A1E1FE8
:1002A000021C001D00201D001F041A011F001E0457
:1002B0001E1E021E1E121E3E120C0C123E1E0206B6
:1002C00014120A020F121E101E0E100E1E081E1A05
:1002D000041A2E281E1A12161F111F121F101D1588
:1002E0001711151F07041F17151D1F151D01011FCD
:1002F0001F151F17151F0017000010000404040429
:100300000E040229060A0000BFFF9ED6D2C502EDE8
:1003100076B0596C96AEC291AB57AF1A29680E5E93
:10032000BD7AF54F1372EAAF62B954A560DB562867
:1003300052A44851757962027201E402C805900B1B
:100340002017402E805C00B9007F9FDC944BF06248
:10035000F8D4B82CA50CAD552B0B8B122C8E93FF1B
:10036000184D57ADA1D16EE2F09FAEB336584BF5A4
:100370006A0C7A880104120600100E4038F10FCD85
:10038000D35ABAD8DAEDD09519E820010200FC73EF
:1003900064B954A560DB5628AA3E9800E11FE5B871
:1003A0002CA50C7775B3D82C8AAE13FF100117F764
:1003B0004F912041063290B74081DF0A1C0870EB54
:1003C00006C24340E0771B61964E9F83F0BB0BBA99
:1003D0002861F539F2D3134A601DF28EE5E27732D7
:1003E000192DD28CBCE7C6EFEB2DA775115F031753
:1003F000E077018BCF7B636DB096524B69B4375673
:10040000CE9C73EBADB74CD7BF1EF9EF1347FF5F20
:1004100021E4BF56591197CF801B78E4390FB801FA
:100420009FC981087BBECD91A30017FE4211D767FB
:10043000CE9C7DCE63E4C8438EC03527E0CC3177B7
:100440002F80FC910011D7776FC20D7CCDEB7C53D0
:1004500039303879E798075C227F2411D777E49206
:1004600063E42DAFF345CC695C903BC73CE012F9E7
:10047000230111D7778EE00D78CEEB7CB427C88DA1
:100480003BC73CE012F9230111D70FB87A045EF3A1
:100490003A9F849C841B70E798075C227F2411D7C5
:1004A0000F380247E035AFF34DE5623879E798073A
:1004B0005C227F244F70656E7E63686573743A0AB0
:1004C000596F757E666F756E647E676F6C647E6F44
:1004D0006E6C7921004F70656E7E63686573743A47
:1004E0000A476F6C647E616E647E747265617375B9
:1004F000726521004761696E7E327E476F6C647E53
:100500005069656365732100557067726164657E2B
:10051000796F75727E576561706F6E21002020477C
:1005200061696E7E616E7E41726D6F7572210047EA
:1005300061696E7E617E4865616C696E677E576138
:100540006E6421004761696E7E617E506F69736FD2
:100550006E7E57616E642100204761696E7E616E18
:100560007E4963657E57616E642100204761696E34
:100570007E617E466972657E57616E6421003BDF55
:100580004F982008140C000501000A06808201A083
:1005900060002818000A06808201A0600028180068
:1005A0008286800841112188820451900012300017
:1005B000140C00050340C100503000140C0005036A
:1005C00040C100501000A06000282008934FEE0D9D
:1005D00000040000101058206B0A37E126DC849BD1
:1005E00070136EC24DB80937E126DC849B70136E20
:1005F000C24DB80937612C3281000000000000B004
:10060000F7EFD81B0000000000386C3973E6CC9976
:100610003367CE9C3973E6CC993367CE9C3973DC53
:1006200007000000000060EFAF122E0CDAC500A436
:100630000A882860400B02A2000615404840B0E03E
:100640001882E004CC8EDDD46DB352671D29088278
:10065000204409C4A0200882203846CD8E21424C77
:1006600080500406AB6570215C013B97FFC0EFF33F
:10067000304FB4A86C54362A27E7201B480002C428
:1006800039C809958DCA4665A3B251D9A86C544E94
:10069000614C03042001761853D9A86C54362A2DD6
:1006A000A779987716B206087480C014045800021F
:1006B0002C000116807001810E100608081710E842
:1006C00000011680000B0AB000045800022C28C05C
:1006D0000210600108A3807001016180300A081BCC
:1006E00040800520C002106001084E40180584B10A
:1006F0009005090900FEFEFEFEFEFEFE0000000061
:10070000000000000000FEFFFFFFEFFFFFFFFE0004
:100710000101010101010100FEFFFBFFFFFFBFFF1F
:10072000FE000101010101010100FEFFBFFFEFFF1B
:10073000FBFFFE000101010101010100FEFFBBFF03
:10074000FFFFBBFFFE000101010101010100FEFFEF
:10075000BBFFEFFFBBFFFE00010101010101010032
:10076000FEFFABFFFFFFABFFFE0001010101010136
:1007700001000102040810204080596F757E7573D6
:1007800065647E617E6865616C696E677E737065A5
:100790006C6C2E0A2020207E596F757E686176650C
:1007A0007E6761696E65647E380A202020207E6540
:1007B000787472617E48507E706F696E74732E001B
:1007C0007E596F757E757365647E617E706F697327
:1007D0006F6E7E7370656C6C2E0A20207E4465619E
:1007E0006C7E327E65787472617E64616D6167656E
:1007F0000A202020202020207065727E7475726E81
:100800002E0020596F757E757365647E617E666902
:1008100072657E7370656C6C2E0A2020207E4D6F91
:100820006E737465727E6C6F7365737E31300A20EF
:10083000202020202048507E706F696E74732E0037
:1008400020596F757E757365647E616E7E69636520
:100850007E7370656C6C2E0A20207E4D6F6E7374F3
:1008600065727E69737E66726F7A656E0A202020DB
:100870002020666F727E6F6E657E7475726E2E00BC
:100880004761696E203220476F6C64205069656350
:1008900065732100557067726164657E796F75724A
:1008A0007E576561706F6E210020204761696E7E02
:1008B000616E7E41726D6F757221004761696E7E57
:1008C000617E4865616C696E677E57616E64210068
:1008D0004761696E7E617E506F69736F6E7E57618E
:1008E0006E642100204761696E7E616E7E4963659A
:1008F0007E57616E642100204761696E7E617E468D
:100900006972657E57616E6421004F67730A526594
:100910006D61696E730053657270656E740A44652B
:100920006D6F6E00556E646561640A4C6F72640091
:10093000536B656C65746F6E0A4C6F726400556E14
:10094000646561640A4769616E74004F67730A5396
:10095000616E6374756D0A477561726400536572E8
:1009600070656E740A4B6E6967687400556E6465D5
:1009700061640A4B6E6967687400536B656C6574DB
:100980006F6E00556E646561640A536F6C646965CF
:1009900072000101010101010101020202020404CD
:1009A000040808456E656D79204B696C6C656400C0
:1009B000596F757E6B696C6C65647E7468657E4288
:1009C0006F73732E0A000909AAFF010100010101DA
:1009D0000001010100010101AAFF00010101000164
:1009E0000101000101010001010100010408003EB4
:1009F0001C08090900FEFEFEFEFEFEFE00000000CF
:100A0000000000000000FEFFFFFFEFFFFFFFFE0001
:100A10000101010101010100FEFFFBFFFFFFBFFF1C
:100A2000FE000101010101010100FEFFBFFFEFFF18
:100A3000FBFFFE000101010101010100FEFFBBFF00
:100A4000FFFFBBFFFE000101010101010100FEFFEC
:100A5000BBFFEFFFBBFFFE0001010101010101002F
:100A6000FEFFABFFFFFFABFFFE0001010101010133
:100A7000010011AFEFC6A2002C24C0420060D1F1EA
:100A80001038F281D000022000200008000220016E
:100A90000CBD73E633B00608002A08480202C00203
:100AA0005977E004C047F63406828242301E0E2F8A
:100AB00080C9003E31752A02484568141DF31110A3
:100AC0000EC0398F7A436EC80DBCF93D0FBF3FE9A8
:100AD00094E3D83F66F9BD8FFE84E51847AEDBEF9F
:100AE00066DC7F60797972DC7A5A9775CAE7EECB5B
:100AF000DFF9F637020FBF7FFFCF79EC691DF63CB7
:100B000065FE6E7F9DA783F76739CD79EA91EF3D4A
:100B1000FD915F9BF91D2B3F37075AB709C8C2618A
:100B2000041091028A01B0B203CB3AD0FA4719B24D
:100B3000100826EE0C8E20016C08E0B0A410070807
:100B40007114265B02D810C0806736935FBC0F001B
:100B500002B7BD25149980080C406452042E081475
:100B600008029341111880080C8A8430994CA048DF
:100B700028A0F667EC0D028070DEFBA30316800050
:100B8000084402422829C0027E973B93CD6673D564
:100B9000EA4000040039EDFDE91E5D0E60B180E51C
:100BA000B13F95E1409440B301805A18C2005A52B7
:100BB00052FEE26E8618C0C072B280C900168B7FEA
:100BC0001E6BFBEFAABBBF0B297FEFB3DD58499427
:100BD00032C12271C86298FC39992CA084925E2897
:100BE0006111874160186258948D4306B0582CFEFD
:100BF0004E8420652265005206206500520620655D
:100C000050D21013B09082050B0E603081C564C2C3
:100C10009C3060426142410A05122850A1C062F135
:100C200039F63C80088880088887E9DE5FED2686F3
:100C30001026240491D098BDF73ECC1D9AB93E965B
:100C4000A3CBE572B9BC6699C4C4C157180EA606F9
:100C5000A646270C39CCAD952131D9FEB51C2C30D8
:100C600010A1C0624E9848000734E00007B0D8FCDD
:100C7000D3D8FFB44CCC8F00A77FD9261240168E54
:100C80007F127BDF40000EFB17B3F99BEC7D060162
:100C900040D8FB6754054A9002933FD0DE270400FA
:100CA0000190A1D52B9BCD6666FB97A4A1A105065B
:100CB00038A016009CFCFE710326152A4C8A1C1BCA
:100CC000BECE620183092C360B22C3CDE607750F19
:100CD0005800C0BE6F00400060EFDFE95EBF731FC9
:100CE000862A511793A86A06ECFDFBBAFBFBB2BB40
:100CF0003B011000010001100010000180027AD8B1
:100D000003910F2E9E74B07A6B81C5E781B72D32A7
:100D10003C76B07A7420051F03506974202020208F
:100D2000207E2D327E48502C7E2B46616C6C004D0F
:100D30006F76696E677E57616C6C73202020202D62
:100D4000317E585000537072696E677E426C6164E8
:100D500065202020202D317E485000527573746527
:100D6000647E41726D6F75722020202D317E41525C
:100D700000547269707769726520202020207E2DD2
:100D8000317E476F6C64004D696C6465772020206C
:100D9000202020207E2D317E466F6F64001B9F7BBC
:100DA00015000098C007C64BCD81FBF81630010036
:100DB00080AEFB0100000000004278CE60D8C93947
:100DC0006E0E7C81100000000000383C59001300BA
:100DD0008003378EDCC02B47E098A7DC380000305A
:100DE00001D6A7B9722C5C80734EE3C8EF011BDFFC
:100DF000178738557CCD62B317EC75D9739E780A86
:100E0000822E10CB0B5BC418113FC04891CC4B6FA6
:100E10000513307C03C4A1206A79C3027583DFC93E
:100E2000C8A98B299429D4F205F1505CFE021F70E9
:100E3000895C3902D79C809F011B9F872CC86488DE
:100E4000B840445822C212F100C20572E47B22D499
:100E50005804F12E8661848ADF643980051458A015
:100E6000C2021516A8B0408532032B6FC0C102150F
:100E7000169BC566B131B0596C0460636023219440
:100E8000450C8B812C42F9253EE01239721CA7FCDF
:100E90001C1B9F0FC0F0007C033E502F826E110E72
:100EA0005C8427E3065E224F61EC086C306C67C7F8
:100EB0006690A8080E4592305C54CE84B0D553E4B9
:100EC0006DCEC0C93BB099286E004E8C4A18C856EA
:100ED00037F080CD91F07DAE1C31175E70249C8080
:100EE0009F031B9FAF91458D0E58125C0220B120CD
:100EF000242008820208A0113146C468901BF249E0
:100F00001426CCBD0538F28050A4049475E9171C52
:100F1000E0F0B9885BC42DE216712B9214800314A3
:100F20005452009A82AEC20DDC226E117F8A0FB835
:100F3000448E9E10B88C5F031BDF6F43600904660C
:100F40001E87C01208CC3C0E81251098F9093CA4DC
:100F50003CEEA5705807C29527DC289F61B180053B
:100F60002A2C08C802221840020B82B0608101249A
:100F70004001284880C502032C60B1F8093EE01208
:100F8000B972EA715C8227BF0B01050506000503F3
:100F9000060004020500030103132A4A600F170E1E
:100FA0000B1A07060C1834282040400000000000EF
:100FB00000000000004040202834180C06D787634A
:100FC00001188E4EC41E8185081C9D40FB2B861C7B
:100FD000C8383A9178ECE65839241C7A34C8EA6D5E
:100FE000FC94217BDC0CB27A6B383B11C6AF18B293
:100FF000C7CD800B388ED30045DF7FB0EBDA1D8E76
:101000007D71DEA7F33EBDECB65E5F5CFF68F6D691
:101010005B57D204D35B4F33E7398E5ECD8E578F4B
:10102000635E3B4FB93A1B336BC770B477BC7A75BC
:101030002E0ED3AB57B933566FBD35C134A31D3017
:101040003F34BAE8173267E62D5767633ABDE6B416
:10105000733B8CA3575312AF5E33CF5D47AF74978A
:10106000ABC7319E7D2ACB8C7568F80E67169BC581
:10107000E6CC6739B3D82C368B339B574C20991963
:10108000BC637166B3D82CCE7C96339BC56671E683
:101090001B84000202020203030303030301010194
:1010A00001010101010202020204040408083410D3
:1010B0000000F804C4A464A4E4C4040404648464C4
:1010C0000484448404C404C40404E424C404A404C0
:1010D000844484048444E4040404C4E4A464A4C4F0
:1010E00004F8000000000F1010131113111010105D
:1010F00010101310101112111011121110101312E0
:1011000011101310111312101112131010101011CE
:1011100013111310100F0000001008040201011F2A
:10112000202001014000100004002108084E6F003B
:1011300059657300090900FEFEFEFEFEFEFE00007A
:101140000000000000000000FEFFFFFFEFFFFFFFB8
:10115000FE000101010101010100FEFFFBFFFFFF95
:10116000BFFFFE000101010101010100FEFFBFFF01
:10117000EFFFFBFFFE000101010101010100FEFF85
:10118000BBFFFFFFBBFFFE000101010101010100E8
:10119000FEFFBBFFEFFFBBFFFE00010101010101EC
:1011A0000100FEFFABFFFFFFABFFFE0001010101ED
:1011B0000101010045766164657E747261703F00D3
:1011C0008DD73DF13EF3F0AD7BB3673E7630714E87
:1011D0000781B2F2398E812E0489D73DF1B1C3E582
:1011E000DCECB91E5F1D04CAF2CE91303609973B84
:1011F000F3F031E6F732777A231C799E45210C0112
:1012000001010101010101020202020404040808B3
:101210004F70656E7E63686573743A00D7BF1EF9C0
:10122000EF1347FFCF169CBD7AF5CFC199AB675E30
:10123000F3E7F0EAD5337FE6A56B090010881102C9
:101240001638124E8413618E70A1040C658E7022C4
:101250009C403995430C00000027F582DC908C49B6
:101260008910CA858C2237E4863C002A048C8100D0
:1012700000B896AE1F1E40200610488C400C20106F
:1012800015046200811880BDF7DE07D6426EC80DD6
:10129000B971D827208006B8EC2B72436EC80DB9FF
:1012A0002137E4865CF7058802014EFBC00DB921A9
:1012B00037642D0E7BEFBD01620081A8201003086A
:1012C000C400C60410880104728E17402E085C28E2
:1012D00017EA8172C176246314E8025C3414192C75
:1012E000E486DC38EC131040035CF615B92137E4D2
:1012F00086DC901B7243AEFB02448100A77DE08632
:10130000DC90C5404ACA1258053A46325AB9500EC6
:10131000960B2017CA05818B590707410C1A3C1EF2
:101320000C410707000C3A163A0C000707002A1870
:10133000360C2A000707001A2432241A004D6F6E5B
:101340007374657220202020202020207E357E446A
:101350004D4700466F756E647E536869656C642006
:101360002020202B317E4152005768657473746FC2
:101370006E652020202020207E2B327E5850004693
:101380006F756E647E4D656174202020202B317E48
:10139000466F6F64004865616C74687E506F746955
:1013A0006F6E2020202B327E485000466F756E6491
:1013B0007E4C6F6F74202020202B327E476F6C6430
:1013C000001B1F3F8BC562020318C060B3F94BECD2
:1013D00073133184014409A627F7FA112C168BC91F
:1013E000024A58C0A20409252C4A589420A18445D9
:1013F00010085260B1D96CFED21B9FDF6464724545
:101400001C9B27AD02A584F49772CF4610162C586A
:1014100060848211162C5820C8CE9DDF014C00003C
:10142000000046669220D481640519162449660698
:101430000000000013F87D7CCDAFF17D1B5FEF79DC
:10144000C1CAE218080081BC01160BB875008B1BDD
:101450003F8E23A7B5194802008041008475E5013D
:101460007F81FD0E0004000400E69F8BC562028BA5
:10147000CDEF021B9F9F62667044C6903B87D4D11C
:101480008C0E85E92FE8040240A582024254001028
:101490005480408C131800006C01376060014116C5
:1014A00022B20865F16C954013002A062888A11025
:1014B000D9102155B0414D6A0000500000000D00C8
:1014C0000081041184F1433C2237E4D61B72EB0DFA
:1014D0003CFA391B9F3F9C1B72E6D75092580E1A5C
:1014E000045021D30A384B03C445E93ACC4119844E
:1014F0002377AEFCB206D04A2E34421828838025CA
:101500000B76B1D00FF5D65B6FBDF5861C3D0AB7E3
:10151000DE7A046EBDF50A1B9F5FE690705416805C
:1015200072ECA02274D11FE56C7CE369CE001D0B28
:1015300048175D614C1827E4211FE559D7918DC0EC
:1015400090C2000D4C89C003E0B2584039E6677282
:10155000CDAD47BF9E237700060C12630101010148
:101560000101010102020202040404080800080249
:1015700010011F1F2700E0CC993367CE9C3973E61A
:10158000CC993367CEDC01780100FC7D0180170027
:10159000C0DF17007801C09D3367CE9C3973E6CC5D
:1015A000993367CE9C390300274E6F00596573004D
:1015B000090900FEFEFEFEFEFEFE00000000000027
:1015C00000000000FEFFFFFFEFFFFFFFFE00010134
:1015D000010101010100FEFFFBFFFFFFBFFFFE0055
:1015E0000101010101010100FEFFBFFFEFFFFBFF51
:1015F000FE000101010101010100FEFFBBFFFFFF31
:10160000BBFFFE000101010101010100FEFFBBFF64
:10161000EFFFBBFFFE000101010101010100FEFF20
:10162000ABFFFFFFABFFFE00010101010101010063
:10163000456E6F7567687E736B696C6C3F00011F48
:1016400020200101400010000400210808131701A8
:1016500060F11D160B2850000A2C60B1F90A0280B7
:101660000020005060BB81020002800020000800C2
:101670000280002050AE1410000400014000100051
:101680000400010001589C5800140004284F280051
:101690000280002000080000030507090C48656C63
:1016A0006C3A00486172643A004E6F726D616C3A38
:1016B00000456173793A00207E596F7520616C7224
:1016C000656164790A206861766520656E6F75676B
:1016D0006821007E596F7520646F6E742068617692
:1016E000650A206F6E6520746F2073656C6C210035
:1016F000202020596F75206E6565640A20206D6F6B
:10170000726520676F6C6421004F080000003C7E0A
:10171000C391F377321080C0F82F2FFEF8E08000DD
:1017200081FFFF1FFC781CFFFF0081FFFF9191B933
:101730008340000000003C7EE181877E3C00010781
:101740001FFFF8380F03010081FFFF9191B983401B
:1017500081FFFF117FFFEE80000055A7FFDE0080B4
:1017600087810520393A11915B17626F3DA067A709
:1017700010E015F0D730E0683A7D04FC7664202054
:101780001309F206F88900C0CBB1E838416E0101B7
:10179000E8B88CC9C81BE08F3504D638B51C7C046A
:1017A000FCF40E2A42177D04FC4400E0DF0E2BC33C
:1017B000594747C0E12BE0B7BB020A23105F013F46
:1017C0001100F837559550248CBE017E3A3890A010
:1017D00045023E027E2200F04BC702CCB5937A76DA
:1017E00008033802450A5C8122053E3204D6001AFD
:1017F00007060C18342820404000000000000000BC
:101800000000004040202834180C064F1FA6041981
:10181000C0400A86634A082184E646C8281226A1E9
:101820009D44000108001542919051246CA00004D1
:101830008000D04EC298219C98CC6E26413A0E0C66
:1018400098930205200004807612C60CE14400C67D
:10185000A4292184109A1B21A3489884765216004B
:101860000120C843160B10408020B0D96C5E335D58
:101870009C992E6032F9D52C26933F1BD3CFB058BC
:101880008000020481CD66F31D360B28000516C3C7
:10189000C5F7086D08B794104208CD8DD950A4A89B
:1018A000744C9E12324268464AD0104273637633BB
:1018B00051C992A2C155242C83D049534208053AFC
:1018C000269F60B38005142830FC3E6B8570C6559A
:1018D000244C423BB9A50004800A9F4A099BC94495
:1018E000427314400000004001A01C5C6E24000400
:1018F0008020DFC155A44811C53BAE4953420821A1
:1019000034C794104208CD31258450206BF2120A5E
:101910000030000A00300030001FE737168F9005B6
:10192000205E9D4280D3388D576C54368BCD62A398
:10193000B291B0597C4F00590AC814DE02021B78DC
:101940002D4075C8C316156448FB6900748AB80138
:10195000780B086CE0B500D5210F5B549021ED7732
:10196000A9403410A2F53120B081D70254873C6CD5
:10197000514186B41FAF4C2687BC050436F01829A8
:101980000B017CD7B240C6EC3B1FFF37166F860AAF
:1019900000A05CB2585E5360F5119B209BC566B1F8
:1019A00051D948D82C3E40721943F716F02120B087
:1019B000812F20C1519EB5A82043DA8F4B4554504A
:1019C000968F01810D7C01514779D6A2820C693F27
:1019D0009879594D9642DE01021B788C1415017CD2
:1019E000D7A2820C69BF2D802C05640A6F01810D7E
:1019F0003C16405404F05D8B0A32A4FD34003A4595
:101A0000DC00BC050436F058005111C0772D2AC8FF
:101A100090F6BB54201A08D1FA1810D8C0630144BC
:101A20004500DFB5A82043DA8F57269343DE020234
:101A30001B785C9085C4772D0B64CCBE0301087EB7
:101A40003F3F3F97E160B1584C16938900069000E4
:101A5000124AA8D3E9BF3213F3BDACB61104015248
:101A60007098B000800238A06BACFC3361B1582C88
:101A70009A2FC635130800010000200024C0C4D9E5
:101A8000001400100058309C2B2B23CBC99FD4810D
:101A90008466F1FBD86C764042D0101A10284102BF
:101AA00014400010000400014000100010800218D3
:101AB000008329445D197FB87D66B3D96C369BC914
:101AC00062B2582CD67EEC000A8010A66C4A2841DF
:101AD0002008088004519120000220000200F39E9B
:101AE000F197DA3F7BD706102820903ABC8E9D975D
:101AF00040014000100004000140001000040001FB
:101B0000C039D91F630125888A08000411D1120A3F
:101B10002C3EB27FF7868083C567E7E62150004000
:101B20000010000400014000100004000160EF8E6E
:101B30000F030002E064B23F9B1F9F1F978FB059B5
:101B40006C169BC566B1B9E6C06432335A70021098
:101B5000015C2E974C0AB6ED600107BFFF7FC69C63
:101B6000E63CF9EFE1EFEEE18FFF6FE2B04EF97383
:101B7000FE33CAE94FF5EF2AE3EFF3EFEB0B1CC29C
:101B800018479EE734131EFF23FBE477BFF7EF2CC3
:101B9000977559977C7C5D161070510D0F97251322
:101BA0002A54264626512645E6BACF090318306145
:101BB000C0840113064C98070D0F93A62C0C180136
:101BC000144440044031C1849DED5407D4000043C7
:101BD0000506B050056A203054260D8F4B9D3412F7
:101BE0008C05E102428D0453A6BA46D942800061B9
:101BF0000D902240164980809B0E0D8F0F09259471
:101C000009260B2C8B20E12B710DC3258E15B9985D
:101C10003572000DCF6FA1B00181DD130CF8A6273E
:101C20000607F442042880E10D0D8F8F0499A081EE
:101C30008282509830493E3A064304415246C2914E
:101C40003B0DCF274919AA40A30205D414501D34D7
:101C5000F866D41128A8000540000AA04221C38ECE
:101C6000030DCFA76494F01AC0AB5200441F0520A7
:101C70001428A100D83084C1CCAD47003A7E5375FA
:101C80006E6B656E7E4B6565707E6F667E4F6721FD
:101C9000003A7E466C616D696E677E556E64657252
:101CA000776F726C64003A7E556E646561647E4342
:101CB000617461636F6D6273003A7E506F69736F18
:101CC0006E6F75737E44756E67656F6E73003A7ED6
:101CD0005468657E426C61636B7E53657765727391
:101CE0000010020157BFCC95AB0E01DDD62058B7CE
:101CF0003508D66D0D2EBD7AF5EAD5AB57AF5EBD72
:101D00007AF5EAD5AB578F320F73E5EAD5AB57AF0B
:101D10008E51AF5EBD7AF5EAD5AB57AF5EBD664D6D
:101D2000F613660647640CB973481DCDE850987EDB
:101D3000C0230017100E50D83060C18205290B1641
:101D40002C58304139F99DBDF7F7BCC8AA6308E7A4
:101D5000BFDBFD5B08C200848210203080020B10C4
:101D6000994CA0C0120457804ACA905C2417C945F8
:101D700072918C0D47E032C22C0C98F3037BEFEF8D
:101D80006D00E0B0DF3D1C05CE06991E5BCE4C0019
:101D9000C8D5090ABCBD7F1638017202AE5EBD7A95
:101DA000056E840302B2008050040044020008085B
:101DB000004014008028056A0000500000000181E6
:101DC000E1EAFBBDF7F736ACBDDF3D616670453A31
:101DD000168F80C1046E2D30F9D425510CB08002CD
:101DE00012A0800428B080020B28B080020B2820AB
:101DF000010A2CA0C0020A2CA0C0020A2CA0C0021A
:101E00000A2CA0C0020A2CA0C0020A2CA0C0020A00
:101E10002CA0C0020A0C1193BDEF5CBDCFC33C5C8B
:101E20009D9BAB7F9EFBBB96013D1A4401201C1C71
:101E3000042102B3E6A9861868C010FD3613280CE9
:101E4000C43104EACFD87BBFE3382EE16004B0820E
:101E500030060827E0CF747FC731772F80BCED6153
:101E6000DE98C045684770D4E0053877295860731C
:101E7000C09281C2AD41065842D727F6DEDF130675
:101E800000100622410140E17B03B7089020621751
:101E900072436EC80DB92137D8673C7AF5EAD5ABE5
:101EA00057AF1E8C0AA0AA505529AA22A02A45D5B0
:101EB000881A6559698C425491AA49353B760CAF12
:101EC0005EB3E661E2D1AB57578635D412868BE913
:101ED000D5AB57AFCED4626A57EDAA5DB5AB364BE2
:101EE00026000001010202020303030404040404A7
:101EF000139F0700C2993367DE72E6CC9900F002A7
:101F000000F8FD00C00B00E0F70300AF8070E6CCE6
:101F100099779C397326C011010202030404051746
:101F2000082417082417FF1313273B3B4F09C7E664
:101F3000AED9D1BB232018090737474696A72C21D5
:101F4000815A17F74F912041063290B74081DF0A3E
:101F50001C0870EB06C24340E0771B61964E9F83DE
:101F6000F0BB0BBA2861F539F2D3134A601DF28E2B
:101F7000E5E27732192DD28CBCE7C6EFEB2DA775C1
:101F8000115F0317E07701459F371620002560E2B7
:101F9000707AED7C76F5EA06A29090A10322DA55DC
:101FA0003B44060CCD671DB9682F9ED06B0FE80926
:101FB000BDE6825E855B4EDC2057E5EA05F810172A
:101FC00040000AC480397472EAE70086A7591C51A0
:101FD000340828591686B54162B8F0D241B0C79688
:101FE00062CA4E19B0E4CC35AF3973E735677F1C50
:101FF000020B0805BBFB7AB3CDB4EE180324B20A7A
:1020000037E0FB63218305C0691C0347E0C819382A
:1020100012E60827E0E65F0D814D38FAC0CBB840E4
:102020006EC0959FE7DDAB57AF5EBD7204CE5E39E3
:1020300022BF0600D93011241FBECFEFDAE0DEBF89
:10204000CDBF12E0A0E0B1E0E4ECFDE602C00590F7
:102050000D92AE3FB107D9F727E0AEEFB2E001C075
:102060001D92A13FB207E1F710E1CBE1D0E104C03E
:102070002197FE010E94A835CA31D107C9F70E94F5
:10208000B5310C94E0360C940000089580E090E0A7
:102090000895089508950895089508950895089558
:1020A000089508950895089508950895FC018BE119
:1020B00091E091838083158214828FE091E0938375
:1020C000828388E0838781E0828717821086168268
:1020D000818714868587089508950F93CF93DF93A2
:1020E000FC016A3039F48581848396818185890F6A
:1020F00086834BC084816E3719F48E5F848345C01C
:10210000262FEF0166816F5F2A3374F42033F4F4D5
:102110002B32F1F01CF42132F9F02DC02D3289F16F
:102120002E3249F52FE319C02B3544F4213464F4E1
:102130002A3381F02F33F9F422E40FC09FE9920F84
:102140009A31C8F4275409C0215407C02C5F05C038
:1021500021E403C023E401C02EE33F81062E000CDE
:10216000770B082E000C990B313069F40AEF4AE323
:1021700052E00E94141388858D5F9C81890F8C83A7
:1021800004C020E4EACF0BEFF2CF81E090E0DF91D2
:10219000CF910F9108950C9443360C9443360C94D0
:1021A00043360C9443360C9443360C9443360C94CB
:1021B00043360C9443360C9443360C9443360C94BB
:1021C00043360C9443360F93CF93DF93442351F05F
:1021D00000E021E047E054E060E070E080E090E063
:1021E0000E947214C0E0D0E000E021E043EF53E031
:1021F000BE0189E590E00E9472142A96C634D1058A
:1022000099F721E04EEA53E060E070E089E690E063
:102210000E947214DF91CF910F9108959F92AF9217
:10222000BF92CF92DF92EF92FF920F931F93CF93C3
:10223000DF93902E1E2DC22ED12CC42FD0E05B0137
:1022400083E0A80EB11CE12C012F292DA601BE01AF
:10225000C5010E94A6190AEF090DB6016E5F7F4FF6
:102260007E0183E0E80EF11C603471052CF421E05E
:10227000402FC7010E94E918B601610F711D63501C
:1022800071096034710528F421E0402FC7010E94D4
:10229000E918165083E0C80ED11CBE016E5F7F4F57
:1022A00001E0212FA601C5010E944A19C90DD11DC7
:1022B000BE0163507109212FA601C5010E944A1970
:1022C000DF91CF911F910F91FF90EF90DF90CF9012
:1022D000BF90AF909F900895EF92FF920F931F933E
:1022E000CF93DF93EC017B01142F00E021E048E065
:1022F00053E060E070E080E090E00E94721401E042
:1023000021E048E053E060E070E080E490E00E946B
:1023100072148C85833011F090E002C081E090E06F
:10232000880F991FFC01E55FFD4F4081518100E05E
:1023300021E064E170E085E090E00E9472142D8558
:10234000233011F030E002C021E030E0220F331FD3
:10235000F901E55FFD4F4081518101E021E064E139
:1023600070E08BE690E00E947214F70186819781FD
:1023700063E070E00E949435892B61F48C8590E0D5
:102380000196837099278C878D8590E001968370E4
:1023900099278D871123C1F021E04EE561E370E0BC
:1023A00081E190E00E94E91821E04EE563E370E0EE
:1023B00081E190E00E94E91801E025E34EE661E149
:1023C000C70103960E94D019DF91CF911F910F9101
:1023D000FF90EF900895CF92DF92EF92FF920F93CC
:1023E0001F93CF93DF93D22FE02FF0E0EE0FFF1F6C
:1023F000EF50FE4FC080D180C0E010E1120FE42EFC
:10240000440FFF088C2F8170C0FD80E1C23010F4B2
:102410006D2F01C0612F70E00C2F21E0A601F701A4
:10242000E80FF11DCF010E947214CF5FC43051F745
:10243000DF91CF911F910F91FF90EF90DF90CF90A0
:1024400008959F92AF92BF92CF92DF92EF92FF9248
:102450000F931F93CF93DF93F22E10E0000F111F05
:10246000F801ED51FE4FC080D180F801EB52FE4FD4
:10247000A080B18010E0922E9E0CC42F440FDD0B83
:10248000812F817010FD8AE0123010F46F2D01C091
:10249000692D70E0012F20E0A601FE01E80FF11D7B
:1024A000CF010E9472141F5F143051F710E0EF0C3F
:1024B000812F817010FD8AE0123010F46F2D01C061
:1024C0006E2D70E0012F21E0A501FE01E80FF11D46
:1024D000CF010E9472141F5F143051F7DF91CF912A
:1024E0001F910F91FF90EF90DF90CF90BF90AF9032
:1024F0009F9008951F920F920FB60F921124CF92C2
:10250000DF92EF92FF920F931F932F933F934F937E
:102510005F936F937F938F939F93AF93BF938091BC
:10252000E0039091E103A091E203B091E3030196EF
:10253000A11DB11D8093E0039093E103A093E203FA
:10254000B093E303492F5A2F6B2F772767FD7A95B6
:102550002091000124236C017D0139E0F594E7947A
:10256000D794C7943A95D1F74C295D296E297F29D4
:10257000489F402D112442238C019D015DE035953B
:102580002795179507955A95D1F7082366E0B595D5
:10259000A795979587956A95D1F7802B8427809387
:1025A000CF00BF91AF919F918F917F916F915F917C
:1025B0004F913F912F911F910F91FF90EF90DF90DE
:1025C000CF900F900FBE0F901F901895CF92DF9273
:1025D000EF92FF920F931F93CF93DF936C017A01D9
:1025E0008B01C0E0D0E0CE15DF0589F0D8016D91F8
:1025F0008D01D601ED91FC910190F081E02DC60195
:102600000995892B11F47E0102C02196ECCFC701F8
:10261000DF91CF911F910F91FF90EF90DF90CF90BE
:10262000089508950E94DB362F923F924F925F9259
:102630006F927F928F929F92AF92BF92CF92DF92D2
:10264000EF92FF920F931F93CF93DF9300D000D0B0
:1026500000D0CDB7DEB77B014115510509F429C182
:10266000FA01D490319674914E5F5F4FAD2DB0E07A
:10267000222309F1E72FE695E695E695AE2EB12CDB
:10268000E1E0F0E0372F377011F4E0E0F0E0EA0D20
:10269000FB1DAE9F5001AF9FB00CBE9FB00C11242C
:1026A000033011F4AA0CBB1C2A9DF0012B9DF00DE8
:1026B00011244E0F5F1F0F3F09F402E05C01AA0EC8
:1026C000BB1E1A141B040CF0F4C0803891050CF0EA
:1026D000F0C09701270F311D121613060CF0E9C048
:1026E000F0E4EF16F1040CF0E4C04115510509F4D3
:1026F000E0C02E2D27702D839701F7FE02C0295FC1
:102700003F4F63E0359527956A95E1F7F22FF7FE85
:1027100005C06D81662311F0FFEFF20F97FF05C032
:1027200022273327281B390B02C020E030E0E0E8E5
:10273000AE16B10424F060E8762E781A01C07D2C24
:10274000721AEF2E0F2E000CFF08FF3F1CF4CE2C48
:10275000C09401C0C12CE1E0672F677009F4E0E08C
:102760007695769576959E2E970EE90CF11C69E08C
:10277000E616F1041CF0E8E09E2E9F1A1C2D1F0F98
:1027800060E81603800D911D1124820F931F61E0F4
:1027900070E00D8002C0660F771F0A94E2F70330E5
:1027A00011F0E1E001C0E2E0EE2EF12CCD9C200D15
:1027B000311D1124E29E5001E39EB00CF29EB00C3C
:1027C00011246A01CA0CDB1C970121503109A20EA9
:1027D000B31E4A0D5B1DBB24BA94B69E9001B79EF2
:1027E000300D1124290140945094F90DFE83A7194E
:1027F000B109EA9FA02D1124B0E0E79DA00DB11D05
:1028000011242E81121709F454C09C0128513C4F09
:102810004A015601612C671409F443C0F501349054
:10282000369EF001379EF00D1124FA83E983E0957E
:10283000F095FC83EB83023019F45C824B8210C06C
:102840000B3F19F41A8219820BC0F4013490369EA2
:10285000F001379EF00D1124E095F095FC83EB8399
:1028600017FD09C0F9013080EB81E321F9813E2E8B
:102870003F2AF9013082FD81FF2359F017304CF4D3
:10288000F901E058FF4F20803C8023203A80322815
:1028900030828E0C9F1CAE0CBF1C63942F5F3F4F89
:1028A000BACF1F5FCA0EDB1E4A0F5B1F80589F4FB7
:1028B000A8CF26960FB6F894DEBF0FBECDBFDF912E
:1028C000CF911F910F91FF90EF90DF90CF90BF902D
:1028D000AF909F908F907F906F905F904F903F90C0
:1028E0002F9008952F923F924F925F926F927F9216
:1028F0008F929F92AF92BF92CF92DF92EF92FF9210
:102900000F931F93CF93DF93CDB7DEB761970FB6C9
:10291000F894DEBF0FBECDBF7C014A01FA013491AD
:102920003196E491832F8F778F5F282E312CC7014A
:10293000820D931D97FDA1C1F0E8EF16F1040CF094
:102940009CC18E2F8F738F5FAB01480F511D57FDB8
:1029500094C1603471050CF090C1331F3327331FCD
:102960003B8331E0E6FF30E0EE1FEE27EE1FEF8302
:10297000AB0177FF04C044275527461B570B5A016C
:1029800017E0A122BB24AB0177FF02C0495F5F4F74
:10299000DA0153E0B595A7955A95E1F7BA83A98373
:1029A00077FF0CC0A114B10449F01197BA83A98331
:1029B00048E050E0FA01EA19FB095F0141E050E00C
:1029C0006A010A2C02C0CC0CDD1C0A94E2F7D986FD
:1029D000C886982F969596959695877011F4892FAD
:1029E00002C081E0890F482F880F550B5E834D830D
:1029F000502F52705A8701FF06C0AD81BE811197DA
:102A000081E0382702C0A0E0B0E0602F61706C83E5
:102A100000FF04C0B1016150710902C060E070E0C4
:102A200097E040E150E080E0612C712C8101015081
:102A300011091C870B870D811E81A017B1070CF0AF
:102A40001CC1B7FD1AC18A01CC24C394D12CF80152
:102A500043E0F695E7954A95E1F7E80DF91DE49115
:102A6000F0E0A8014770552702C0F595E7954A9513
:102A7000E2F7A8014F5F5F4FE0FF05C01FEFC11AEB
:102A8000D10A8A01E4CFE1E0CE16D104E9F4FA01DB
:102A9000F695E795F695E795F695E795E80DF91D16
:102AA000E491F0E0477055272F0102C055944794F8
:102AB0004A95E2F7F1E04F2255244FEF441A540AA9
:102AC000A8014E5F5F4F41C08601015011091E876A
:102AD0000D8744244394512C0D8402C0440C551C92
:102AE0000A94E2F71FEF411A510A00E010E0FA01E0
:102AF000F695E795F695E795F695E795E80DF91DB6
:102B0000E491CE2ED12CD98AC88A6A01E7E0CE2280
:102B1000DD24E889F98902C0F595E795CA94E2F7C2
:102B2000E0FF0AC0E1E0F0E0002E02C0EE0FFF1F60
:102B30000A94E2F74E0E5F1E4F5F5F4F0F5F1F4F0D
:102B4000CD84DE840C151D0594F2C12CD12CC41447
:102B5000D50409F48CC00B81002369F0E92FF0E063
:102B6000311105C007E010E00E1B1F0BF801ED5CF2
:102B7000FD4FE0818E2B915008F075C0882309F439
:102B80004AC019811A0F1F8718300CF044C0FB018E
:102B9000EE0DFF1DE038F105F0F508851985809FE1
:102BA000F001819FF00D1124FE87ED871F8517FD31
:102BB00015C0C701012F10E80103800D911D1124DC
:102BC000860F971FFC01E851FC4F80819D852223D1
:102BD00011F0892B02C0909589238083A114B10440
:102BE000D1F0EF85E730B9F0EF3FACF0C7010E2F21
:102BF00010E80103800D911D1124860F971FFC0121
:102C0000E859FB4F80819E85222311F0892B02C059
:102C10009095892380830F81002311F011E03127E3
:102C20008FEF681A780A9C81992319F06150710915
:102C300002C06F5F7F4F6214730464F00A85002343
:102C400011F0119701C011961C81112331F06B8591
:102C50007C8505C097E080E006C060E070E097E00A
:102C600080E0612C712CEFEFCE1ADE0A70CFCC24FD
:102C7000C394DB80CD18CB82DECE61960FB6F8947C
:102C8000DEBF0FBECDBFDF91CF911F910F91FF909F
:102C9000EF90DF90CF90BF90AF909F908F907F90FC
:102CA0006F905F904F903F902F9008954F925F925A
:102CB0007F928F929F92AF92BF92CF92DF92EF92CC
:102CC000FF920F931F93CF93DF9300D000D0CDB727
:102CD000DEB7DC014115510509F4BAC0FA01D49000
:102CE000319634914D2C512C5C01A40CB51C1A1456
:102CF0001B040CF0ADC0803891050CF0A9C0CB01CD
:102D0000830F911D181619060CF0A2C060347105CE
:102D10000CF09EC0F62FF770EF2ECB0177FD0796D3
:102D200023E0959587952A95E1F7F82F77FF04C062
:102D3000EE2011F0FFEFF80FB7FF05C066277727E9
:102D40006A1B7B0B02C060E070E000E8A016B104D3
:102D500024F080E8F82EFA1A01C0FD2CF61AAF2EE6
:102D60000F2E000CBB08FF3F1CF4CA2CC09401C0FE
:102D7000C12C91E0832F877009F490E03695369549
:102D80003695930FA90EB11C19E0A116B10414F0E9
:102D900098E09F1B8C2D8F0F9D01082F10E80103D9
:102DA000200D311D1124260F371F4E5F5F4FCD9C24
:102DB000600D711D1124460F571F61E070E00E2C4D
:102DC00002C0660F771F0A94E2F7EFEFE69FD0018B
:102DD000E79FB00D1124A095B095BC83AB837C8098
:102DE0009F0F8917A9F1F901E851FC4F6F01A12C40
:102DF000B12CAF1438F5FA01EA0DFB1DE491E69F02
:102E00004001E79F900C11249A82898287FD07C0B8
:102E1000F6011081E12FEA238E2AF6018082EE204E
:102E200051F0873044F4F601E058FF4F908097202E
:102E30008A8098289082FFEFAF1ABF0A0FEFC01A5E
:102E4000D00AD7CF8F5F440D551D20583F4FC9CFB3
:102E50000F900F900F900F90DF91CF911F910F91D6
:102E6000FF90EF90DF90CF90BF90AF909F908F90AA
:102E70007F905F904F900895CF93DF9300D000D064
:102E8000CDB7DEB7611571058105910579F09B011C
:102E9000AC0169833A834B835C830E940D352981A1
:102EA0003A814B815C810E94313503C060E070E063
:102EB000CB010F900F900F900F90DF91CF9108955D
:102EC000EF92FF920F931F93CF93DF938C017B01BF
:102ED000C0E0D0E0F701EC0FFD1F6491662361F0C4
:102EE000D801ED91FC910190F081E02DC801099588
:102EF000892B11F02196EECFCE01DF91CF911F915A
:102F00000F91FF90EF9008956115710579F0FB0125
:102F100001900020E9F73197AF01461B570BDC0108
:102F2000ED91FC910280F381E02D099480E090E026
:102F300008954F925F926F927F92EF92FF920F935C
:102F40001F93CF93DF93CDB7DEB7A1970FB6F89459
:102F5000DEBF0FBECDBF7C01FA01CB0119A222302A
:102F600008F42AE08E010F5D1F4F422E512C612C78
:102F7000712CBF01A30192010E946335F901CA01BE
:102F8000015011096A3014F4605D01C0695CD80118
:102F90006C93232B242B252B61F7B801C7010E94CA
:102FA0008417A1960FB6F894DEBF0FBECDBFDF9198
:102FB000CF911F910F91FF90EF907F906F905F9056
:102FC0004F900895462F50E060E070E02AE00C94A6
:102FD0009917CF92DF92EF92FF920F931F93CF93A7
:102FE000DF936B01770FEE08FF08F7FE1FC0EC01BF
:102FF000E881F9810190F081E02D6DE209958C0165
:1030000044275527BA014C195D096E097F092AE04A
:10301000CE010E949917800F911FDF91CF911F91D0
:103020000F91FF90EF90DF90CF9008952AE0B701C5
:10303000A601DF91CF911F910F91FF90EF90DF904C
:10304000CF900C9499173FB7F8948091E90790912D
:10305000EA07A091EB07B091EC0726B5A89B05C045
:103060002F3F19F00196A11DB11D3FBFBA2FA92F07
:10307000982F8827820F911DA11DB11DBC01CD0184
:1030800042E0660F771F881F991F4A95D1F7089570
:103090001F920F920FB60F9211242F933F938F938D
:1030A0009F93AF93BF938091E4039091E503A09128
:1030B000E603B091E7033091E80723E0230F2D37B3
:1030C00020F40196A11DB11D05C026E8230F02962C
:1030D000A11DB11D2093E8078093E4039093E503BD
:1030E000A093E603B093E7038091E9079091EA0784
:1030F000A091EB07B091EC070196A11DB11D809343
:10310000E9079093EA07A093EB07B093EC07BF9110
:10311000AF919F918F913F912F910F900FBE0F9084
:103120001F9018950F9302E00E9414130F910895B9
:10313000F89487E78093000880930108A89588E1B8
:103140008093600088E080936000FFCF8F929F9211
:10315000AF92BF92CF92DF92EF92FF926C01E12C7F
:10316000F12C0E9423184B015C01C114D104E1042D
:10317000F104F1F00E942318DC01CB0188199909B0
:10318000AA09BB09883E9340A105B10570F321E06F
:10319000C21AD108E108F10888EE880E83E0981E73
:1031A000A11CB11CC114D104E104F10419F7DDCF55
:1031B000FF90EF90DF90CF90BF90AF909F908F9057
:1031C00008958FB18095807F669B88601C9B84608A
:1031D0000895FC01840F911D18161906E4F5E038D6
:1031E000F105CCF5F7FF02C0E0E0F0E08138910591
:1031F00014F080E890E0382F3E1BAB0177FF02C04F
:10320000495F5F4F83E0559547958A95E1F756955D
:10321000542F442757954795E40FF51FE851FC4F6D
:103220006770772781E090E001C0880F6A95EAF720
:10323000482F222349F0213071F4315020F0808151
:10324000842B8193FACF08958095315020F090819E
:1032500098239193FACF089560387105D0F44034E3
:103260005105B8F4E2E7F7E080E1849FD001A0784F
:103270001124A60F4770E40FF11D8491A851BC4F93
:10328000222319F06C91862B03C080956C918623C4
:103290008C930895AF92BF92CF92DF92EF92FF92FC
:1032A0000F93CF93DF936C015B017A01E20EF11C67
:1032B000EA0157FF0DC0C0E0D0E00AC0C417D5072F
:1032C0007CF4202FAE01B501C6010E942C19219675
:1032D000A70181E4E816F1048CF340E450E0EECF5E
:1032E000DF91CF910F91FF90EF90DF90CF90BF9043
:1032F000AF900895EF92FF920F93CF93DF937C01ED
:10330000EB0121E049E067E370E0CE010E94E9189B
:1033100021E049E06FE370E0CE010E94E91801E08E
:1033200029E047E350E0BE01C7010E944A19BE01EF
:10333000685F7F4F29E047E350E0C7010E944A19C8
:10334000DF91CF910F91FF90EF9008958F929F9210
:10335000AF92BF92CF92DF92EF920F931F93CF93D2
:10336000DF935C014A01102FEB016B01C20ED11CEF
:10337000CC15DD054CF40E2D212FA401BE01C50195
:103380000E944A192196F4CFDF91CF911F910F919E
:10339000EF90DF90CF90BF90AF909F908F90089567
:1033A000AF92BF92CF92DF92EF92FF920F93CF93A3
:1033B000DF935C01D42FD61BC0E0C22ED12CE62EA9
:1033C000F12CB7016C0F711D202FA601C5010E94C1
:1033D0002C19CE5FDC17A8F7DF91CF910F91FF90EA
:1033E000EF90DF90CF90BF90AF9008950F93CF9361
:1033F000DF93EC0189E08B8783E08E838F8382E00B
:103400008887288942EF56E061E070E080E390E031
:103410000E94921800E021E04AE656E060E170E088
:103420008EE090E00E9472142889CE010296253029
:1034300018F065ED74E002C064EB74E00E94601760
:1034400088E08B87DF91CF910F910895CF92DF9223
:10345000EF920F93CF93DF93EC016B0100E021E03B
:103460004EE755E068E070E08EE090E00E94721454
:103470008E85813069F40F85002351F0015025E0DD
:10348000E22E2DE042E2B601CE010E94211218C0C8
:1034900085E0E82E00E02DE042E2B601CE010E9478
:1034A0002112E889F0E0EE0FFF1FEF5EFD4F408133
:1034B000518121E06FE070E083E290E00E9472149D
:1034C000DF91CF910F91EF90DF90CF900895AF9261
:1034D000BF92CF92DF92EF920F931F93CF93DF9320
:1034E000EC016B01DB0116968D919C91179764E1BD
:1034F00070E00E94943511E08B3008F410E041E058
:10350000B601CE010E94E31000E021E041E05DE061
:1035100060E070E080E090E00E947214F601828129
:10352000873059F0883011F0863071F445EF5AE059
:1035300078ECA72E7BE0B72E0BC04CEC5AE066E18E
:10354000A62E6BE0B62E04C040E050E0A12CB12CBA
:1035500000E020E060E070E085E590E00E947214F9
:1035600021E0A50160E070E08AE390E00E9472141F
:1035700021E048E75CE060E070E083E290E00E94D8
:1035800072148E85811114C0112391F019868989D6
:103590008A3010F02AE001C025E0EE24E39407E031
:1035A00042E050E064E170E0C60103960E94A61973
:1035B00005E10E830F8382E088875E01F2E0AF0EA3
:1035C000B11C6989C5010E94E21781E089870E83D9
:1035D0000F838AE088876A89C5010E94E2178E8579
:1035E000843019F08889843089F500E021E042E7D1
:1035F0005AE063E170E080E090E00E94721405E11F
:103600000E830F8387E18887D6015B966C91C50195
:103610000E94E2170E830F8381E28887F601648D92
:10362000C5010E94E2170E830F838BE28887D601C3
:103630005D966C91C5010E94E2170E830F8385E3AE
:103640008887F601668DC5010E94E2178E8582503B
:10365000823040F08889833029F08B89883009F0E6
:1036600042C03FC0D6015096EC91EF3028F4F0E014
:10367000EF51F14EE49101C0E5E0D60112968C9134
:10368000873011F080E001C085E0E80FF0E0DF0155
:10369000AB59BD4F8C91880F880F8A5E93E09E8353
:1036A0009F838887EE0FFF1FEF5AFD4F6081718166
:1036B000C5010E94601700E0F601808D081768F6CA
:1036C000FE01E00FF11DBAE00B9FC0011124248917
:1036D00042EF59E064E370E003960E9492180F5F96
:1036E000EBCF1123C1F08E85833051F4D60158966B
:1036F0008C91880F982F990F990F890F8D5F03C0B8
:10370000843049F48AE120E04CEE59E065E370E052
:1037100090E00E9492188E858350823008F5111136
:103720001FC08B8987FD1CC0843054F08830C4F4DE
:10373000880FB4E08B9F800D1124855264E308C08C
:10374000880F682F660F660F860F66E1680F83E0AB
:1037500070E003E020E046EC59E090E00E94141392
:103760008E85813011F020E001C022E041E0B601F9
:10377000CE010E948F268E85883028F4863018F579
:103780008130E1F082C0883009F460C08D3008F0EB
:103790007CC080E2E82E04E621E14FE0B601CE01D4
:1037A0000E940E1184E18E838F8385E18887EE85E8
:1037B000F0E0EE0FFF1FE75DFD4F59C08F858830A9
:1037C00009F063C043C0873089F0F60182818730F9
:1037D00029F48C8D853021F42DE003C021E001C057
:1037E00029E041E0B601CE010E948F26D601129653
:1037F0008C918730D1F43AE1E32E08E527E144E1EA
:10380000B601CE010E940E118AE18E838F838CE176
:10381000888760EB79E0C5010E946017EC8DF0E0CD
:10382000EE0FFF1FEF5BFD4F22C022E1E22E0CE303
:1038300028E142E2B601CE010E940E1188E28E8399
:103840008F838DE1888763EA79E013C04EEA50E107
:1038500069E170E086E290E0DF91CF911F910F91D6
:10386000EF90DF90CF90BF90AF900C945616608190
:103870007181C501DF91CF911F910F91EF90DF9082
:10388000CF90BF90AF900C946017DF91CF911F91B4
:103890000F91EF90DF90CF90BF90AF900895DF929F
:1038A000EF92FF920F931F93CF93DF938C01EB0165
:1038B0007B0184E1E80EF11C8A81873089F0883031
:1038C00009F473C0863009F074C0E889EF3028F439
:1038D000F0E0EF51F14E649101C065E06F5F66C0AA
:1038E000E889EF3028F4F0E0EF51F14E649101C027
:1038F00065E06E5FC7010E946025E889EF3030F413
:10390000F0E0EF51F14EE491E23010F083E001C0BD
:1039100082E02E8990E0820F911D8B30910514F08A
:103920008AE090E08E8B8A8D8F5F8A8F66E070E0F0
:1039300080E090E00E943C17DC01CB010196A11DC4
:10394000B11DD82EF801848FC7010E941525823041
:1039500018F0F4E0FD15C0F5F801248D253089F04C
:1039600058F4213030F130E021503109C20FD31F1B
:103970008B8D8F5F8B8F1DC02630B9F0273059F0AB
:1039800018C08C8990E001968630910514F085E08E
:1039900090E08C8B0EC08E8990E002968B30910562
:1039A00014F08AE090E08E8B04C062E0C7010E94B0
:1039B000602586E0F8018687DF91CF911F910F91F6
:1039C000FF90EF90DF90089587E0F801848FC4CFD7
:1039D000EF92FF920F931F93CF93DF931F92CDB778
:1039E000DEB77C01FC0100811181C80169830E945E
:1039F0001B356981681719F0C8010E942335C7017A
:103A00000F90DF91CF911F910F91FF90EF9008954C
:103A1000FC0190E0DB0158968C91981788F4DF0147
:103A2000A90FB11D5F964C935F97411107C058963F
:103A30001C92268D222311F02150268F9F5FEACF02
:103A40000895CF92DF92EF92FF920F931F93CF933F
:103A5000DF93EC01DB017B0144E1E40EF11C9B01EF
:103A6000215F3F4F19969C911997909518968C91CC
:103A70009823EE854E2F50E04D30510508F051C28D
:103A80008B01FA01EC59FF4F0C94A83593FF02C04B
:103A900085E48D8F8D8D863408F043C28F5F8D8FC6
:103AA000863409F03EC21D8E8F858E87F80150C086
:103AB00082E0888B93FD04C0ED8DE131F0F04BC0C6
:103AC00081E18D8FF12CF801808DF816A8F76E0139
:103AD000CF0CD11CF601878D81110DC066E070E01E
:103AE00080E090E00E943C17DC01CB010196A11D13
:103AF000B11DF601848BF394E6CFF0E0EE56F64F5D
:103B0000649170E0F801868197810E949435892B39
:103B100009F007C2F12CF801808DF816B0F46E019F
:103B2000CF0CD11CF601878D81110DC066E070E0CD
:103B300080E090E00E943C17DC01CB010196A11DC2
:103B4000B11DF601848BF394E6CF8D8D8F5F8D8F41
:103B500017821682E6C18C89863059F08D898630AD
:103B600051F08E89863049F08F89863041F088E0A7
:103B700007C084E005C085E003C086E001C087E09F
:103B80008B8B80E021E0F801908D891730F4FE01E5
:103B9000E80FF11D278F8F5FF6CF83E068C095FF98
:103BA00020C08B89883024F02F89263019F413C067
:103BB000873021F42E89263019F40FC0863021F485
:103BC0002D89263019F40BC0853051F42C8926300C
:103BD00039F484E005C087E003C086E001C085E0D9
:103BE0008B8B96FF25C02B89243024F48C8986305A
:103BF00019F416C0243021F48D89863019F412C0CE
:103C0000253021F48E89863019F40EC0263029F42F
:103C10008F89863059F427E00AC0273041F406C066
:103C200024E005C025E003C026E001C028E02B8B7E
:103C300093FF77C1EB89E4300CF473C1E8305CF09A
:103C4000E83009F06EC1F801408D9E012C5E3F4FB7
:103C5000F90180E018C01D8E0E2E000CFF0B34976A
:103C6000EC0FFD1F178E808D8F5F808F82E08E8717
:103C700058C19191913039F0890F9381592F550F87
:103C8000950F990F890F9E2F921B941790F39BA16C
:103C9000911195E0D92ED80E298930E02D193109DE
:103CA0002F31310514F02EE130E037FF02C020E063
:103CB00030E0298B40E0B801CE010E94081D8989BF
:103CC00081110CC0B801CE01DF91CF911F910F91EE
:103CD000FF90EF90DF90CF900C944F1C1D8E83E0EF
:103CE000888B88E08B8BDD20B9F01E86C7010E948F
:103CF000152581110FC08E8D811109C085E008C086
:103D000040E0B801CE010E94081D81E08E8782E06C
:103D10008F8707C184E0FCCFC7010E941525811160
:103D200005C08E8D8111A2CF85E0A1CF84E09FCF09
:103D300084E0888B97FD02C095FF20C08B8984307A
:103D40002CF0F801268D211113C002C01816ACF416
:103D5000F801238D21110EC082307CF0248D2111B9
:103D60000BC0823051F0258D222339F082E005C04E
:103D700083E003C080E001C081E08B8B892F8075D8
:103D800039F18B8983308CF4F801268D211118C00C
:103D900087FF04C0838D882319F014C018162CF0F7
:103DA000F801848D882319F00FC0813031F4F801B7
:103DB000858D882359F082E00AC088303CF007C026
:103DC00083E005C080E003C081E001C088E08B8B08
:103DD00093FFA7C08B89813039F11CF4882331F01F
:103DE000A0CF823049F1833081F19BCFF801838DE0
:103DF0008150838F898990E00A978F31910514F063
:103E00008EE190E097FF02C080E090E0898B40E077
:103E1000B801CE010E94081D8989882309F452CF78
:103E200084E0888B8AE023CF8E8F89E08E87F8012B
:103E3000848D8150848F75C081E08BA38BE08E8749
:103E4000F801858D8150858F6CC08CE08E87F801DC
:103E5000868D8150868F878990E0089685319105FF
:103E600014F084E190E0F801878B27E130E0A901AC
:103E7000481B590BCA01880F8093000152C0FB01F7
:103E8000878990E02A8930E04489241B3109233353
:103E9000310514F022E330E037FF02C020E030E0CB
:103EA000821B930B97FF02C080E090E0F801878BA4
:103EB00027E130E0281B390B220F20930001892BCA
:103EC00009F01ECF81E08E8788E022CF93FF09C0E2
:103ED00081E0FB01838BB701C9010E941E25F80117
:103EE00087A38D8D8634E8F48F5F8D8F8634C9F477
:103EF0008E85888B87E0BBCE93FF13C081E0FB01EA
:103F0000838BB701C9010E941E2503C093FF09C01E
:103F10008EE0F80187A305C093FDA8CE02C093FDF3
:103F200003CFDF91CF911F910F91FF90EF90DF9022
:103F3000CF900895FC0116861786108A118A08957D
:103F4000FC0116861786108A0895FC0116860895CE
:103F5000CF92DF92EF92FF920F93CF93DF93EC011A
:103F60007B01FB01C680D78041E00E94E31000E0A6
:103F700021E04CE152E160E070E080E090E00E94DE
:103F800072148E85813079F118F0823021F12FC0C2
:103F90008F85813118F500E021E04AE656E060E1C6
:103FA00070E08EE090E00E9472140AEF288942EFE0
:103FB00056E061E070E080E390E00E94141383E03B
:103FC0008E838F8382E0888760E172E1CE01029662
:103FD0000E9460170CC08989811105C0B701CE010C
:103FE0000E94F61904C0B701CE010E94261A8889E2
:103FF000863049F0853049F0843049F48989882336
:1040000031F02AE005C029E003C02CE001C028E01F
:104010008E85823021F441E08F85863408F040E0BF
:10402000B701CE010E948F268E85823029F58989BD
:10403000882311F18F858634F8F4FFE0CF22DD2448
:1040400089E0C816D104C0F088E08E838F8318867B
:10405000E889E150F0E0EE0FFF1FEF5DFD4F60815A
:104060007181CE010296DF91CF910F91FF90EF9079
:10407000DF90CF900C946017DF91CF910F91FF905C
:10408000EF90DF90CF900895CF92DF92FF920F9341
:104090001F93CF93DF93EC018B016B0184E1C80E7A
:1040A000D11CFB01F184F0949085F9229E8591301A
:1040B00009F468C020F0923009F4C7C0D8C08F85D9
:1040C000813180F4F3FE0EC081E18F8766E070E0FD
:1040D00080E090E00E943C17DC01CB010196A11D1D
:1040E000B11D888BEF85E13100F5F0E0E150FE4E27
:1040F000649170E0F801868197810E949435892B44
:1041000009F0B5C066E070E080E090E00E943C17E6
:10411000DC01CB010196A11DB11D888B8F858F5FBE
:104120008F87F80117821682A2C08889853098F09F
:10413000F3FE9DC087E08F8781E08E8766E070E0A8
:1041400080E090E00E943C17DC01CB010196A11DAC
:10415000B11D888B8CC0F8018389811102C081E078
:1041600001C082E0F801268990E0820F911D8B301A
:10417000910514F08AE090E0F801868B1F8682E0BA
:104180008E8775C08F85882381F066E070E080E0BF
:1041900090E00E943C17DC01CB010196A11DB11DEE
:1041A000888B8F8581508F8762C0998BC6010E9452
:1041B0001525823020F08889853008F455C0E889BB
:1041C000E53081F050F4E13048F1F0E03197E00F54
:1041D000F11F838D8F5F838F21C0E63079F0E73048
:1041E00091F01CC0F801848990E001968630910519
:1041F00014F085E090E0F801848B10C062E0C60105
:104200000E9460250BC0F801868990E002968B30F1
:10421000910514F08AE090E0F801868B1F8682E019
:104220008E87F8018389811102C081E001C082E09C
:10423000F801268990E0820F911D8B30910514F0D2
:104240008AE090E0F801868B12C09F85963410F4C6
:104250009F5F9F87F3FE0BC0B601C8010F960E94B7
:104260001E25F80187A303C087E0888BA8CFDF91C4
:10427000CF911F910F91FF90DF90CF9008950F93F2
:104280001F93CF93DF938C01EB016C5E7F4FAE01E8
:10429000415F5F4F9985909528859223D8011E969E
:1042A0002C91223009F459C028F4222341F1213005
:1042B00041F0E3C0233009F4CCC0243009F4D9C064
:1042C000DCC0892F887093FF03C096E4F8019787BC
:1042D000D8011F969C911F97963420F49F5F1F96DC
:1042E0009C93CBC0882309F4C8C0F8019089888DBD
:1042F000891708F0BAC0D801178682E02BC0D80110
:104300001F96EC91E131F8F4F0E0E356FF4E649132
:1043100070E08E819F810E949435892B09F0ADC099
:1043200066E070E080E090E00E943C17DC01CB0189
:104330000196A11DB11DF801808B87858F5F87874E
:104340001F821E829AC0D8011F961C921F971F823F
:104350001E8281E01E968C9390C0F80187858C3078
:1043600088F466E070E080E090E00E943C17DC0199
:10437000CB010196A11DB11DF801808B87858F5F50
:1043800087877BC080898330C9F028F4813049F069
:10439000823059F04FC0853061F1C8F0863079F134
:1043A00049C08D8981508D8B45C08E8990E00197E1
:1043B00097FF02C080E090E08E8B3CC08C8990E03B
:1043C000019797FF02C080E090E08C8B33C08F890B
:1043D00090E0019797FF02C080E090E08F8B27E18B
:1043E00030E0F901E81BF90BCF01880F8093000141
:1043F00021C0898D8230F0F08150898F1BC08F8958
:1044000090E0029797FF02C080E090E08F8B27E159
:1044100030E0281B390B220F20930001892B51F02B
:1044200088898A3030F4E82FF0E0ED56FF4EE491B1
:104430008E0F888B8F89882341F01F821E82D801BE
:104440001F961C921F9783E085CF84E0F801868732
:1044500014C0D8011F962C911F97263420F42F5F8B
:104460001F962C930AC093FF08C0CA010E941E2504
:1044700003C093FF02C08EE08FA3DF91CF911F9105
:104480000F9108958F929F92AF92BF92CF92DF9239
:10449000EF92FF920F931F93CF93DF93EC016B0189
:1044A000FB01A680B78041E00E94E31000E021E01C
:1044B0004DEE51E168E270E080E090E00E947214FD
:1044C00021E049ED51E168E270E08FE490E00E9464
:1044D000721469E0E62EF12C00E021E040EC51E19D
:1044E00068E270E0C7010E947214FEE0EF0EF11C5A
:1044F0008FE4E816F10481F78E85823009F48FC0CD
:10450000A0F1833009F4C1C0843009F0E4C08E8387
:104510008F831886E889F0E0EE0FFF1FE359FD4F07
:1045200060817181CE0102960E94601700E028E050
:104530004CE1B601CE010E94EB11E889F0E0EE0FEC
:10454000FF1FE758FD4F4081518121E06AE070E094
:104550008EE190E00E9472144EEA50E163E270E056
:1045600086E290E00E945616B6C013E01E831F83B9
:1045700018874E01E2E08E0E911C64EB71E1C401DC
:104580000E94601782E48E838F831887288944E312
:1045900051E162E070E083E390E00E9492188E8522
:1045A000813009F098C0C5018F70992791E089305A
:1045B00008F490E08F85863410F4911119863889BB
:1045C000F601208D231798F0863470F4992361F05A
:1045D000EE24E39407E02FE043E050E060E470E075
:1045E000C60103960E94A61960E371E112C08634E9
:1045F00070F4992361F0EE24E39407E02BE043E0AC
:1046000050E060E470E0C60103960E94A6196DE2D6
:1046100071E1C4010E94601781E089875CC00F8549
:1046200028E04CE1B601CE010E94EB118F858D3060
:10463000D8F410E0312F330F8F8590E0FC01E9575B
:10464000FD4F2081121708F046C04096880F991F31
:1046500000E021E04EE151E168E070E0830F911D40
:104660000E9472141F5FE6CFE889F0E0EE0FFF1F93
:10467000E758FD4F4081518100E021E06AE070E0A1
:104680008EE190E00E94721426C000E028E04CE128
:10469000B601CE010E94EB11E889F0E0EE0FFF1F9A
:1046A000E758FD4F4081518121E06AE070E08EE1E2
:1046B00090E00E94721484E08E838F831886E889CC
:1046C000F0E0EE0FFF1FE359FD4F60817181CE01D5
:1046D00002960E946017E889E63028F4F0E0E85E70
:1046E000FE4E249101C020E08E85833021F441E00C
:1046F0008F85863408F040E0B601CE01DF91CF917E
:104700001F910F91FF90EF90DF90CF90BF90AF90EF
:104710009F908F900C948F260F93CF93DF93EB0194
:1047200041E00E946C1100E021E048EF5FE060E1B1
:1047300070E08EE190E00E94721421E04DEB5FE0AA
:1047400068E370E083E190E00E9472148E819F81A3
:1047500066E470E00E949435079748F420E041EA4F
:104760005FE064E070E083E390E00E9492188F8540
:1047700090E0FC01E356F04F4491FC01E756F04F06
:10478000849121E06FE370E090E0DF91CF910F9191
:104790000C94E918FC01DB0118968C911897199676
:1047A0009C9119979095982384FF08C02685203105
:1047B00018F42F5F268703C00E949818168695FF6D
:1047C00009C01F968C911F97882321F081501F9656
:1047D0008C931F9796FF09C01F968C911F9783306B
:1047E00020F48F5F1F968C931F9793FF52C01F96E4
:1047F0008C911F97880F880F59961C925997E82F14
:10480000F0E0E757F04FE4915496EC935497E1E0D1
:10481000E80FF0E0E757F04FE4915796EC93579785
:10482000E2E0E80FF0E0E757F04FE4915696EC93A2
:1048300056978D5FE82FF0E0E757F04FE4915596DB
:10484000EC93559781E058968C93589750961C920C
:10485000509751961C92519753961C92539752968B
:104860001C9252975B961C925B975C961C925C978D
:104870005D961C925D975E961C925E975A961C926E
:104880005A978AE097968C93979717961C921E9248
:1048900016970895FC0181E086878787108A128A1F
:1048A000138A148A118A158A0895FF920F931F9311
:1048B000CF93DF93EC018B0182E08E878F87888B0B
:1048C0008FEF8B8BFE017F96CE018396DF011B97C6
:1048D0001C9214961C921192E817F907B9F71C8ED6
:1048E0001D8E1E8E1BA240E0B801CE010E94081D45
:1048F000D80112968C9112978730F9F0883009F41C
:1049000040C0863009F044C05096FC9066E070E0EC
:1049100080E090E00E943C176F0D6E5F698BD801BC
:104920005096EC91EF3028F4F0E0EF51F14EE49125
:1049300001C0E5E0EE0FEE5F22C0D8015096EC9189
:10494000EF3028F4F0E0EF51F14EE49101C0E5E0E2
:104950008E2F880F880FE80FE65FE98BD8015096FD
:10496000EC91EF3058F4F0E0EF51F14EE491E53086
:1049700028F4F0E0E856F94EE49101C0E0E0EA8B5B
:1049800007C0F8018089880F8E5F898B85E08A8B4C
:1049900082E08E878F87DF91CF911F910F91FF90DB
:1049A00008956F927F928F929F92AF92BF92CF9213
:1049B000DF92EF920F931F93CF93DF933C014B0154
:1049C000D42F122FC02FC22ED12CA42EB12CE12C0B
:1049D00000E220E2A601B501C40103960E94A619D7
:1049E00000E0212F4D2FB401C3010E94EB11EC2FE9
:1049F000F0E0EE0FFF1FEE53FD4F40815181B601F5
:104A00006E5F7F4F21E0C50102960E947214DF9114
:104A1000CF911F910F91EF90DF90CF90BF90AF900B
:104A20009F908F907F906F900895FC019085878173
:104A3000890F9185890F9285890F0895FC01DB010B
:104A400082818F5F8283833081F030F4813059F02E
:104A5000823069F481E009C0843039F0853039F45E
:104A600086E083830DC0138229C0838327C08630EC
:104A700029F481818D3089F48DE008958530F1F439
:104A800081818630D9F028F48130C1F0833029F457
:104A900015C0893099F08D3089F011968C9111975D
:104AA000815011968C931197128211968C9187FDEB
:104AB00005C081818F5F8183138214828AE008950B
:104AC000DC0114968C911497E82FF0E0E95AFA4E25
:104AD000E49115969C911597690FE61718F01596B5
:104AE0006C9308956F5F6E1B15966C9315978F5F8F
:104AF00014968C930895CF92DF92EF92FF921F93BA
:104B0000CF93DF93EC01FB0111851095808518236D
:104B10008E858230C9F17B01833030F4882309F41B
:104B20004BC0813041F0F3C0833009F469C0843058
:104B300009F47AC0ECC0E889E13100F5F0E0E45A0C
:104B4000FA4E649170E0F701868197810E94943556
:104B5000892B09F0DCC066E070E080E090E00E9404
:104B60003C17DC01CB010196A11DB11D898B888901
:104B70008F5F888BF70117821682C9C0188AFB01E4
:104B80001782168282E04EC0912F987013FF02C0E8
:104B900086E4888B8889863408F4A5C0992309F4B3
:104BA000B6C0188A1E869989808D891710F083E017
:104BB00001C084E08F87ABC088898C30D8F466E070
:104BC00070E080E090E00E943C17DC01CB01019690
:104BD000A11DB11D8B8B2FEF280F09F426E02A8B26
:104BE00061E0680F673010F46C8B02C081E08C8B41
:104BF000888979C081E08D8B8F858E8788E274C02B
:104C000015FF05C08D89882311F081508D8B16FF0B
:104C100005C08D89823010F48F5F8D8B13FF77C0B4
:104C2000188A84E08E8773C06B01F4E1CF0ED11C2B
:104C30008889811150C08D89FE01E80FF11D82899C
:104C4000833059F128F4813041F0823091F043C033
:104C5000843089F18530A1F13EC0FB01868990E066
:104C600002968B30910514F08AE090E0F701868B74
:104C700032C0FB01278930E02E5F3F4F25313105DF
:104C800014F024E130E0F701278B87E190E0821BEC
:104C9000930B880F809300011EC0FB018589082EAD
:104CA000000C990B01968B30910514F08AE090E08E
:104CB000F701858B10C062E0C6010E9460250BC021
:104CC000FB01848990E001968630910514F085E01F
:104CD00090E0F701848B13FF03C086E4888B18E013
:104CE0008889863418F48F5F888B11C013FF0FC03A
:104CF0008D89C80FD11D8A89863030F4B601C7016D
:104D00000F960E941E2501C088E0F70187A3DF915E
:104D1000CF911F91FF90EF90DF90CF9008952F9249
:104D20003F924F925F926F927F928F929F92AF923B
:104D3000BF92CF92DF92EF92FF920F931F93CF9388
:104D4000DF9300D000D000D0CDB7DEB79E838D8337
:104D50006B01FB01868197818F709927099710F469
:104D6000512C01C0542EA12CB12CFF24F39488E7C0
:104D7000482E8D809E80F2E08F0E911C3324339458
:104D8000360183E0680E711C22FB222420F823FBED
:104D9000EE27E0F9E983F22FF071FA83822F817018
:104DA0008B8321FB112710F98FEF8F0D8330A9F032
:104DB00028F4813051F0823061F004C0843089F0F1
:104DC000853099F0F601308D2AC0F601318D8B8146
:104DD000A4C0F6013789812FA0C0F6013489822D45
:104DE0009CC0F6013689898198C0F6013589FA811F
:104DF000FF2349F1552099F0ED81FE8111863A306B
:104E000010F02AE001C025E0EE24E39407E0A501BC
:104E100067E770E0C3013C830E94A6193C81ED81E5
:104E2000FE8146824782A086632FC4010E94E2175A
:104E3000ED81FE813186F6E0FF16A9F0F394E9E0FA
:104E4000AE0EB11CB1CF88E7ED81FE8186838783EA
:104E50008DE28087632FCF0102960E94E21781E0E6
:104E6000ED81FE8181875601EBE1AE0EB11C04E9B4
:104E700012E0F12C4501F5018081882371F0F801E1
:104E800040815181FBE0FF9EC001112468E370E086
:104E900085599F4F0E945616F3942FEFA21AB20A1B
:104EA000F4018081823070F0F80140815181FBE093
:104EB000FF9EC001112468E370E085599F4F0E9456
:104EC0005616F3940E5F1F4F22E00C39120791F62D
:104ED00083E0C80ED11C6AE670E0C6010E947A1910
:104EE00065E770E0C60126960FB6F894DEBF0FBEE8
:104EF000CDBFDF91CF911F910F91FF90EF90DF9089
:104F0000CF90BF90AF909F908F907F906F905F9069
:104F10004F903F902F900C947A1981116BCFED81B7
:104F2000FE8146824782A086632FC4010E94E21759
:104F3000ED81FE81318682CF8F929F92BF92CF9278
:104F4000DF92EF92FF920F931F93CF93DF93EC01C9
:104F50006B01FB01868197818F709927BB24B394E5
:104F6000893008F4B12C34EFE32EFF24FA9400E0EA
:104F700021E04DE456E168E270E0C7010E9472143E
:104F8000F4E1EF0EF11C28E5E216F10481F741E0AF
:104F9000B601CE010E94E3101E85133018F41130C3
:104FA000A8F09BC0133009F4DFC0143009F025C10C
:104FB0008D89FE01E80FF11D028928E04CE1B60160
:104FC000CE010E94D1241E831F8306C18F85F60166
:104FD00033964F01833001F5E12C00E220E24FE0EF
:104FE00050E062E070E0CF010E94A61920E24FE09D
:104FF00050E066E370E0C4010E94A61908892FE022
:1050000042E0B601CE010E94EB1108892FE046E391
:10501000B601CE010E94EB11E12C00E22EE148E046
:1050200050E06DE170E0C4010E94A619088928E0F3
:105030004CE1B601CE010E94EB1188898D30E0F57C
:1050400010E0E12EEE0C888990E0FC01E954FD4F60
:105050002081121708F0D1C02F85F12C2330D9F40C
:105060000396880F991F00E021E04EE356E16FE0C0
:1050700070E08E0D9F1D0E9472142889C701820F57
:10508000911D820F911D21E04EE356E16FE070E02B
:10509000CA960E9472142889C701820F911D820F3F
:1050A000911D00E021E04EE356E168E070E080965B
:1050B0000E9472141F5FC5CFEB89F0E0EE0FFF1F57
:1050C000EE53FD4F4081518100E021E06AE070E045
:1050D0008EE190E00E94721490C013E01E831F8343
:1050E00018874E01F2E08F0E911C60E376E1C40157
:1050F0000E94601787E48E838F831887298940EB8D
:1051000055E162E070E088E390E00E9492188E859D
:10511000823009F072C088898634B0F4BB20A1F0D7
:1051200019869989F601808D891710F42BE001C04A
:105130002FE0EE24E39407E043E050E065E470E004
:10514000C60103960E94A6199989F601808D8917D8
:1051500018F06CEA75E102C069EA75E1C4010E94C9
:10516000601781E0898749C0E12CF12C8D89F70116
:10517000E255FD4F23E0829FE00DF11D1124808058
:10518000E82DF0E0DF01A555BD4F1C91DF01A855CA
:10519000BD4F9C90EC0FFD1F0289212F492DB601B8
:1051A000CE010E94D124BB2069F08D8988110AC0EC
:1051B000612F70E000E020E042E755E1892D90E0AA
:1051C0000E9472143FEFE31AF30A83E0E816F10439
:1051D00069F684E08E838F8318868D89FE01E80F3F
:1051E000F11DE289F0E0EE0FFF1FE656FD4F6081F2
:1051F0007181CE0102960E9460178D89FE01E80F31
:10520000F11DE289E53028F4F0E0E359FA4E2491EB
:1052100001C020E08E85843021F441E08889863405
:1052200008F040E0B601CE01DF91CF911F910F91C0
:10523000FF90EF90DF90CF90BF909F908F900C9455
:105240008F26FC0116861786108A0895DC01FB0163
:10525000918590952085922393FF0EC01E968C9188
:105260001E97882319F0813029F0089581E01E9659
:105270008C9308958CE087A30895CF92DF92EF92EC
:10528000FF920F93CF93DF93EC016B017B0183E0DF
:10529000E80EF11C41E0CE010E94E31000E020E0A6
:1052A0004BE55BE160E070E087E290E00E94721401
:1052B00021E040E45AE160E070E087E290E00E9483
:1052C0007214F6018681978162E370E00E94943542
:1052D000049740F421E047E06BE070E08AE390E05F
:1052E0000E94E91821E043E36CE370E083E290E080
:1052F0000E94E91801E02EE347E563E2C7010E943E
:10530000D0192FE347E564E2C7010E94D0198E85CA
:10531000882329F0813031F449E159E105C049E899
:1053200059E102C040E050E000E021E061E070E0BF
:1053300082E090E00E9472146F85F8E06F9FB001E8
:105340001124695F7F4F4DE35AE182E090E00E94B3
:1053500056166F8588E0689FB0011124695F7F4F02
:105360004DE35AE181E290E00E9456168889882335
:10537000D1F08AE1E82E00E427E14FE1B601CE0149
:105380000E940E1184E28E838F838CE18887E889E6
:10539000F0E0EE0FFF1FEA52FD4F60817181CE01F8
:1053A00002960E946017298941E0B601CE01DF9183
:1053B000CF910F91FF90EF90DF90CF900C948F26BC
:1053C000AF92BF92CF92DF92EF92FF920F931F9313
:1053D000CF93DF931F92CDB7DEB78C015B016B01DA
:1053E00044E1C40ED11CFB01F184F0948085F822C5
:1053F00011F0F801108AF8018685882321F08130A8
:1054000009F4DCC026C1F7FE06C0F80187858823B1
:1054100011F081508787F4FE06C0F8018785863039
:1054200010F48F5F8787F3FE14C1F80127852230BF
:1054300009F450C028F4222351F0213041F1B7C0C3
:10544000263008F472C0263009F492C0B0C0F501CD
:105450008689811102C081E005C0F50185898A3005
:1054600021F483E0F801808BA2C0F801818980617A
:10547000818BF5018589082E000C990B01968B30E4
:10548000910514F08AE090E0F501858B1FC0F501CD
:105490008689882301F38789843119F3F80181898A
:1054A0008260818BF501878990E0019685319105B5
:1054B00014F084E190E0F501878B27E130E0A90149
:1054C000481B590BCA01880F80930001868990E020
:1054D000019724C0F5018689833008F4BCCF878901
:1054E000843109F4BECFF80181898260818BF50196
:1054F000878990E004968531910514F084E190E06D
:10550000F501878B27E130E0A901481B590BCA013F
:10551000880F80930001868990E0039797FF02C06F
:1055200080E090E0F501868B42C0F501E688F7E067
:10553000FE1508F090CFC60129830E941525298108
:10554000823008F08ECFE22FF0E03397EA0DFB1D9A
:10555000838D8F5F838F8E2D90E0089797FF02C019
:1055600080E090E0F501868BF801818988601EC09B
:10557000F5018689863008F46ECF2489253008F03D
:1055800070CF30E02F5F3F4F2630310514F025E01B
:1055900030E0F501248B90E0069797FF02C080E091
:1055A00090E0F501868BF80181898460818BF80198
:1055B0008189982F977109F44CC02BC0F7FE06C063
:1055C000F8018785882311F081508787F4FE06C093
:1055D000F8018785843010F48F5F8787F3FE39C028
:1055E000F8018785F5018330B0F4E80FF11D838D54
:1055F0008823A1F08150838FF501868990E004967D
:105600008B30910514F08AE090E0F501868BF8016B
:10561000818988601DC02489211104C082E0F801BD
:10562000808B17C030E02150310937FF02C020E0E5
:1056300030E0F501248B868990E003968B3091054C
:1056400014F08AE090E0F501868BF80181898C6086
:10565000818B8F2D807641F081E0F8019685911144
:1056600080E0F80186871786F2FE07C0B601C50103
:105670000F960E941E25F50187A30F90DF91CF9111
:105680001F910F91FF90EF90DF90CF90BF90AF9060
:1056900008951F93CF93DF93162FEC012296643663
:1056A00060F467E179E1CE010E9460171A3028F4B6
:1056B00065E179E1CE010E946017612FCE010E9461
:1056C000E21763E179E1CE01DF91CF911F910C9454
:1056D00060171F93CF93DF93162FEC0122966A3049
:1056E00028F461E179E1CE010E946017612FCE01BB
:1056F0000E94E2176FE079E1CE01DF91CF911F9117
:105700000C946017DF92EF92FF920F931F93CF9349
:10571000DF93EC017B0141E08E85813009F440E0AC
:10572000B701CE010E946C118E85882309F48DC0CB
:10573000813009F0AFC000E021E04AE557E165E1C2
:1057400070E084E190E00E94721420E049E057E1AB
:1057500064E070E088E190E00E94921887E18E8317
:105760008F8304E10887D7011F96EC91F0E0EE0FDC
:10577000FF1FE053FD4F60817181CE0102960E94B0
:10578000601718E31E831F830887F7016785862F3C
:10579000880F680FCE010E94692B81E28E838F8370
:1057A0009DE1D92ED886D70158966C91660FCE010F
:1057B0000E94692BF701608970E06F5F7F4F862F31
:1057C000880F680FCE010E94692BD70157966C9104
:1057D000660FCE010E94692BF7016589CE010E94F8
:1057E000692B1E831F83D886D70154966C91CE01F6
:1057F0000E94692BF7016689660FCE010E94692B12
:10580000D7015A966C91660FCE010E94692BC70191
:1058100044960E941525682FCE010E94692B1FE532
:105820001E831F8308876F85CE010E94492B1E832C
:105830001F83D8866889CE01DF91CF911F910F9188
:10584000FF90EF90DF900C94492B00E021E04BE0BB
:1058500058E16FE070E088E190E00E947214D70197
:1058600016968D919C91179766E470E00E9494358E
:10587000079780F420E04FEE57E164E070E083E3A7
:1058800090E0DF91CF911F910F91FF90EF90DF900B
:105890000C949218DF91CF911F910F91FF90EF9090
:1058A000DF900895BF92CF92DF92EF92FF920F9315
:1058B0001F93CF93DF9300D0CDB7DEB78C017B0170
:1058C0006B0184E1C80ED11C82E990E00E941B3577
:1058D000B82E83E990E00E941B359DE4B91202C006
:1058E0008235D9F082E990E09A8389836DE4CE0114
:1058F00001960E94E81C83E990E09A83898362E51F
:10590000CE0101960E94E81C84E990E09A83898385
:1059100060E0CE0101960E94E81CF8011686178609
:10592000108AF70182818D3019F081E0F8018687B5
:10593000F7019785292F220F322F390FF80137876A
:10594000F701908D990F292F230FF8012787F70171
:10595000808990E00196982F990F980F920FF80187
:105960009787F701B788BB0C9B0DF8019787F70164
:10597000B588B90EF801B786F7018489B80EF80129
:10598000B786F7018689880FB80EF801B786F70148
:10599000828D880FB80EF801B786C6010E941525C2
:1059A000E82EF12CEB0CF11CF801E78684E990E07D
:1059B0000E941B35F8018E1510F0808B0AC0E08A1A
:1059C00084E990E09A8389836E2DCE0101960E942E
:1059D000E81C0F900F90DF91CF911F910F91FF90D6
:1059E000EF90DF90CF90BF9008950895FC01128250
:1059F000138280E4848381E085830895CF93DF93CD
:105A0000EC01FB0181858095908589239E859130ED
:105A100001F118F09230C1F13BC08681978165E0B9
:105A200070E00E949435892B99F58889482F082EBB
:105A3000000C550B298930E0421753071CF48F5F87
:105A4000888B26C08FE7888B81E08E8787E08F87E1
:105A50001FC087FF07C09289923011F0953011F472
:105A60009150928B84FF07C09289913011F094304D
:105A700011F49F5F928B83FF0BC08289DF01A80F17
:105A8000B11D5F968C9103C083FF02C08EE087A397
:105A9000DF91CF910895FC0116861786108A118A2E
:105AA00008958F929F92AF92BF92DF92EF92FF92F2
:105AB0000F931F93CF93DF93EC017B0100E021E074
:105AC00047E85FE16EE070E08EE190E00E947214C2
:105AD0008A8187FD3EC02C8130E08B81281B3109F3
